{
  "_format": "hh-sol-artifact-1",
  "contractName": "AssetsHolder",
  "sourceName": "contracts/holder/AssetsHolder.sol",
  "abi": [
    {
      "inputs": [],
      "stateMutability": "nonpayable",
      "type": "constructor"
    },
    {
      "anonymous": false,
      "inputs": [
        {
          "indexed": false,
          "internalType": "uint8",
          "name": "version",
          "type": "uint8"
        }
      ],
      "name": "Initialized",
      "type": "event"
    },
    {
      "anonymous": false,
      "inputs": [
        {
          "indexed": true,
          "internalType": "address",
          "name": "oldImplementation",
          "type": "address"
        },
        {
          "indexed": true,
          "internalType": "address",
          "name": "newImplementation",
          "type": "address"
        },
        {
          "indexed": false,
          "internalType": "string",
          "name": "name",
          "type": "string"
        }
      ],
      "name": "LogicUpdated",
      "type": "event"
    },
    {
      "anonymous": false,
      "inputs": [
        {
          "indexed": true,
          "internalType": "address",
          "name": "previousOwner",
          "type": "address"
        },
        {
          "indexed": true,
          "internalType": "address",
          "name": "newOwner",
          "type": "address"
        }
      ],
      "name": "OwnershipTransferred",
      "type": "event"
    },
    {
      "anonymous": false,
      "inputs": [
        {
          "indexed": true,
          "internalType": "address",
          "name": "token",
          "type": "address"
        }
      ],
      "name": "TokenCreated",
      "type": "event"
    },
    {
      "inputs": [
        {
          "internalType": "address",
          "name": "_token",
          "type": "address"
        }
      ],
      "name": "associate",
      "outputs": [],
      "stateMutability": "nonpayable",
      "type": "function"
    },
    {
      "inputs": [
        {
          "internalType": "address",
          "name": "_token",
          "type": "address"
        },
        {
          "internalType": "uint256",
          "name": "_amount",
          "type": "uint256"
        }
      ],
      "name": "burnToken",
      "outputs": [],
      "stateMutability": "nonpayable",
      "type": "function"
    },
    {
      "inputs": [
        {
          "internalType": "string",
          "name": "_name",
          "type": "string"
        },
        {
          "internalType": "string",
          "name": "_symbol",
          "type": "string"
        },
        {
          "internalType": "uint256",
          "name": "_initialTotalSupply",
          "type": "uint256"
        }
      ],
      "name": "createToken",
      "outputs": [],
      "stateMutability": "payable",
      "type": "function"
    },
    {
      "inputs": [],
      "name": "getHederaServiceVersion",
      "outputs": [
        {
          "internalType": "contract IHederaService",
          "name": "",
          "type": "address"
        }
      ],
      "stateMutability": "view",
      "type": "function"
    },
    {
      "inputs": [],
      "name": "governanceToken",
      "outputs": [
        {
          "internalType": "address",
          "name": "",
          "type": "address"
        }
      ],
      "stateMutability": "view",
      "type": "function"
    },
    {
      "inputs": [
        {
          "internalType": "address",
          "name": "_governanceToken",
          "type": "address"
        },
        {
          "internalType": "contract IHederaService",
          "name": "_iHederaService",
          "type": "address"
        }
      ],
      "name": "initialize",
      "outputs": [],
      "stateMutability": "nonpayable",
      "type": "function"
    },
    {
      "inputs": [
        {
          "internalType": "address",
          "name": "_token",
          "type": "address"
        },
        {
          "internalType": "uint256",
          "name": "_amount",
          "type": "uint256"
        }
      ],
      "name": "mintToken",
      "outputs": [],
      "stateMutability": "nonpayable",
      "type": "function"
    },
    {
      "inputs": [],
      "name": "owner",
      "outputs": [
        {
          "internalType": "address",
          "name": "",
          "type": "address"
        }
      ],
      "stateMutability": "view",
      "type": "function"
    },
    {
      "inputs": [],
      "name": "renounceOwnership",
      "outputs": [],
      "stateMutability": "nonpayable",
      "type": "function"
    },
    {
      "inputs": [],
      "name": "setText",
      "outputs": [],
      "stateMutability": "nonpayable",
      "type": "function"
    },
    {
      "inputs": [
        {
          "internalType": "address",
          "name": "to",
          "type": "address"
        },
        {
          "internalType": "address",
          "name": "token",
          "type": "address"
        },
        {
          "internalType": "uint256",
          "name": "amount",
          "type": "uint256"
        }
      ],
      "name": "transfer",
      "outputs": [],
      "stateMutability": "nonpayable",
      "type": "function"
    },
    {
      "inputs": [
        {
          "internalType": "address",
          "name": "newOwner",
          "type": "address"
        }
      ],
      "name": "transferOwnership",
      "outputs": [],
      "stateMutability": "nonpayable",
      "type": "function"
    },
    {
      "inputs": [
        {
          "internalType": "contract IHederaService",
          "name": "_iHederaService",
          "type": "address"
        }
      ],
      "name": "upgradeHederaService",
      "outputs": [],
      "stateMutability": "nonpayable",
      "type": "function"
    },
    {
      "inputs": [
        {
          "internalType": "address",
          "name": "_proxy",
          "type": "address"
        },
        {
          "internalType": "address",
          "name": "_proxyLogic",
          "type": "address"
        },
        {
          "internalType": "address",
          "name": "_proxyAdmin",
          "type": "address"
        }
      ],
      "name": "upgradeProxy",
      "outputs": [],
      "stateMutability": "nonpayable",
      "type": "function"
    },
    {
      "stateMutability": "payable",
      "type": "receive"
    }
  ],
  "bytecode": "0x608060405234801561001057600080fd5b5061001961001e565b6100dd565b600054610100900460ff161561008a5760405162461bcd60e51b815260206004820152602760248201527f496e697469616c697a61626c653a20636f6e747261637420697320696e697469604482015266616c697a696e6760c81b606482015260840160405180910390fd5b60005460ff908116146100db576000805460ff191660ff9081179091556040519081527f7f26b83ff96e1f2b6a682f133852f6798a09c465da95921460cefb38474024989060200160405180910390a15b565b611dad806100ec6000396000f3fe6080604052600436106100b15760003560e01c80633a19a7c6146100bd578063485cc955146100d45780635b060530146100f45780636dab6f7514610107578063715018a61461013757806379c650681461014c5780638da5cb5b1461016c578063beabacc814610181578063d1df306c146101a1578063d26d681f146101c1578063d89f3123146101e1578063f2fde38b14610201578063f434fc3c14610221578063f96dae0a1461024157600080fd5b366100b857005b600080fd5b3480156100c957600080fd5b506100d2610261565b005b3480156100e057600080fd5b506100d26100ef36600461168e565b61026b565b6100d2610102366004611769565b610424565b34801561011357600080fd5b506098546001600160a01b03165b60405161012e91906117d5565b60405180910390f35b34801561014357600080fd5b506100d26104d7565b34801561015857600080fd5b506100d26101673660046117e9565b6104e9565b34801561017857600080fd5b50610121610553565b34801561018d57600080fd5b506100d261019c366004611815565b610562565b3480156101ad57600080fd5b506100d26101bc3660046117e9565b6105ff565b3480156101cd57600080fd5b506100d26101dc366004611856565b610666565b3480156101ed57600080fd5b506100d26101fc366004611856565b6106e8565b34801561020d57600080fd5b506100d261021c366004611856565b6106fc565b34801561022d57600080fd5b506100d261023c366004611873565b610772565b34801561024d57600080fd5b50609754610121906001600160a01b031681565b610269610837565b565b600054610100900460ff161580801561028b5750600054600160ff909116105b806102ac575061029a30610896565b1580156102ac575060005460ff166001145b6103145760405162461bcd60e51b815260206004820152602e60248201527f496e697469616c697a61626c653a20636f6e747261637420697320616c72656160448201526d191e481a5b9a5d1a585b1a5e995960921b60648201526084015b60405180910390fd5b6000805460ff191660011790558015610337576000805461ff0019166101001790555b61033f6108a5565b6103476108d4565b609880546001600160a01b038085166001600160a01b031992831617909255609780549286169290911691909117905561038083610903565b609854604080518082018252600d81526c4865646572615365727669636560981b602082015290516001600160a01b0390921691600091600080516020611cc7833981519152916103d1919061190e565b60405180910390a3801561041f576000805461ff0019169055604051600181527f7f26b83ff96e1f2b6a682f133852f6798a09c465da95921460cefb38474024989060200160405180910390a15b505050565b61042c610837565b609854600090819061044b906001600160a01b03168686866008610977565b90925090506016821461049c5760405162461bcd60e51b815260206004820152601960248201527810520e881d1bdad95b8818dc99585d1a5bdb8819985a5b1959603a1b604482015260640161030b565b6040516001600160a01b038216907f2e2b3f61b70d2d131b2a807371103cc98d51adcaa5e9a8f9c32658ad8426e74e90600090a25050505050565b6104df610837565b6102696000610b8d565b6104f1610837565b60985460009061050b906001600160a01b03168484610bdf565b5090506016811461041f5760405162461bcd60e51b815260206004820152601260248201527110520e881b5a5b9d1a5b99c819985a5b195960721b604482015260640161030b565b6033546001600160a01b031690565b61056a610837565b610572610d2f565b6001600160a01b03821661058f5761058a8382610d88565b6105f5565b6098546000906105ab906001600160a01b031684308786610e9e565b9050601681146105f35760405162461bcd60e51b815260206004820152601360248201527210520e881d1c985b9cd9995c8819985a5b1959606a1b604482015260640161030b565b505b61041f6001606555565b610607610837565b609854600090610621906001600160a01b03168484610ecc565b5090506016811461041f5760405162461bcd60e51b815260206004820152600f60248201526e10520e88189d5c9b8819985a5b1959608a1b604482015260640161030b565b61066e610837565b609854604080518082018252600d81526c4865646572615365727669636560981b602082015290516001600160a01b03808516931691600080516020611cc7833981519152916106be919061190e565b60405180910390a3609880546001600160a01b0319166001600160a01b0392909216919091179055565b6106f0610837565b6106f981610903565b50565b610704610837565b6001600160a01b0381166107695760405162461bcd60e51b815260206004820152602660248201527f4f776e61626c653a206e6577206f776e657220697320746865207a65726f206160448201526564647265737360d01b606482015260840161030b565b6106f981610b8d565b61077a610837565b6107d5838360405160240161078f91906117d5565b60408051601f19818403018152918152602080830180516001600160e01b0316631b2ce7f360e11b179052815160608101909252603980835290611ce790830139610f69565b5061083183826040516024016107eb91906117d5565b60408051601f19818403018152918152602080830180516001600160e01b03166308f2839760e41b179052815160608101909252603880835290611d2090830139610f69565b50505050565b33610840610553565b6001600160a01b0316146102695760405162461bcd60e51b815260206004820181905260248201527f4f776e61626c653a2063616c6c6572206973206e6f7420746865206f776e6572604482015260640161030b565b6001600160a01b03163b151590565b600054610100900460ff166108cc5760405162461bcd60e51b815260040161030b90611921565b610269610f82565b600054610100900460ff166108fb5760405162461bcd60e51b815260040161030b90611921565b610269610fb2565b60985460009061091d906001600160a01b03163084610fd9565b905060c281148061092e5750601681145b6109735760405162461bcd60e51b815260206004820152601660248201527510520e88185cdcdbd8da585d1a5bdb8819985a5b195960521b604482015260640161030b565b5050565b60008060008061098561159b565b60108317306080830152925061099961159b565b3060808201526040805160028082526060820190925260019490941793600091602082015b6109c66115de565b8152602001906001900390816109be57905050905060405180604001604052808681526020018481525081600081518110610a0357610a0361196c565b602002602001018190525060405180604001604052808581526020018381525081600181518110610a3657610a3661196c565b6020026020010181905250610a496115fd565b306020820152627a12006040820152610a6061161d565b8c81600001819052508b81602001819052503081604001906001600160a01b031690816001600160a01b03168152505081816101000181905250828160e001819052506000808f6001600160a01b0316635ed9138460e01b848f8f604051602401610acd93929190611a45565b60408051601f198184030181529181526020820180516001600160e01b03166001600160e01b0319909416939093179092529051610b0b9190611b61565b600060405180830381855af49150503d8060008114610b46576040519150601f19603f3d011682016040523d82523d6000602084013e610b4b565b606091505b509150915081610b5e5760156000610b72565b80806020019051810190610b729190611b7d565b809b50819c5050505050505050505050509550959350505050565b603380546001600160a01b038381166001600160a01b0319831681179093556040519116919082907f8be0079c531659141344cd1fd0a4f28419497f9722a3daafe3b4186f6b6457e090600090a35050565b60008060008311610c545760405162461bcd60e51b815260206004820152604460248201819052600080516020611d58833981519152908201527f746f206d696e742073686f756c642062652067726561746572207468616e207a60648201526332b9379760e11b608482015260a40161030b565b600080866001600160a01b0316631c057c7760e01b8787604051602401610c7c929190611ba2565b60408051601f198184030181529181526020820180516001600160e01b03166001600160e01b0319909416939093179092529051610cba9190611b61565b600060405180830381855af49150503d8060008114610cf5576040519150601f19603f3d011682016040523d82523d6000602084013e610cfa565b606091505b509150915081610d0d5760156000610d21565b80806020019051810190610d219190611bd2565b909890975095505050505050565b600260655403610d815760405162461bcd60e51b815260206004820152601f60248201527f5265656e7472616e637947756172643a207265656e7472616e742063616c6c00604482015260640161030b565b6002606555565b80471015610dd85760405162461bcd60e51b815260206004820152601d60248201527f416464726573733a20696e73756666696369656e742062616c616e6365000000604482015260640161030b565b6000826001600160a01b03168260405160006040518083038185875af1925050503d8060008114610e25576040519150601f19603f3d011682016040523d82523d6000602084013e610e2a565b606091505b505090508061041f5760405162461bcd60e51b815260206004820152603a60248201527f416464726573733a20756e61626c6520746f2073656e642076616c75652c20726044820152791958da5c1a595b9d081b585e481a185d99481c995d995c9d195960321b606482015260840161030b565b600080610eab878761106c565b9050610eba818787878761114a565b979650505050505050565b6001606555565b60008060008311610f415760405162461bcd60e51b815260206004820152604460248201819052600080516020611d58833981519152908201527f746f206275726e2073686f756c642062652067726561746572207468616e207a60648201526332b9379760e11b608482015260a40161030b565b600080866001600160a01b0316633621a35d60e01b8787604051602401610c7c929190611ba2565b6060610f78848460008561134b565b90505b9392505050565b600054610100900460ff16610fa95760405162461bcd60e51b815260040161030b90611921565b61026933610b8d565b600054610100900460ff16610ec55760405162461bcd60e51b815260040161030b90611921565b6000610fe483610896565b15610ffb57610ff4848484611428565b9050610f7b565b60405163f4a01e5b60e01b81526001600160a01b0385169063f4a01e5b906110299086908690600401611bfe565b6020604051808303816000875af1158015611048573d6000803e3d6000fd5b505050506040513d601f19601f82011682018060405250810190610f789190611c18565b6000806000846001600160a01b0316635d2c5bad856040518263ffffffff1660e01b815260040161109d91906117d5565b60408051808303816000875af11580156110bb573d6000803e3d6000fd5b505050506040513d601f19601f820116820180604052508101906110df9190611c31565b91509150601660030b8260070b146111395760405162461bcd60e51b815260206004820152601e60248201527f546f6b656e4f7065726174696f6e733a20696e76616c696420746f6b656e0000604482015260640161030b565b8060030b6001149250505092915050565b6000808661125257306001600160a01b038616146111da576040516323b872dd60e01b81526001600160a01b038716906323b872dd9061119290889088908890600401611c63565b6020604051808303816000875af11580156111b1573d6000803e3d6000fd5b505050506040513d601f19601f820116820180604052508101906111d59190611c87565b61124b565b60405163a9059cbb60e01b81526001600160a01b0387169063a9059cbb906112089087908790600401611ba2565b6020604051808303816000875af1158015611227573d6000803e3d6000fd5b505050506040513d601f19601f8201168201806040525081019061124b9190611c87565b905061132e565b6040516323b872dd60e01b81526001600160a01b038716906323b872dd9061128290889088908890600401611c63565b600060405180830381600087803b15801561129c57600080fd5b505af11580156112b0573d6000803e3d6000fd5b50506040516331a9108f60e11b8152600481018690526001600160a01b03878116935089169150636352211e90602401602060405180830381865afa1580156112fd573d6000803e3d6000fd5b505050506040513d601f19601f820116820180604052508101906113219190611ca9565b6001600160a01b03161490505b8061133a57601561133d565b60165b60030b979650505050505050565b6060824710156113ac5760405162461bcd60e51b815260206004820152602660248201527f416464726573733a20696e73756666696369656e742062616c616e636520666f6044820152651c8818d85b1b60d21b606482015260840161030b565b600080866001600160a01b031685876040516113c89190611b61565b60006040518083038185875af1925050503d8060008114611405576040519150601f19603f3d011682016040523d82523d6000602084013e61140a565b606091505b509150915061141b878383876114ff565b925050505b949350505050565b6000806000856001600160a01b031663f4a01e5b60e01b8686604051602401611452929190611bfe565b60408051601f198184030181529181526020820180516001600160e01b03166001600160e01b03199094169390931790925290516114909190611b61565b600060405180830381855af49150503d80600081146114cb576040519150601f19603f3d011682016040523d82523d6000602084013e6114d0565b606091505b5091509150816114e15760156114f5565b808060200190518101906114f59190611c18565b9695505050505050565b6060831561156c5782516000036115655761151985610896565b6115655760405162461bcd60e51b815260206004820152601d60248201527f416464726573733a2063616c6c20746f206e6f6e2d636f6e7472616374000000604482015260640161030b565b5081611420565b61142083838151156115815781518083602001fd5b8060405162461bcd60e51b815260040161030b919061190e565b6040518060a0016040528060001515815260200160006001600160a01b03168152602001606081526020016060815260200160006001600160a01b031681525090565b6040518060400160405280600081526020016115f861159b565b905290565b604080516060810182526000808252602082018190529181019190915290565b604051806101200160405280606081526020016060815260200160006001600160a01b0316815260200160608152602001600015158152602001600060070b8152602001600015158152602001606081526020016115f86115fd565b6001600160a01b03811681146106f957600080fd5b600080604083850312156116a157600080fd5b82356116ac81611679565b915060208301356116bc81611679565b809150509250929050565b634e487b7160e01b600052604160045260246000fd5b600082601f8301126116ee57600080fd5b81356001600160401b0380821115611708576117086116c7565b604051601f8301601f19908116603f01168101908282118183101715611730576117306116c7565b8160405283815286602085880101111561174957600080fd5b836020870160208301376000602085830101528094505050505092915050565b60008060006060848603121561177e57600080fd5b83356001600160401b038082111561179557600080fd5b6117a1878388016116dd565b945060208601359150808211156117b757600080fd5b506117c4868287016116dd565b925050604084013590509250925092565b6001600160a01b0391909116815260200190565b600080604083850312156117fc57600080fd5b823561180781611679565b946020939093013593505050565b60008060006060848603121561182a57600080fd5b833561183581611679565b9250602084013561184581611679565b929592945050506040919091013590565b60006020828403121561186857600080fd5b8135610f7b81611679565b60008060006060848603121561188857600080fd5b833561189381611679565b925060208401356118a381611679565b915060408401356118b381611679565b809150509250925092565b60005b838110156118d95781810151838201526020016118c1565b50506000910152565b600081518084526118fa8160208601602086016118be565b601f01601f19169290920160200192915050565b602081526000610f7b60208301846118e2565b6020808252602b908201527f496e697469616c697a61626c653a20636f6e7472616374206973206e6f74206960408201526a6e697469616c697a696e6760a81b606082015260800190565b634e487b7160e01b600052603260045260246000fd5b600081518084526020808501808196508360051b8101915082860160005b85811015611a3857828403895281516040815186528682015191508087870152815115158187015286820151606060018060a01b03808316828a015283850151935060a09250608083818b01526119fa60e08b01866118e2565b928601518a8403603f1901858c0152929450611a1685846118e2565b9501511660c098909801979097525050988501989350908401906001016119a0565b5091979650505050505050565b6060815260008451610160806060850152611a646101c08501836118e2565b91506020870151605f1980868503016080870152611a8284836118e2565b935060408901519150611aa060a08701836001600160a01b03169052565b60608901519150808685030160c0870152611abb84836118e2565b935060808901519150611ad260e087018315159052565b60a08901519150610100611aea8188018460070b9052565b60c08a0151151561012088015260e08a015187860383016101408901529250611b138584611982565b9450808a015192505050611b4d828601828051600790810b83526020808301516001600160a01b031690840152604091820151900b910152565b505060208301949094525060400152919050565b60008251611b738184602087016118be565b9190910192915050565b60008060408385031215611b9057600080fd5b8251915060208301516116bc81611679565b6001600160a01b03929092168252602082015260400190565b8051600781900b8114611bcd57600080fd5b919050565b60008060408385031215611be557600080fd5b82519150611bf560208401611bbb565b90509250929050565b6001600160a01b0392831681529116602082015260400190565b600060208284031215611c2a57600080fd5b5051919050565b60008060408385031215611c4457600080fd5b611c4d83611bbb565b915060208301518060030b81146116bc57600080fd5b6001600160a01b039384168152919092166020820152604081019190915260600190565b600060208284031215611c9957600080fd5b81518015158114610f7b57600080fd5b600060208284031215611cbb57600080fd5b8151610f7b8161167956fecf9d4a2ff924c5f3553e3c8485e6bc24fde822593d2c3d78c8fabaada123f8f641483a206661696c656420746f20757067726164652070726f78792c207665726966792061737365742d686f6c646572206973206f776e657241483a206661696c656420746f206368616e67652061646d696e2c207665726966792061737365742d686f6c646572206973206f776e6572546f6b656e4f7065726174696f6e733a20546f6b656e207175616e7469747920a2646970667358221220c6f7dbc4e171b20488984e31feed72b0ce10588d884e70d0e959c6e789ea944564736f6c63430008120033",
  "linkReferences": {},
  "deployedLinkReferences": {}
}