{
  "_format": "hh-sol-artifact-1",
  "contractName": "Factory",
  "sourceName": "contracts/Factory.sol",
  "abi": [
    {
      "anonymous": false,
      "inputs": [
        {
          "indexed": false,
          "internalType": "uint8",
          "name": "version",
          "type": "uint8"
        }
      ],
      "name": "Initialized",
      "type": "event"
    },
    {
      "anonymous": false,
      "inputs": [
        {
          "indexed": true,
          "internalType": "address",
          "name": "oldImplementation",
          "type": "address"
        },
        {
          "indexed": true,
          "internalType": "address",
          "name": "newImplementation",
          "type": "address"
        },
        {
          "indexed": false,
          "internalType": "string",
          "name": "name",
          "type": "string"
        }
      ],
      "name": "LogicUpdated",
      "type": "event"
    },
    {
      "anonymous": false,
      "inputs": [
        {
          "indexed": true,
          "internalType": "address",
          "name": "previousOwner",
          "type": "address"
        },
        {
          "indexed": true,
          "internalType": "address",
          "name": "newOwner",
          "type": "address"
        }
      ],
      "name": "OwnershipTransferred",
      "type": "event"
    },
    {
      "anonymous": false,
      "inputs": [
        {
          "indexed": true,
          "internalType": "address",
          "name": "pairAddress",
          "type": "address"
        }
      ],
      "name": "PairCreated",
      "type": "event"
    },
    {
      "inputs": [
        {
          "internalType": "address",
          "name": "_tokenA",
          "type": "address"
        },
        {
          "internalType": "address",
          "name": "_tokenB",
          "type": "address"
        },
        {
          "internalType": "address",
          "name": "_treasury",
          "type": "address"
        },
        {
          "internalType": "uint256",
          "name": "_fee",
          "type": "uint256"
        }
      ],
      "name": "createPair",
      "outputs": [
        {
          "internalType": "address",
          "name": "pair",
          "type": "address"
        }
      ],
      "stateMutability": "payable",
      "type": "function"
    },
    {
      "inputs": [],
      "name": "getHederaServiceVersion",
      "outputs": [
        {
          "internalType": "contract IHederaService",
          "name": "",
          "type": "address"
        }
      ],
      "stateMutability": "view",
      "type": "function"
    },
    {
      "inputs": [
        {
          "internalType": "address",
          "name": "_tokenA",
          "type": "address"
        },
        {
          "internalType": "address",
          "name": "_tokenB",
          "type": "address"
        },
        {
          "internalType": "uint256",
          "name": "_fee",
          "type": "uint256"
        }
      ],
      "name": "getPair",
      "outputs": [
        {
          "internalType": "address",
          "name": "",
          "type": "address"
        }
      ],
      "stateMutability": "view",
      "type": "function"
    },
    {
      "inputs": [],
      "name": "getPairs",
      "outputs": [
        {
          "internalType": "address[]",
          "name": "",
          "type": "address[]"
        }
      ],
      "stateMutability": "view",
      "type": "function"
    },
    {
      "inputs": [],
      "name": "owner",
      "outputs": [
        {
          "internalType": "address",
          "name": "",
          "type": "address"
        }
      ],
      "stateMutability": "view",
      "type": "function"
    },
    {
      "inputs": [
        {
          "internalType": "address",
          "name": "_tokenToSwap",
          "type": "address"
        },
        {
          "internalType": "address",
          "name": "_otherTokenOfPair",
          "type": "address"
        },
        {
          "internalType": "uint256",
          "name": "_qtyToSwap",
          "type": "uint256"
        }
      ],
      "name": "recommendedPairToSwap",
      "outputs": [
        {
          "internalType": "address",
          "name": "",
          "type": "address"
        },
        {
          "internalType": "address",
          "name": "",
          "type": "address"
        },
        {
          "internalType": "uint256",
          "name": "",
          "type": "uint256"
        },
        {
          "internalType": "uint256",
          "name": "",
          "type": "uint256"
        },
        {
          "internalType": "uint256",
          "name": "",
          "type": "uint256"
        }
      ],
      "stateMutability": "view",
      "type": "function"
    },
    {
      "inputs": [],
      "name": "renounceOwnership",
      "outputs": [],
      "stateMutability": "nonpayable",
      "type": "function"
    },
    {
      "inputs": [
        {
          "internalType": "contract IHederaService",
          "name": "_hederaService",
          "type": "address"
        },
        {
          "internalType": "address",
          "name": "_proxyAdmin",
          "type": "address"
        },
        {
          "internalType": "address",
          "name": "_pairLogic",
          "type": "address"
        },
        {
          "internalType": "address",
          "name": "_lpLogic",
          "type": "address"
        },
        {
          "internalType": "contract Configuration",
          "name": "_configuration",
          "type": "address"
        }
      ],
      "name": "setUpFactory",
      "outputs": [],
      "stateMutability": "nonpayable",
      "type": "function"
    },
    {
      "inputs": [
        {
          "internalType": "address",
          "name": "newOwner",
          "type": "address"
        }
      ],
      "name": "transferOwnership",
      "outputs": [],
      "stateMutability": "nonpayable",
      "type": "function"
    },
    {
      "inputs": [
        {
          "internalType": "contract IHederaService",
          "name": "newHederaService",
          "type": "address"
        }
      ],
      "name": "upgradeHederaService",
      "outputs": [],
      "stateMutability": "nonpayable",
      "type": "function"
    },
    {
      "inputs": [
        {
          "internalType": "address",
          "name": "_newImpl",
          "type": "address"
        }
      ],
      "name": "upgradeLpTokenImplementation",
      "outputs": [],
      "stateMutability": "nonpayable",
      "type": "function"
    },
    {
      "inputs": [
        {
          "internalType": "address",
          "name": "_newImpl",
          "type": "address"
        }
      ],
      "name": "upgradePairImplementation",
      "outputs": [],
      "stateMutability": "nonpayable",
      "type": "function"
    }
  ],
  "bytecode": "0x608060405234801561001057600080fd5b506127e3806100206000396000f3fe608060405260043610620000a45760003560e01c80630a12da8814620000a957806337d063c914620000d85780635eced48014620000ff5780636dab6f751462000124578063715018a61462000144578063767eb5ef146200015c5780638da5cb5b1462000183578063d26d681f146200019b578063db0c13d014620001c0578063e598d5871462000219578063f2fde38b146200023e578063fbdd9ff71462000263575b600080fd5b620000c0620000ba36600462001345565b62000288565b604051620000cf91906200139d565b60405180910390f35b348015620000e557600080fd5b50620000fd620000f7366004620013b1565b620003b2565b005b3480156200010c57600080fd5b50620000c06200011e3660046200142d565b6200063f565b3480156200013157600080fd5b506097546001600160a01b0316620000c0565b3480156200015157600080fd5b50620000fd6200068a565b3480156200016957600080fd5b5062000174620006a2565b604051620000cf919062001473565b3480156200019057600080fd5b50620000c062000706565b348015620001a857600080fd5b50620000fd620001ba366004620014c2565b62000715565b348015620001cd57600080fd5b50620001e5620001df3660046200142d565b62000848565b604080516001600160a01b039687168152959094166020860152928401919091526060830152608082015260a001620000cf565b3480156200022657600080fd5b50620000fd62000238366004620014c2565b62000929565b3480156200024b57600080fd5b50620000fd6200025d366004620014c2565b620009b2565b3480156200027057600080fd5b50620000fd62000282366004620014c2565b62000a31565b60006200029462000ab7565b600080620002a3878762000b12565b6001600160a01b038083166000908152609d60209081526040808320848616845282528083208a84529091529020541694509092509050826200039d576000620002f08383888862000be6565b6001600160a01b038085166000908152609d60209081526040808320878516845282528083208a845290915280822080549385166001600160a01b03199485168117909155609c80546001810182559084527faf85b9071dfafeac1409d3f1d19bafc9bc7c37974cde8df0ee6168f0086e539c01805490941681179093555192965086935090917fb14a725aeeb25d591b81b16b4c5b25403dd8867bdd1876fa787867f566206be19190a2505b5050620003aa6001606555565b949350505050565b600054610100900460ff1615808015620003d35750600054600160ff909116105b80620003ef5750303b158015620003ef575060005460ff166001145b620004585760405162461bcd60e51b815260206004820152602e60248201527f496e697469616c697a61626c653a20636f6e747261637420697320616c72656160448201526d191e481a5b9a5d1a585b1a5e995960921b60648201526084015b60405180910390fd5b6000805460ff1916600117905580156200047c576000805461ff0019166101001790555b6200048662000cb6565b620004918562000cea565b609780546001600160a01b038089166001600160a01b03199283161790925560988054888416908316179055609a8054878416908316811790915560998054878516908416179055609b805493861693909216929092179055604080518082018252600c81526b14185a5c90dbdb9d1c9858dd60a21b602082015290516000916000805160206200278e833981519152916200052e91906200153d565b60405180910390a3609954604080518082018252600f81526e131c151bdad95b90dbdb9d1c9858dd608a1b602082015290516001600160a01b03909216916000916000805160206200278e833981519152916200058c91906200153d565b60405180910390a3609754604080518082018252600d81526c4865646572615365727669636560981b602082015290516001600160a01b03909216916000916000805160206200278e83398151915291620005e891906200153d565b60405180910390a3801562000637576000805461ff0019169055604051600181527f7f26b83ff96e1f2b6a682f133852f6798a09c465da95921460cefb38474024989060200160405180910390a15b505050505050565b600080600062000650868662000b12565b6001600160a01b039182166000908152609d6020908152604080832093851683529281528282208883529052205416925050509392505050565b6200069462000d3c565b620006a0600062000cea565b565b6060609c805480602002602001604051908101604052809291908181526020018280548015620006fc57602002820191906000526020600020905b81546001600160a01b03168152600190910190602001808311620006dd575b5050505050905090565b6033546001600160a01b031690565b6200071f62000d3c565b609754604080518082018252600d81526c4865646572615365727669636560981b602082015290516001600160a01b038085169316916000805160206200278e833981519152916200077291906200153d565b60405180910390a3609780546001600160a01b0319166001600160a01b03831617905560005b609c5481101562000844576000609c8281548110620007bb57620007bb62001552565b60009182526020909120015460405163d26d681f60e01b81526001600160a01b039091169150819063d26d681f90620007f99086906004016200139d565b600060405180830381600087803b1580156200081457600080fd5b505af115801562000829573d6000803e3d6000fd5b505050505080806200083b906200157e565b91505062000798565b5050565b600080600080600080609b60009054906101000a90046001600160a01b03166001600160a01b031663941932846040518163ffffffff1660e01b8152600401600060405180830381865afa158015620008a5573d6000803e3d6000fd5b505050506040513d6000823e601f3d908101601f19168201604052620008cf9190810190620015e3565b9050600080620008e08b8b62000b12565b915091506000620008f58484848f8e62000d9f565b9050806000015181602001518260400151836060015184608001519850985098509850985050505050939792965093509350565b6200093362000d3c565b609954604080518082018252600f81526e131c151bdad95b90dbdb9d1c9858dd608a1b602082015290516001600160a01b038085169316916000805160206200278e833981519152916200098891906200153d565b60405180910390a3609980546001600160a01b0319166001600160a01b0392909216919091179055565b620009bc62000d3c565b6001600160a01b03811662000a235760405162461bcd60e51b815260206004820152602660248201527f4f776e61626c653a206e6577206f776e657220697320746865207a65726f206160448201526564647265737360d01b60648201526084016200044f565b62000a2e8162000cea565b50565b62000a3b62000d3c565b609a54604080518082018252600c81526b14185a5c90dbdb9d1c9858dd60a21b602082015290516001600160a01b038085169316916000805160206200278e8339815191529162000a8d91906200153d565b60405180910390a3609a80546001600160a01b0319166001600160a01b0392909216919091179055565b60026065540362000b0b5760405162461bcd60e51b815260206004820152601f60248201527f5265656e7472616e637947756172643a207265656e7472616e742063616c6c0060448201526064016200044f565b6002606555565b600080826001600160a01b0316846001600160a01b03160362000b6e5760405162461bcd60e51b81526020600482015260136024820152724944454e544943414c5f41444452455353455360681b60448201526064016200044f565b826001600160a01b0316846001600160a01b03161062000b9057828462000b93565b83835b90925090506001600160a01b03821662000bdf5760405162461bcd60e51b815260206004820152600c60248201526b5a45524f5f4144445245535360a01b60448201526064016200044f565b9250929050565b609a5460009062000c00906001600160a01b031662001084565b9050600062000c11868684620010dc565b609754609b54604051630eabcca160e41b81526001600160a01b039283166004820152828416602482015289831660448201528883166064820152878316608482015260a4810187905290821660c482015291925083169063eabcca109060e401600060405180830381600087803b15801562000c8d57600080fd5b505af115801562000ca2573d6000803e3d6000fd5b5050505050949350505050565b6001606555565b600054610100900460ff1662000ce05760405162461bcd60e51b81526004016200044f9062001693565b620006a0620011a7565b603380546001600160a01b038381166001600160a01b0319831681179093556040519116919082907f8be0079c531659141344cd1fd0a4f28419497f9722a3daafe3b4186f6b6457e090600090a35050565b3362000d4762000706565b6001600160a01b031614620006a05760405162461bcd60e51b815260206004820181905260248201527f4f776e61626c653a2063616c6c6572206973206e6f7420746865206f776e657260448201526064016200044f565b62000da9620012e0565b62000db3620012e0565b60005b8751811015620010795760008862000dd0836001620016de565b8151811062000de35762000de362001552565b6020908102919091018101516001600160a01b03808b166000908152609d845260408082208c8416835285528082208483529094529290922054909250168015620010615760008060008b6001600160a01b03168a6001600160a01b03160362000f3057604051630156fe7160e61b8152600481018a90526001600160a01b038516906355bf9c4090602401608060405180830381865afa15801562000e8d573d6000803e3d6000fd5b505050506040513d601f19601f8201168201806040525081019062000eb39190620016f4565b506040516357fabfe360e11b8152600481018d90529095508d94506001600160a01b038716925063aff57fc69150602401602060405180830381865afa15801562000f02573d6000803e3d6000fd5b505050506040513d601f19601f8201168201806040525081019062000f2891906200172b565b905062001014565b6040516311a77c7560e31b8152600481018a90526001600160a01b03851690638d3be3a890602401608060405180830381865afa15801562000f76573d6000803e3d6000fd5b505050506040513d601f19601f8201168201806040525081019062000f9c9190620016f4565b50604051633b87682560e11b8152600481018d90529095508e94506001600160a01b038716925063770ed04a9150602401602060405180830381865afa15801562000feb573d6000803e3d6000fd5b505050506040513d601f19601f820116820180604052508101906200101191906200172b565b90505b86604001518311156200105d576040518060a00160405280856001600160a01b03168152602001836001600160a01b031681526020018481526020018681526020018281525096505b5050505b50620010719050816002620016de565b905062000db6565b509695505050505050565b60985460405160009160609184916001600160a01b0316908390620010a99062001321565b620010b79392919062001745565b604051809103906000f080158015620010d4573d6000803e3d6000fd5b509392505050565b600080620010eb8585620011d1565b90506000816040516020016200110291906200177c565b60408051601f198184030181529190526099549091506200112c906001600160a01b031662001084565b60975460405163100b506960e11b81529194506001600160a01b0380861692632016a0d29234926200116a92911690899087908990600401620017b0565b6000604051808303818588803b1580156200118457600080fd5b505af115801562001199573d6000803e3d6000fd5b505050505050509392505050565b600054610100900460ff1662000caf5760405162461bcd60e51b81526004016200044f9062001693565b60606000836001600160a01b03166395d89b416040518163ffffffff1660e01b81526004016000604051808303816000875af115801562001216573d6000803e3d6000fd5b505050506040513d6000823e601f3d908101601f19168201604052620012409190810190620017fd565b90506000836001600160a01b03166395d89b416040518163ffffffff1660e01b81526004016000604051808303816000875af115801562001285573d6000803e3d6000fd5b505050506040513d6000823e601f3d908101601f19168201604052620012af9190810190620017fd565b90508181604051602001620012c69291906200189b565b604051602081830303815290604052925050505b92915050565b6040518060a0016040528060006001600160a01b0316815260200160006001600160a01b031681526020016000815260200160008152602001600081525090565b610eb280620018dc83390190565b6001600160a01b038116811462000a2e57600080fd5b600080600080608085870312156200135c57600080fd5b843562001369816200132f565b935060208501356200137b816200132f565b925060408501356200138d816200132f565b9396929550929360600135925050565b6001600160a01b0391909116815260200190565b600080600080600060a08688031215620013ca57600080fd5b8535620013d7816200132f565b94506020860135620013e9816200132f565b93506040860135620013fb816200132f565b925060608601356200140d816200132f565b915060808601356200141f816200132f565b809150509295509295909350565b6000806000606084860312156200144357600080fd5b833562001450816200132f565b9250602084013562001462816200132f565b929592945050506040919091013590565b6020808252825182820181905260009190848201906040850190845b81811015620014b65783516001600160a01b0316835292840192918401916001016200148f565b50909695505050505050565b600060208284031215620014d557600080fd5b8135620014e2816200132f565b9392505050565b60005b8381101562001506578181015183820152602001620014ec565b50506000910152565b6000815180845262001529816020860160208601620014e9565b601f01601f19169290920160200192915050565b602081526000620014e260208301846200150f565b634e487b7160e01b600052603260045260246000fd5b634e487b7160e01b600052601160045260246000fd5b60006001820162001593576200159362001568565b5060010190565b634e487b7160e01b600052604160045260246000fd5b604051601f8201601f191681016001600160401b0381118282101715620015db57620015db6200159a565b604052919050565b60006020808385031215620015f757600080fd5b82516001600160401b03808211156200160f57600080fd5b818501915085601f8301126200162457600080fd5b8151818111156200163957620016396200159a565b8060051b91506200164c848301620015b0565b81815291830184019184810190888411156200166757600080fd5b938501935b8385101562001687578451825293850193908501906200166c565b98975050505050505050565b6020808252602b908201527f496e697469616c697a61626c653a20636f6e7472616374206973206e6f74206960408201526a6e697469616c697a696e6760a81b606082015260800190565b80820180821115620012da57620012da62001568565b600080600080608085870312156200170b57600080fd5b505082516020840151604085015160609095015191969095509092509050565b6000602082840312156200173e57600080fd5b5051919050565b6001600160a01b0384811682528316602082015260606040820181905260009062001773908301846200150f565b95945050505050565b6000825162001790818460208701620014e9565b6d204c5020746f6b656e206e616d6560901b920191825250600e01919050565b6001600160a01b03858116825284166020820152608060408201819052600090620017de908301856200150f565b8281036060840152620017f281856200150f565b979650505050505050565b6000602082840312156200181057600080fd5b81516001600160401b03808211156200182857600080fd5b818401915084601f8301126200183d57600080fd5b8151818111156200185257620018526200159a565b62001867601f8201601f1916602001620015b0565b91508082528560208285010111156200187f57600080fd5b62001892816020840160208601620014e9565b50949350505050565b60008351620018af818460208801620014e9565b602d60f81b9083019081528351620018cf816001840160208801620014e9565b0160010194935050505056fe608060405260405162000eb238038062000eb2833981016040819052620000269162000497565b828162000036828260006200004d565b50620000449050826200008a565b505050620005ca565b6200005883620000e5565b600082511180620000665750805b1562000085576200008383836200012760201b620001691760201c565b505b505050565b7f7e644d79422f17c01e4894b5f4f588d331ebfa28653d42ae832dc59e38c9798f620000b562000156565b604080516001600160a01b03928316815291841660208301520160405180910390a1620000e2816200018f565b50565b620000f08162000244565b6040516001600160a01b038216907fbc7cd75a20ee27fd9adebab32041f755214dbc6bffa90cc0225b39da2e5c2d3b90600090a250565b60606200014f838360405180606001604052806027815260200162000e8b60279139620002f8565b9392505050565b60006200018060008051602062000e6b83398151915260001b6200037760201b620001951760201c565b546001600160a01b0316919050565b6001600160a01b038116620001fa5760405162461bcd60e51b815260206004820152602660248201527f455243313936373a206e65772061646d696e20697320746865207a65726f206160448201526564647265737360d01b60648201526084015b60405180910390fd5b806200022360008051602062000e6b83398151915260001b6200037760201b620001951760201c565b80546001600160a01b0319166001600160a01b039290921691909117905550565b6200025a816200037a60201b620001981760201c565b620002be5760405162461bcd60e51b815260206004820152602d60248201527f455243313936373a206e657720696d706c656d656e746174696f6e206973206e60448201526c1bdd08184818dbdb9d1c9858dd609a1b6064820152608401620001f1565b80620002237f360894a13ba1a3210667c828492db98dca3e2076cc3735a920a3ca505d382bbc60001b6200037760201b620001951760201c565b6060600080856001600160a01b03168560405162000317919062000577565b600060405180830381855af49150503d806000811462000354576040519150601f19603f3d011682016040523d82523d6000602084013e62000359565b606091505b5090925090506200036d8683838762000389565b9695505050505050565b90565b6001600160a01b03163b151590565b60608315620003fd578251600003620003f557620003a7856200037a565b620003f55760405162461bcd60e51b815260206004820152601d60248201527f416464726573733a2063616c6c20746f206e6f6e2d636f6e74726163740000006044820152606401620001f1565b508162000409565b62000409838362000411565b949350505050565b815115620004225781518083602001fd5b8060405162461bcd60e51b8152600401620001f1919062000595565b80516001600160a01b03811681146200045657600080fd5b919050565b634e487b7160e01b600052604160045260246000fd5b60005b838110156200048e57818101518382015260200162000474565b50506000910152565b600080600060608486031215620004ad57600080fd5b620004b8846200043e565b9250620004c8602085016200043e565b60408501519092506001600160401b0380821115620004e657600080fd5b818601915086601f830112620004fb57600080fd5b8151818111156200051057620005106200045b565b604051601f8201601f19908116603f011681019083821181831017156200053b576200053b6200045b565b816040528281528960208487010111156200055557600080fd5b6200056883602083016020880162000471565b80955050505050509250925092565b600082516200058b81846020870162000471565b9190910192915050565b6020815260008251806020840152620005b681604085016020870162000471565b601f01601f19169190910160400192915050565b61089180620005da6000396000f3fe60806040523661001357610011610017565b005b6100115b61001f6101a7565b6001600160a01b0316330361015f5760606001600160e01b0319600035166364d3180d60e11b810161005a576100536101c8565b9150610157565b63587086bd60e11b6001600160e01b031982160161007a5761005361021f565b63070d7c6960e41b6001600160e01b031982160161009a57610053610265565b621eb96f60e61b6001600160e01b03198216016100b957610053610296565b63a39f25e560e01b6001600160e01b03198216016100d9576100536102d6565b60405162461bcd60e51b815260206004820152604260248201527f5472616e73706172656e745570677261646561626c6550726f78793a2061646d60448201527f696e2063616e6e6f742066616c6c6261636b20746f2070726f78792074617267606482015261195d60f21b608482015260a4015b60405180910390fd5b815160208301f35b6101676102ea565b565b606061018e8383604051806060016040528060278152602001610835602791396102fa565b9392505050565b90565b6001600160a01b03163b151590565b60006000805160206107f58339815191525b546001600160a01b0316919050565b60606101d2610372565b60006101e13660048184610649565b8101906101ee919061068f565b905061020b8160405180602001604052806000815250600061037d565b505060408051602081019091526000815290565b60606000806102313660048184610649565b81019061023e91906106c0565b9150915061024e8282600161037d565b604051806020016040528060008152509250505090565b606061026f610372565b600061027e3660048184610649565b81019061028b919061068f565b905061020b816103a9565b60606102a0610372565b60006102aa6101a7565b604080516001600160a01b03831660208201529192500160405160208183030381529060405291505090565b60606102e0610372565b60006102aa610400565b6101676102f5610400565b61040f565b6060600080856001600160a01b03168560405161031791906107a5565b600060405180830381855af49150503d8060008114610352576040519150601f19603f3d011682016040523d82523d6000602084013e610357565b606091505b509150915061036886838387610433565b9695505050505050565b341561016757600080fd5b610386836104b2565b6000825111806103935750805b156103a4576103a28383610169565b505b505050565b7f7e644d79422f17c01e4894b5f4f588d331ebfa28653d42ae832dc59e38c9798f6103d26101a7565b604080516001600160a01b03928316815291841660208301520160405180910390a16103fd816104f2565b50565b600061040a610589565b905090565b3660008037600080366000845af43d6000803e80801561042e573d6000f35b3d6000fd5b606083156104a05782516000036104995761044d85610198565b6104995760405162461bcd60e51b815260206004820152601d60248201527f416464726573733a2063616c6c20746f206e6f6e2d636f6e7472616374000000604482015260640161014e565b50816104aa565b6104aa838361059f565b949350505050565b6104bb816105c9565b6040516001600160a01b038216907fbc7cd75a20ee27fd9adebab32041f755214dbc6bffa90cc0225b39da2e5c2d3b90600090a250565b6001600160a01b0381166105575760405162461bcd60e51b815260206004820152602660248201527f455243313936373a206e65772061646d696e20697320746865207a65726f206160448201526564647265737360d01b606482015260840161014e565b806000805160206107f58339815191525b80546001600160a01b0319166001600160a01b039290921691909117905550565b60006000805160206108158339815191526101b9565b8151156105af5781518083602001fd5b8060405162461bcd60e51b815260040161014e91906107c1565b6105d281610198565b6106345760405162461bcd60e51b815260206004820152602d60248201527f455243313936373a206e657720696d706c656d656e746174696f6e206973206e60448201526c1bdd08184818dbdb9d1c9858dd609a1b606482015260840161014e565b80600080516020610815833981519152610568565b6000808585111561065957600080fd5b8386111561066657600080fd5b5050820193919092039150565b80356001600160a01b038116811461068a57600080fd5b919050565b6000602082840312156106a157600080fd5b61018e82610673565b634e487b7160e01b600052604160045260246000fd5b600080604083850312156106d357600080fd5b6106dc83610673565b915060208301356001600160401b03808211156106f857600080fd5b818501915085601f83011261070c57600080fd5b81358181111561071e5761071e6106aa565b604051601f8201601f19908116603f01168101908382118183101715610746576107466106aa565b8160405282815288602084870101111561075f57600080fd5b8260208601602083013760006020848301015280955050505050509250929050565b60005b8381101561079c578181015183820152602001610784565b50506000910152565b600082516107b7818460208701610781565b9190910192915050565b60208152600082518060208401526107e0816040850160208701610781565b601f01601f1916919091016040019291505056feb53127684a568b3173ae13b9f8a6016e243e63b6e8ee1178d6a717850b5d6103360894a13ba1a3210667c828492db98dca3e2076cc3735a920a3ca505d382bbc416464726573733a206c6f772d6c6576656c2064656c65676174652063616c6c206661696c6564a2646970667358221220620b02c16977e4bc46dc8e126676654738ae0c6dcb3ade55e68906b6b7d90c2164736f6c63430008120033b53127684a568b3173ae13b9f8a6016e243e63b6e8ee1178d6a717850b5d6103416464726573733a206c6f772d6c6576656c2064656c65676174652063616c6c206661696c6564cf9d4a2ff924c5f3553e3c8485e6bc24fde822593d2c3d78c8fabaada123f8f6a2646970667358221220c27bcfdc02e6844b5541d81c3ad9ee7f8572cc4b5a5a7286a7a4057d745664db64736f6c63430008120033",
  "linkReferences": {},
  "deployedLinkReferences": {}
}