{
  "_format": "hh-sol-artifact-1",
  "contractName": "FTDAO",
  "sourceName": "contracts/dao/FTDAO.sol",
  "abi": [
    {
      "inputs": [
        {
          "internalType": "string",
          "name": "message",
          "type": "string"
        }
      ],
      "name": "InvalidInput",
      "type": "error"
    },
    {
      "anonymous": false,
      "inputs": [
        {
          "components": [
            {
              "internalType": "string",
              "name": "name",
              "type": "string"
            },
            {
              "internalType": "address",
              "name": "admin",
              "type": "address"
            },
            {
              "internalType": "string",
              "name": "logoUrl",
              "type": "string"
            },
            {
              "internalType": "string",
              "name": "description",
              "type": "string"
            },
            {
              "internalType": "string[]",
              "name": "webLinks",
              "type": "string[]"
            }
          ],
          "indexed": false,
          "internalType": "struct BaseDAO.DAOInfo",
          "name": "daoInfo",
          "type": "tuple"
        }
      ],
      "name": "DAOInfoUpdated",
      "type": "event"
    },
    {
      "anonymous": false,
      "inputs": [
        {
          "components": [
            {
              "internalType": "address",
              "name": "tokenTransferLogic",
              "type": "address"
            },
            {
              "internalType": "address",
              "name": "textLogic",
              "type": "address"
            },
            {
              "internalType": "address",
              "name": "contractUpgradeLogic",
              "type": "address"
            },
            {
              "internalType": "address",
              "name": "createTokenLogic",
              "type": "address"
            }
          ],
          "indexed": false,
          "internalType": "struct ISharedDAOModel.Governor",
          "name": "oldImplementation",
          "type": "tuple"
        },
        {
          "components": [
            {
              "internalType": "address",
              "name": "tokenTransferLogic",
              "type": "address"
            },
            {
              "internalType": "address",
              "name": "textLogic",
              "type": "address"
            },
            {
              "internalType": "address",
              "name": "contractUpgradeLogic",
              "type": "address"
            },
            {
              "internalType": "address",
              "name": "createTokenLogic",
              "type": "address"
            }
          ],
          "indexed": false,
          "internalType": "struct ISharedDAOModel.Governor",
          "name": "newImplementation",
          "type": "tuple"
        },
        {
          "indexed": false,
          "internalType": "string",
          "name": "name",
          "type": "string"
        }
      ],
      "name": "GovernorLogicUpdated",
      "type": "event"
    },
    {
      "anonymous": false,
      "inputs": [
        {
          "indexed": false,
          "internalType": "uint8",
          "name": "version",
          "type": "uint8"
        }
      ],
      "name": "Initialized",
      "type": "event"
    },
    {
      "anonymous": false,
      "inputs": [
        {
          "indexed": true,
          "internalType": "address",
          "name": "previousOwner",
          "type": "address"
        },
        {
          "indexed": true,
          "internalType": "address",
          "name": "newOwner",
          "type": "address"
        }
      ],
      "name": "OwnershipTransferred",
      "type": "event"
    },
    {
      "inputs": [
        {
          "internalType": "address",
          "name": "_admin",
          "type": "address"
        },
        {
          "internalType": "string",
          "name": "_name",
          "type": "string"
        },
        {
          "internalType": "string",
          "name": "_logoUrl",
          "type": "string"
        },
        {
          "internalType": "string",
          "name": "_description",
          "type": "string"
        },
        {
          "internalType": "string[]",
          "name": "_webLinks",
          "type": "string[]"
        }
      ],
      "name": "__BaseDAO_init",
      "outputs": [],
      "stateMutability": "nonpayable",
      "type": "function"
    },
    {
      "inputs": [
        {
          "internalType": "string",
          "name": "_title",
          "type": "string"
        },
        {
          "internalType": "string",
          "name": "_description",
          "type": "string"
        },
        {
          "internalType": "string",
          "name": "_linkToDiscussion",
          "type": "string"
        },
        {
          "internalType": "address payable",
          "name": "_proxyContract",
          "type": "address"
        },
        {
          "internalType": "address",
          "name": "_contractToUpgrade",
          "type": "address"
        },
        {
          "internalType": "uint256",
          "name": "nftTokenSerialId",
          "type": "uint256"
        }
      ],
      "name": "createContractUpgradeProposal",
      "outputs": [
        {
          "internalType": "uint256",
          "name": "",
          "type": "uint256"
        }
      ],
      "stateMutability": "nonpayable",
      "type": "function"
    },
    {
      "inputs": [
        {
          "internalType": "string",
          "name": "_title",
          "type": "string"
        },
        {
          "internalType": "string",
          "name": "_description",
          "type": "string"
        },
        {
          "internalType": "string",
          "name": "_linkToDiscussion",
          "type": "string"
        },
        {
          "internalType": "uint256",
          "name": "nftTokenSerialId",
          "type": "uint256"
        }
      ],
      "name": "createTextProposal",
      "outputs": [
        {
          "internalType": "uint256",
          "name": "",
          "type": "uint256"
        }
      ],
      "stateMutability": "nonpayable",
      "type": "function"
    },
    {
      "inputs": [
        {
          "internalType": "string",
          "name": "title",
          "type": "string"
        },
        {
          "internalType": "string",
          "name": "description",
          "type": "string"
        },
        {
          "internalType": "string",
          "name": "linkToDiscussion",
          "type": "string"
        },
        {
          "internalType": "address",
          "name": "treasurer",
          "type": "address"
        },
        {
          "internalType": "string",
          "name": "tokenName",
          "type": "string"
        },
        {
          "internalType": "string",
          "name": "tokenSymbol",
          "type": "string"
        },
        {
          "internalType": "uint256",
          "name": "nftTokenSerialId",
          "type": "uint256"
        }
      ],
      "name": "createTokenCreateProposal",
      "outputs": [
        {
          "internalType": "uint256",
          "name": "",
          "type": "uint256"
        }
      ],
      "stateMutability": "nonpayable",
      "type": "function"
    },
    {
      "inputs": [
        {
          "internalType": "string",
          "name": "_title",
          "type": "string"
        },
        {
          "internalType": "string",
          "name": "_description",
          "type": "string"
        },
        {
          "internalType": "string",
          "name": "_linkToDiscussion",
          "type": "string"
        },
        {
          "internalType": "address",
          "name": "_transferFromAccount",
          "type": "address"
        },
        {
          "internalType": "address",
          "name": "_transferToAccount",
          "type": "address"
        },
        {
          "internalType": "address",
          "name": "_tokenToTransfer",
          "type": "address"
        },
        {
          "internalType": "uint256",
          "name": "_transferTokenAmount",
          "type": "uint256"
        },
        {
          "internalType": "uint256",
          "name": "nftTokenSerialId",
          "type": "uint256"
        }
      ],
      "name": "createTokenTransferProposal",
      "outputs": [
        {
          "internalType": "uint256",
          "name": "",
          "type": "uint256"
        }
      ],
      "stateMutability": "nonpayable",
      "type": "function"
    },
    {
      "inputs": [],
      "name": "getContractUpgradeProposals",
      "outputs": [
        {
          "internalType": "uint256[]",
          "name": "",
          "type": "uint256[]"
        }
      ],
      "stateMutability": "view",
      "type": "function"
    },
    {
      "inputs": [],
      "name": "getDaoInfo",
      "outputs": [
        {
          "components": [
            {
              "internalType": "string",
              "name": "name",
              "type": "string"
            },
            {
              "internalType": "address",
              "name": "admin",
              "type": "address"
            },
            {
              "internalType": "string",
              "name": "logoUrl",
              "type": "string"
            },
            {
              "internalType": "string",
              "name": "description",
              "type": "string"
            },
            {
              "internalType": "string[]",
              "name": "webLinks",
              "type": "string[]"
            }
          ],
          "internalType": "struct BaseDAO.DAOInfo",
          "name": "",
          "type": "tuple"
        }
      ],
      "stateMutability": "view",
      "type": "function"
    },
    {
      "inputs": [],
      "name": "getGovernorContractAddresses",
      "outputs": [
        {
          "internalType": "address",
          "name": "",
          "type": "address"
        },
        {
          "internalType": "address",
          "name": "",
          "type": "address"
        },
        {
          "internalType": "address",
          "name": "",
          "type": "address"
        },
        {
          "internalType": "address",
          "name": "",
          "type": "address"
        }
      ],
      "stateMutability": "view",
      "type": "function"
    },
    {
      "inputs": [],
      "name": "getTextProposals",
      "outputs": [
        {
          "internalType": "uint256[]",
          "name": "",
          "type": "uint256[]"
        }
      ],
      "stateMutability": "view",
      "type": "function"
    },
    {
      "inputs": [],
      "name": "getTokenCreateProposals",
      "outputs": [
        {
          "internalType": "uint256[]",
          "name": "",
          "type": "uint256[]"
        }
      ],
      "stateMutability": "view",
      "type": "function"
    },
    {
      "inputs": [],
      "name": "getTokenTransferProposals",
      "outputs": [
        {
          "internalType": "uint256[]",
          "name": "",
          "type": "uint256[]"
        }
      ],
      "stateMutability": "view",
      "type": "function"
    },
    {
      "inputs": [
        {
          "components": [
            {
              "internalType": "address",
              "name": "admin",
              "type": "address"
            },
            {
              "internalType": "string",
              "name": "name",
              "type": "string"
            },
            {
              "internalType": "string",
              "name": "logoUrl",
              "type": "string"
            },
            {
              "internalType": "address",
              "name": "tokenAddress",
              "type": "address"
            },
            {
              "internalType": "uint256",
              "name": "quorumThreshold",
              "type": "uint256"
            },
            {
              "internalType": "uint256",
              "name": "votingDelay",
              "type": "uint256"
            },
            {
              "internalType": "uint256",
              "name": "votingPeriod",
              "type": "uint256"
            },
            {
              "internalType": "bool",
              "name": "isPrivate",
              "type": "bool"
            },
            {
              "internalType": "string",
              "name": "description",
              "type": "string"
            },
            {
              "internalType": "string[]",
              "name": "webLinks",
              "type": "string[]"
            }
          ],
          "internalType": "struct ISharedDAOModel.CreateDAOInputs",
          "name": "inputs",
          "type": "tuple"
        },
        {
          "components": [
            {
              "internalType": "address",
              "name": "tokenTransferLogic",
              "type": "address"
            },
            {
              "internalType": "address",
              "name": "textLogic",
              "type": "address"
            },
            {
              "internalType": "address",
              "name": "contractUpgradeLogic",
              "type": "address"
            },
            {
              "internalType": "address",
              "name": "createTokenLogic",
              "type": "address"
            }
          ],
          "internalType": "struct ISharedDAOModel.Governor",
          "name": "governor",
          "type": "tuple"
        },
        {
          "components": [
            {
              "internalType": "contract IHederaService",
              "name": "hederaService",
              "type": "address"
            },
            {
              "internalType": "contract ITokenHolder",
              "name": "iTokenHolder",
              "type": "address"
            },
            {
              "internalType": "address",
              "name": "proxyAdmin",
              "type": "address"
            },
            {
              "internalType": "address",
              "name": "systemUser",
              "type": "address"
            }
          ],
          "internalType": "struct ISharedDAOModel.Common",
          "name": "common",
          "type": "tuple"
        }
      ],
      "name": "initialize",
      "outputs": [],
      "stateMutability": "nonpayable",
      "type": "function"
    },
    {
      "inputs": [],
      "name": "owner",
      "outputs": [
        {
          "internalType": "address",
          "name": "",
          "type": "address"
        }
      ],
      "stateMutability": "view",
      "type": "function"
    },
    {
      "inputs": [],
      "name": "renounceOwnership",
      "outputs": [],
      "stateMutability": "nonpayable",
      "type": "function"
    },
    {
      "inputs": [
        {
          "internalType": "address",
          "name": "newOwner",
          "type": "address"
        }
      ],
      "name": "transferOwnership",
      "outputs": [],
      "stateMutability": "nonpayable",
      "type": "function"
    },
    {
      "inputs": [
        {
          "internalType": "string",
          "name": "_name",
          "type": "string"
        },
        {
          "internalType": "string",
          "name": "_logoUrl",
          "type": "string"
        },
        {
          "internalType": "string",
          "name": "_description",
          "type": "string"
        },
        {
          "internalType": "string[]",
          "name": "_webLinks",
          "type": "string[]"
        }
      ],
      "name": "updateDaoInfo",
      "outputs": [],
      "stateMutability": "nonpayable",
      "type": "function"
    },
    {
      "inputs": [
        {
          "internalType": "contract IHederaService",
          "name": "newHederaService",
          "type": "address"
        }
      ],
      "name": "upgradeHederaService",
      "outputs": [],
      "stateMutability": "nonpayable",
      "type": "function"
    }
  ],
  "bytecode": "0x608060405234801561001057600080fd5b506132df806100206000396000f3fe60806040523480156200001157600080fd5b5060043610620000ee5760003560e01c80631a295e3414620000f35780632d26dd23146200011d57806352323f011462000134578063565b1b3014620001755780635860ef20146200018c57806366c5b9a614620001a5578063715018a614620001be5780637e8c5b8c14620001c85780638a482bc514620001d25780638da5cb5b14620001e9578063983158681462000202578063b16b32dd1462000219578063ce2a9a461462000223578063d26d681f146200023a578063eadd6b381462000251578063f2fde38b146200025b578063fa382f871462000272575b600080fd5b6200010a62000104366004620015b6565b6200028b565b6040519081526020015b60405180910390f35b6200010a6200012e3660046200167b565b62000362565b606b54606d54606c54606e54604080516001600160a01b03958616815293851660208501529184169183019190915291909116606082015260800162000114565b6200010a6200018636600462001714565b62000433565b6200019662000510565b60405162000114919062001811565b620001bc620001b636600462001901565b6200056a565b005b620001bc6200066f565b6200019662000687565b6200010a620001e3366004620019cf565b620006df565b620001f3620007bc565b60405162000114919062001aac565b620001bc6200021336600462001ac0565b620007cb565b62000196620007e9565b620001bc6200023436600462001c1e565b62000841565b620001bc6200024b36600462001d8b565b62000a79565b6200019662000c80565b620001bc6200026c36600462001d8b565b62000cd8565b6200027c62000d57565b60405162000114919062001dfa565b6000620002976200106d565b606c546040516397ed5bcd60e01b81526001600160a01b039091169060009082906397ed5bcd90620002da908c908c908c908c908c9033908d9060040162001ed1565b6020604051808303816000875af1158015620002fa573d6000803e3d6000fd5b505050506040513d601f19601f8201168201806040525081019062000320919062001f41565b607180546001810182556000919091527fa1fcd19bfe8c32a61095b6bfbb2664842857e148fcbb5188386c8cd40348d5b6018190559998505050505050505050565b60006200036e6200106d565b606d54604051630134186960e71b81526001600160a01b03909116906000908290639a0c348090620003ad908a908a908a9033908b9060040162001f5b565b6020604051808303816000875af1158015620003cd573d6000803e3d6000fd5b505050506040513d601f19601f82011682018060405250810190620003f3919062001f41565b606f80546001810182556000919091527f39f2babe526038520877fc7c33d81accf578af4a06c5fa6b0d038cae36e1271101819055979650505050505050565b60006200043f6200106d565b606e5460405160016218c73d60e21b031981526001600160a01b0390911690600090829063ff9ce30c9062000487908d908d908d908d908d908d9033908e9060040162001fb8565b6020604051808303816000875af1158015620004a7573d6000803e3d6000fd5b505050506040513d601f19601f82011682018060405250810190620004cd919062001f41565b607080546001810182556000919091527f8f6b23ffa15f0465e3176e15ca644cf24f86dc1312fe715484e3c4aead5eb78b018190559a9950505050505050505050565b6060606f8054806020026020016040519081016040528092919081815260200182805480156200056057602002820191906000526020600020905b8154815260200190600101908083116200054b575b5050505050905090565b600054610100900460ff16620005db5760405162461bcd60e51b815260206004820152602b60248201527f496e697469616c697a61626c653a20636f6e7472616374206973206e6f74206960448201526a6e697469616c697a696e6760a81b60648201526084015b60405180910390fd5b6001600160a01b038516620006345760405163d647364f60e01b815260206004820152601e60248201527f4261736544414f3a2061646d696e2061646472657373206973207a65726f00006044820152606401620005d2565b606680546001600160a01b0319166001600160a01b0387161790556200065a85620010d0565b620006688484848462001122565b5050505050565b620006796200106d565b620006856000620010d0565b565b606060718054806020026020016040519081016040528092919081815260200182805480156200056057602002820191906000526020600020908154815260200190600101908083116200054b575050505050905090565b6000620006eb6200106d565b606b54604051639cefe69f60e01b81526001600160a01b03909116906000908290639cefe69f9062000732908e908e908e908e908e908e908e9033908f906004016200204e565b6020604051808303816000875af115801562000752573d6000803e3d6000fd5b505050506040513d601f19601f8201168201806040525081019062000778919062001f41565b607280546001810182556000919091527fdffbd64cc7c1a7eb27984335d9416d51137a03d3fabec7141025c62663253fe1018190559b9a5050505050505050505050565b6033546001600160a01b031690565b620007d56200106d565b620007e38484848462001122565b50505050565b606060708054806020026020016040519081016040528092919081815260200182805480156200056057602002820191906000526020600020908154815260200190600101908083116200054b575050505050905090565b600054610100900460ff1615808015620008625750600054600160ff909116105b806200087e5750303b1580156200087e575060005460ff166001145b620008e35760405162461bcd60e51b815260206004820152602e60248201527f496e697469616c697a61626c653a20636f6e747261637420697320616c72656160448201526d191e481a5b9a5d1a585b1a5e995960921b6064820152608401620005d2565b6000805460ff19166001179055801562000907576000805461ff0019166101001790555b6060820151606a80546001600160a01b0319166001600160a01b0390921691909117905582516200093c9085908490620012c3565b606b60006101000a8154816001600160a01b0302191690836001600160a01b031602179055506200097384838560200151620012c3565b606d60006101000a8154816001600160a01b0302191690836001600160a01b03160217905550620009aa84838560400151620012c3565b606c60006101000a8154816001600160a01b0302191690836001600160a01b03160217905550620009e184838560600151620012c3565b606e60006101000a8154816001600160a01b0302191690836001600160a01b0316021790555062000a2c8460000151856020015186604001518761010001518861012001516200056a565b8015620007e3576000805461ff0019169055604051600181527f7f26b83ff96e1f2b6a682f133852f6798a09c465da95921460cefb3847402498906020015b60405180910390a150505050565b606a546001600160a01b0316331462000aec5760405162461bcd60e51b815260206004820152602e60248201527f526f6c6542617365644163636573733a2063616c6c6572206973206e6f74207460448201526d34329039bcb9ba32b6903ab9b2b960911b6064820152608401620005d2565b606b5460405163d26d681f60e01b81526001600160a01b039091169063d26d681f9062000b1e90849060040162001aac565b600060405180830381600087803b15801562000b3957600080fd5b505af115801562000b4e573d6000803e3d6000fd5b5050606d5460405163d26d681f60e01b81526001600160a01b03909116925063d26d681f915062000b8490849060040162001aac565b600060405180830381600087803b15801562000b9f57600080fd5b505af115801562000bb4573d6000803e3d6000fd5b5050606c5460405163d26d681f60e01b81526001600160a01b03909116925063d26d681f915062000bea90849060040162001aac565b600060405180830381600087803b15801562000c0557600080fd5b505af115801562000c1a573d6000803e3d6000fd5b5050606e5460405163d26d681f60e01b81526001600160a01b03909116925063d26d681f915062000c5090849060040162001aac565b600060405180830381600087803b15801562000c6b57600080fd5b505af115801562000668573d6000803e3d6000fd5b606060728054806020026020016040519081016040528092919081815260200182805480156200056057602002820191906000526020600020908154815260200190600101908083116200054b575050505050905090565b62000ce26200106d565b6001600160a01b03811662000d495760405162461bcd60e51b815260206004820152602660248201527f4f776e61626c653a206e6577206f776e657220697320746865207a65726f206160448201526564647265737360d01b6064820152608401620005d2565b62000d5481620010d0565b50565b62000d936040518060a001604052806060815260200160006001600160a01b031681526020016060815260200160608152602001606081525090565b60656040518060a001604052908160008201805462000db290620020d1565b80601f016020809104026020016040519081016040528092919081815260200182805462000de090620020d1565b801562000e315780601f1062000e055761010080835404028352916020019162000e31565b820191906000526020600020905b81548152906001019060200180831162000e1357829003601f168201915b505050918352505060018201546001600160a01b0316602082015260028201805460409092019162000e6390620020d1565b80601f016020809104026020016040519081016040528092919081815260200182805462000e9190620020d1565b801562000ee25780601f1062000eb65761010080835404028352916020019162000ee2565b820191906000526020600020905b81548152906001019060200180831162000ec457829003601f168201915b5050505050815260200160038201805462000efd90620020d1565b80601f016020809104026020016040519081016040528092919081815260200182805462000f2b90620020d1565b801562000f7c5780601f1062000f505761010080835404028352916020019162000f7c565b820191906000526020600020905b81548152906001019060200180831162000f5e57829003601f168201915b5050505050815260200160048201805480602002602001604051908101604052809291908181526020016000905b828210156200106057838290600052602060002001805462000fcc90620020d1565b80601f016020809104026020016040519081016040528092919081815260200182805462000ffa90620020d1565b80156200104b5780601f106200101f576101008083540402835291602001916200104b565b820191906000526020600020905b8154815290600101906020018083116200102d57829003601f168201915b50505050508152602001906001019062000faa565b5050505081525050905090565b3362001078620007bc565b6001600160a01b031614620006855760405162461bcd60e51b815260206004820181905260248201527f4f776e61626c653a2063616c6c6572206973206e6f7420746865206f776e65726044820152606401620005d2565b603380546001600160a01b038381166001600160a01b0319831681179093556040519116919082907f8be0079c531659141344cd1fd0a4f28419497f9722a3daafe3b4186f6b6457e090600090a35050565b83516000036200116f5760405163d647364f60e01b81526020600482015260166024820152754261736544414f3a206e616d6520697320656d70747960501b6044820152606401620005d2565b60656200117d858262002160565b508151600003620011d25760405163d647364f60e01b815260206004820152601d60248201527f4261736544414f3a206465736372697074696f6e20697320656d7074790000006044820152606401620005d2565b6068620011e0838262002160565b5060005b81518110156200126b578181815181106200120357620012036200222c565b602002602001015151600003620012565760405163d647364f60e01b81526020600482015260156024820152744261736544414f3a20696e76616c6964206c696e6b60581b6044820152606401620005d2565b80620012628162002242565b915050620011e4565b50805162001281906069906020840190620013c7565b50606762001290848262002160565b507fa6f9f25f4c5fed6464b219efa94b247fa993d06e7594aa81dd392bcbbd360061606560405162000a6b9190620022ef565b600080620012d68385604001516200137e565b606086015160a087015160c08801518751602089015160808b015160405163091696cb60e11b81526001600160a01b0396871660048201526024810195909552604485019390935290841660648401528316608483015260a482015291925082169063122d2d969060c401600060405180830381600087803b1580156200135c57600080fd5b505af115801562001371573d6000803e3d6000fd5b5092979650505050505050565b60006060838382604051620013939062001424565b620013a193929190620023c0565b604051809103906000f080158015620013be573d6000803e3d6000fd5b50949350505050565b82805482825590600052602060002090810192821562001412579160200282015b8281111562001412578251829062001401908262002160565b5091602001919060010190620013e8565b506200142092915062001432565b5090565b610eb280620023f883390190565b808211156200142057600062001449828262001453565b5060010162001432565b5080546200146190620020d1565b6000825580601f1062001472575050565b601f01602090049060005260206000209081019062000d5491905b808211156200142057600081556001016200148d565b634e487b7160e01b600052604160045260246000fd5b60405161014081016001600160401b0381118282101715620014df57620014df620014a3565b60405290565b604051601f8201601f191681016001600160401b0381118282101715620015105762001510620014a3565b604052919050565b600082601f8301126200152a57600080fd5b81356001600160401b03811115620015465762001546620014a3565b6200155b601f8201601f1916602001620014e5565b8181528460208386010111156200157157600080fd5b816020850160208301376000918101602001919091529392505050565b6001600160a01b038116811462000d5457600080fd5b8035620015b1816200158e565b919050565b60008060008060008060c08789031215620015d057600080fd5b86356001600160401b0380821115620015e857600080fd5b620015f68a838b0162001518565b975060208901359150808211156200160d57600080fd5b6200161b8a838b0162001518565b965060408901359150808211156200163257600080fd5b506200164189828a0162001518565b945050606087013562001654816200158e565b9250608087013562001666816200158e565b8092505060a087013590509295509295509295565b600080600080608085870312156200169257600080fd5b84356001600160401b0380821115620016aa57600080fd5b620016b88883890162001518565b95506020870135915080821115620016cf57600080fd5b620016dd8883890162001518565b94506040870135915080821115620016f457600080fd5b50620017038782880162001518565b949793965093946060013593505050565b600080600080600080600060e0888a0312156200173057600080fd5b87356001600160401b03808211156200174857600080fd5b620017568b838c0162001518565b985060208a01359150808211156200176d57600080fd5b6200177b8b838c0162001518565b975060408a01359150808211156200179257600080fd5b620017a08b838c0162001518565b9650620017b060608b01620015a4565b955060808a0135915080821115620017c757600080fd5b620017d58b838c0162001518565b945060a08a0135915080821115620017ec57600080fd5b50620017fb8a828b0162001518565b92505060c0880135905092959891949750929550565b6020808252825182820181905260009190848201906040850190845b818110156200184b578351835292840192918401916001016200182d565b50909695505050505050565b600082601f8301126200186957600080fd5b813560206001600160401b0380831115620018885762001888620014a3565b8260051b62001899838201620014e5565b9384528581018301938381019088861115620018b457600080fd5b84880192505b85831015620018f557823584811115620018d45760008081fd5b620018e48a87838c010162001518565b8352509184019190840190620018ba565b98975050505050505050565b600080600080600060a086880312156200191a57600080fd5b853562001927816200158e565b945060208601356001600160401b03808211156200194457600080fd5b6200195289838a0162001518565b955060408801359150808211156200196957600080fd5b6200197789838a0162001518565b945060608801359150808211156200198e57600080fd5b6200199c89838a0162001518565b93506080880135915080821115620019b357600080fd5b50620019c28882890162001857565b9150509295509295909350565b600080600080600080600080610100898b031215620019ed57600080fd5b88356001600160401b038082111562001a0557600080fd5b62001a138c838d0162001518565b995060208b013591508082111562001a2a57600080fd5b62001a388c838d0162001518565b985060408b013591508082111562001a4f57600080fd5b5062001a5e8b828c0162001518565b96505062001a6f60608a01620015a4565b945062001a7f60808a01620015a4565b935062001a8f60a08a01620015a4565b925060c0890135915060e089013590509295985092959890939650565b6001600160a01b0391909116815260200190565b6000806000806080858703121562001ad757600080fd5b84356001600160401b038082111562001aef57600080fd5b62001afd8883890162001518565b9550602087013591508082111562001b1457600080fd5b62001b228883890162001518565b9450604087013591508082111562001b3957600080fd5b62001b478883890162001518565b9350606087013591508082111562001b5e57600080fd5b5062001b6d8782880162001857565b91505092959194509250565b80358015158114620015b157600080fd5b60006080828403121562001b9d57600080fd5b604051608081016001600160401b038111828210171562001bc25762001bc2620014a3565b604052905080823562001bd5816200158e565b8152602083013562001be7816200158e565b6020820152604083013562001bfc816200158e565b6040820152606083013562001c11816200158e565b6060919091015292915050565b600080600061012080858703121562001c3657600080fd5b84356001600160401b038082111562001c4e57600080fd5b90860190610140828903121562001c6457600080fd5b62001c6e620014b9565b62001c7983620015a4565b815260208301358281111562001c8e57600080fd5b62001c9c8a82860162001518565b60208301525060408301358281111562001cb557600080fd5b62001cc38a82860162001518565b60408301525062001cd760608401620015a4565b60608201526080830135608082015260a083013560a082015260c083013560c082015262001d0860e0840162001b79565b60e0820152610100808401358381111562001d2257600080fd5b62001d308b82870162001518565b828401525050838301358281111562001d4857600080fd5b62001d568a82860162001857565b85830152508096505050505062001d71856020860162001b8a565b915062001d828560a0860162001b8a565b90509250925092565b60006020828403121562001d9e57600080fd5b813562001dab816200158e565b9392505050565b6000815180845260005b8181101562001dda5760208185018101518683018201520162001dbc565b506000602082860101526020601f19601f83011685010191505092915050565b60006020808352835160a08285015262001e1860c085018262001db2565b905060018060a01b03828601511660408501526040850151601f198086840301606087015262001e49838362001db2565b9250606087015191508086840301608087015262001e68838362001db2565b6080880151878203830160a089015280518083529194508501925084840190600581901b8501860160005b8281101562001ec3578487830301845262001eb082875162001db2565b9588019593880193915060010162001e93565b509998505050505050505050565b60e08152600062001ee660e083018a62001db2565b828103602084015262001efa818a62001db2565b9050828103604084015262001f10818962001db2565b6001600160a01b039788166060850152958716608084015250509190931660a082015260c001919091529392505050565b60006020828403121562001f5457600080fd5b5051919050565b60a08152600062001f7060a083018862001db2565b828103602084015262001f84818862001db2565b9050828103604084015262001f9a818762001db2565b6001600160a01b039590951660608401525050608001529392505050565b600061010080835262001fce8184018c62001db2565b9050828103602084015262001fe4818b62001db2565b9050828103604084015262001ffa818a62001db2565b6001600160a01b038981166060860152848203608086015290915062002021828962001db2565b915083820360a085015262002037828862001db2565b951660c0840152505060e001529695505050505050565b6000610120808352620020648184018d62001db2565b905082810360208401526200207a818c62001db2565b9050828103604084015262002090818b62001db2565b6001600160a01b03998a1660608501529789166080840152505093861660a085015260c084019290925290931660e082015261010001919091529392505050565b600181811c90821680620020e657607f821691505b6020821081036200210757634e487b7160e01b600052602260045260246000fd5b50919050565b601f8211156200215b57600081815260208120601f850160051c81016020861015620021365750805b601f850160051c820191505b81811015620021575782815560010162002142565b5050505b505050565b81516001600160401b038111156200217c576200217c620014a3565b62002194816200218d8454620020d1565b846200210d565b602080601f831160018114620021cc5760008415620021b35750858301515b600019600386901b1c1916600185901b17855562002157565b600085815260208120601f198616915b82811015620021fd57888601518255948401946001909101908401620021dc565b50858210156200221c5787850151600019600388901b60f8161c191681555b5050505050600190811b01905550565b634e487b7160e01b600052603260045260246000fd5b6000600182016200226357634e487b7160e01b600052601160045260246000fd5b5060010190565b600081546200227981620020d1565b808552602060018381168015620022995760018114620022b457620022e4565b60ff1985168884015283151560051b880183019550620022e4565b866000528260002060005b85811015620022dc5781548a8201860152908301908401620022bf565b890184019650505b505050505092915050565b6000602080835260a0818401526200230b60c08401856200226a565b6001858101546001600160a01b03166040860152601f19858303810160608701526200233b83600289016200226a565b9250808684030160808701526200235683600389016200226a565b868103820160a0880152600488018054808352600091825286822092955086860191600582901b87018801905b82811015620023b157858883030184526200239f82866200226a565b94870194938901939150860162002383565b509a9950505050505050505050565b6001600160a01b03848116825283166020820152606060408201819052600090620023ee9083018462001db2565b9594505050505056fe608060405260405162000eb238038062000eb2833981016040819052620000269162000497565b828162000036828260006200004d565b50620000449050826200008a565b505050620005ca565b6200005883620000e5565b600082511180620000665750805b1562000085576200008383836200012760201b620001691760201c565b505b505050565b7f7e644d79422f17c01e4894b5f4f588d331ebfa28653d42ae832dc59e38c9798f620000b562000156565b604080516001600160a01b03928316815291841660208301520160405180910390a1620000e2816200018f565b50565b620000f08162000244565b6040516001600160a01b038216907fbc7cd75a20ee27fd9adebab32041f755214dbc6bffa90cc0225b39da2e5c2d3b90600090a250565b60606200014f838360405180606001604052806027815260200162000e8b60279139620002f8565b9392505050565b60006200018060008051602062000e6b83398151915260001b6200037760201b620001951760201c565b546001600160a01b0316919050565b6001600160a01b038116620001fa5760405162461bcd60e51b815260206004820152602660248201527f455243313936373a206e65772061646d696e20697320746865207a65726f206160448201526564647265737360d01b60648201526084015b60405180910390fd5b806200022360008051602062000e6b83398151915260001b6200037760201b620001951760201c565b80546001600160a01b0319166001600160a01b039290921691909117905550565b6200025a816200037a60201b620001981760201c565b620002be5760405162461bcd60e51b815260206004820152602d60248201527f455243313936373a206e657720696d706c656d656e746174696f6e206973206e60448201526c1bdd08184818dbdb9d1c9858dd609a1b6064820152608401620001f1565b80620002237f360894a13ba1a3210667c828492db98dca3e2076cc3735a920a3ca505d382bbc60001b6200037760201b620001951760201c565b6060600080856001600160a01b03168560405162000317919062000577565b600060405180830381855af49150503d806000811462000354576040519150601f19603f3d011682016040523d82523d6000602084013e62000359565b606091505b5090925090506200036d8683838762000389565b9695505050505050565b90565b6001600160a01b03163b151590565b60608315620003fd578251600003620003f557620003a7856200037a565b620003f55760405162461bcd60e51b815260206004820152601d60248201527f416464726573733a2063616c6c20746f206e6f6e2d636f6e74726163740000006044820152606401620001f1565b508162000409565b62000409838362000411565b949350505050565b815115620004225781518083602001fd5b8060405162461bcd60e51b8152600401620001f1919062000595565b80516001600160a01b03811681146200045657600080fd5b919050565b634e487b7160e01b600052604160045260246000fd5b60005b838110156200048e57818101518382015260200162000474565b50506000910152565b600080600060608486031215620004ad57600080fd5b620004b8846200043e565b9250620004c8602085016200043e565b60408501519092506001600160401b0380821115620004e657600080fd5b818601915086601f830112620004fb57600080fd5b8151818111156200051057620005106200045b565b604051601f8201601f19908116603f011681019083821181831017156200053b576200053b6200045b565b816040528281528960208487010111156200055557600080fd5b6200056883602083016020880162000471565b80955050505050509250925092565b600082516200058b81846020870162000471565b9190910192915050565b6020815260008251806020840152620005b681604085016020870162000471565b601f01601f19169190910160400192915050565b61089180620005da6000396000f3fe60806040523661001357610011610017565b005b6100115b61001f6101a7565b6001600160a01b0316330361015f5760606001600160e01b0319600035166364d3180d60e11b810161005a576100536101c8565b9150610157565b63587086bd60e11b6001600160e01b031982160161007a5761005361021f565b63070d7c6960e41b6001600160e01b031982160161009a57610053610265565b621eb96f60e61b6001600160e01b03198216016100b957610053610296565b63a39f25e560e01b6001600160e01b03198216016100d9576100536102d6565b60405162461bcd60e51b815260206004820152604260248201527f5472616e73706172656e745570677261646561626c6550726f78793a2061646d60448201527f696e2063616e6e6f742066616c6c6261636b20746f2070726f78792074617267606482015261195d60f21b608482015260a4015b60405180910390fd5b815160208301f35b6101676102ea565b565b606061018e8383604051806060016040528060278152602001610835602791396102fa565b9392505050565b90565b6001600160a01b03163b151590565b60006000805160206107f58339815191525b546001600160a01b0316919050565b60606101d2610372565b60006101e13660048184610649565b8101906101ee919061068f565b905061020b8160405180602001604052806000815250600061037d565b505060408051602081019091526000815290565b60606000806102313660048184610649565b81019061023e91906106c0565b9150915061024e8282600161037d565b604051806020016040528060008152509250505090565b606061026f610372565b600061027e3660048184610649565b81019061028b919061068f565b905061020b816103a9565b60606102a0610372565b60006102aa6101a7565b604080516001600160a01b03831660208201529192500160405160208183030381529060405291505090565b60606102e0610372565b60006102aa610400565b6101676102f5610400565b61040f565b6060600080856001600160a01b03168560405161031791906107a5565b600060405180830381855af49150503d8060008114610352576040519150601f19603f3d011682016040523d82523d6000602084013e610357565b606091505b509150915061036886838387610433565b9695505050505050565b341561016757600080fd5b610386836104b2565b6000825111806103935750805b156103a4576103a28383610169565b505b505050565b7f7e644d79422f17c01e4894b5f4f588d331ebfa28653d42ae832dc59e38c9798f6103d26101a7565b604080516001600160a01b03928316815291841660208301520160405180910390a16103fd816104f2565b50565b600061040a610589565b905090565b3660008037600080366000845af43d6000803e80801561042e573d6000f35b3d6000fd5b606083156104a05782516000036104995761044d85610198565b6104995760405162461bcd60e51b815260206004820152601d60248201527f416464726573733a2063616c6c20746f206e6f6e2d636f6e7472616374000000604482015260640161014e565b50816104aa565b6104aa838361059f565b949350505050565b6104bb816105c9565b6040516001600160a01b038216907fbc7cd75a20ee27fd9adebab32041f755214dbc6bffa90cc0225b39da2e5c2d3b90600090a250565b6001600160a01b0381166105575760405162461bcd60e51b815260206004820152602660248201527f455243313936373a206e65772061646d696e20697320746865207a65726f206160448201526564647265737360d01b606482015260840161014e565b806000805160206107f58339815191525b80546001600160a01b0319166001600160a01b039290921691909117905550565b60006000805160206108158339815191526101b9565b8151156105af5781518083602001fd5b8060405162461bcd60e51b815260040161014e91906107c1565b6105d281610198565b6106345760405162461bcd60e51b815260206004820152602d60248201527f455243313936373a206e657720696d706c656d656e746174696f6e206973206e60448201526c1bdd08184818dbdb9d1c9858dd609a1b606482015260840161014e565b80600080516020610815833981519152610568565b6000808585111561065957600080fd5b8386111561066657600080fd5b5050820193919092039150565b80356001600160a01b038116811461068a57600080fd5b919050565b6000602082840312156106a157600080fd5b61018e82610673565b634e487b7160e01b600052604160045260246000fd5b600080604083850312156106d357600080fd5b6106dc83610673565b915060208301356001600160401b03808211156106f857600080fd5b818501915085601f83011261070c57600080fd5b81358181111561071e5761071e6106aa565b604051601f8201601f19908116603f01168101908382118183101715610746576107466106aa565b8160405282815288602084870101111561075f57600080fd5b8260208601602083013760006020848301015280955050505050509250929050565b60005b8381101561079c578181015183820152602001610784565b50506000910152565b600082516107b7818460208701610781565b9190910192915050565b60208152600082518060208401526107e0816040850160208701610781565b601f01601f1916919091016040019291505056feb53127684a568b3173ae13b9f8a6016e243e63b6e8ee1178d6a717850b5d6103360894a13ba1a3210667c828492db98dca3e2076cc3735a920a3ca505d382bbc416464726573733a206c6f772d6c6576656c2064656c65676174652063616c6c206661696c6564a2646970667358221220620b02c16977e4bc46dc8e126676654738ae0c6dcb3ade55e68906b6b7d90c2164736f6c63430008120033b53127684a568b3173ae13b9f8a6016e243e63b6e8ee1178d6a717850b5d6103416464726573733a206c6f772d6c6576656c2064656c65676174652063616c6c206661696c6564a26469706673582212209659369eb2eeeaab93618e1d73381de2b4330b59d1bf8c9e06cebe467393db9364736f6c63430008120033",
  "linkReferences": {},
  "deployedLinkReferences": {}
}