{
  "_format": "hh-sol-artifact-1",
  "contractName": "FTDAO",
  "sourceName": "contracts/dao/FTDAO.sol",
  "abi": [
    {
      "inputs": [
        {
          "internalType": "string",
          "name": "message",
          "type": "string"
        }
      ],
      "name": "InvalidInput",
      "type": "error"
    },
    {
      "anonymous": false,
      "inputs": [
        {
          "components": [
            {
              "internalType": "string",
              "name": "name",
              "type": "string"
            },
            {
              "internalType": "address",
              "name": "admin",
              "type": "address"
            },
            {
              "internalType": "string",
              "name": "logoUrl",
              "type": "string"
            },
            {
              "internalType": "string",
              "name": "infoUrl",
              "type": "string"
            },
            {
              "internalType": "string",
              "name": "description",
              "type": "string"
            },
            {
              "internalType": "string[]",
              "name": "webLinks",
              "type": "string[]"
            }
          ],
          "indexed": false,
          "internalType": "struct BaseDAO.DAOInfo",
          "name": "daoInfo",
          "type": "tuple"
        }
      ],
      "name": "DAOInfoUpdated",
      "type": "event"
    },
    {
      "anonymous": false,
      "inputs": [
        {
          "indexed": false,
          "internalType": "uint8",
          "name": "version",
          "type": "uint8"
        }
      ],
      "name": "Initialized",
      "type": "event"
    },
    {
      "anonymous": false,
      "inputs": [
        {
          "indexed": true,
          "internalType": "bytes32",
          "name": "role",
          "type": "bytes32"
        },
        {
          "indexed": true,
          "internalType": "bytes32",
          "name": "previousAdminRole",
          "type": "bytes32"
        },
        {
          "indexed": true,
          "internalType": "bytes32",
          "name": "newAdminRole",
          "type": "bytes32"
        }
      ],
      "name": "RoleAdminChanged",
      "type": "event"
    },
    {
      "anonymous": false,
      "inputs": [
        {
          "indexed": true,
          "internalType": "bytes32",
          "name": "role",
          "type": "bytes32"
        },
        {
          "indexed": true,
          "internalType": "address",
          "name": "account",
          "type": "address"
        },
        {
          "indexed": true,
          "internalType": "address",
          "name": "sender",
          "type": "address"
        }
      ],
      "name": "RoleGranted",
      "type": "event"
    },
    {
      "anonymous": false,
      "inputs": [
        {
          "indexed": true,
          "internalType": "bytes32",
          "name": "role",
          "type": "bytes32"
        },
        {
          "indexed": true,
          "internalType": "address",
          "name": "account",
          "type": "address"
        },
        {
          "indexed": true,
          "internalType": "address",
          "name": "sender",
          "type": "address"
        }
      ],
      "name": "RoleRevoked",
      "type": "event"
    },
    {
      "inputs": [],
      "name": "DAO_ADMIN",
      "outputs": [
        {
          "internalType": "bytes32",
          "name": "",
          "type": "bytes32"
        }
      ],
      "stateMutability": "view",
      "type": "function"
    },
    {
      "inputs": [],
      "name": "DEFAULT_ADMIN_ROLE",
      "outputs": [
        {
          "internalType": "bytes32",
          "name": "",
          "type": "bytes32"
        }
      ],
      "stateMutability": "view",
      "type": "function"
    },
    {
      "inputs": [
        {
          "internalType": "address",
          "name": "_admin",
          "type": "address"
        },
        {
          "internalType": "string",
          "name": "_name",
          "type": "string"
        },
        {
          "internalType": "string",
          "name": "_logoUrl",
          "type": "string"
        },
        {
          "internalType": "string",
          "name": "_infoUrl",
          "type": "string"
        },
        {
          "internalType": "string",
          "name": "_description",
          "type": "string"
        },
        {
          "internalType": "string[]",
          "name": "_webLinks",
          "type": "string[]"
        }
      ],
      "name": "__BaseDAO_init",
      "outputs": [],
      "stateMutability": "nonpayable",
      "type": "function"
    },
    {
      "inputs": [],
      "name": "getDaoInfo",
      "outputs": [
        {
          "components": [
            {
              "internalType": "string",
              "name": "name",
              "type": "string"
            },
            {
              "internalType": "address",
              "name": "admin",
              "type": "address"
            },
            {
              "internalType": "string",
              "name": "logoUrl",
              "type": "string"
            },
            {
              "internalType": "string",
              "name": "infoUrl",
              "type": "string"
            },
            {
              "internalType": "string",
              "name": "description",
              "type": "string"
            },
            {
              "internalType": "string[]",
              "name": "webLinks",
              "type": "string[]"
            }
          ],
          "internalType": "struct BaseDAO.DAOInfo",
          "name": "",
          "type": "tuple"
        }
      ],
      "stateMutability": "view",
      "type": "function"
    },
    {
      "inputs": [
        {
          "internalType": "bytes32",
          "name": "role",
          "type": "bytes32"
        }
      ],
      "name": "getRoleAdmin",
      "outputs": [
        {
          "internalType": "bytes32",
          "name": "",
          "type": "bytes32"
        }
      ],
      "stateMutability": "view",
      "type": "function"
    },
    {
      "inputs": [],
      "name": "governorAddress",
      "outputs": [
        {
          "internalType": "address",
          "name": "",
          "type": "address"
        }
      ],
      "stateMutability": "view",
      "type": "function"
    },
    {
      "inputs": [
        {
          "internalType": "bytes32",
          "name": "role",
          "type": "bytes32"
        },
        {
          "internalType": "address",
          "name": "account",
          "type": "address"
        }
      ],
      "name": "grantRole",
      "outputs": [],
      "stateMutability": "nonpayable",
      "type": "function"
    },
    {
      "inputs": [
        {
          "internalType": "bytes32",
          "name": "role",
          "type": "bytes32"
        },
        {
          "internalType": "address",
          "name": "account",
          "type": "address"
        }
      ],
      "name": "hasRole",
      "outputs": [
        {
          "internalType": "bool",
          "name": "",
          "type": "bool"
        }
      ],
      "stateMutability": "view",
      "type": "function"
    },
    {
      "inputs": [
        {
          "internalType": "address",
          "name": "_governorAddress",
          "type": "address"
        },
        {
          "components": [
            {
              "internalType": "address",
              "name": "admin",
              "type": "address"
            },
            {
              "internalType": "string",
              "name": "name",
              "type": "string"
            },
            {
              "internalType": "string",
              "name": "logoUrl",
              "type": "string"
            },
            {
              "internalType": "string",
              "name": "infoUrl",
              "type": "string"
            },
            {
              "internalType": "address",
              "name": "tokenAddress",
              "type": "address"
            },
            {
              "internalType": "uint256",
              "name": "quorumThreshold",
              "type": "uint256"
            },
            {
              "internalType": "uint256",
              "name": "votingDelay",
              "type": "uint256"
            },
            {
              "internalType": "uint256",
              "name": "votingPeriod",
              "type": "uint256"
            },
            {
              "internalType": "bool",
              "name": "isPrivate",
              "type": "bool"
            },
            {
              "internalType": "string",
              "name": "description",
              "type": "string"
            },
            {
              "internalType": "string[]",
              "name": "webLinks",
              "type": "string[]"
            }
          ],
          "internalType": "struct ISharedModel.CreateDAOInputs",
          "name": "_inputs",
          "type": "tuple"
        }
      ],
      "name": "initialize",
      "outputs": [],
      "stateMutability": "nonpayable",
      "type": "function"
    },
    {
      "inputs": [
        {
          "internalType": "bytes32",
          "name": "role",
          "type": "bytes32"
        },
        {
          "internalType": "address",
          "name": "account",
          "type": "address"
        }
      ],
      "name": "renounceRole",
      "outputs": [],
      "stateMutability": "nonpayable",
      "type": "function"
    },
    {
      "inputs": [
        {
          "internalType": "bytes32",
          "name": "role",
          "type": "bytes32"
        },
        {
          "internalType": "address",
          "name": "account",
          "type": "address"
        }
      ],
      "name": "revokeRole",
      "outputs": [],
      "stateMutability": "nonpayable",
      "type": "function"
    },
    {
      "inputs": [
        {
          "internalType": "bytes4",
          "name": "interfaceId",
          "type": "bytes4"
        }
      ],
      "name": "supportsInterface",
      "outputs": [
        {
          "internalType": "bool",
          "name": "",
          "type": "bool"
        }
      ],
      "stateMutability": "view",
      "type": "function"
    },
    {
      "inputs": [
        {
          "internalType": "string",
          "name": "_name",
          "type": "string"
        },
        {
          "internalType": "string",
          "name": "_logoUrl",
          "type": "string"
        },
        {
          "internalType": "string",
          "name": "_infoUrl",
          "type": "string"
        },
        {
          "internalType": "string",
          "name": "_description",
          "type": "string"
        },
        {
          "internalType": "string[]",
          "name": "_webLinks",
          "type": "string[]"
        }
      ],
      "name": "updateDaoInfo",
      "outputs": [],
      "stateMutability": "nonpayable",
      "type": "function"
    }
  ],
  "bytecode": "0x608060405234801561001057600080fd5b5061001961001e565b6100dd565b600054610100900460ff161561008a5760405162461bcd60e51b815260206004820152602760248201527f496e697469616c697a61626c653a20636f6e747261637420697320696e697469604482015266616c697a696e6760c81b606482015260840160405180910390fd5b60005460ff908116146100db576000805460ff191660ff9081179091556040519081527f7f26b83ff96e1f2b6a682f133852f6798a09c465da95921460cefb38474024989060200160405180910390a15b565b61195a806100ec6000396000f3fe608060405234801561001057600080fd5b50600436106100af5760003560e01c806301ffc9a7146100b4578063248a9ca3146100dc578063276f1c41146100fd5780632a486caf146101285780632f2ff15d1461013d57806336568abe146101505780633a789e5314610163578063468c8a61146101765780635db6515c1461018b57806391d148541461019e578063a217fddf146101b1578063d547741f146101b9578063fa382f87146101cc575b600080fd5b6100c76100c2366004610ee4565b6101e1565b60405190151581526020015b60405180910390f35b6100ef6100ea366004610f0e565b610218565b6040519081526020016100d3565b60fc54610110906001600160a01b031681565b6040516001600160a01b0390911681526020016100d3565b61013b6101363660046110bf565b61022d565b005b61013b61014b36600461119f565b61033c565b61013b61015e36600461119f565b61035d565b61013b6101713660046111db565b6103db565b6100ef60008051602061190583398151915281565b61013b610199366004611341565b61052b565b6100c76101ac36600461119f565b610550565b6100ef600081565b61013b6101c736600461119f565b61057b565b6101d4610597565b6040516100d39190611462565b60006001600160e01b03198216637965db0b60e01b148061021257506301ffc9a760e01b6001600160e01b03198316145b92915050565b60009081526065602052604090206001015490565b600054610100900460ff1661029d5760405162461bcd60e51b815260206004820152602b60248201527f496e697469616c697a61626c653a20636f6e7472616374206973206e6f74206960448201526a6e697469616c697a696e6760a81b60648201526084015b60405180910390fd5b6001600160a01b0386166102f45760405163d647364f60e01b815260206004820152601e60248201527f4261736544414f3a2061646d696e2061646472657373206973207a65726f00006044820152606401610294565b60ca80546001600160a01b0319166001600160a01b03881617905561032760008051602061190583398151915287610923565b61033485858585856109a9565b505050505050565b61034582610218565b61034e81610b4b565b6103588383610923565b505050565b6001600160a01b03811633146103cd5760405162461bcd60e51b815260206004820152602f60248201527f416363657373436f6e74726f6c3a2063616e206f6e6c792072656e6f756e636560448201526e103937b632b9903337b91039b2b63360891b6064820152608401610294565b6103d78282610b58565b5050565b600054610100900460ff16158080156103fb5750600054600160ff909116105b806104155750303b158015610415575060005460ff166001145b6104785760405162461bcd60e51b815260206004820152602e60248201527f496e697469616c697a61626c653a20636f6e747261637420697320616c72656160448201526d191e481a5b9a5d1a585b1a5e995960921b6064820152608401610294565b6000805460ff19166001179055801561049b576000805461ff0019166101001790555b60fc80546001600160a01b0319166001600160a01b03851617905581516020830151604084015160608501516101208601516101408701516104e195949392919061022d565b8015610358576000805461ff0019169055604051600181527f7f26b83ff96e1f2b6a682f133852f6798a09c465da95921460cefb38474024989060200160405180910390a1505050565b60008051602061190583398151915261054381610b4b565b61033486868686866109a9565b60009182526065602090815260408084206001600160a01b0393909316845291905290205460ff1690565b61058482610218565b61058d81610b4b565b6103588383610b58565b6105d96040518060c001604052806060815260200160006001600160a01b03168152602001606081526020016060815260200160608152602001606081525090565b60c96040518060c00160405290816000820180546105f69061154c565b80601f01602080910402602001604051908101604052809291908181526020018280546106229061154c565b801561066f5780601f106106445761010080835404028352916020019161066f565b820191906000526020600020905b81548152906001019060200180831161065257829003601f168201915b505050918352505060018201546001600160a01b0316602082015260028201805460409092019161069f9061154c565b80601f01602080910402602001604051908101604052809291908181526020018280546106cb9061154c565b80156107185780601f106106ed57610100808354040283529160200191610718565b820191906000526020600020905b8154815290600101906020018083116106fb57829003601f168201915b505050505081526020016003820180546107319061154c565b80601f016020809104026020016040519081016040528092919081815260200182805461075d9061154c565b80156107aa5780601f1061077f576101008083540402835291602001916107aa565b820191906000526020600020905b81548152906001019060200180831161078d57829003601f168201915b505050505081526020016004820180546107c39061154c565b80601f01602080910402602001604051908101604052809291908181526020018280546107ef9061154c565b801561083c5780601f106108115761010080835404028352916020019161083c565b820191906000526020600020905b81548152906001019060200180831161081f57829003601f168201915b5050505050815260200160058201805480602002602001604051908101604052809291908181526020016000905b828210156109165783829060005260206000200180546108899061154c565b80601f01602080910402602001604051908101604052809291908181526020018280546108b59061154c565b80156109025780601f106108d757610100808354040283529160200191610902565b820191906000526020600020905b8154815290600101906020018083116108e557829003601f168201915b50505050508152602001906001019061086a565b5050505081525050905090565b61092d8282610550565b6103d75760008281526065602090815260408083206001600160a01b03851684529091529020805460ff191660011790556109653390565b6001600160a01b0316816001600160a01b0316837f2f8788117e7eff1d82e926ec794901d17c78024a50270940304540a733656f0d60405160405180910390a45050565b6109b283610bbf565b84516000036109fd5760405163d647364f60e01b81526020600482015260166024820152754261736544414f3a206e616d6520697320656d70747960501b6044820152606401610294565b60c9610a0986826115cc565b508151600003610a5c5760405163d647364f60e01b815260206004820152601d60248201527f4261736544414f3a206465736372697074696f6e20697320656d7074790000006044820152606401610294565b60cd610a6883826115cc565b5060005b8151811015610aea57818181518110610a8757610a8761168b565b602002602001015151600003610ad85760405163d647364f60e01b81526020600482015260156024820152744261736544414f3a20696e76616c6964206c696e6b60581b6044820152606401610294565b80610ae2816116b7565b915050610a6c565b508051610afe9060ce906020840190610e27565b5060cb610b0b85826115cc565b507fcc9d0d1e1a5fc974a889257e10cdee98a6c0d30c66047a145bceec19d4bc667460c9604051610b3c91906117a6565b60405180910390a15050505050565b610b558133610c1a565b50565b610b628282610550565b156103d75760008281526065602090815260408083206001600160a01b0385168085529252808320805460ff1916905551339285917ff6391f5c32d9c69d2a47ea670b442974b53935d1edc7fd64eb21e047a839171b9190a45050565b8051600003610c0e5760405163d647364f60e01b815260206004820152601a6024820152794261736544414f3a20696e666f2075726c20697320656d70747960301b6044820152606401610294565b60cc6103d782826115cc565b610c248282610550565b6103d757610c3181610c73565b610c3c836020610c85565b604051602001610c4d929190611841565b60408051601f198184030181529082905262461bcd60e51b8252610294916004016118b0565b60606102126001600160a01b03831660145b60606000610c948360026118c3565b610c9f9060026118da565b6001600160401b03811115610cb657610cb6610f43565b6040519080825280601f01601f191660200182016040528015610ce0576020820181803683370190505b509050600360fc1b81600081518110610cfb57610cfb61168b565b60200101906001600160f81b031916908160001a905350600f60fb1b81600181518110610d2a57610d2a61168b565b60200101906001600160f81b031916908160001a9053506000610d4e8460026118c3565b610d599060016118da565b90505b6001811115610dd1576f181899199a1a9b1b9c1cb0b131b232b360811b85600f1660108110610d8d57610d8d61168b565b1a60f81b828281518110610da357610da361168b565b60200101906001600160f81b031916908160001a90535060049490941c93610dca816118ed565b9050610d5c565b508315610e205760405162461bcd60e51b815260206004820181905260248201527f537472696e67733a20686578206c656e67746820696e73756666696369656e746044820152606401610294565b9392505050565b828054828255906000526020600020908101928215610e6d579160200282015b82811115610e6d5782518290610e5d90826115cc565b5091602001919060010190610e47565b50610e79929150610e7d565b5090565b80821115610e79576000610e918282610e9a565b50600101610e7d565b508054610ea69061154c565b6000825580601f10610eb6575050565b601f016020900490600052602060002090810190610b5591905b80821115610e795760008155600101610ed0565b600060208284031215610ef657600080fd5b81356001600160e01b031981168114610e2057600080fd5b600060208284031215610f2057600080fd5b5035919050565b80356001600160a01b0381168114610f3e57600080fd5b919050565b634e487b7160e01b600052604160045260246000fd5b60405161016081016001600160401b0381118282101715610f7c57610f7c610f43565b60405290565b604051601f8201601f191681016001600160401b0381118282101715610faa57610faa610f43565b604052919050565b600082601f830112610fc357600080fd5b81356001600160401b03811115610fdc57610fdc610f43565b610fef601f8201601f1916602001610f82565b81815284602083860101111561100457600080fd5b816020850160208301376000918101602001919091529392505050565b600082601f83011261103257600080fd5b813560206001600160401b038083111561104e5761104e610f43565b8260051b61105d838201610f82565b938452858101830193838101908886111561107757600080fd5b84880192505b858310156110b3578235848111156110955760008081fd5b6110a38a87838c0101610fb2565b835250918401919084019061107d565b98975050505050505050565b60008060008060008060c087890312156110d857600080fd5b6110e187610f27565b955060208701356001600160401b03808211156110fd57600080fd5b6111098a838b01610fb2565b9650604089013591508082111561111f57600080fd5b61112b8a838b01610fb2565b9550606089013591508082111561114157600080fd5b61114d8a838b01610fb2565b9450608089013591508082111561116357600080fd5b61116f8a838b01610fb2565b935060a089013591508082111561118557600080fd5b5061119289828a01611021565b9150509295509295509295565b600080604083850312156111b257600080fd5b823591506111c260208401610f27565b90509250929050565b80358015158114610f3e57600080fd5b600080604083850312156111ee57600080fd5b6111f783610f27565b915060208301356001600160401b038082111561121357600080fd5b90840190610160828703121561122857600080fd5b611230610f59565b61123983610f27565b815260208301358281111561124d57600080fd5b61125988828601610fb2565b60208301525060408301358281111561127157600080fd5b61127d88828601610fb2565b60408301525060608301358281111561129557600080fd5b6112a188828601610fb2565b6060830152506112b360808401610f27565b608082015260a083013560a082015260c083013560c082015260e083013560e08201526101006112e48185016111cb565b9082015261012083810135838111156112fc57600080fd5b61130889828701610fb2565b828401525050610140808401358381111561132257600080fd5b61132e89828701611021565b8284015250508093505050509250929050565b600080600080600060a0868803121561135957600080fd5b85356001600160401b038082111561137057600080fd5b61137c89838a01610fb2565b9650602088013591508082111561139257600080fd5b61139e89838a01610fb2565b955060408801359150808211156113b457600080fd5b6113c089838a01610fb2565b945060608801359150808211156113d657600080fd5b6113e289838a01610fb2565b935060808801359150808211156113f857600080fd5b5061140588828901611021565b9150509295509295909350565b60005b8381101561142d578181015183820152602001611415565b50506000910152565b6000815180845261144e816020860160208601611412565b601f01601f19169290920160200192915050565b60006020808352835160c08285015261147e60e0850182611436565b905060018060a01b03828601511660408501526040850151601f19808684030160608701526114ad8383611436565b925060608701519150808684030160808701526114ca8383611436565b925060808701519150808684030160a08701526114e78383611436565b60a0880151878203830160c089015280518083529194508501925084840190600581901b8501860160005b8281101561153e578487830301845261152c828751611436565b95880195938801939150600101611512565b509998505050505050505050565b600181811c9082168061156057607f821691505b60208210810361158057634e487b7160e01b600052602260045260246000fd5b50919050565b601f82111561035857600081815260208120601f850160051c810160208610156115ad5750805b601f850160051c820191505b81811015610334578281556001016115b9565b81516001600160401b038111156115e5576115e5610f43565b6115f9816115f3845461154c565b84611586565b602080601f83116001811461162e57600084156116165750858301515b600019600386901b1c1916600185901b178555610334565b600085815260208120601f198616915b8281101561165d5788860151825594840194600190910190840161163e565b508582101561167b5787850151600019600388901b60f8161c191681555b5050505050600190811b01905550565b634e487b7160e01b600052603260045260246000fd5b634e487b7160e01b600052601160045260246000fd5b6000600182016116c9576116c96116a1565b5060010190565b600081546116dd8161154c565b8085526020600183811680156116fa576001811461171457611742565b60ff1985168884015283151560051b880183019550611742565b866000528260002060005b8581101561173a5781548a820186015290830190840161171f565b890184019650505b505050505092915050565b600081548084526020808501808196508360051b81019150856000528260002060005b8581101561179957828403895261178784836116d0565b98850198935060019182019101611770565b5091979650505050505050565b6020815260c0602082015260006117c060e08301846116d0565b60018401546001600160a01b03166040840152601f19838203810160608501526117ed82600287016116d0565b91508084830301608085015261180682600387016116d0565b9150808483030160a085015261181f82600487016116d0565b9150808483030160c085015250611839816005860161174d565b949350505050565b76020b1b1b2b9b9a1b7b73a3937b61d1030b1b1b7bab73a1604d1b815260008351611873816017850160208801611412565b7001034b99036b4b9b9b4b733903937b6329607d1b60179184019182015283516118a4816028840160208801611412565b01602801949350505050565b602081526000610e206020830184611436565b8082028115828204841417610212576102126116a1565b80820180821115610212576102126116a1565b6000816118fc576118fc6116a1565b50600019019056fef591dda2e9b53c180cef2a1f29bc285ccc0649b7a0efc8de2ec0cfe024d46b96a2646970667358221220697fd729bb55c594ed5c848d28fddf13372f469172cc8bed672fa76c3cc15f9a64736f6c63430008120033",
  "linkReferences": {},
  "deployedLinkReferences": {}
}