{
  "_format": "hh-sol-artifact-1",
  "contractName": "FTDAO",
  "sourceName": "contracts/dao/FTDAO.sol",
  "abi": [
    {
      "inputs": [
        {
          "internalType": "string",
          "name": "message",
          "type": "string"
        }
      ],
      "name": "InvalidInput",
      "type": "error"
    },
    {
      "anonymous": false,
      "inputs": [
        {
          "components": [
            {
              "internalType": "string",
              "name": "name",
              "type": "string"
            },
            {
              "internalType": "address",
              "name": "admin",
              "type": "address"
            },
            {
              "internalType": "string",
              "name": "logoUrl",
              "type": "string"
            },
            {
              "internalType": "string",
              "name": "infoUrl",
              "type": "string"
            },
            {
              "internalType": "string",
              "name": "description",
              "type": "string"
            },
            {
              "internalType": "string[]",
              "name": "webLinks",
              "type": "string[]"
            }
          ],
          "indexed": false,
          "internalType": "struct BaseDAO.DAOInfo",
          "name": "daoInfo",
          "type": "tuple"
        }
      ],
      "name": "DAOInfoUpdated",
      "type": "event"
    },
    {
      "anonymous": false,
      "inputs": [
        {
          "components": [
            {
              "internalType": "address",
              "name": "tokenTransferLogic",
              "type": "address"
            },
            {
              "internalType": "address",
              "name": "textLogic",
              "type": "address"
            },
            {
              "internalType": "address",
              "name": "contractUpgradeLogic",
              "type": "address"
            },
            {
              "internalType": "address",
              "name": "createTokenLogic",
              "type": "address"
            }
          ],
          "indexed": false,
          "internalType": "struct ISharedDAOModel.Governor",
          "name": "oldImplementation",
          "type": "tuple"
        },
        {
          "components": [
            {
              "internalType": "address",
              "name": "tokenTransferLogic",
              "type": "address"
            },
            {
              "internalType": "address",
              "name": "textLogic",
              "type": "address"
            },
            {
              "internalType": "address",
              "name": "contractUpgradeLogic",
              "type": "address"
            },
            {
              "internalType": "address",
              "name": "createTokenLogic",
              "type": "address"
            }
          ],
          "indexed": false,
          "internalType": "struct ISharedDAOModel.Governor",
          "name": "newImplementation",
          "type": "tuple"
        },
        {
          "indexed": false,
          "internalType": "string",
          "name": "name",
          "type": "string"
        }
      ],
      "name": "GovernorLogicUpdated",
      "type": "event"
    },
    {
      "anonymous": false,
      "inputs": [
        {
          "indexed": false,
          "internalType": "uint8",
          "name": "version",
          "type": "uint8"
        }
      ],
      "name": "Initialized",
      "type": "event"
    },
    {
      "anonymous": false,
      "inputs": [
        {
          "indexed": true,
          "internalType": "bytes32",
          "name": "role",
          "type": "bytes32"
        },
        {
          "indexed": true,
          "internalType": "bytes32",
          "name": "previousAdminRole",
          "type": "bytes32"
        },
        {
          "indexed": true,
          "internalType": "bytes32",
          "name": "newAdminRole",
          "type": "bytes32"
        }
      ],
      "name": "RoleAdminChanged",
      "type": "event"
    },
    {
      "anonymous": false,
      "inputs": [
        {
          "indexed": true,
          "internalType": "bytes32",
          "name": "role",
          "type": "bytes32"
        },
        {
          "indexed": true,
          "internalType": "address",
          "name": "account",
          "type": "address"
        },
        {
          "indexed": true,
          "internalType": "address",
          "name": "sender",
          "type": "address"
        }
      ],
      "name": "RoleGranted",
      "type": "event"
    },
    {
      "anonymous": false,
      "inputs": [
        {
          "indexed": true,
          "internalType": "bytes32",
          "name": "role",
          "type": "bytes32"
        },
        {
          "indexed": true,
          "internalType": "address",
          "name": "account",
          "type": "address"
        },
        {
          "indexed": true,
          "internalType": "address",
          "name": "sender",
          "type": "address"
        }
      ],
      "name": "RoleRevoked",
      "type": "event"
    },
    {
      "inputs": [],
      "name": "DAO_ADMIN",
      "outputs": [
        {
          "internalType": "bytes32",
          "name": "",
          "type": "bytes32"
        }
      ],
      "stateMutability": "view",
      "type": "function"
    },
    {
      "inputs": [],
      "name": "DEFAULT_ADMIN_ROLE",
      "outputs": [
        {
          "internalType": "bytes32",
          "name": "",
          "type": "bytes32"
        }
      ],
      "stateMutability": "view",
      "type": "function"
    },
    {
      "inputs": [
        {
          "internalType": "address",
          "name": "_admin",
          "type": "address"
        },
        {
          "internalType": "string",
          "name": "_name",
          "type": "string"
        },
        {
          "internalType": "string",
          "name": "_logoUrl",
          "type": "string"
        },
        {
          "internalType": "string",
          "name": "_infoUrl",
          "type": "string"
        },
        {
          "internalType": "string",
          "name": "_description",
          "type": "string"
        },
        {
          "internalType": "string[]",
          "name": "_webLinks",
          "type": "string[]"
        }
      ],
      "name": "__BaseDAO_init",
      "outputs": [],
      "stateMutability": "nonpayable",
      "type": "function"
    },
    {
      "inputs": [],
      "name": "getDaoInfo",
      "outputs": [
        {
          "components": [
            {
              "internalType": "string",
              "name": "name",
              "type": "string"
            },
            {
              "internalType": "address",
              "name": "admin",
              "type": "address"
            },
            {
              "internalType": "string",
              "name": "logoUrl",
              "type": "string"
            },
            {
              "internalType": "string",
              "name": "infoUrl",
              "type": "string"
            },
            {
              "internalType": "string",
              "name": "description",
              "type": "string"
            },
            {
              "internalType": "string[]",
              "name": "webLinks",
              "type": "string[]"
            }
          ],
          "internalType": "struct BaseDAO.DAOInfo",
          "name": "",
          "type": "tuple"
        }
      ],
      "stateMutability": "view",
      "type": "function"
    },
    {
      "inputs": [],
      "name": "getGovernorContractAddresses",
      "outputs": [
        {
          "internalType": "address",
          "name": "",
          "type": "address"
        },
        {
          "internalType": "address",
          "name": "",
          "type": "address"
        },
        {
          "internalType": "address",
          "name": "",
          "type": "address"
        },
        {
          "internalType": "address",
          "name": "",
          "type": "address"
        }
      ],
      "stateMutability": "view",
      "type": "function"
    },
    {
      "inputs": [
        {
          "internalType": "bytes32",
          "name": "role",
          "type": "bytes32"
        }
      ],
      "name": "getRoleAdmin",
      "outputs": [
        {
          "internalType": "bytes32",
          "name": "",
          "type": "bytes32"
        }
      ],
      "stateMutability": "view",
      "type": "function"
    },
    {
      "inputs": [
        {
          "internalType": "bytes32",
          "name": "role",
          "type": "bytes32"
        },
        {
          "internalType": "address",
          "name": "account",
          "type": "address"
        }
      ],
      "name": "grantRole",
      "outputs": [],
      "stateMutability": "nonpayable",
      "type": "function"
    },
    {
      "inputs": [
        {
          "internalType": "bytes32",
          "name": "role",
          "type": "bytes32"
        },
        {
          "internalType": "address",
          "name": "account",
          "type": "address"
        }
      ],
      "name": "hasRole",
      "outputs": [
        {
          "internalType": "bool",
          "name": "",
          "type": "bool"
        }
      ],
      "stateMutability": "view",
      "type": "function"
    },
    {
      "inputs": [
        {
          "components": [
            {
              "internalType": "address",
              "name": "admin",
              "type": "address"
            },
            {
              "internalType": "string",
              "name": "name",
              "type": "string"
            },
            {
              "internalType": "string",
              "name": "logoUrl",
              "type": "string"
            },
            {
              "internalType": "string",
              "name": "infoUrl",
              "type": "string"
            },
            {
              "internalType": "address",
              "name": "tokenAddress",
              "type": "address"
            },
            {
              "internalType": "uint256",
              "name": "quorumThreshold",
              "type": "uint256"
            },
            {
              "internalType": "uint256",
              "name": "votingDelay",
              "type": "uint256"
            },
            {
              "internalType": "uint256",
              "name": "votingPeriod",
              "type": "uint256"
            },
            {
              "internalType": "bool",
              "name": "isPrivate",
              "type": "bool"
            },
            {
              "internalType": "string",
              "name": "description",
              "type": "string"
            },
            {
              "internalType": "string[]",
              "name": "webLinks",
              "type": "string[]"
            }
          ],
          "internalType": "struct ISharedDAOModel.CreateDAOInputs",
          "name": "inputs",
          "type": "tuple"
        },
        {
          "components": [
            {
              "internalType": "address",
              "name": "tokenTransferLogic",
              "type": "address"
            },
            {
              "internalType": "address",
              "name": "textLogic",
              "type": "address"
            },
            {
              "internalType": "address",
              "name": "contractUpgradeLogic",
              "type": "address"
            },
            {
              "internalType": "address",
              "name": "createTokenLogic",
              "type": "address"
            }
          ],
          "internalType": "struct ISharedDAOModel.Governor",
          "name": "governor",
          "type": "tuple"
        },
        {
          "components": [
            {
              "internalType": "contract IHederaService",
              "name": "hederaService",
              "type": "address"
            },
            {
              "internalType": "contract ITokenHolder",
              "name": "iTokenHolder",
              "type": "address"
            }
          ],
          "internalType": "struct ISharedDAOModel.Common",
          "name": "common",
          "type": "tuple"
        },
        {
          "internalType": "contract ISystemRoleBasedAccess",
          "name": "_iSystemRoleBasedAccess",
          "type": "address"
        }
      ],
      "name": "initialize",
      "outputs": [],
      "stateMutability": "nonpayable",
      "type": "function"
    },
    {
      "inputs": [
        {
          "internalType": "bytes32",
          "name": "role",
          "type": "bytes32"
        },
        {
          "internalType": "address",
          "name": "account",
          "type": "address"
        }
      ],
      "name": "renounceRole",
      "outputs": [],
      "stateMutability": "nonpayable",
      "type": "function"
    },
    {
      "inputs": [
        {
          "internalType": "bytes32",
          "name": "role",
          "type": "bytes32"
        },
        {
          "internalType": "address",
          "name": "account",
          "type": "address"
        }
      ],
      "name": "revokeRole",
      "outputs": [],
      "stateMutability": "nonpayable",
      "type": "function"
    },
    {
      "inputs": [
        {
          "internalType": "bytes4",
          "name": "interfaceId",
          "type": "bytes4"
        }
      ],
      "name": "supportsInterface",
      "outputs": [
        {
          "internalType": "bool",
          "name": "",
          "type": "bool"
        }
      ],
      "stateMutability": "view",
      "type": "function"
    },
    {
      "inputs": [
        {
          "internalType": "string",
          "name": "_name",
          "type": "string"
        },
        {
          "internalType": "string",
          "name": "_logoUrl",
          "type": "string"
        },
        {
          "internalType": "string",
          "name": "_infoUrl",
          "type": "string"
        },
        {
          "internalType": "string",
          "name": "_description",
          "type": "string"
        },
        {
          "internalType": "string[]",
          "name": "_webLinks",
          "type": "string[]"
        }
      ],
      "name": "updateDaoInfo",
      "outputs": [],
      "stateMutability": "nonpayable",
      "type": "function"
    },
    {
      "inputs": [
        {
          "internalType": "contract IHederaService",
          "name": "newHederaService",
          "type": "address"
        }
      ],
      "name": "upgradeHederaService",
      "outputs": [],
      "stateMutability": "nonpayable",
      "type": "function"
    }
  ],
  "bytecode": "0x608060405234801561001057600080fd5b50613059806100206000396000f3fe60806040523480156200001157600080fd5b5060043610620000ca5760003560e01c806301ffc9a714620000cf578063248a9ca314620000fb5780632a486caf14620001215780632f2ff15d146200013a57806336568abe1462000151578063468c8a61146200016857806352323f01146200017f5780635db6515c14620001c057806391d1485414620001d7578063a217fddf14620001ee578063a8b1cc4314620001f7578063d26d681f146200020e578063d547741f1462000225578063fa382f87146200023c575b600080fd5b620000e6620000e036600462001470565b62000255565b60405190151581526020015b60405180910390f35b620001126200010c3660046200149c565b6200028d565b604051908152602001620000f2565b620001386200013236600462001698565b620002a2565b005b620001386200014b3660046200178a565b620003b9565b62000138620001623660046200178a565b620003e0565b620001126000805160206200300483398151915281565b60fc5460fe5460fd5460ff54604080516001600160a01b039586168152938516602085015291841691830191909152919091166060820152608001620000f2565b62000138620001d1366004620017bd565b62000462565b620000e6620001e83660046200178a565b6200048c565b62000112600081565b62000138620002083660046200198c565b620004b7565b620001386200021f36600462001b37565b620006ee565b62000138620002363660046200178a565b620008e7565b6200024662000909565b604051620000f2919062001bab565b60006001600160e01b03198216637965db0b60e01b14806200028757506301ffc9a760e01b6001600160e01b03198316145b92915050565b60009081526065602052604090206001015490565b600054610100900460ff16620003135760405162461bcd60e51b815260206004820152602b60248201527f496e697469616c697a61626c653a20636f6e7472616374206973206e6f74206960448201526a6e697469616c697a696e6760a81b60648201526084015b60405180910390fd5b6001600160a01b0386166200036c5760405163d647364f60e01b815260206004820152601e60248201527f4261736544414f3a2061646d696e2061646472657373206973207a65726f000060448201526064016200030a565b60ca80546001600160a01b0319166001600160a01b038816179055620003a2600080516020620030048339815191528762000cc0565b620003b1858585858562000d4a565b505050505050565b620003c4826200028d565b620003cf8162000ef6565b620003db838362000cc0565b505050565b6001600160a01b0381163314620004525760405162461bcd60e51b815260206004820152602f60248201527f416363657373436f6e74726f6c3a2063616e206f6e6c792072656e6f756e636560448201526e103937b632b9903337b91039b2b63360891b60648201526084016200030a565b6200045e828262000f05565b5050565b600080516020620030048339815191526200047d8162000ef6565b620003b1868686868662000d4a565b60009182526065602090815260408084206001600160a01b0393909316845291905290205460ff1690565b600054610100900460ff1615808015620004d85750600054600160ff909116105b80620004f45750303b158015620004f4575060005460ff166001145b620005595760405162461bcd60e51b815260206004820152602e60248201527f496e697469616c697a61626c653a20636f6e747261637420697320616c72656160448201526d191e481a5b9a5d1a585b1a5e995960921b60648201526084016200030a565b6000805460ff1916600117905580156200057d576000805461ff0019166101001790555b61010080546001600160a01b0319166001600160a01b0384161790558351620005aa908690859062000f6f565b60fc60006101000a8154816001600160a01b0302191690836001600160a01b03160217905550620005e18584866020015162000f6f565b60fe60006101000a8154816001600160a01b0302191690836001600160a01b03160217905550620006188584866040015162000f6f565b60fd60006101000a8154816001600160a01b0302191690836001600160a01b031602179055506200064f8584866060015162000f6f565b60ff60006101000a8154816001600160a01b0302191690836001600160a01b031602179055506200069f85600001518660200151876040015188606001518961012001518a6101400151620002a2565b8015620006e7576000805461ff0019169055604051600181527f7f26b83ff96e1f2b6a682f133852f6798a09c465da95921460cefb3847402498906020015b60405180910390a15b5050505050565b61010054604051637ae09f4d60e01b81526001600160a01b0390911690637ae09f4d906200072190339060040162001ca1565b60006040518083038186803b1580156200073a57600080fd5b505afa1580156200074f573d6000803e3d6000fd5b505060fc5460405163d26d681f60e01b81526001600160a01b03909116925063d26d681f91506200078590849060040162001ca1565b600060405180830381600087803b158015620007a057600080fd5b505af1158015620007b5573d6000803e3d6000fd5b505060fe5460405163d26d681f60e01b81526001600160a01b03909116925063d26d681f9150620007eb90849060040162001ca1565b600060405180830381600087803b1580156200080657600080fd5b505af11580156200081b573d6000803e3d6000fd5b505060fd5460405163d26d681f60e01b81526001600160a01b03909116925063d26d681f91506200085190849060040162001ca1565b600060405180830381600087803b1580156200086c57600080fd5b505af115801562000881573d6000803e3d6000fd5b505060ff5460405163d26d681f60e01b81526001600160a01b03909116925063d26d681f9150620008b790849060040162001ca1565b600060405180830381600087803b158015620008d257600080fd5b505af1158015620006e7573d6000803e3d6000fd5b620008f2826200028d565b620008fd8162000ef6565b620003db838362000f05565b6200094c6040518060c001604052806060815260200160006001600160a01b03168152602001606081526020016060815260200160608152602001606081525090565b60c96040518060c00160405290816000820180546200096b9062001cb5565b80601f0160208091040260200160405190810160405280929190818152602001828054620009999062001cb5565b8015620009ea5780601f10620009be57610100808354040283529160200191620009ea565b820191906000526020600020905b815481529060010190602001808311620009cc57829003601f168201915b505050918352505060018201546001600160a01b0316602082015260028201805460409092019162000a1c9062001cb5565b80601f016020809104026020016040519081016040528092919081815260200182805462000a4a9062001cb5565b801562000a9b5780601f1062000a6f5761010080835404028352916020019162000a9b565b820191906000526020600020905b81548152906001019060200180831162000a7d57829003601f168201915b5050505050815260200160038201805462000ab69062001cb5565b80601f016020809104026020016040519081016040528092919081815260200182805462000ae49062001cb5565b801562000b355780601f1062000b095761010080835404028352916020019162000b35565b820191906000526020600020905b81548152906001019060200180831162000b1757829003601f168201915b5050505050815260200160048201805462000b509062001cb5565b80601f016020809104026020016040519081016040528092919081815260200182805462000b7e9062001cb5565b801562000bcf5780601f1062000ba35761010080835404028352916020019162000bcf565b820191906000526020600020905b81548152906001019060200180831162000bb157829003601f168201915b5050505050815260200160058201805480602002602001604051908101604052809291908181526020016000905b8282101562000cb357838290600052602060002001805462000c1f9062001cb5565b80601f016020809104026020016040519081016040528092919081815260200182805462000c4d9062001cb5565b801562000c9e5780601f1062000c725761010080835404028352916020019162000c9e565b820191906000526020600020905b81548152906001019060200180831162000c8057829003601f168201915b50505050508152602001906001019062000bfd565b5050505081525050905090565b62000ccc82826200048c565b6200045e5760008281526065602090815260408083206001600160a01b03851684529091529020805460ff1916600117905562000d063390565b6001600160a01b0316816001600160a01b0316837f2f8788117e7eff1d82e926ec794901d17c78024a50270940304540a733656f0d60405160405180910390a45050565b62000d5583620010b5565b845160000362000da25760405163d647364f60e01b81526020600482015260166024820152754261736544414f3a206e616d6520697320656d70747960501b60448201526064016200030a565b60c962000db0868262001d3b565b50815160000362000e055760405163d647364f60e01b815260206004820152601d60248201527f4261736544414f3a206465736372697074696f6e20697320656d70747900000060448201526064016200030a565b60cd62000e13838262001d3b565b5060005b815181101562000e9e5781818151811062000e365762000e3662001e07565b60200260200101515160000362000e895760405163d647364f60e01b81526020600482015260156024820152744261736544414f3a20696e76616c6964206c696e6b60581b60448201526064016200030a565b8062000e958162001e33565b91505062000e17565b50805162000eb49060ce90602084019062001394565b5060cb62000ec3858262001d3b565b507fcc9d0d1e1a5fc974a889257e10cdee98a6c0d30c66047a145bceec19d4bc667460c9604051620006de919062001f31565b62000f02813362001114565b50565b62000f1182826200048c565b156200045e5760008281526065602090815260408083206001600160a01b0385168085529252808320805460ff1916905551339285917ff6391f5c32d9c69d2a47ea670b442974b53935d1edc7fd64eb21e047a839171b9190a45050565b60008061010060009054906101000a90046001600160a01b03166001600160a01b0316635d0629226040518163ffffffff1660e01b8152600401608060405180830381865afa15801562000fc7573d6000803e3d6000fd5b505050506040513d601f19601f8201168201806040525081019062000fed919062001fd6565b602001519050600062001001848362001178565b608087015160c088015160e0890151885160208a015160a08c01516101005460405163b399131f60e01b81526001600160a01b0397881660048201526024810196909652604486019490945291851660648501528416608484015260a4830152821660c482015291925082169063b399131f9060e401600060405180830381600087803b1580156200109257600080fd5b505af1158015620010a7573d6000803e3d6000fd5b509298975050505050505050565b8051600003620011065760405163d647364f60e01b815260206004820152601a6024820152794261736544414f3a20696e666f2075726c20697320656d70747960301b60448201526064016200030a565b60cc6200045e828262001d3b565b6200112082826200048c565b6200045e576200113081620011c1565b6200113d836020620011d4565b6040516020016200115092919062002048565b60408051601f198184030181529082905262461bcd60e51b82526200030a91600401620020bb565b600060608383826040516200118d90620013f1565b6200119b93929190620020d0565b604051809103906000f080158015620011b8573d6000803e3d6000fd5b50949350505050565b6060620002876001600160a01b03831660145b60606000620011e583600262002107565b620011f290600262002121565b6001600160401b038111156200120c576200120c620014de565b6040519080825280601f01601f19166020018201604052801562001237576020820181803683370190505b509050600360fc1b8160008151811062001255576200125562001e07565b60200101906001600160f81b031916908160001a905350600f60fb1b8160018151811062001287576200128762001e07565b60200101906001600160f81b031916908160001a9053506000620012ad84600262002107565b620012ba90600162002121565b90505b60018111156200133c576f181899199a1a9b1b9c1cb0b131b232b360811b85600f1660108110620012f257620012f262001e07565b1a60f81b8282815181106200130b576200130b62001e07565b60200101906001600160f81b031916908160001a90535060049490941c93620013348162002137565b9050620012bd565b5083156200138d5760405162461bcd60e51b815260206004820181905260248201527f537472696e67733a20686578206c656e67746820696e73756666696369656e7460448201526064016200030a565b9392505050565b828054828255906000526020600020908101928215620013df579160200282015b82811115620013df5782518290620013ce908262001d3b565b5091602001919060010190620013b5565b50620013ed929150620013ff565b5090565b610eb2806200215283390190565b80821115620013ed57600062001416828262001420565b50600101620013ff565b5080546200142e9062001cb5565b6000825580601f106200143f575050565b601f01602090049060005260206000209081019062000f0291905b80821115620013ed57600081556001016200145a565b6000602082840312156200148357600080fd5b81356001600160e01b0319811681146200138d57600080fd5b600060208284031215620014af57600080fd5b5035919050565b6001600160a01b038116811462000f0257600080fd5b8035620014d981620014b6565b919050565b634e487b7160e01b600052604160045260246000fd5b604051608081016001600160401b0381118282101715620015195762001519620014de565b60405290565b60405161016081016001600160401b0381118282101715620015195762001519620014de565b604051601f8201601f191681016001600160401b0381118282101715620015705762001570620014de565b604052919050565b600082601f8301126200158a57600080fd5b81356001600160401b03811115620015a657620015a6620014de565b620015bb601f8201601f191660200162001545565b818152846020838601011115620015d157600080fd5b816020850160208301376000918101602001919091529392505050565b600082601f8301126200160057600080fd5b813560206001600160401b03808311156200161f576200161f620014de565b8260051b6200163083820162001545565b93845285810183019383810190888611156200164b57600080fd5b84880192505b858310156200168c578235848111156200166b5760008081fd5b6200167b8a87838c010162001578565b835250918401919084019062001651565b98975050505050505050565b60008060008060008060c08789031215620016b257600080fd5b620016bd87620014cc565b955060208701356001600160401b0380821115620016da57600080fd5b620016e88a838b0162001578565b96506040890135915080821115620016ff57600080fd5b6200170d8a838b0162001578565b955060608901359150808211156200172457600080fd5b620017328a838b0162001578565b945060808901359150808211156200174957600080fd5b620017578a838b0162001578565b935060a08901359150808211156200176e57600080fd5b506200177d89828a01620015ee565b9150509295509295509295565b600080604083850312156200179e57600080fd5b823591506020830135620017b281620014b6565b809150509250929050565b600080600080600060a08688031215620017d657600080fd5b85356001600160401b0380821115620017ee57600080fd5b620017fc89838a0162001578565b965060208801359150808211156200181357600080fd5b6200182189838a0162001578565b955060408801359150808211156200183857600080fd5b6200184689838a0162001578565b945060608801359150808211156200185d57600080fd5b6200186b89838a0162001578565b935060808801359150808211156200188257600080fd5b506200189188828901620015ee565b9150509295509295909350565b80358015158114620014d957600080fd5b600060808284031215620018c257600080fd5b620018cc620014f4565b90508135620018db81620014b6565b81526020820135620018ed81620014b6565b602082015260408201356200190281620014b6565b604082015260608201356200191781620014b6565b606082015292915050565b6000604082840312156200193557600080fd5b604080519081016001600160401b03811182821017156200195a576200195a620014de565b60405290508082356200196d81620014b6565b815260208301356200197f81620014b6565b6020919091015292915050565b600080600080610100808688031215620019a557600080fd5b85356001600160401b0380821115620019bd57600080fd5b90870190610160828a031215620019d357600080fd5b620019dd6200151f565b620019e883620014cc565b8152602083013582811115620019fd57600080fd5b62001a0b8b82860162001578565b60208301525060408301358281111562001a2457600080fd5b62001a328b82860162001578565b60408301525060608301358281111562001a4b57600080fd5b62001a598b82860162001578565b60608301525062001a6d60808401620014cc565b608082015260a083013560a082015260c083013560c082015260e083013560e082015262001a9d8484016200189e565b848201526101209350838301358281111562001ab857600080fd5b62001ac68b82860162001578565b85830152506101409350838301358281111562001ae257600080fd5b62001af08b828601620015ee565b85830152508097505050505062001b0b8660208701620018af565b925062001b1c8660a0870162001922565b915062001b2c60e08601620014cc565b905092959194509250565b60006020828403121562001b4a57600080fd5b81356200138d81620014b6565b60005b8381101562001b7457818101518382015260200162001b5a565b50506000910152565b6000815180845262001b9781602086016020860162001b57565b601f01601f19169290920160200192915050565b60006020808352835160c08285015262001bc960e085018262001b7d565b905060018060a01b03828601511660408501526040850151601f198086840301606087015262001bfa838362001b7d565b9250606087015191508086840301608087015262001c19838362001b7d565b925060808701519150808684030160a087015262001c38838362001b7d565b60a0880151878203830160c089015280518083529194508501925084840190600581901b8501860160005b8281101562001c93578487830301845262001c8082875162001b7d565b9588019593880193915060010162001c63565b509998505050505050505050565b6001600160a01b0391909116815260200190565b600181811c9082168062001cca57607f821691505b60208210810362001ceb57634e487b7160e01b600052602260045260246000fd5b50919050565b601f821115620003db57600081815260208120601f850160051c8101602086101562001d1a5750805b601f850160051c820191505b81811015620003b15782815560010162001d26565b81516001600160401b0381111562001d575762001d57620014de565b62001d6f8162001d68845462001cb5565b8462001cf1565b602080601f83116001811462001da7576000841562001d8e5750858301515b600019600386901b1c1916600185901b178555620003b1565b600085815260208120601f198616915b8281101562001dd85788860151825594840194600190910190840162001db7565b508582101562001df75787850151600019600388901b60f8161c191681555b5050505050600190811b01905550565b634e487b7160e01b600052603260045260246000fd5b634e487b7160e01b600052601160045260246000fd5b60006001820162001e485762001e4862001e1d565b5060010190565b6000815462001e5e8162001cb5565b80855260206001838116801562001e7e576001811462001e995762001ec9565b60ff1985168884015283151560051b88018301955062001ec9565b866000528260002060005b8581101562001ec15781548a820186015290830190840162001ea4565b890184019650505b505050505092915050565b600081548084526020808501808196508360051b81019150856000528260002060005b8581101562001f2457828403895262001f11848362001e4f565b9885019893506001918201910162001ef7565b5091979650505050505050565b6020815260c06020820152600062001f4d60e083018462001e4f565b60018401546001600160a01b03166040840152601f198382038101606085015262001f7c826002870162001e4f565b91508084830301608085015262001f97826003870162001e4f565b9150808483030160a085015262001fb2826004870162001e4f565b9150808483030160c08501525062001fce816005860162001ed4565b949350505050565b60006080828403121562001fe957600080fd5b62001ff3620014f4565b82516200200081620014b6565b815260208301516200201281620014b6565b602082015260408301516200202781620014b6565b604082015260608301516200203c81620014b6565b60608201529392505050565b76020b1b1b2b9b9a1b7b73a3937b61d1030b1b1b7bab73a1604d1b8152600083516200207c81601785016020880162001b57565b7001034b99036b4b9b9b4b733903937b6329607d1b6017918401918201528351620020af81602884016020880162001b57565b01602801949350505050565b6020815260006200138d602083018462001b7d565b6001600160a01b03848116825283166020820152606060408201819052600090620020fe9083018462001b7d565b95945050505050565b808202811582820484141762000287576200028762001e1d565b8082018082111562000287576200028762001e1d565b60008162002149576200214962001e1d565b50600019019056fe608060405260405162000eb238038062000eb2833981016040819052620000269162000497565b828162000036828260006200004d565b50620000449050826200008a565b505050620005ca565b6200005883620000e5565b600082511180620000665750805b1562000085576200008383836200012760201b620001691760201c565b505b505050565b7f7e644d79422f17c01e4894b5f4f588d331ebfa28653d42ae832dc59e38c9798f620000b562000156565b604080516001600160a01b03928316815291841660208301520160405180910390a1620000e2816200018f565b50565b620000f08162000244565b6040516001600160a01b038216907fbc7cd75a20ee27fd9adebab32041f755214dbc6bffa90cc0225b39da2e5c2d3b90600090a250565b60606200014f838360405180606001604052806027815260200162000e8b60279139620002f8565b9392505050565b60006200018060008051602062000e6b83398151915260001b6200037760201b620001951760201c565b546001600160a01b0316919050565b6001600160a01b038116620001fa5760405162461bcd60e51b815260206004820152602660248201527f455243313936373a206e65772061646d696e20697320746865207a65726f206160448201526564647265737360d01b60648201526084015b60405180910390fd5b806200022360008051602062000e6b83398151915260001b6200037760201b620001951760201c565b80546001600160a01b0319166001600160a01b039290921691909117905550565b6200025a816200037a60201b620001981760201c565b620002be5760405162461bcd60e51b815260206004820152602d60248201527f455243313936373a206e657720696d706c656d656e746174696f6e206973206e60448201526c1bdd08184818dbdb9d1c9858dd609a1b6064820152608401620001f1565b80620002237f360894a13ba1a3210667c828492db98dca3e2076cc3735a920a3ca505d382bbc60001b6200037760201b620001951760201c565b6060600080856001600160a01b03168560405162000317919062000577565b600060405180830381855af49150503d806000811462000354576040519150601f19603f3d011682016040523d82523d6000602084013e62000359565b606091505b5090925090506200036d8683838762000389565b9695505050505050565b90565b6001600160a01b03163b151590565b60608315620003fd578251600003620003f557620003a7856200037a565b620003f55760405162461bcd60e51b815260206004820152601d60248201527f416464726573733a2063616c6c20746f206e6f6e2d636f6e74726163740000006044820152606401620001f1565b508162000409565b62000409838362000411565b949350505050565b815115620004225781518083602001fd5b8060405162461bcd60e51b8152600401620001f1919062000595565b80516001600160a01b03811681146200045657600080fd5b919050565b634e487b7160e01b600052604160045260246000fd5b60005b838110156200048e57818101518382015260200162000474565b50506000910152565b600080600060608486031215620004ad57600080fd5b620004b8846200043e565b9250620004c8602085016200043e565b60408501519092506001600160401b0380821115620004e657600080fd5b818601915086601f830112620004fb57600080fd5b8151818111156200051057620005106200045b565b604051601f8201601f19908116603f011681019083821181831017156200053b576200053b6200045b565b816040528281528960208487010111156200055557600080fd5b6200056883602083016020880162000471565b80955050505050509250925092565b600082516200058b81846020870162000471565b9190910192915050565b6020815260008251806020840152620005b681604085016020870162000471565b601f01601f19169190910160400192915050565b61089180620005da6000396000f3fe60806040523661001357610011610017565b005b6100115b61001f6101a7565b6001600160a01b0316330361015f5760606001600160e01b0319600035166364d3180d60e11b810161005a576100536101c8565b9150610157565b63587086bd60e11b6001600160e01b031982160161007a5761005361021f565b63070d7c6960e41b6001600160e01b031982160161009a57610053610265565b621eb96f60e61b6001600160e01b03198216016100b957610053610296565b63a39f25e560e01b6001600160e01b03198216016100d9576100536102d6565b60405162461bcd60e51b815260206004820152604260248201527f5472616e73706172656e745570677261646561626c6550726f78793a2061646d60448201527f696e2063616e6e6f742066616c6c6261636b20746f2070726f78792074617267606482015261195d60f21b608482015260a4015b60405180910390fd5b815160208301f35b6101676102ea565b565b606061018e8383604051806060016040528060278152602001610835602791396102fa565b9392505050565b90565b6001600160a01b03163b151590565b60006000805160206107f58339815191525b546001600160a01b0316919050565b60606101d2610372565b60006101e13660048184610649565b8101906101ee919061068f565b905061020b8160405180602001604052806000815250600061037d565b505060408051602081019091526000815290565b60606000806102313660048184610649565b81019061023e91906106c0565b9150915061024e8282600161037d565b604051806020016040528060008152509250505090565b606061026f610372565b600061027e3660048184610649565b81019061028b919061068f565b905061020b816103a9565b60606102a0610372565b60006102aa6101a7565b604080516001600160a01b03831660208201529192500160405160208183030381529060405291505090565b60606102e0610372565b60006102aa610400565b6101676102f5610400565b61040f565b6060600080856001600160a01b03168560405161031791906107a5565b600060405180830381855af49150503d8060008114610352576040519150601f19603f3d011682016040523d82523d6000602084013e610357565b606091505b509150915061036886838387610433565b9695505050505050565b341561016757600080fd5b610386836104b2565b6000825111806103935750805b156103a4576103a28383610169565b505b505050565b7f7e644d79422f17c01e4894b5f4f588d331ebfa28653d42ae832dc59e38c9798f6103d26101a7565b604080516001600160a01b03928316815291841660208301520160405180910390a16103fd816104f2565b50565b600061040a610589565b905090565b3660008037600080366000845af43d6000803e80801561042e573d6000f35b3d6000fd5b606083156104a05782516000036104995761044d85610198565b6104995760405162461bcd60e51b815260206004820152601d60248201527f416464726573733a2063616c6c20746f206e6f6e2d636f6e7472616374000000604482015260640161014e565b50816104aa565b6104aa838361059f565b949350505050565b6104bb816105c9565b6040516001600160a01b038216907fbc7cd75a20ee27fd9adebab32041f755214dbc6bffa90cc0225b39da2e5c2d3b90600090a250565b6001600160a01b0381166105575760405162461bcd60e51b815260206004820152602660248201527f455243313936373a206e65772061646d696e20697320746865207a65726f206160448201526564647265737360d01b606482015260840161014e565b806000805160206107f58339815191525b80546001600160a01b0319166001600160a01b039290921691909117905550565b60006000805160206108158339815191526101b9565b8151156105af5781518083602001fd5b8060405162461bcd60e51b815260040161014e91906107c1565b6105d281610198565b6106345760405162461bcd60e51b815260206004820152602d60248201527f455243313936373a206e657720696d706c656d656e746174696f6e206973206e60448201526c1bdd08184818dbdb9d1c9858dd609a1b606482015260840161014e565b80600080516020610815833981519152610568565b6000808585111561065957600080fd5b8386111561066657600080fd5b5050820193919092039150565b80356001600160a01b038116811461068a57600080fd5b919050565b6000602082840312156106a157600080fd5b61018e82610673565b634e487b7160e01b600052604160045260246000fd5b600080604083850312156106d357600080fd5b6106dc83610673565b915060208301356001600160401b03808211156106f857600080fd5b818501915085601f83011261070c57600080fd5b81358181111561071e5761071e6106aa565b604051601f8201601f19908116603f01168101908382118183101715610746576107466106aa565b8160405282815288602084870101111561075f57600080fd5b8260208601602083013760006020848301015280955050505050509250929050565b60005b8381101561079c578181015183820152602001610784565b50506000910152565b600082516107b7818460208701610781565b9190910192915050565b60208152600082518060208401526107e0816040850160208701610781565b601f01601f1916919091016040019291505056feb53127684a568b3173ae13b9f8a6016e243e63b6e8ee1178d6a717850b5d6103360894a13ba1a3210667c828492db98dca3e2076cc3735a920a3ca505d382bbc416464726573733a206c6f772d6c6576656c2064656c65676174652063616c6c206661696c6564a2646970667358221220620b02c16977e4bc46dc8e126676654738ae0c6dcb3ade55e68906b6b7d90c2164736f6c63430008120033b53127684a568b3173ae13b9f8a6016e243e63b6e8ee1178d6a717850b5d6103416464726573733a206c6f772d6c6576656c2064656c65676174652063616c6c206661696c6564f591dda2e9b53c180cef2a1f29bc285ccc0649b7a0efc8de2ec0cfe024d46b96a26469706673582212205892a6db3e46e532405cb37ff9f8f1f1d566adf839d1c1d74a7ee1343a9522e864736f6c63430008120033",
  "linkReferences": {},
  "deployedLinkReferences": {}
}