{
  "_format": "hh-sol-artifact-1",
  "contractName": "FTDAOFactory",
  "sourceName": "contracts/dao/FTDAOFactory.sol",
  "abi": [
    {
      "inputs": [
        {
          "internalType": "string",
          "name": "message",
          "type": "string"
        }
      ],
      "name": "InvalidInput",
      "type": "error"
    },
    {
      "inputs": [
        {
          "internalType": "string",
          "name": "message",
          "type": "string"
        }
      ],
      "name": "NotAdmin",
      "type": "error"
    },
    {
      "anonymous": false,
      "inputs": [
        {
          "indexed": false,
          "internalType": "address",
          "name": "daoAddress",
          "type": "address"
        },
        {
          "components": [
            {
              "internalType": "address",
              "name": "tokenTransferLogic",
              "type": "address"
            },
            {
              "internalType": "address",
              "name": "textLogic",
              "type": "address"
            },
            {
              "internalType": "address",
              "name": "contractUpgradeLogic",
              "type": "address"
            },
            {
              "internalType": "address",
              "name": "createTokenLogic",
              "type": "address"
            }
          ],
          "indexed": false,
          "internalType": "struct ISharedDAOModel.Governor",
          "name": "governors",
          "type": "tuple"
        },
        {
          "indexed": false,
          "internalType": "address",
          "name": "tokenHolderAddress",
          "type": "address"
        },
        {
          "components": [
            {
              "internalType": "address",
              "name": "admin",
              "type": "address"
            },
            {
              "internalType": "string",
              "name": "name",
              "type": "string"
            },
            {
              "internalType": "string",
              "name": "logoUrl",
              "type": "string"
            },
            {
              "internalType": "address",
              "name": "tokenAddress",
              "type": "address"
            },
            {
              "internalType": "uint256",
              "name": "quorumThreshold",
              "type": "uint256"
            },
            {
              "internalType": "uint256",
              "name": "votingDelay",
              "type": "uint256"
            },
            {
              "internalType": "uint256",
              "name": "votingPeriod",
              "type": "uint256"
            },
            {
              "internalType": "bool",
              "name": "isPrivate",
              "type": "bool"
            },
            {
              "internalType": "string",
              "name": "description",
              "type": "string"
            },
            {
              "internalType": "string[]",
              "name": "webLinks",
              "type": "string[]"
            }
          ],
          "indexed": false,
          "internalType": "struct ISharedDAOModel.CreateDAOInputs",
          "name": "inputs",
          "type": "tuple"
        }
      ],
      "name": "DAOCreated",
      "type": "event"
    },
    {
      "anonymous": false,
      "inputs": [
        {
          "components": [
            {
              "internalType": "address",
              "name": "tokenTransferLogic",
              "type": "address"
            },
            {
              "internalType": "address",
              "name": "textLogic",
              "type": "address"
            },
            {
              "internalType": "address",
              "name": "contractUpgradeLogic",
              "type": "address"
            },
            {
              "internalType": "address",
              "name": "createTokenLogic",
              "type": "address"
            }
          ],
          "indexed": false,
          "internalType": "struct ISharedDAOModel.Governor",
          "name": "oldImplementation",
          "type": "tuple"
        },
        {
          "components": [
            {
              "internalType": "address",
              "name": "tokenTransferLogic",
              "type": "address"
            },
            {
              "internalType": "address",
              "name": "textLogic",
              "type": "address"
            },
            {
              "internalType": "address",
              "name": "contractUpgradeLogic",
              "type": "address"
            },
            {
              "internalType": "address",
              "name": "createTokenLogic",
              "type": "address"
            }
          ],
          "indexed": false,
          "internalType": "struct ISharedDAOModel.Governor",
          "name": "newImplementation",
          "type": "tuple"
        },
        {
          "indexed": false,
          "internalType": "string",
          "name": "name",
          "type": "string"
        }
      ],
      "name": "GovernorLogicUpdated",
      "type": "event"
    },
    {
      "anonymous": false,
      "inputs": [
        {
          "indexed": false,
          "internalType": "uint8",
          "name": "version",
          "type": "uint8"
        }
      ],
      "name": "Initialized",
      "type": "event"
    },
    {
      "anonymous": false,
      "inputs": [
        {
          "indexed": true,
          "internalType": "address",
          "name": "oldImplementation",
          "type": "address"
        },
        {
          "indexed": true,
          "internalType": "address",
          "name": "newImplementation",
          "type": "address"
        },
        {
          "indexed": false,
          "internalType": "string",
          "name": "name",
          "type": "string"
        }
      ],
      "name": "LogicUpdated",
      "type": "event"
    },
    {
      "anonymous": false,
      "inputs": [
        {
          "indexed": true,
          "internalType": "address",
          "name": "previousOwner",
          "type": "address"
        },
        {
          "indexed": true,
          "internalType": "address",
          "name": "newOwner",
          "type": "address"
        }
      ],
      "name": "OwnershipTransferred",
      "type": "event"
    },
    {
      "inputs": [
        {
          "components": [
            {
              "internalType": "address",
              "name": "admin",
              "type": "address"
            },
            {
              "internalType": "string",
              "name": "name",
              "type": "string"
            },
            {
              "internalType": "string",
              "name": "logoUrl",
              "type": "string"
            },
            {
              "internalType": "address",
              "name": "tokenAddress",
              "type": "address"
            },
            {
              "internalType": "uint256",
              "name": "quorumThreshold",
              "type": "uint256"
            },
            {
              "internalType": "uint256",
              "name": "votingDelay",
              "type": "uint256"
            },
            {
              "internalType": "uint256",
              "name": "votingPeriod",
              "type": "uint256"
            },
            {
              "internalType": "bool",
              "name": "isPrivate",
              "type": "bool"
            },
            {
              "internalType": "string",
              "name": "description",
              "type": "string"
            },
            {
              "internalType": "string[]",
              "name": "webLinks",
              "type": "string[]"
            }
          ],
          "internalType": "struct ISharedDAOModel.CreateDAOInputs",
          "name": "_createDAOInputs",
          "type": "tuple"
        }
      ],
      "name": "createDAO",
      "outputs": [
        {
          "internalType": "address",
          "name": "",
          "type": "address"
        }
      ],
      "stateMutability": "nonpayable",
      "type": "function"
    },
    {
      "inputs": [],
      "name": "getDAOs",
      "outputs": [
        {
          "internalType": "address[]",
          "name": "",
          "type": "address[]"
        }
      ],
      "stateMutability": "view",
      "type": "function"
    },
    {
      "inputs": [],
      "name": "getHederaServiceVersion",
      "outputs": [
        {
          "internalType": "contract IHederaService",
          "name": "",
          "type": "address"
        }
      ],
      "stateMutability": "view",
      "type": "function"
    },
    {
      "inputs": [],
      "name": "getTokenHolderFactoryAddress",
      "outputs": [
        {
          "internalType": "address",
          "name": "",
          "type": "address"
        }
      ],
      "stateMutability": "view",
      "type": "function"
    },
    {
      "inputs": [
        {
          "internalType": "address",
          "name": "_proxyAdmin",
          "type": "address"
        },
        {
          "internalType": "contract IHederaService",
          "name": "_hederaService",
          "type": "address"
        },
        {
          "internalType": "contract FTDAO",
          "name": "_daoLogic",
          "type": "address"
        },
        {
          "internalType": "contract ITokenHolderFactory",
          "name": "_tokenHolderFactory",
          "type": "address"
        },
        {
          "components": [
            {
              "internalType": "address",
              "name": "tokenTransferLogic",
              "type": "address"
            },
            {
              "internalType": "address",
              "name": "textLogic",
              "type": "address"
            },
            {
              "internalType": "address",
              "name": "contractUpgradeLogic",
              "type": "address"
            },
            {
              "internalType": "address",
              "name": "createTokenLogic",
              "type": "address"
            }
          ],
          "internalType": "struct ISharedDAOModel.Governor",
          "name": "_governors",
          "type": "tuple"
        }
      ],
      "name": "initialize",
      "outputs": [],
      "stateMutability": "nonpayable",
      "type": "function"
    },
    {
      "inputs": [],
      "name": "owner",
      "outputs": [
        {
          "internalType": "address",
          "name": "",
          "type": "address"
        }
      ],
      "stateMutability": "view",
      "type": "function"
    },
    {
      "inputs": [],
      "name": "renounceOwnership",
      "outputs": [],
      "stateMutability": "nonpayable",
      "type": "function"
    },
    {
      "inputs": [
        {
          "internalType": "address",
          "name": "newOwner",
          "type": "address"
        }
      ],
      "name": "transferOwnership",
      "outputs": [],
      "stateMutability": "nonpayable",
      "type": "function"
    },
    {
      "inputs": [
        {
          "internalType": "contract FTDAO",
          "name": "_newImpl",
          "type": "address"
        }
      ],
      "name": "upgradeFTDAOLogicImplementation",
      "outputs": [],
      "stateMutability": "nonpayable",
      "type": "function"
    },
    {
      "inputs": [
        {
          "components": [
            {
              "internalType": "address",
              "name": "tokenTransferLogic",
              "type": "address"
            },
            {
              "internalType": "address",
              "name": "textLogic",
              "type": "address"
            },
            {
              "internalType": "address",
              "name": "contractUpgradeLogic",
              "type": "address"
            },
            {
              "internalType": "address",
              "name": "createTokenLogic",
              "type": "address"
            }
          ],
          "internalType": "struct ISharedDAOModel.Governor",
          "name": "_newImpl",
          "type": "tuple"
        }
      ],
      "name": "upgradeGovernorsImplementation",
      "outputs": [],
      "stateMutability": "nonpayable",
      "type": "function"
    },
    {
      "inputs": [
        {
          "internalType": "contract IHederaService",
          "name": "newHederaService",
          "type": "address"
        }
      ],
      "name": "upgradeHederaService",
      "outputs": [],
      "stateMutability": "nonpayable",
      "type": "function"
    },
    {
      "inputs": [
        {
          "internalType": "contract ITokenHolderFactory",
          "name": "_newTokenHolderFactory",
          "type": "address"
        }
      ],
      "name": "upgradeTokenHolderFactory",
      "outputs": [],
      "stateMutability": "nonpayable",
      "type": "function"
    }
  ],
  "bytecode": "0x608060405234801561001057600080fd5b50612551806100206000396000f3fe60806040523480156200001157600080fd5b5060043610620000b25760003560e01c80633187860114620000b75780633f2de1aa14620000d0578063415cc7dd14620000ff5780636dab6f751462000118578063715018a6146200012a57806374d4443414620001345780638da5cb5b146200014b5780639edd88eb1462000155578063a860b895146200016c578063d26d681f1462000183578063f2fde38b146200019a578063f7f49f0c14620001b1575b600080fd5b620000ce620000c836600462000d4c565b620001bb565b005b620000e7620000e136600462000f2b565b62000267565b604051620000f691906200107f565b60405180910390f35b620001096200050e565b604051620000f6919062001093565b6066546001600160a01b0316620000e7565b620000ce62000572565b620000ce6200014536600462000d4c565b6200058a565b620000e76200063a565b620000ce6200016636600462001176565b62000649565b620000ce6200017d366004620011f0565b6200090d565b620000ce6200019436600462000d4c565b620009e2565b620000ce620001ab36600462000d4c565b62000a0e565b620000e762000a8d565b6067546001600160a01b03163314620001f257604051633b12922f60e11b8152600401620001e9906200120f565b60405180910390fd5b6069546040805180820182526005815264465444414f60d81b602082015290516001600160a01b03808516931691600080516020620024dc833981519152916200023d919062001288565b60405180910390a3606980546001600160a01b0319166001600160a01b0392909216919091179055565b60608101516000906001600160a01b0316620002d15760405163d647364f60e01b815260206004820152602160248201527f44414f466163746f72793a20746f6b656e2061646472657373206973207a65726044820152606f60f81b6064820152608401620001e9565b8160c00151600003620003325760405163d647364f60e01b815260206004820152602160248201527f44414f466163746f72793a20766f74696e6720706572696f64206973207a65726044820152606f60f81b6064820152608401620001e9565b606a54606083015160405163d7fbaa1960e01b81526000926001600160a01b03169163d7fbaa19916200036991906004016200107f565b6020604051808303816000875af115801562000389573d6000803e3d6000fd5b505050506040513d601f19601f82011682018060405250810190620003af91906200129d565b90506000620003bf848362000ace565b90506000819050600080600080846001600160a01b03166352323f016040518163ffffffff1660e01b8152600401608060405180830381865afa1580156200040b573d6000803e3d6000fd5b505050506040513d601f19601f82011682018060405250810190620004319190620012bd565b93509350935093508860e001516200048f57606880546001810182556000919091527fa2153420d844928b4421650203c77babc8b33d7f2e7b450e2966db0c220977530180546001600160a01b0319166001600160a01b0388161790555b6200049962000d01565b6001600160a01b03808616825283811660408084019190915285821660208401529083166060830152517fccb0eca5b6e225a4f5feea11b6879c7ba708cbefd3d63ce15248c4df396663be90620004f890899084908c908f9062001485565b60405180910390a1509498975050505050505050565b606060688054806020026020016040519081016040528092919081815260200182805480156200056857602002820191906000526020600020905b81546001600160a01b0316815260019091019060200180831162000549575b5050505050905090565b6200057c62000b8b565b62000588600062000bee565b565b6067546001600160a01b03163314620005b857604051633b12922f60e11b8152600401620001e9906200120f565b606a546040805180820182526012815271546f6b656e486f6c646572466163746f727960701b602082015290516001600160a01b03808516931691600080516020620024dc8339815191529162000610919062001288565b60405180910390a3606a80546001600160a01b0319166001600160a01b0392909216919091179055565b6033546001600160a01b031690565b600054610100900460ff16158080156200066a5750600054600160ff909116105b80620006865750303b15801562000686575060005460ff166001145b620006eb5760405162461bcd60e51b815260206004820152602e60248201527f496e697469616c697a61626c653a20636f6e747261637420697320616c72656160448201526d191e481a5b9a5d1a585b1a5e995960921b6064820152608401620001e9565b6000805460ff1916600117905580156200070f576000805461ff0019166101001790555b606580546001600160a01b031916331790556200072b62000c40565b606780546001600160a01b03199081166001600160a01b0389811691909117909255606680548216888416179055606980548216878416908117909155606a805483168785161790558451606b80548416918516919091179055602080860151606c80548516918616919091179055604080870151606d805486169187169190911790556060870151606e8054909516951694909417909255825180840184526005815264465444414f60d81b928101929092529151600091600080516020620024dc8339815191529162000801919062001288565b60405180910390a3606a546040805180820182526012815271546f6b656e486f6c646572466163746f727960701b602082015290516001600160a01b0390921691600091600080516020620024dc8339815191529162000862919062001288565b60405180910390a36200087462000d01565b6040805180820182526009815268476f7665726e6f727360b81b60208201529051600080516020620024fc83398151915291620008b59184918791620014c3565b60405180910390a150801562000905576000805461ff0019169055604051600181527f7f26b83ff96e1f2b6a682f133852f6798a09c465da95921460cefb38474024989060200160405180910390a15b505050505050565b6067546001600160a01b031633146200093b57604051633b12922f60e11b8152600401620001e9906200120f565b6040805180820182526009815268476f7665726e6f727360b81b60208201529051600080516020620024fc833981519152916200097d91606b9185916200152e565b60405180910390a18051606b80546001600160a01b03199081166001600160a01b03938416179091556020830151606c805483169184169190911790556040830151606d80548316918416919091179055606090920151606e80549093169116179055565b620009ec62000b8b565b606680546001600160a01b0319166001600160a01b0392909216919091179055565b62000a1862000b8b565b6001600160a01b03811662000a7f5760405162461bcd60e51b815260206004820152602660248201527f4f776e61626c653a206e6577206f776e657220697320746865207a65726f206160448201526564647265737360d01b6064820152608401620001e9565b62000a8a8162000bee565b50565b6067546000906001600160a01b0316331462000abe57604051633b12922f60e11b8152600401620001e9906200120f565b50606a546001600160a01b031690565b606954600090819062000aea906001600160a01b031662000c74565b604080516080810182526066546001600160a01b03908116825286811660208301526067548116828401526065548116606083015291516367154d2360e11b8152929350919083169063ce2a9a469062000b4e908890606b9086906004016200153f565b600060405180830381600087803b15801562000b6957600080fd5b505af115801562000b7e573d6000803e3d6000fd5b5093979650505050505050565b3362000b966200063a565b6001600160a01b031614620005885760405162461bcd60e51b815260206004820181905260248201527f4f776e61626c653a2063616c6c6572206973206e6f7420746865206f776e65726044820152606401620001e9565b603380546001600160a01b038381166001600160a01b0319831681179093556040519116919082907f8be0079c531659141344cd1fd0a4f28419497f9722a3daafe3b4186f6b6457e090600090a35050565b600054610100900460ff1662000c6a5760405162461bcd60e51b8152600401620001e990620015a7565b6200058862000ccc565b60675460405160009160609184916001600160a01b031690839062000c999062000d28565b62000ca793929190620015f2565b604051809103906000f08015801562000cc4573d6000803e3d6000fd5b509392505050565b600054610100900460ff1662000cf65760405162461bcd60e51b8152600401620001e990620015a7565b620005883362000bee565b60408051608081018252600080825260208201819052918101829052606081019190915290565b610eb2806200162a83390190565b6001600160a01b038116811462000a8a57600080fd5b60006020828403121562000d5f57600080fd5b813562000d6c8162000d36565b9392505050565b634e487b7160e01b600052604160045260246000fd5b60405161014081016001600160401b038111828210171562000daf5762000daf62000d73565b60405290565b604051601f8201601f191681016001600160401b038111828210171562000de05762000de062000d73565b604052919050565b803562000df58162000d36565b919050565b600082601f83011262000e0c57600080fd5b81356001600160401b0381111562000e285762000e2862000d73565b62000e3d601f8201601f191660200162000db5565b81815284602083860101111562000e5357600080fd5b816020850160208301376000918101602001919091529392505050565b8035801515811462000df557600080fd5b600082601f83011262000e9357600080fd5b813560206001600160401b038083111562000eb25762000eb262000d73565b8260051b62000ec383820162000db5565b938452858101830193838101908886111562000ede57600080fd5b84880192505b8583101562000f1f5782358481111562000efe5760008081fd5b62000f0e8a87838c010162000dfa565b835250918401919084019062000ee4565b98975050505050505050565b60006020828403121562000f3e57600080fd5b81356001600160401b038082111562000f5657600080fd5b90830190610140828603121562000f6c57600080fd5b62000f7662000d89565b62000f818362000de8565b815260208301358281111562000f9657600080fd5b62000fa48782860162000dfa565b60208301525060408301358281111562000fbd57600080fd5b62000fcb8782860162000dfa565b60408301525062000fdf6060840162000de8565b60608201526080830135608082015260a083013560a082015260c083013560c08201526200101060e0840162000e70565b60e082015261010080840135838111156200102a57600080fd5b620010388882870162000dfa565b82840152505061012080840135838111156200105357600080fd5b620010618882870162000e81565b918301919091525095945050505050565b6001600160a01b03169052565b6001600160a01b0391909116815260200190565b6020808252825182820181905260009190848201906040850190845b81811015620010d65783516001600160a01b031683529284019291840191600101620010af565b50909695505050505050565b600060808284031215620010f557600080fd5b604051608081016001600160401b03811182821017156200111a576200111a62000d73565b60405290508082356200112d8162000d36565b815260208301356200113f8162000d36565b60208201526040830135620011548162000d36565b60408201526060830135620011698162000d36565b6060919091015292915050565b600080600080600061010086880312156200119057600080fd5b85356200119d8162000d36565b94506020860135620011af8162000d36565b93506040860135620011c18162000d36565b92506060860135620011d38162000d36565b9150620011e48760808801620010e2565b90509295509295909350565b6000608082840312156200120357600080fd5b62000d6c8383620010e2565b602080825260179082015276111053d19858dd1bdc9e4e88185d5d1a0819985a5b1959604a1b604082015260600190565b6000815180845260005b8181101562001268576020818501810151868301820152016200124a565b506000602082860101526020601f19601f83011685010191505092915050565b60208152600062000d6c602083018462001240565b600060208284031215620012b057600080fd5b815162000d6c8162000d36565b60008060008060808587031215620012d457600080fd5b8451620012e18162000d36565b6020860151909450620012f48162000d36565b6040860151909350620013078162000d36565b60608601519092506200131a8162000d36565b939692955090935050565b80516001600160a01b03908116835260208083015182169084015260408083015182169084015260609182015116910152565b600081518084526020808501808196508360051b8101915082860160005b85811015620013a45782840389526200139184835162001240565b9885019893509084019060010162001376565b5091979650505050505050565b6000610140620013c384845162001072565b6020830151816020860152620013dc8286018262001240565b91505060408301518482036040860152620013f8828262001240565b91505060608301516200140f606086018262001072565b506080830151608085015260a083015160a085015260c083015160c085015260e08301516200144260e086018215159052565b5061010080840151858303828701526200145d838262001240565b9250505061012080840151858303828701526200147b838262001358565b9695505050505050565b6001600160a01b038581168252600090620014a4602084018762001325565b80851660a08401525060e060c08301526200147b60e0830184620013b1565b6000610120620014d4838762001325565b620014e3608084018662001325565b806101008401526200147b8184018562001240565b80546001600160a01b03908116835260018201548116602084015260028201548116604084015260039091015416606090910152565b6000610120620014d48387620014f8565b60006101208083526200155581840187620013b1565b915050620015676020830185620014f8565b82516001600160a01b0390811660a08401526020840151811660c08401526040840151811660e08401526060909301519092166101009091015292915050565b6020808252602b908201527f496e697469616c697a61626c653a20636f6e7472616374206973206e6f74206960408201526a6e697469616c697a696e6760a81b606082015260800190565b6001600160a01b03848116825283166020820152606060408201819052600090620016209083018462001240565b9594505050505056fe608060405260405162000eb238038062000eb2833981016040819052620000269162000497565b828162000036828260006200004d565b50620000449050826200008a565b505050620005ca565b6200005883620000e5565b600082511180620000665750805b1562000085576200008383836200012760201b620001691760201c565b505b505050565b7f7e644d79422f17c01e4894b5f4f588d331ebfa28653d42ae832dc59e38c9798f620000b562000156565b604080516001600160a01b03928316815291841660208301520160405180910390a1620000e2816200018f565b50565b620000f08162000244565b6040516001600160a01b038216907fbc7cd75a20ee27fd9adebab32041f755214dbc6bffa90cc0225b39da2e5c2d3b90600090a250565b60606200014f838360405180606001604052806027815260200162000e8b60279139620002f8565b9392505050565b60006200018060008051602062000e6b83398151915260001b6200037760201b620001951760201c565b546001600160a01b0316919050565b6001600160a01b038116620001fa5760405162461bcd60e51b815260206004820152602660248201527f455243313936373a206e65772061646d696e20697320746865207a65726f206160448201526564647265737360d01b60648201526084015b60405180910390fd5b806200022360008051602062000e6b83398151915260001b6200037760201b620001951760201c565b80546001600160a01b0319166001600160a01b039290921691909117905550565b6200025a816200037a60201b620001981760201c565b620002be5760405162461bcd60e51b815260206004820152602d60248201527f455243313936373a206e657720696d706c656d656e746174696f6e206973206e60448201526c1bdd08184818dbdb9d1c9858dd609a1b6064820152608401620001f1565b80620002237f360894a13ba1a3210667c828492db98dca3e2076cc3735a920a3ca505d382bbc60001b6200037760201b620001951760201c565b6060600080856001600160a01b03168560405162000317919062000577565b600060405180830381855af49150503d806000811462000354576040519150601f19603f3d011682016040523d82523d6000602084013e62000359565b606091505b5090925090506200036d8683838762000389565b9695505050505050565b90565b6001600160a01b03163b151590565b60608315620003fd578251600003620003f557620003a7856200037a565b620003f55760405162461bcd60e51b815260206004820152601d60248201527f416464726573733a2063616c6c20746f206e6f6e2d636f6e74726163740000006044820152606401620001f1565b508162000409565b62000409838362000411565b949350505050565b815115620004225781518083602001fd5b8060405162461bcd60e51b8152600401620001f1919062000595565b80516001600160a01b03811681146200045657600080fd5b919050565b634e487b7160e01b600052604160045260246000fd5b60005b838110156200048e57818101518382015260200162000474565b50506000910152565b600080600060608486031215620004ad57600080fd5b620004b8846200043e565b9250620004c8602085016200043e565b60408501519092506001600160401b0380821115620004e657600080fd5b818601915086601f830112620004fb57600080fd5b8151818111156200051057620005106200045b565b604051601f8201601f19908116603f011681019083821181831017156200053b576200053b6200045b565b816040528281528960208487010111156200055557600080fd5b6200056883602083016020880162000471565b80955050505050509250925092565b600082516200058b81846020870162000471565b9190910192915050565b6020815260008251806020840152620005b681604085016020870162000471565b601f01601f19169190910160400192915050565b61089180620005da6000396000f3fe60806040523661001357610011610017565b005b6100115b61001f6101a7565b6001600160a01b0316330361015f5760606001600160e01b0319600035166364d3180d60e11b810161005a576100536101c8565b9150610157565b63587086bd60e11b6001600160e01b031982160161007a5761005361021f565b63070d7c6960e41b6001600160e01b031982160161009a57610053610265565b621eb96f60e61b6001600160e01b03198216016100b957610053610296565b63a39f25e560e01b6001600160e01b03198216016100d9576100536102d6565b60405162461bcd60e51b815260206004820152604260248201527f5472616e73706172656e745570677261646561626c6550726f78793a2061646d60448201527f696e2063616e6e6f742066616c6c6261636b20746f2070726f78792074617267606482015261195d60f21b608482015260a4015b60405180910390fd5b815160208301f35b6101676102ea565b565b606061018e8383604051806060016040528060278152602001610835602791396102fa565b9392505050565b90565b6001600160a01b03163b151590565b60006000805160206107f58339815191525b546001600160a01b0316919050565b60606101d2610372565b60006101e13660048184610649565b8101906101ee919061068f565b905061020b8160405180602001604052806000815250600061037d565b505060408051602081019091526000815290565b60606000806102313660048184610649565b81019061023e91906106c0565b9150915061024e8282600161037d565b604051806020016040528060008152509250505090565b606061026f610372565b600061027e3660048184610649565b81019061028b919061068f565b905061020b816103a9565b60606102a0610372565b60006102aa6101a7565b604080516001600160a01b03831660208201529192500160405160208183030381529060405291505090565b60606102e0610372565b60006102aa610400565b6101676102f5610400565b61040f565b6060600080856001600160a01b03168560405161031791906107a5565b600060405180830381855af49150503d8060008114610352576040519150601f19603f3d011682016040523d82523d6000602084013e610357565b606091505b509150915061036886838387610433565b9695505050505050565b341561016757600080fd5b610386836104b2565b6000825111806103935750805b156103a4576103a28383610169565b505b505050565b7f7e644d79422f17c01e4894b5f4f588d331ebfa28653d42ae832dc59e38c9798f6103d26101a7565b604080516001600160a01b03928316815291841660208301520160405180910390a16103fd816104f2565b50565b600061040a610589565b905090565b3660008037600080366000845af43d6000803e80801561042e573d6000f35b3d6000fd5b606083156104a05782516000036104995761044d85610198565b6104995760405162461bcd60e51b815260206004820152601d60248201527f416464726573733a2063616c6c20746f206e6f6e2d636f6e7472616374000000604482015260640161014e565b50816104aa565b6104aa838361059f565b949350505050565b6104bb816105c9565b6040516001600160a01b038216907fbc7cd75a20ee27fd9adebab32041f755214dbc6bffa90cc0225b39da2e5c2d3b90600090a250565b6001600160a01b0381166105575760405162461bcd60e51b815260206004820152602660248201527f455243313936373a206e65772061646d696e20697320746865207a65726f206160448201526564647265737360d01b606482015260840161014e565b806000805160206107f58339815191525b80546001600160a01b0319166001600160a01b039290921691909117905550565b60006000805160206108158339815191526101b9565b8151156105af5781518083602001fd5b8060405162461bcd60e51b815260040161014e91906107c1565b6105d281610198565b6106345760405162461bcd60e51b815260206004820152602d60248201527f455243313936373a206e657720696d706c656d656e746174696f6e206973206e60448201526c1bdd08184818dbdb9d1c9858dd609a1b606482015260840161014e565b80600080516020610815833981519152610568565b6000808585111561065957600080fd5b8386111561066657600080fd5b5050820193919092039150565b80356001600160a01b038116811461068a57600080fd5b919050565b6000602082840312156106a157600080fd5b61018e82610673565b634e487b7160e01b600052604160045260246000fd5b600080604083850312156106d357600080fd5b6106dc83610673565b915060208301356001600160401b03808211156106f857600080fd5b818501915085601f83011261070c57600080fd5b81358181111561071e5761071e6106aa565b604051601f8201601f19908116603f01168101908382118183101715610746576107466106aa565b8160405282815288602084870101111561075f57600080fd5b8260208601602083013760006020848301015280955050505050509250929050565b60005b8381101561079c578181015183820152602001610784565b50506000910152565b600082516107b7818460208701610781565b9190910192915050565b60208152600082518060208401526107e0816040850160208701610781565b601f01601f1916919091016040019291505056feb53127684a568b3173ae13b9f8a6016e243e63b6e8ee1178d6a717850b5d6103360894a13ba1a3210667c828492db98dca3e2076cc3735a920a3ca505d382bbc416464726573733a206c6f772d6c6576656c2064656c65676174652063616c6c206661696c6564a2646970667358221220620b02c16977e4bc46dc8e126676654738ae0c6dcb3ade55e68906b6b7d90c2164736f6c63430008120033b53127684a568b3173ae13b9f8a6016e243e63b6e8ee1178d6a717850b5d6103416464726573733a206c6f772d6c6576656c2064656c65676174652063616c6c206661696c6564cf9d4a2ff924c5f3553e3c8485e6bc24fde822593d2c3d78c8fabaada123f8f6429e3348bcf9d2e60a6a73d63d94bf646cbe299ed56df8317bee87dcd030a666a2646970667358221220094651ac5c362bd084d5945364ecd2b2913f8f0b4d7d76bdeda174aedde8b2f564736f6c63430008120033",
  "linkReferences": {},
  "deployedLinkReferences": {}
}