{
  "_format": "hh-sol-artifact-1",
  "contractName": "FTDAO",
  "sourceName": "contracts/dao/FTDAO.sol",
  "abi": [
    {
      "inputs": [
        {
          "internalType": "string",
          "name": "message",
          "type": "string"
        }
      ],
      "name": "InvalidInput",
      "type": "error"
    },
    {
      "anonymous": false,
      "inputs": [
        {
          "components": [
            {
              "internalType": "string",
              "name": "name",
              "type": "string"
            },
            {
              "internalType": "address",
              "name": "admin",
              "type": "address"
            },
            {
              "internalType": "string",
              "name": "logoUrl",
              "type": "string"
            },
            {
              "internalType": "string",
              "name": "description",
              "type": "string"
            },
            {
              "internalType": "string[]",
              "name": "webLinks",
              "type": "string[]"
            }
          ],
          "indexed": false,
          "internalType": "struct BaseDAO.DAOInfo",
          "name": "daoInfo",
          "type": "tuple"
        }
      ],
      "name": "DAOInfoUpdated",
      "type": "event"
    },
    {
      "anonymous": false,
      "inputs": [
        {
          "components": [
            {
              "internalType": "address",
              "name": "tokenTransferLogic",
              "type": "address"
            },
            {
              "internalType": "address",
              "name": "textLogic",
              "type": "address"
            },
            {
              "internalType": "address",
              "name": "contractUpgradeLogic",
              "type": "address"
            },
            {
              "internalType": "address",
              "name": "createTokenLogic",
              "type": "address"
            }
          ],
          "indexed": false,
          "internalType": "struct ISharedDAOModel.Governor",
          "name": "oldImplementation",
          "type": "tuple"
        },
        {
          "components": [
            {
              "internalType": "address",
              "name": "tokenTransferLogic",
              "type": "address"
            },
            {
              "internalType": "address",
              "name": "textLogic",
              "type": "address"
            },
            {
              "internalType": "address",
              "name": "contractUpgradeLogic",
              "type": "address"
            },
            {
              "internalType": "address",
              "name": "createTokenLogic",
              "type": "address"
            }
          ],
          "indexed": false,
          "internalType": "struct ISharedDAOModel.Governor",
          "name": "newImplementation",
          "type": "tuple"
        },
        {
          "indexed": false,
          "internalType": "string",
          "name": "name",
          "type": "string"
        }
      ],
      "name": "GovernorLogicUpdated",
      "type": "event"
    },
    {
      "anonymous": false,
      "inputs": [
        {
          "indexed": false,
          "internalType": "uint8",
          "name": "version",
          "type": "uint8"
        }
      ],
      "name": "Initialized",
      "type": "event"
    },
    {
      "anonymous": false,
      "inputs": [
        {
          "indexed": true,
          "internalType": "bytes32",
          "name": "role",
          "type": "bytes32"
        },
        {
          "indexed": true,
          "internalType": "bytes32",
          "name": "previousAdminRole",
          "type": "bytes32"
        },
        {
          "indexed": true,
          "internalType": "bytes32",
          "name": "newAdminRole",
          "type": "bytes32"
        }
      ],
      "name": "RoleAdminChanged",
      "type": "event"
    },
    {
      "anonymous": false,
      "inputs": [
        {
          "indexed": true,
          "internalType": "bytes32",
          "name": "role",
          "type": "bytes32"
        },
        {
          "indexed": true,
          "internalType": "address",
          "name": "account",
          "type": "address"
        },
        {
          "indexed": true,
          "internalType": "address",
          "name": "sender",
          "type": "address"
        }
      ],
      "name": "RoleGranted",
      "type": "event"
    },
    {
      "anonymous": false,
      "inputs": [
        {
          "indexed": true,
          "internalType": "bytes32",
          "name": "role",
          "type": "bytes32"
        },
        {
          "indexed": true,
          "internalType": "address",
          "name": "account",
          "type": "address"
        },
        {
          "indexed": true,
          "internalType": "address",
          "name": "sender",
          "type": "address"
        }
      ],
      "name": "RoleRevoked",
      "type": "event"
    },
    {
      "inputs": [],
      "name": "DAO_ADMIN",
      "outputs": [
        {
          "internalType": "bytes32",
          "name": "",
          "type": "bytes32"
        }
      ],
      "stateMutability": "view",
      "type": "function"
    },
    {
      "inputs": [],
      "name": "DEFAULT_ADMIN_ROLE",
      "outputs": [
        {
          "internalType": "bytes32",
          "name": "",
          "type": "bytes32"
        }
      ],
      "stateMutability": "view",
      "type": "function"
    },
    {
      "inputs": [
        {
          "internalType": "address",
          "name": "_admin",
          "type": "address"
        },
        {
          "internalType": "string",
          "name": "_name",
          "type": "string"
        },
        {
          "internalType": "string",
          "name": "_logoUrl",
          "type": "string"
        },
        {
          "internalType": "string",
          "name": "_description",
          "type": "string"
        },
        {
          "internalType": "string[]",
          "name": "_webLinks",
          "type": "string[]"
        }
      ],
      "name": "__BaseDAO_init",
      "outputs": [],
      "stateMutability": "nonpayable",
      "type": "function"
    },
    {
      "inputs": [
        {
          "internalType": "string",
          "name": "_title",
          "type": "string"
        },
        {
          "internalType": "string",
          "name": "_description",
          "type": "string"
        },
        {
          "internalType": "string",
          "name": "_linkToDiscussion",
          "type": "string"
        },
        {
          "internalType": "address payable",
          "name": "_proxyContract",
          "type": "address"
        },
        {
          "internalType": "address",
          "name": "_contractToUpgrade",
          "type": "address"
        },
        {
          "internalType": "uint256",
          "name": "nftTokenSerialId",
          "type": "uint256"
        }
      ],
      "name": "createContractUpgradeProposal",
      "outputs": [
        {
          "internalType": "uint256",
          "name": "",
          "type": "uint256"
        }
      ],
      "stateMutability": "nonpayable",
      "type": "function"
    },
    {
      "inputs": [
        {
          "internalType": "string",
          "name": "_title",
          "type": "string"
        },
        {
          "internalType": "string",
          "name": "_description",
          "type": "string"
        },
        {
          "internalType": "string",
          "name": "_linkToDiscussion",
          "type": "string"
        },
        {
          "internalType": "address",
          "name": "_to",
          "type": "address"
        },
        {
          "internalType": "uint256",
          "name": "_amount",
          "type": "uint256"
        },
        {
          "internalType": "uint256",
          "name": "_nftTokenSerialId",
          "type": "uint256"
        }
      ],
      "name": "createHBarTransferProposal",
      "outputs": [
        {
          "internalType": "uint256",
          "name": "",
          "type": "uint256"
        }
      ],
      "stateMutability": "nonpayable",
      "type": "function"
    },
    {
      "inputs": [
        {
          "internalType": "string",
          "name": "_title",
          "type": "string"
        },
        {
          "internalType": "string",
          "name": "_description",
          "type": "string"
        },
        {
          "internalType": "string",
          "name": "_linkToDiscussion",
          "type": "string"
        },
        {
          "internalType": "uint256",
          "name": "nftTokenSerialId",
          "type": "uint256"
        }
      ],
      "name": "createTextProposal",
      "outputs": [
        {
          "internalType": "uint256",
          "name": "",
          "type": "uint256"
        }
      ],
      "stateMutability": "nonpayable",
      "type": "function"
    },
    {
      "inputs": [
        {
          "internalType": "string",
          "name": "_title",
          "type": "string"
        },
        {
          "internalType": "string",
          "name": "_description",
          "type": "string"
        },
        {
          "internalType": "string",
          "name": "_linkToDiscussion",
          "type": "string"
        },
        {
          "internalType": "address",
          "name": "_token",
          "type": "address"
        },
        {
          "internalType": "uint256",
          "name": "nftTokenSerialId",
          "type": "uint256"
        }
      ],
      "name": "createTokenAssociateProposal",
      "outputs": [
        {
          "internalType": "uint256",
          "name": "",
          "type": "uint256"
        }
      ],
      "stateMutability": "nonpayable",
      "type": "function"
    },
    {
      "inputs": [
        {
          "internalType": "string",
          "name": "title",
          "type": "string"
        },
        {
          "internalType": "string",
          "name": "description",
          "type": "string"
        },
        {
          "internalType": "string",
          "name": "linkToDiscussion",
          "type": "string"
        },
        {
          "internalType": "address",
          "name": "treasurer",
          "type": "address"
        },
        {
          "internalType": "string",
          "name": "tokenName",
          "type": "string"
        },
        {
          "internalType": "string",
          "name": "tokenSymbol",
          "type": "string"
        },
        {
          "internalType": "uint256",
          "name": "nftTokenSerialId",
          "type": "uint256"
        }
      ],
      "name": "createTokenCreateProposal",
      "outputs": [
        {
          "internalType": "uint256",
          "name": "",
          "type": "uint256"
        }
      ],
      "stateMutability": "nonpayable",
      "type": "function"
    },
    {
      "inputs": [
        {
          "internalType": "string",
          "name": "_title",
          "type": "string"
        },
        {
          "internalType": "string",
          "name": "_description",
          "type": "string"
        },
        {
          "internalType": "string",
          "name": "_linkToDiscussion",
          "type": "string"
        },
        {
          "internalType": "address",
          "name": "_transferToAccount",
          "type": "address"
        },
        {
          "internalType": "address",
          "name": "_tokenToTransfer",
          "type": "address"
        },
        {
          "internalType": "uint256",
          "name": "_transferTokenAmount",
          "type": "uint256"
        },
        {
          "internalType": "uint256",
          "name": "nftTokenSerialId",
          "type": "uint256"
        }
      ],
      "name": "createTokenTransferProposal",
      "outputs": [
        {
          "internalType": "uint256",
          "name": "",
          "type": "uint256"
        }
      ],
      "stateMutability": "nonpayable",
      "type": "function"
    },
    {
      "inputs": [],
      "name": "getContractUpgradeProposals",
      "outputs": [
        {
          "internalType": "uint256[]",
          "name": "",
          "type": "uint256[]"
        }
      ],
      "stateMutability": "view",
      "type": "function"
    },
    {
      "inputs": [],
      "name": "getDaoInfo",
      "outputs": [
        {
          "components": [
            {
              "internalType": "string",
              "name": "name",
              "type": "string"
            },
            {
              "internalType": "address",
              "name": "admin",
              "type": "address"
            },
            {
              "internalType": "string",
              "name": "logoUrl",
              "type": "string"
            },
            {
              "internalType": "string",
              "name": "description",
              "type": "string"
            },
            {
              "internalType": "string[]",
              "name": "webLinks",
              "type": "string[]"
            }
          ],
          "internalType": "struct BaseDAO.DAOInfo",
          "name": "",
          "type": "tuple"
        }
      ],
      "stateMutability": "view",
      "type": "function"
    },
    {
      "inputs": [],
      "name": "getGovernorContractAddresses",
      "outputs": [
        {
          "internalType": "address",
          "name": "",
          "type": "address"
        },
        {
          "internalType": "address",
          "name": "",
          "type": "address"
        },
        {
          "internalType": "address",
          "name": "",
          "type": "address"
        },
        {
          "internalType": "address",
          "name": "",
          "type": "address"
        }
      ],
      "stateMutability": "view",
      "type": "function"
    },
    {
      "inputs": [
        {
          "internalType": "bytes32",
          "name": "role",
          "type": "bytes32"
        }
      ],
      "name": "getRoleAdmin",
      "outputs": [
        {
          "internalType": "bytes32",
          "name": "",
          "type": "bytes32"
        }
      ],
      "stateMutability": "view",
      "type": "function"
    },
    {
      "inputs": [],
      "name": "getTextProposals",
      "outputs": [
        {
          "internalType": "uint256[]",
          "name": "",
          "type": "uint256[]"
        }
      ],
      "stateMutability": "view",
      "type": "function"
    },
    {
      "inputs": [],
      "name": "getTokenCreateProposals",
      "outputs": [
        {
          "internalType": "uint256[]",
          "name": "",
          "type": "uint256[]"
        }
      ],
      "stateMutability": "view",
      "type": "function"
    },
    {
      "inputs": [],
      "name": "getTokenTransferProposals",
      "outputs": [
        {
          "internalType": "uint256[]",
          "name": "",
          "type": "uint256[]"
        }
      ],
      "stateMutability": "view",
      "type": "function"
    },
    {
      "inputs": [
        {
          "internalType": "bytes32",
          "name": "role",
          "type": "bytes32"
        },
        {
          "internalType": "address",
          "name": "account",
          "type": "address"
        }
      ],
      "name": "grantRole",
      "outputs": [],
      "stateMutability": "nonpayable",
      "type": "function"
    },
    {
      "inputs": [
        {
          "internalType": "bytes32",
          "name": "role",
          "type": "bytes32"
        },
        {
          "internalType": "address",
          "name": "account",
          "type": "address"
        }
      ],
      "name": "hasRole",
      "outputs": [
        {
          "internalType": "bool",
          "name": "",
          "type": "bool"
        }
      ],
      "stateMutability": "view",
      "type": "function"
    },
    {
      "inputs": [
        {
          "components": [
            {
              "internalType": "address",
              "name": "admin",
              "type": "address"
            },
            {
              "internalType": "string",
              "name": "name",
              "type": "string"
            },
            {
              "internalType": "string",
              "name": "logoUrl",
              "type": "string"
            },
            {
              "internalType": "address",
              "name": "tokenAddress",
              "type": "address"
            },
            {
              "internalType": "uint256",
              "name": "quorumThreshold",
              "type": "uint256"
            },
            {
              "internalType": "uint256",
              "name": "votingDelay",
              "type": "uint256"
            },
            {
              "internalType": "uint256",
              "name": "votingPeriod",
              "type": "uint256"
            },
            {
              "internalType": "bool",
              "name": "isPrivate",
              "type": "bool"
            },
            {
              "internalType": "string",
              "name": "description",
              "type": "string"
            },
            {
              "internalType": "string[]",
              "name": "webLinks",
              "type": "string[]"
            }
          ],
          "internalType": "struct ISharedDAOModel.CreateDAOInputs",
          "name": "inputs",
          "type": "tuple"
        },
        {
          "components": [
            {
              "internalType": "address",
              "name": "tokenTransferLogic",
              "type": "address"
            },
            {
              "internalType": "address",
              "name": "textLogic",
              "type": "address"
            },
            {
              "internalType": "address",
              "name": "contractUpgradeLogic",
              "type": "address"
            },
            {
              "internalType": "address",
              "name": "createTokenLogic",
              "type": "address"
            }
          ],
          "internalType": "struct ISharedDAOModel.Governor",
          "name": "governor",
          "type": "tuple"
        },
        {
          "components": [
            {
              "internalType": "contract IHederaService",
              "name": "hederaService",
              "type": "address"
            },
            {
              "internalType": "contract ITokenHolder",
              "name": "iTokenHolder",
              "type": "address"
            }
          ],
          "internalType": "struct ISharedDAOModel.Common",
          "name": "common",
          "type": "tuple"
        },
        {
          "internalType": "contract ISystemRoleBasedAccess",
          "name": "_iSystemRoleBasedAccess",
          "type": "address"
        }
      ],
      "name": "initialize",
      "outputs": [],
      "stateMutability": "nonpayable",
      "type": "function"
    },
    {
      "inputs": [
        {
          "internalType": "bytes32",
          "name": "role",
          "type": "bytes32"
        },
        {
          "internalType": "address",
          "name": "account",
          "type": "address"
        }
      ],
      "name": "renounceRole",
      "outputs": [],
      "stateMutability": "nonpayable",
      "type": "function"
    },
    {
      "inputs": [
        {
          "internalType": "bytes32",
          "name": "role",
          "type": "bytes32"
        },
        {
          "internalType": "address",
          "name": "account",
          "type": "address"
        }
      ],
      "name": "revokeRole",
      "outputs": [],
      "stateMutability": "nonpayable",
      "type": "function"
    },
    {
      "inputs": [
        {
          "internalType": "bytes4",
          "name": "interfaceId",
          "type": "bytes4"
        }
      ],
      "name": "supportsInterface",
      "outputs": [
        {
          "internalType": "bool",
          "name": "",
          "type": "bool"
        }
      ],
      "stateMutability": "view",
      "type": "function"
    },
    {
      "inputs": [
        {
          "internalType": "string",
          "name": "_name",
          "type": "string"
        },
        {
          "internalType": "string",
          "name": "_logoUrl",
          "type": "string"
        },
        {
          "internalType": "string",
          "name": "_description",
          "type": "string"
        },
        {
          "internalType": "string[]",
          "name": "_webLinks",
          "type": "string[]"
        }
      ],
      "name": "updateDaoInfo",
      "outputs": [],
      "stateMutability": "nonpayable",
      "type": "function"
    },
    {
      "inputs": [
        {
          "internalType": "contract IHederaService",
          "name": "newHederaService",
          "type": "address"
        }
      ],
      "name": "upgradeHederaService",
      "outputs": [],
      "stateMutability": "nonpayable",
      "type": "function"
    }
  ],
  "bytecode": "0x608060405234801561001057600080fd5b50613e2f806100206000396000f3fe60806040523480156200001157600080fd5b5060043610620001425760003560e01c806301ffc9a714620001475780631a295e341462000173578063248a9ca314620001995780632d26dd2314620001b05780632f2ff15d14620001c757806336568abe14620001e0578063468c8a6114620001f757806352323f01146200020e578063565b1b30146200024f5780635860ef20146200026657806361e9779c146200027f57806363158964146200029657806366c5b9a614620002ad5780637e8c5b8c14620002c457806391d1485414620002ce5780639831586814620002e5578063a217fddf14620002fc578063b16b32dd1462000305578063c6e632ca146200030f578063d26d681f1462000326578063d547741f146200033d578063e743ae7e1462000354578063eadd6b38146200036b578063fa382f871462000375575b600080fd5b6200015e6200015836600462001b3e565b6200038e565b60405190151581526020015b60405180910390f35b6200018a6200018436600462001c7d565b620003c6565b6040519081526020016200016a565b6200018a620001aa36600462001d42565b620004af565b6200018a620001c136600462001d5c565b620004c4565b620001de620001d836600462001df5565b620005a7565b005b620001de620001f136600462001df5565b620005ce565b6200018a60008051602062003dba83398151915281565b609c54609e54609d54609f54604080516001600160a01b0395861681529385166020850152918416918301919091529190911660608201526080016200016a565b6200018a6200026036600462001e28565b62000654565b6200027062000743565b6040516200016a919062001f25565b6200018a6200029036600462001f6b565b6200079d565b620001de620002a7366004620021dc565b62000875565b620001de620002be3660046200235d565b62000aa5565b6200027062000baf565b6200015e620002df36600462001df5565b62000c07565b620001de620002f63660046200242b565b62000c32565b6200018a600081565b6200027062000c5b565b6200018a62000320366004620024e4565b62000cb3565b620001de6200033736600462002592565b62000d88565b620001de6200034e36600462001df5565b62000f80565b6200018a62000365366004620025b2565b62000fa2565b620002706200107d565b6200037f620010d5565b6040516200016a9190620026d5565b60006001600160e01b03198216637965db0b60e01b1480620003c057506301ffc9a760e01b6001600160e01b03198316145b92915050565b600060008051602062003dba833981519152620003e381620013eb565b609d546040516397ed5bcd60e01b81526001600160a01b039091169060009082906397ed5bcd9062000426908d908d908d908d908d9033908e90600401620027ac565b6020604051808303816000875af115801562000446573d6000803e3d6000fd5b505050506040513d601f19601f820116820180604052508101906200046c91906200281c565b60a280546001810182556000919091527faaf4f58de99300cfadc4585755f376d5fa747d5bc561d5bd9d710de1f91bf42d018190559a9950505050505050505050565b60009081526065602052604090206001015490565b600060008051602062003dba833981519152620004e181620013eb565b609e54604051630134186960e71b81526001600160a01b03909116906000908290639a0c34809062000520908b908b908b9033908c9060040162002836565b6020604051808303816000875af115801562000540573d6000803e3d6000fd5b505050506040513d601f19601f820116820180604052508101906200056691906200281c565b60a080546001810182556000919091527f78fdc8d422c49ced035a9edf18d00d3c6a8d81df210f3e5e448e045e77b41e880181905598975050505050505050565b620005b282620004af565b620005bd81620013eb565b620005c98383620013fa565b505050565b6001600160a01b0381163314620006445760405162461bcd60e51b815260206004820152602f60248201527f416363657373436f6e74726f6c3a2063616e206f6e6c792072656e6f756e636560448201526e103937b632b9903337b91039b2b63360891b60648201526084015b60405180910390fd5b62000650828262001484565b5050565b600060008051602062003dba8339815191526200067181620013eb565b609f5460405160016218c73d60e21b031981526001600160a01b0390911690600090829063ff9ce30c90620006b9908e908e908e908e908e908e9033908f9060040162002893565b6020604051808303816000875af1158015620006d9573d6000803e3d6000fd5b505050506040513d601f19601f82011682018060405250810190620006ff91906200281c565b60a180546001810182556000919091527faadc37b8ba5645e62f4546802db221593a94729ccbfc5a97d01365a88f649878018190559b9a5050505050505050505050565b606060a08054806020026020016040519081016040528092919081815260200182805480156200079357602002820191906000526020600020905b8154815260200190600101908083116200077e575b5050505050905090565b600060008051602062003dba833981519152620007ba81620013eb565b609c546040516333a130d960e21b81526001600160a01b0390911690600090829063ce84c36490620007fd908d908d908d908d908d9033908e9060040162002929565b6020604051808303816000875af11580156200081d573d6000803e3d6000fd5b505050506040513d601f19601f820116820180604052508101906200084391906200281c565b60a3805460018101825560009190915260008051602062003dda833981519152018190559a9950505050505050505050565b600054610100900460ff1615808015620008965750600054600160ff909116105b80620008b25750303b158015620008b2575060005460ff166001145b620009175760405162461bcd60e51b815260206004820152602e60248201527f496e697469616c697a61626c653a20636f6e747261637420697320616c72656160448201526d191e481a5b9a5d1a585b1a5e995960921b60648201526084016200063b565b6000805460ff1916600117905580156200093b576000805461ff0019166101001790555b60a480546001600160a01b0319166001600160a01b0384161790558351620009679086908590620014ee565b609c60006101000a8154816001600160a01b0302191690836001600160a01b031602179055506200099e85848660200151620014ee565b609e60006101000a8154816001600160a01b0302191690836001600160a01b03160217905550620009d585848660400151620014ee565b609d60006101000a8154816001600160a01b0302191690836001600160a01b0316021790555062000a0c85848660600151620014ee565b609f60006101000a8154816001600160a01b0302191690836001600160a01b0316021790555062000a5785600001518660200151876040015188610100015189610120015162000aa5565b801562000a9e576000805461ff0019169055604051600181527f7f26b83ff96e1f2b6a682f133852f6798a09c465da95921460cefb38474024989060200160405180910390a15b5050505050565b600054610100900460ff1662000b125760405162461bcd60e51b815260206004820152602b60248201527f496e697469616c697a61626c653a20636f6e7472616374206973206e6f74206960448201526a6e697469616c697a696e6760a81b60648201526084016200063b565b6001600160a01b03851662000b6b5760405163d647364f60e01b815260206004820152601e60248201527f4261736544414f3a2061646d696e2061646472657373206973207a65726f000060448201526064016200063b565b609880546001600160a01b0319166001600160a01b03871617905562000ba160008051602062003dba83398151915286620013fa565b62000a9e8484848462001633565b606060a28054806020026020016040519081016040528092919081815260200182805480156200079357602002820191906000526020600020908154815260200190600101908083116200077e575050505050905090565b60009182526065602090815260408084206001600160a01b0393909316845291905290205460ff1690565b60008051602062003dba83398151915262000c4d81620013eb565b62000a9e8585858562001633565b606060a18054806020026020016040519081016040528092919081815260200182805480156200079357602002820191906000526020600020908154815260200190600101908083116200077e575050505050905090565b600060008051602062003dba83398151915262000cd081620013eb565b609c546040516327dbec8f60e01b81526001600160a01b039091169060009082906327dbec8f9062000d11908c908c908c908c9033908d9060040162002999565b6020604051808303816000875af115801562000d31573d6000803e3d6000fd5b505050506040513d601f19601f8201168201806040525081019062000d5791906200281c565b60a3805460018101825560009190915260008051602062003dda833981519152018190559998505050505050505050565b60a454604051637ae09f4d60e01b81526001600160a01b0390911690637ae09f4d9062000dba903390600401620029fe565b60006040518083038186803b15801562000dd357600080fd5b505afa15801562000de8573d6000803e3d6000fd5b5050609c5460405163d26d681f60e01b81526001600160a01b03909116925063d26d681f915062000e1e908490600401620029fe565b600060405180830381600087803b15801562000e3957600080fd5b505af115801562000e4e573d6000803e3d6000fd5b5050609e5460405163d26d681f60e01b81526001600160a01b03909116925063d26d681f915062000e84908490600401620029fe565b600060405180830381600087803b15801562000e9f57600080fd5b505af115801562000eb4573d6000803e3d6000fd5b5050609d5460405163d26d681f60e01b81526001600160a01b03909116925063d26d681f915062000eea908490600401620029fe565b600060405180830381600087803b15801562000f0557600080fd5b505af115801562000f1a573d6000803e3d6000fd5b5050609f5460405163d26d681f60e01b81526001600160a01b03909116925063d26d681f915062000f50908490600401620029fe565b600060405180830381600087803b15801562000f6b57600080fd5b505af115801562000a9e573d6000803e3d6000fd5b62000f8b82620004af565b62000f9681620013eb565b620005c9838362001484565b600060008051602062003dba83398151915262000fbf81620013eb565b609c54604051631edd1e6b60e01b81526001600160a01b03909116906000908290631edd1e6b9062001004908e908e908e908e908e908e9033908f9060040162002a12565b6020604051808303816000875af115801562001024573d6000803e3d6000fd5b505050506040513d601f19601f820116820180604052508101906200104a91906200281c565b60a3805460018101825560009190915260008051602062003dda833981519152018190559b9a5050505050505050505050565b606060a38054806020026020016040519081016040528092919081815260200182805480156200079357602002820191906000526020600020908154815260200190600101908083116200077e575050505050905090565b620011116040518060a001604052806060815260200160006001600160a01b031681526020016060815260200160608152602001606081525090565b60976040518060a0016040529081600082018054620011309062002a8b565b80601f01602080910402602001604051908101604052809291908181526020018280546200115e9062002a8b565b8015620011af5780601f106200118357610100808354040283529160200191620011af565b820191906000526020600020905b8154815290600101906020018083116200119157829003601f168201915b505050918352505060018201546001600160a01b03166020820152600282018054604090920191620011e19062002a8b565b80601f01602080910402602001604051908101604052809291908181526020018280546200120f9062002a8b565b8015620012605780601f10620012345761010080835404028352916020019162001260565b820191906000526020600020905b8154815290600101906020018083116200124257829003601f168201915b505050505081526020016003820180546200127b9062002a8b565b80601f0160208091040260200160405190810160405280929190818152602001828054620012a99062002a8b565b8015620012fa5780601f10620012ce57610100808354040283529160200191620012fa565b820191906000526020600020905b815481529060010190602001808311620012dc57829003601f168201915b5050505050815260200160048201805480602002602001604051908101604052809291908181526020016000905b82821015620013de5783829060005260206000200180546200134a9062002a8b565b80601f0160208091040260200160405190810160405280929190818152602001828054620013789062002a8b565b8015620013c95780601f106200139d57610100808354040283529160200191620013c9565b820191906000526020600020905b815481529060010190602001808311620013ab57829003601f168201915b50505050508152602001906001019062001328565b5050505081525050905090565b620013f78133620017e2565b50565b62001406828262000c07565b620006505760008281526065602090815260408083206001600160a01b03851684529091529020805460ff19166001179055620014403390565b6001600160a01b0316816001600160a01b0316837f2f8788117e7eff1d82e926ec794901d17c78024a50270940304540a733656f0d60405160405180910390a45050565b62001490828262000c07565b15620006505760008281526065602090815260408083206001600160a01b0385168085529252808320805460ff1916905551339285917ff6391f5c32d9c69d2a47ea670b442974b53935d1edc7fd64eb21e047a839171b9190a45050565b60008060a460009054906101000a90046001600160a01b03166001600160a01b0316635d0629226040518163ffffffff1660e01b8152600401606060405180830381865afa15801562001545573d6000803e3d6000fd5b505050506040513d601f19601f820116820180604052508101906200156b919062002ac7565b60200151905060006200157f848362001846565b606087015160a088015160c0890151885160208a015160808c015160a4805460405163b399131f60e01b81526001600160a01b039889166004820152602481019790975260448701959095529286166064860152908516608485015290830152821660c482015291925082169063b399131f9060e401600060405180830381600087803b1580156200161057600080fd5b505af115801562001625573d6000803e3d6000fd5b509298975050505050505050565b8351600003620016805760405163d647364f60e01b81526020600482015260166024820152754261736544414f3a206e616d6520697320656d70747960501b60448201526064016200063b565b60976200168e858262002b94565b508151600003620016e35760405163d647364f60e01b815260206004820152601d60248201527f4261736544414f3a206465736372697074696f6e20697320656d70747900000060448201526064016200063b565b609a620016f1838262002b94565b5060005b81518110156200177c5781818151811062001714576200171462002c60565b602002602001015151600003620017675760405163d647364f60e01b81526020600482015260156024820152744261736544414f3a20696e76616c6964206c696e6b60581b60448201526064016200063b565b80620017738162002c8c565b915050620016f5565b5080516200179290609b90602084019062001a62565b506099620017a1848262002b94565b507fa6f9f25f4c5fed6464b219efa94b247fa993d06e7594aa81dd392bcbbd3600616097604051620017d4919062002d2d565b60405180910390a150505050565b620017ee828262000c07565b6200065057620017fe816200188f565b6200180b836020620018a2565b6040516020016200181e92919062002dfe565b60408051601f198184030181529082905262461bcd60e51b82526200063b9160040162002e71565b600060608383826040516200185b9062001abf565b620018699392919062002e86565b604051809103906000f08015801562001886573d6000803e3d6000fd5b50949350505050565b6060620003c06001600160a01b03831660145b60606000620018b383600262002ebd565b620018c090600262002ed7565b6001600160401b03811115620018da57620018da62001b6a565b6040519080825280601f01601f19166020018201604052801562001905576020820181803683370190505b509050600360fc1b8160008151811062001923576200192362002c60565b60200101906001600160f81b031916908160001a905350600f60fb1b8160018151811062001955576200195562002c60565b60200101906001600160f81b031916908160001a90535060006200197b84600262002ebd565b6200198890600162002ed7565b90505b600181111562001a0a576f181899199a1a9b1b9c1cb0b131b232b360811b85600f1660108110620019c057620019c062002c60565b1a60f81b828281518110620019d957620019d962002c60565b60200101906001600160f81b031916908160001a90535060049490941c9362001a028162002eed565b90506200198b565b50831562001a5b5760405162461bcd60e51b815260206004820181905260248201527f537472696e67733a20686578206c656e67746820696e73756666696369656e7460448201526064016200063b565b9392505050565b82805482825590600052602060002090810192821562001aad579160200282015b8281111562001aad578251829062001a9c908262002b94565b509160200191906001019062001a83565b5062001abb92915062001acd565b5090565b610eb28062002f0883390190565b8082111562001abb57600062001ae4828262001aee565b5060010162001acd565b50805462001afc9062002a8b565b6000825580601f1062001b0d575050565b601f016020900490600052602060002090810190620013f791905b8082111562001abb576000815560010162001b28565b60006020828403121562001b5157600080fd5b81356001600160e01b03198116811462001a5b57600080fd5b634e487b7160e01b600052604160045260246000fd5b60405161014081016001600160401b038111828210171562001ba65762001ba662001b6a565b60405290565b604051601f8201601f191681016001600160401b038111828210171562001bd75762001bd762001b6a565b604052919050565b600082601f83011262001bf157600080fd5b81356001600160401b0381111562001c0d5762001c0d62001b6a565b62001c22601f8201601f191660200162001bac565b81815284602083860101111562001c3857600080fd5b816020850160208301376000918101602001919091529392505050565b6001600160a01b0381168114620013f757600080fd5b803562001c788162001c55565b919050565b60008060008060008060c0878903121562001c9757600080fd5b86356001600160401b038082111562001caf57600080fd5b62001cbd8a838b0162001bdf565b9750602089013591508082111562001cd457600080fd5b62001ce28a838b0162001bdf565b9650604089013591508082111562001cf957600080fd5b5062001d0889828a0162001bdf565b945050606087013562001d1b8162001c55565b9250608087013562001d2d8162001c55565b8092505060a087013590509295509295509295565b60006020828403121562001d5557600080fd5b5035919050565b6000806000806080858703121562001d7357600080fd5b84356001600160401b038082111562001d8b57600080fd5b62001d998883890162001bdf565b9550602087013591508082111562001db057600080fd5b62001dbe8883890162001bdf565b9450604087013591508082111562001dd557600080fd5b5062001de48782880162001bdf565b949793965093946060013593505050565b6000806040838503121562001e0957600080fd5b82359150602083013562001e1d8162001c55565b809150509250929050565b600080600080600080600060e0888a03121562001e4457600080fd5b87356001600160401b038082111562001e5c57600080fd5b62001e6a8b838c0162001bdf565b985060208a013591508082111562001e8157600080fd5b62001e8f8b838c0162001bdf565b975060408a013591508082111562001ea657600080fd5b62001eb48b838c0162001bdf565b965062001ec460608b0162001c6b565b955060808a013591508082111562001edb57600080fd5b62001ee98b838c0162001bdf565b945060a08a013591508082111562001f0057600080fd5b5062001f0f8a828b0162001bdf565b92505060c0880135905092959891949750929550565b6020808252825182820181905260009190848201906040850190845b8181101562001f5f5783518352928401929184019160010162001f41565b50909695505050505050565b60008060008060008060c0878903121562001f8557600080fd5b86356001600160401b038082111562001f9d57600080fd5b62001fab8a838b0162001bdf565b9750602089013591508082111562001fc257600080fd5b62001fd08a838b0162001bdf565b9650604089013591508082111562001fe757600080fd5b5062001ff689828a0162001bdf565b9450506060870135620020098162001c55565b9598949750929560808101359460a0909101359350915050565b8035801515811462001c7857600080fd5b600082601f8301126200204657600080fd5b813560206001600160401b038083111562002065576200206562001b6a565b8260051b6200207683820162001bac565b93845285810183019383810190888611156200209157600080fd5b84880192505b85831015620020d257823584811115620020b15760008081fd5b620020c18a87838c010162001bdf565b835250918401919084019062002097565b98975050505050505050565b600060808284031215620020f157600080fd5b604051608081016001600160401b038111828210171562002116576200211662001b6a565b6040529050808235620021298162001c55565b815260208301356200213b8162001c55565b60208201526040830135620021508162001c55565b60408201526060830135620021658162001c55565b6060919091015292915050565b6000604082840312156200218557600080fd5b604080519081016001600160401b0381118282101715620021aa57620021aa62001b6a565b6040529050808235620021bd8162001c55565b81526020830135620021cf8162001c55565b6020919091015292915050565b600080600080610100808688031215620021f557600080fd5b85356001600160401b03808211156200220d57600080fd5b90870190610140828a0312156200222357600080fd5b6200222d62001b80565b620022388362001c6b565b81526020830135828111156200224d57600080fd5b6200225b8b82860162001bdf565b6020830152506040830135828111156200227457600080fd5b620022828b82860162001bdf565b604083015250620022966060840162001c6b565b60608201526080830135608082015260a083013560a082015260c083013560c0820152620022c760e0840162002023565b60e08201528383013582811115620022de57600080fd5b620022ec8b82860162001bdf565b8583015250610120935083830135828111156200230857600080fd5b620023168b82860162002034565b858301525080975050505050620023318660208701620020de565b9250620023428660a0870162002172565b91506200235260e0860162001c6b565b905092959194509250565b600080600080600060a086880312156200237657600080fd5b8535620023838162001c55565b945060208601356001600160401b0380821115620023a057600080fd5b620023ae89838a0162001bdf565b95506040880135915080821115620023c557600080fd5b620023d389838a0162001bdf565b94506060880135915080821115620023ea57600080fd5b620023f889838a0162001bdf565b935060808801359150808211156200240f57600080fd5b506200241e8882890162002034565b9150509295509295909350565b600080600080608085870312156200244257600080fd5b84356001600160401b03808211156200245a57600080fd5b620024688883890162001bdf565b955060208701359150808211156200247f57600080fd5b6200248d8883890162001bdf565b94506040870135915080821115620024a457600080fd5b620024b28883890162001bdf565b93506060870135915080821115620024c957600080fd5b50620024d88782880162002034565b91505092959194509250565b600080600080600060a08688031215620024fd57600080fd5b85356001600160401b03808211156200251557600080fd5b6200252389838a0162001bdf565b965060208801359150808211156200253a57600080fd5b6200254889838a0162001bdf565b955060408801359150808211156200255f57600080fd5b506200256e8882890162001bdf565b9350506060860135620025818162001c55565b949793965091946080013592915050565b600060208284031215620025a557600080fd5b813562001a5b8162001c55565b600080600080600080600060e0888a031215620025ce57600080fd5b87356001600160401b0380821115620025e657600080fd5b620025f48b838c0162001bdf565b985060208a01359150808211156200260b57600080fd5b620026198b838c0162001bdf565b975060408a01359150808211156200263057600080fd5b506200263f8a828b0162001bdf565b9550506060880135620026528162001c55565b93506080880135620026648162001c55565b9699959850939692959460a0840135945060c09093013592915050565b60005b838110156200269e57818101518382015260200162002684565b50506000910152565b60008151808452620026c181602086016020860162002681565b601f01601f19169290920160200192915050565b60006020808352835160a082850152620026f360c0850182620026a7565b905060018060a01b03828601511660408501526040850151601f1980868403016060870152620027248383620026a7565b92506060870151915080868403016080870152620027438383620026a7565b6080880151878203830160a089015280518083529194508501925084840190600581901b8501860160005b828110156200279e57848783030184526200278b828751620026a7565b958801959388019391506001016200276e565b509998505050505050505050565b60e081526000620027c160e083018a620026a7565b8281036020840152620027d5818a620026a7565b90508281036040840152620027eb8189620026a7565b6001600160a01b039788166060850152958716608084015250509190931660a082015260c001919091529392505050565b6000602082840312156200282f57600080fd5b5051919050565b60a0815260006200284b60a0830188620026a7565b82810360208401526200285f8188620026a7565b90508281036040840152620028758187620026a7565b6001600160a01b039590951660608401525050608001529392505050565b6000610100808352620028a98184018c620026a7565b90508281036020840152620028bf818b620026a7565b90508281036040840152620028d5818a620026a7565b6001600160a01b0389811660608601528482036080860152909150620028fc8289620026a7565b915083820360a0850152620029128288620026a7565b951660c0840152505060e001529695505050505050565b60e0815260006200293e60e083018a620026a7565b828103602084015262002952818a620026a7565b90508281036040840152620029688189620026a7565b6001600160a01b039788166060850152608084019690965250509190931660a082015260c001919091529392505050565b60c081526000620029ae60c0830189620026a7565b8281036020840152620029c28189620026a7565b90508281036040840152620029d88188620026a7565b6001600160a01b0396871660608501529490951660808301525060a00152949350505050565b6001600160a01b0391909116815260200190565b600061010080835262002a288184018c620026a7565b9050828103602084015262002a3e818b620026a7565b9050828103604084015262002a54818a620026a7565b6001600160a01b0398891660608501529688166080840152505060a0810193909352931660c082015260e001919091529392505050565b600181811c9082168062002aa057607f821691505b60208210810362002ac157634e487b7160e01b600052602260045260246000fd5b50919050565b60006060828403121562002ada57600080fd5b604051606081016001600160401b038111828210171562002aff5762002aff62001b6a565b604052825162002b0f8162001c55565b8152602083015162002b218162001c55565b6020820152604083015162002b368162001c55565b60408201529392505050565b601f821115620005c957600081815260208120601f850160051c8101602086101562002b6b5750805b601f850160051c820191505b8181101562002b8c5782815560010162002b77565b505050505050565b81516001600160401b0381111562002bb05762002bb062001b6a565b62002bc88162002bc1845462002a8b565b8462002b42565b602080601f83116001811462002c00576000841562002be75750858301515b600019600386901b1c1916600185901b17855562002b8c565b600085815260208120601f198616915b8281101562002c315788860151825594840194600190910190840162002c10565b508582101562002c505787850151600019600388901b60f8161c191681555b5050505050600190811b01905550565b634e487b7160e01b600052603260045260246000fd5b634e487b7160e01b600052601160045260246000fd5b60006001820162002ca15762002ca162002c76565b5060010190565b6000815462002cb78162002a8b565b80855260206001838116801562002cd7576001811462002cf25762002d22565b60ff1985168884015283151560051b88018301955062002d22565b866000528260002060005b8581101562002d1a5781548a820186015290830190840162002cfd565b890184019650505b505050505092915050565b6000602080835260a08184015262002d4960c084018562002ca8565b6001858101546001600160a01b03166040860152601f198583038101606087015262002d79836002890162002ca8565b92508086840301608087015262002d94836003890162002ca8565b868103820160a0880152600488018054808352600091825286822092955086860191600582901b87018801905b8281101562002def578588830301845262002ddd828662002ca8565b94870194938901939150860162002dc1565b509a9950505050505050505050565b76020b1b1b2b9b9a1b7b73a3937b61d1030b1b1b7bab73a1604d1b81526000835162002e3281601785016020880162002681565b7001034b99036b4b9b9b4b733903937b6329607d1b601791840191820152835162002e6581602884016020880162002681565b01602801949350505050565b60208152600062001a5b6020830184620026a7565b6001600160a01b0384811682528316602082015260606040820181905260009062002eb490830184620026a7565b95945050505050565b8082028115828204841417620003c057620003c062002c76565b80820180821115620003c057620003c062002c76565b60008162002eff5762002eff62002c76565b50600019019056fe608060405260405162000eb238038062000eb2833981016040819052620000269162000497565b828162000036828260006200004d565b50620000449050826200008a565b505050620005ca565b6200005883620000e5565b600082511180620000665750805b1562000085576200008383836200012760201b620001691760201c565b505b505050565b7f7e644d79422f17c01e4894b5f4f588d331ebfa28653d42ae832dc59e38c9798f620000b562000156565b604080516001600160a01b03928316815291841660208301520160405180910390a1620000e2816200018f565b50565b620000f08162000244565b6040516001600160a01b038216907fbc7cd75a20ee27fd9adebab32041f755214dbc6bffa90cc0225b39da2e5c2d3b90600090a250565b60606200014f838360405180606001604052806027815260200162000e8b60279139620002f8565b9392505050565b60006200018060008051602062000e6b83398151915260001b6200037760201b620001951760201c565b546001600160a01b0316919050565b6001600160a01b038116620001fa5760405162461bcd60e51b815260206004820152602660248201527f455243313936373a206e65772061646d696e20697320746865207a65726f206160448201526564647265737360d01b60648201526084015b60405180910390fd5b806200022360008051602062000e6b83398151915260001b6200037760201b620001951760201c565b80546001600160a01b0319166001600160a01b039290921691909117905550565b6200025a816200037a60201b620001981760201c565b620002be5760405162461bcd60e51b815260206004820152602d60248201527f455243313936373a206e657720696d706c656d656e746174696f6e206973206e60448201526c1bdd08184818dbdb9d1c9858dd609a1b6064820152608401620001f1565b80620002237f360894a13ba1a3210667c828492db98dca3e2076cc3735a920a3ca505d382bbc60001b6200037760201b620001951760201c565b6060600080856001600160a01b03168560405162000317919062000577565b600060405180830381855af49150503d806000811462000354576040519150601f19603f3d011682016040523d82523d6000602084013e62000359565b606091505b5090925090506200036d8683838762000389565b9695505050505050565b90565b6001600160a01b03163b151590565b60608315620003fd578251600003620003f557620003a7856200037a565b620003f55760405162461bcd60e51b815260206004820152601d60248201527f416464726573733a2063616c6c20746f206e6f6e2d636f6e74726163740000006044820152606401620001f1565b508162000409565b62000409838362000411565b949350505050565b815115620004225781518083602001fd5b8060405162461bcd60e51b8152600401620001f1919062000595565b80516001600160a01b03811681146200045657600080fd5b919050565b634e487b7160e01b600052604160045260246000fd5b60005b838110156200048e57818101518382015260200162000474565b50506000910152565b600080600060608486031215620004ad57600080fd5b620004b8846200043e565b9250620004c8602085016200043e565b60408501519092506001600160401b0380821115620004e657600080fd5b818601915086601f830112620004fb57600080fd5b8151818111156200051057620005106200045b565b604051601f8201601f19908116603f011681019083821181831017156200053b576200053b6200045b565b816040528281528960208487010111156200055557600080fd5b6200056883602083016020880162000471565b80955050505050509250925092565b600082516200058b81846020870162000471565b9190910192915050565b6020815260008251806020840152620005b681604085016020870162000471565b601f01601f19169190910160400192915050565b61089180620005da6000396000f3fe60806040523661001357610011610017565b005b6100115b61001f6101a7565b6001600160a01b0316330361015f5760606001600160e01b0319600035166364d3180d60e11b810161005a576100536101c8565b9150610157565b63587086bd60e11b6001600160e01b031982160161007a5761005361021f565b63070d7c6960e41b6001600160e01b031982160161009a57610053610265565b621eb96f60e61b6001600160e01b03198216016100b957610053610296565b63a39f25e560e01b6001600160e01b03198216016100d9576100536102d6565b60405162461bcd60e51b815260206004820152604260248201527f5472616e73706172656e745570677261646561626c6550726f78793a2061646d60448201527f696e2063616e6e6f742066616c6c6261636b20746f2070726f78792074617267606482015261195d60f21b608482015260a4015b60405180910390fd5b815160208301f35b6101676102ea565b565b606061018e8383604051806060016040528060278152602001610835602791396102fa565b9392505050565b90565b6001600160a01b03163b151590565b60006000805160206107f58339815191525b546001600160a01b0316919050565b60606101d2610372565b60006101e13660048184610649565b8101906101ee919061068f565b905061020b8160405180602001604052806000815250600061037d565b505060408051602081019091526000815290565b60606000806102313660048184610649565b81019061023e91906106c0565b9150915061024e8282600161037d565b604051806020016040528060008152509250505090565b606061026f610372565b600061027e3660048184610649565b81019061028b919061068f565b905061020b816103a9565b60606102a0610372565b60006102aa6101a7565b604080516001600160a01b03831660208201529192500160405160208183030381529060405291505090565b60606102e0610372565b60006102aa610400565b6101676102f5610400565b61040f565b6060600080856001600160a01b03168560405161031791906107a5565b600060405180830381855af49150503d8060008114610352576040519150601f19603f3d011682016040523d82523d6000602084013e610357565b606091505b509150915061036886838387610433565b9695505050505050565b341561016757600080fd5b610386836104b2565b6000825111806103935750805b156103a4576103a28383610169565b505b505050565b7f7e644d79422f17c01e4894b5f4f588d331ebfa28653d42ae832dc59e38c9798f6103d26101a7565b604080516001600160a01b03928316815291841660208301520160405180910390a16103fd816104f2565b50565b600061040a610589565b905090565b3660008037600080366000845af43d6000803e80801561042e573d6000f35b3d6000fd5b606083156104a05782516000036104995761044d85610198565b6104995760405162461bcd60e51b815260206004820152601d60248201527f416464726573733a2063616c6c20746f206e6f6e2d636f6e7472616374000000604482015260640161014e565b50816104aa565b6104aa838361059f565b949350505050565b6104bb816105c9565b6040516001600160a01b038216907fbc7cd75a20ee27fd9adebab32041f755214dbc6bffa90cc0225b39da2e5c2d3b90600090a250565b6001600160a01b0381166105575760405162461bcd60e51b815260206004820152602660248201527f455243313936373a206e65772061646d696e20697320746865207a65726f206160448201526564647265737360d01b606482015260840161014e565b806000805160206107f58339815191525b80546001600160a01b0319166001600160a01b039290921691909117905550565b60006000805160206108158339815191526101b9565b8151156105af5781518083602001fd5b8060405162461bcd60e51b815260040161014e91906107c1565b6105d281610198565b6106345760405162461bcd60e51b815260206004820152602d60248201527f455243313936373a206e657720696d706c656d656e746174696f6e206973206e60448201526c1bdd08184818dbdb9d1c9858dd609a1b606482015260840161014e565b80600080516020610815833981519152610568565b6000808585111561065957600080fd5b8386111561066657600080fd5b5050820193919092039150565b80356001600160a01b038116811461068a57600080fd5b919050565b6000602082840312156106a157600080fd5b61018e82610673565b634e487b7160e01b600052604160045260246000fd5b600080604083850312156106d357600080fd5b6106dc83610673565b915060208301356001600160401b03808211156106f857600080fd5b818501915085601f83011261070c57600080fd5b81358181111561071e5761071e6106aa565b604051601f8201601f19908116603f01168101908382118183101715610746576107466106aa565b8160405282815288602084870101111561075f57600080fd5b8260208601602083013760006020848301015280955050505050509250929050565b60005b8381101561079c578181015183820152602001610784565b50506000910152565b600082516107b7818460208701610781565b9190910192915050565b60208152600082518060208401526107e0816040850160208701610781565b601f01601f1916919091016040019291505056feb53127684a568b3173ae13b9f8a6016e243e63b6e8ee1178d6a717850b5d6103360894a13ba1a3210667c828492db98dca3e2076cc3735a920a3ca505d382bbc416464726573733a206c6f772d6c6576656c2064656c65676174652063616c6c206661696c6564a2646970667358221220620b02c16977e4bc46dc8e126676654738ae0c6dcb3ade55e68906b6b7d90c2164736f6c63430008120033b53127684a568b3173ae13b9f8a6016e243e63b6e8ee1178d6a717850b5d6103416464726573733a206c6f772d6c6576656c2064656c65676174652063616c6c206661696c6564f591dda2e9b53c180cef2a1f29bc285ccc0649b7a0efc8de2ec0cfe024d46b9660859188cffe297f44dde29f2d2865634621f26215049caeb304ccba566a8b17a2646970667358221220fcd6703000f601ad901d48baf8cb896f8b571ca57bdba2b10c5dcc5869a0fdb764736f6c63430008120033",
  "linkReferences": {},
  "deployedLinkReferences": {}
}