{
  "_format": "hh-sol-artifact-1",
  "contractName": "FTDAO",
  "sourceName": "contracts/dao/FTDAO.sol",
  "abi": [
    {
      "inputs": [
        {
          "internalType": "string",
          "name": "message",
          "type": "string"
        }
      ],
      "name": "InvalidInput",
      "type": "error"
    },
    {
      "anonymous": false,
      "inputs": [
        {
          "components": [
            {
              "internalType": "string",
              "name": "name",
              "type": "string"
            },
            {
              "internalType": "address",
              "name": "admin",
              "type": "address"
            },
            {
              "internalType": "string",
              "name": "logoUrl",
              "type": "string"
            },
            {
              "internalType": "string",
              "name": "infoUrl",
              "type": "string"
            },
            {
              "internalType": "string",
              "name": "description",
              "type": "string"
            },
            {
              "internalType": "string[]",
              "name": "webLinks",
              "type": "string[]"
            }
          ],
          "indexed": false,
          "internalType": "struct BaseDAO.DAOInfo",
          "name": "daoInfo",
          "type": "tuple"
        }
      ],
      "name": "DAOInfoUpdated",
      "type": "event"
    },
    {
      "anonymous": false,
      "inputs": [
        {
          "indexed": false,
          "internalType": "uint8",
          "name": "version",
          "type": "uint8"
        }
      ],
      "name": "Initialized",
      "type": "event"
    },
    {
      "anonymous": false,
      "inputs": [
        {
          "indexed": true,
          "internalType": "bytes32",
          "name": "role",
          "type": "bytes32"
        },
        {
          "indexed": true,
          "internalType": "bytes32",
          "name": "previousAdminRole",
          "type": "bytes32"
        },
        {
          "indexed": true,
          "internalType": "bytes32",
          "name": "newAdminRole",
          "type": "bytes32"
        }
      ],
      "name": "RoleAdminChanged",
      "type": "event"
    },
    {
      "anonymous": false,
      "inputs": [
        {
          "indexed": true,
          "internalType": "bytes32",
          "name": "role",
          "type": "bytes32"
        },
        {
          "indexed": true,
          "internalType": "address",
          "name": "account",
          "type": "address"
        },
        {
          "indexed": true,
          "internalType": "address",
          "name": "sender",
          "type": "address"
        }
      ],
      "name": "RoleGranted",
      "type": "event"
    },
    {
      "anonymous": false,
      "inputs": [
        {
          "indexed": true,
          "internalType": "bytes32",
          "name": "role",
          "type": "bytes32"
        },
        {
          "indexed": true,
          "internalType": "address",
          "name": "account",
          "type": "address"
        },
        {
          "indexed": true,
          "internalType": "address",
          "name": "sender",
          "type": "address"
        }
      ],
      "name": "RoleRevoked",
      "type": "event"
    },
    {
      "inputs": [],
      "name": "DAO_ADMIN",
      "outputs": [
        {
          "internalType": "bytes32",
          "name": "",
          "type": "bytes32"
        }
      ],
      "stateMutability": "view",
      "type": "function"
    },
    {
      "inputs": [],
      "name": "DEFAULT_ADMIN_ROLE",
      "outputs": [
        {
          "internalType": "bytes32",
          "name": "",
          "type": "bytes32"
        }
      ],
      "stateMutability": "view",
      "type": "function"
    },
    {
      "inputs": [
        {
          "internalType": "address",
          "name": "_admin",
          "type": "address"
        },
        {
          "internalType": "string",
          "name": "_name",
          "type": "string"
        },
        {
          "internalType": "string",
          "name": "_logoUrl",
          "type": "string"
        },
        {
          "internalType": "string",
          "name": "_infoUrl",
          "type": "string"
        },
        {
          "internalType": "string",
          "name": "_description",
          "type": "string"
        },
        {
          "internalType": "string[]",
          "name": "_webLinks",
          "type": "string[]"
        }
      ],
      "name": "__BaseDAO_init",
      "outputs": [],
      "stateMutability": "nonpayable",
      "type": "function"
    },
    {
      "inputs": [],
      "name": "getDaoInfo",
      "outputs": [
        {
          "components": [
            {
              "internalType": "string",
              "name": "name",
              "type": "string"
            },
            {
              "internalType": "address",
              "name": "admin",
              "type": "address"
            },
            {
              "internalType": "string",
              "name": "logoUrl",
              "type": "string"
            },
            {
              "internalType": "string",
              "name": "infoUrl",
              "type": "string"
            },
            {
              "internalType": "string",
              "name": "description",
              "type": "string"
            },
            {
              "internalType": "string[]",
              "name": "webLinks",
              "type": "string[]"
            }
          ],
          "internalType": "struct BaseDAO.DAOInfo",
          "name": "",
          "type": "tuple"
        }
      ],
      "stateMutability": "view",
      "type": "function"
    },
    {
      "inputs": [
        {
          "internalType": "bytes32",
          "name": "role",
          "type": "bytes32"
        }
      ],
      "name": "getRoleAdmin",
      "outputs": [
        {
          "internalType": "bytes32",
          "name": "",
          "type": "bytes32"
        }
      ],
      "stateMutability": "view",
      "type": "function"
    },
    {
      "inputs": [],
      "name": "governorAddress",
      "outputs": [
        {
          "internalType": "address",
          "name": "",
          "type": "address"
        }
      ],
      "stateMutability": "view",
      "type": "function"
    },
    {
      "inputs": [
        {
          "internalType": "bytes32",
          "name": "role",
          "type": "bytes32"
        },
        {
          "internalType": "address",
          "name": "account",
          "type": "address"
        }
      ],
      "name": "grantRole",
      "outputs": [],
      "stateMutability": "nonpayable",
      "type": "function"
    },
    {
      "inputs": [
        {
          "internalType": "bytes32",
          "name": "role",
          "type": "bytes32"
        },
        {
          "internalType": "address",
          "name": "account",
          "type": "address"
        }
      ],
      "name": "hasRole",
      "outputs": [
        {
          "internalType": "bool",
          "name": "",
          "type": "bool"
        }
      ],
      "stateMutability": "view",
      "type": "function"
    },
    {
      "inputs": [
        {
          "internalType": "address",
          "name": "_governorAddress",
          "type": "address"
        },
        {
          "components": [
            {
              "internalType": "address",
              "name": "admin",
              "type": "address"
            },
            {
              "internalType": "string",
              "name": "name",
              "type": "string"
            },
            {
              "internalType": "string",
              "name": "logoUrl",
              "type": "string"
            },
            {
              "internalType": "string",
              "name": "infoUrl",
              "type": "string"
            },
            {
              "internalType": "address",
              "name": "tokenAddress",
              "type": "address"
            },
            {
              "internalType": "uint256",
              "name": "quorumThreshold",
              "type": "uint256"
            },
            {
              "internalType": "uint256",
              "name": "votingDelay",
              "type": "uint256"
            },
            {
              "internalType": "uint256",
              "name": "votingPeriod",
              "type": "uint256"
            },
            {
              "internalType": "bool",
              "name": "isPrivate",
              "type": "bool"
            },
            {
              "internalType": "string",
              "name": "description",
              "type": "string"
            },
            {
              "internalType": "string[]",
              "name": "webLinks",
              "type": "string[]"
            }
          ],
          "internalType": "struct ISharedModel.CreateDAOInputs",
          "name": "_inputs",
          "type": "tuple"
        }
      ],
      "name": "initialize",
      "outputs": [],
      "stateMutability": "nonpayable",
      "type": "function"
    },
    {
      "inputs": [
        {
          "internalType": "bytes32",
          "name": "role",
          "type": "bytes32"
        },
        {
          "internalType": "address",
          "name": "account",
          "type": "address"
        }
      ],
      "name": "renounceRole",
      "outputs": [],
      "stateMutability": "nonpayable",
      "type": "function"
    },
    {
      "inputs": [
        {
          "internalType": "bytes32",
          "name": "role",
          "type": "bytes32"
        },
        {
          "internalType": "address",
          "name": "account",
          "type": "address"
        }
      ],
      "name": "revokeRole",
      "outputs": [],
      "stateMutability": "nonpayable",
      "type": "function"
    },
    {
      "inputs": [
        {
          "internalType": "bytes4",
          "name": "interfaceId",
          "type": "bytes4"
        }
      ],
      "name": "supportsInterface",
      "outputs": [
        {
          "internalType": "bool",
          "name": "",
          "type": "bool"
        }
      ],
      "stateMutability": "view",
      "type": "function"
    },
    {
      "inputs": [
        {
          "internalType": "string",
          "name": "_name",
          "type": "string"
        },
        {
          "internalType": "string",
          "name": "_logoUrl",
          "type": "string"
        },
        {
          "internalType": "string",
          "name": "_infoUrl",
          "type": "string"
        },
        {
          "internalType": "string",
          "name": "_description",
          "type": "string"
        },
        {
          "internalType": "string[]",
          "name": "_webLinks",
          "type": "string[]"
        }
      ],
      "name": "updateDaoInfo",
      "outputs": [],
      "stateMutability": "nonpayable",
      "type": "function"
    }
  ],
  "bytecode": "0x608060405234801561001057600080fd5b5061001961001e565b6100dd565b600054610100900460ff161561008a5760405162461bcd60e51b815260206004820152602760248201527f496e697469616c697a61626c653a20636f6e747261637420697320696e697469604482015266616c697a696e6760c81b606482015260840160405180910390fd5b60005460ff908116146100db576000805460ff191660ff9081179091556040519081527f7f26b83ff96e1f2b6a682f133852f6798a09c465da95921460cefb38474024989060200160405180910390a15b565b611952806100ec6000396000f3fe608060405234801561001057600080fd5b50600436106100af5760003560e01c806301ffc9a7146100b4578063248a9ca3146100dc578063276f1c41146100fd5780632a486caf146101285780632f2ff15d1461013d57806336568abe146101505780633a789e5314610163578063468c8a61146101765780635db6515c1461018b57806391d148541461019e578063a217fddf146101b1578063d547741f146101b9578063fa382f87146101cc575b600080fd5b6100c76100c2366004610edc565b6101e1565b60405190151581526020015b60405180910390f35b6100ef6100ea366004610f06565b610218565b6040519081526020016100d3565b60fc54610110906001600160a01b031681565b6040516001600160a01b0390911681526020016100d3565b61013b6101363660046110b7565b61022d565b005b61013b61014b366004611197565b61033c565b61013b61015e366004611197565b61035d565b61013b6101713660046111d3565b6103db565b6100ef6000805160206118fd83398151915281565b61013b610199366004611339565b61052b565b6100c76101ac366004611197565b610550565b6100ef600081565b61013b6101c7366004611197565b61057b565b6101d4610597565b6040516100d3919061145a565b60006001600160e01b03198216637965db0b60e01b148061021257506301ffc9a760e01b6001600160e01b03198316145b92915050565b60009081526065602052604090206001015490565b600054610100900460ff1661029d5760405162461bcd60e51b815260206004820152602b60248201527f496e697469616c697a61626c653a20636f6e7472616374206973206e6f74206960448201526a6e697469616c697a696e6760a81b60648201526084015b60405180910390fd5b6001600160a01b0386166102f45760405163d647364f60e01b815260206004820152601e60248201527f4261736544414f3a2061646d696e2061646472657373206973207a65726f00006044820152606401610294565b60ca80546001600160a01b0319166001600160a01b0388161790556103276000805160206118fd83398151915287610923565b61033485858585856109a9565b505050505050565b61034582610218565b61034e81610b9e565b6103588383610923565b505050565b6001600160a01b03811633146103cd5760405162461bcd60e51b815260206004820152602f60248201527f416363657373436f6e74726f6c3a2063616e206f6e6c792072656e6f756e636560448201526e103937b632b9903337b91039b2b63360891b6064820152608401610294565b6103d78282610bab565b5050565b600054610100900460ff16158080156103fb5750600054600160ff909116105b806104155750303b158015610415575060005460ff166001145b6104785760405162461bcd60e51b815260206004820152602e60248201527f496e697469616c697a61626c653a20636f6e747261637420697320616c72656160448201526d191e481a5b9a5d1a585b1a5e995960921b6064820152608401610294565b6000805460ff19166001179055801561049b576000805461ff0019166101001790555b60fc80546001600160a01b0319166001600160a01b03851617905581516020830151604084015160608501516101208601516101408701516104e195949392919061022d565b8015610358576000805461ff0019169055604051600181527f7f26b83ff96e1f2b6a682f133852f6798a09c465da95921460cefb38474024989060200160405180910390a1505050565b6000805160206118fd83398151915261054381610b9e565b61033486868686866109a9565b60009182526065602090815260408084206001600160a01b0393909316845291905290205460ff1690565b61058482610218565b61058d81610b9e565b6103588383610bab565b6105d96040518060c001604052806060815260200160006001600160a01b03168152602001606081526020016060815260200160608152602001606081525090565b60c96040518060c00160405290816000820180546105f690611544565b80601f016020809104026020016040519081016040528092919081815260200182805461062290611544565b801561066f5780601f106106445761010080835404028352916020019161066f565b820191906000526020600020905b81548152906001019060200180831161065257829003601f168201915b505050918352505060018201546001600160a01b0316602082015260028201805460409092019161069f90611544565b80601f01602080910402602001604051908101604052809291908181526020018280546106cb90611544565b80156107185780601f106106ed57610100808354040283529160200191610718565b820191906000526020600020905b8154815290600101906020018083116106fb57829003601f168201915b5050505050815260200160038201805461073190611544565b80601f016020809104026020016040519081016040528092919081815260200182805461075d90611544565b80156107aa5780601f1061077f576101008083540402835291602001916107aa565b820191906000526020600020905b81548152906001019060200180831161078d57829003601f168201915b505050505081526020016004820180546107c390611544565b80601f01602080910402602001604051908101604052809291908181526020018280546107ef90611544565b801561083c5780601f106108115761010080835404028352916020019161083c565b820191906000526020600020905b81548152906001019060200180831161081f57829003601f168201915b5050505050815260200160058201805480602002602001604051908101604052809291908181526020016000905b8282101561091657838290600052602060002001805461088990611544565b80601f01602080910402602001604051908101604052809291908181526020018280546108b590611544565b80156109025780601f106108d757610100808354040283529160200191610902565b820191906000526020600020905b8154815290600101906020018083116108e557829003601f168201915b50505050508152602001906001019061086a565b5050505081525050905090565b61092d8282610550565b6103d75760008281526065602090815260408083206001600160a01b03851684529091529020805460ff191660011790556109653390565b6001600160a01b0316816001600160a01b0316837f2f8788117e7eff1d82e926ec794901d17c78024a50270940304540a733656f0d60405160405180910390a45050565b84516000036109f45760405163d647364f60e01b81526020600482015260166024820152754261736544414f3a206e616d6520697320656d70747960501b6044820152606401610294565b60c9610a0086826115c4565b508151600003610a535760405163d647364f60e01b815260206004820152601d60248201527f4261736544414f3a206465736372697074696f6e20697320656d7074790000006044820152606401610294565b60cd610a5f83826115c4565b508251600003610aaf5760405163d647364f60e01b815260206004820152601a6024820152794261736544414f3a20696e666f2075726c20697320656d70747960301b6044820152606401610294565b60cc610abb84826115c4565b5060005b8151811015610b3d57818181518110610ada57610ada611683565b602002602001015151600003610b2b5760405163d647364f60e01b81526020600482015260156024820152744261736544414f3a20696e76616c6964206c696e6b60581b6044820152606401610294565b80610b35816116af565b915050610abf565b508051610b519060ce906020840190610e1f565b5060cb610b5e85826115c4565b507fcc9d0d1e1a5fc974a889257e10cdee98a6c0d30c66047a145bceec19d4bc667460c9604051610b8f919061179e565b60405180910390a15050505050565b610ba88133610c12565b50565b610bb58282610550565b156103d75760008281526065602090815260408083206001600160a01b0385168085529252808320805460ff1916905551339285917ff6391f5c32d9c69d2a47ea670b442974b53935d1edc7fd64eb21e047a839171b9190a45050565b610c1c8282610550565b6103d757610c2981610c6b565b610c34836020610c7d565b604051602001610c45929190611839565b60408051601f198184030181529082905262461bcd60e51b8252610294916004016118a8565b60606102126001600160a01b03831660145b60606000610c8c8360026118bb565b610c979060026118d2565b6001600160401b03811115610cae57610cae610f3b565b6040519080825280601f01601f191660200182016040528015610cd8576020820181803683370190505b509050600360fc1b81600081518110610cf357610cf3611683565b60200101906001600160f81b031916908160001a905350600f60fb1b81600181518110610d2257610d22611683565b60200101906001600160f81b031916908160001a9053506000610d468460026118bb565b610d519060016118d2565b90505b6001811115610dc9576f181899199a1a9b1b9c1cb0b131b232b360811b85600f1660108110610d8557610d85611683565b1a60f81b828281518110610d9b57610d9b611683565b60200101906001600160f81b031916908160001a90535060049490941c93610dc2816118e5565b9050610d54565b508315610e185760405162461bcd60e51b815260206004820181905260248201527f537472696e67733a20686578206c656e67746820696e73756666696369656e746044820152606401610294565b9392505050565b828054828255906000526020600020908101928215610e65579160200282015b82811115610e655782518290610e5590826115c4565b5091602001919060010190610e3f565b50610e71929150610e75565b5090565b80821115610e71576000610e898282610e92565b50600101610e75565b508054610e9e90611544565b6000825580601f10610eae575050565b601f016020900490600052602060002090810190610ba891905b80821115610e715760008155600101610ec8565b600060208284031215610eee57600080fd5b81356001600160e01b031981168114610e1857600080fd5b600060208284031215610f1857600080fd5b5035919050565b80356001600160a01b0381168114610f3657600080fd5b919050565b634e487b7160e01b600052604160045260246000fd5b60405161016081016001600160401b0381118282101715610f7457610f74610f3b565b60405290565b604051601f8201601f191681016001600160401b0381118282101715610fa257610fa2610f3b565b604052919050565b600082601f830112610fbb57600080fd5b81356001600160401b03811115610fd457610fd4610f3b565b610fe7601f8201601f1916602001610f7a565b818152846020838601011115610ffc57600080fd5b816020850160208301376000918101602001919091529392505050565b600082601f83011261102a57600080fd5b813560206001600160401b038083111561104657611046610f3b565b8260051b611055838201610f7a565b938452858101830193838101908886111561106f57600080fd5b84880192505b858310156110ab5782358481111561108d5760008081fd5b61109b8a87838c0101610faa565b8352509184019190840190611075565b98975050505050505050565b60008060008060008060c087890312156110d057600080fd5b6110d987610f1f565b955060208701356001600160401b03808211156110f557600080fd5b6111018a838b01610faa565b9650604089013591508082111561111757600080fd5b6111238a838b01610faa565b9550606089013591508082111561113957600080fd5b6111458a838b01610faa565b9450608089013591508082111561115b57600080fd5b6111678a838b01610faa565b935060a089013591508082111561117d57600080fd5b5061118a89828a01611019565b9150509295509295509295565b600080604083850312156111aa57600080fd5b823591506111ba60208401610f1f565b90509250929050565b80358015158114610f3657600080fd5b600080604083850312156111e657600080fd5b6111ef83610f1f565b915060208301356001600160401b038082111561120b57600080fd5b90840190610160828703121561122057600080fd5b611228610f51565b61123183610f1f565b815260208301358281111561124557600080fd5b61125188828601610faa565b60208301525060408301358281111561126957600080fd5b61127588828601610faa565b60408301525060608301358281111561128d57600080fd5b61129988828601610faa565b6060830152506112ab60808401610f1f565b608082015260a083013560a082015260c083013560c082015260e083013560e08201526101006112dc8185016111c3565b9082015261012083810135838111156112f457600080fd5b61130089828701610faa565b828401525050610140808401358381111561131a57600080fd5b61132689828701611019565b8284015250508093505050509250929050565b600080600080600060a0868803121561135157600080fd5b85356001600160401b038082111561136857600080fd5b61137489838a01610faa565b9650602088013591508082111561138a57600080fd5b61139689838a01610faa565b955060408801359150808211156113ac57600080fd5b6113b889838a01610faa565b945060608801359150808211156113ce57600080fd5b6113da89838a01610faa565b935060808801359150808211156113f057600080fd5b506113fd88828901611019565b9150509295509295909350565b60005b8381101561142557818101518382015260200161140d565b50506000910152565b6000815180845261144681602086016020860161140a565b601f01601f19169290920160200192915050565b60006020808352835160c08285015261147660e085018261142e565b905060018060a01b03828601511660408501526040850151601f19808684030160608701526114a5838361142e565b925060608701519150808684030160808701526114c2838361142e565b925060808701519150808684030160a08701526114df838361142e565b60a0880151878203830160c089015280518083529194508501925084840190600581901b8501860160005b82811015611536578487830301845261152482875161142e565b9588019593880193915060010161150a565b509998505050505050505050565b600181811c9082168061155857607f821691505b60208210810361157857634e487b7160e01b600052602260045260246000fd5b50919050565b601f82111561035857600081815260208120601f850160051c810160208610156115a55750805b601f850160051c820191505b81811015610334578281556001016115b1565b81516001600160401b038111156115dd576115dd610f3b565b6115f1816115eb8454611544565b8461157e565b602080601f831160018114611626576000841561160e5750858301515b600019600386901b1c1916600185901b178555610334565b600085815260208120601f198616915b8281101561165557888601518255948401946001909101908401611636565b50858210156116735787850151600019600388901b60f8161c191681555b5050505050600190811b01905550565b634e487b7160e01b600052603260045260246000fd5b634e487b7160e01b600052601160045260246000fd5b6000600182016116c1576116c1611699565b5060010190565b600081546116d581611544565b8085526020600183811680156116f2576001811461170c5761173a565b60ff1985168884015283151560051b88018301955061173a565b866000528260002060005b858110156117325781548a8201860152908301908401611717565b890184019650505b505050505092915050565b600081548084526020808501808196508360051b81019150856000528260002060005b8581101561179157828403895261177f84836116c8565b98850198935060019182019101611768565b5091979650505050505050565b6020815260c0602082015260006117b860e08301846116c8565b60018401546001600160a01b03166040840152601f19838203810160608501526117e582600287016116c8565b9150808483030160808501526117fe82600387016116c8565b9150808483030160a085015261181782600487016116c8565b9150808483030160c0850152506118318160058601611745565b949350505050565b76020b1b1b2b9b9a1b7b73a3937b61d1030b1b1b7bab73a1604d1b81526000835161186b81601785016020880161140a565b7001034b99036b4b9b9b4b733903937b6329607d1b601791840191820152835161189c81602884016020880161140a565b01602801949350505050565b602081526000610e18602083018461142e565b808202811582820484141761021257610212611699565b8082018082111561021257610212611699565b6000816118f4576118f4611699565b50600019019056fef591dda2e9b53c180cef2a1f29bc285ccc0649b7a0efc8de2ec0cfe024d46b96a2646970667358221220a01f134e5c49e03cac9aaa8461803175f6a7a72f69dad1c41517542502f84a2964736f6c63430008120033",
  "linkReferences": {},
  "deployedLinkReferences": {}
}