{
  "_format": "hh-sol-artifact-1",
  "contractName": "GovernorTransferToken",
  "sourceName": "contracts/governance/GovernorTransferToken.sol",
  "abi": [
    {
      "inputs": [],
      "name": "Empty",
      "type": "error"
    },
    {
      "inputs": [
        {
          "internalType": "string",
          "name": "message",
          "type": "string"
        }
      ],
      "name": "InvalidInput",
      "type": "error"
    },
    {
      "inputs": [
        {
          "internalType": "string",
          "name": "message",
          "type": "string"
        },
        {
          "internalType": "uint256",
          "name": "proposalId",
          "type": "uint256"
        },
        {
          "internalType": "uint256",
          "name": "nftSerialId",
          "type": "uint256"
        }
      ],
      "name": "NFTSerialIdAlreadyBlockedByProposal",
      "type": "error"
    },
    {
      "anonymous": false,
      "inputs": [
        {
          "indexed": false,
          "internalType": "uint256",
          "name": "activeProposalsCount",
          "type": "uint256"
        },
        {
          "indexed": false,
          "internalType": "uint256",
          "name": "blockedGodTokenBalance",
          "type": "uint256"
        }
      ],
      "name": "GovernorBalance",
      "type": "event"
    },
    {
      "anonymous": false,
      "inputs": [
        {
          "indexed": false,
          "internalType": "uint8",
          "name": "version",
          "type": "uint8"
        }
      ],
      "name": "Initialized",
      "type": "event"
    },
    {
      "anonymous": false,
      "inputs": [
        {
          "indexed": true,
          "internalType": "address",
          "name": "oldImplementation",
          "type": "address"
        },
        {
          "indexed": true,
          "internalType": "address",
          "name": "newImplementation",
          "type": "address"
        },
        {
          "indexed": false,
          "internalType": "string",
          "name": "name",
          "type": "string"
        }
      ],
      "name": "LogicUpdated",
      "type": "event"
    },
    {
      "anonymous": false,
      "inputs": [
        {
          "indexed": false,
          "internalType": "uint256",
          "name": "proposalId",
          "type": "uint256"
        },
        {
          "indexed": false,
          "internalType": "uint256",
          "name": "nftSerialId",
          "type": "uint256"
        },
        {
          "indexed": false,
          "internalType": "bool",
          "name": "isBlocked",
          "type": "bool"
        }
      ],
      "name": "NFTSerialIdBlockStatus",
      "type": "event"
    },
    {
      "anonymous": false,
      "inputs": [
        {
          "indexed": true,
          "internalType": "address",
          "name": "previousOwner",
          "type": "address"
        },
        {
          "indexed": true,
          "internalType": "address",
          "name": "newOwner",
          "type": "address"
        }
      ],
      "name": "OwnershipTransferred",
      "type": "event"
    },
    {
      "anonymous": false,
      "inputs": [
        {
          "indexed": false,
          "internalType": "uint256",
          "name": "proposalId",
          "type": "uint256"
        }
      ],
      "name": "ProposalCanceled",
      "type": "event"
    },
    {
      "anonymous": false,
      "inputs": [
        {
          "indexed": false,
          "internalType": "uint256",
          "name": "proposalId",
          "type": "uint256"
        },
        {
          "indexed": false,
          "internalType": "address",
          "name": "proposer",
          "type": "address"
        },
        {
          "indexed": false,
          "internalType": "address[]",
          "name": "targets",
          "type": "address[]"
        },
        {
          "indexed": false,
          "internalType": "uint256[]",
          "name": "values",
          "type": "uint256[]"
        },
        {
          "indexed": false,
          "internalType": "string[]",
          "name": "signatures",
          "type": "string[]"
        },
        {
          "indexed": false,
          "internalType": "bytes[]",
          "name": "calldatas",
          "type": "bytes[]"
        },
        {
          "indexed": false,
          "internalType": "uint256",
          "name": "startBlock",
          "type": "uint256"
        },
        {
          "indexed": false,
          "internalType": "uint256",
          "name": "endBlock",
          "type": "uint256"
        },
        {
          "indexed": false,
          "internalType": "string",
          "name": "description",
          "type": "string"
        }
      ],
      "name": "ProposalCreated",
      "type": "event"
    },
    {
      "anonymous": false,
      "inputs": [
        {
          "indexed": false,
          "internalType": "uint256",
          "name": "proposalId",
          "type": "uint256"
        },
        {
          "indexed": false,
          "internalType": "address",
          "name": "proposer",
          "type": "address"
        },
        {
          "indexed": false,
          "internalType": "string",
          "name": "title",
          "type": "string"
        },
        {
          "indexed": false,
          "internalType": "string",
          "name": "description",
          "type": "string"
        },
        {
          "indexed": false,
          "internalType": "string",
          "name": "link",
          "type": "string"
        },
        {
          "indexed": false,
          "internalType": "string",
          "name": "metadata",
          "type": "string"
        },
        {
          "indexed": false,
          "internalType": "bytes",
          "name": "data",
          "type": "bytes"
        },
        {
          "components": [
            {
              "internalType": "uint256",
              "name": "startBlock",
              "type": "uint256"
            },
            {
              "internalType": "uint256",
              "name": "endBlock",
              "type": "uint256"
            }
          ],
          "indexed": false,
          "internalType": "struct GovernorCountingSimpleInternal.Duration",
          "name": "duration",
          "type": "tuple"
        },
        {
          "components": [
            {
              "internalType": "uint256",
              "name": "quorumValue",
              "type": "uint256"
            },
            {
              "internalType": "bool",
              "name": "isQuorumReached",
              "type": "bool"
            },
            {
              "internalType": "enum IGovernorUpgradeable.ProposalState",
              "name": "proposalState",
              "type": "uint8"
            },
            {
              "internalType": "bool",
              "name": "voted",
              "type": "bool"
            },
            {
              "internalType": "address",
              "name": "votedUser",
              "type": "address"
            },
            {
              "internalType": "uint256",
              "name": "againstVotes",
              "type": "uint256"
            },
            {
              "internalType": "uint256",
              "name": "forVotes",
              "type": "uint256"
            },
            {
              "internalType": "uint256",
              "name": "abstainVotes",
              "type": "uint256"
            }
          ],
          "indexed": false,
          "internalType": "struct GovernorCountingSimpleInternal.VotingInformation",
          "name": "votingInformation",
          "type": "tuple"
        },
        {
          "indexed": false,
          "internalType": "uint256",
          "name": "amountOrId",
          "type": "uint256"
        }
      ],
      "name": "ProposalDetails",
      "type": "event"
    },
    {
      "anonymous": false,
      "inputs": [
        {
          "indexed": false,
          "internalType": "uint256",
          "name": "proposalId",
          "type": "uint256"
        }
      ],
      "name": "ProposalExecuted",
      "type": "event"
    },
    {
      "anonymous": false,
      "inputs": [
        {
          "indexed": false,
          "internalType": "uint256",
          "name": "oldProposalThreshold",
          "type": "uint256"
        },
        {
          "indexed": false,
          "internalType": "uint256",
          "name": "newProposalThreshold",
          "type": "uint256"
        }
      ],
      "name": "ProposalThresholdSet",
      "type": "event"
    },
    {
      "anonymous": false,
      "inputs": [
        {
          "indexed": true,
          "internalType": "address",
          "name": "voter",
          "type": "address"
        },
        {
          "indexed": false,
          "internalType": "uint256",
          "name": "proposalId",
          "type": "uint256"
        },
        {
          "indexed": false,
          "internalType": "uint8",
          "name": "support",
          "type": "uint8"
        },
        {
          "indexed": false,
          "internalType": "uint256",
          "name": "weight",
          "type": "uint256"
        },
        {
          "indexed": false,
          "internalType": "string",
          "name": "reason",
          "type": "string"
        }
      ],
      "name": "VoteCast",
      "type": "event"
    },
    {
      "anonymous": false,
      "inputs": [
        {
          "indexed": true,
          "internalType": "address",
          "name": "voter",
          "type": "address"
        },
        {
          "indexed": false,
          "internalType": "uint256",
          "name": "proposalId",
          "type": "uint256"
        },
        {
          "indexed": false,
          "internalType": "uint8",
          "name": "support",
          "type": "uint8"
        },
        {
          "indexed": false,
          "internalType": "uint256",
          "name": "weight",
          "type": "uint256"
        },
        {
          "indexed": false,
          "internalType": "string",
          "name": "reason",
          "type": "string"
        },
        {
          "indexed": false,
          "internalType": "bytes",
          "name": "params",
          "type": "bytes"
        }
      ],
      "name": "VoteCastWithParams",
      "type": "event"
    },
    {
      "anonymous": false,
      "inputs": [
        {
          "indexed": false,
          "internalType": "uint256",
          "name": "oldVotingDelay",
          "type": "uint256"
        },
        {
          "indexed": false,
          "internalType": "uint256",
          "name": "newVotingDelay",
          "type": "uint256"
        }
      ],
      "name": "VotingDelaySet",
      "type": "event"
    },
    {
      "anonymous": false,
      "inputs": [
        {
          "indexed": false,
          "internalType": "uint256",
          "name": "oldVotingPeriod",
          "type": "uint256"
        },
        {
          "indexed": false,
          "internalType": "uint256",
          "name": "newVotingPeriod",
          "type": "uint256"
        }
      ],
      "name": "VotingPeriodSet",
      "type": "event"
    },
    {
      "inputs": [],
      "name": "BALLOT_TYPEHASH",
      "outputs": [
        {
          "internalType": "bytes32",
          "name": "",
          "type": "bytes32"
        }
      ],
      "stateMutability": "view",
      "type": "function"
    },
    {
      "inputs": [],
      "name": "COUNTING_MODE",
      "outputs": [
        {
          "internalType": "string",
          "name": "",
          "type": "string"
        }
      ],
      "stateMutability": "pure",
      "type": "function"
    },
    {
      "inputs": [],
      "name": "EXTENDED_BALLOT_TYPEHASH",
      "outputs": [
        {
          "internalType": "bytes32",
          "name": "",
          "type": "bytes32"
        }
      ],
      "stateMutability": "view",
      "type": "function"
    },
    {
      "inputs": [
        {
          "internalType": "string",
          "name": "title",
          "type": "string"
        }
      ],
      "name": "cancelProposal",
      "outputs": [
        {
          "internalType": "uint256",
          "name": "proposalId",
          "type": "uint256"
        }
      ],
      "stateMutability": "nonpayable",
      "type": "function"
    },
    {
      "inputs": [
        {
          "internalType": "uint256",
          "name": "proposalId",
          "type": "uint256"
        },
        {
          "internalType": "uint8",
          "name": "support",
          "type": "uint8"
        }
      ],
      "name": "castVote",
      "outputs": [
        {
          "internalType": "uint256",
          "name": "",
          "type": "uint256"
        }
      ],
      "stateMutability": "nonpayable",
      "type": "function"
    },
    {
      "inputs": [
        {
          "internalType": "uint256",
          "name": "proposalId",
          "type": "uint256"
        },
        {
          "internalType": "uint8",
          "name": "support",
          "type": "uint8"
        },
        {
          "internalType": "uint8",
          "name": "v",
          "type": "uint8"
        },
        {
          "internalType": "bytes32",
          "name": "r",
          "type": "bytes32"
        },
        {
          "internalType": "bytes32",
          "name": "s",
          "type": "bytes32"
        }
      ],
      "name": "castVoteBySig",
      "outputs": [
        {
          "internalType": "uint256",
          "name": "",
          "type": "uint256"
        }
      ],
      "stateMutability": "nonpayable",
      "type": "function"
    },
    {
      "inputs": [
        {
          "internalType": "uint256",
          "name": "proposalId",
          "type": "uint256"
        },
        {
          "internalType": "uint256",
          "name": "",
          "type": "uint256"
        },
        {
          "internalType": "uint8",
          "name": "support",
          "type": "uint8"
        }
      ],
      "name": "castVotePublic",
      "outputs": [
        {
          "internalType": "uint256",
          "name": "",
          "type": "uint256"
        }
      ],
      "stateMutability": "nonpayable",
      "type": "function"
    },
    {
      "inputs": [
        {
          "internalType": "uint256",
          "name": "proposalId",
          "type": "uint256"
        },
        {
          "internalType": "uint8",
          "name": "support",
          "type": "uint8"
        },
        {
          "internalType": "string",
          "name": "reason",
          "type": "string"
        }
      ],
      "name": "castVoteWithReason",
      "outputs": [
        {
          "internalType": "uint256",
          "name": "",
          "type": "uint256"
        }
      ],
      "stateMutability": "nonpayable",
      "type": "function"
    },
    {
      "inputs": [
        {
          "internalType": "uint256",
          "name": "proposalId",
          "type": "uint256"
        },
        {
          "internalType": "uint8",
          "name": "support",
          "type": "uint8"
        },
        {
          "internalType": "string",
          "name": "reason",
          "type": "string"
        },
        {
          "internalType": "bytes",
          "name": "params",
          "type": "bytes"
        }
      ],
      "name": "castVoteWithReasonAndParams",
      "outputs": [
        {
          "internalType": "uint256",
          "name": "",
          "type": "uint256"
        }
      ],
      "stateMutability": "nonpayable",
      "type": "function"
    },
    {
      "inputs": [
        {
          "internalType": "uint256",
          "name": "proposalId",
          "type": "uint256"
        },
        {
          "internalType": "uint8",
          "name": "support",
          "type": "uint8"
        },
        {
          "internalType": "string",
          "name": "reason",
          "type": "string"
        },
        {
          "internalType": "bytes",
          "name": "params",
          "type": "bytes"
        },
        {
          "internalType": "uint8",
          "name": "v",
          "type": "uint8"
        },
        {
          "internalType": "bytes32",
          "name": "r",
          "type": "bytes32"
        },
        {
          "internalType": "bytes32",
          "name": "s",
          "type": "bytes32"
        }
      ],
      "name": "castVoteWithReasonAndParamsBySig",
      "outputs": [
        {
          "internalType": "uint256",
          "name": "",
          "type": "uint256"
        }
      ],
      "stateMutability": "nonpayable",
      "type": "function"
    },
    {
      "inputs": [
        {
          "internalType": "string",
          "name": "_title",
          "type": "string"
        },
        {
          "internalType": "string",
          "name": "_description",
          "type": "string"
        },
        {
          "internalType": "string",
          "name": "_linkToDiscussion",
          "type": "string"
        },
        {
          "internalType": "string",
          "name": "_metadata",
          "type": "string"
        },
        {
          "internalType": "address",
          "name": "_to",
          "type": "address"
        },
        {
          "internalType": "address",
          "name": "_token",
          "type": "address"
        },
        {
          "internalType": "uint256",
          "name": "_amount",
          "type": "uint256"
        },
        {
          "internalType": "uint256",
          "name": "_nftTokenSerialId",
          "type": "uint256"
        }
      ],
      "name": "createProposal",
      "outputs": [
        {
          "internalType": "uint256",
          "name": "",
          "type": "uint256"
        }
      ],
      "stateMutability": "nonpayable",
      "type": "function"
    },
    {
      "inputs": [
        {
          "internalType": "string",
          "name": "_title",
          "type": "string"
        },
        {
          "internalType": "string",
          "name": "_description",
          "type": "string"
        },
        {
          "internalType": "string",
          "name": "_linkToDiscussion",
          "type": "string"
        },
        {
          "internalType": "string",
          "name": "_metadata",
          "type": "string"
        },
        {
          "internalType": "address",
          "name": "_token",
          "type": "address"
        },
        {
          "internalType": "uint256",
          "name": "_nftTokenSerialId",
          "type": "uint256"
        }
      ],
      "name": "createTokenAssociateProposal",
      "outputs": [
        {
          "internalType": "uint256",
          "name": "",
          "type": "uint256"
        }
      ],
      "stateMutability": "nonpayable",
      "type": "function"
    },
    {
      "inputs": [
        {
          "internalType": "address[]",
          "name": "targets",
          "type": "address[]"
        },
        {
          "internalType": "uint256[]",
          "name": "values",
          "type": "uint256[]"
        },
        {
          "internalType": "bytes[]",
          "name": "calldatas",
          "type": "bytes[]"
        },
        {
          "internalType": "bytes32",
          "name": "descriptionHash",
          "type": "bytes32"
        }
      ],
      "name": "execute",
      "outputs": [
        {
          "internalType": "uint256",
          "name": "",
          "type": "uint256"
        }
      ],
      "stateMutability": "payable",
      "type": "function"
    },
    {
      "inputs": [
        {
          "internalType": "string",
          "name": "title",
          "type": "string"
        }
      ],
      "name": "executeProposal",
      "outputs": [
        {
          "internalType": "uint256",
          "name": "",
          "type": "uint256"
        }
      ],
      "stateMutability": "payable",
      "type": "function"
    },
    {
      "inputs": [],
      "name": "getGODTokenAddress",
      "outputs": [
        {
          "internalType": "address",
          "name": "",
          "type": "address"
        }
      ],
      "stateMutability": "view",
      "type": "function"
    },
    {
      "inputs": [],
      "name": "getHederaServiceVersion",
      "outputs": [
        {
          "internalType": "contract IHederaService",
          "name": "",
          "type": "address"
        }
      ],
      "stateMutability": "view",
      "type": "function"
    },
    {
      "inputs": [
        {
          "internalType": "uint256",
          "name": "proposalId",
          "type": "uint256"
        }
      ],
      "name": "getProposalDetails",
      "outputs": [
        {
          "internalType": "uint256",
          "name": "quorumValue",
          "type": "uint256"
        },
        {
          "internalType": "bool",
          "name": "isQuorumReached",
          "type": "bool"
        },
        {
          "internalType": "enum IGovernorUpgradeable.ProposalState",
          "name": "proposalState",
          "type": "uint8"
        },
        {
          "internalType": "bool",
          "name": "voted",
          "type": "bool"
        },
        {
          "internalType": "uint256",
          "name": "againstVotes",
          "type": "uint256"
        },
        {
          "internalType": "uint256",
          "name": "forVotes",
          "type": "uint256"
        },
        {
          "internalType": "uint256",
          "name": "abstainVotes",
          "type": "uint256"
        },
        {
          "internalType": "address",
          "name": "creator",
          "type": "address"
        },
        {
          "internalType": "string",
          "name": "title",
          "type": "string"
        },
        {
          "internalType": "string",
          "name": "descripition",
          "type": "string"
        },
        {
          "internalType": "string",
          "name": "link",
          "type": "string"
        }
      ],
      "stateMutability": "nonpayable",
      "type": "function"
    },
    {
      "inputs": [
        {
          "internalType": "address",
          "name": "account",
          "type": "address"
        },
        {
          "internalType": "uint256",
          "name": "blockNumber",
          "type": "uint256"
        }
      ],
      "name": "getVotes",
      "outputs": [
        {
          "internalType": "uint256",
          "name": "",
          "type": "uint256"
        }
      ],
      "stateMutability": "view",
      "type": "function"
    },
    {
      "inputs": [
        {
          "internalType": "address",
          "name": "account",
          "type": "address"
        },
        {
          "internalType": "uint256",
          "name": "blockNumber",
          "type": "uint256"
        },
        {
          "internalType": "bytes",
          "name": "params",
          "type": "bytes"
        }
      ],
      "name": "getVotesWithParams",
      "outputs": [
        {
          "internalType": "uint256",
          "name": "",
          "type": "uint256"
        }
      ],
      "stateMutability": "view",
      "type": "function"
    },
    {
      "inputs": [
        {
          "internalType": "uint256",
          "name": "proposalId",
          "type": "uint256"
        },
        {
          "internalType": "address",
          "name": "account",
          "type": "address"
        }
      ],
      "name": "hasVoted",
      "outputs": [
        {
          "internalType": "bool",
          "name": "",
          "type": "bool"
        }
      ],
      "stateMutability": "view",
      "type": "function"
    },
    {
      "inputs": [
        {
          "internalType": "address[]",
          "name": "targets",
          "type": "address[]"
        },
        {
          "internalType": "uint256[]",
          "name": "values",
          "type": "uint256[]"
        },
        {
          "internalType": "bytes[]",
          "name": "calldatas",
          "type": "bytes[]"
        },
        {
          "internalType": "bytes32",
          "name": "descriptionHash",
          "type": "bytes32"
        }
      ],
      "name": "hashProposal",
      "outputs": [
        {
          "internalType": "uint256",
          "name": "",
          "type": "uint256"
        }
      ],
      "stateMutability": "pure",
      "type": "function"
    },
    {
      "inputs": [
        {
          "internalType": "address",
          "name": "_token",
          "type": "address"
        },
        {
          "internalType": "uint256",
          "name": "_votingDelayValue",
          "type": "uint256"
        },
        {
          "internalType": "uint256",
          "name": "_votingPeriodValue",
          "type": "uint256"
        },
        {
          "internalType": "contract IHederaService",
          "name": "_hederaService",
          "type": "address"
        },
        {
          "internalType": "contract ITokenHolder",
          "name": "_tokenHolder",
          "type": "address"
        },
        {
          "internalType": "uint256",
          "name": "_quorumThresholdInBsp",
          "type": "uint256"
        },
        {
          "internalType": "contract ISystemRoleBasedAccess",
          "name": "_iSystemRoleBasedAccess",
          "type": "address"
        }
      ],
      "name": "initialize",
      "outputs": [],
      "stateMutability": "nonpayable",
      "type": "function"
    },
    {
      "inputs": [],
      "name": "name",
      "outputs": [
        {
          "internalType": "string",
          "name": "",
          "type": "string"
        }
      ],
      "stateMutability": "view",
      "type": "function"
    },
    {
      "inputs": [
        {
          "internalType": "address",
          "name": "",
          "type": "address"
        },
        {
          "internalType": "address",
          "name": "",
          "type": "address"
        },
        {
          "internalType": "uint256[]",
          "name": "",
          "type": "uint256[]"
        },
        {
          "internalType": "uint256[]",
          "name": "",
          "type": "uint256[]"
        },
        {
          "internalType": "bytes",
          "name": "",
          "type": "bytes"
        }
      ],
      "name": "onERC1155BatchReceived",
      "outputs": [
        {
          "internalType": "bytes4",
          "name": "",
          "type": "bytes4"
        }
      ],
      "stateMutability": "nonpayable",
      "type": "function"
    },
    {
      "inputs": [
        {
          "internalType": "address",
          "name": "",
          "type": "address"
        },
        {
          "internalType": "address",
          "name": "",
          "type": "address"
        },
        {
          "internalType": "uint256",
          "name": "",
          "type": "uint256"
        },
        {
          "internalType": "uint256",
          "name": "",
          "type": "uint256"
        },
        {
          "internalType": "bytes",
          "name": "",
          "type": "bytes"
        }
      ],
      "name": "onERC1155Received",
      "outputs": [
        {
          "internalType": "bytes4",
          "name": "",
          "type": "bytes4"
        }
      ],
      "stateMutability": "nonpayable",
      "type": "function"
    },
    {
      "inputs": [
        {
          "internalType": "address",
          "name": "",
          "type": "address"
        },
        {
          "internalType": "address",
          "name": "",
          "type": "address"
        },
        {
          "internalType": "uint256",
          "name": "",
          "type": "uint256"
        },
        {
          "internalType": "bytes",
          "name": "",
          "type": "bytes"
        }
      ],
      "name": "onERC721Received",
      "outputs": [
        {
          "internalType": "bytes4",
          "name": "",
          "type": "bytes4"
        }
      ],
      "stateMutability": "nonpayable",
      "type": "function"
    },
    {
      "inputs": [],
      "name": "owner",
      "outputs": [
        {
          "internalType": "address",
          "name": "",
          "type": "address"
        }
      ],
      "stateMutability": "view",
      "type": "function"
    },
    {
      "inputs": [
        {
          "internalType": "uint256",
          "name": "proposalId",
          "type": "uint256"
        }
      ],
      "name": "proposalDeadline",
      "outputs": [
        {
          "internalType": "uint256",
          "name": "",
          "type": "uint256"
        }
      ],
      "stateMutability": "view",
      "type": "function"
    },
    {
      "inputs": [
        {
          "internalType": "uint256",
          "name": "proposalId",
          "type": "uint256"
        }
      ],
      "name": "proposalSnapshot",
      "outputs": [
        {
          "internalType": "uint256",
          "name": "",
          "type": "uint256"
        }
      ],
      "stateMutability": "view",
      "type": "function"
    },
    {
      "inputs": [],
      "name": "proposalThreshold",
      "outputs": [
        {
          "internalType": "uint256",
          "name": "",
          "type": "uint256"
        }
      ],
      "stateMutability": "view",
      "type": "function"
    },
    {
      "inputs": [
        {
          "internalType": "uint256",
          "name": "proposalId",
          "type": "uint256"
        }
      ],
      "name": "proposalVotes",
      "outputs": [
        {
          "internalType": "uint256",
          "name": "againstVotes",
          "type": "uint256"
        },
        {
          "internalType": "uint256",
          "name": "forVotes",
          "type": "uint256"
        },
        {
          "internalType": "uint256",
          "name": "abstainVotes",
          "type": "uint256"
        }
      ],
      "stateMutability": "view",
      "type": "function"
    },
    {
      "inputs": [
        {
          "internalType": "address[]",
          "name": "targets",
          "type": "address[]"
        },
        {
          "internalType": "uint256[]",
          "name": "values",
          "type": "uint256[]"
        },
        {
          "internalType": "bytes[]",
          "name": "calldatas",
          "type": "bytes[]"
        },
        {
          "internalType": "string",
          "name": "description",
          "type": "string"
        }
      ],
      "name": "propose",
      "outputs": [
        {
          "internalType": "uint256",
          "name": "",
          "type": "uint256"
        }
      ],
      "stateMutability": "nonpayable",
      "type": "function"
    },
    {
      "inputs": [
        {
          "internalType": "uint256",
          "name": "",
          "type": "uint256"
        }
      ],
      "name": "quorum",
      "outputs": [
        {
          "internalType": "uint256",
          "name": "",
          "type": "uint256"
        }
      ],
      "stateMutability": "view",
      "type": "function"
    },
    {
      "inputs": [
        {
          "internalType": "uint256",
          "name": "proposalId",
          "type": "uint256"
        }
      ],
      "name": "quorumReached",
      "outputs": [
        {
          "internalType": "bool",
          "name": "",
          "type": "bool"
        }
      ],
      "stateMutability": "view",
      "type": "function"
    },
    {
      "inputs": [
        {
          "internalType": "address",
          "name": "target",
          "type": "address"
        },
        {
          "internalType": "uint256",
          "name": "value",
          "type": "uint256"
        },
        {
          "internalType": "bytes",
          "name": "data",
          "type": "bytes"
        }
      ],
      "name": "relay",
      "outputs": [],
      "stateMutability": "payable",
      "type": "function"
    },
    {
      "inputs": [],
      "name": "renounceOwnership",
      "outputs": [],
      "stateMutability": "nonpayable",
      "type": "function"
    },
    {
      "inputs": [
        {
          "internalType": "uint256",
          "name": "newProposalThreshold",
          "type": "uint256"
        }
      ],
      "name": "setProposalThreshold",
      "outputs": [],
      "stateMutability": "nonpayable",
      "type": "function"
    },
    {
      "inputs": [
        {
          "internalType": "uint256",
          "name": "newVotingDelay",
          "type": "uint256"
        }
      ],
      "name": "setVotingDelay",
      "outputs": [],
      "stateMutability": "nonpayable",
      "type": "function"
    },
    {
      "inputs": [
        {
          "internalType": "uint256",
          "name": "newVotingPeriod",
          "type": "uint256"
        }
      ],
      "name": "setVotingPeriod",
      "outputs": [],
      "stateMutability": "nonpayable",
      "type": "function"
    },
    {
      "inputs": [
        {
          "internalType": "uint256",
          "name": "proposalId",
          "type": "uint256"
        }
      ],
      "name": "state",
      "outputs": [
        {
          "internalType": "enum IGovernorUpgradeable.ProposalState",
          "name": "",
          "type": "uint8"
        }
      ],
      "stateMutability": "view",
      "type": "function"
    },
    {
      "inputs": [
        {
          "internalType": "bytes4",
          "name": "interfaceId",
          "type": "bytes4"
        }
      ],
      "name": "supportsInterface",
      "outputs": [
        {
          "internalType": "bool",
          "name": "",
          "type": "bool"
        }
      ],
      "stateMutability": "view",
      "type": "function"
    },
    {
      "inputs": [
        {
          "internalType": "address",
          "name": "newOwner",
          "type": "address"
        }
      ],
      "name": "transferOwnership",
      "outputs": [],
      "stateMutability": "nonpayable",
      "type": "function"
    },
    {
      "inputs": [
        {
          "internalType": "contract IHederaService",
          "name": "newHederaService",
          "type": "address"
        }
      ],
      "name": "upgradeHederaService",
      "outputs": [],
      "stateMutability": "nonpayable",
      "type": "function"
    },
    {
      "inputs": [],
      "name": "version",
      "outputs": [
        {
          "internalType": "string",
          "name": "",
          "type": "string"
        }
      ],
      "stateMutability": "view",
      "type": "function"
    },
    {
      "inputs": [
        {
          "internalType": "uint256",
          "name": "proposalId",
          "type": "uint256"
        }
      ],
      "name": "voteSucceeded",
      "outputs": [
        {
          "internalType": "bool",
          "name": "",
          "type": "bool"
        }
      ],
      "stateMutability": "view",
      "type": "function"
    },
    {
      "inputs": [],
      "name": "votingDelay",
      "outputs": [
        {
          "internalType": "uint256",
          "name": "",
          "type": "uint256"
        }
      ],
      "stateMutability": "view",
      "type": "function"
    },
    {
      "inputs": [],
      "name": "votingPeriod",
      "outputs": [
        {
          "internalType": "uint256",
          "name": "",
          "type": "uint256"
        }
      ],
      "stateMutability": "view",
      "type": "function"
    },
    {
      "stateMutability": "payable",
      "type": "receive"
    }
  ],
  "bytecode": "0x608060405234801561001057600080fd5b5061599980620000216000396000f3fe60806040526004361061021c5760003560e01c806301ffc9a71461022a57806302a251a31461025f578063034201811461027e57806306fdde031461029e578063094f0823146102c0578063150b7a02146102e05780632656227d146103245780632cfe27f0146103375780632d63f6931461034a5780632e21da9f1461036a5780632fe3e2611461038a5780633932abb1146103ac5780633b4d01a7146103c15780633bccf4fd146103f85780633e4f49e61461041857806343859632146104455780634c0ddfd7146104655780635182ad8b1461048d578063544ffc9c146104ad57806354fd4d50146104e857806356781388146104fd5780635f398a141461051d5780636dab6f751461053d5780636fe764901461055c57806370b0f6601461057c578063715018a61461059c5780637b3c71d3146105b15780637d5e81e2146105d15780638d73b031146105f15780638da5cb5b146106115780639a802a6d14610626578063b399131f14610646578063b58131b014610666578063bc197c811461067b578063c01f9e37146106a7578063c28bc2fa146106c7578063c59057e4146106da578063d26d681f146106fa578063d4a8dd981461071a578063dd4e2ba51461073a578063deaaa7cc14610780578063ea0217cf146107a2578063eb9019d4146107c2578063ece40cc1146107e2578063f23a6e6114610802578063f2fde38b1461082e578063f8ce560a1461084e57600080fd5b3661022557005b005b600080fd5b34801561023657600080fd5b5061024a61024536600461438b565b61086e565b60405190151581526020015b60405180910390f35b34801561026b57600080fd5b5060fe545b604051908152602001610256565b34801561028a57600080fd5b506102706102993660046144c3565b6108db565b3480156102aa57600080fd5b506102b36109c1565b60405161025691906145b9565b3480156102cc57600080fd5b506102706102db3660046145cc565b610a53565b3480156102ec57600080fd5b5061030b6102fb366004614621565b630a85bd0160e11b949350505050565b6040516001600160e01b03199091168152602001610256565b6102706103323660046147fd565b610b9b565b61027061034536600461488c565b610cc7565b34801561035657600080fd5b506102706103653660046148c0565b610cfa565b34801561037657600080fd5b506102706103853660046148d9565b610d31565b34801561039657600080fd5b5061027060008051602061590483398151915281565b3480156103b857600080fd5b5060fd54610270565b3480156103cd57600080fd5b506103e16103dc3660046148c0565b610d80565b6040516102569b9a999897969594939291906149d6565b34801561040457600080fd5b50610270610413366004614a6a565b6111d9565b34801561042457600080fd5b506104386104333660046148c0565b611232565b6040516102569190614ab8565b34801561045157600080fd5b5061024a610460366004614ac6565b611332565b34801561047157600080fd5b50610194546001600160a01b03165b6040516102569190614af6565b34801561049957600080fd5b506102706104a836600461488c565b611362565b3480156104b957600080fd5b506104cd6104c83660046148c0565b61137d565b60408051938452602084019290925290820152606001610256565b3480156104f457600080fd5b506102b361139d565b34801561050957600080fd5b50610270610518366004614b0a565b6113b8565b34801561052957600080fd5b50610270610538366004614b36565b6113e1565b34801561054957600080fd5b50610195546001600160a01b0316610480565b34801561056857600080fd5b50610270610577366004614bb9565b61142b565b34801561058857600080fd5b506102236105973660046148c0565b6115c9565b3480156105a857600080fd5b5061022361160b565b3480156105bd57600080fd5b506102706105cc366004614c9a565b61161f565b3480156105dd57600080fd5b506102706105ec366004614cf3565b611667565b3480156105fd57600080fd5b5061024a61060c3660046148c0565b611906565b34801561061d57600080fd5b50610480611911565b34801561063257600080fd5b50610270610641366004614d93565b611921565b34801561065257600080fd5b50610223610661366004614deb565b61192e565b34801561067257600080fd5b50610270611b7a565b34801561068757600080fd5b5061030b610696366004614e66565b63bc197c8160e01b95945050505050565b3480156106b357600080fd5b506102706106c23660046148c0565b611b8a565b6102236106d5366004614ef9565b611bb9565b3480156106e657600080fd5b506102706106f53660046147fd565b611c80565b34801561070657600080fd5b50610223610715366004614f3c565b611cba565b34801561072657600080fd5b5061024a6107353660046148c0565b611d3e565b34801561074657600080fd5b506040805180820190915260208082527f737570706f72743d627261766f2671756f72756d3d666f722c6162737461696e908201526102b3565b34801561078c57600080fd5b506102706000805160206158e483398151915281565b3480156107ae57600080fd5b506102236107bd3660046148c0565b611d49565b3480156107ce57600080fd5b506102706107dd366004614f59565b611d88565b3480156107ee57600080fd5b506102236107fd3660046148c0565b611da9565b34801561080e57600080fd5b5061030b61081d366004614f85565b63f23a6e6160e01b95945050505050565b34801561083a57600080fd5b50610223610849366004614f3c565b611de8565b34801561085a57600080fd5b506102706108693660046148c0565b611e5e565b60006001600160e01b0319821663bf26d89760e01b148061089f57506001600160e01b031982166379dd796f60e01b145b806108ba57506001600160e01b03198216630271189760e51b145b806108d557506301ffc9a760e01b6001600160e01b03198316145b92915050565b60008061096d6109656000805160206159048339815191528c8c8c8c604051610905929190614fed565b60405180910390208b8051906020012060405160200161094a959493929190948552602085019390935260ff9190911660408401526060830152608082015260a00190565b60405160208183030381529060405280519060200120611fc7565b868686612015565b90506109b38a828b8b8b8080601f0160208091040260200160405190810160405280939291908181526020018383808284376000920191909152508d9250612033915050565b9a9950505050505050505050565b606060cb80546109d090614ffd565b80601f01602080910402602001604051908101604052809291908181526020018280546109fc90614ffd565b8015610a495780601f10610a1e57610100808354040283529160200191610a49565b820191906000526020600020905b815481529060010190602001808311610a2c57829003601f168201915b5050505050905090565b60003381610a6086612197565b90506000610a7f836000604051806020016040528060008152506121f8565b11610acc5760405162461bcd60e51b8152602060048201526018602482015277474353493a206c6f636b20746f6b656e20746f20766f746560401b60448201526064015b60405180910390fd5b6101965460405163bb784f6560e01b8152600481018890526001600160a01b039091169063bb784f6590602401600060405180830381600087803b158015610b1357600080fd5b505af1158015610b27573d6000803e3d6000fd5b505050506000610b488784876040518060200160405280600081525061226b565b600683018054600181018255600091825260209091200180546001600160a01b0319166001600160a01b0386161790559050610b8387610d80565b50999c505050505050505050505050505b9392505050565b600080610baa86868686611c80565b90506000610bb782611232565b90506004816007811115610bcd57610bcd61499e565b1480610bea57506005816007811115610be857610be861499e565b145b610c405760405162461bcd60e51b815260206004820152602160248201527f476f7665726e6f723a2070726f706f73616c206e6f74207375636365737366756044820152601b60fa1b6064820152608401610ac3565b600082815260cc602052604090819020600201805460ff19166001179055517f712ae1383f79ac853f8d882153778e0260ef8f03b504e2866e0593e04d2b291f90610c8e9084815260200190565b60405180910390a1610ca38288888888612297565b610cb08288888888612324565b610cbd8288888888612297565b5095945050505050565b600080600080610cd5612343565b875160208901209295509093509150610cf084848484610b9b565b9695505050505050565b600081815260cc602090815260408083208151928301909152546001600160401b0316908190525b6001600160401b031692915050565b6000610d758787878786600289604051602001610d619291909182526001600160a01b0316602082015260400190565b604051602081830303815290604052612447565b979650505050505050565b60008060008060008060008060608060606000610d9c8d612197565b60408051610100810190915281546001600160a01b03168152600182018054919291602084019190610dcd90614ffd565b80601f0160208091040260200160405190810160405280929190818152602001828054610df990614ffd565b8015610e465780601f10610e1b57610100808354040283529160200191610e46565b820191906000526020600020905b815481529060010190602001808311610e2957829003601f168201915b50505050508152602001600282018054610e5f90614ffd565b80601f0160208091040260200160405190810160405280929190818152602001828054610e8b90614ffd565b8015610ed85780601f10610ead57610100808354040283529160200191610ed8565b820191906000526020600020905b815481529060010190602001808311610ebb57829003601f168201915b50505050508152602001600382018054610ef190614ffd565b80601f0160208091040260200160405190810160405280929190818152602001828054610f1d90614ffd565b8015610f6a5780601f10610f3f57610100808354040283529160200191610f6a565b820191906000526020600020905b815481529060010190602001808311610f4d57829003601f168201915b50505050508152602001600482018054610f8390614ffd565b80601f0160208091040260200160405190810160405280929190818152602001828054610faf90614ffd565b8015610ffc5780601f10610fd157610100808354040283529160200191610ffc565b820191906000526020600020905b815481529060010190602001808311610fdf57829003601f168201915b5050505050815260200160058201805461101590614ffd565b80601f016020809104026020016040519081016040528092919081815260200182805461104190614ffd565b801561108e5780601f106110635761010080835404028352916020019161108e565b820191906000526020600020905b81548152906001019060200180831161107157829003601f168201915b50505050508152602001600682018054806020026020016040519081016040528092919081815260200182805480156110f057602002820191906000526020600020905b81546001600160a01b031681526001909101906020018083116110d2575b50505050508152602001600782015481525050905060006111108e612482565b905080600001519c5080602001519b5080604001519a50806060015199508060a0015198508060c0015197508060e00151965081600001519550816020015194508160400151935081606001519250611167614291565b6111708f610cfa565b815261117b8f611b8a565b8160200181815250506000805160206159448339815191528f8888888888608001518960a00151888a8c60e001516040516111bf9a99989796959493929190615098565b60405180910390a150505091939597999b90929496989a50565b604080516000805160206158e4833981519152602082015290810186905260ff851660608201526000908190611215906109659060800161094a565b9050610d758782886040518060200160405280600081525061226b565b600081815260cc60205260408120600281015460ff16156112565750600792915050565b6002810154610100900460ff16156112715750600292915050565b600061127c84610cfa565b9050806000036112ce5760405162461bcd60e51b815260206004820152601d60248201527f476f7665726e6f723a20756e6b6e6f776e2070726f706f73616c2069640000006044820152606401610ac3565b4381106112df575060009392505050565b60006112ea85611b8a565b90504381106112fe57506001949350505050565b6113078561252c565b8015611317575061131785612564565b1561132757506004949350505050565b506003949350505050565b600082815261012f602090815260408083206001600160a01b038516845260030190915290205460ff1692915050565b600061136d8261257f565b9050611378816129b8565b919050565b600090815261012f60205260409020805460018201546002909201549092565b6040805180820190915260018152603160f81b602082015290565b6000803390506113d98482856040518060200160405280600081525061226b565b949350505050565b600080339050610d7587828888888080601f0160208091040260200160405190810160405280939291908181526020018383808284376000920191909152508a9250612033915050565b600080831161147c5760405162461bcd60e51b815260206004820152601d60248201527f4754543a20726571756972656420706f736974697665206e756d6265720000006044820152606401610ac3565b610194546001600160a01b03858116911614801561149957508183145b156115065760405162461bcd60e51b815260206004820152603760248201527f4754543a204e465420474f4420746f6b656e20616e6420746f6b656e20746f206044820152763a3930b739b332b91031b0b713ba1031329039b0b6b29760491b6064820152608401610ac3565b60606001600160a01b0385166115525760408051600360208201526001600160a01b038816918101919091526060810185905260800160405160208183030381529060405290506115bb565b6101955460009061156c906001600160a01b031687612a1e565b60408051600160208201526001600160a01b03808b1692820192909252908816606082015260808101879052600382900b60a082015290915060c0016040516020818303038152906040529150505b6109b38a8a8a8a8786612447565b3330146115e85760405162461bcd60e51b8152600401610ac39061514c565b6115ff565b806115f860cd612aeb565b036115ed57505b61160881612b61565b50565b611613612ba1565b61161d6000612c00565b565b600080339050610cf086828787878080601f01602080910402602001604051908101604052809392919081815260200183838082843760009201919091525061226b92505050565b6000611671611b7a565b611680336107dd600143615194565b10156116e85760405162461bcd60e51b815260206004820152603160248201527f476f7665726e6f723a2070726f706f73657220766f7465732062656c6f7720706044820152701c9bdc1bdcd85b081d1a1c995cda1bdb19607a1b6064820152608401610ac3565b60006116fd8686868680519060200120611c80565b905084518651146117205760405162461bcd60e51b8152600401610ac3906151a7565b83518651146117415760405162461bcd60e51b8152600401610ac3906151a7565b600086511161178d5760405162461bcd60e51b815260206004820152601860248201527711dbdd995c9b9bdc8e88195b5c1d1e481c1c9bdc1bdcd85b60421b6044820152606401610ac3565b600081815260cc6020908152604091829020825191820190925281546001600160401b0316908190521561180d5760405162461bcd60e51b815260206004820152602160248201527f476f7665726e6f723a2070726f706f73616c20616c72656164792065786973746044820152607360f81b6064820152608401610ac3565b600061182061181b60fd5490565b612c53565b61182943612c53565b61183391906151e8565b9050600061184361181b60fe5490565b61184d90836151e8565b90506118598383612cbf565b6118666001840182612cbf565b7f7d84a6263ae0d98d3329bd7b46bb4e8d6f98cd35a7adb45c274c8b7fd5ebd5e084338b8b8d516001600160401b038111156118a4576118a461440e565b6040519080825280602002602001820160405280156118d757816020015b60608152602001906001900390816118c25790505b508c88888e6040516118f1999897969594939291906152d8565b60405180910390a15091979650505050505050565b60006108d582612564565b610161546001600160a01b031690565b60006113d98484846121f8565b600054610100900460ff161580801561194e5750600054600160ff909116105b8061196f575061195d30612cdc565b15801561196f575060005460ff166001145b6119d25760405162461bcd60e51b815260206004820152602e60248201527f496e697469616c697a61626c653a20636f6e747261637420697320616c72656160448201526d191e481a5b9a5d1a585b1a5e995960921b6064820152608401610ac3565b6000805460ff1916600117905580156119f5576000805461ff0019166101001790555b6119fd612ceb565b61019580546001600160a01b038088166001600160a01b03199283161790925561019680548784169083161790556101948054928b16929091169190911790558215611a495782611a4d565b6101f45b6101975561019980546001600160a01b0319166001600160a01b0384161790556040805180820190915260198152782432b232b930aa37b5b2b721b932b0ba32a3b7bb32b93737b960391b6020820152611aa690612d1a565b611ab287876000612d5b565b611aba612d92565b61019454611ad0906001600160a01b0316612db9565b61019554604080518082018252600d81526c4865646572615365727669636560981b602082015290516001600160a01b039092169160009160008051602061587c83398151915291611b2291906145b9565b60405180910390a38015611b70576000805461ff0019169055604051600181527f7f26b83ff96e1f2b6a682f133852f6798a09c465da95921460cefb38474024989060200160405180910390a15b5050505050505050565b6000611b8560ff5490565b905090565b600081815260cc602090815260408083208151928301909152600101546001600160401b031690819052610d22565b333014611bd85760405162461bcd60e51b8152600401610ac39061514c565b611bef565b80611be860cd612aeb565b03611bdd57505b600080856001600160a01b0316858585604051611c0d929190614fed565b60006040518083038185875af1925050503d8060008114611c4a576040519150601f19603f3d011682016040523d82523d6000602084013e611c4f565b606091505b5091509150611c7782826040518060600160405280602881526020016158bc60289139612e30565b50505050505050565b600084848484604051602001611c9994939291906153c7565b60408051601f19818403018152919052805160209091012095945050505050565b611cc2612ba1565b61019554604080518082018252600d81526c4865646572615365727669636560981b602082015290516001600160a01b0380851693169160008051602061587c83398151915291611d1391906145b9565b60405180910390a361019580546001600160a01b0319166001600160a01b0392909216919091179055565b60006108d58261252c565b333014611d685760405162461bcd60e51b8152600401610ac39061514c565b611d7f565b80611d7860cd612aeb565b03611d6d57505b61160881612e49565b6000610b948383611da460408051602081019091526000815290565b6121f8565b333014611dc85760405162461bcd60e51b8152600401610ac39061514c565b611ddf565b80611dd860cd612aeb565b03611dcd57505b61160881612ee9565b611df0612ba1565b6001600160a01b038116611e555760405162461bcd60e51b815260206004820152602660248201527f4f776e61626c653a206e6577206f776e657220697320746865207a65726f206160448201526564647265737360d01b6064820152608401610ac3565b61160881612c00565b6101965460408051636e21dcf360e11b815290516000926001600160a01b03169163dc43b9e69160048083019260209291908290030181865afa158015611ea9573d6000803e3d6000fd5b505050506040513d601f19601f82011682018060405250810190611ecd9190615412565b611fbf5761019454604080516318160ddd60e01b815290516000926001600160a01b0316916318160ddd9160048083019260209291908290030181865afa158015611f1c573d6000803e3d6000fd5b505050506040513d601f19601f82011682018060405250810190611f409190615434565b905060006101975482611f53919061544d565b9050612710811015611fb35760405162461bcd60e51b815260206004820152602360248201527f474353493a2028474f4420746f6b656e202a2071756f72756d29203c2031302c60448201526203030360ec1b6064820152608401610ac3565b6113d961271082615464565b506001919050565b60006108d5611fd4612f29565b8360405161190160f01b6020820152602281018390526042810182905260009060620160405160208183030381529060405280519060200120905092915050565b600080600061202687878787612fa4565b91509150610cbd8161305e565b600085815260cc60205260408120600161204c88611232565b600781111561205d5761205d61499e565b146120b65760405162461bcd60e51b815260206004820152602360248201527f476f7665726e6f723a20766f7465206e6f742063757272656e746c792061637460448201526269766560e81b6064820152608401610ac3565b604080516020810190915281546001600160401b0316908190526000906120df908890866121f8565b90506120ee88888884886131a3565b835160000361214357866001600160a01b03167fb8e138887d0aa13bab447e82de9d5c1777041ecd21ca36ba824ff1e6c07ddda4898884896040516121369493929190615486565b60405180910390a2610d75565b866001600160a01b03167fe2babfbac5889a709b63bb7f598b324e08bc5a4fb9ec647fb3cbc9ec07eb871289888489896040516121849594939291906154ae565b60405180910390a2979650505050505050565b60008181526101986020526040902080546001600160a01b03166113785760405162461bcd60e51b815260206004820152601860248201527711d0d4d24e88141c9bdc1bdcd85b081b9bdd08199bdd5b9960421b6044820152606401610ac3565b6101965460405163121d351b60e01b81526000916001600160a01b03169063121d351b9061222a908790600401614af6565b602060405180830381865afa158015612247573d6000803e3d6000fd5b505050506040513d601f19601f820116820180604052508101906113d99190615434565b600061228e8585858561228960408051602081019091526000815290565b612033565b95945050505050565b61231d565b845181101561231b57306001600160a01b03168582815181106122c1576122c16154f4565b60200260200101516001600160a01b03160361230b5761230b8382815181106122ec576122ec6154f4565b60200260200101518051906020012060cd61331e90919063ffffffff16565b6123148161550a565b905061229c565b505b5050505050565b61232d8561335a565b61233a858585858561343a565b61231d856129b8565b604080516001808252818301909252606091829182916020808301908036833701905050925060008360008151811061237e5761237e6154f4565b6001600160a01b03929092166020928302919091018201526040805160018082528183019092529182810190803683370190505091506000826000815181106123c9576123c96154f4565b602090810291909101015260408051600180825281830190925290816020015b60608152602001906001900390816123e9579050509050600060405180604001604052806005815260200164626c616e6b60d81b81525090508082600081518110612436576124366154f4565b602002602001018190525050909192565b60008061245888888888878961345e565b6000818152610198602052604090209091506005016124778482615569565b50610d758482613775565b61248a6142ab565b60008060006124988561137d565b9250925092506124a66142ab565b6124b06000611e5e565b81526124bb8661252c565b151560208201526124cb86611232565b816040019060078111156124e1576124e161499e565b908160078111156124f4576124f461499e565b9052506125018633611332565b1515606082015233608082015260e081019190915260c081019190915260a081019190915292915050565b600081815261012f602052604081206002810154600182015461254f9190615628565b61255b61086985610cfa565b11159392505050565b600090815261012f6020526040902080546001909101541190565b60008060008061258d612343565b8751602089012092955090935091506125a884848484611c80565b945060006125b586612197565b60408051610100810190915281546001600160a01b031681526001820180549192916020840191906125e690614ffd565b80601f016020809104026020016040519081016040528092919081815260200182805461261290614ffd565b801561265f5780601f106126345761010080835404028352916020019161265f565b820191906000526020600020905b81548152906001019060200180831161264257829003601f168201915b5050505050815260200160028201805461267890614ffd565b80601f01602080910402602001604051908101604052809291908181526020018280546126a490614ffd565b80156126f15780601f106126c6576101008083540402835291602001916126f1565b820191906000526020600020905b8154815290600101906020018083116126d457829003601f168201915b5050505050815260200160038201805461270a90614ffd565b80601f016020809104026020016040519081016040528092919081815260200182805461273690614ffd565b80156127835780601f1061275857610100808354040283529160200191612783565b820191906000526020600020905b81548152906001019060200180831161276657829003601f168201915b5050505050815260200160048201805461279c90614ffd565b80601f01602080910402602001604051908101604052809291908181526020018280546127c890614ffd565b80156128155780601f106127ea57610100808354040283529160200191612815565b820191906000526020600020905b8154815290600101906020018083116127f857829003601f168201915b5050505050815260200160058201805461282e90614ffd565b80601f016020809104026020016040519081016040528092919081815260200182805461285a90614ffd565b80156128a75780601f1061287c576101008083540402835291602001916128a7565b820191906000526020600020905b81548152906001019060200180831161288a57829003601f168201915b505050505081526020016006820180548060200260200160405190810160405280929190818152602001828054801561290957602002820191906000526020600020905b81546001600160a01b031681526001909101906020018083116128eb575b50505050508152602001600782015481525050905080600001516001600160a01b0316336001600160a01b0316146129835760405162461bcd60e51b815260206004820152601e60248201527f474353493a204f6e6c792070726f706f7365722063616e2063616e63656c00006044820152606401610ac3565b61298f858585856137b0565b955061299a866138ce565b6129a386610d80565b50505050505050505050505050505050919050565b600081815261019860209081526040808320600701548084526101cc9092529091205415612a1a5760008181526101cc60205260408082208290555160008051602061589c83398151915291612a11918591859161563b565b60405180910390a15b5050565b6000806000846001600160a01b0316635d2c5bad856040518263ffffffff1660e01b8152600401612a4f9190614af6565b60408051808303816000875af1158015612a6d573d6000803e3d6000fd5b505050506040513d601f19601f82011682018060405250810190612a919190615665565b91509150601660030b8260070b146113d95760405162461bcd60e51b815260206004820152601e60248201527f546f6b656e4f7065726174696f6e733a20696e76616c696420746f6b656e00006044820152606401610ac3565b6000612b068254600f81810b600160801b909204900b131590565b15612b2457604051631ed9509560e11b815260040160405180910390fd5b508054600f0b6000818152600180840160205260408220805492905583546001600160801b03191692016001600160801b03169190911790915590565b7fc565b045403dc03c2eea82b81a0465edad9e2e7fc4d97e11421c209da93d7a9360fd5482604051612b94929190615697565b60405180910390a160fd55565b33612baa611911565b6001600160a01b03161461161d5760405162461bcd60e51b815260206004820181905260248201527f4f776e61626c653a2063616c6c6572206973206e6f7420746865206f776e65726044820152606401610ac3565b61016180546001600160a01b038381166001600160a01b0319831681179093556040519116919082907f8be0079c531659141344cd1fd0a4f28419497f9722a3daafe3b4186f6b6457e090600090a35050565b60006001600160401b03821115612cbb5760405162461bcd60e51b815260206004820152602660248201527f53616665436173743a2076616c756520646f65736e27742066697420696e203660448201526534206269747360d01b6064820152608401610ac3565b5090565b81546001600160401b0319166001600160401b0391909116179055565b6001600160a01b03163b151590565b600054610100900460ff16612d125760405162461bcd60e51b8152600401610ac3906156a5565b61161d6139b8565b600054610100900460ff16612d415760405162461bcd60e51b8152600401610ac3906156a5565b612d5281612d4d61139d565b6139e8565b61160881613a29565b600054610100900460ff16612d825760405162461bcd60e51b8152600401610ac3906156a5565b612d8d838383613a5c565b505050565b600054610100900460ff1661161d5760405162461bcd60e51b8152600401610ac3906156a5565b61019554600090612dd4906001600160a01b03163084613a9e565b905060168114801590612de8575060c28114155b15612a1a5760405162461bcd60e51b815260206004820152601860248201527711d0d4d24e88185cdcdbd8da585d1a5bdb8819985a5b195960421b6044820152606401610ac3565b60608315612e3f575081610b94565b610b948383613b0d565b60008111612ea95760405162461bcd60e51b815260206004820152602760248201527f476f7665726e6f7253657474696e67733a20766f74696e6720706572696f6420604482015266746f6f206c6f7760c81b6064820152608401610ac3565b7f7e3f7f0708a84de9203036abaa450dccc85ad5ff52f78c170f3edb55cf5e882860fe5482604051612edc929190615697565b60405180910390a160fe55565b7fccb45da8d5717e6c4544694297c4ba5cf151d455c9bb0ed4fc7a38411bc0546160ff5482604051612f1c929190615697565b60405180910390a160ff55565b6000611b857f8b73c3c69bb8fe3d512ecc4cf759cc79239f7b179b0ffacaa9a75d522b39400f612f5860655490565b6066546040805160208101859052908101839052606081018290524660808201523060a082015260009060c0016040516020818303038152906040528051906020012090509392505050565b6000806fa2a8918ca85bafe22016d0b997e4df60600160ff1b03831115612fd15750600090506003613055565b6040805160008082526020820180845289905260ff881692820192909252606081018690526080810185905260019060a0016020604051602081039080840390855afa158015613025573d6000803e3d6000fd5b5050604051601f1901519150506001600160a01b03811661304e57600060019250925050613055565b9150600090505b94509492505050565b60008160048111156130725761307261499e565b0361307a5750565b600181600481111561308e5761308e61499e565b036130d65760405162461bcd60e51b815260206004820152601860248201527745434453413a20696e76616c6964207369676e617475726560401b6044820152606401610ac3565b60028160048111156130ea576130ea61499e565b036131375760405162461bcd60e51b815260206004820152601f60248201527f45434453413a20696e76616c6964207369676e6174757265206c656e677468006044820152606401610ac3565b600381600481111561314b5761314b61499e565b036116085760405162461bcd60e51b815260206004820152602260248201527f45434453413a20696e76616c6964207369676e6174757265202773272076616c604482015261756560f01b6064820152608401610ac3565b600085815261012f602090815260408083206001600160a01b0388168452600381019092529091205460ff161561322c5760405162461bcd60e51b815260206004820152602760248201527f476f7665726e6f72566f74696e6753696d706c653a20766f746520616c726561604482015266191e4818d85cdd60ca1b6064820152608401610ac3565b6001600160a01b03851660009081526003820160205260409020805460ff1916600117905560ff8416613278578281600001600082825461326d9190615628565b9091555061231b9050565b60001960ff851601613298578281600101600082825461326d9190615628565b60011960ff8516016132b8578281600201600082825461326d9190615628565b60405162461bcd60e51b815260206004820152603560248201527f476f7665726e6f72566f74696e6753696d706c653a20696e76616c69642076616044820152746c756520666f7220656e756d20566f74655479706560581b6064820152608401610ac3565b8154600160801b90819004600f0b6000818152600180860160205260409091209390935583546001600160801b03908116939091011602179055565b600081815261019860205260408120600501805461337790614ffd565b80601f01602080910402602001604051908101604052809291908181526020018280546133a390614ffd565b80156133f05780601f106133c5576101008083540402835291602001916133f0565b820191906000526020600020905b8154815290600101906020018083116133d357829003601f168201915b5050505050905060008180602001905181019061340d9190615434565b90506002810361342057612d8d82613b37565b6001810361343157612d8d82613b59565b612d8d82613bed565b613443856138ce565b61344c85610d80565b50505050505050505050505050505050565b600086516000036134a65760405163d647364f60e01b8152602060048201526011602482015270474353493a207469746c6520626c616e6b60781b6044820152606401610ac3565b60008060006134b3612343565b925092509250600061019660009054906101000a90046001600160a01b03166001600160a01b031663dc43b9e66040518163ffffffff1660e01b8152600401602060405180830381865afa15801561350f573d6000803e3d6000fd5b505050506040513d601f19601f820116820180604052508101906135339190615412565b613541576305f5e100613543565b855b905060006135538585858f611667565b9050604051806101000160405280336001600160a01b031681526020018d81526020018c81526020018b81526020018a81526020018981526020016101938054806020026020016040519081016040528092919081815260200182805480156135e557602002820191906000526020600020905b81546001600160a01b031681526001909101906020018083116135c7575b505050918352505060209081018490526000838152610198825260409020825181546001600160a01b0319166001600160a01b039091161781559082015160018201906136329082615569565b50604082015160028201906136479082615569565b506060820151600382019061365c9082615569565b50608082015160048201906136719082615569565b5060a082015160058201906136869082615569565b5060c082015180516136a29160068401916020909101906142fb565b5060e082015181600701559050506136ba3383613cae565b6136c2614291565b6136cb82610cfa565b81526136d682611b8a565b602082015260008051602061594483398151915282338f8f8f8f8f886136fb88612482565b8c6040516137129a99989796959493929190615098565b60405180910390a1600161019a600082825461372e9190615628565b909155505061019a546000805160206159248339815191529061374f613d2e565b60405161375d929190615697565b60405180910390a1509b9a5050505050505050505050565b8115612a1a5760008281526101cc6020526040908190208290555160008051602061589c83398151915290612a11908390859060019061563b565b6000806137bf86868686611c80565b905060006137cc82611232565b905060028160078111156137e2576137e261499e565b14158015613802575060068160078111156137ff576137ff61499e565b14155b80156138205750600781600781111561381d5761381d61499e565b14155b61386c5760405162461bcd60e51b815260206004820152601d60248201527f476f7665726e6f723a2070726f706f73616c206e6f74206163746976650000006044820152606401610ac3565b600082815260cc602052604090819020600201805461ff001916610100179055517f789cf55be980739dad1d0699b93b58e806b51c9d96619bfa8fe0a28abaa7b30c906138bc9084815260200190565b60405180910390a15095945050505050565b60006138d982612197565b6101965460405163703e523d60e11b81529192506001600160a01b03169063e07ca47a9061391090600685019086906004016156f0565b600060405180830381600087803b15801561392a57600080fd5b505af115801561393e573d6000803e3d6000fd5b50508254600784015461395e93506001600160a01b039091169150613dba565b61396c60068201600061435c565b61019a5415612a1a57600161019a60008282546139899190615194565b909155505061019a54600080516020615924833981519152906139aa613d2e565b604051612a11929190615697565b600054610100900460ff166139df5760405162461bcd60e51b8152600401610ac3906156a5565b61161d33612c00565b600054610100900460ff16613a0f5760405162461bcd60e51b8152600401610ac3906156a5565b815160209283012081519190920120606591909155606655565b600054610100900460ff16613a505760405162461bcd60e51b8152600401610ac3906156a5565b60cb612a1a8282615569565b600054610100900460ff16613a835760405162461bcd60e51b8152600401610ac3906156a5565b613a8c83612b61565b613a9582612e49565b612d8d81612ee9565b6000613aa983612cdc565b15613ac057613ab9848484613e3c565b9050610b94565b60405163f4a01e5b60e01b81526001600160a01b0385169063f4a01e5b90613aee9086908690600401615749565b6020604051808303816000875af1158015612247573d6000803e3d6000fd5b815115613b1d5781518083602001fd5b8060405162461bcd60e51b8152600401610ac391906145b9565b600081806020019051810190613b4d9190615763565b915050612a1a81612db9565b60008060008084806020019051810190613b739190615788565b945094509450945050613b87838284613f09565b61019554600090613ba4906001600160a01b031685308887613f3d565b90506016811461231b5760405162461bcd60e51b815260206004820152601460248201527311d5150e881d1c985b9cd9995c8819985a5b195960621b6044820152606401610ac3565b60008082806020019051810190613c0491906157e5565b92509250506000826001600160a01b03168260405160006040518083038185875af1925050503d8060008114613c56576040519150601f19603f3d011682016040523d82523d6000602084013e613c5b565b606091505b5050905080613ca85760405162461bcd60e51b815260206004820152601960248201527811d5150e881218985c881d1c985b9cd9995c8819985a5b1959603a1b6044820152606401610ac3565b50505050565b6101955461019454600091613cd2916001600160a01b039182169116853086613f3d565b905060168114612d8d5760405162461bcd60e51b815260206004820152602160248201527f474353493a207472616e73666572206661696c656420746f20636f6e747261636044820152601d60fa1b6064820152608401610ac3565b6101965460408051636e21dcf360e11b815290516000926001600160a01b03169163dc43b9e69160048083019260209291908290030181865afa158015613d79573d6000803e3d6000fd5b505050506040513d601f19601f82011682018060405250810190613d9d9190615412565b613db4576305f5e10061019a54611b85919061544d565b50600190565b6101955461019454600091613dde916001600160a01b039182169116308686613f3d565b905060168114612d8d5760405162461bcd60e51b8152602060048201526024808201527f474353493a207472616e73666572206661696c65642066726f6d20636f6e747260448201526330b1ba1760e11b6064820152608401610ac3565b6000806000856001600160a01b031663f4a01e5b60e01b8686604051602401613e66929190615749565b60408051601f198184030181529181526020820180516001600160e01b03166001600160e01b0319909416939093179092529051613ea4919061581e565b600060405180830381855af49150503d8060008114613edf576040519150601f19603f3d011682016040523d82523d6000602084013e613ee4565b606091505b509150915081613ef5576015610cf0565b80806020019051810190610cf09190615434565b610194546001600160a01b03808516911603612d8d578160030b600014613f3357612d8d8161414f565b612d8d83826141b8565b600080613f4a8787612a1e565b60030b60000361405657306001600160a01b03861614613fdc576040516323b872dd60e01b81526001600160a01b038716906323b872dd90613f949088908890889060040161583a565b6020604051808303816000875af1158015613fb3573d6000803e3d6000fd5b505050506040513d601f19601f82011682018060405250810190613fd79190615412565b61404f565b60405163a9059cbb60e01b81526001600160a01b0385811660048301526024820185905287169063a9059cbb906044016020604051808303816000875af115801561402b573d6000803e3d6000fd5b505050506040513d601f19601f8201168201806040525081019061404f9190615412565b9050614132565b6040516323b872dd60e01b81526001600160a01b038716906323b872dd906140869088908890889060040161583a565b600060405180830381600087803b1580156140a057600080fd5b505af11580156140b4573d6000803e3d6000fd5b50506040516331a9108f60e11b8152600481018690526001600160a01b03878116935089169150636352211e90602401602060405180830381865afa158015614101573d6000803e3d6000fd5b505050506040513d601f19601f82011682018060405250810190614125919061585e565b6001600160a01b03161490505b8061413e576015614141565b60165b60030b979650505050505050565b60008181526101cc60205260409020548015612a1a57604051630db7dadf60e41b8152606060048201526019606482015278139195081251081b1bd8dad95908189e481c1c9bdc1bdcd85b603a1b6084820152602481018290526044810183905260a401610ac3565b60006141c2613d2e565b905060006141d08430614221565b905060006141de8383615194565b90508381101561231d5760405162461bcd60e51b815260206004820152600e60248201526d11d5150e8813dd995c991c98599d60921b6044820152606401610ac3565b6040516370a0823160e01b81526000906001600160a01b038416906370a0823190614250908590600401614af6565b602060405180830381865afa15801561426d573d6000803e3d6000fd5b505050506040513d601f19601f82011682018060405250810190610b949190615434565b604051806040016040528060008152602001600081525090565b60408051610100810182526000808252602082018190529091820190815260200160001515815260200160006001600160a01b031681526020016000815260200160008152602001600081525090565b828054828255906000526020600020908101928215614350579160200282015b8281111561435057825182546001600160a01b0319166001600160a01b0390911617825560209092019160019091019061431b565b50612cbb929150614376565b508054600082559060005260206000209081019061160891905b5b80821115612cbb5760008155600101614377565b60006020828403121561439d57600080fd5b81356001600160e01b031981168114610b9457600080fd5b803560ff8116811461137857600080fd5b60008083601f8401126143d857600080fd5b5081356001600160401b038111156143ef57600080fd5b60208301915083602082850101111561440757600080fd5b9250929050565b634e487b7160e01b600052604160045260246000fd5b604051601f8201601f191681016001600160401b038111828210171561444c5761444c61440e565b604052919050565b600082601f83011261446557600080fd5b81356001600160401b0381111561447e5761447e61440e565b614491601f8201601f1916602001614424565b8181528460208386010111156144a657600080fd5b816020850160208301376000918101602001919091529392505050565b60008060008060008060008060e0898b0312156144df57600080fd5b883597506144ef60208a016143b5565b965060408901356001600160401b038082111561450b57600080fd5b6145178c838d016143c6565b909850965060608b013591508082111561453057600080fd5b5061453d8b828c01614454565b94505061454c60808a016143b5565b925060a0890135915060c089013590509295985092959890939650565b60005b8381101561458457818101518382015260200161456c565b50506000910152565b600081518084526145a5816020860160208601614569565b601f01601f19169290920160200192915050565b602081526000610b94602083018461458d565b6000806000606084860312156145e157600080fd5b83359250602084013591506145f8604085016143b5565b90509250925092565b6001600160a01b038116811461160857600080fd5b803561137881614601565b6000806000806080858703121561463757600080fd5b843561464281614601565b9350602085013561465281614601565b92506040850135915060608501356001600160401b0381111561467457600080fd5b61468087828801614454565b91505092959194509250565b60006001600160401b038211156146a5576146a561440e565b5060051b60200190565b600082601f8301126146c057600080fd5b813560206146d56146d08361468c565b614424565b82815260059290921b840181019181810190868411156146f457600080fd5b8286015b8481101561471857803561470b81614601565b83529183019183016146f8565b509695505050505050565b600082601f83011261473457600080fd5b813560206147446146d08361468c565b82815260059290921b8401810191818101908684111561476357600080fd5b8286015b848110156147185780358352918301918301614767565b600082601f83011261478f57600080fd5b8135602061479f6146d08361468c565b82815260059290921b840181019181810190868411156147be57600080fd5b8286015b848110156147185780356001600160401b038111156147e15760008081fd5b6147ef8986838b0101614454565b8452509183019183016147c2565b6000806000806080858703121561481357600080fd5b84356001600160401b038082111561482a57600080fd5b614836888389016146af565b9550602087013591508082111561484c57600080fd5b61485888838901614723565b9450604087013591508082111561486e57600080fd5b5061487b8782880161477e565b949793965093946060013593505050565b60006020828403121561489e57600080fd5b81356001600160401b038111156148b457600080fd5b6113d984828501614454565b6000602082840312156148d257600080fd5b5035919050565b60008060008060008060c087890312156148f257600080fd5b86356001600160401b038082111561490957600080fd5b6149158a838b01614454565b9750602089013591508082111561492b57600080fd5b6149378a838b01614454565b9650604089013591508082111561494d57600080fd5b6149598a838b01614454565b9550606089013591508082111561496f57600080fd5b5061497c89828a01614454565b93505061498b60808801614616565b915060a087013590509295509295509295565b634e487b7160e01b600052602160045260246000fd5b600881106149d257634e487b7160e01b600052602160045260246000fd5b9052565b60006101608d83528c151560208401526149f3604084018d6149b4565b8a151560608401528960808401528860a08401528760c084015260018060a01b03871660e084015280610100840152614a2e8184018761458d565b9050828103610120840152614a43818661458d565b9050828103610140840152614a58818561458d565b9e9d5050505050505050505050505050565b600080600080600060a08688031215614a8257600080fd5b85359450614a92602087016143b5565b9350614aa0604087016143b5565b94979396509394606081013594506080013592915050565b602081016108d582846149b4565b60008060408385031215614ad957600080fd5b823591506020830135614aeb81614601565b809150509250929050565b6001600160a01b0391909116815260200190565b60008060408385031215614b1d57600080fd5b82359150614b2d602084016143b5565b90509250929050565b600080600080600060808688031215614b4e57600080fd5b85359450614b5e602087016143b5565b935060408601356001600160401b0380821115614b7a57600080fd5b614b8689838a016143c6565b90955093506060880135915080821115614b9f57600080fd5b50614bac88828901614454565b9150509295509295909350565b600080600080600080600080610100898b031215614bd657600080fd5b88356001600160401b0380821115614bed57600080fd5b614bf98c838d01614454565b995060208b0135915080821115614c0f57600080fd5b614c1b8c838d01614454565b985060408b0135915080821115614c3157600080fd5b614c3d8c838d01614454565b975060608b0135915080821115614c5357600080fd5b50614c608b828c01614454565b955050614c6f60808a01614616565b9350614c7d60a08a01614616565b925060c0890135915060e089013590509295985092959890939650565b60008060008060608587031215614cb057600080fd5b84359350614cc0602086016143b5565b925060408501356001600160401b03811115614cdb57600080fd5b614ce7878288016143c6565b95989497509550505050565b60008060008060808587031215614d0957600080fd5b84356001600160401b0380821115614d2057600080fd5b614d2c888389016146af565b95506020870135915080821115614d4257600080fd5b614d4e88838901614723565b94506040870135915080821115614d6457600080fd5b614d708883890161477e565b93506060870135915080821115614d8657600080fd5b5061468087828801614454565b600080600060608486031215614da857600080fd5b8335614db381614601565b92506020840135915060408401356001600160401b03811115614dd557600080fd5b614de186828701614454565b9150509250925092565b600080600080600080600060e0888a031215614e0657600080fd5b8735614e1181614601565b965060208801359550604088013594506060880135614e2f81614601565b93506080880135614e3f81614601565b925060a0880135915060c0880135614e5681614601565b8091505092959891949750929550565b600080600080600060a08688031215614e7e57600080fd5b8535614e8981614601565b94506020860135614e9981614601565b935060408601356001600160401b0380821115614eb557600080fd5b614ec189838a01614723565b94506060880135915080821115614ed757600080fd5b614ee389838a01614723565b93506080880135915080821115614b9f57600080fd5b60008060008060608587031215614f0f57600080fd5b8435614f1a81614601565b93506020850135925060408501356001600160401b03811115614cdb57600080fd5b600060208284031215614f4e57600080fd5b8135610b9481614601565b60008060408385031215614f6c57600080fd5b8235614f7781614601565b946020939093013593505050565b600080600080600060a08688031215614f9d57600080fd5b8535614fa881614601565b94506020860135614fb881614601565b9350604086013592506060860135915060808601356001600160401b03811115614fe157600080fd5b614bac88828901614454565b8183823760009101908152919050565b600181811c9082168061501157607f821691505b60208210810361503157634e487b7160e01b600052602260045260246000fd5b50919050565b80518252602081015115156020830152604081015161505960408401826149b4565b506060818101511515908301526080808201516001600160a01b03169083015260a0808201519083015260c0808201519083015260e090810151910152565b8a81526001600160a01b038a166020820152610240604082018190526000906150c38382018c61458d565b905082810360608401526150d7818b61458d565b905082810360808401526150eb818a61458d565b905082810360a08401526150ff818961458d565b905082810360c0840152615113818861458d565b915050845160e08301526020850151610100830152615136610120830185615037565b826102208301529b9a5050505050505050505050565b602080825260189082015277476f7665726e6f723a206f6e6c79476f7665726e616e636560401b604082015260600190565b634e487b7160e01b600052601160045260246000fd5b818103818111156108d5576108d561517e565b60208082526021908201527f476f7665726e6f723a20696e76616c69642070726f706f73616c206c656e67746040820152600d60fb1b606082015260800190565b6001600160401b038181168382160190808211156152085761520861517e565b5092915050565b600081518084526020808501945080840160005b838110156152485781516001600160a01b031687529582019590820190600101615223565b509495945050505050565b600081518084526020808501945080840160005b8381101561524857815187529582019590820190600101615267565b600081518084526020808501808196508360051b8101915082860160005b858110156152cb5782840389526152b984835161458d565b988501989350908401906001016152a1565b5091979650505050505050565b60006101208b8352602060018060a01b038c16818501528160408501526153018285018c61520f565b91508382036060850152615315828b615253565b915083820360808501528189518084528284019150828160051b850101838c0160005b8381101561536657601f1987840301855261535483835161458d565b94860194925090850190600101615338565b505086810360a088015261537a818c615283565b94505050505061539560c08401876001600160401b03169052565b6001600160401b03851660e08401528281036101008401526153b7818561458d565b9c9b505050505050505050505050565b6080815260006153da608083018761520f565b82810360208401526153ec8187615253565b905082810360408401526154008186615283565b91505082606083015295945050505050565b60006020828403121561542457600080fd5b81518015158114610b9457600080fd5b60006020828403121561544657600080fd5b5051919050565b80820281158282048414176108d5576108d561517e565b60008261548157634e487b7160e01b600052601260045260246000fd5b500490565b84815260ff84166020820152826040820152608060608201526000610cf0608083018461458d565b85815260ff8516602082015283604082015260a0606082015260006154d660a083018561458d565b82810360808401526154e8818561458d565b98975050505050505050565b634e487b7160e01b600052603260045260246000fd5b60006001820161551c5761551c61517e565b5060010190565b601f821115612d8d57600081815260208120601f850160051c8101602086101561554a5750805b601f850160051c820191505b8181101561231b57828155600101615556565b81516001600160401b038111156155825761558261440e565b615596816155908454614ffd565b84615523565b602080601f8311600181146155cb57600084156155b35750858301515b600019600386901b1c1916600185901b17855561231b565b600085815260208120601f198616915b828110156155fa578886015182559484019460019091019084016155db565b50858210156156185787850151600019600388901b60f8161c191681555b5050505050600190811b01905550565b808201808211156108d5576108d561517e565b92835260208301919091521515604082015260600190565b8051600381900b811461137857600080fd5b6000806040838503121561567857600080fd5b82518060070b811461568957600080fd5b9150614b2d60208401615653565b918252602082015260400190565b6020808252602b908201527f496e697469616c697a61626c653a20636f6e7472616374206973206e6f74206960408201526a6e697469616c697a696e6760a81b606082015260800190565b6000604082016040835280855480835260608501915086600052602092508260002060005b8281101561573a5781546001600160a01b031684529284019260019182019101615715565b50505092019290925292915050565b6001600160a01b0392831681529116602082015260400190565b6000806040838503121561577657600080fd5b825191506020830151614aeb81614601565b600080600080600060a086880312156157a057600080fd5b8551945060208601516157b281614601565b60408701519094506157c381614601565b606087015190935091506157d960808701615653565b90509295509295909350565b6000806000606084860312156157fa57600080fd5b83519250602084015161580c81614601565b80925050604084015190509250925092565b60008251615830818460208701614569565b9190910192915050565b6001600160a01b039384168152919092166020820152604081019190915260600190565b60006020828403121561587057600080fd5b8151610b948161460156fecf9d4a2ff924c5f3553e3c8485e6bc24fde822593d2c3d78c8fabaada123f8f67d7e4e4cf9fa617880077216ed1c6426abae47809e22f0bad3a1c70d9220670c476f7665726e6f723a2072656c617920726576657274656420776974686f7574206d657373616765150214d74d59b7d1e90c73fc22ef3d991dd0a76b046543d4d80ab92d2a50328fb3b3f3b703cd84ce352197dcff232b1b5d3cfb2025ce47cf04742d0651f1af88b820fd82ba5c6d4b601e96c3e3dbce4a84f001f671ef16fe66d72bbfc456e60381ceb7d1495e901e3a771a7465a30f33c1a04b0e2a73bc80f0c8295ce0e2cd68a2646970667358221220756cce51d3dc6e08ef72590ebe810be1fb078d2c94a4c83eb65d2a9de692f67d64736f6c63430008120033",
  "linkReferences": {},
  "deployedLinkReferences": {}
}