{
  "_format": "hh-sol-artifact-1",
  "contractName": "LPToken",
  "sourceName": "contracts/LPToken.sol",
  "abi": [
    {
      "anonymous": false,
      "inputs": [
        {
          "indexed": false,
          "internalType": "uint8",
          "name": "version",
          "type": "uint8"
        }
      ],
      "name": "Initialized",
      "type": "event"
    },
    {
      "anonymous": false,
      "inputs": [
        {
          "indexed": true,
          "internalType": "address",
          "name": "previousOwner",
          "type": "address"
        },
        {
          "indexed": true,
          "internalType": "address",
          "name": "newOwner",
          "type": "address"
        }
      ],
      "name": "OwnershipTransferred",
      "type": "event"
    },
    {
      "inputs": [
        {
          "internalType": "uint256",
          "name": "amountA",
          "type": "uint256"
        },
        {
          "internalType": "uint256",
          "name": "amountB",
          "type": "uint256"
        },
        {
          "internalType": "address",
          "name": "_toUser",
          "type": "address"
        }
      ],
      "name": "allotLPTokenFor",
      "outputs": [
        {
          "internalType": "int256",
          "name": "responseCode",
          "type": "int256"
        }
      ],
      "stateMutability": "nonpayable",
      "type": "function"
    },
    {
      "inputs": [],
      "name": "getAllLPTokenCount",
      "outputs": [
        {
          "internalType": "uint256",
          "name": "",
          "type": "uint256"
        }
      ],
      "stateMutability": "view",
      "type": "function"
    },
    {
      "inputs": [],
      "name": "getHederaServiceVersion",
      "outputs": [
        {
          "internalType": "contract IHederaService",
          "name": "",
          "type": "address"
        }
      ],
      "stateMutability": "view",
      "type": "function"
    },
    {
      "inputs": [],
      "name": "getLpTokenAddress",
      "outputs": [
        {
          "internalType": "address",
          "name": "",
          "type": "address"
        }
      ],
      "stateMutability": "view",
      "type": "function"
    },
    {
      "inputs": [
        {
          "internalType": "contract IHederaService",
          "name": "_hederaService",
          "type": "address"
        },
        {
          "internalType": "address",
          "name": "_owner",
          "type": "address"
        },
        {
          "internalType": "string",
          "name": "tokenName",
          "type": "string"
        },
        {
          "internalType": "string",
          "name": "tokenSymbol",
          "type": "string"
        }
      ],
      "name": "initialize",
      "outputs": [],
      "stateMutability": "payable",
      "type": "function"
    },
    {
      "inputs": [
        {
          "internalType": "uint256",
          "name": "tokenAQuantity",
          "type": "uint256"
        },
        {
          "internalType": "uint256",
          "name": "tokenBQuantity",
          "type": "uint256"
        }
      ],
      "name": "lpTokenCountForGivenTokensQty",
      "outputs": [
        {
          "internalType": "uint256",
          "name": "",
          "type": "uint256"
        }
      ],
      "stateMutability": "pure",
      "type": "function"
    },
    {
      "inputs": [
        {
          "internalType": "address",
          "name": "_user",
          "type": "address"
        }
      ],
      "name": "lpTokenForUser",
      "outputs": [
        {
          "internalType": "uint256",
          "name": "",
          "type": "uint256"
        }
      ],
      "stateMutability": "view",
      "type": "function"
    },
    {
      "inputs": [],
      "name": "owner",
      "outputs": [
        {
          "internalType": "address",
          "name": "",
          "type": "address"
        }
      ],
      "stateMutability": "view",
      "type": "function"
    },
    {
      "inputs": [
        {
          "internalType": "uint256",
          "name": "lpAmount",
          "type": "uint256"
        },
        {
          "internalType": "address",
          "name": "fromUser",
          "type": "address"
        }
      ],
      "name": "removeLPTokenFor",
      "outputs": [
        {
          "internalType": "int256",
          "name": "responseCode",
          "type": "int256"
        }
      ],
      "stateMutability": "nonpayable",
      "type": "function"
    },
    {
      "inputs": [],
      "name": "renounceOwnership",
      "outputs": [],
      "stateMutability": "nonpayable",
      "type": "function"
    },
    {
      "inputs": [
        {
          "internalType": "address",
          "name": "newOwner",
          "type": "address"
        }
      ],
      "name": "transferOwnership",
      "outputs": [],
      "stateMutability": "nonpayable",
      "type": "function"
    },
    {
      "inputs": [
        {
          "internalType": "contract IHederaService",
          "name": "newHederaService",
          "type": "address"
        }
      ],
      "name": "upgradeHederaService",
      "outputs": [],
      "stateMutability": "nonpayable",
      "type": "function"
    }
  ],
  "bytecode": "0x608060405234801561001057600080fd5b5061161f806100206000396000f3fe6080604052600436106100975760003560e01c8063085425131461009c5780632016a0d2146100cf57806328acd76c146100e45780636869958f146101045780636dab6f7514610124578063715018a61461014b5780638c237c69146101605780638da5cb5b1461017e578063a1e79f7514610193578063d26d681f146101a8578063e375f400146101c8578063f2fde38b146101e8575b600080fd5b3480156100a857600080fd5b506100bc6100b736600461107c565b610208565b6040519081526020015b60405180910390f35b6100e26100dd366004611157565b6103e1565b005b3480156100f057600080fd5b506100bc6100ff3660046111df565b610599565b34801561011057600080fd5b506100bc61011f36600461120f565b610794565b34801561013057600080fd5b506065546001600160a01b03165b6040516100c6919061122c565b34801561015757600080fd5b506100e2610806565b34801561016c57600080fd5b506066546001600160a01b031661013e565b34801561018a57600080fd5b5061013e61081a565b34801561019f57600080fd5b506100bc610829565b3480156101b457600080fd5b506100e26101c336600461120f565b61089c565b3480156101d457600080fd5b506100bc6101e3366004611240565b6108c6565b3480156101f457600080fd5b506100e261020336600461120f565b6108e1565b600061021261095a565b6000841180156102225750600083115b61027f5760405162461bcd60e51b8152602060048201526024808201527f506c656173652070726f7669646520706f73697469766520746f6b656e20636f604482015263756e747360e01b60648201526084015b60405180910390fd5b6040516238dd7d60ea1b81526004810185905260248101849052600090309063e375f40090604401602060405180830381865afa1580156102c4573d6000803e3d6000fd5b505050506040513d601f19601f820116820180604052508101906102e89190611262565b606554606654919250610308916001600160a01b039182169116836109b9565b509150601682146103565760405162461bcd60e51b81526020600482015260186024820152772628103a37b5b2b71036b4b73a34b733903330b4b632b21760411b6044820152606401610276565b60665461036e906001600160a01b0316308584610b09565b9150601682146103d65760405162461bcd60e51b815260206004820152602d60248201527f4c50546f6b656e3a20746f6b656e207472616e73666572206661696c6564206660448201526c3937b69031b7b73a3930b1ba1760991b6064820152608401610276565b506016949350505050565b600054610100900460ff16158080156104015750600054600160ff909116105b8061041b5750303b15801561041b575060005460ff166001145b61047e5760405162461bcd60e51b815260206004820152602e60248201527f496e697469616c697a61626c653a20636f6e747261637420697320616c72656160448201526d191e481a5b9a5d1a585b1a5e995960921b6064820152608401610276565b6000805460ff1916600117905580156104a1576000805461ff0019166101001790555b6104aa84610c2b565b606580546001600160a01b0319166001600160a01b0387161790556000806104d6878686846008610c7d565b90925090506016821461052b5760405162461bcd60e51b815260206004820152601f60248201527f4c50546f6b656e3a20546f6b656e206372656174696f6e206661696c65642e006044820152606401610276565b606680546001600160a01b0319166001600160a01b0392909216919091179055508015610592576000805461ff0019169055604051600181527f7f26b83ff96e1f2b6a682f133852f6798a09c465da95921460cefb38474024989060200160405180910390a15b5050505050565b60006105a361095a565b600083116105f15760405162461bcd60e51b815260206004820152601b60248201527a506c656173652070726f7669646520746f6b656e20636f756e747360281b6044820152606401610276565b604051636869958f60e01b815283903090636869958f9061061690869060040161122c565b602060405180830381865afa158015610633573d6000803e3d6000fd5b505050506040513d601f19601f820116820180604052508101906106579190611262565b10156106a45760405162461bcd60e51b815260206004820152601c60248201527b155cd95c88111bd95cc81b9bdd081a185d99481b1c08185b5bdd5b9d60221b6044820152606401610276565b6066546106bc906001600160a01b0316833086610b09565b9050601681146107225760405162461bcd60e51b815260206004820152602b60248201527f4c50546f6b656e3a20746f6b656e207472616e73666572206661696c6564207460448201526a379031b7b73a3930b1ba1760a91b6064820152608401610276565b60655460665461073f916001600160a01b03908116911685610e93565b5090506016811461078a5760405162461bcd60e51b81526020600482015260156024820152742628103a37b5b2b710313ab937103330b4b632b21760591b6044820152606401610276565b5060165b92915050565b6066546040516370a0823160e01b81526000916001600160a01b0316906370a08231906107c590859060040161122c565b602060405180830381865afa1580156107e2573d6000803e3d6000fd5b505050506040513d601f19601f8201168201806040525081019061078e9190611262565b61080e61095a565b6108186000610c2b565b565b6033546001600160a01b031690565b606654604080516318160ddd60e01b815290516000926001600160a01b0316916318160ddd9160048083019260209291908290030181865afa158015610873573d6000803e3d6000fd5b505050506040513d601f19601f820116820180604052508101906108979190611262565b905090565b6108a461095a565b606580546001600160a01b0319166001600160a01b0392909216919091179055565b60006108da6108d58385611291565b610f30565b9392505050565b6108e961095a565b6001600160a01b03811661094e5760405162461bcd60e51b815260206004820152602660248201527f4f776e61626c653a206e6577206f776e657220697320746865207a65726f206160448201526564647265737360d01b6064820152608401610276565b61095781610c2b565b50565b3361096361081a565b6001600160a01b0316146108185760405162461bcd60e51b815260206004820181905260248201527f4f776e61626c653a2063616c6c6572206973206e6f7420746865206f776e65726044820152606401610276565b60008060008311610a2e5760405162461bcd60e51b8152602060048201526044602482018190526000805160206115ca833981519152908201527f746f206d696e742073686f756c642062652067726561746572207468616e207a60648201526332b9379760e11b608482015260a401610276565b600080866001600160a01b0316631c057c7760e01b8787604051602401610a569291906112a8565b60408051601f198184030181529181526020820180516001600160e01b03166001600160e01b0319909416939093179092529051610a9491906112e5565b600060405180830381855af49150503d8060008114610acf576040519150601f19603f3d011682016040523d82523d6000602084013e610ad4565b606091505b509150915081610ae75760156000610afb565b80806020019051810190610afb9190611301565b909890975095505050505050565b600080306001600160a01b03861614610b9c576040516323b872dd60e01b81526001600160a01b0386811660048301528581166024830152604482018590528716906323b872dd906064016020604051808303816000875af1158015610b73573d6000803e3d6000fd5b505050506040513d601f19601f82011682018060405250810190610b97919061132c565b610c0d565b60405163a9059cbb60e01b81526001600160a01b0387169063a9059cbb90610bca90879087906004016112a8565b6020604051808303816000875af1158015610be9573d6000803e3d6000fd5b505050506040513d601f19601f82011682018060405250810190610c0d919061132c565b905080610c1b576015610c1e565b60165b60030b9695505050505050565b603380546001600160a01b038381166001600160a01b0319831681179093556040519116919082907f8be0079c531659141344cd1fd0a4f28419497f9722a3daafe3b4186f6b6457e090600090a35050565b600080600080610c8b610f89565b601083173060808301529250610c9f610f89565b3060808201526040805160028082526060820190925260019490941793600091602082015b610ccc610fcc565b815260200190600190039081610cc457905050905060405180604001604052808681526020018481525081600081518110610d0957610d0961134e565b602002602001018190525060405180604001604052808581526020018381525081600181518110610d3c57610d3c61134e565b6020026020010181905250610d4f610feb565b306020820152627a12006040820152610d6661100b565b8c81600001819052508b81602001819052503081604001906001600160a01b031690816001600160a01b03168152505081816101000181905250828160e001819052506000808f6001600160a01b0316635ed9138460e01b848f8f604051602401610dd393929190611453565b60408051601f198184030181529181526020820180516001600160e01b03166001600160e01b0319909416939093179092529051610e1191906112e5565b600060405180830381855af49150503d8060008114610e4c576040519150601f19603f3d011682016040523d82523d6000602084013e610e51565b606091505b509150915081610e645760156000610e78565b80806020019051810190610e78919061156f565b809b50819c5050505050505050505050509550959350505050565b60008060008311610f085760405162461bcd60e51b8152602060048201526044602482018190526000805160206115ca833981519152908201527f746f206275726e2073686f756c642062652067726561746572207468616e207a60648201526332b9379760e11b608482015260a401610276565b600080866001600160a01b0316633621a35d60e01b8787604051602401610a569291906112a8565b6000806002610f40846001611594565b610f4a91906115a7565b90508291505b81811015610f8357905080600281610f6881866115a7565b610f729190611594565b610f7c91906115a7565b9050610f50565b50919050565b6040518060a0016040528060001515815260200160006001600160a01b03168152602001606081526020016060815260200160006001600160a01b031681525090565b604051806040016040528060008152602001610fe6610f89565b905290565b604080516060810182526000808252602082018190529181019190915290565b604051806101200160405280606081526020016060815260200160006001600160a01b0316815260200160608152602001600015158152602001600060070b815260200160001515815260200160608152602001610fe6610feb565b6001600160a01b038116811461095757600080fd5b60008060006060848603121561109157600080fd5b833592506020840135915060408401356110aa81611067565b809150509250925092565b634e487b7160e01b600052604160045260246000fd5b600082601f8301126110dc57600080fd5b81356001600160401b03808211156110f6576110f66110b5565b604051601f8301601f19908116603f0116810190828211818310171561111e5761111e6110b5565b8160405283815286602085880101111561113757600080fd5b836020870160208301376000602085830101528094505050505092915050565b6000806000806080858703121561116d57600080fd5b843561117881611067565b9350602085013561118881611067565b925060408501356001600160401b03808211156111a457600080fd5b6111b0888389016110cb565b935060608701359150808211156111c657600080fd5b506111d3878288016110cb565b91505092959194509250565b600080604083850312156111f257600080fd5b82359150602083013561120481611067565b809150509250929050565b60006020828403121561122157600080fd5b81356108da81611067565b6001600160a01b0391909116815260200190565b6000806040838503121561125357600080fd5b50508035926020909101359150565b60006020828403121561127457600080fd5b5051919050565b634e487b7160e01b600052601160045260246000fd5b808202811582820484141761078e5761078e61127b565b6001600160a01b03929092168252602082015260400190565b60005b838110156112dc5781810151838201526020016112c4565b50506000910152565b600082516112f78184602087016112c1565b9190910192915050565b6000806040838503121561131457600080fd5b8251915060208301518060070b811461120457600080fd5b60006020828403121561133e57600080fd5b815180151581146108da57600080fd5b634e487b7160e01b600052603260045260246000fd5b6000815180845261137c8160208601602086016112c1565b601f01601f19169290920160200192915050565b600081518084526020808501808196508360051b8101915082860160005b8581101561144657828403895281516040815186528682015191508087870152815115158187015286820151606060018060a01b03808316828a015283850151935060a09250608083818b015261140860e08b0186611364565b928601518a8403603f1901858c01529294506114248584611364565b9501511660c098909801979097525050988501989350908401906001016113ae565b5091979650505050505050565b60608152600084516101608060608501526114726101c0850183611364565b91506020870151605f19808685030160808701526114908483611364565b9350604089015191506114ae60a08701836001600160a01b03169052565b60608901519150808685030160c08701526114c98483611364565b9350608089015191506114e060e087018315159052565b60a089015191506101006114f88188018460070b9052565b60c08a0151151561012088015260e08a0151878603830161014089015292506115218584611390565b9450808a01519250505061155b828601828051600790810b83526020808301516001600160a01b031690840152604091820151900b910152565b505060208301949094525060400152919050565b6000806040838503121561158257600080fd5b82519150602083015161120481611067565b8082018082111561078e5761078e61127b565b6000826115c457634e487b7160e01b600052601260045260246000fd5b50049056fe546f6b656e4f7065726174696f6e733a20546f6b656e207175616e7469747920a2646970667358221220fc09609bf993b2e9e1a441e76f77c07c77db7929e8e0d942baf2fd0ef4b8fe4864736f6c63430008120033",
  "linkReferences": {},
  "deployedLinkReferences": {}
}