{
  "_format": "hh-sol-artifact-1",
  "contractName": "MultiSigDAO",
  "sourceName": "contracts/dao/MultisigDAO.sol",
  "abi": [
    {
      "inputs": [
        {
          "internalType": "string",
          "name": "message",
          "type": "string"
        }
      ],
      "name": "InvalidInput",
      "type": "error"
    },
    {
      "anonymous": false,
      "inputs": [
        {
          "components": [
            {
              "internalType": "string",
              "name": "name",
              "type": "string"
            },
            {
              "internalType": "address",
              "name": "admin",
              "type": "address"
            },
            {
              "internalType": "string",
              "name": "logoUrl",
              "type": "string"
            },
            {
              "internalType": "string",
              "name": "infoUrl",
              "type": "string"
            },
            {
              "internalType": "string",
              "name": "description",
              "type": "string"
            },
            {
              "internalType": "string[]",
              "name": "webLinks",
              "type": "string[]"
            }
          ],
          "indexed": false,
          "internalType": "struct BaseDAO.DAOInfo",
          "name": "daoInfo",
          "type": "tuple"
        }
      ],
      "name": "DAOInfoUpdated",
      "type": "event"
    },
    {
      "anonymous": false,
      "inputs": [
        {
          "indexed": false,
          "internalType": "uint8",
          "name": "version",
          "type": "uint8"
        }
      ],
      "name": "Initialized",
      "type": "event"
    },
    {
      "anonymous": false,
      "inputs": [
        {
          "indexed": true,
          "internalType": "address",
          "name": "oldImplementation",
          "type": "address"
        },
        {
          "indexed": true,
          "internalType": "address",
          "name": "newImplementation",
          "type": "address"
        },
        {
          "indexed": false,
          "internalType": "string",
          "name": "name",
          "type": "string"
        }
      ],
      "name": "LogicUpdated",
      "type": "event"
    },
    {
      "anonymous": false,
      "inputs": [
        {
          "indexed": true,
          "internalType": "bytes32",
          "name": "role",
          "type": "bytes32"
        },
        {
          "indexed": true,
          "internalType": "bytes32",
          "name": "previousAdminRole",
          "type": "bytes32"
        },
        {
          "indexed": true,
          "internalType": "bytes32",
          "name": "newAdminRole",
          "type": "bytes32"
        }
      ],
      "name": "RoleAdminChanged",
      "type": "event"
    },
    {
      "anonymous": false,
      "inputs": [
        {
          "indexed": true,
          "internalType": "bytes32",
          "name": "role",
          "type": "bytes32"
        },
        {
          "indexed": true,
          "internalType": "address",
          "name": "account",
          "type": "address"
        },
        {
          "indexed": true,
          "internalType": "address",
          "name": "sender",
          "type": "address"
        }
      ],
      "name": "RoleGranted",
      "type": "event"
    },
    {
      "anonymous": false,
      "inputs": [
        {
          "indexed": true,
          "internalType": "bytes32",
          "name": "role",
          "type": "bytes32"
        },
        {
          "indexed": true,
          "internalType": "address",
          "name": "account",
          "type": "address"
        },
        {
          "indexed": true,
          "internalType": "address",
          "name": "sender",
          "type": "address"
        }
      ],
      "name": "RoleRevoked",
      "type": "event"
    },
    {
      "anonymous": false,
      "inputs": [
        {
          "indexed": false,
          "internalType": "bytes32",
          "name": "txnHash",
          "type": "bytes32"
        },
        {
          "components": [
            {
              "internalType": "address",
              "name": "to",
              "type": "address"
            },
            {
              "internalType": "uint256",
              "name": "value",
              "type": "uint256"
            },
            {
              "internalType": "bytes",
              "name": "data",
              "type": "bytes"
            },
            {
              "internalType": "enum Enum.Operation",
              "name": "operation",
              "type": "uint8"
            },
            {
              "internalType": "uint256",
              "name": "nonce",
              "type": "uint256"
            },
            {
              "internalType": "uint256",
              "name": "transactionType",
              "type": "uint256"
            },
            {
              "internalType": "string",
              "name": "title",
              "type": "string"
            },
            {
              "internalType": "string",
              "name": "description",
              "type": "string"
            },
            {
              "internalType": "string",
              "name": "linkToDiscussion",
              "type": "string"
            },
            {
              "internalType": "address",
              "name": "creator",
              "type": "address"
            }
          ],
          "indexed": false,
          "internalType": "struct MultiSigDAO.TransactionInfo",
          "name": "info",
          "type": "tuple"
        }
      ],
      "name": "TransactionCreated",
      "type": "event"
    },
    {
      "inputs": [],
      "name": "DAO_ADMIN",
      "outputs": [
        {
          "internalType": "bytes32",
          "name": "",
          "type": "bytes32"
        }
      ],
      "stateMutability": "view",
      "type": "function"
    },
    {
      "inputs": [],
      "name": "DEFAULT_ADMIN_ROLE",
      "outputs": [
        {
          "internalType": "bytes32",
          "name": "",
          "type": "bytes32"
        }
      ],
      "stateMutability": "view",
      "type": "function"
    },
    {
      "inputs": [
        {
          "internalType": "address",
          "name": "_admin",
          "type": "address"
        },
        {
          "internalType": "string",
          "name": "_name",
          "type": "string"
        },
        {
          "internalType": "string",
          "name": "_logoUrl",
          "type": "string"
        },
        {
          "internalType": "string",
          "name": "_infoUrl",
          "type": "string"
        },
        {
          "internalType": "string",
          "name": "_description",
          "type": "string"
        },
        {
          "internalType": "string[]",
          "name": "_webLinks",
          "type": "string[]"
        }
      ],
      "name": "__BaseDAO_init",
      "outputs": [],
      "stateMutability": "nonpayable",
      "type": "function"
    },
    {
      "inputs": [
        {
          "internalType": "bytes32",
          "name": "_txnHash",
          "type": "bytes32"
        }
      ],
      "name": "getApprovalCounts",
      "outputs": [
        {
          "internalType": "uint256",
          "name": "",
          "type": "uint256"
        }
      ],
      "stateMutability": "view",
      "type": "function"
    },
    {
      "inputs": [],
      "name": "getDaoInfo",
      "outputs": [
        {
          "components": [
            {
              "internalType": "string",
              "name": "name",
              "type": "string"
            },
            {
              "internalType": "address",
              "name": "admin",
              "type": "address"
            },
            {
              "internalType": "string",
              "name": "logoUrl",
              "type": "string"
            },
            {
              "internalType": "string",
              "name": "infoUrl",
              "type": "string"
            },
            {
              "internalType": "string",
              "name": "description",
              "type": "string"
            },
            {
              "internalType": "string[]",
              "name": "webLinks",
              "type": "string[]"
            }
          ],
          "internalType": "struct BaseDAO.DAOInfo",
          "name": "",
          "type": "tuple"
        }
      ],
      "stateMutability": "view",
      "type": "function"
    },
    {
      "inputs": [],
      "name": "getHederaGnosisSafeContractAddress",
      "outputs": [
        {
          "internalType": "address",
          "name": "",
          "type": "address"
        }
      ],
      "stateMutability": "view",
      "type": "function"
    },
    {
      "inputs": [],
      "name": "getHederaServiceVersion",
      "outputs": [
        {
          "internalType": "contract IHederaService",
          "name": "",
          "type": "address"
        }
      ],
      "stateMutability": "view",
      "type": "function"
    },
    {
      "inputs": [],
      "name": "getMultiSendContractAddress",
      "outputs": [
        {
          "internalType": "address",
          "name": "",
          "type": "address"
        }
      ],
      "stateMutability": "view",
      "type": "function"
    },
    {
      "inputs": [
        {
          "internalType": "bytes32",
          "name": "role",
          "type": "bytes32"
        }
      ],
      "name": "getRoleAdmin",
      "outputs": [
        {
          "internalType": "bytes32",
          "name": "",
          "type": "bytes32"
        }
      ],
      "stateMutability": "view",
      "type": "function"
    },
    {
      "inputs": [
        {
          "internalType": "bytes32",
          "name": "_txnHash",
          "type": "bytes32"
        }
      ],
      "name": "getTransactionInfo",
      "outputs": [
        {
          "components": [
            {
              "internalType": "address",
              "name": "to",
              "type": "address"
            },
            {
              "internalType": "uint256",
              "name": "value",
              "type": "uint256"
            },
            {
              "internalType": "bytes",
              "name": "data",
              "type": "bytes"
            },
            {
              "internalType": "enum Enum.Operation",
              "name": "operation",
              "type": "uint8"
            },
            {
              "internalType": "uint256",
              "name": "nonce",
              "type": "uint256"
            },
            {
              "internalType": "uint256",
              "name": "transactionType",
              "type": "uint256"
            },
            {
              "internalType": "string",
              "name": "title",
              "type": "string"
            },
            {
              "internalType": "string",
              "name": "description",
              "type": "string"
            },
            {
              "internalType": "string",
              "name": "linkToDiscussion",
              "type": "string"
            },
            {
              "internalType": "address",
              "name": "creator",
              "type": "address"
            }
          ],
          "internalType": "struct MultiSigDAO.TransactionInfo",
          "name": "",
          "type": "tuple"
        }
      ],
      "stateMutability": "view",
      "type": "function"
    },
    {
      "inputs": [
        {
          "internalType": "bytes32",
          "name": "role",
          "type": "bytes32"
        },
        {
          "internalType": "address",
          "name": "account",
          "type": "address"
        }
      ],
      "name": "grantRole",
      "outputs": [],
      "stateMutability": "nonpayable",
      "type": "function"
    },
    {
      "inputs": [
        {
          "internalType": "bytes32",
          "name": "role",
          "type": "bytes32"
        },
        {
          "internalType": "address",
          "name": "account",
          "type": "address"
        }
      ],
      "name": "hasRole",
      "outputs": [
        {
          "internalType": "bool",
          "name": "",
          "type": "bool"
        }
      ],
      "stateMutability": "view",
      "type": "function"
    },
    {
      "inputs": [
        {
          "internalType": "address",
          "name": "_admin",
          "type": "address"
        },
        {
          "internalType": "string",
          "name": "_name",
          "type": "string"
        },
        {
          "internalType": "string",
          "name": "_logoUrl",
          "type": "string"
        },
        {
          "internalType": "string",
          "name": "_description",
          "type": "string"
        },
        {
          "internalType": "string[]",
          "name": "_webLinks",
          "type": "string[]"
        },
        {
          "internalType": "contract HederaGnosisSafe",
          "name": "_hederaGnosisSafe",
          "type": "address"
        },
        {
          "internalType": "contract IHederaService",
          "name": "_hederaService",
          "type": "address"
        },
        {
          "internalType": "contract HederaMultiSend",
          "name": "_multiSend",
          "type": "address"
        },
        {
          "internalType": "contract ISystemRoleBasedAccess",
          "name": "_iSystemRoleBasedAccess",
          "type": "address"
        }
      ],
      "name": "initialize",
      "outputs": [],
      "stateMutability": "nonpayable",
      "type": "function"
    },
    {
      "inputs": [
        {
          "internalType": "address[]",
          "name": "_targets",
          "type": "address[]"
        },
        {
          "internalType": "uint256[]",
          "name": "_values",
          "type": "uint256[]"
        },
        {
          "internalType": "bytes[]",
          "name": "_calldatas",
          "type": "bytes[]"
        },
        {
          "internalType": "string",
          "name": "title",
          "type": "string"
        },
        {
          "internalType": "string",
          "name": "desc",
          "type": "string"
        },
        {
          "internalType": "string",
          "name": "linkToDiscussion",
          "type": "string"
        }
      ],
      "name": "proposeBatchTransaction",
      "outputs": [
        {
          "internalType": "bytes32",
          "name": "",
          "type": "bytes32"
        }
      ],
      "stateMutability": "nonpayable",
      "type": "function"
    },
    {
      "inputs": [
        {
          "internalType": "address",
          "name": "_token",
          "type": "address"
        },
        {
          "internalType": "string",
          "name": "_title",
          "type": "string"
        },
        {
          "internalType": "string",
          "name": "_desc",
          "type": "string"
        },
        {
          "internalType": "string",
          "name": "_linkToDiscussion",
          "type": "string"
        }
      ],
      "name": "proposeTokenAssociateTransaction",
      "outputs": [
        {
          "internalType": "bytes32",
          "name": "",
          "type": "bytes32"
        }
      ],
      "stateMutability": "nonpayable",
      "type": "function"
    },
    {
      "inputs": [
        {
          "internalType": "address",
          "name": "_to",
          "type": "address"
        },
        {
          "internalType": "bytes",
          "name": "_data",
          "type": "bytes"
        },
        {
          "internalType": "uint256",
          "name": "_type",
          "type": "uint256"
        },
        {
          "internalType": "string",
          "name": "title",
          "type": "string"
        },
        {
          "internalType": "string",
          "name": "desc",
          "type": "string"
        },
        {
          "internalType": "string",
          "name": "linkToDiscussion",
          "type": "string"
        }
      ],
      "name": "proposeTransaction",
      "outputs": [
        {
          "internalType": "bytes32",
          "name": "",
          "type": "bytes32"
        }
      ],
      "stateMutability": "nonpayable",
      "type": "function"
    },
    {
      "inputs": [
        {
          "internalType": "address",
          "name": "_to",
          "type": "address"
        },
        {
          "internalType": "address",
          "name": "_token",
          "type": "address"
        },
        {
          "internalType": "uint256",
          "name": "_amount",
          "type": "uint256"
        },
        {
          "internalType": "string",
          "name": "_title",
          "type": "string"
        },
        {
          "internalType": "string",
          "name": "_desc",
          "type": "string"
        },
        {
          "internalType": "string",
          "name": "_linkToDiscussion",
          "type": "string"
        }
      ],
      "name": "proposeTransferTransaction",
      "outputs": [
        {
          "internalType": "bytes32",
          "name": "",
          "type": "bytes32"
        }
      ],
      "stateMutability": "nonpayable",
      "type": "function"
    },
    {
      "inputs": [
        {
          "internalType": "address",
          "name": "_proxy",
          "type": "address"
        },
        {
          "internalType": "address",
          "name": "_proxyLogic",
          "type": "address"
        },
        {
          "internalType": "string",
          "name": "_title",
          "type": "string"
        },
        {
          "internalType": "string",
          "name": "_desc",
          "type": "string"
        },
        {
          "internalType": "string",
          "name": "_linkToDiscussion",
          "type": "string"
        }
      ],
      "name": "proposeUpgradeProxyTransaction",
      "outputs": [
        {
          "internalType": "bytes32",
          "name": "",
          "type": "bytes32"
        }
      ],
      "stateMutability": "nonpayable",
      "type": "function"
    },
    {
      "inputs": [
        {
          "internalType": "bytes32",
          "name": "role",
          "type": "bytes32"
        },
        {
          "internalType": "address",
          "name": "account",
          "type": "address"
        }
      ],
      "name": "renounceRole",
      "outputs": [],
      "stateMutability": "nonpayable",
      "type": "function"
    },
    {
      "inputs": [
        {
          "internalType": "bytes32",
          "name": "role",
          "type": "bytes32"
        },
        {
          "internalType": "address",
          "name": "account",
          "type": "address"
        }
      ],
      "name": "revokeRole",
      "outputs": [],
      "stateMutability": "nonpayable",
      "type": "function"
    },
    {
      "inputs": [
        {
          "internalType": "address",
          "name": "creator",
          "type": "address"
        },
        {
          "internalType": "string",
          "name": "text",
          "type": "string"
        }
      ],
      "name": "setText",
      "outputs": [
        {
          "internalType": "address",
          "name": "",
          "type": "address"
        },
        {
          "internalType": "string",
          "name": "",
          "type": "string"
        }
      ],
      "stateMutability": "view",
      "type": "function"
    },
    {
      "inputs": [
        {
          "internalType": "bytes32",
          "name": "_txnHash",
          "type": "bytes32"
        }
      ],
      "name": "state",
      "outputs": [
        {
          "internalType": "enum MultiSigDAO.TransactionState",
          "name": "",
          "type": "uint8"
        }
      ],
      "stateMutability": "view",
      "type": "function"
    },
    {
      "inputs": [
        {
          "internalType": "bytes4",
          "name": "interfaceId",
          "type": "bytes4"
        }
      ],
      "name": "supportsInterface",
      "outputs": [
        {
          "internalType": "bool",
          "name": "",
          "type": "bool"
        }
      ],
      "stateMutability": "view",
      "type": "function"
    },
    {
      "inputs": [
        {
          "internalType": "string",
          "name": "_name",
          "type": "string"
        },
        {
          "internalType": "string",
          "name": "_logoUrl",
          "type": "string"
        },
        {
          "internalType": "string",
          "name": "_infoUrl",
          "type": "string"
        },
        {
          "internalType": "string",
          "name": "_description",
          "type": "string"
        },
        {
          "internalType": "string[]",
          "name": "_webLinks",
          "type": "string[]"
        }
      ],
      "name": "updateDaoInfo",
      "outputs": [],
      "stateMutability": "nonpayable",
      "type": "function"
    },
    {
      "inputs": [
        {
          "internalType": "contract HederaGnosisSafe",
          "name": "_hederaGnosisSafe",
          "type": "address"
        }
      ],
      "name": "upgradeHederaGnosisSafe",
      "outputs": [],
      "stateMutability": "nonpayable",
      "type": "function"
    },
    {
      "inputs": [
        {
          "internalType": "contract IHederaService",
          "name": "newHederaService",
          "type": "address"
        }
      ],
      "name": "upgradeHederaService",
      "outputs": [],
      "stateMutability": "nonpayable",
      "type": "function"
    },
    {
      "inputs": [
        {
          "internalType": "contract HederaMultiSend",
          "name": "_multiSend",
          "type": "address"
        }
      ],
      "name": "upgradeMultiSend",
      "outputs": [],
      "stateMutability": "nonpayable",
      "type": "function"
    }
  ],
  "bytecode": "0x608060405234801561001057600080fd5b506135fa806100206000396000f3fe608060405234801561001057600080fd5b50600436106101495760003560e01c806301ffc9a71461014e5780630f206bca14610176578063179244031461018b578063193f6b34146101a5578063248a9ca3146101c65780632a486caf146101d95780632f2ff15d146101ec57806333309847146101ff57806333a73c311461021257806336568abe14610225578063402482e414610238578063468c8a611461024b57806349e6b62c146102605780635db6515c1461028057806361d585da146102935780636dab6f75146102b357806380896acc146102c457806391d14854146102d55780639645699e146102e85780639a200247146102fb5780639b316eda1461030e578063a217fddf14610321578063b829d3fe14610329578063d26d681f1461033c578063d547741f1461034f578063d926e34c14610362578063fa382f8714610383575b600080fd5b61016161015c366004612350565b610398565b60405190151581526020015b60405180910390f35b61018961018436600461239f565b6103cf565b005b60fc546001600160a01b03165b60405161016d91906123c9565b6101b86101b33660046123dd565b6104ae565b60405190815260200161016d565b6101b86101d43660046123dd565b61051c565b6101896101e736600461255d565b610531565b6101896101fa36600461263d565b610640565b61018961020d36600461266d565b610661565b6101b861022036600461276d565b6108ed565b61018961023336600461263d565b61095c565b6101b8610246366004612945565b6109da565b6101b86000805160206135a583398151915281565b61027361026e3660046123dd565b610b82565b60405161016d9190612aa6565b61018961028e366004612b83565b610e8d565b6102a66102a13660046123dd565b610eb2565b60405161016d9190612c54565b60fd546001600160a01b0316610198565b60fe546001600160a01b0316610198565b6101616102e336600461263d565b6112bc565b6101b86102f6366004612c6e565b6112e7565b6101b8610309366004612d0e565b611498565b61018961031c36600461239f565b611515565b6101b8600081565b6101b8610337366004612d65565b6115f3565b61018961034a36600461239f565b61181f565b61018961035d36600461263d565b6118fb565b610375610370366004612dcc565b611917565b60405161016d929190612e1b565b61038b61198d565b60405161016d9190612e47565b60006001600160e01b03198216637965db0b60e01b14806103c957506301ffc9a760e01b6001600160e01b03198316145b92915050565b60ff54604051637ae09f4d60e01b81526001600160a01b0390911690637ae09f4d906103ff9033906004016123c9565b60006040518083038186803b15801561041757600080fd5b505afa15801561042b573d6000803e3d6000fd5b505060fe54604080518082018252601081526f486564657261476e6f7369735361666560801b602082015290516001600160a01b0386811695509092169250600080516020613585833981519152916104849190612f31565b60405180910390a360fe80546001600160a01b0319166001600160a01b0392909216919091179055565b60fe5460405163064fdacd60e21b8152600481018390526000916001600160a01b03169063193f6b3490602401602060405180830381865afa1580156104f8573d6000803e3d6000fd5b505050506040513d601f19601f820116820180604052508101906103c99190612f44565b60009081526065602052604090206001015490565b600054610100900460ff166105a15760405162461bcd60e51b815260206004820152602b60248201527f496e697469616c697a61626c653a20636f6e7472616374206973206e6f74206960448201526a6e697469616c697a696e6760a81b60648201526084015b60405180910390fd5b6001600160a01b0386166105f85760405163d647364f60e01b815260206004820152601e60248201527f4261736544414f3a2061646d696e2061646472657373206973207a65726f00006044820152606401610598565b60ca80546001600160a01b0319166001600160a01b03881617905561062b6000805160206135a583398151915287611d19565b6106388585858585611d9f565b505050505050565b6106498261051c565b61065281611f41565b61065c8383611d19565b505050565b600054610100900460ff16158080156106815750600054600160ff909116105b8061069b5750303b15801561069b575060005460ff166001145b6106fe5760405162461bcd60e51b815260206004820152602e60248201527f496e697469616c697a61626c653a20636f6e747261637420697320616c72656160448201526d191e481a5b9a5d1a585b1a5e995960921b6064820152608401610598565b6000805460ff191660011790558015610721576000805461ff0019166101001790555b60fd80546001600160a01b038087166001600160a01b03199283161790925560fe805488841690831617905560fc805486841690831617905560ff80549285169290911691909117905560408051602081019091526000815261078b908b908b908b908b8b610531565b60fd54604080518082018252600d81526c4865646572615365727669636560981b602082015290516001600160a01b0390921691600091600080516020613585833981519152916107dc9190612f31565b60405180910390a360fc54604080518082018252600f81526e121959195c98535d5b1d1a54d95b99608a1b602082015290516001600160a01b0390921691600091600080516020613585833981519152916108379190612f31565b60405180910390a360fe54604080518082018252601081526f486564657261476e6f7369735361666560801b602082015290516001600160a01b0390921691600091600080516020613585833981519152916108939190612f31565b60405180910390a380156108e1576000805461ff0019169055604051600181527f7f26b83ff96e1f2b6a682f133852f6798a09c465da95921460cefb38474024989060200160405180910390a15b50505050505050505050565b60fd54604080516001600160a01b0392831660248201528683166044808301919091528251808303909101815260649091019091526020810180516001600160e01b031663248a35ef60e11b17905260fe5460009261095291168260028888886115f3565b9695505050505050565b6001600160a01b03811633146109cc5760405162461bcd60e51b815260206004820152602f60248201527f416363657373436f6e74726f6c3a2063616e206f6e6c792072656e6f756e636560448201526e103937b632b9903337b91039b2b63360891b6064820152608401610598565b6109d68282611f4e565b5050565b60008087511180156109ed575085518751145b80156109fa575084518751145b610a565760405162461bcd60e51b815260206004820152602760248201527f4d756c746953696744414f3a20696e76616c6964207472616e73616374696f6e604482015266040d8cadccee8d60cb1b6064820152608401610598565b606060005b8851811015610b09578160008a8381518110610a7957610a79612f5d565b60200260200101518a8481518110610a9357610a93612f5d565b60200260200101518a8581518110610aad57610aad612f5d565b6020026020010151518b8681518110610ac857610ac8612f5d565b6020026020010151604051602001610ae596959493929190612f73565b60405160208183030381529060405291508080610b0190612ff5565b915050610a5b565b506000638d80ff0a60e01b82604051602401610b259190612f31565b60408051601f198184030181529190526020810180516001600160e01b03166001600160e01b03199093169290921790915260fc54909150610b75906001600160a01b03168260018989896115f3565b9998505050505050505050565b610b8a61221d565b60008281526101006020908152604080832081516101408101835281546001600160a01b031681526001820154938101939093526002810180549192840191610bd29061300e565b80601f0160208091040260200160405190810160405280929190818152602001828054610bfe9061300e565b8015610c4b5780601f10610c2057610100808354040283529160200191610c4b565b820191906000526020600020905b815481529060010190602001808311610c2e57829003601f168201915b5050509183525050600382015460209091019060ff166001811115610c7257610c72612a7c565b6001811115610c8357610c83612a7c565b81526020016004820154815260200160058201548152602001600682018054610cab9061300e565b80601f0160208091040260200160405190810160405280929190818152602001828054610cd79061300e565b8015610d245780601f10610cf957610100808354040283529160200191610d24565b820191906000526020600020905b815481529060010190602001808311610d0757829003601f168201915b50505050508152602001600782018054610d3d9061300e565b80601f0160208091040260200160405190810160405280929190818152602001828054610d699061300e565b8015610db65780601f10610d8b57610100808354040283529160200191610db6565b820191906000526020600020905b815481529060010190602001808311610d9957829003601f168201915b50505050508152602001600882018054610dcf9061300e565b80601f0160208091040260200160405190810160405280929190818152602001828054610dfb9061300e565b8015610e485780601f10610e1d57610100808354040283529160200191610e48565b820191906000526020600020905b815481529060010190602001808311610e2b57829003601f168201915b5050509183525050600991909101546001600160a01b031660209091015260808101519091506000036103c95760405162461bcd60e51b815260040161059890613042565b6000805160206135a5833981519152610ea581611f41565b6106388686868686611d9f565b60008181526101006020908152604080832081516101408101835281546001600160a01b0316815260018201549381019390935260028101805485949384019190610efc9061300e565b80601f0160208091040260200160405190810160405280929190818152602001828054610f289061300e565b8015610f755780601f10610f4a57610100808354040283529160200191610f75565b820191906000526020600020905b815481529060010190602001808311610f5857829003601f168201915b5050509183525050600382015460209091019060ff166001811115610f9c57610f9c612a7c565b6001811115610fad57610fad612a7c565b81526020016004820154815260200160058201548152602001600682018054610fd59061300e565b80601f01602080910402602001604051908101604052809291908181526020018280546110019061300e565b801561104e5780601f106110235761010080835404028352916020019161104e565b820191906000526020600020905b81548152906001019060200180831161103157829003601f168201915b505050505081526020016007820180546110679061300e565b80601f01602080910402602001604051908101604052809291908181526020018280546110939061300e565b80156110e05780601f106110b5576101008083540402835291602001916110e0565b820191906000526020600020905b8154815290600101906020018083116110c357829003601f168201915b505050505081526020016008820180546110f99061300e565b80601f01602080910402602001604051908101604052809291908181526020018280546111259061300e565b80156111725780601f1061114757610100808354040283529160200191611172565b820191906000526020600020905b81548152906001019060200180831161115557829003601f168201915b5050509183525050600991909101546001600160a01b031660209091015260808101519091506000036111b75760405162461bcd60e51b815260040161059890613042565b60fe546040516301244d4760e11b8152600481018590526001600160a01b03909116906302489a8e90602401602060405180830381865afa158015611200573d6000803e3d6000fd5b505050506040513d601f19601f820116820180604052508101906112249190613075565b156112325750600292915050565b60fe5460405163a7f173ab60e01b8152600481018590526001600160a01b039091169063a7f173ab90602401602060405180830381865afa15801561127b573d6000803e3d6000fd5b505050506040513d601f19601f8201168201806040525081019061129f9190613075565b156112ad5750600192915050565b50600092915050565b50919050565b60009182526065602090815260408084206001600160a01b0393909316845291905290205460ff1690565b60006001600160a01b03861661133f5760405162461bcd60e51b815260206004820181905260248201527f4d756c746953696744414f3a2070726f78792063616e2774206265207a65726f6044820152606401610598565b6001600160a01b0385166113955760405162461bcd60e51b815260206004820181905260248201527f4d756c746953696744414f3a206c6f6769632063616e2774206265207a65726f6044820152606401610598565b60ff5460408051632e83149160e11b81529051600092633d0d3f0f60e21b928a928a926001600160a01b031691635d0629229160048083019260809291908290030181865afa1580156113ec573d6000803e3d6000fd5b505050506040513d601f19601f820116820180604052508101906114109190613097565b602001516040516001600160a01b039384166024820152918316604483015291909116606482015260840160408051601f198184030181529190526020810180516001600160e01b03166001600160e01b03199093169290921790915260fe5490915061148b906001600160a01b03168260038888886115f3565b9150505b95945050505050565b60fd54604080516001600160a01b0392831660248201528783166044820152888316606482015260848082018890528251808303909101815260a49091019091526020810180516001600160e01b031663031b4f8b60e21b17905260fe5460009261150991168260048888886115f3565b98975050505050505050565b60ff54604051637ae09f4d60e01b81526001600160a01b0390911690637ae09f4d906115459033906004016123c9565b60006040518083038186803b15801561155d57600080fd5b505afa158015611571573d6000803e3d6000fd5b505060fc54604080518082018252600f81526e121959195c98535d5b1d1a54d95b99608a1b602082015290516001600160a01b0386811695509092169250600080516020613585833981519152916115c99190612f31565b60405180910390a360fc80546001600160a01b0319166001600160a01b0392909216919091179055565b600083516000036116505760405162461bcd60e51b815260206004820152602160248201527f4d756c746953696744414f3a207469746c652063616e277420626520626c616e6044820152606b60f81b6064820152608401610598565b82516000036116a15760405162461bcd60e51b815260206004820181905260248201527f4d756c746953696744414f3a20646573632063616e277420626520626c616e6b6044820152606401610598565b60fe54604051633c75d0af60e11b8152600091829182916001600160a01b0316906378eba15e906116dc908d9085908e90829060040161311b565b60408051808303816000875af11580156116fa573d6000803e3d6000fd5b505050506040513d601f19601f8201168201806040525081019061171e9190613151565b60008281526101006020526040812080546001600160a01b0319166001600160a01b038f1617815560018101919091559193509150600281016117618b826131bb565b5060038101805485919060ff19166001838181111561178257611782612a7c565b02179055506004810182905560058101899055600681016117a389826131bb565b50600781016117b288826131bb565b50600881016117c187826131bb565b506009810180546001600160a01b031916331790556040517f122fdaea6d6de1c44d0a3270dde2d651500479c7c64559bd724a31059a2275f0906118089085908490613303565b60405180910390a150909998505050505050505050565b60ff54604051637ae09f4d60e01b81526001600160a01b0390911690637ae09f4d9061184f9033906004016123c9565b60006040518083038186803b15801561186757600080fd5b505afa15801561187b573d6000803e3d6000fd5b505060fd54604080518082018252600d81526c4865646572615365727669636560981b602082015290516001600160a01b0386811695509092169250600080516020613585833981519152916118d19190612f31565b60405180910390a360fd80546001600160a01b0319166001600160a01b0392909216919091179055565b6119048261051c565b61190d81611f41565b61065c8383611f4e565b60fe546000906060906001600160a01b031633146119855760405162461bcd60e51b815260206004820152602560248201527f4f6e6c7920486564657261476e6f736973536166652063616e20657865637574604482015264329034ba1760d91b6064820152608401610598565b509192909150565b6119cf6040518060c001604052806060815260200160006001600160a01b03168152602001606081526020016060815260200160608152602001606081525090565b60c96040518060c00160405290816000820180546119ec9061300e565b80601f0160208091040260200160405190810160405280929190818152602001828054611a189061300e565b8015611a655780601f10611a3a57610100808354040283529160200191611a65565b820191906000526020600020905b815481529060010190602001808311611a4857829003601f168201915b505050918352505060018201546001600160a01b03166020820152600282018054604090920191611a959061300e565b80601f0160208091040260200160405190810160405280929190818152602001828054611ac19061300e565b8015611b0e5780601f10611ae357610100808354040283529160200191611b0e565b820191906000526020600020905b815481529060010190602001808311611af157829003601f168201915b50505050508152602001600382018054611b279061300e565b80601f0160208091040260200160405190810160405280929190818152602001828054611b539061300e565b8015611ba05780601f10611b7557610100808354040283529160200191611ba0565b820191906000526020600020905b815481529060010190602001808311611b8357829003601f168201915b50505050508152602001600482018054611bb99061300e565b80601f0160208091040260200160405190810160405280929190818152602001828054611be59061300e565b8015611c325780601f10611c0757610100808354040283529160200191611c32565b820191906000526020600020905b815481529060010190602001808311611c1557829003601f168201915b5050505050815260200160058201805480602002602001604051908101604052809291908181526020016000905b82821015611d0c578382906000526020600020018054611c7f9061300e565b80601f0160208091040260200160405190810160405280929190818152602001828054611cab9061300e565b8015611cf85780601f10611ccd57610100808354040283529160200191611cf8565b820191906000526020600020905b815481529060010190602001808311611cdb57829003601f168201915b505050505081526020019060010190611c60565b5050505081525050905090565b611d2382826112bc565b6109d65760008281526065602090815260408083206001600160a01b03851684529091529020805460ff19166001179055611d5b3390565b6001600160a01b0316816001600160a01b0316837f2f8788117e7eff1d82e926ec794901d17c78024a50270940304540a733656f0d60405160405180910390a45050565b611da883611fb5565b8451600003611df35760405163d647364f60e01b81526020600482015260166024820152754261736544414f3a206e616d6520697320656d70747960501b6044820152606401610598565b60c9611dff86826131bb565b508151600003611e525760405163d647364f60e01b815260206004820152601d60248201527f4261736544414f3a206465736372697074696f6e20697320656d7074790000006044820152606401610598565b60cd611e5e83826131bb565b5060005b8151811015611ee057818181518110611e7d57611e7d612f5d565b602002602001015151600003611ece5760405163d647364f60e01b81526020600482015260156024820152744261736544414f3a20696e76616c6964206c696e6b60581b6044820152606401610598565b80611ed881612ff5565b915050611e62565b508051611ef49060ce906020840190612293565b5060cb611f0185826131bb565b507fcc9d0d1e1a5fc974a889257e10cdee98a6c0d30c66047a145bceec19d4bc667460c9604051611f329190613441565b60405180910390a15050505050565b611f4b8133612010565b50565b611f5882826112bc565b156109d65760008281526065602090815260408083206001600160a01b0385168085529252808320805460ff1916905551339285917ff6391f5c32d9c69d2a47ea670b442974b53935d1edc7fd64eb21e047a839171b9190a45050565b805115611f4b5760405163d647364f60e01b815260206004820152602260248201527f4d756c746953696744414f3a20696e666f2075726c2073686f756c6420656d70604482015261747960f01b6064820152608401610598565b61201a82826112bc565b6109d65761202781612069565b61203283602061207b565b6040516020016120439291906134d4565b60408051601f198184030181529082905262461bcd60e51b825261059891600401612f31565b60606103c96001600160a01b03831660145b6060600061208a836002613543565b61209590600261355a565b6001600160401b038111156120ac576120ac6123f6565b6040519080825280601f01601f1916602001820160405280156120d6576020820181803683370190505b509050600360fc1b816000815181106120f1576120f1612f5d565b60200101906001600160f81b031916908160001a905350600f60fb1b8160018151811061212057612120612f5d565b60200101906001600160f81b031916908160001a9053506000612144846002613543565b61214f90600161355a565b90505b60018111156121c7576f181899199a1a9b1b9c1cb0b131b232b360811b85600f166010811061218357612183612f5d565b1a60f81b82828151811061219957612199612f5d565b60200101906001600160f81b031916908160001a90535060049490941c936121c08161356d565b9050612152565b5083156122165760405162461bcd60e51b815260206004820181905260248201527f537472696e67733a20686578206c656e67746820696e73756666696369656e746044820152606401610598565b9392505050565b60405180610140016040528060006001600160a01b0316815260200160008152602001606081526020016000600181111561225a5761225a612a7c565b8152602001600081526020016000815260200160608152602001606081526020016060815260200160006001600160a01b031681525090565b8280548282559060005260206000209081019282156122d9579160200282015b828111156122d957825182906122c990826131bb565b50916020019190600101906122b3565b506122e59291506122e9565b5090565b808211156122e55760006122fd8282612306565b506001016122e9565b5080546123129061300e565b6000825580601f10612322575050565b601f016020900490600052602060002090810190611f4b91905b808211156122e5576000815560010161233c565b60006020828403121561236257600080fd5b81356001600160e01b03198116811461221657600080fd5b6001600160a01b0381168114611f4b57600080fd5b803561239a8161237a565b919050565b6000602082840312156123b157600080fd5b81356122168161237a565b6001600160a01b03169052565b6001600160a01b0391909116815260200190565b6000602082840312156123ef57600080fd5b5035919050565b634e487b7160e01b600052604160045260246000fd5b604051601f8201601f191681016001600160401b0381118282101715612434576124346123f6565b604052919050565b600082601f83011261244d57600080fd5b81356001600160401b03811115612466576124666123f6565b612479601f8201601f191660200161240c565b81815284602083860101111561248e57600080fd5b816020850160208301376000918101602001919091529392505050565b60006001600160401b038211156124c4576124c46123f6565b5060051b60200190565b600082601f8301126124df57600080fd5b813560206124f46124ef836124ab565b61240c565b82815260059290921b8401810191818101908684111561251357600080fd5b8286015b848110156125525780356001600160401b038111156125365760008081fd5b6125448986838b010161243c565b845250918301918301612517565b509695505050505050565b60008060008060008060c0878903121561257657600080fd5b61257f8761238f565b955060208701356001600160401b038082111561259b57600080fd5b6125a78a838b0161243c565b965060408901359150808211156125bd57600080fd5b6125c98a838b0161243c565b955060608901359150808211156125df57600080fd5b6125eb8a838b0161243c565b9450608089013591508082111561260157600080fd5b61260d8a838b0161243c565b935060a089013591508082111561262357600080fd5b5061263089828a016124ce565b9150509295509295509295565b6000806040838503121561265057600080fd5b8235915060208301356126628161237a565b809150509250929050565b60008060008060008060008060006101208a8c03121561268c57600080fd5b6126958a61238f565b985060208a01356001600160401b03808211156126b157600080fd5b6126bd8d838e0161243c565b995060408c01359150808211156126d357600080fd5b6126df8d838e0161243c565b985060608c01359150808211156126f557600080fd5b6127018d838e0161243c565b975060808c013591508082111561271757600080fd5b506127248c828d016124ce565b95505061273360a08b0161238f565b935061274160c08b0161238f565b925061274f60e08b0161238f565b915061275e6101008b0161238f565b90509295985092959850929598565b6000806000806080858703121561278357600080fd5b843561278e8161237a565b935060208501356001600160401b03808211156127aa57600080fd5b6127b68883890161243c565b945060408701359150808211156127cc57600080fd5b6127d88883890161243c565b935060608701359150808211156127ee57600080fd5b506127fb8782880161243c565b91505092959194509250565b600082601f83011261281857600080fd5b813560206128286124ef836124ab565b82815260059290921b8401810191818101908684111561284757600080fd5b8286015b8481101561255257803561285e8161237a565b835291830191830161284b565b600082601f83011261287c57600080fd5b8135602061288c6124ef836124ab565b82815260059290921b840181019181810190868411156128ab57600080fd5b8286015b8481101561255257803583529183019183016128af565b600082601f8301126128d757600080fd5b813560206128e76124ef836124ab565b82815260059290921b8401810191818101908684111561290657600080fd5b8286015b848110156125525780356001600160401b038111156129295760008081fd5b6129378986838b010161243c565b84525091830191830161290a565b60008060008060008060c0878903121561295e57600080fd5b86356001600160401b038082111561297557600080fd5b6129818a838b01612807565b9750602089013591508082111561299757600080fd5b6129a38a838b0161286b565b965060408901359150808211156129b957600080fd5b6129c58a838b016128c6565b955060608901359150808211156129db57600080fd5b6129e78a838b0161243c565b945060808901359150808211156129fd57600080fd5b612a098a838b0161243c565b935060a0890135915080821115612a1f57600080fd5b5061263089828a0161243c565b60005b83811015612a47578181015183820152602001612a2f565b50506000910152565b60008151808452612a68816020860160208601612a2c565b601f01601f19169290920160200192915050565b634e487b7160e01b600052602160045260246000fd5b60028110612aa257612aa2612a7c565b9052565b60208152612ab86020820183516123bc565b6020820151604082015260006040830151610140806060850152612ae0610160850183612a50565b91506060850151612af46080860182612a92565b50608085015160a085015260a085015160c085015260c0850151601f19808685030160e0870152612b258483612a50565b935060e08701519150610100818786030181880152612b448584612a50565b945080880151925050610120818786030181880152612b638584612a50565b94508088015192505050612b79828601826123bc565b5090949350505050565b600080600080600060a08688031215612b9b57600080fd5b85356001600160401b0380821115612bb257600080fd5b612bbe89838a0161243c565b96506020880135915080821115612bd457600080fd5b612be089838a0161243c565b95506040880135915080821115612bf657600080fd5b612c0289838a0161243c565b94506060880135915080821115612c1857600080fd5b612c2489838a0161243c565b93506080880135915080821115612c3a57600080fd5b50612c47888289016124ce565b9150509295509295909350565b6020810160038310612c6857612c68612a7c565b91905290565b600080600080600060a08688031215612c8657600080fd5b8535612c918161237a565b94506020860135612ca18161237a565b935060408601356001600160401b0380821115612cbd57600080fd5b612cc989838a0161243c565b94506060880135915080821115612cdf57600080fd5b612ceb89838a0161243c565b93506080880135915080821115612d0157600080fd5b50612c478882890161243c565b60008060008060008060c08789031215612d2757600080fd5b8635612d328161237a565b95506020870135612d428161237a565b94506040870135935060608701356001600160401b03808211156129db57600080fd5b60008060008060008060c08789031215612d7e57600080fd5b612d878761238f565b955060208701356001600160401b0380821115612da357600080fd5b612daf8a838b0161243c565b96506040890135955060608901359150808211156129db57600080fd5b60008060408385031215612ddf57600080fd5b8235612dea8161237a565b915060208301356001600160401b03811115612e0557600080fd5b612e118582860161243c565b9150509250929050565b6001600160a01b0383168152604060208201819052600090612e3f90830184612a50565b949350505050565b60006020808352835160c082850152612e6360e0850182612a50565b905060018060a01b03828601511660408501526040850151601f1980868403016060870152612e928383612a50565b92506060870151915080868403016080870152612eaf8383612a50565b925060808701519150808684030160a0870152612ecc8383612a50565b60a0880151878203830160c089015280518083529194508501925084840190600581901b8501860160005b82811015612f235784878303018452612f11828751612a50565b95880195938801939150600101612ef7565b509998505050505050505050565b6020815260006122166020830184612a50565b600060208284031215612f5657600080fd5b5051919050565b634e487b7160e01b600052603260045260246000fd5b60008751612f85818460208c01612a2c565b60f888901b6001600160f81b031916908301908152606087901b6001600160601b031916600182015260158101869052603581018590528351612fcf816055840160208801612a2c565b0160550198975050505050505050565b634e487b7160e01b600052601160045260246000fd5b60006001820161300757613007612fdf565b5060010190565b600181811c9082168061302257607f821691505b6020821081036112b657634e487b7160e01b600052602260045260246000fd5b602080825260199082015278135d5b1d1a54da59d11053ce881b9bc81d1e1b88195e1a5cdd603a1b604082015260600190565b60006020828403121561308757600080fd5b8151801515811461221657600080fd5b6000608082840312156130a957600080fd5b604051608081016001600160401b03811182821017156130cb576130cb6123f6565b60405282516130d98161237a565b815260208301516130e98161237a565b602082015260408301516130fc8161237a565b6040820152606083015161310f8161237a565b60608201529392505050565b60018060a01b03851681528360208201526080604082015260006131426080830185612a50565b905061148f6060830184612a92565b6000806040838503121561316457600080fd5b505080516020909101519092909150565b601f82111561065c57600081815260208120601f850160051c8101602086101561319c5750805b601f850160051c820191505b81811015610638578281556001016131a8565b81516001600160401b038111156131d4576131d46123f6565b6131e8816131e2845461300e565b84613175565b602080601f83116001811461321d57600084156132055750858301515b600019600386901b1c1916600185901b178555610638565b600085815260208120601f198616915b8281101561324c5788860151825594840194600190910190840161322d565b508582101561326a5787850151600019600388901b60f8161c191681555b5050505050600190811b01905550565b6001600160a01b031690565b600081546132938161300e565b8085526020600183811680156132b057600181146132ca576132f8565b60ff1985168884015283151560051b8801830195506132f8565b866000528260002060005b858110156132f05781548a82018601529083019084016132d5565b890184019650505b505050505092915050565b828152604060208201526133236040820161331e845461327a565b6123bc565b600182015460608201526000610140806080840152613349610180840160028601613286565b600385015460ff1661335e60a0860182612a92565b50600485015460c0850152600585015460e0850152603f19808583030161010086015261338e8260068801613286565b915080858303016101208601526133a88260078801613286565b9150808583030183860152506133c18160088701613286565b9150506133d1600985015461327a565b6133df6101608501826123bc565b50949350505050565b600081548084526020808501808196508360051b81019150856000528260002060005b858110156134345782840389526134228483613286565b9885019893506001918201910161340b565b5091979650505050505050565b6020815260c06020820152600061345b60e0830184613286565b60018401546001600160a01b03166040840152601f19838203810160608501526134888260028701613286565b9150808483030160808501526134a18260038701613286565b9150808483030160a08501526134ba8260048701613286565b9150808483030160c085015250612e3f81600586016133e8565b76020b1b1b2b9b9a1b7b73a3937b61d1030b1b1b7bab73a1604d1b815260008351613506816017850160208801612a2c565b7001034b99036b4b9b9b4b733903937b6329607d1b6017918401918201528351613537816028840160208801612a2c565b01602801949350505050565b80820281158282048414176103c9576103c9612fdf565b808201808211156103c9576103c9612fdf565b60008161357c5761357c612fdf565b50600019019056fecf9d4a2ff924c5f3553e3c8485e6bc24fde822593d2c3d78c8fabaada123f8f6f591dda2e9b53c180cef2a1f29bc285ccc0649b7a0efc8de2ec0cfe024d46b96a26469706673582212209b9b93118c982d4bc9329cb32120080c3585b6a9f4ed6f252538b09ff55dd6e264736f6c63430008120033",
  "linkReferences": {},
  "deployedLinkReferences": {}
}