{
  "_format": "hh-sol-artifact-1",
  "contractName": "MultisigDAOFactory",
  "sourceName": "contracts/dao/MultisigDAOFactory.sol",
  "abi": [
    {
      "inputs": [
        {
          "internalType": "string",
          "name": "message",
          "type": "string"
        }
      ],
      "name": "InvalidInput",
      "type": "error"
    },
    {
      "anonymous": false,
      "inputs": [
        {
          "indexed": false,
          "internalType": "address",
          "name": "daoAddress",
          "type": "address"
        },
        {
          "indexed": false,
          "internalType": "address",
          "name": "safeAddress",
          "type": "address"
        },
        {
          "indexed": false,
          "internalType": "address",
          "name": "multiSendAddress",
          "type": "address"
        },
        {
          "components": [
            {
              "internalType": "address",
              "name": "admin",
              "type": "address"
            },
            {
              "internalType": "string",
              "name": "name",
              "type": "string"
            },
            {
              "internalType": "string",
              "name": "logoUrl",
              "type": "string"
            },
            {
              "internalType": "address[]",
              "name": "owners",
              "type": "address[]"
            },
            {
              "internalType": "uint256",
              "name": "threshold",
              "type": "uint256"
            },
            {
              "internalType": "bool",
              "name": "isPrivate",
              "type": "bool"
            },
            {
              "internalType": "string",
              "name": "description",
              "type": "string"
            },
            {
              "internalType": "string[]",
              "name": "webLinks",
              "type": "string[]"
            }
          ],
          "indexed": false,
          "internalType": "struct ISharedDAOModel.MultiSigCreateDAOInputs",
          "name": "inputs",
          "type": "tuple"
        }
      ],
      "name": "DAOCreated",
      "type": "event"
    },
    {
      "anonymous": false,
      "inputs": [
        {
          "components": [
            {
              "internalType": "address",
              "name": "tokenTransferLogic",
              "type": "address"
            },
            {
              "internalType": "address",
              "name": "textLogic",
              "type": "address"
            },
            {
              "internalType": "address",
              "name": "contractUpgradeLogic",
              "type": "address"
            },
            {
              "internalType": "address",
              "name": "createTokenLogic",
              "type": "address"
            }
          ],
          "indexed": false,
          "internalType": "struct ISharedDAOModel.Governor",
          "name": "oldImplementation",
          "type": "tuple"
        },
        {
          "components": [
            {
              "internalType": "address",
              "name": "tokenTransferLogic",
              "type": "address"
            },
            {
              "internalType": "address",
              "name": "textLogic",
              "type": "address"
            },
            {
              "internalType": "address",
              "name": "contractUpgradeLogic",
              "type": "address"
            },
            {
              "internalType": "address",
              "name": "createTokenLogic",
              "type": "address"
            }
          ],
          "indexed": false,
          "internalType": "struct ISharedDAOModel.Governor",
          "name": "newImplementation",
          "type": "tuple"
        },
        {
          "indexed": false,
          "internalType": "string",
          "name": "name",
          "type": "string"
        }
      ],
      "name": "GovernorLogicUpdated",
      "type": "event"
    },
    {
      "anonymous": false,
      "inputs": [
        {
          "indexed": false,
          "internalType": "uint8",
          "name": "version",
          "type": "uint8"
        }
      ],
      "name": "Initialized",
      "type": "event"
    },
    {
      "anonymous": false,
      "inputs": [
        {
          "indexed": true,
          "internalType": "address",
          "name": "oldImplementation",
          "type": "address"
        },
        {
          "indexed": true,
          "internalType": "address",
          "name": "newImplementation",
          "type": "address"
        },
        {
          "indexed": false,
          "internalType": "string",
          "name": "name",
          "type": "string"
        }
      ],
      "name": "LogicUpdated",
      "type": "event"
    },
    {
      "inputs": [
        {
          "components": [
            {
              "internalType": "address",
              "name": "admin",
              "type": "address"
            },
            {
              "internalType": "string",
              "name": "name",
              "type": "string"
            },
            {
              "internalType": "string",
              "name": "logoUrl",
              "type": "string"
            },
            {
              "internalType": "address[]",
              "name": "owners",
              "type": "address[]"
            },
            {
              "internalType": "uint256",
              "name": "threshold",
              "type": "uint256"
            },
            {
              "internalType": "bool",
              "name": "isPrivate",
              "type": "bool"
            },
            {
              "internalType": "string",
              "name": "description",
              "type": "string"
            },
            {
              "internalType": "string[]",
              "name": "webLinks",
              "type": "string[]"
            }
          ],
          "internalType": "struct ISharedDAOModel.MultiSigCreateDAOInputs",
          "name": "_createDAOInputs",
          "type": "tuple"
        }
      ],
      "name": "createDAO",
      "outputs": [
        {
          "internalType": "address",
          "name": "",
          "type": "address"
        }
      ],
      "stateMutability": "nonpayable",
      "type": "function"
    },
    {
      "inputs": [],
      "name": "getDAOs",
      "outputs": [
        {
          "internalType": "address[]",
          "name": "",
          "type": "address[]"
        }
      ],
      "stateMutability": "view",
      "type": "function"
    },
    {
      "inputs": [],
      "name": "getHederaServiceVersion",
      "outputs": [
        {
          "internalType": "contract IHederaService",
          "name": "",
          "type": "address"
        }
      ],
      "stateMutability": "view",
      "type": "function"
    },
    {
      "inputs": [],
      "name": "getMultiSendContractAddress",
      "outputs": [
        {
          "internalType": "address",
          "name": "",
          "type": "address"
        }
      ],
      "stateMutability": "view",
      "type": "function"
    },
    {
      "inputs": [
        {
          "internalType": "contract ISystemRoleBasedAccess",
          "name": "_iSystemRoleBasedAccess",
          "type": "address"
        },
        {
          "internalType": "address",
          "name": "_daoLogic",
          "type": "address"
        },
        {
          "internalType": "address",
          "name": "_safeLogic",
          "type": "address"
        },
        {
          "internalType": "address",
          "name": "_safeFactory",
          "type": "address"
        },
        {
          "internalType": "contract IHederaService",
          "name": "_hederaService",
          "type": "address"
        },
        {
          "internalType": "contract HederaMultiSend",
          "name": "_multiSend",
          "type": "address"
        }
      ],
      "name": "initialize",
      "outputs": [],
      "stateMutability": "nonpayable",
      "type": "function"
    },
    {
      "inputs": [
        {
          "internalType": "address",
          "name": "_newImpl",
          "type": "address"
        }
      ],
      "name": "upgradeDaoLogicAddress",
      "outputs": [],
      "stateMutability": "nonpayable",
      "type": "function"
    },
    {
      "inputs": [
        {
          "internalType": "contract IHederaService",
          "name": "newHederaService",
          "type": "address"
        }
      ],
      "name": "upgradeHederaService",
      "outputs": [],
      "stateMutability": "nonpayable",
      "type": "function"
    },
    {
      "inputs": [
        {
          "internalType": "contract HederaMultiSend",
          "name": "_multiSend",
          "type": "address"
        }
      ],
      "name": "upgradeMultiSend",
      "outputs": [],
      "stateMutability": "nonpayable",
      "type": "function"
    },
    {
      "inputs": [
        {
          "internalType": "address",
          "name": "_newImpl",
          "type": "address"
        }
      ],
      "name": "upgradeSafeFactoryAddress",
      "outputs": [],
      "stateMutability": "nonpayable",
      "type": "function"
    },
    {
      "inputs": [
        {
          "internalType": "address",
          "name": "_newImpl",
          "type": "address"
        }
      ],
      "name": "upgradeSafeLogicAddress",
      "outputs": [],
      "stateMutability": "nonpayable",
      "type": "function"
    }
  ],
  "bytecode": "0x608060405234801561001057600080fd5b506124ef806100206000396000f3fe60806040523480156200001157600080fd5b50600436106200009a5760003560e01c806317924403146200009f5780633f7bcf0c14620000c4578063415cc7dd14620000dd5780634a6a898914620000f65780636dab6f75146200010d5780637bd0ca1f146200011f5780639b316eda1462000136578063cc2a9a5b146200014d578063d26d681f1462000164578063fda2d015146200017b575b600080fd5b6004546001600160a01b03165b604051620000bb919062000d60565b60405180910390f35b620000db620000d536600462000d9f565b62000192565b005b620000e76200027f565b604051620000bb919062000e0c565b620000ac620001073660046200104a565b620002e3565b6003546001600160a01b0316620000ac565b620000db6200013036600462000d9f565b620003ce565b620000db6200014736600462000d9f565b620004ad565b620000db6200015e3660046200118b565b6200058c565b620000db6200017536600462000d9f565b620008ce565b620000db6200018c36600462000d9f565b620009b1565b600554604051637ae09f4d60e01b81526001600160a01b0390911690637ae09f4d90620001c490339060040162000d60565b60006040518083038186803b158015620001dd57600080fd5b505afa158015620001f2573d6000803e3d6000fd5b5050600054604080518082018252600881526744616f4c6f67696360c01b602082015290516001600160a01b0380871695506201000090930490921692506000805160206200249a833981519152916200024d919062001262565b60405180910390a3600080546001600160a01b03909216620100000262010000600160b01b0319909216919091179055565b60606006805480602002602001604051908101604052809291908181526020018280548015620002d957602002820191906000526020600020905b81546001600160a01b03168152600190910190602001808311620002ba575b5050505050905090565b600080620002fa8360600151846080015162000a92565b90506000620003228460000151856020015186604001518760c001518860e001518762000ba7565b90508360a001516200037a57600680546001810182556000919091527ff652222313e28459528d920b65115c16c04f3efc82aaedc97be59f3f377c0d3f0180546001600160a01b0319166001600160a01b0383161790555b6004546040517f0b440c8ad7499e955487ccbef2360cf1bba49a4e37c111318a459973f7ca218791620003bf91849186916001600160a01b03909116908990620012d0565b60405180910390a19392505050565b600554604051637ae09f4d60e01b81526001600160a01b0390911690637ae09f4d906200040090339060040162000d60565b60006040518083038186803b1580156200041957600080fd5b505afa1580156200042e573d6000803e3d6000fd5b50506001546040805180820182526009815268536166654c6f67696360b81b602082015290516001600160a01b03868116955090921692506000805160206200249a8339815191529162000483919062001262565b60405180910390a3600180546001600160a01b0319166001600160a01b0392909216919091179055565b600554604051637ae09f4d60e01b81526001600160a01b0390911690637ae09f4d90620004df90339060040162000d60565b60006040518083038186803b158015620004f857600080fd5b505afa1580156200050d573d6000803e3d6000fd5b50506004546040805180820182526009815268135d5b1d1a54d95b9960ba1b602082015290516001600160a01b03868116955090921692506000805160206200249a8339815191529162000562919062001262565b60405180910390a3600480546001600160a01b0319166001600160a01b0392909216919091179055565b600054610100900460ff1615808015620005ad5750600054600160ff909116105b80620005c95750303b158015620005c9575060005460ff166001145b620006315760405162461bcd60e51b815260206004820152602e60248201527f496e697469616c697a61626c653a20636f6e747261637420697320616c72656160448201526d191e481a5b9a5d1a585b1a5e995960921b606482015260840160405180910390fd5b6000805460ff19166001179055801562000655576000805461ff0019166101001790555b600580546001600160a01b03199081166001600160a01b038a8116919091179092556000805462010000600160b01b031916620100008a85168102919091178083556001805485168b87161790556002805485168a87161790556003805485168987161790556004805490941687861617909355604080518082018252600881526744616f4c6f67696360c01b60208201529051919093049093169290916000805160206200249a8339815191529162000710919062001262565b60405180910390a36001546040805180820182526009815268536166654c6f67696360b81b602082015290516001600160a01b03909216916000916000805160206200249a8339815191529162000768919062001262565b60405180910390a3600254604080518082018252600b81526a53616665466163746f727960a81b602082015290516001600160a01b03909216916000916000805160206200249a83398151915291620007c2919062001262565b60405180910390a3600354604080518082018252600d81526c4865646572615365727669636560981b602082015290516001600160a01b03909216916000916000805160206200249a833981519152916200081e919062001262565b60405180910390a36004546040805180820182526009815268135d5b1d1a54d95b9960ba1b602082015290516001600160a01b03909216916000916000805160206200249a8339815191529162000876919062001262565b60405180910390a38015620008c5576000805461ff0019169055604051600181527f7f26b83ff96e1f2b6a682f133852f6798a09c465da95921460cefb38474024989060200160405180910390a15b50505050505050565b600554604051637ae09f4d60e01b81526001600160a01b0390911690637ae09f4d906200090090339060040162000d60565b60006040518083038186803b1580156200091957600080fd5b505afa1580156200092e573d6000803e3d6000fd5b5050600354604080518082018252600d81526c4865646572615365727669636560981b602082015290516001600160a01b03868116955090921692506000805160206200249a8339815191529162000987919062001262565b60405180910390a3600380546001600160a01b0319166001600160a01b0392909216919091179055565b600554604051637ae09f4d60e01b81526001600160a01b0390911690637ae09f4d90620009e390339060040162000d60565b60006040518083038186803b158015620009fc57600080fd5b505afa15801562000a11573d6000803e3d6000fd5b5050600254604080518082018252600b81526a53616665466163746f727960a81b602082015290516001600160a01b03868116955090921692506000805160206200249a8339815191529162000a68919062001262565b60405180910390a3600280546001600160a01b0319166001600160a01b0392909216919091179055565b60025460015460408051602081018252600080825291516361b69abd60e01b81529193849360609385936001600160a01b03938416936361b69abd9362000ae09391169190600401620013cc565b6020604051808303816000875af115801562000b00573d6000803e3d6000fd5b505050506040513d601f19601f8201168201806040525081019062000b269190620013fa565b60405163b63e800d60e01b815290915081906001600160a01b0382169063b63e800d9062000b68908a908a90899089908290819060009082906004016200141a565b600060405180830381600087803b15801562000b8357600080fd5b505af115801562000b98573d6000803e3d6000fd5b50929998505050505050505050565b600080600560009054906101000a90046001600160a01b03166001600160a01b0316635d0629226040518163ffffffff1660e01b8152600401608060405180830381865afa15801562000bfe573d6000803e3d6000fd5b505050506040513d601f19601f8201168201806040525081019062000c24919062001489565b60200151905060008060029054906101000a90046001600160a01b0316826040518060200160405280600081525060405162000c609062000d52565b62000c6e9392919062001519565b604051809103906000f08015801562000c8b573d6000803e3d6000fd5b5090506000819050806001600160a01b031663333098478b8b8b8b8b8b600360009054906101000a90046001600160a01b0316600460009054906101000a90046001600160a01b0316600560009054906101000a90046001600160a01b03166040518a63ffffffff1660e01b815260040162000d109998979695949392919062001550565b600060405180830381600087803b15801562000d2b57600080fd5b505af115801562000d40573d6000803e3d6000fd5b50929c9b505050505050505050505050565b610eb280620015e883390190565b6001600160a01b0391909116815260200190565b6001600160a01b038116811462000d8a57600080fd5b50565b803562000d9a8162000d74565b919050565b60006020828403121562000db257600080fd5b813562000dbf8162000d74565b9392505050565b600081518084526020808501945080840160005b8381101562000e015781516001600160a01b03168752958201959082019060010162000dda565b509495945050505050565b60208152600062000dbf602083018462000dc6565b634e487b7160e01b600052604160045260246000fd5b60405161010081016001600160401b038111828210171562000e5d5762000e5d62000e21565b60405290565b604051601f8201601f191681016001600160401b038111828210171562000e8e5762000e8e62000e21565b604052919050565b600082601f83011262000ea857600080fd5b81356001600160401b0381111562000ec45762000ec462000e21565b62000ed9601f8201601f191660200162000e63565b81815284602083860101111562000eef57600080fd5b816020850160208301376000918101602001919091529392505050565b60006001600160401b0382111562000f285762000f2862000e21565b5060051b60200190565b600082601f83011262000f4457600080fd5b8135602062000f5d62000f578362000f0c565b62000e63565b82815260059290921b8401810191818101908684111562000f7d57600080fd5b8286015b8481101562000fa557803562000f978162000d74565b835291830191830162000f81565b509695505050505050565b8035801515811462000d9a57600080fd5b600082601f83011262000fd357600080fd5b8135602062000fe662000f578362000f0c565b82815260059290921b840181019181810190868411156200100657600080fd5b8286015b8481101562000fa55780356001600160401b038111156200102b5760008081fd5b6200103b8986838b010162000e96565b8452509183019183016200100a565b6000602082840312156200105d57600080fd5b81356001600160401b03808211156200107557600080fd5b9083019061010082860312156200108b57600080fd5b6200109562000e37565b620010a08362000d8d565b8152602083013582811115620010b557600080fd5b620010c38782860162000e96565b602083015250604083013582811115620010dc57600080fd5b620010ea8782860162000e96565b6040830152506060830135828111156200110357600080fd5b620011118782860162000f32565b606083015250608083013560808201526200112f60a0840162000fb0565b60a082015260c0830135828111156200114757600080fd5b620011558782860162000e96565b60c08301525060e0830135828111156200116e57600080fd5b6200117c8782860162000fc1565b60e08301525095945050505050565b60008060008060008060c08789031215620011a557600080fd5b8635620011b28162000d74565b95506020870135620011c48162000d74565b94506040870135620011d68162000d74565b93506060870135620011e88162000d74565b92506080870135620011fa8162000d74565b915060a08701356200120c8162000d74565b809150509295509295509295565b6000815180845260005b81811015620012425760208185018101518683018201520162001224565b506000602082860101526020601f19601f83011685010191505092915050565b60208152600062000dbf60208301846200121a565b600081518084526020808501808196508360051b8101915082860160005b85811015620012c3578284038952620012b08483516200121a565b9885019893509084019060010162001295565b5091979650505050505050565b6001600160a01b03858116825284811660208301528381166040830152608060608301819052835190911690820152600060208301516101008060a08501526200131f6101808501836200121a565b91506040850151607f19808685030160c08701526200133f84836200121a565b935060608701519150808685030160e08701526200135e848362000dc6565b935060808701518387015260a087015192506200138061012087018415159052565b60c0870151925080868503016101408701526200139e84846200121a565b935060e0870151925080868503016101608701525050620013c0828262001277565b98975050505050505050565b6001600160a01b0383168152604060208201819052600090620013f2908301846200121a565b949350505050565b6000602082840312156200140d57600080fd5b815162000dbf8162000d74565b6000610100808352620014308184018c62000dc6565b602084018b90526001600160a01b038a8116604086015284820360608601529091506200145e828a6200121a565b978116608085015295861660a0840152505060c081019290925290911660e090910152949350505050565b6000608082840312156200149c57600080fd5b604051608081016001600160401b0381118282101715620014c157620014c162000e21565b6040528251620014d18162000d74565b81526020830151620014e38162000d74565b60208201526040830151620014f88162000d74565b604082015260608301516200150d8162000d74565b60608201529392505050565b6001600160a01b0384811682528316602082015260606040820181905260009062001547908301846200121a565b95945050505050565b6001600160a01b038a8116825261012060208301819052600091620015788483018d6200121a565b915083820360408501526200158e828c6200121a565b91508382036060850152620015a4828b6200121a565b91508382036080850152620015ba828a62001277565b97811660a085015295861660c0840152505091831660e0830152909116610100909101529594505050505056fe608060405260405162000eb238038062000eb2833981016040819052620000269162000497565b828162000036828260006200004d565b50620000449050826200008a565b505050620005ca565b6200005883620000e5565b600082511180620000665750805b1562000085576200008383836200012760201b620001691760201c565b505b505050565b7f7e644d79422f17c01e4894b5f4f588d331ebfa28653d42ae832dc59e38c9798f620000b562000156565b604080516001600160a01b03928316815291841660208301520160405180910390a1620000e2816200018f565b50565b620000f08162000244565b6040516001600160a01b038216907fbc7cd75a20ee27fd9adebab32041f755214dbc6bffa90cc0225b39da2e5c2d3b90600090a250565b60606200014f838360405180606001604052806027815260200162000e8b60279139620002f8565b9392505050565b60006200018060008051602062000e6b83398151915260001b6200037760201b620001951760201c565b546001600160a01b0316919050565b6001600160a01b038116620001fa5760405162461bcd60e51b815260206004820152602660248201527f455243313936373a206e65772061646d696e20697320746865207a65726f206160448201526564647265737360d01b60648201526084015b60405180910390fd5b806200022360008051602062000e6b83398151915260001b6200037760201b620001951760201c565b80546001600160a01b0319166001600160a01b039290921691909117905550565b6200025a816200037a60201b620001981760201c565b620002be5760405162461bcd60e51b815260206004820152602d60248201527f455243313936373a206e657720696d706c656d656e746174696f6e206973206e60448201526c1bdd08184818dbdb9d1c9858dd609a1b6064820152608401620001f1565b80620002237f360894a13ba1a3210667c828492db98dca3e2076cc3735a920a3ca505d382bbc60001b6200037760201b620001951760201c565b6060600080856001600160a01b03168560405162000317919062000577565b600060405180830381855af49150503d806000811462000354576040519150601f19603f3d011682016040523d82523d6000602084013e62000359565b606091505b5090925090506200036d8683838762000389565b9695505050505050565b90565b6001600160a01b03163b151590565b60608315620003fd578251600003620003f557620003a7856200037a565b620003f55760405162461bcd60e51b815260206004820152601d60248201527f416464726573733a2063616c6c20746f206e6f6e2d636f6e74726163740000006044820152606401620001f1565b508162000409565b62000409838362000411565b949350505050565b815115620004225781518083602001fd5b8060405162461bcd60e51b8152600401620001f1919062000595565b80516001600160a01b03811681146200045657600080fd5b919050565b634e487b7160e01b600052604160045260246000fd5b60005b838110156200048e57818101518382015260200162000474565b50506000910152565b600080600060608486031215620004ad57600080fd5b620004b8846200043e565b9250620004c8602085016200043e565b60408501519092506001600160401b0380821115620004e657600080fd5b818601915086601f830112620004fb57600080fd5b8151818111156200051057620005106200045b565b604051601f8201601f19908116603f011681019083821181831017156200053b576200053b6200045b565b816040528281528960208487010111156200055557600080fd5b6200056883602083016020880162000471565b80955050505050509250925092565b600082516200058b81846020870162000471565b9190910192915050565b6020815260008251806020840152620005b681604085016020870162000471565b601f01601f19169190910160400192915050565b61089180620005da6000396000f3fe60806040523661001357610011610017565b005b6100115b61001f6101a7565b6001600160a01b0316330361015f5760606001600160e01b0319600035166364d3180d60e11b810161005a576100536101c8565b9150610157565b63587086bd60e11b6001600160e01b031982160161007a5761005361021f565b63070d7c6960e41b6001600160e01b031982160161009a57610053610265565b621eb96f60e61b6001600160e01b03198216016100b957610053610296565b63a39f25e560e01b6001600160e01b03198216016100d9576100536102d6565b60405162461bcd60e51b815260206004820152604260248201527f5472616e73706172656e745570677261646561626c6550726f78793a2061646d60448201527f696e2063616e6e6f742066616c6c6261636b20746f2070726f78792074617267606482015261195d60f21b608482015260a4015b60405180910390fd5b815160208301f35b6101676102ea565b565b606061018e8383604051806060016040528060278152602001610835602791396102fa565b9392505050565b90565b6001600160a01b03163b151590565b60006000805160206107f58339815191525b546001600160a01b0316919050565b60606101d2610372565b60006101e13660048184610649565b8101906101ee919061068f565b905061020b8160405180602001604052806000815250600061037d565b505060408051602081019091526000815290565b60606000806102313660048184610649565b81019061023e91906106c0565b9150915061024e8282600161037d565b604051806020016040528060008152509250505090565b606061026f610372565b600061027e3660048184610649565b81019061028b919061068f565b905061020b816103a9565b60606102a0610372565b60006102aa6101a7565b604080516001600160a01b03831660208201529192500160405160208183030381529060405291505090565b60606102e0610372565b60006102aa610400565b6101676102f5610400565b61040f565b6060600080856001600160a01b03168560405161031791906107a5565b600060405180830381855af49150503d8060008114610352576040519150601f19603f3d011682016040523d82523d6000602084013e610357565b606091505b509150915061036886838387610433565b9695505050505050565b341561016757600080fd5b610386836104b2565b6000825111806103935750805b156103a4576103a28383610169565b505b505050565b7f7e644d79422f17c01e4894b5f4f588d331ebfa28653d42ae832dc59e38c9798f6103d26101a7565b604080516001600160a01b03928316815291841660208301520160405180910390a16103fd816104f2565b50565b600061040a610589565b905090565b3660008037600080366000845af43d6000803e80801561042e573d6000f35b3d6000fd5b606083156104a05782516000036104995761044d85610198565b6104995760405162461bcd60e51b815260206004820152601d60248201527f416464726573733a2063616c6c20746f206e6f6e2d636f6e7472616374000000604482015260640161014e565b50816104aa565b6104aa838361059f565b949350505050565b6104bb816105c9565b6040516001600160a01b038216907fbc7cd75a20ee27fd9adebab32041f755214dbc6bffa90cc0225b39da2e5c2d3b90600090a250565b6001600160a01b0381166105575760405162461bcd60e51b815260206004820152602660248201527f455243313936373a206e65772061646d696e20697320746865207a65726f206160448201526564647265737360d01b606482015260840161014e565b806000805160206107f58339815191525b80546001600160a01b0319166001600160a01b039290921691909117905550565b60006000805160206108158339815191526101b9565b8151156105af5781518083602001fd5b8060405162461bcd60e51b815260040161014e91906107c1565b6105d281610198565b6106345760405162461bcd60e51b815260206004820152602d60248201527f455243313936373a206e657720696d706c656d656e746174696f6e206973206e60448201526c1bdd08184818dbdb9d1c9858dd609a1b606482015260840161014e565b80600080516020610815833981519152610568565b6000808585111561065957600080fd5b8386111561066657600080fd5b5050820193919092039150565b80356001600160a01b038116811461068a57600080fd5b919050565b6000602082840312156106a157600080fd5b61018e82610673565b634e487b7160e01b600052604160045260246000fd5b600080604083850312156106d357600080fd5b6106dc83610673565b915060208301356001600160401b03808211156106f857600080fd5b818501915085601f83011261070c57600080fd5b81358181111561071e5761071e6106aa565b604051601f8201601f19908116603f01168101908382118183101715610746576107466106aa565b8160405282815288602084870101111561075f57600080fd5b8260208601602083013760006020848301015280955050505050509250929050565b60005b8381101561079c578181015183820152602001610784565b50506000910152565b600082516107b7818460208701610781565b9190910192915050565b60208152600082518060208401526107e0816040850160208701610781565b601f01601f1916919091016040019291505056feb53127684a568b3173ae13b9f8a6016e243e63b6e8ee1178d6a717850b5d6103360894a13ba1a3210667c828492db98dca3e2076cc3735a920a3ca505d382bbc416464726573733a206c6f772d6c6576656c2064656c65676174652063616c6c206661696c6564a2646970667358221220620b02c16977e4bc46dc8e126676654738ae0c6dcb3ade55e68906b6b7d90c2164736f6c63430008120033b53127684a568b3173ae13b9f8a6016e243e63b6e8ee1178d6a717850b5d6103416464726573733a206c6f772d6c6576656c2064656c65676174652063616c6c206661696c6564cf9d4a2ff924c5f3553e3c8485e6bc24fde822593d2c3d78c8fabaada123f8f6a2646970667358221220d58e5f1b164471f0d57f06c7034b16236f1748f0a8fd846b3007f1f1519f568964736f6c63430008120033",
  "linkReferences": {},
  "deployedLinkReferences": {}
}