{
  "_format": "hh-sol-artifact-1",
  "contractName": "MultisigDAOFactory",
  "sourceName": "contracts/dao/MultisigDAOFactory.sol",
  "abi": [
    {
      "inputs": [],
      "stateMutability": "nonpayable",
      "type": "constructor"
    },
    {
      "inputs": [
        {
          "internalType": "string",
          "name": "message",
          "type": "string"
        }
      ],
      "name": "InvalidInput",
      "type": "error"
    },
    {
      "anonymous": false,
      "inputs": [
        {
          "indexed": false,
          "internalType": "address",
          "name": "daoAddress",
          "type": "address"
        },
        {
          "indexed": false,
          "internalType": "address",
          "name": "safeAddress",
          "type": "address"
        },
        {
          "indexed": false,
          "internalType": "address",
          "name": "multiSendAddress",
          "type": "address"
        },
        {
          "components": [
            {
              "internalType": "address",
              "name": "admin",
              "type": "address"
            },
            {
              "internalType": "string",
              "name": "name",
              "type": "string"
            },
            {
              "internalType": "string",
              "name": "logoUrl",
              "type": "string"
            },
            {
              "internalType": "string",
              "name": "infoUrl",
              "type": "string"
            },
            {
              "internalType": "address[]",
              "name": "owners",
              "type": "address[]"
            },
            {
              "internalType": "uint256",
              "name": "threshold",
              "type": "uint256"
            },
            {
              "internalType": "bool",
              "name": "isPrivate",
              "type": "bool"
            },
            {
              "internalType": "string",
              "name": "description",
              "type": "string"
            },
            {
              "internalType": "string[]",
              "name": "webLinks",
              "type": "string[]"
            }
          ],
          "indexed": false,
          "internalType": "struct ISharedModel.MultiSigCreateDAOInputs",
          "name": "inputs",
          "type": "tuple"
        }
      ],
      "name": "DAOCreated",
      "type": "event"
    },
    {
      "anonymous": false,
      "inputs": [
        {
          "indexed": true,
          "internalType": "address",
          "name": "previousController",
          "type": "address"
        },
        {
          "indexed": true,
          "internalType": "address",
          "name": "newController",
          "type": "address"
        }
      ],
      "name": "FeeConfigControllerChanged",
      "type": "event"
    },
    {
      "anonymous": false,
      "inputs": [
        {
          "components": [
            {
              "internalType": "address",
              "name": "receiver",
              "type": "address"
            },
            {
              "internalType": "address",
              "name": "tokenAddress",
              "type": "address"
            },
            {
              "internalType": "uint256",
              "name": "amountOrId",
              "type": "uint256"
            }
          ],
          "indexed": false,
          "internalType": "struct ISharedModel.FeeConfig",
          "name": "feeConfig",
          "type": "tuple"
        }
      ],
      "name": "FeeConfigUpdated",
      "type": "event"
    },
    {
      "anonymous": false,
      "inputs": [
        {
          "indexed": false,
          "internalType": "uint8",
          "name": "version",
          "type": "uint8"
        }
      ],
      "name": "Initialized",
      "type": "event"
    },
    {
      "anonymous": false,
      "inputs": [
        {
          "indexed": true,
          "internalType": "address",
          "name": "oldImplementation",
          "type": "address"
        },
        {
          "indexed": true,
          "internalType": "address",
          "name": "newImplementation",
          "type": "address"
        },
        {
          "indexed": false,
          "internalType": "string",
          "name": "name",
          "type": "string"
        }
      ],
      "name": "LogicUpdated",
      "type": "event"
    },
    {
      "inputs": [
        {
          "internalType": "address",
          "name": "_newController",
          "type": "address"
        }
      ],
      "name": "changeFeeConfigController",
      "outputs": [],
      "stateMutability": "nonpayable",
      "type": "function"
    },
    {
      "inputs": [
        {
          "internalType": "address",
          "name": "_newController",
          "type": "address"
        }
      ],
      "name": "changeFeeConfigControllerViaProposal",
      "outputs": [],
      "stateMutability": "nonpayable",
      "type": "function"
    },
    {
      "inputs": [
        {
          "components": [
            {
              "internalType": "address",
              "name": "admin",
              "type": "address"
            },
            {
              "internalType": "string",
              "name": "name",
              "type": "string"
            },
            {
              "internalType": "string",
              "name": "logoUrl",
              "type": "string"
            },
            {
              "internalType": "string",
              "name": "infoUrl",
              "type": "string"
            },
            {
              "internalType": "address[]",
              "name": "owners",
              "type": "address[]"
            },
            {
              "internalType": "uint256",
              "name": "threshold",
              "type": "uint256"
            },
            {
              "internalType": "bool",
              "name": "isPrivate",
              "type": "bool"
            },
            {
              "internalType": "string",
              "name": "description",
              "type": "string"
            },
            {
              "internalType": "string[]",
              "name": "webLinks",
              "type": "string[]"
            }
          ],
          "internalType": "struct ISharedModel.MultiSigCreateDAOInputs",
          "name": "_createDAOInputs",
          "type": "tuple"
        }
      ],
      "name": "createDAO",
      "outputs": [
        {
          "internalType": "address",
          "name": "",
          "type": "address"
        }
      ],
      "stateMutability": "payable",
      "type": "function"
    },
    {
      "inputs": [],
      "name": "feeConfig",
      "outputs": [
        {
          "internalType": "address",
          "name": "receiver",
          "type": "address"
        },
        {
          "internalType": "address",
          "name": "tokenAddress",
          "type": "address"
        },
        {
          "internalType": "uint256",
          "name": "amountOrId",
          "type": "uint256"
        }
      ],
      "stateMutability": "view",
      "type": "function"
    },
    {
      "inputs": [],
      "name": "getDAOs",
      "outputs": [
        {
          "internalType": "address[]",
          "name": "",
          "type": "address[]"
        }
      ],
      "stateMutability": "view",
      "type": "function"
    },
    {
      "inputs": [],
      "name": "getHederaServiceVersion",
      "outputs": [
        {
          "internalType": "contract IHederaService",
          "name": "",
          "type": "address"
        }
      ],
      "stateMutability": "view",
      "type": "function"
    },
    {
      "inputs": [],
      "name": "getMultiSendContractAddress",
      "outputs": [
        {
          "internalType": "address",
          "name": "",
          "type": "address"
        }
      ],
      "stateMutability": "view",
      "type": "function"
    },
    {
      "inputs": [],
      "name": "iSystemRoleBasedAccess",
      "outputs": [
        {
          "internalType": "contract ISystemRoleBasedAccess",
          "name": "",
          "type": "address"
        }
      ],
      "stateMutability": "view",
      "type": "function"
    },
    {
      "inputs": [
        {
          "internalType": "contract ISystemRoleBasedAccess",
          "name": "_iSystemRoleBasedAccess",
          "type": "address"
        },
        {
          "internalType": "address",
          "name": "_daoLogic",
          "type": "address"
        },
        {
          "internalType": "address",
          "name": "_safeLogic",
          "type": "address"
        },
        {
          "internalType": "address",
          "name": "_safeFactory",
          "type": "address"
        },
        {
          "components": [
            {
              "internalType": "address",
              "name": "receiver",
              "type": "address"
            },
            {
              "internalType": "address",
              "name": "tokenAddress",
              "type": "address"
            },
            {
              "internalType": "uint256",
              "name": "amountOrId",
              "type": "uint256"
            }
          ],
          "internalType": "struct ISharedModel.FeeConfig",
          "name": "_feeConfig",
          "type": "tuple"
        },
        {
          "internalType": "contract IHederaService",
          "name": "_hederaService",
          "type": "address"
        },
        {
          "internalType": "contract HederaMultiSend",
          "name": "_multiSend",
          "type": "address"
        }
      ],
      "name": "initialize",
      "outputs": [],
      "stateMutability": "nonpayable",
      "type": "function"
    },
    {
      "inputs": [
        {
          "components": [
            {
              "internalType": "address",
              "name": "receiver",
              "type": "address"
            },
            {
              "internalType": "address",
              "name": "tokenAddress",
              "type": "address"
            },
            {
              "internalType": "uint256",
              "name": "amountOrId",
              "type": "uint256"
            }
          ],
          "internalType": "struct ISharedModel.FeeConfig",
          "name": "_feeConfig",
          "type": "tuple"
        }
      ],
      "name": "updateFeeConfig",
      "outputs": [],
      "stateMutability": "nonpayable",
      "type": "function"
    },
    {
      "inputs": [
        {
          "internalType": "address",
          "name": "_newImpl",
          "type": "address"
        }
      ],
      "name": "upgradeDaoLogicAddress",
      "outputs": [],
      "stateMutability": "nonpayable",
      "type": "function"
    },
    {
      "inputs": [
        {
          "internalType": "contract IHederaService",
          "name": "newHederaService",
          "type": "address"
        }
      ],
      "name": "upgradeHederaService",
      "outputs": [],
      "stateMutability": "nonpayable",
      "type": "function"
    },
    {
      "inputs": [
        {
          "internalType": "contract ISystemRoleBasedAccess",
          "name": "_iSystemRoleBasedAccess",
          "type": "address"
        }
      ],
      "name": "upgradeISystemRoleBasedAccess",
      "outputs": [],
      "stateMutability": "nonpayable",
      "type": "function"
    },
    {
      "inputs": [
        {
          "internalType": "contract HederaMultiSend",
          "name": "_multiSend",
          "type": "address"
        }
      ],
      "name": "upgradeMultiSend",
      "outputs": [],
      "stateMutability": "nonpayable",
      "type": "function"
    },
    {
      "inputs": [
        {
          "internalType": "address",
          "name": "_newImpl",
          "type": "address"
        }
      ],
      "name": "upgradeSafeFactoryAddress",
      "outputs": [],
      "stateMutability": "nonpayable",
      "type": "function"
    },
    {
      "inputs": [
        {
          "internalType": "address",
          "name": "_newImpl",
          "type": "address"
        }
      ],
      "name": "upgradeSafeLogicAddress",
      "outputs": [],
      "stateMutability": "nonpayable",
      "type": "function"
    }
  ],
  "bytecode": "0x608060405234801561001057600080fd5b5061001961001e565b6100dd565b600054610100900460ff161561008a5760405162461bcd60e51b815260206004820152602760248201527f496e697469616c697a61626c653a20636f6e747261637420697320696e697469604482015266616c697a696e6760c81b606482015260840160405180910390fd5b60005460ff908116146100db576000805460ff191660ff9081179091556040519081527f7f26b83ff96e1f2b6a682f133852f6798a09c465da95921460cefb38474024989060200160405180910390a15b565b61327380620000ed6000396000f3fe608060405260043610620000d45760003560e01c80631792440314620000d95780631e5eb1d0146200010c5780633f7bcf0c146200014a578063415cc7dd14620001715780636dab6f7514620001985780637bd0ca1f14620001b85780637c27c66c14620001dd5780638fd9007f14620002025780639127b2971462000227578063932e57b1146200024c5780639b316eda146200026e578063c0e96bc21462000293578063d26d681f14620002b8578063efa6f42514620002dd578063f3ad2d3e1462000302578063fda2d0151462000319575b600080fd5b348015620000e657600080fd5b50603b546001600160a01b03165b604051620001039190620018d0565b60405180910390f35b3480156200011957600080fd5b5060015460025460035462000139926001600160a01b0390811692169083565b6040516200010393929190620018e4565b3480156200015757600080fd5b506200016f6200016936600462001930565b6200033e565b005b3480156200017e57600080fd5b50620001896200041c565b6040516200010391906200199d565b348015620001a557600080fd5b50603a546001600160a01b0316620000f4565b348015620001c557600080fd5b506200016f620001d736600462001930565b62000480565b348015620001ea57600080fd5b506200016f620001fc36600462001a9a565b6200055f565b3480156200020f57600080fd5b506200016f6200022136600462001930565b62000889565b3480156200023457600080fd5b506200016f6200024636600462001930565b62000974565b3480156200025957600080fd5b50600554620000f4906001600160a01b031681565b3480156200027b57600080fd5b506200016f6200028d36600462001930565b620009dc565b348015620002a057600080fd5b506200016f620002b236600462001930565b62000abb565b348015620002c557600080fd5b506200016f620002d736600462001930565b62000b9c565b348015620002ea57600080fd5b506200016f620002fc36600462001b40565b62000c7f565b620000f46200031336600462001d1e565b62000cd8565b3480156200032657600080fd5b506200016f6200033836600462001930565b62000de2565b600554604051637ae09f4d60e01b81526001600160a01b0390911690637ae09f4d9062000370903390600401620018d0565b60006040518083038186803b1580156200038957600080fd5b505afa1580156200039e573d6000803e3d6000fd5b5050603754604080518082018252600881526744616f4c6f67696360c01b602082015290516001600160a01b03868116955090921692506000805160206200321e83398151915291620003f2919062001ed2565b60405180910390a3603780546001600160a01b0319166001600160a01b0392909216919091179055565b6060603c8054806020026020016040519081016040528092919081815260200182805480156200047657602002820191906000526020600020905b81546001600160a01b0316815260019091019060200180831162000457575b5050505050905090565b600554604051637ae09f4d60e01b81526001600160a01b0390911690637ae09f4d90620004b2903390600401620018d0565b60006040518083038186803b158015620004cb57600080fd5b505afa158015620004e0573d6000803e3d6000fd5b50506038546040805180820182526009815268536166654c6f67696360b81b602082015290516001600160a01b03868116955090921692506000805160206200321e8339815191529162000535919062001ed2565b60405180910390a3603880546001600160a01b0319166001600160a01b0392909216919091179055565b600054610100900460ff1615808015620005805750600054600160ff909116105b806200059c5750303b1580156200059c575060005460ff166001145b620006055760405162461bcd60e51b815260206004820152602e60248201527f496e697469616c697a61626c653a20636f6e747261637420697320616c72656160448201526d191e481a5b9a5d1a585b1a5e995960921b60648201526084015b60405180910390fd5b6000805460ff19166001179055801562000629576000805461ff0019166101001790555b62000635848962000ec3565b603780546001600160a01b03808a166001600160a01b03199283168117909355603880548a831690841617905560398054898316908416179055603a8054878316908416179055603b805491861691909216179055604080518082018252600881526744616f4c6f67696360c01b602082015290516000916000805160206200321e83398151915291620006ca919062001ed2565b60405180910390a36038546040805180820182526009815268536166654c6f67696360b81b602082015290516001600160a01b03909216916000916000805160206200321e8339815191529162000722919062001ed2565b60405180910390a3603954604080518082018252600b81526a53616665466163746f727960a81b602082015290516001600160a01b03909216916000916000805160206200321e833981519152916200077c919062001ed2565b60405180910390a3603a54604080518082018252600d81526c4865646572615365727669636560981b602082015290516001600160a01b03909216916000916000805160206200321e83398151915291620007d8919062001ed2565b60405180910390a3603b546040805180820182526009815268135d5b1d1a54d95b9960ba1b602082015290516001600160a01b03909216916000916000805160206200321e8339815191529162000830919062001ed2565b60405180910390a380156200087f576000805461ff0019169055604051600181527f7f26b83ff96e1f2b6a682f133852f6798a09c465da95921460cefb38474024989060200160405180910390a15b5050505050505050565b600554604051634fee0ff160e01b81526001600160a01b0390911690634fee0ff190620008bb903390600401620018d0565b60006040518083038186803b158015620008d457600080fd5b505afa158015620008e9573d6000803e3d6000fd5b505050506001600160a01b0381163303620009185760405162461bcd60e51b8152600401620005fc9062001ee7565b6004546040516001600160a01b038084169216907fb6f25ccac2e112929ade9d1937d395e698bf375a04b9f7d4eb46c7cb1f95402790600090a3600480546001600160a01b0319166001600160a01b0392909216919091179055565b6200097e62000fb6565b6001600160a01b0316336001600160a01b031614620009b15760405162461bcd60e51b8152600401620005fc9062001f15565b6001600160a01b0381163303620009185760405162461bcd60e51b8152600401620005fc9062001ee7565b600554604051637ae09f4d60e01b81526001600160a01b0390911690637ae09f4d9062000a0e903390600401620018d0565b60006040518083038186803b15801562000a2757600080fd5b505afa15801562000a3c573d6000803e3d6000fd5b5050603b546040805180820182526009815268135d5b1d1a54d95b9960ba1b602082015290516001600160a01b03868116955090921692506000805160206200321e8339815191529162000a91919062001ed2565b60405180910390a3603b80546001600160a01b0319166001600160a01b0392909216919091179055565b600554604051637ae09f4d60e01b81526001600160a01b0390911690637ae09f4d9062000aed903390600401620018d0565b60006040518083038186803b15801562000b0657600080fd5b505afa15801562000b1b573d6000803e3d6000fd5b5050600554604080518082018252600b81526a4953797374656d526f6c6560a81b602082015290516001600160a01b03868116955090921692506000805160206200321e8339815191529162000b72919062001ed2565b60405180910390a3600580546001600160a01b0319166001600160a01b0392909216919091179055565b600554604051637ae09f4d60e01b81526001600160a01b0390911690637ae09f4d9062000bce903390600401620018d0565b60006040518083038186803b15801562000be757600080fd5b505afa15801562000bfc573d6000803e3d6000fd5b5050603a54604080518082018252600d81526c4865646572615365727669636560981b602082015290516001600160a01b03868116955090921692506000805160206200321e8339815191529162000c55919062001ed2565b60405180910390a3603a80546001600160a01b0319166001600160a01b0392909216919091179055565b62000c8962000fb6565b6001600160a01b0316336001600160a01b03161462000cbc5760405162461bcd60e51b8152600401620005fc9062001f15565b62000cd581600001518260200151836040015162000fc5565b50565b603a5460009062000cf2906001600160a01b0316620010a5565b600062000d0883608001518460a00151620011b5565b9050600062000d3684600001518560200151866040015187606001518860e0015189610100015188620012ca565b90508360c0015162000d8e57603c80546001810182556000919091527fc6bb06cb7f92603de181bf256cd16846b93b752a170ff24824098b31aa008a7e0180546001600160a01b0319166001600160a01b0383161790555b603b546040517f4b58a2fa62b1241fa22dccf4a0046838aed47bfa53b79d317695ad0cf30bbf749162000dd391849186916001600160a01b0390911690899062001f9c565b60405180910390a19392505050565b600554604051637ae09f4d60e01b81526001600160a01b0390911690637ae09f4d9062000e14903390600401620018d0565b60006040518083038186803b15801562000e2d57600080fd5b505afa15801562000e42573d6000803e3d6000fd5b5050603954604080518082018252600b81526a53616665466163746f727960a81b602082015290516001600160a01b03868116955090921692506000805160206200321e8339815191529162000e99919062001ed2565b60405180910390a3603980546001600160a01b0319166001600160a01b0392909216919091179055565b600054610100900460ff1662000f305760405162461bcd60e51b815260206004820152602b60248201527f496e697469616c697a61626c653a20636f6e7472616374206973206e6f74206960448201526a6e697469616c697a696e6760a81b6064820152608401620005fc565b62000f4982600001518360200151846040015162000fc5565b600580546001600160a01b0319166001600160a01b038316908117909155604080518082018252600b81526a4953797374656d526f6c6560a81b602082015290516000916000805160206200321e8339815191529162000faa919062001ed2565b60405180910390a35050565b6004546001600160a01b031690565b60008111801562000fde57506001600160a01b03831615155b6200102a5760405162461bcd60e51b815260206004820152601b60248201527a46433a20496e76616c69642066656520636f6e666967206461746160281b6044820152606401620005fc565b600180546001600160a01b038581166001600160a01b0319928316811790935560028054918616919092168117909155600383905560408051928352602083019190915281018290527febd34b2df88ea5c9f67c04b13b08e5e63c2d17e269aab73b866fe47a8736a2649060600160405180910390a1505050565b6002546001600160a01b03166200113a5760035434146200111f5760405162461bcd60e51b815260206004820152602d60248201527f46433a204842415220616d6f756e74206d7573742062652073616d6520746f2060448201526c18dbdb999a59c8185b5bdd5b9d609a1b6064820152608401620005fc565b60015460035462000cd5916001600160a01b03169062001479565b600254600154600354600092620011639285926001600160a01b0392831692339216906200159a565b905060168114620011b15760405162461bcd60e51b81526020600482015260176024820152761190ce88119959481d1c985b9cd9995c8819985a5b1959604a1b6044820152606401620005fc565b5050565b60395460385460408051602081018252600080825291516361b69abd60e01b81529193849360609385936001600160a01b03938416936361b69abd93620012039391169190600401620020b9565b6020604051808303816000875af115801562001223573d6000803e3d6000fd5b505050506040513d601f19601f82011682018060405250810190620012499190620020e7565b60405163b63e800d60e01b815290915081906001600160a01b0382169063b63e800d906200128b908a908a908990899082908190600090829060040162002107565b600060405180830381600087803b158015620012a657600080fd5b505af1158015620012bb573d6000803e3d6000fd5b50929998505050505050505050565b600080600560009054906101000a90046001600160a01b03166001600160a01b0316635d0629226040518163ffffffff1660e01b815260040160a060405180830381865afa15801562001321573d6000803e3d6000fd5b505050506040513d601f19601f8201168201806040525081019062001347919062002176565b6020015190506000603760009054906101000a90046001600160a01b031682604051806020016040528060008152506040516200138490620018c2565b62001392939291906200221b565b604051809103906000f080158015620013af573d6000803e3d6000fd5b5090506000819050806001600160a01b0316637f4324938c8c8c8c8c8c8c603a60009054906101000a90046001600160a01b0316603b60009054906101000a90046001600160a01b0316600560009054906101000a90046001600160a01b03166040518b63ffffffff1660e01b8152600401620014369a9998979695949392919062002252565b600060405180830381600087803b1580156200145157600080fd5b505af115801562001466573d6000803e3d6000fd5b50929d9c50505050505050505050505050565b80471015620014cb5760405162461bcd60e51b815260206004820152601d60248201527f416464726573733a20696e73756666696369656e742062616c616e63650000006044820152606401620005fc565b6000826001600160a01b03168260405160006040518083038185875af1925050503d80600081146200151a576040519150601f19603f3d011682016040523d82523d6000602084013e6200151f565b606091505b5050905080620015955760405162461bcd60e51b815260206004820152603a60248201527f416464726573733a20756e61626c6520746f2073656e642076616c75652c20726044820152791958da5c1a595b9d081b585e481a185d99481c995d995c9d195960321b6064820152608401620005fc565b505050565b600080620015a98787620015c5565b9050620015ba8187878787620016aa565b979650505050505050565b6000806000846001600160a01b0316635d2c5bad856040518263ffffffff1660e01b8152600401620015f89190620018d0565b60408051808303816000875af115801562001617573d6000803e3d6000fd5b505050506040513d601f19601f820116820180604052508101906200163d919062002301565b91509150601660030b8260070b14620016995760405162461bcd60e51b815260206004820152601e60248201527f546f6b656e4f7065726174696f6e733a20696e76616c696420746f6b656e00006044820152606401620005fc565b8060030b6001149250505092915050565b60008086620017c057306001600160a01b0386161462001742576040516323b872dd60e01b81526001600160a01b038716906323b872dd90620016f690889088908890600401620018e4565b6020604051808303816000875af115801562001716573d6000803e3d6000fd5b505050506040513d601f19601f820116820180604052508101906200173c91906200234b565b620017b8565b60405163a9059cbb60e01b81526001600160a01b0385811660048301526024820185905287169063a9059cbb906044016020604051808303816000875af115801562001792573d6000803e3d6000fd5b505050506040513d601f19601f82011682018060405250810190620017b891906200234b565b9050620018a3565b6040516323b872dd60e01b81526001600160a01b038716906323b872dd90620017f290889088908890600401620018e4565b600060405180830381600087803b1580156200180d57600080fd5b505af115801562001822573d6000803e3d6000fd5b50506040516331a9108f60e11b8152600481018690526001600160a01b03878116935089169150636352211e90602401602060405180830381865afa15801562001870573d6000803e3d6000fd5b505050506040513d601f19601f82011682018060405250810190620018969190620020e7565b6001600160a01b03161490505b80620018b1576015620018b4565b60165b60030b979650505050505050565b610eb2806200236c83390190565b6001600160a01b0391909116815260200190565b6001600160a01b039384168152919092166020820152604081019190915260600190565b6001600160a01b038116811462000cd557600080fd5b80356200192b8162001908565b919050565b6000602082840312156200194357600080fd5b8135620019508162001908565b9392505050565b600081518084526020808501945080840160005b83811015620019925781516001600160a01b0316875295820195908201906001016200196b565b509495945050505050565b60208152600062001950602083018462001957565b634e487b7160e01b600052604160045260246000fd5b60405161012081016001600160401b0381118282101715620019ee57620019ee620019b2565b60405290565b604051601f8201601f191681016001600160401b038111828210171562001a1f5762001a1f620019b2565b604052919050565b60006060828403121562001a3a57600080fd5b604051606081016001600160401b038111828210171562001a5f5762001a5f620019b2565b604052905080823562001a728162001908565b8152602083013562001a848162001908565b6020820152604092830135920191909152919050565b6000806000806000806000610120888a03121562001ab757600080fd5b873562001ac48162001908565b9650602088013562001ad68162001908565b9550604088013562001ae88162001908565b9450606088013562001afa8162001908565b935062001b0b8960808a0162001a27565b925060e088013562001b1d8162001908565b915061010088013562001b308162001908565b8091505092959891949750929550565b60006060828403121562001b5357600080fd5b62001950838362001a27565b600082601f83011262001b7157600080fd5b81356001600160401b0381111562001b8d5762001b8d620019b2565b62001ba2601f8201601f1916602001620019f4565b81815284602083860101111562001bb857600080fd5b816020850160208301376000918101602001919091529392505050565b60006001600160401b0382111562001bf15762001bf1620019b2565b5060051b60200190565b600082601f83011262001c0d57600080fd5b8135602062001c2662001c208362001bd5565b620019f4565b82815260059290921b8401810191818101908684111562001c4657600080fd5b8286015b8481101562001c6e57803562001c608162001908565b835291830191830162001c4a565b509695505050505050565b801515811462000cd557600080fd5b80356200192b8162001c79565b600082601f83011262001ca757600080fd5b8135602062001cba62001c208362001bd5565b82815260059290921b8401810191818101908684111562001cda57600080fd5b8286015b8481101562001c6e5780356001600160401b0381111562001cff5760008081fd5b62001d0f8986838b010162001b5f565b84525091830191830162001cde565b60006020828403121562001d3157600080fd5b81356001600160401b038082111562001d4957600080fd5b90830190610120828603121562001d5f57600080fd5b62001d69620019c8565b62001d74836200191e565b815260208301358281111562001d8957600080fd5b62001d978782860162001b5f565b60208301525060408301358281111562001db057600080fd5b62001dbe8782860162001b5f565b60408301525060608301358281111562001dd757600080fd5b62001de58782860162001b5f565b60608301525060808301358281111562001dfe57600080fd5b62001e0c8782860162001bfb565b60808301525060a083013560a082015262001e2a60c0840162001c88565b60c082015260e08301358281111562001e4257600080fd5b62001e508782860162001b5f565b60e083015250610100808401358381111562001e6b57600080fd5b62001e798882870162001c95565b918301919091525095945050505050565b6000815180845260005b8181101562001eb25760208185018101518683018201520162001e94565b506000602082860101526020601f19601f83011685010191505092915050565b60208152600062001950602083018462001e8a565b6020808252601490820152731190ce881cd95b19881b9bdd08185b1b1bddd95960621b604082015260600190565b60208082526014908201527323219d1027379020baba3437b934bd30ba34b7b760611b604082015260600190565b600081518084526020808501808196508360051b8101915082860160005b8581101562001f8f57828403895262001f7c84835162001e8a565b9885019893509084019060010162001f61565b5091979650505050505050565b6001600160a01b03858116825284811660208301528381166040830152608060608301819052835190911690820152600060208301516101208060a085015262001feb6101a085018362001e8a565b91506040850151607f19808685030160c08701526200200b848362001e8a565b935060608701519150808685030160e08701526200202a848362001e8a565b9350608087015191506101008187860301818801526200204b858462001957565b945060a08801518488015260c088015193506200206d61014088018515159052565b60e0880151935081878603016101608801526200208b858562001e8a565b94508088015193505080868503016101808701525050620020ad828262001f43565b98975050505050505050565b6001600160a01b0383168152604060208201819052600090620020df9083018462001e8a565b949350505050565b600060208284031215620020fa57600080fd5b8151620019508162001908565b60006101008083526200211d8184018c62001957565b602084018b90526001600160a01b038a8116604086015284820360608601529091506200214b828a62001e8a565b978116608085015295861660a0840152505060c081019290925290911660e090910152949350505050565b600060a082840312156200218957600080fd5b60405160a081016001600160401b0381118282101715620021ae57620021ae620019b2565b6040528251620021be8162001908565b81526020830151620021d08162001908565b60208201526040830151620021e58162001908565b60408201526060830151620021fa8162001908565b606082015260808301516200220f8162001908565b60808201529392505050565b6001600160a01b03848116825283166020820152606060408201819052600090620022499083018462001e8a565b95945050505050565b6001600160a01b038b81168252610140602083018190526000916200227a8483018e62001e8a565b9150838203604085015262002290828d62001e8a565b91508382036060850152620022a6828c62001e8a565b91508382036080850152620022bc828b62001e8a565b915083820360a0850152620022d2828a62001f43565b97811660c085015295861660e08401525050918316610100830152909116610120909101529695505050505050565b600080604083850312156200231557600080fd5b82518060070b81146200232757600080fd5b8092505060208301518060030b81146200234057600080fd5b809150509250929050565b6000602082840312156200235e57600080fd5b8151620019508162001c7956fe608060405260405162000eb238038062000eb2833981016040819052620000269162000497565b828162000036828260006200004d565b50620000449050826200008a565b505050620005ca565b6200005883620000e5565b600082511180620000665750805b1562000085576200008383836200012760201b620001691760201c565b505b505050565b7f7e644d79422f17c01e4894b5f4f588d331ebfa28653d42ae832dc59e38c9798f620000b562000156565b604080516001600160a01b03928316815291841660208301520160405180910390a1620000e2816200018f565b50565b620000f08162000244565b6040516001600160a01b038216907fbc7cd75a20ee27fd9adebab32041f755214dbc6bffa90cc0225b39da2e5c2d3b90600090a250565b60606200014f838360405180606001604052806027815260200162000e8b60279139620002f8565b9392505050565b60006200018060008051602062000e6b83398151915260001b6200037760201b620001951760201c565b546001600160a01b0316919050565b6001600160a01b038116620001fa5760405162461bcd60e51b815260206004820152602660248201527f455243313936373a206e65772061646d696e20697320746865207a65726f206160448201526564647265737360d01b60648201526084015b60405180910390fd5b806200022360008051602062000e6b83398151915260001b6200037760201b620001951760201c565b80546001600160a01b0319166001600160a01b039290921691909117905550565b6200025a816200037a60201b620001981760201c565b620002be5760405162461bcd60e51b815260206004820152602d60248201527f455243313936373a206e657720696d706c656d656e746174696f6e206973206e60448201526c1bdd08184818dbdb9d1c9858dd609a1b6064820152608401620001f1565b80620002237f360894a13ba1a3210667c828492db98dca3e2076cc3735a920a3ca505d382bbc60001b6200037760201b620001951760201c565b6060600080856001600160a01b03168560405162000317919062000577565b600060405180830381855af49150503d806000811462000354576040519150601f19603f3d011682016040523d82523d6000602084013e62000359565b606091505b5090925090506200036d8683838762000389565b9695505050505050565b90565b6001600160a01b03163b151590565b60608315620003fd578251600003620003f557620003a7856200037a565b620003f55760405162461bcd60e51b815260206004820152601d60248201527f416464726573733a2063616c6c20746f206e6f6e2d636f6e74726163740000006044820152606401620001f1565b508162000409565b62000409838362000411565b949350505050565b815115620004225781518083602001fd5b8060405162461bcd60e51b8152600401620001f1919062000595565b80516001600160a01b03811681146200045657600080fd5b919050565b634e487b7160e01b600052604160045260246000fd5b60005b838110156200048e57818101518382015260200162000474565b50506000910152565b600080600060608486031215620004ad57600080fd5b620004b8846200043e565b9250620004c8602085016200043e565b60408501519092506001600160401b0380821115620004e657600080fd5b818601915086601f830112620004fb57600080fd5b8151818111156200051057620005106200045b565b604051601f8201601f19908116603f011681019083821181831017156200053b576200053b6200045b565b816040528281528960208487010111156200055557600080fd5b6200056883602083016020880162000471565b80955050505050509250925092565b600082516200058b81846020870162000471565b9190910192915050565b6020815260008251806020840152620005b681604085016020870162000471565b601f01601f19169190910160400192915050565b61089180620005da6000396000f3fe60806040523661001357610011610017565b005b6100115b61001f6101a7565b6001600160a01b0316330361015f5760606001600160e01b0319600035166364d3180d60e11b810161005a576100536101c8565b9150610157565b63587086bd60e11b6001600160e01b031982160161007a5761005361021f565b63070d7c6960e41b6001600160e01b031982160161009a57610053610265565b621eb96f60e61b6001600160e01b03198216016100b957610053610296565b63a39f25e560e01b6001600160e01b03198216016100d9576100536102d6565b60405162461bcd60e51b815260206004820152604260248201527f5472616e73706172656e745570677261646561626c6550726f78793a2061646d60448201527f696e2063616e6e6f742066616c6c6261636b20746f2070726f78792074617267606482015261195d60f21b608482015260a4015b60405180910390fd5b815160208301f35b6101676102ea565b565b606061018e8383604051806060016040528060278152602001610835602791396102fa565b9392505050565b90565b6001600160a01b03163b151590565b60006000805160206107f58339815191525b546001600160a01b0316919050565b60606101d2610372565b60006101e13660048184610649565b8101906101ee919061068f565b905061020b8160405180602001604052806000815250600061037d565b505060408051602081019091526000815290565b60606000806102313660048184610649565b81019061023e91906106c0565b9150915061024e8282600161037d565b604051806020016040528060008152509250505090565b606061026f610372565b600061027e3660048184610649565b81019061028b919061068f565b905061020b816103a9565b60606102a0610372565b60006102aa6101a7565b604080516001600160a01b03831660208201529192500160405160208183030381529060405291505090565b60606102e0610372565b60006102aa610400565b6101676102f5610400565b61040f565b6060600080856001600160a01b03168560405161031791906107a5565b600060405180830381855af49150503d8060008114610352576040519150601f19603f3d011682016040523d82523d6000602084013e610357565b606091505b509150915061036886838387610433565b9695505050505050565b341561016757600080fd5b610386836104b2565b6000825111806103935750805b156103a4576103a28383610169565b505b505050565b7f7e644d79422f17c01e4894b5f4f588d331ebfa28653d42ae832dc59e38c9798f6103d26101a7565b604080516001600160a01b03928316815291841660208301520160405180910390a16103fd816104f2565b50565b600061040a610589565b905090565b3660008037600080366000845af43d6000803e80801561042e573d6000f35b3d6000fd5b606083156104a05782516000036104995761044d85610198565b6104995760405162461bcd60e51b815260206004820152601d60248201527f416464726573733a2063616c6c20746f206e6f6e2d636f6e7472616374000000604482015260640161014e565b50816104aa565b6104aa838361059f565b949350505050565b6104bb816105c9565b6040516001600160a01b038216907fbc7cd75a20ee27fd9adebab32041f755214dbc6bffa90cc0225b39da2e5c2d3b90600090a250565b6001600160a01b0381166105575760405162461bcd60e51b815260206004820152602660248201527f455243313936373a206e65772061646d696e20697320746865207a65726f206160448201526564647265737360d01b606482015260840161014e565b806000805160206107f58339815191525b80546001600160a01b0319166001600160a01b039290921691909117905550565b60006000805160206108158339815191526101b9565b8151156105af5781518083602001fd5b8060405162461bcd60e51b815260040161014e91906107c1565b6105d281610198565b6106345760405162461bcd60e51b815260206004820152602d60248201527f455243313936373a206e657720696d706c656d656e746174696f6e206973206e60448201526c1bdd08184818dbdb9d1c9858dd609a1b606482015260840161014e565b80600080516020610815833981519152610568565b6000808585111561065957600080fd5b8386111561066657600080fd5b5050820193919092039150565b80356001600160a01b038116811461068a57600080fd5b919050565b6000602082840312156106a157600080fd5b61018e82610673565b634e487b7160e01b600052604160045260246000fd5b600080604083850312156106d357600080fd5b6106dc83610673565b915060208301356001600160401b03808211156106f857600080fd5b818501915085601f83011261070c57600080fd5b81358181111561071e5761071e6106aa565b604051601f8201601f19908116603f01168101908382118183101715610746576107466106aa565b8160405282815288602084870101111561075f57600080fd5b8260208601602083013760006020848301015280955050505050509250929050565b60005b8381101561079c578181015183820152602001610784565b50506000910152565b600082516107b7818460208701610781565b9190910192915050565b60208152600082518060208401526107e0816040850160208701610781565b601f01601f1916919091016040019291505056feb53127684a568b3173ae13b9f8a6016e243e63b6e8ee1178d6a717850b5d6103360894a13ba1a3210667c828492db98dca3e2076cc3735a920a3ca505d382bbc416464726573733a206c6f772d6c6576656c2064656c65676174652063616c6c206661696c6564a26469706673582212206903e5c4246b5644c9b348bc6c150cc1e0e09c0b84dd3bf68c718931362f785664736f6c63430008120033b53127684a568b3173ae13b9f8a6016e243e63b6e8ee1178d6a717850b5d6103416464726573733a206c6f772d6c6576656c2064656c65676174652063616c6c206661696c6564cf9d4a2ff924c5f3553e3c8485e6bc24fde822593d2c3d78c8fabaada123f8f6a2646970667358221220e2dd4ee3a15a66c377de9bbffbc109c46ef7d112fade231dec904218bb04f9dd64736f6c63430008120033",
  "linkReferences": {},
  "deployedLinkReferences": {}
}