{
  "_format": "hh-sol-artifact-1",
  "contractName": "MultiSigDAO",
  "sourceName": "contracts/dao/MultisigDAO.sol",
  "abi": [
    {
      "inputs": [
        {
          "internalType": "string",
          "name": "message",
          "type": "string"
        }
      ],
      "name": "InvalidInput",
      "type": "error"
    },
    {
      "anonymous": false,
      "inputs": [
        {
          "components": [
            {
              "internalType": "string",
              "name": "name",
              "type": "string"
            },
            {
              "internalType": "address",
              "name": "admin",
              "type": "address"
            },
            {
              "internalType": "string",
              "name": "logoUrl",
              "type": "string"
            },
            {
              "internalType": "string",
              "name": "description",
              "type": "string"
            },
            {
              "internalType": "string[]",
              "name": "webLinks",
              "type": "string[]"
            }
          ],
          "indexed": false,
          "internalType": "struct BaseDAO.DAOInfo",
          "name": "daoInfo",
          "type": "tuple"
        }
      ],
      "name": "DAOInfoUpdated",
      "type": "event"
    },
    {
      "anonymous": false,
      "inputs": [
        {
          "indexed": false,
          "internalType": "uint8",
          "name": "version",
          "type": "uint8"
        }
      ],
      "name": "Initialized",
      "type": "event"
    },
    {
      "anonymous": false,
      "inputs": [
        {
          "indexed": true,
          "internalType": "bytes32",
          "name": "role",
          "type": "bytes32"
        },
        {
          "indexed": true,
          "internalType": "bytes32",
          "name": "previousAdminRole",
          "type": "bytes32"
        },
        {
          "indexed": true,
          "internalType": "bytes32",
          "name": "newAdminRole",
          "type": "bytes32"
        }
      ],
      "name": "RoleAdminChanged",
      "type": "event"
    },
    {
      "anonymous": false,
      "inputs": [
        {
          "indexed": true,
          "internalType": "bytes32",
          "name": "role",
          "type": "bytes32"
        },
        {
          "indexed": true,
          "internalType": "address",
          "name": "account",
          "type": "address"
        },
        {
          "indexed": true,
          "internalType": "address",
          "name": "sender",
          "type": "address"
        }
      ],
      "name": "RoleGranted",
      "type": "event"
    },
    {
      "anonymous": false,
      "inputs": [
        {
          "indexed": true,
          "internalType": "bytes32",
          "name": "role",
          "type": "bytes32"
        },
        {
          "indexed": true,
          "internalType": "address",
          "name": "account",
          "type": "address"
        },
        {
          "indexed": true,
          "internalType": "address",
          "name": "sender",
          "type": "address"
        }
      ],
      "name": "RoleRevoked",
      "type": "event"
    },
    {
      "anonymous": false,
      "inputs": [
        {
          "indexed": false,
          "internalType": "bytes32",
          "name": "txnHash",
          "type": "bytes32"
        },
        {
          "components": [
            {
              "internalType": "address",
              "name": "to",
              "type": "address"
            },
            {
              "internalType": "uint256",
              "name": "value",
              "type": "uint256"
            },
            {
              "internalType": "bytes",
              "name": "data",
              "type": "bytes"
            },
            {
              "internalType": "enum Enum.Operation",
              "name": "operation",
              "type": "uint8"
            },
            {
              "internalType": "uint256",
              "name": "nonce",
              "type": "uint256"
            },
            {
              "internalType": "uint256",
              "name": "transactionType",
              "type": "uint256"
            },
            {
              "internalType": "string",
              "name": "title",
              "type": "string"
            },
            {
              "internalType": "string",
              "name": "description",
              "type": "string"
            },
            {
              "internalType": "string",
              "name": "linkToDiscussion",
              "type": "string"
            },
            {
              "internalType": "address",
              "name": "creator",
              "type": "address"
            }
          ],
          "indexed": false,
          "internalType": "struct MultiSigDAO.TransactionInfo",
          "name": "info",
          "type": "tuple"
        }
      ],
      "name": "TransactionCreated",
      "type": "event"
    },
    {
      "inputs": [],
      "name": "DAO_ADMIN",
      "outputs": [
        {
          "internalType": "bytes32",
          "name": "",
          "type": "bytes32"
        }
      ],
      "stateMutability": "view",
      "type": "function"
    },
    {
      "inputs": [],
      "name": "DEFAULT_ADMIN_ROLE",
      "outputs": [
        {
          "internalType": "bytes32",
          "name": "",
          "type": "bytes32"
        }
      ],
      "stateMutability": "view",
      "type": "function"
    },
    {
      "inputs": [
        {
          "internalType": "address",
          "name": "_admin",
          "type": "address"
        },
        {
          "internalType": "string",
          "name": "_name",
          "type": "string"
        },
        {
          "internalType": "string",
          "name": "_logoUrl",
          "type": "string"
        },
        {
          "internalType": "string",
          "name": "_description",
          "type": "string"
        },
        {
          "internalType": "string[]",
          "name": "_webLinks",
          "type": "string[]"
        }
      ],
      "name": "__BaseDAO_init",
      "outputs": [],
      "stateMutability": "nonpayable",
      "type": "function"
    },
    {
      "inputs": [
        {
          "internalType": "bytes32",
          "name": "_txnHash",
          "type": "bytes32"
        }
      ],
      "name": "getApprovalCounts",
      "outputs": [
        {
          "internalType": "uint256",
          "name": "",
          "type": "uint256"
        }
      ],
      "stateMutability": "view",
      "type": "function"
    },
    {
      "inputs": [],
      "name": "getDaoInfo",
      "outputs": [
        {
          "components": [
            {
              "internalType": "string",
              "name": "name",
              "type": "string"
            },
            {
              "internalType": "address",
              "name": "admin",
              "type": "address"
            },
            {
              "internalType": "string",
              "name": "logoUrl",
              "type": "string"
            },
            {
              "internalType": "string",
              "name": "description",
              "type": "string"
            },
            {
              "internalType": "string[]",
              "name": "webLinks",
              "type": "string[]"
            }
          ],
          "internalType": "struct BaseDAO.DAOInfo",
          "name": "",
          "type": "tuple"
        }
      ],
      "stateMutability": "view",
      "type": "function"
    },
    {
      "inputs": [],
      "name": "getHederaGnosisSafeContractAddress",
      "outputs": [
        {
          "internalType": "address",
          "name": "",
          "type": "address"
        }
      ],
      "stateMutability": "view",
      "type": "function"
    },
    {
      "inputs": [],
      "name": "getHederaServiceVersion",
      "outputs": [
        {
          "internalType": "contract IHederaService",
          "name": "",
          "type": "address"
        }
      ],
      "stateMutability": "view",
      "type": "function"
    },
    {
      "inputs": [],
      "name": "getMultiSendContractAddress",
      "outputs": [
        {
          "internalType": "address",
          "name": "",
          "type": "address"
        }
      ],
      "stateMutability": "view",
      "type": "function"
    },
    {
      "inputs": [
        {
          "internalType": "bytes32",
          "name": "role",
          "type": "bytes32"
        }
      ],
      "name": "getRoleAdmin",
      "outputs": [
        {
          "internalType": "bytes32",
          "name": "",
          "type": "bytes32"
        }
      ],
      "stateMutability": "view",
      "type": "function"
    },
    {
      "inputs": [
        {
          "internalType": "bytes32",
          "name": "_txnHash",
          "type": "bytes32"
        }
      ],
      "name": "getTransactionInfo",
      "outputs": [
        {
          "components": [
            {
              "internalType": "address",
              "name": "to",
              "type": "address"
            },
            {
              "internalType": "uint256",
              "name": "value",
              "type": "uint256"
            },
            {
              "internalType": "bytes",
              "name": "data",
              "type": "bytes"
            },
            {
              "internalType": "enum Enum.Operation",
              "name": "operation",
              "type": "uint8"
            },
            {
              "internalType": "uint256",
              "name": "nonce",
              "type": "uint256"
            },
            {
              "internalType": "uint256",
              "name": "transactionType",
              "type": "uint256"
            },
            {
              "internalType": "string",
              "name": "title",
              "type": "string"
            },
            {
              "internalType": "string",
              "name": "description",
              "type": "string"
            },
            {
              "internalType": "string",
              "name": "linkToDiscussion",
              "type": "string"
            },
            {
              "internalType": "address",
              "name": "creator",
              "type": "address"
            }
          ],
          "internalType": "struct MultiSigDAO.TransactionInfo",
          "name": "",
          "type": "tuple"
        }
      ],
      "stateMutability": "view",
      "type": "function"
    },
    {
      "inputs": [
        {
          "internalType": "bytes32",
          "name": "role",
          "type": "bytes32"
        },
        {
          "internalType": "address",
          "name": "account",
          "type": "address"
        }
      ],
      "name": "grantRole",
      "outputs": [],
      "stateMutability": "nonpayable",
      "type": "function"
    },
    {
      "inputs": [
        {
          "internalType": "bytes32",
          "name": "role",
          "type": "bytes32"
        },
        {
          "internalType": "address",
          "name": "account",
          "type": "address"
        }
      ],
      "name": "hasRole",
      "outputs": [
        {
          "internalType": "bool",
          "name": "",
          "type": "bool"
        }
      ],
      "stateMutability": "view",
      "type": "function"
    },
    {
      "inputs": [
        {
          "internalType": "address",
          "name": "_admin",
          "type": "address"
        },
        {
          "internalType": "string",
          "name": "_name",
          "type": "string"
        },
        {
          "internalType": "string",
          "name": "_logoUrl",
          "type": "string"
        },
        {
          "internalType": "string",
          "name": "_description",
          "type": "string"
        },
        {
          "internalType": "string[]",
          "name": "_webLinks",
          "type": "string[]"
        },
        {
          "internalType": "contract HederaGnosisSafe",
          "name": "_hederaGnosisSafe",
          "type": "address"
        },
        {
          "internalType": "contract IHederaService",
          "name": "_hederaService",
          "type": "address"
        },
        {
          "internalType": "contract HederaMultiSend",
          "name": "_multiSend",
          "type": "address"
        },
        {
          "internalType": "contract ISystemRoleBasedAccess",
          "name": "_iSystemRoleBasedAccess",
          "type": "address"
        }
      ],
      "name": "initialize",
      "outputs": [],
      "stateMutability": "nonpayable",
      "type": "function"
    },
    {
      "inputs": [
        {
          "internalType": "address[]",
          "name": "_targets",
          "type": "address[]"
        },
        {
          "internalType": "uint256[]",
          "name": "_values",
          "type": "uint256[]"
        },
        {
          "internalType": "bytes[]",
          "name": "_calldatas",
          "type": "bytes[]"
        },
        {
          "internalType": "string",
          "name": "title",
          "type": "string"
        },
        {
          "internalType": "string",
          "name": "desc",
          "type": "string"
        },
        {
          "internalType": "string",
          "name": "linkToDiscussion",
          "type": "string"
        }
      ],
      "name": "proposeBatchTransaction",
      "outputs": [
        {
          "internalType": "bytes32",
          "name": "",
          "type": "bytes32"
        }
      ],
      "stateMutability": "payable",
      "type": "function"
    },
    {
      "inputs": [
        {
          "internalType": "address",
          "name": "_token",
          "type": "address"
        },
        {
          "internalType": "string",
          "name": "_title",
          "type": "string"
        },
        {
          "internalType": "string",
          "name": "_desc",
          "type": "string"
        },
        {
          "internalType": "string",
          "name": "_linkToDiscussion",
          "type": "string"
        }
      ],
      "name": "proposeTokenAssociateTransaction",
      "outputs": [
        {
          "internalType": "bytes32",
          "name": "",
          "type": "bytes32"
        }
      ],
      "stateMutability": "payable",
      "type": "function"
    },
    {
      "inputs": [
        {
          "internalType": "address",
          "name": "_to",
          "type": "address"
        },
        {
          "internalType": "bytes",
          "name": "_data",
          "type": "bytes"
        },
        {
          "internalType": "uint256",
          "name": "_type",
          "type": "uint256"
        },
        {
          "internalType": "string",
          "name": "title",
          "type": "string"
        },
        {
          "internalType": "string",
          "name": "desc",
          "type": "string"
        },
        {
          "internalType": "string",
          "name": "linkToDiscussion",
          "type": "string"
        }
      ],
      "name": "proposeTransaction",
      "outputs": [
        {
          "internalType": "bytes32",
          "name": "",
          "type": "bytes32"
        }
      ],
      "stateMutability": "payable",
      "type": "function"
    },
    {
      "inputs": [
        {
          "internalType": "bytes32",
          "name": "role",
          "type": "bytes32"
        },
        {
          "internalType": "address",
          "name": "account",
          "type": "address"
        }
      ],
      "name": "renounceRole",
      "outputs": [],
      "stateMutability": "nonpayable",
      "type": "function"
    },
    {
      "inputs": [
        {
          "internalType": "bytes32",
          "name": "role",
          "type": "bytes32"
        },
        {
          "internalType": "address",
          "name": "account",
          "type": "address"
        }
      ],
      "name": "revokeRole",
      "outputs": [],
      "stateMutability": "nonpayable",
      "type": "function"
    },
    {
      "inputs": [
        {
          "internalType": "address",
          "name": "creator",
          "type": "address"
        },
        {
          "internalType": "string",
          "name": "text",
          "type": "string"
        }
      ],
      "name": "setText",
      "outputs": [
        {
          "internalType": "address",
          "name": "",
          "type": "address"
        },
        {
          "internalType": "string",
          "name": "",
          "type": "string"
        }
      ],
      "stateMutability": "view",
      "type": "function"
    },
    {
      "inputs": [
        {
          "internalType": "bytes32",
          "name": "_txnHash",
          "type": "bytes32"
        }
      ],
      "name": "state",
      "outputs": [
        {
          "internalType": "enum MultiSigDAO.TransactionState",
          "name": "",
          "type": "uint8"
        }
      ],
      "stateMutability": "view",
      "type": "function"
    },
    {
      "inputs": [
        {
          "internalType": "bytes4",
          "name": "interfaceId",
          "type": "bytes4"
        }
      ],
      "name": "supportsInterface",
      "outputs": [
        {
          "internalType": "bool",
          "name": "",
          "type": "bool"
        }
      ],
      "stateMutability": "view",
      "type": "function"
    },
    {
      "inputs": [
        {
          "internalType": "string",
          "name": "_name",
          "type": "string"
        },
        {
          "internalType": "string",
          "name": "_logoUrl",
          "type": "string"
        },
        {
          "internalType": "string",
          "name": "_description",
          "type": "string"
        },
        {
          "internalType": "string[]",
          "name": "_webLinks",
          "type": "string[]"
        }
      ],
      "name": "updateDaoInfo",
      "outputs": [],
      "stateMutability": "nonpayable",
      "type": "function"
    },
    {
      "inputs": [
        {
          "internalType": "contract IHederaService",
          "name": "newHederaService",
          "type": "address"
        }
      ],
      "name": "upgradeHederaService",
      "outputs": [],
      "stateMutability": "nonpayable",
      "type": "function"
    },
    {
      "inputs": [
        {
          "internalType": "contract HederaMultiSend",
          "name": "_multiSend",
          "type": "address"
        }
      ],
      "name": "upgradeMultiSend",
      "outputs": [],
      "stateMutability": "nonpayable",
      "type": "function"
    }
  ],
  "bytecode": "0x608060405234801561001057600080fd5b50612e2a806100206000396000f3fe60806040526004361061011b5760003560e01c806301ffc9a7146101205780631792440314610155578063193f6b341461017c578063248a9ca3146101aa5780632f2ff15d146101ca57806333309847146101ec57806333a73c311461020c57806336568abe1461021f578063402482e41461023f578063468c8a611461025257806349e6b62c1461027457806361d585da146102a157806366c5b9a6146102ce5780636dab6f75146102ee57806380896acc1461030c57806391d148541461032a578063983158681461034a5780639b316eda1461036a578063a217fddf1461038a578063b829d3fe1461039f578063d26d681f146103b2578063d547741f146103d2578063d926e34c146103f2578063fa382f8714610420575b600080fd5b34801561012c57600080fd5b5061014061013b366004611e10565b610442565b60405190151581526020015b60405180910390f35b34801561016157600080fd5b50609c546001600160a01b03165b60405161014c9190611e47565b34801561018857600080fd5b5061019c610197366004611e5b565b610479565b60405190815260200161014c565b3480156101b657600080fd5b5061019c6101c5366004611e5b565b6104e7565b3480156101d657600080fd5b506101ea6101e5366004611e99565b6104fc565b005b3480156101f857600080fd5b506101ea610207366004612030565b61051d565b61019c61021a366004612130565b61068b565b34801561022b57600080fd5b506101ea61023a366004611e99565b6106fa565b61019c61024d366004612289565b610778565b34801561025e57600080fd5b5061019c600080516020612dd583398151915281565b34801561028057600080fd5b5061029461028f366004611e5b565b610920565b60405161014c91906123f7565b3480156102ad57600080fd5b506102c16102bc366004611e5b565b610c2a565b60405161014c91906124d4565b3480156102da57600080fd5b506101ea6102e93660046124ee565b611033565b3480156102fa57600080fd5b50609d546001600160a01b031661016f565b34801561031857600080fd5b50609e546001600160a01b031661016f565b34801561033657600080fd5b50610140610345366004611e99565b61113b565b34801561035657600080fd5b506101ea6103653660046125ad565b611166565b34801561037657600080fd5b506101ea61038536600461264d565b61118a565b34801561039657600080fd5b5061019c600081565b61019c6103ad36600461266a565b61120d565b3480156103be57600080fd5b506101ea6103cd36600461264d565b611436565b3480156103de57600080fd5b506101ea6103ed366004611e99565b6114b9565b3480156103fe57600080fd5b5061041261040d3660046126d1565b6114d5565b60405161014c929190612720565b34801561042c57600080fd5b5061043561154b565b60405161014c919061274c565b60006001600160e01b03198216637965db0b60e01b148061047357506301ffc9a760e01b6001600160e01b03198316145b92915050565b609e5460405163064fdacd60e21b8152600481018390526000916001600160a01b03169063193f6b3490602401602060405180830381865afa1580156104c3573d6000803e3d6000fd5b505050506040513d601f19601f820116820180604052508101906104739190612819565b60009081526065602052604090206001015490565b610505826104e7565b61050e8161183e565b610518838361184b565b505050565b600054610100900460ff161580801561053d5750600054600160ff909116105b806105575750303b158015610557575060005460ff166001145b6105bf5760405162461bcd60e51b815260206004820152602e60248201527f496e697469616c697a61626c653a20636f6e747261637420697320616c72656160448201526d191e481a5b9a5d1a585b1a5e995960921b60648201526084015b60405180910390fd5b6000805460ff1916600117905580156105e2576000805461ff0019166101001790555b609d80546001600160a01b038087166001600160a01b031992831617909255609e8054888416908316179055609c8054868416908316179055609f8054928516929091169190911790556106398a8a8a8a8a611033565b801561067f576000805461ff0019169055604051600181527f7f26b83ff96e1f2b6a682f133852f6798a09c465da95921460cefb38474024989060200160405180910390a15b50505050505050505050565b609d54604080516001600160a01b0392831660248201528683166044808301919091528251808303909101815260649091019091526020810180516001600160e01b031663248a35ef60e11b179052609e546000926106f0911682600288888861120d565b9695505050505050565b6001600160a01b038116331461076a5760405162461bcd60e51b815260206004820152602f60248201527f416363657373436f6e74726f6c3a2063616e206f6e6c792072656e6f756e636560448201526e103937b632b9903337b91039b2b63360891b60648201526084016105b6565b61077482826118d1565b5050565b600080875111801561078b575085518751145b8015610798575084518751145b6107f45760405162461bcd60e51b815260206004820152602760248201527f4d756c746953696744414f3a20696e76616c6964207472616e73616374696f6e604482015266040d8cadccee8d60cb1b60648201526084016105b6565b606060005b88518110156108a7578160008a838151811061081757610817612832565b60200260200101518a848151811061083157610831612832565b60200260200101518a858151811061084b5761084b612832565b6020026020010151518b868151811061086657610866612832565b602002602001015160405160200161088396959493929190612848565b6040516020818303038152906040529150808061089f906128ca565b9150506107f9565b506000638d80ff0a60e01b826040516024016108c391906128e3565b60408051601f198184030181529190526020810180516001600160e01b03166001600160e01b031990931692909217909152609c54909150610913906001600160a01b031682600189898961120d565b9998505050505050505050565b610928611cdd565b600082815260a06020908152604080832081516101408101835281546001600160a01b03168152600182015493810193909352600281018054919284019161096f906128f6565b80601f016020809104026020016040519081016040528092919081815260200182805461099b906128f6565b80156109e85780601f106109bd576101008083540402835291602001916109e8565b820191906000526020600020905b8154815290600101906020018083116109cb57829003601f168201915b5050509183525050600382015460209091019060ff166001811115610a0f57610a0f6123cd565b6001811115610a2057610a206123cd565b81526020016004820154815260200160058201548152602001600682018054610a48906128f6565b80601f0160208091040260200160405190810160405280929190818152602001828054610a74906128f6565b8015610ac15780601f10610a9657610100808354040283529160200191610ac1565b820191906000526020600020905b815481529060010190602001808311610aa457829003601f168201915b50505050508152602001600782018054610ada906128f6565b80601f0160208091040260200160405190810160405280929190818152602001828054610b06906128f6565b8015610b535780601f10610b2857610100808354040283529160200191610b53565b820191906000526020600020905b815481529060010190602001808311610b3657829003601f168201915b50505050508152602001600882018054610b6c906128f6565b80601f0160208091040260200160405190810160405280929190818152602001828054610b98906128f6565b8015610be55780601f10610bba57610100808354040283529160200191610be5565b820191906000526020600020905b815481529060010190602001808311610bc857829003601f168201915b5050509183525050600991909101546001600160a01b031660209091015260808101519091506000036104735760405162461bcd60e51b81526004016105b69061292a565b600081815260a06020908152604080832081516101408101835281546001600160a01b0316815260018201549381019390935260028101805485949384019190610c73906128f6565b80601f0160208091040260200160405190810160405280929190818152602001828054610c9f906128f6565b8015610cec5780601f10610cc157610100808354040283529160200191610cec565b820191906000526020600020905b815481529060010190602001808311610ccf57829003601f168201915b5050509183525050600382015460209091019060ff166001811115610d1357610d136123cd565b6001811115610d2457610d246123cd565b81526020016004820154815260200160058201548152602001600682018054610d4c906128f6565b80601f0160208091040260200160405190810160405280929190818152602001828054610d78906128f6565b8015610dc55780601f10610d9a57610100808354040283529160200191610dc5565b820191906000526020600020905b815481529060010190602001808311610da857829003601f168201915b50505050508152602001600782018054610dde906128f6565b80601f0160208091040260200160405190810160405280929190818152602001828054610e0a906128f6565b8015610e575780601f10610e2c57610100808354040283529160200191610e57565b820191906000526020600020905b815481529060010190602001808311610e3a57829003601f168201915b50505050508152602001600882018054610e70906128f6565b80601f0160208091040260200160405190810160405280929190818152602001828054610e9c906128f6565b8015610ee95780601f10610ebe57610100808354040283529160200191610ee9565b820191906000526020600020905b815481529060010190602001808311610ecc57829003601f168201915b5050509183525050600991909101546001600160a01b03166020909101526080810151909150600003610f2e5760405162461bcd60e51b81526004016105b69061292a565b609e546040516301244d4760e11b8152600481018590526001600160a01b03909116906302489a8e90602401602060405180830381865afa158015610f77573d6000803e3d6000fd5b505050506040513d601f19601f82011682018060405250810190610f9b919061295d565b15610fa95750600292915050565b609e5460405163a7f173ab60e01b8152600481018590526001600160a01b039091169063a7f173ab90602401602060405180830381865afa158015610ff2573d6000803e3d6000fd5b505050506040513d601f19601f82011682018060405250810190611016919061295d565b156110245750600192915050565b50600092915050565b50919050565b600054610100900460ff1661109e5760405162461bcd60e51b815260206004820152602b60248201527f496e697469616c697a61626c653a20636f6e7472616374206973206e6f74206960448201526a6e697469616c697a696e6760a81b60648201526084016105b6565b6001600160a01b0385166110f55760405163d647364f60e01b815260206004820152601e60248201527f4261736544414f3a2061646d696e2061646472657373206973207a65726f000060448201526064016105b6565b609880546001600160a01b0319166001600160a01b038716179055611128600080516020612dd58339815191528661184b565b61113484848484611938565b5050505050565b60009182526065602090815260408084206001600160a01b0393909316845291905290205460ff1690565b600080516020612dd583398151915261117e8161183e565b61113485858585611938565b609f54604051637ae09f4d60e01b81526001600160a01b0390911690637ae09f4d906111ba903390600401611e47565b60006040518083038186803b1580156111d257600080fd5b505afa1580156111e6573d6000803e3d6000fd5b5050609c80546001600160a01b0319166001600160a01b0394909416939093179092555050565b6000835160000361126a5760405162461bcd60e51b815260206004820152602160248201527f4d756c746953696744414f3a207469746c652063616e277420626520626c616e6044820152606b60f81b60648201526084016105b6565b82516000036112bb5760405162461bcd60e51b815260206004820181905260248201527f4d756c746953696744414f3a20646573632063616e277420626520626c616e6b60448201526064016105b6565b609e54604051633c75d0af60e11b8152600091829182916001600160a01b0316906378eba15e906112f6908d9034908e90879060040161297f565b60408051808303816000875af1158015611314573d6000803e3d6000fd5b505050506040513d601f19601f8201168201806040525081019061133891906129be565b600082815260a06020526040902080546001600160a01b0319166001600160a01b038e161781553460018201559193509150600281016113788b82612a30565b5060038101805485919060ff191660018381811115611399576113996123cd565b02179055506004810182905560058101899055600681016113ba8982612a30565b50600781016113c98882612a30565b50600881016113d88782612a30565b506009810180546001600160a01b031916331790556040517f122fdaea6d6de1c44d0a3270dde2d651500479c7c64559bd724a31059a2275f09061141f9085908490612b78565b60405180910390a150909998505050505050505050565b609f54604051637ae09f4d60e01b81526001600160a01b0390911690637ae09f4d90611466903390600401611e47565b60006040518083038186803b15801561147e57600080fd5b505afa158015611492573d6000803e3d6000fd5b5050609d80546001600160a01b0319166001600160a01b0394909416939093179092555050565b6114c2826104e7565b6114cb8161183e565b61051883836118d1565b609e546000906060906001600160a01b031633146115435760405162461bcd60e51b815260206004820152602560248201527f4f6e6c7920486564657261476e6f736973536166652063616e20657865637574604482015264329034ba1760d91b60648201526084016105b6565b509192909150565b6115866040518060a001604052806060815260200160006001600160a01b031681526020016060815260200160608152602001606081525090565b60976040518060a00160405290816000820180546115a3906128f6565b80601f01602080910402602001604051908101604052809291908181526020018280546115cf906128f6565b801561161c5780601f106115f15761010080835404028352916020019161161c565b820191906000526020600020905b8154815290600101906020018083116115ff57829003601f168201915b505050918352505060018201546001600160a01b0316602082015260028201805460409092019161164c906128f6565b80601f0160208091040260200160405190810160405280929190818152602001828054611678906128f6565b80156116c55780601f1061169a576101008083540402835291602001916116c5565b820191906000526020600020905b8154815290600101906020018083116116a857829003601f168201915b505050505081526020016003820180546116de906128f6565b80601f016020809104026020016040519081016040528092919081815260200182805461170a906128f6565b80156117575780601f1061172c57610100808354040283529160200191611757565b820191906000526020600020905b81548152906001019060200180831161173a57829003601f168201915b5050505050815260200160048201805480602002602001604051908101604052809291908181526020016000905b828210156118315783829060005260206000200180546117a4906128f6565b80601f01602080910402602001604051908101604052809291908181526020018280546117d0906128f6565b801561181d5780601f106117f25761010080835404028352916020019161181d565b820191906000526020600020905b81548152906001019060200180831161180057829003601f168201915b505050505081526020019060010190611785565b5050505081525050905090565b6118488133611ad0565b50565b611855828261113b565b6107745760008281526065602090815260408083206001600160a01b03851684529091529020805460ff1916600117905561188d3390565b6001600160a01b0316816001600160a01b0316837f2f8788117e7eff1d82e926ec794901d17c78024a50270940304540a733656f0d60405160405180910390a45050565b6118db828261113b565b156107745760008281526065602090815260408083206001600160a01b0385168085529252808320805460ff1916905551339285917ff6391f5c32d9c69d2a47ea670b442974b53935d1edc7fd64eb21e047a839171b9190a45050565b83516000036119835760405163d647364f60e01b81526020600482015260166024820152754261736544414f3a206e616d6520697320656d70747960501b60448201526064016105b6565b609761198f8582612a30565b5081516000036119e25760405163d647364f60e01b815260206004820152601d60248201527f4261736544414f3a206465736372697074696f6e20697320656d70747900000060448201526064016105b6565b609a6119ee8382612a30565b5060005b8151811015611a7057818181518110611a0d57611a0d612832565b602002602001015151600003611a5e5760405163d647364f60e01b81526020600482015260156024820152744261736544414f3a20696e76616c6964206c696e6b60581b60448201526064016105b6565b80611a68816128ca565b9150506119f2565b508051611a8490609b906020840190611d53565b506099611a918482612a30565b507fa6f9f25f4c5fed6464b219efa94b247fa993d06e7594aa81dd392bcbbd3600616097604051611ac29190612c5d565b60405180910390a150505050565b611ada828261113b565b61077457611ae781611b29565b611af2836020611b3b565b604051602001611b03929190612d24565b60408051601f198184030181529082905262461bcd60e51b82526105b6916004016128e3565b60606104736001600160a01b03831660145b60606000611b4a836002612d93565b611b55906002612daa565b6001600160401b03811115611b6c57611b6c611ec9565b6040519080825280601f01601f191660200182016040528015611b96576020820181803683370190505b509050600360fc1b81600081518110611bb157611bb1612832565b60200101906001600160f81b031916908160001a905350600f60fb1b81600181518110611be057611be0612832565b60200101906001600160f81b031916908160001a9053506000611c04846002612d93565b611c0f906001612daa565b90505b6001811115611c87576f181899199a1a9b1b9c1cb0b131b232b360811b85600f1660108110611c4357611c43612832565b1a60f81b828281518110611c5957611c59612832565b60200101906001600160f81b031916908160001a90535060049490941c93611c8081612dbd565b9050611c12565b508315611cd65760405162461bcd60e51b815260206004820181905260248201527f537472696e67733a20686578206c656e67746820696e73756666696369656e7460448201526064016105b6565b9392505050565b60405180610140016040528060006001600160a01b03168152602001600081526020016060815260200160006001811115611d1a57611d1a6123cd565b8152602001600081526020016000815260200160608152602001606081526020016060815260200160006001600160a01b031681525090565b828054828255906000526020600020908101928215611d99579160200282015b82811115611d995782518290611d899082612a30565b5091602001919060010190611d73565b50611da5929150611da9565b5090565b80821115611da5576000611dbd8282611dc6565b50600101611da9565b508054611dd2906128f6565b6000825580601f10611de2575050565b601f01602090049060005260206000209081019061184891905b80821115611da55760008155600101611dfc565b600060208284031215611e2257600080fd5b81356001600160e01b031981168114611cd657600080fd5b6001600160a01b03169052565b6001600160a01b0391909116815260200190565b600060208284031215611e6d57600080fd5b5035919050565b6001600160a01b038116811461184857600080fd5b8035611e9481611e74565b919050565b60008060408385031215611eac57600080fd5b823591506020830135611ebe81611e74565b809150509250929050565b634e487b7160e01b600052604160045260246000fd5b604051601f8201601f191681016001600160401b0381118282101715611f0757611f07611ec9565b604052919050565b600082601f830112611f2057600080fd5b81356001600160401b03811115611f3957611f39611ec9565b611f4c601f8201601f1916602001611edf565b818152846020838601011115611f6157600080fd5b816020850160208301376000918101602001919091529392505050565b60006001600160401b03821115611f9757611f97611ec9565b5060051b60200190565b600082601f830112611fb257600080fd5b81356020611fc7611fc283611f7e565b611edf565b82815260059290921b84018101918181019086841115611fe657600080fd5b8286015b848110156120255780356001600160401b038111156120095760008081fd5b6120178986838b0101611f0f565b845250918301918301611fea565b509695505050505050565b60008060008060008060008060006101208a8c03121561204f57600080fd5b6120588a611e89565b985060208a01356001600160401b038082111561207457600080fd5b6120808d838e01611f0f565b995060408c013591508082111561209657600080fd5b6120a28d838e01611f0f565b985060608c01359150808211156120b857600080fd5b6120c48d838e01611f0f565b975060808c01359150808211156120da57600080fd5b506120e78c828d01611fa1565b9550506120f660a08b01611e89565b935061210460c08b01611e89565b925061211260e08b01611e89565b91506121216101008b01611e89565b90509295985092959850929598565b6000806000806080858703121561214657600080fd5b843561215181611e74565b935060208501356001600160401b038082111561216d57600080fd5b61217988838901611f0f565b9450604087013591508082111561218f57600080fd5b61219b88838901611f0f565b935060608701359150808211156121b157600080fd5b506121be87828801611f0f565b91505092959194509250565b600082601f8301126121db57600080fd5b813560206121eb611fc283611f7e565b82815260059290921b8401810191818101908684111561220a57600080fd5b8286015b8481101561202557803561222181611e74565b835291830191830161220e565b600082601f83011261223f57600080fd5b8135602061224f611fc283611f7e565b82815260059290921b8401810191818101908684111561226e57600080fd5b8286015b848110156120255780358352918301918301612272565b60008060008060008060c087890312156122a257600080fd5b86356001600160401b03808211156122b957600080fd5b6122c58a838b016121ca565b975060208901359150808211156122db57600080fd5b6122e78a838b0161222e565b965060408901359150808211156122fd57600080fd5b6123098a838b01611fa1565b9550606089013591508082111561231f57600080fd5b61232b8a838b01611f0f565b9450608089013591508082111561234157600080fd5b61234d8a838b01611f0f565b935060a089013591508082111561236357600080fd5b5061237089828a01611f0f565b9150509295509295509295565b60005b83811015612398578181015183820152602001612380565b50506000910152565b600081518084526123b981602086016020860161237d565b601f01601f19169290920160200192915050565b634e487b7160e01b600052602160045260246000fd5b600281106123f3576123f36123cd565b9052565b60208152612409602082018351611e3a565b60208201516040820152600060408301516101408060608501526124316101608501836123a1565b9150606085015161244560808601826123e3565b50608085015160a085015260a085015160c085015260c0850151601f19808685030160e087015261247684836123a1565b935060e0870151915061010081878603018188015261249585846123a1565b9450808801519250506101208187860301818801526124b485846123a1565b945080880151925050506124ca82860182611e3a565b5090949350505050565b60208101600383106124e8576124e86123cd565b91905290565b600080600080600060a0868803121561250657600080fd5b853561251181611e74565b945060208601356001600160401b038082111561252d57600080fd5b61253989838a01611f0f565b9550604088013591508082111561254f57600080fd5b61255b89838a01611f0f565b9450606088013591508082111561257157600080fd5b61257d89838a01611f0f565b9350608088013591508082111561259357600080fd5b506125a088828901611fa1565b9150509295509295909350565b600080600080608085870312156125c357600080fd5b84356001600160401b03808211156125da57600080fd5b6125e688838901611f0f565b955060208701359150808211156125fc57600080fd5b61260888838901611f0f565b9450604087013591508082111561261e57600080fd5b61262a88838901611f0f565b9350606087013591508082111561264057600080fd5b506121be87828801611fa1565b60006020828403121561265f57600080fd5b8135611cd681611e74565b60008060008060008060c0878903121561268357600080fd5b61268c87611e89565b955060208701356001600160401b03808211156126a857600080fd5b6126b48a838b01611f0f565b965060408901359550606089013591508082111561231f57600080fd5b600080604083850312156126e457600080fd5b82356126ef81611e74565b915060208301356001600160401b0381111561270a57600080fd5b61271685828601611f0f565b9150509250929050565b6001600160a01b0383168152604060208201819052600090612744908301846123a1565b949350505050565b60006020808352835160a08285015261276860c08501826123a1565b905060018060a01b03828601511660408501526040850151601f198086840301606087015261279783836123a1565b925060608701519150808684030160808701526127b483836123a1565b6080880151878203830160a089015280518083529194508501925084840190600581901b8501860160005b8281101561280b57848783030184526127f98287516123a1565b958801959388019391506001016127df565b509998505050505050505050565b60006020828403121561282b57600080fd5b5051919050565b634e487b7160e01b600052603260045260246000fd5b6000875161285a818460208c0161237d565b60f888901b6001600160f81b031916908301908152606087901b6001600160601b0319166001820152601581018690526035810185905283516128a481605584016020880161237d565b0160550198975050505050505050565b634e487b7160e01b600052601160045260246000fd5b6000600182016128dc576128dc6128b4565b5060010190565b602081526000611cd660208301846123a1565b600181811c9082168061290a57607f821691505b60208210810361102d57634e487b7160e01b600052602260045260246000fd5b602080825260199082015278135d5b1d1a54da59d11053ce881b9bc81d1e1b88195e1a5cdd603a1b604082015260600190565b60006020828403121561296f57600080fd5b81518015158114611cd657600080fd5b60018060a01b03851681528360208201526080604082015260006129a660808301856123a1565b90506129b560608301846123e3565b95945050505050565b600080604083850312156129d157600080fd5b505080516020909101519092909150565b601f82111561051857600081815260208120601f850160051c81016020861015612a095750805b601f850160051c820191505b81811015612a2857828155600101612a15565b505050505050565b81516001600160401b03811115612a4957612a49611ec9565b612a5d81612a5784546128f6565b846129e2565b602080601f831160018114612a925760008415612a7a5750858301515b600019600386901b1c1916600185901b178555612a28565b600085815260208120601f198616915b82811015612ac157888601518255948401946001909101908401612aa2565b5085821015612adf5787850151600019600388901b60f8161c191681555b5050505050600190811b01905550565b6001600160a01b031690565b60008154612b08816128f6565b808552602060018381168015612b255760018114612b3f57612b6d565b60ff1985168884015283151560051b880183019550612b6d565b866000528260002060005b85811015612b655781548a8201860152908301908401612b4a565b890184019650505b505050505092915050565b82815260406020820152612b9860408201612b938454612aef565b611e3a565b600182015460608201526000610140806080840152612bbe610180840160028601612afb565b600385015460ff16612bd360a08601826123e3565b50600485015460c0850152600585015460e0850152603f198085830301610100860152612c038260068801612afb565b91508085830301610120860152612c1d8260078801612afb565b915080858303018386015250612c368160088701612afb565b915050612c466009850154612aef565b612c54610160850182611e3a565b50949350505050565b6000602080835260a081840152612c7760c0840185612afb565b6001858101546001600160a01b03166040860152601f1985830381016060870152612ca58360028901612afb565b925080868403016080870152612cbe8360038901612afb565b868103820160a0880152600488018054808352600091825286822092955086860191600582901b87018801905b82811015612d155785888303018452612d048286612afb565b948701949389019391508601612ceb565b509a9950505050505050505050565b76020b1b1b2b9b9a1b7b73a3937b61d1030b1b1b7bab73a1604d1b815260008351612d5681601785016020880161237d565b7001034b99036b4b9b9b4b733903937b6329607d1b6017918401918201528351612d8781602884016020880161237d565b01602801949350505050565b8082028115828204841417610473576104736128b4565b80820180821115610473576104736128b4565b600081612dcc57612dcc6128b4565b50600019019056fef591dda2e9b53c180cef2a1f29bc285ccc0649b7a0efc8de2ec0cfe024d46b96a26469706673582212209e0f4e4a20381f97ae12b45866ed5471cfd4abdfdc55c7dcd47d307ded494a0164736f6c63430008120033",
  "linkReferences": {},
  "deployedLinkReferences": {}
}