{
  "_format": "hh-sol-artifact-1",
  "contractName": "MultiSigDAO",
  "sourceName": "contracts/dao/MultisigDAO.sol",
  "abi": [
    {
      "inputs": [
        {
          "internalType": "string",
          "name": "message",
          "type": "string"
        }
      ],
      "name": "InvalidInput",
      "type": "error"
    },
    {
      "anonymous": false,
      "inputs": [
        {
          "components": [
            {
              "internalType": "string",
              "name": "name",
              "type": "string"
            },
            {
              "internalType": "address",
              "name": "admin",
              "type": "address"
            },
            {
              "internalType": "string",
              "name": "logoUrl",
              "type": "string"
            },
            {
              "internalType": "string",
              "name": "infoUrl",
              "type": "string"
            },
            {
              "internalType": "string",
              "name": "description",
              "type": "string"
            },
            {
              "internalType": "string[]",
              "name": "webLinks",
              "type": "string[]"
            }
          ],
          "indexed": false,
          "internalType": "struct BaseDAO.DAOInfo",
          "name": "daoInfo",
          "type": "tuple"
        }
      ],
      "name": "DAOInfoUpdated",
      "type": "event"
    },
    {
      "anonymous": false,
      "inputs": [
        {
          "indexed": false,
          "internalType": "uint8",
          "name": "version",
          "type": "uint8"
        }
      ],
      "name": "Initialized",
      "type": "event"
    },
    {
      "anonymous": false,
      "inputs": [
        {
          "indexed": true,
          "internalType": "address",
          "name": "oldImplementation",
          "type": "address"
        },
        {
          "indexed": true,
          "internalType": "address",
          "name": "newImplementation",
          "type": "address"
        },
        {
          "indexed": false,
          "internalType": "string",
          "name": "name",
          "type": "string"
        }
      ],
      "name": "LogicUpdated",
      "type": "event"
    },
    {
      "anonymous": false,
      "inputs": [
        {
          "indexed": true,
          "internalType": "bytes32",
          "name": "role",
          "type": "bytes32"
        },
        {
          "indexed": true,
          "internalType": "bytes32",
          "name": "previousAdminRole",
          "type": "bytes32"
        },
        {
          "indexed": true,
          "internalType": "bytes32",
          "name": "newAdminRole",
          "type": "bytes32"
        }
      ],
      "name": "RoleAdminChanged",
      "type": "event"
    },
    {
      "anonymous": false,
      "inputs": [
        {
          "indexed": true,
          "internalType": "bytes32",
          "name": "role",
          "type": "bytes32"
        },
        {
          "indexed": true,
          "internalType": "address",
          "name": "account",
          "type": "address"
        },
        {
          "indexed": true,
          "internalType": "address",
          "name": "sender",
          "type": "address"
        }
      ],
      "name": "RoleGranted",
      "type": "event"
    },
    {
      "anonymous": false,
      "inputs": [
        {
          "indexed": true,
          "internalType": "bytes32",
          "name": "role",
          "type": "bytes32"
        },
        {
          "indexed": true,
          "internalType": "address",
          "name": "account",
          "type": "address"
        },
        {
          "indexed": true,
          "internalType": "address",
          "name": "sender",
          "type": "address"
        }
      ],
      "name": "RoleRevoked",
      "type": "event"
    },
    {
      "anonymous": false,
      "inputs": [
        {
          "indexed": false,
          "internalType": "bytes32",
          "name": "txnHash",
          "type": "bytes32"
        },
        {
          "components": [
            {
              "internalType": "address",
              "name": "to",
              "type": "address"
            },
            {
              "internalType": "uint256",
              "name": "value",
              "type": "uint256"
            },
            {
              "internalType": "bytes",
              "name": "data",
              "type": "bytes"
            },
            {
              "internalType": "enum Enum.Operation",
              "name": "operation",
              "type": "uint8"
            },
            {
              "internalType": "uint256",
              "name": "nonce",
              "type": "uint256"
            },
            {
              "internalType": "uint256",
              "name": "transactionType",
              "type": "uint256"
            },
            {
              "internalType": "string",
              "name": "title",
              "type": "string"
            },
            {
              "internalType": "string",
              "name": "description",
              "type": "string"
            },
            {
              "internalType": "string",
              "name": "linkToDiscussion",
              "type": "string"
            },
            {
              "internalType": "address",
              "name": "creator",
              "type": "address"
            },
            {
              "internalType": "string",
              "name": "metaData",
              "type": "string"
            }
          ],
          "indexed": false,
          "internalType": "struct MultiSigDAO.TransactionInfo",
          "name": "info",
          "type": "tuple"
        }
      ],
      "name": "TransactionCreated",
      "type": "event"
    },
    {
      "inputs": [],
      "name": "DAO_ADMIN",
      "outputs": [
        {
          "internalType": "bytes32",
          "name": "",
          "type": "bytes32"
        }
      ],
      "stateMutability": "view",
      "type": "function"
    },
    {
      "inputs": [],
      "name": "DEFAULT_ADMIN_ROLE",
      "outputs": [
        {
          "internalType": "bytes32",
          "name": "",
          "type": "bytes32"
        }
      ],
      "stateMutability": "view",
      "type": "function"
    },
    {
      "inputs": [
        {
          "internalType": "address",
          "name": "_admin",
          "type": "address"
        },
        {
          "internalType": "string",
          "name": "_name",
          "type": "string"
        },
        {
          "internalType": "string",
          "name": "_logoUrl",
          "type": "string"
        },
        {
          "internalType": "string",
          "name": "_infoUrl",
          "type": "string"
        },
        {
          "internalType": "string",
          "name": "_description",
          "type": "string"
        },
        {
          "internalType": "string[]",
          "name": "_webLinks",
          "type": "string[]"
        }
      ],
      "name": "__BaseDAO_init",
      "outputs": [],
      "stateMutability": "nonpayable",
      "type": "function"
    },
    {
      "inputs": [
        {
          "internalType": "bytes32",
          "name": "_txnHash",
          "type": "bytes32"
        }
      ],
      "name": "getApprovalCounts",
      "outputs": [
        {
          "internalType": "uint256",
          "name": "",
          "type": "uint256"
        }
      ],
      "stateMutability": "view",
      "type": "function"
    },
    {
      "inputs": [],
      "name": "getDaoInfo",
      "outputs": [
        {
          "components": [
            {
              "internalType": "string",
              "name": "name",
              "type": "string"
            },
            {
              "internalType": "address",
              "name": "admin",
              "type": "address"
            },
            {
              "internalType": "string",
              "name": "logoUrl",
              "type": "string"
            },
            {
              "internalType": "string",
              "name": "infoUrl",
              "type": "string"
            },
            {
              "internalType": "string",
              "name": "description",
              "type": "string"
            },
            {
              "internalType": "string[]",
              "name": "webLinks",
              "type": "string[]"
            }
          ],
          "internalType": "struct BaseDAO.DAOInfo",
          "name": "",
          "type": "tuple"
        }
      ],
      "stateMutability": "view",
      "type": "function"
    },
    {
      "inputs": [],
      "name": "getHederaGnosisSafeContractAddress",
      "outputs": [
        {
          "internalType": "address",
          "name": "",
          "type": "address"
        }
      ],
      "stateMutability": "view",
      "type": "function"
    },
    {
      "inputs": [],
      "name": "getHederaServiceVersion",
      "outputs": [
        {
          "internalType": "contract IHederaService",
          "name": "",
          "type": "address"
        }
      ],
      "stateMutability": "view",
      "type": "function"
    },
    {
      "inputs": [],
      "name": "getMultiSendContractAddress",
      "outputs": [
        {
          "internalType": "address",
          "name": "",
          "type": "address"
        }
      ],
      "stateMutability": "view",
      "type": "function"
    },
    {
      "inputs": [
        {
          "internalType": "bytes32",
          "name": "role",
          "type": "bytes32"
        }
      ],
      "name": "getRoleAdmin",
      "outputs": [
        {
          "internalType": "bytes32",
          "name": "",
          "type": "bytes32"
        }
      ],
      "stateMutability": "view",
      "type": "function"
    },
    {
      "inputs": [
        {
          "internalType": "bytes32",
          "name": "_txnHash",
          "type": "bytes32"
        }
      ],
      "name": "getTransactionInfo",
      "outputs": [
        {
          "components": [
            {
              "internalType": "address",
              "name": "to",
              "type": "address"
            },
            {
              "internalType": "uint256",
              "name": "value",
              "type": "uint256"
            },
            {
              "internalType": "bytes",
              "name": "data",
              "type": "bytes"
            },
            {
              "internalType": "enum Enum.Operation",
              "name": "operation",
              "type": "uint8"
            },
            {
              "internalType": "uint256",
              "name": "nonce",
              "type": "uint256"
            },
            {
              "internalType": "uint256",
              "name": "transactionType",
              "type": "uint256"
            },
            {
              "internalType": "string",
              "name": "title",
              "type": "string"
            },
            {
              "internalType": "string",
              "name": "description",
              "type": "string"
            },
            {
              "internalType": "string",
              "name": "linkToDiscussion",
              "type": "string"
            },
            {
              "internalType": "address",
              "name": "creator",
              "type": "address"
            },
            {
              "internalType": "string",
              "name": "metaData",
              "type": "string"
            }
          ],
          "internalType": "struct MultiSigDAO.TransactionInfo",
          "name": "",
          "type": "tuple"
        }
      ],
      "stateMutability": "view",
      "type": "function"
    },
    {
      "inputs": [
        {
          "internalType": "bytes32",
          "name": "role",
          "type": "bytes32"
        },
        {
          "internalType": "address",
          "name": "account",
          "type": "address"
        }
      ],
      "name": "grantRole",
      "outputs": [],
      "stateMutability": "nonpayable",
      "type": "function"
    },
    {
      "inputs": [
        {
          "internalType": "bytes32",
          "name": "role",
          "type": "bytes32"
        },
        {
          "internalType": "address",
          "name": "account",
          "type": "address"
        }
      ],
      "name": "hasRole",
      "outputs": [
        {
          "internalType": "bool",
          "name": "",
          "type": "bool"
        }
      ],
      "stateMutability": "view",
      "type": "function"
    },
    {
      "inputs": [
        {
          "internalType": "address",
          "name": "_admin",
          "type": "address"
        },
        {
          "internalType": "string",
          "name": "_name",
          "type": "string"
        },
        {
          "internalType": "string",
          "name": "_logoUrl",
          "type": "string"
        },
        {
          "internalType": "string",
          "name": "_description",
          "type": "string"
        },
        {
          "internalType": "string[]",
          "name": "_webLinks",
          "type": "string[]"
        },
        {
          "internalType": "contract HederaGnosisSafe",
          "name": "_hederaGnosisSafe",
          "type": "address"
        },
        {
          "internalType": "contract IHederaService",
          "name": "_hederaService",
          "type": "address"
        },
        {
          "internalType": "contract HederaMultiSend",
          "name": "_multiSend",
          "type": "address"
        },
        {
          "internalType": "contract ISystemRoleBasedAccess",
          "name": "_iSystemRoleBasedAccess",
          "type": "address"
        }
      ],
      "name": "initialize",
      "outputs": [],
      "stateMutability": "nonpayable",
      "type": "function"
    },
    {
      "inputs": [
        {
          "internalType": "address[]",
          "name": "_targets",
          "type": "address[]"
        },
        {
          "internalType": "uint256[]",
          "name": "_values",
          "type": "uint256[]"
        },
        {
          "internalType": "bytes[]",
          "name": "_calldatas",
          "type": "bytes[]"
        },
        {
          "internalType": "string",
          "name": "title",
          "type": "string"
        },
        {
          "internalType": "string",
          "name": "desc",
          "type": "string"
        },
        {
          "internalType": "string",
          "name": "linkToDiscussion",
          "type": "string"
        }
      ],
      "name": "proposeBatchTransaction",
      "outputs": [
        {
          "internalType": "bytes32",
          "name": "",
          "type": "bytes32"
        }
      ],
      "stateMutability": "nonpayable",
      "type": "function"
    },
    {
      "inputs": [
        {
          "internalType": "address",
          "name": "_token",
          "type": "address"
        },
        {
          "internalType": "string",
          "name": "_title",
          "type": "string"
        },
        {
          "internalType": "string",
          "name": "_desc",
          "type": "string"
        },
        {
          "internalType": "string",
          "name": "_linkToDiscussion",
          "type": "string"
        }
      ],
      "name": "proposeTokenAssociateTransaction",
      "outputs": [
        {
          "internalType": "bytes32",
          "name": "",
          "type": "bytes32"
        }
      ],
      "stateMutability": "nonpayable",
      "type": "function"
    },
    {
      "inputs": [
        {
          "internalType": "address",
          "name": "_to",
          "type": "address"
        },
        {
          "internalType": "bytes",
          "name": "_data",
          "type": "bytes"
        },
        {
          "internalType": "uint256",
          "name": "_type",
          "type": "uint256"
        },
        {
          "internalType": "string",
          "name": "title",
          "type": "string"
        },
        {
          "internalType": "string",
          "name": "desc",
          "type": "string"
        },
        {
          "internalType": "string",
          "name": "linkToDiscussion",
          "type": "string"
        },
        {
          "internalType": "string",
          "name": "metaData",
          "type": "string"
        }
      ],
      "name": "proposeTransaction",
      "outputs": [
        {
          "internalType": "bytes32",
          "name": "",
          "type": "bytes32"
        }
      ],
      "stateMutability": "nonpayable",
      "type": "function"
    },
    {
      "inputs": [
        {
          "internalType": "address",
          "name": "_to",
          "type": "address"
        },
        {
          "internalType": "address",
          "name": "_token",
          "type": "address"
        },
        {
          "internalType": "uint256",
          "name": "_amount",
          "type": "uint256"
        },
        {
          "internalType": "string",
          "name": "_title",
          "type": "string"
        },
        {
          "internalType": "string",
          "name": "_desc",
          "type": "string"
        },
        {
          "internalType": "string",
          "name": "_linkToDiscussion",
          "type": "string"
        }
      ],
      "name": "proposeTransferTransaction",
      "outputs": [
        {
          "internalType": "bytes32",
          "name": "",
          "type": "bytes32"
        }
      ],
      "stateMutability": "nonpayable",
      "type": "function"
    },
    {
      "inputs": [
        {
          "internalType": "address",
          "name": "_proxy",
          "type": "address"
        },
        {
          "internalType": "address",
          "name": "_proxyLogic",
          "type": "address"
        },
        {
          "internalType": "string",
          "name": "_title",
          "type": "string"
        },
        {
          "internalType": "string",
          "name": "_desc",
          "type": "string"
        },
        {
          "internalType": "string",
          "name": "_linkToDiscussion",
          "type": "string"
        }
      ],
      "name": "proposeUpgradeProxyTransaction",
      "outputs": [
        {
          "internalType": "bytes32",
          "name": "",
          "type": "bytes32"
        }
      ],
      "stateMutability": "nonpayable",
      "type": "function"
    },
    {
      "inputs": [
        {
          "internalType": "bytes32",
          "name": "role",
          "type": "bytes32"
        },
        {
          "internalType": "address",
          "name": "account",
          "type": "address"
        }
      ],
      "name": "renounceRole",
      "outputs": [],
      "stateMutability": "nonpayable",
      "type": "function"
    },
    {
      "inputs": [
        {
          "internalType": "bytes32",
          "name": "role",
          "type": "bytes32"
        },
        {
          "internalType": "address",
          "name": "account",
          "type": "address"
        }
      ],
      "name": "revokeRole",
      "outputs": [],
      "stateMutability": "nonpayable",
      "type": "function"
    },
    {
      "inputs": [
        {
          "internalType": "address",
          "name": "creator",
          "type": "address"
        },
        {
          "internalType": "string",
          "name": "text",
          "type": "string"
        }
      ],
      "name": "setText",
      "outputs": [
        {
          "internalType": "address",
          "name": "",
          "type": "address"
        },
        {
          "internalType": "string",
          "name": "",
          "type": "string"
        }
      ],
      "stateMutability": "view",
      "type": "function"
    },
    {
      "inputs": [
        {
          "internalType": "bytes32",
          "name": "_txnHash",
          "type": "bytes32"
        }
      ],
      "name": "state",
      "outputs": [
        {
          "internalType": "enum MultiSigDAO.TransactionState",
          "name": "",
          "type": "uint8"
        }
      ],
      "stateMutability": "view",
      "type": "function"
    },
    {
      "inputs": [
        {
          "internalType": "bytes4",
          "name": "interfaceId",
          "type": "bytes4"
        }
      ],
      "name": "supportsInterface",
      "outputs": [
        {
          "internalType": "bool",
          "name": "",
          "type": "bool"
        }
      ],
      "stateMutability": "view",
      "type": "function"
    },
    {
      "inputs": [
        {
          "internalType": "string",
          "name": "_name",
          "type": "string"
        },
        {
          "internalType": "string",
          "name": "_logoUrl",
          "type": "string"
        },
        {
          "internalType": "string",
          "name": "_infoUrl",
          "type": "string"
        },
        {
          "internalType": "string",
          "name": "_description",
          "type": "string"
        },
        {
          "internalType": "string[]",
          "name": "_webLinks",
          "type": "string[]"
        }
      ],
      "name": "updateDaoInfo",
      "outputs": [],
      "stateMutability": "nonpayable",
      "type": "function"
    },
    {
      "inputs": [
        {
          "internalType": "contract HederaGnosisSafe",
          "name": "_hederaGnosisSafe",
          "type": "address"
        }
      ],
      "name": "upgradeHederaGnosisSafe",
      "outputs": [],
      "stateMutability": "nonpayable",
      "type": "function"
    },
    {
      "inputs": [
        {
          "internalType": "contract IHederaService",
          "name": "newHederaService",
          "type": "address"
        }
      ],
      "name": "upgradeHederaService",
      "outputs": [],
      "stateMutability": "nonpayable",
      "type": "function"
    },
    {
      "inputs": [
        {
          "internalType": "contract HederaMultiSend",
          "name": "_multiSend",
          "type": "address"
        }
      ],
      "name": "upgradeMultiSend",
      "outputs": [],
      "stateMutability": "nonpayable",
      "type": "function"
    }
  ],
  "bytecode": "0x60806040523480156200001157600080fd5b506200001c62000022565b620000e3565b600054610100900460ff16156200008f5760405162461bcd60e51b815260206004820152602760248201527f496e697469616c697a61626c653a20636f6e747261637420697320696e697469604482015266616c697a696e6760c81b606482015260840160405180910390fd5b60005460ff90811614620000e1576000805460ff191660ff9081179091556040519081527f7f26b83ff96e1f2b6a682f133852f6798a09c465da95921460cefb38474024989060200160405180910390a15b565b61384e80620000f36000396000f3fe608060405234801561001057600080fd5b50600436106101495760003560e01c806301ffc9a71461014e5780630f206bca14610176578063179244031461018b578063193f6b34146101a5578063248a9ca3146101c65780632a486caf146101d95780632f2ff15d146101ec57806333309847146101ff57806333a73c311461021257806336568abe14610225578063402482e414610238578063468c8a611461024b57806349e6b62c146102605780635db6515c1461028057806361d585da146102935780636dab6f75146102b357806380896acc146102c457806391d14854146102d55780639645699e146102e85780639a200247146102fb5780639b316eda1461030e578063a217fddf14610321578063d26d681f14610329578063d547741f1461033c578063d926e34c1461034f578063dd49317114610370578063fa382f8714610383575b600080fd5b61016161015c366004612502565b610398565b60405190151581526020015b60405180910390f35b610189610184366004612551565b6103cf565b005b60fc546001600160a01b03165b60405161016d919061257b565b6101b86101b336600461258f565b6104ae565b60405190815260200161016d565b6101b86101d436600461258f565b61051c565b6101896101e736600461270f565b610531565b6101896101fa3660046127ef565b610640565b61018961020d36600461281f565b610661565b6101b861022036600461291f565b6108ed565b6101896102333660046127ef565b61096f565b6101b8610246366004612af7565b6109ed565b6101b86000805160206137f983398151915281565b61027361026e36600461258f565b610bae565b60405161016d9190612c58565b61018961028e366004612d46565b610f4c565b6102a66102a136600461258f565b610f71565b60405161016d9190612e17565b60fd546001600160a01b0316610198565b60fe546001600160a01b0316610198565b6101616102e33660046127ef565b61140e565b6101b86102f6366004612e31565b611439565b6101b8610309366004612ed1565b611603565b61018961031c366004612551565b611693565b6101b8600081565b610189610337366004612551565b611771565b61018961034a3660046127ef565b61184d565b61036261035d366004612f28565b611869565b60405161016d929190612f77565b6101b861037e366004612fa3565b6118df565b61038b611b38565b60405161016d919061308e565b60006001600160e01b03198216637965db0b60e01b14806103c957506301ffc9a760e01b6001600160e01b03198316145b92915050565b60ff54604051637ae09f4d60e01b81526001600160a01b0390911690637ae09f4d906103ff90339060040161257b565b60006040518083038186803b15801561041757600080fd5b505afa15801561042b573d6000803e3d6000fd5b505060fe54604080518082018252601081526f486564657261476e6f7369735361666560801b602082015290516001600160a01b03868116955090921692506000805160206137d9833981519152916104849190613178565b60405180910390a360fe80546001600160a01b0319166001600160a01b0392909216919091179055565b60fe5460405163064fdacd60e21b8152600481018390526000916001600160a01b03169063193f6b3490602401602060405180830381865afa1580156104f8573d6000803e3d6000fd5b505050506040513d601f19601f820116820180604052508101906103c9919061318b565b60009081526065602052604090206001015490565b600054610100900460ff166105a15760405162461bcd60e51b815260206004820152602b60248201527f496e697469616c697a61626c653a20636f6e7472616374206973206e6f74206960448201526a6e697469616c697a696e6760a81b60648201526084015b60405180910390fd5b6001600160a01b0386166105f85760405163d647364f60e01b815260206004820152601e60248201527f4261736544414f3a2061646d696e2061646472657373206973207a65726f00006044820152606401610598565b60ca80546001600160a01b0319166001600160a01b03881617905561062b6000805160206137f983398151915287611ec4565b6106388585858585611f4a565b505050505050565b6106498261051c565b610652816120ec565b61065c8383611ec4565b505050565b600054610100900460ff16158080156106815750600054600160ff909116105b8061069b5750303b15801561069b575060005460ff166001145b6106fe5760405162461bcd60e51b815260206004820152602e60248201527f496e697469616c697a61626c653a20636f6e747261637420697320616c72656160448201526d191e481a5b9a5d1a585b1a5e995960921b6064820152608401610598565b6000805460ff191660011790558015610721576000805461ff0019166101001790555b60fd80546001600160a01b038087166001600160a01b03199283161790925560fe805488841690831617905560fc805486841690831617905560ff80549285169290911691909117905560408051602081019091526000815261078b908b908b908b908b8b610531565b60fd54604080518082018252600d81526c4865646572615365727669636560981b602082015290516001600160a01b03909216916000916000805160206137d9833981519152916107dc9190613178565b60405180910390a360fc54604080518082018252600f81526e121959195c98535d5b1d1a54d95b99608a1b602082015290516001600160a01b03909216916000916000805160206137d9833981519152916108379190613178565b60405180910390a360fe54604080518082018252601081526f486564657261476e6f7369735361666560801b602082015290516001600160a01b03909216916000916000805160206137d9833981519152916108939190613178565b60405180910390a380156108e1576000805461ff0019169055604051600181527f7f26b83ff96e1f2b6a682f133852f6798a09c465da95921460cefb38474024989060200160405180910390a15b50505050505050505050565b60fd54604080516001600160a01b0392831660248201528683166044808301919091528251808303909101815260649091018252602080820180516001600160e01b031663248a35ef60e11b17905260fe548351918201909352600080825293919261096592169083906002908990899089906118df565b9695505050505050565b6001600160a01b03811633146109df5760405162461bcd60e51b815260206004820152602f60248201527f416363657373436f6e74726f6c3a2063616e206f6e6c792072656e6f756e636560448201526e103937b632b9903337b91039b2b63360891b6064820152608401610598565b6109e982826120f9565b5050565b6000808751118015610a00575085518751145b8015610a0d575084518751145b610a695760405162461bcd60e51b815260206004820152602760248201527f4d756c746953696744414f3a20696e76616c6964207472616e73616374696f6e604482015266040d8cadccee8d60cb1b6064820152608401610598565b606060005b8851811015610b1c578160008a8381518110610a8c57610a8c6131a4565b60200260200101518a8481518110610aa657610aa66131a4565b60200260200101518a8581518110610ac057610ac06131a4565b6020026020010151518b8681518110610adb57610adb6131a4565b6020026020010151604051602001610af8969594939291906131ba565b60405160208183030381529060405291508080610b149061323c565b915050610a6e565b506000638d80ff0a60e01b82604051602401610b389190613178565b604051602081830303815290604052906001600160e01b0319166020820180516001600160e01b0383818316178352505050509050610ba160fc60009054906101000a90046001600160a01b0316826001898989604051806020016040528060008152506118df565b9998505050505050505050565b610bb66123c8565b60008281526101006020908152604080832081516101608101835281546001600160a01b031681526001820154938101939093526002810180549192840191610bfe90613255565b80601f0160208091040260200160405190810160405280929190818152602001828054610c2a90613255565b8015610c775780601f10610c4c57610100808354040283529160200191610c77565b820191906000526020600020905b815481529060010190602001808311610c5a57829003601f168201915b5050509183525050600382015460209091019060ff166001811115610c9e57610c9e612c2e565b6001811115610caf57610caf612c2e565b81526020016004820154815260200160058201548152602001600682018054610cd790613255565b80601f0160208091040260200160405190810160405280929190818152602001828054610d0390613255565b8015610d505780601f10610d2557610100808354040283529160200191610d50565b820191906000526020600020905b815481529060010190602001808311610d3357829003601f168201915b50505050508152602001600782018054610d6990613255565b80601f0160208091040260200160405190810160405280929190818152602001828054610d9590613255565b8015610de25780601f10610db757610100808354040283529160200191610de2565b820191906000526020600020905b815481529060010190602001808311610dc557829003601f168201915b50505050508152602001600882018054610dfb90613255565b80601f0160208091040260200160405190810160405280929190818152602001828054610e2790613255565b8015610e745780601f10610e4957610100808354040283529160200191610e74565b820191906000526020600020905b815481529060010190602001808311610e5757829003601f168201915b505050918352505060098201546001600160a01b03166020820152600a82018054604090920191610ea490613255565b80601f0160208091040260200160405190810160405280929190818152602001828054610ed090613255565b8015610f1d5780601f10610ef257610100808354040283529160200191610f1d565b820191906000526020600020905b815481529060010190602001808311610f0057829003601f168201915b505050505081525050905080608001516000036103c95760405162461bcd60e51b815260040161059890613289565b6000805160206137f9833981519152610f64816120ec565b6106388686868686611f4a565b60008181526101006020908152604080832081516101608101835281546001600160a01b0316815260018201549381019390935260028101805485949384019190610fbb90613255565b80601f0160208091040260200160405190810160405280929190818152602001828054610fe790613255565b80156110345780601f1061100957610100808354040283529160200191611034565b820191906000526020600020905b81548152906001019060200180831161101757829003601f168201915b5050509183525050600382015460209091019060ff16600181111561105b5761105b612c2e565b600181111561106c5761106c612c2e565b8152602001600482015481526020016005820154815260200160068201805461109490613255565b80601f01602080910402602001604051908101604052809291908181526020018280546110c090613255565b801561110d5780601f106110e25761010080835404028352916020019161110d565b820191906000526020600020905b8154815290600101906020018083116110f057829003601f168201915b5050505050815260200160078201805461112690613255565b80601f016020809104026020016040519081016040528092919081815260200182805461115290613255565b801561119f5780601f106111745761010080835404028352916020019161119f565b820191906000526020600020905b81548152906001019060200180831161118257829003601f168201915b505050505081526020016008820180546111b890613255565b80601f01602080910402602001604051908101604052809291908181526020018280546111e490613255565b80156112315780601f1061120657610100808354040283529160200191611231565b820191906000526020600020905b81548152906001019060200180831161121457829003601f168201915b505050918352505060098201546001600160a01b03166020820152600a8201805460409092019161126190613255565b80601f016020809104026020016040519081016040528092919081815260200182805461128d90613255565b80156112da5780601f106112af576101008083540402835291602001916112da565b820191906000526020600020905b8154815290600101906020018083116112bd57829003601f168201915b505050505081525050905080608001516000036113095760405162461bcd60e51b815260040161059890613289565b60fe546040516301244d4760e11b8152600481018590526001600160a01b03909116906302489a8e90602401602060405180830381865afa158015611352573d6000803e3d6000fd5b505050506040513d601f19601f8201168201806040525081019061137691906132bc565b156113845750600292915050565b60fe5460405163a7f173ab60e01b8152600481018590526001600160a01b039091169063a7f173ab90602401602060405180830381865afa1580156113cd573d6000803e3d6000fd5b505050506040513d601f19601f820116820180604052508101906113f191906132bc565b156113ff5750600192915050565b50600092915050565b50919050565b60009182526065602090815260408084206001600160a01b0393909316845291905290205460ff1690565b60006001600160a01b0386166114915760405162461bcd60e51b815260206004820181905260248201527f4d756c746953696744414f3a2070726f78792063616e2774206265207a65726f6044820152606401610598565b6001600160a01b0385166114e75760405162461bcd60e51b815260206004820181905260248201527f4d756c746953696744414f3a206c6f6769632063616e2774206265207a65726f6044820152606401610598565b60ff5460408051632e83149160e11b81529051600092633d0d3f0f60e21b928a928a926001600160a01b031691635d0629229160048083019260809291908290030181865afa15801561153e573d6000803e3d6000fd5b505050506040513d601f19601f8201168201806040525081019061156291906132de565b602001516040516001600160a01b0393841660248201529183166044830152919091166064820152608401604051602081830303815290604052906001600160e01b0319166020820180516001600160e01b03838183161783525050505090506115f660fe60009054906101000a90046001600160a01b0316826003888888604051806020016040528060008152506118df565b9150505b95945050505050565b60fd54604080516001600160a01b0392831660248201528783166044820152888316606482015260848082018890528251808303909101815260a49091018252602080820180516001600160e01b031663031b4f8b60e21b17905260fe548351918201909352600080825293919261168792169083906004908990899089906118df565b98975050505050505050565b60ff54604051637ae09f4d60e01b81526001600160a01b0390911690637ae09f4d906116c390339060040161257b565b60006040518083038186803b1580156116db57600080fd5b505afa1580156116ef573d6000803e3d6000fd5b505060fc54604080518082018252600f81526e121959195c98535d5b1d1a54d95b99608a1b602082015290516001600160a01b03868116955090921692506000805160206137d9833981519152916117479190613178565b60405180910390a360fc80546001600160a01b0319166001600160a01b0392909216919091179055565b60ff54604051637ae09f4d60e01b81526001600160a01b0390911690637ae09f4d906117a190339060040161257b565b60006040518083038186803b1580156117b957600080fd5b505afa1580156117cd573d6000803e3d6000fd5b505060fd54604080518082018252600d81526c4865646572615365727669636560981b602082015290516001600160a01b03868116955090921692506000805160206137d9833981519152916118239190613178565b60405180910390a360fd80546001600160a01b0319166001600160a01b0392909216919091179055565b6118568261051c565b61185f816120ec565b61065c83836120f9565b60fe546000906060906001600160a01b031633146118d75760405162461bcd60e51b815260206004820152602560248201527f4f6e6c7920486564657261476e6f736973536166652063616e20657865637574604482015264329034ba1760d91b6064820152608401610598565b509192909150565b6000845160000361193c5760405162461bcd60e51b815260206004820152602160248201527f4d756c746953696744414f3a207469746c652063616e277420626520626c616e6044820152606b60f81b6064820152608401610598565b835160000361198d5760405162461bcd60e51b815260206004820181905260248201527f4d756c746953696744414f3a20646573632063616e277420626520626c616e6b6044820152606401610598565b60fe54604051633c75d0af60e11b8152600091829182916001600160a01b0316906378eba15e906119c8908e9085908f908290600401613362565b60408051808303816000875af11580156119e6573d6000803e3d6000fd5b505050506040513d601f19601f82011682018060405250810190611a0a9190613398565b915091506000610100600084815260200190815260200160002090508b8160000160006101000a8154816001600160a01b0302191690836001600160a01b03160217905550600081600101819055508a816002019081611a6a9190613402565b5060038101805485919060ff191660018381811115611a8b57611a8b612c2e565b021790555060048101829055600581018a905560068101611aac8a82613402565b5060078101611abb8982613402565b5060088101611aca8882613402565b50600a8101611ad98782613402565b506009810180546001600160a01b031916331790556040517f40fbf00a03221a6a6cf9fc8af1167728e15ea750d0327d53baf1c29aeaa3206190611b20908590849061354a565b60405180910390a150909a9950505050505050505050565b611b7a6040518060c001604052806060815260200160006001600160a01b03168152602001606081526020016060815260200160608152602001606081525090565b60c96040518060c0016040529081600082018054611b9790613255565b80601f0160208091040260200160405190810160405280929190818152602001828054611bc390613255565b8015611c105780601f10611be557610100808354040283529160200191611c10565b820191906000526020600020905b815481529060010190602001808311611bf357829003601f168201915b505050918352505060018201546001600160a01b03166020820152600282018054604090920191611c4090613255565b80601f0160208091040260200160405190810160405280929190818152602001828054611c6c90613255565b8015611cb95780601f10611c8e57610100808354040283529160200191611cb9565b820191906000526020600020905b815481529060010190602001808311611c9c57829003601f168201915b50505050508152602001600382018054611cd290613255565b80601f0160208091040260200160405190810160405280929190818152602001828054611cfe90613255565b8015611d4b5780601f10611d2057610100808354040283529160200191611d4b565b820191906000526020600020905b815481529060010190602001808311611d2e57829003601f168201915b50505050508152602001600482018054611d6490613255565b80601f0160208091040260200160405190810160405280929190818152602001828054611d9090613255565b8015611ddd5780601f10611db257610100808354040283529160200191611ddd565b820191906000526020600020905b815481529060010190602001808311611dc057829003601f168201915b5050505050815260200160058201805480602002602001604051908101604052809291908181526020016000905b82821015611eb7578382906000526020600020018054611e2a90613255565b80601f0160208091040260200160405190810160405280929190818152602001828054611e5690613255565b8015611ea35780601f10611e7857610100808354040283529160200191611ea3565b820191906000526020600020905b815481529060010190602001808311611e8657829003601f168201915b505050505081526020019060010190611e0b565b5050505081525050905090565b611ece828261140e565b6109e95760008281526065602090815260408083206001600160a01b03851684529091529020805460ff19166001179055611f063390565b6001600160a01b0316816001600160a01b0316837f2f8788117e7eff1d82e926ec794901d17c78024a50270940304540a733656f0d60405160405180910390a45050565b611f5383612160565b8451600003611f9e5760405163d647364f60e01b81526020600482015260166024820152754261736544414f3a206e616d6520697320656d70747960501b6044820152606401610598565b60c9611faa8682613402565b508151600003611ffd5760405163d647364f60e01b815260206004820152601d60248201527f4261736544414f3a206465736372697074696f6e20697320656d7074790000006044820152606401610598565b60cd6120098382613402565b5060005b815181101561208b57818181518110612028576120286131a4565b6020026020010151516000036120795760405163d647364f60e01b81526020600482015260156024820152744261736544414f3a20696e76616c6964206c696e6b60581b6044820152606401610598565b806120838161323c565b91505061200d565b50805161209f9060ce906020840190612445565b5060cb6120ac8582613402565b507fcc9d0d1e1a5fc974a889257e10cdee98a6c0d30c66047a145bceec19d4bc667460c96040516120dd9190613695565b60405180910390a15050505050565b6120f681336121bb565b50565b612103828261140e565b156109e95760008281526065602090815260408083206001600160a01b0385168085529252808320805460ff1916905551339285917ff6391f5c32d9c69d2a47ea670b442974b53935d1edc7fd64eb21e047a839171b9190a45050565b8051156120f65760405163d647364f60e01b815260206004820152602260248201527f4d756c746953696744414f3a20696e666f2075726c2073686f756c6420656d70604482015261747960f01b6064820152608401610598565b6121c5828261140e565b6109e9576121d281612214565b6121dd836020612226565b6040516020016121ee929190613728565b60408051601f198184030181529082905262461bcd60e51b825261059891600401613178565b60606103c96001600160a01b03831660145b60606000612235836002613797565b6122409060026137ae565b6001600160401b03811115612257576122576125a8565b6040519080825280601f01601f191660200182016040528015612281576020820181803683370190505b509050600360fc1b8160008151811061229c5761229c6131a4565b60200101906001600160f81b031916908160001a905350600f60fb1b816001815181106122cb576122cb6131a4565b60200101906001600160f81b031916908160001a90535060006122ef846002613797565b6122fa9060016137ae565b90505b6001811115612372576f181899199a1a9b1b9c1cb0b131b232b360811b85600f166010811061232e5761232e6131a4565b1a60f81b828281518110612344576123446131a4565b60200101906001600160f81b031916908160001a90535060049490941c9361236b816137c1565b90506122fd565b5083156123c15760405162461bcd60e51b815260206004820181905260248201527f537472696e67733a20686578206c656e67746820696e73756666696369656e746044820152606401610598565b9392505050565b60405180610160016040528060006001600160a01b0316815260200160008152602001606081526020016000600181111561240557612405612c2e565b8152602001600081526020016000815260200160608152602001606081526020016060815260200160006001600160a01b03168152602001606081525090565b82805482825590600052602060002090810192821561248b579160200282015b8281111561248b578251829061247b9082613402565b5091602001919060010190612465565b5061249792915061249b565b5090565b808211156124975760006124af82826124b8565b5060010161249b565b5080546124c490613255565b6000825580601f106124d4575050565b601f0160209004906000526020600020908101906120f691905b8082111561249757600081556001016124ee565b60006020828403121561251457600080fd5b81356001600160e01b0319811681146123c157600080fd5b6001600160a01b03811681146120f657600080fd5b803561254c8161252c565b919050565b60006020828403121561256357600080fd5b81356123c18161252c565b6001600160a01b03169052565b6001600160a01b0391909116815260200190565b6000602082840312156125a157600080fd5b5035919050565b634e487b7160e01b600052604160045260246000fd5b604051601f8201601f191681016001600160401b03811182821017156125e6576125e66125a8565b604052919050565b600082601f8301126125ff57600080fd5b81356001600160401b03811115612618576126186125a8565b61262b601f8201601f19166020016125be565b81815284602083860101111561264057600080fd5b816020850160208301376000918101602001919091529392505050565b60006001600160401b03821115612676576126766125a8565b5060051b60200190565b600082601f83011261269157600080fd5b813560206126a66126a18361265d565b6125be565b82815260059290921b840181019181810190868411156126c557600080fd5b8286015b848110156127045780356001600160401b038111156126e85760008081fd5b6126f68986838b01016125ee565b8452509183019183016126c9565b509695505050505050565b60008060008060008060c0878903121561272857600080fd5b61273187612541565b955060208701356001600160401b038082111561274d57600080fd5b6127598a838b016125ee565b9650604089013591508082111561276f57600080fd5b61277b8a838b016125ee565b9550606089013591508082111561279157600080fd5b61279d8a838b016125ee565b945060808901359150808211156127b357600080fd5b6127bf8a838b016125ee565b935060a08901359150808211156127d557600080fd5b506127e289828a01612680565b9150509295509295509295565b6000806040838503121561280257600080fd5b8235915060208301356128148161252c565b809150509250929050565b60008060008060008060008060006101208a8c03121561283e57600080fd5b6128478a612541565b985060208a01356001600160401b038082111561286357600080fd5b61286f8d838e016125ee565b995060408c013591508082111561288557600080fd5b6128918d838e016125ee565b985060608c01359150808211156128a757600080fd5b6128b38d838e016125ee565b975060808c01359150808211156128c957600080fd5b506128d68c828d01612680565b9550506128e560a08b01612541565b93506128f360c08b01612541565b925061290160e08b01612541565b91506129106101008b01612541565b90509295985092959850929598565b6000806000806080858703121561293557600080fd5b84356129408161252c565b935060208501356001600160401b038082111561295c57600080fd5b612968888389016125ee565b9450604087013591508082111561297e57600080fd5b61298a888389016125ee565b935060608701359150808211156129a057600080fd5b506129ad878288016125ee565b91505092959194509250565b600082601f8301126129ca57600080fd5b813560206129da6126a18361265d565b82815260059290921b840181019181810190868411156129f957600080fd5b8286015b84811015612704578035612a108161252c565b83529183019183016129fd565b600082601f830112612a2e57600080fd5b81356020612a3e6126a18361265d565b82815260059290921b84018101918181019086841115612a5d57600080fd5b8286015b848110156127045780358352918301918301612a61565b600082601f830112612a8957600080fd5b81356020612a996126a18361265d565b82815260059290921b84018101918181019086841115612ab857600080fd5b8286015b848110156127045780356001600160401b03811115612adb5760008081fd5b612ae98986838b01016125ee565b845250918301918301612abc565b60008060008060008060c08789031215612b1057600080fd5b86356001600160401b0380821115612b2757600080fd5b612b338a838b016129b9565b97506020890135915080821115612b4957600080fd5b612b558a838b01612a1d565b96506040890135915080821115612b6b57600080fd5b612b778a838b01612a78565b95506060890135915080821115612b8d57600080fd5b612b998a838b016125ee565b94506080890135915080821115612baf57600080fd5b612bbb8a838b016125ee565b935060a0890135915080821115612bd157600080fd5b506127e289828a016125ee565b60005b83811015612bf9578181015183820152602001612be1565b50506000910152565b60008151808452612c1a816020860160208601612bde565b601f01601f19169290920160200192915050565b634e487b7160e01b600052602160045260246000fd5b60028110612c5457612c54612c2e565b9052565b60208152612c6a60208201835161256e565b6020820151604082015260006040830151610160806060850152612c92610180850183612c02565b91506060850151612ca66080860182612c44565b50608085015160a085015260a085015160c085015260c0850151601f19808685030160e0870152612cd78483612c02565b935060e08701519150610100818786030181880152612cf68584612c02565b945080880151925050610120818786030181880152612d158584612c02565b945080880151925050610140612d2d8188018461256e565b8701518685039091018387015290506109658382612c02565b600080600080600060a08688031215612d5e57600080fd5b85356001600160401b0380821115612d7557600080fd5b612d8189838a016125ee565b96506020880135915080821115612d9757600080fd5b612da389838a016125ee565b95506040880135915080821115612db957600080fd5b612dc589838a016125ee565b94506060880135915080821115612ddb57600080fd5b612de789838a016125ee565b93506080880135915080821115612dfd57600080fd5b50612e0a88828901612680565b9150509295509295909350565b6020810160038310612e2b57612e2b612c2e565b91905290565b600080600080600060a08688031215612e4957600080fd5b8535612e548161252c565b94506020860135612e648161252c565b935060408601356001600160401b0380821115612e8057600080fd5b612e8c89838a016125ee565b94506060880135915080821115612ea257600080fd5b612eae89838a016125ee565b93506080880135915080821115612ec457600080fd5b50612e0a888289016125ee565b60008060008060008060c08789031215612eea57600080fd5b8635612ef58161252c565b95506020870135612f058161252c565b94506040870135935060608701356001600160401b0380821115612b8d57600080fd5b60008060408385031215612f3b57600080fd5b8235612f468161252c565b915060208301356001600160401b03811115612f6157600080fd5b612f6d858286016125ee565b9150509250929050565b6001600160a01b0383168152604060208201819052600090612f9b90830184612c02565b949350505050565b600080600080600080600060e0888a031215612fbe57600080fd5b612fc788612541565b965060208801356001600160401b0380821115612fe357600080fd5b612fef8b838c016125ee565b975060408a0135965060608a013591508082111561300c57600080fd5b6130188b838c016125ee565b955060808a013591508082111561302e57600080fd5b61303a8b838c016125ee565b945060a08a013591508082111561305057600080fd5b61305c8b838c016125ee565b935060c08a013591508082111561307257600080fd5b5061307f8a828b016125ee565b91505092959891949750929550565b60006020808352835160c0828501526130aa60e0850182612c02565b905060018060a01b03828601511660408501526040850151601f19808684030160608701526130d98383612c02565b925060608701519150808684030160808701526130f68383612c02565b925060808701519150808684030160a08701526131138383612c02565b60a0880151878203830160c089015280518083529194508501925084840190600581901b8501860160005b8281101561316a5784878303018452613158828751612c02565b9588019593880193915060010161313e565b509998505050505050505050565b6020815260006123c16020830184612c02565b60006020828403121561319d57600080fd5b5051919050565b634e487b7160e01b600052603260045260246000fd5b600087516131cc818460208c01612bde565b60f888901b6001600160f81b031916908301908152606087901b6001600160601b031916600182015260158101869052603581018590528351613216816055840160208801612bde565b0160550198975050505050505050565b634e487b7160e01b600052601160045260246000fd5b60006001820161324e5761324e613226565b5060010190565b600181811c9082168061326957607f821691505b60208210810361140857634e487b7160e01b600052602260045260246000fd5b602080825260199082015278135d5b1d1a54da59d11053ce881b9bc81d1e1b88195e1a5cdd603a1b604082015260600190565b6000602082840312156132ce57600080fd5b815180151581146123c157600080fd5b6000608082840312156132f057600080fd5b604051608081016001600160401b0381118282101715613312576133126125a8565b60405282516133208161252c565b815260208301516133308161252c565b602082015260408301516133438161252c565b604082015260608301516133568161252c565b60608201529392505050565b60018060a01b03851681528360208201526080604082015260006133896080830185612c02565b90506115fa6060830184612c44565b600080604083850312156133ab57600080fd5b505080516020909101519092909150565b601f82111561065c57600081815260208120601f850160051c810160208610156133e35750805b601f850160051c820191505b81811015610638578281556001016133ef565b81516001600160401b0381111561341b5761341b6125a8565b61342f816134298454613255565b846133bc565b602080601f831160018114613464576000841561344c5750858301515b600019600386901b1c1916600185901b178555610638565b600085815260208120601f198616915b8281101561349357888601518255948401946001909101908401613474565b50858210156134b15787850151600019600388901b60f8161c191681555b5050505050600190811b01905550565b6001600160a01b031690565b600081546134da81613255565b8085526020600183811680156134f757600181146135115761353f565b60ff1985168884015283151560051b88018301955061353f565b866000528260002060005b858110156135375781548a820186015290830190840161351c565b890184019650505b505050505092915050565b8281526040602082015261356a6040820161356584546134c1565b61256e565b6001820154606082015260006101608060808401526135906101a08401600286016134cd565b600385015460ff166135a560a0860182612c44565b50600485015460c0850152600585015460e0850152603f1980858303016101008601526135d582600688016134cd565b915080858303016101208601526135ef82600788016134cd565b9150808583030161014086015261360982600888016134cd565b915061361860098701546134c1565b6136248487018261256e565b508482030161018085015261096581600a87016134cd565b600081548084526020808501808196508360051b81019150856000528260002060005b8581101561368857828403895261367684836134cd565b9885019893506001918201910161365f565b5091979650505050505050565b6020815260c0602082015260006136af60e08301846134cd565b60018401546001600160a01b03166040840152601f19838203810160608501526136dc82600287016134cd565b9150808483030160808501526136f582600387016134cd565b9150808483030160a085015261370e82600487016134cd565b9150808483030160c085015250612f9b816005860161363c565b76020b1b1b2b9b9a1b7b73a3937b61d1030b1b1b7bab73a1604d1b81526000835161375a816017850160208801612bde565b7001034b99036b4b9b9b4b733903937b6329607d1b601791840191820152835161378b816028840160208801612bde565b01602801949350505050565b80820281158282048414176103c9576103c9613226565b808201808211156103c9576103c9613226565b6000816137d0576137d0613226565b50600019019056fecf9d4a2ff924c5f3553e3c8485e6bc24fde822593d2c3d78c8fabaada123f8f6f591dda2e9b53c180cef2a1f29bc285ccc0649b7a0efc8de2ec0cfe024d46b96a264697066735822122012ecc762766491fbdefabdd89e79c36ba93668390887ca4f762ac5daa3929f9664736f6c63430008120033",
  "linkReferences": {},
  "deployedLinkReferences": {}
}