{
  "_format": "hh-sol-artifact-1",
  "contractName": "MultiSigDAO",
  "sourceName": "contracts/dao/MultisigDAO.sol",
  "abi": [
    {
      "inputs": [
        {
          "internalType": "string",
          "name": "message",
          "type": "string"
        }
      ],
      "name": "InvalidInput",
      "type": "error"
    },
    {
      "anonymous": false,
      "inputs": [
        {
          "components": [
            {
              "internalType": "string",
              "name": "name",
              "type": "string"
            },
            {
              "internalType": "address",
              "name": "admin",
              "type": "address"
            },
            {
              "internalType": "string",
              "name": "logoUrl",
              "type": "string"
            },
            {
              "internalType": "string",
              "name": "infoUrl",
              "type": "string"
            },
            {
              "internalType": "string",
              "name": "description",
              "type": "string"
            },
            {
              "internalType": "string[]",
              "name": "webLinks",
              "type": "string[]"
            }
          ],
          "indexed": false,
          "internalType": "struct BaseDAO.DAOInfo",
          "name": "daoInfo",
          "type": "tuple"
        }
      ],
      "name": "DAOInfoUpdated",
      "type": "event"
    },
    {
      "anonymous": false,
      "inputs": [
        {
          "indexed": false,
          "internalType": "uint8",
          "name": "version",
          "type": "uint8"
        }
      ],
      "name": "Initialized",
      "type": "event"
    },
    {
      "anonymous": false,
      "inputs": [
        {
          "indexed": true,
          "internalType": "address",
          "name": "oldImplementation",
          "type": "address"
        },
        {
          "indexed": true,
          "internalType": "address",
          "name": "newImplementation",
          "type": "address"
        },
        {
          "indexed": false,
          "internalType": "string",
          "name": "name",
          "type": "string"
        }
      ],
      "name": "LogicUpdated",
      "type": "event"
    },
    {
      "anonymous": false,
      "inputs": [
        {
          "indexed": true,
          "internalType": "bytes32",
          "name": "role",
          "type": "bytes32"
        },
        {
          "indexed": true,
          "internalType": "bytes32",
          "name": "previousAdminRole",
          "type": "bytes32"
        },
        {
          "indexed": true,
          "internalType": "bytes32",
          "name": "newAdminRole",
          "type": "bytes32"
        }
      ],
      "name": "RoleAdminChanged",
      "type": "event"
    },
    {
      "anonymous": false,
      "inputs": [
        {
          "indexed": true,
          "internalType": "bytes32",
          "name": "role",
          "type": "bytes32"
        },
        {
          "indexed": true,
          "internalType": "address",
          "name": "account",
          "type": "address"
        },
        {
          "indexed": true,
          "internalType": "address",
          "name": "sender",
          "type": "address"
        }
      ],
      "name": "RoleGranted",
      "type": "event"
    },
    {
      "anonymous": false,
      "inputs": [
        {
          "indexed": true,
          "internalType": "bytes32",
          "name": "role",
          "type": "bytes32"
        },
        {
          "indexed": true,
          "internalType": "address",
          "name": "account",
          "type": "address"
        },
        {
          "indexed": true,
          "internalType": "address",
          "name": "sender",
          "type": "address"
        }
      ],
      "name": "RoleRevoked",
      "type": "event"
    },
    {
      "anonymous": false,
      "inputs": [
        {
          "indexed": false,
          "internalType": "bytes32",
          "name": "txnHash",
          "type": "bytes32"
        },
        {
          "components": [
            {
              "internalType": "address",
              "name": "to",
              "type": "address"
            },
            {
              "internalType": "uint256",
              "name": "value",
              "type": "uint256"
            },
            {
              "internalType": "bytes",
              "name": "data",
              "type": "bytes"
            },
            {
              "internalType": "enum Enum.Operation",
              "name": "operation",
              "type": "uint8"
            },
            {
              "internalType": "uint256",
              "name": "nonce",
              "type": "uint256"
            },
            {
              "internalType": "uint256",
              "name": "transactionType",
              "type": "uint256"
            },
            {
              "internalType": "string",
              "name": "title",
              "type": "string"
            },
            {
              "internalType": "string",
              "name": "description",
              "type": "string"
            },
            {
              "internalType": "string",
              "name": "linkToDiscussion",
              "type": "string"
            },
            {
              "internalType": "address",
              "name": "creator",
              "type": "address"
            },
            {
              "internalType": "string",
              "name": "metaData",
              "type": "string"
            }
          ],
          "indexed": false,
          "internalType": "struct MultiSigDAO.TransactionInfo",
          "name": "info",
          "type": "tuple"
        }
      ],
      "name": "TransactionCreated",
      "type": "event"
    },
    {
      "inputs": [],
      "name": "DAO_ADMIN",
      "outputs": [
        {
          "internalType": "bytes32",
          "name": "",
          "type": "bytes32"
        }
      ],
      "stateMutability": "view",
      "type": "function"
    },
    {
      "inputs": [],
      "name": "DEFAULT_ADMIN_ROLE",
      "outputs": [
        {
          "internalType": "bytes32",
          "name": "",
          "type": "bytes32"
        }
      ],
      "stateMutability": "view",
      "type": "function"
    },
    {
      "inputs": [
        {
          "internalType": "address",
          "name": "_admin",
          "type": "address"
        },
        {
          "internalType": "string",
          "name": "_name",
          "type": "string"
        },
        {
          "internalType": "string",
          "name": "_logoUrl",
          "type": "string"
        },
        {
          "internalType": "string",
          "name": "_infoUrl",
          "type": "string"
        },
        {
          "internalType": "string",
          "name": "_description",
          "type": "string"
        },
        {
          "internalType": "string[]",
          "name": "_webLinks",
          "type": "string[]"
        }
      ],
      "name": "__BaseDAO_init",
      "outputs": [],
      "stateMutability": "nonpayable",
      "type": "function"
    },
    {
      "inputs": [
        {
          "internalType": "bytes32",
          "name": "_txnHash",
          "type": "bytes32"
        }
      ],
      "name": "getApprovalCounts",
      "outputs": [
        {
          "internalType": "uint256",
          "name": "",
          "type": "uint256"
        }
      ],
      "stateMutability": "view",
      "type": "function"
    },
    {
      "inputs": [],
      "name": "getDaoInfo",
      "outputs": [
        {
          "components": [
            {
              "internalType": "string",
              "name": "name",
              "type": "string"
            },
            {
              "internalType": "address",
              "name": "admin",
              "type": "address"
            },
            {
              "internalType": "string",
              "name": "logoUrl",
              "type": "string"
            },
            {
              "internalType": "string",
              "name": "infoUrl",
              "type": "string"
            },
            {
              "internalType": "string",
              "name": "description",
              "type": "string"
            },
            {
              "internalType": "string[]",
              "name": "webLinks",
              "type": "string[]"
            }
          ],
          "internalType": "struct BaseDAO.DAOInfo",
          "name": "",
          "type": "tuple"
        }
      ],
      "stateMutability": "view",
      "type": "function"
    },
    {
      "inputs": [],
      "name": "getHederaGnosisSafeContractAddress",
      "outputs": [
        {
          "internalType": "address",
          "name": "",
          "type": "address"
        }
      ],
      "stateMutability": "view",
      "type": "function"
    },
    {
      "inputs": [],
      "name": "getHederaServiceVersion",
      "outputs": [
        {
          "internalType": "contract IHederaService",
          "name": "",
          "type": "address"
        }
      ],
      "stateMutability": "view",
      "type": "function"
    },
    {
      "inputs": [],
      "name": "getMultiSendContractAddress",
      "outputs": [
        {
          "internalType": "address",
          "name": "",
          "type": "address"
        }
      ],
      "stateMutability": "view",
      "type": "function"
    },
    {
      "inputs": [
        {
          "internalType": "bytes32",
          "name": "role",
          "type": "bytes32"
        }
      ],
      "name": "getRoleAdmin",
      "outputs": [
        {
          "internalType": "bytes32",
          "name": "",
          "type": "bytes32"
        }
      ],
      "stateMutability": "view",
      "type": "function"
    },
    {
      "inputs": [
        {
          "internalType": "bytes32",
          "name": "_txnHash",
          "type": "bytes32"
        }
      ],
      "name": "getTransactionInfo",
      "outputs": [
        {
          "components": [
            {
              "internalType": "address",
              "name": "to",
              "type": "address"
            },
            {
              "internalType": "uint256",
              "name": "value",
              "type": "uint256"
            },
            {
              "internalType": "bytes",
              "name": "data",
              "type": "bytes"
            },
            {
              "internalType": "enum Enum.Operation",
              "name": "operation",
              "type": "uint8"
            },
            {
              "internalType": "uint256",
              "name": "nonce",
              "type": "uint256"
            },
            {
              "internalType": "uint256",
              "name": "transactionType",
              "type": "uint256"
            },
            {
              "internalType": "string",
              "name": "title",
              "type": "string"
            },
            {
              "internalType": "string",
              "name": "description",
              "type": "string"
            },
            {
              "internalType": "string",
              "name": "linkToDiscussion",
              "type": "string"
            },
            {
              "internalType": "address",
              "name": "creator",
              "type": "address"
            },
            {
              "internalType": "string",
              "name": "metaData",
              "type": "string"
            }
          ],
          "internalType": "struct MultiSigDAO.TransactionInfo",
          "name": "",
          "type": "tuple"
        }
      ],
      "stateMutability": "view",
      "type": "function"
    },
    {
      "inputs": [
        {
          "internalType": "bytes32",
          "name": "role",
          "type": "bytes32"
        },
        {
          "internalType": "address",
          "name": "account",
          "type": "address"
        }
      ],
      "name": "grantRole",
      "outputs": [],
      "stateMutability": "nonpayable",
      "type": "function"
    },
    {
      "inputs": [
        {
          "internalType": "bytes32",
          "name": "role",
          "type": "bytes32"
        },
        {
          "internalType": "address",
          "name": "account",
          "type": "address"
        }
      ],
      "name": "hasRole",
      "outputs": [
        {
          "internalType": "bool",
          "name": "",
          "type": "bool"
        }
      ],
      "stateMutability": "view",
      "type": "function"
    },
    {
      "inputs": [
        {
          "internalType": "address",
          "name": "_admin",
          "type": "address"
        },
        {
          "internalType": "string",
          "name": "_name",
          "type": "string"
        },
        {
          "internalType": "string",
          "name": "_logoUrl",
          "type": "string"
        },
        {
          "internalType": "string",
          "name": "_infoUrl",
          "type": "string"
        },
        {
          "internalType": "string",
          "name": "_description",
          "type": "string"
        },
        {
          "internalType": "string[]",
          "name": "_webLinks",
          "type": "string[]"
        },
        {
          "internalType": "contract HederaGnosisSafe",
          "name": "_hederaGnosisSafe",
          "type": "address"
        },
        {
          "internalType": "contract IHederaService",
          "name": "_hederaService",
          "type": "address"
        },
        {
          "internalType": "contract HederaMultiSend",
          "name": "_multiSend",
          "type": "address"
        },
        {
          "internalType": "contract ISystemRoleBasedAccess",
          "name": "_iSystemRoleBasedAccess",
          "type": "address"
        }
      ],
      "name": "initialize",
      "outputs": [],
      "stateMutability": "nonpayable",
      "type": "function"
    },
    {
      "inputs": [
        {
          "internalType": "address[]",
          "name": "_targets",
          "type": "address[]"
        },
        {
          "internalType": "uint256[]",
          "name": "_values",
          "type": "uint256[]"
        },
        {
          "internalType": "bytes[]",
          "name": "_calldatas",
          "type": "bytes[]"
        },
        {
          "internalType": "string",
          "name": "title",
          "type": "string"
        },
        {
          "internalType": "string",
          "name": "desc",
          "type": "string"
        },
        {
          "internalType": "string",
          "name": "linkToDiscussion",
          "type": "string"
        }
      ],
      "name": "proposeBatchTransaction",
      "outputs": [
        {
          "internalType": "bytes32",
          "name": "",
          "type": "bytes32"
        }
      ],
      "stateMutability": "nonpayable",
      "type": "function"
    },
    {
      "inputs": [
        {
          "internalType": "address",
          "name": "_token",
          "type": "address"
        },
        {
          "internalType": "string",
          "name": "_title",
          "type": "string"
        },
        {
          "internalType": "string",
          "name": "_desc",
          "type": "string"
        },
        {
          "internalType": "string",
          "name": "_linkToDiscussion",
          "type": "string"
        }
      ],
      "name": "proposeTokenAssociateTransaction",
      "outputs": [
        {
          "internalType": "bytes32",
          "name": "",
          "type": "bytes32"
        }
      ],
      "stateMutability": "nonpayable",
      "type": "function"
    },
    {
      "inputs": [
        {
          "internalType": "address",
          "name": "_to",
          "type": "address"
        },
        {
          "internalType": "bytes",
          "name": "_data",
          "type": "bytes"
        },
        {
          "internalType": "uint256",
          "name": "_type",
          "type": "uint256"
        },
        {
          "internalType": "string",
          "name": "title",
          "type": "string"
        },
        {
          "internalType": "string",
          "name": "desc",
          "type": "string"
        },
        {
          "internalType": "string",
          "name": "linkToDiscussion",
          "type": "string"
        },
        {
          "internalType": "string",
          "name": "metaData",
          "type": "string"
        }
      ],
      "name": "proposeTransaction",
      "outputs": [
        {
          "internalType": "bytes32",
          "name": "",
          "type": "bytes32"
        }
      ],
      "stateMutability": "nonpayable",
      "type": "function"
    },
    {
      "inputs": [
        {
          "internalType": "address",
          "name": "_to",
          "type": "address"
        },
        {
          "internalType": "address",
          "name": "_token",
          "type": "address"
        },
        {
          "internalType": "uint256",
          "name": "_amount",
          "type": "uint256"
        },
        {
          "internalType": "string",
          "name": "_title",
          "type": "string"
        },
        {
          "internalType": "string",
          "name": "_desc",
          "type": "string"
        },
        {
          "internalType": "string",
          "name": "_linkToDiscussion",
          "type": "string"
        }
      ],
      "name": "proposeTransferTransaction",
      "outputs": [
        {
          "internalType": "bytes32",
          "name": "",
          "type": "bytes32"
        }
      ],
      "stateMutability": "nonpayable",
      "type": "function"
    },
    {
      "inputs": [
        {
          "internalType": "address",
          "name": "_proxy",
          "type": "address"
        },
        {
          "internalType": "address",
          "name": "_proxyLogic",
          "type": "address"
        },
        {
          "internalType": "string",
          "name": "_title",
          "type": "string"
        },
        {
          "internalType": "string",
          "name": "_desc",
          "type": "string"
        },
        {
          "internalType": "string",
          "name": "_linkToDiscussion",
          "type": "string"
        }
      ],
      "name": "proposeUpgradeProxyTransaction",
      "outputs": [
        {
          "internalType": "bytes32",
          "name": "",
          "type": "bytes32"
        }
      ],
      "stateMutability": "nonpayable",
      "type": "function"
    },
    {
      "inputs": [
        {
          "internalType": "bytes32",
          "name": "role",
          "type": "bytes32"
        },
        {
          "internalType": "address",
          "name": "account",
          "type": "address"
        }
      ],
      "name": "renounceRole",
      "outputs": [],
      "stateMutability": "nonpayable",
      "type": "function"
    },
    {
      "inputs": [
        {
          "internalType": "bytes32",
          "name": "role",
          "type": "bytes32"
        },
        {
          "internalType": "address",
          "name": "account",
          "type": "address"
        }
      ],
      "name": "revokeRole",
      "outputs": [],
      "stateMutability": "nonpayable",
      "type": "function"
    },
    {
      "inputs": [
        {
          "internalType": "address",
          "name": "creator",
          "type": "address"
        },
        {
          "internalType": "string",
          "name": "text",
          "type": "string"
        }
      ],
      "name": "setText",
      "outputs": [
        {
          "internalType": "address",
          "name": "",
          "type": "address"
        },
        {
          "internalType": "string",
          "name": "",
          "type": "string"
        }
      ],
      "stateMutability": "view",
      "type": "function"
    },
    {
      "inputs": [
        {
          "internalType": "bytes32",
          "name": "_txnHash",
          "type": "bytes32"
        }
      ],
      "name": "state",
      "outputs": [
        {
          "internalType": "enum MultiSigDAO.TransactionState",
          "name": "",
          "type": "uint8"
        }
      ],
      "stateMutability": "view",
      "type": "function"
    },
    {
      "inputs": [
        {
          "internalType": "bytes4",
          "name": "interfaceId",
          "type": "bytes4"
        }
      ],
      "name": "supportsInterface",
      "outputs": [
        {
          "internalType": "bool",
          "name": "",
          "type": "bool"
        }
      ],
      "stateMutability": "view",
      "type": "function"
    },
    {
      "inputs": [
        {
          "internalType": "string",
          "name": "_name",
          "type": "string"
        },
        {
          "internalType": "string",
          "name": "_logoUrl",
          "type": "string"
        },
        {
          "internalType": "string",
          "name": "_infoUrl",
          "type": "string"
        },
        {
          "internalType": "string",
          "name": "_description",
          "type": "string"
        },
        {
          "internalType": "string[]",
          "name": "_webLinks",
          "type": "string[]"
        }
      ],
      "name": "updateDaoInfo",
      "outputs": [],
      "stateMutability": "nonpayable",
      "type": "function"
    },
    {
      "inputs": [
        {
          "internalType": "contract HederaGnosisSafe",
          "name": "_hederaGnosisSafe",
          "type": "address"
        }
      ],
      "name": "upgradeHederaGnosisSafe",
      "outputs": [],
      "stateMutability": "nonpayable",
      "type": "function"
    },
    {
      "inputs": [
        {
          "internalType": "contract IHederaService",
          "name": "newHederaService",
          "type": "address"
        }
      ],
      "name": "upgradeHederaService",
      "outputs": [],
      "stateMutability": "nonpayable",
      "type": "function"
    },
    {
      "inputs": [
        {
          "internalType": "contract HederaMultiSend",
          "name": "_multiSend",
          "type": "address"
        }
      ],
      "name": "upgradeMultiSend",
      "outputs": [],
      "stateMutability": "nonpayable",
      "type": "function"
    }
  ],
  "bytecode": "0x60806040523480156200001157600080fd5b506200001c62000022565b620000e3565b600054610100900460ff16156200008f5760405162461bcd60e51b815260206004820152602760248201527f496e697469616c697a61626c653a20636f6e747261637420697320696e697469604482015266616c697a696e6760c81b606482015260840160405180910390fd5b60005460ff90811614620000e1576000805460ff191660ff9081179091556040519081527f7f26b83ff96e1f2b6a682f133852f6798a09c465da95921460cefb38474024989060200160405180910390a15b565b6137ef80620000f36000396000f3fe608060405234801561001057600080fd5b50600436106101495760003560e01c806301ffc9a71461014e5780630f206bca14610176578063179244031461018b578063193f6b34146101a5578063248a9ca3146101c65780632a486caf146101d95780632f2ff15d146101ec57806333a73c31146101ff57806336568abe14610212578063402482e414610225578063468c8a611461023857806349e6b62c1461024d5780635db6515c1461026d57806361d585da146102805780636dab6f75146102a05780637f432493146102b157806380896acc146102c457806391d14854146102d55780639645699e146102e85780639a200247146102fb5780639b316eda1461030e578063a217fddf14610321578063d26d681f14610329578063d547741f1461033c578063d926e34c1461034f578063dd49317114610370578063fa382f8714610383575b600080fd5b61016161015c3660046124e9565b610398565b60405190151581526020015b60405180910390f35b610189610184366004612538565b6103cf565b005b60fc546001600160a01b03165b60405161016d9190612562565b6101b86101b3366004612576565b6104ae565b60405190815260200161016d565b6101b86101d4366004612576565b61051c565b6101896101e73660046126f6565b610531565b6101896101fa3660046127d6565b610640565b6101b861020d366004612806565b610661565b6101896102203660046127d6565b6106e3565b6101b861023336600461295f565b610761565b6101b860008051602061379a83398151915281565b61026061025b366004612576565b610922565b60405161016d9190612ac0565b61018961027b366004612bae565b610cc0565b61029361028e366004612576565b610ce5565b60405161016d9190612c7f565b60fd546001600160a01b0316610198565b6101896102bf366004612c99565b611182565b60fe546001600160a01b0316610198565b6101616102e33660046127d6565b6113fd565b6101b86102f6366004612dbf565b611428565b6101b8610309366004612e5f565b6115f2565b61018961031c366004612538565b611682565b6101b8600081565b610189610337366004612538565b611760565b61018961034a3660046127d6565b61183c565b61036261035d366004612eb6565b611858565b60405161016d929190612f05565b6101b861037e366004612f31565b6118ce565b61038b611b27565b60405161016d919061301c565b60006001600160e01b03198216637965db0b60e01b14806103c957506301ffc9a760e01b6001600160e01b03198316145b92915050565b60ff54604051637ae09f4d60e01b81526001600160a01b0390911690637ae09f4d906103ff903390600401612562565b60006040518083038186803b15801561041757600080fd5b505afa15801561042b573d6000803e3d6000fd5b505060fe54604080518082018252601081526f486564657261476e6f7369735361666560801b602082015290516001600160a01b038681169550909216925060008051602061377a833981519152916104849190613106565b60405180910390a360fe80546001600160a01b0319166001600160a01b0392909216919091179055565b60fe5460405163064fdacd60e21b8152600481018390526000916001600160a01b03169063193f6b3490602401602060405180830381865afa1580156104f8573d6000803e3d6000fd5b505050506040513d601f19601f820116820180604052508101906103c99190613119565b60009081526065602052604090206001015490565b600054610100900460ff166105a15760405162461bcd60e51b815260206004820152602b60248201527f496e697469616c697a61626c653a20636f6e7472616374206973206e6f74206960448201526a6e697469616c697a696e6760a81b60648201526084015b60405180910390fd5b6001600160a01b0386166105f85760405163d647364f60e01b815260206004820152601e60248201527f4261736544414f3a2061646d696e2061646472657373206973207a65726f00006044820152606401610598565b60ca80546001600160a01b0319166001600160a01b03881617905561062b60008051602061379a83398151915287611eb3565b6106388585858585611f39565b505050505050565b6106498261051c565b6106528161212e565b61065c8383611eb3565b505050565b60fd54604080516001600160a01b0392831660248201528683166044808301919091528251808303909101815260649091018252602080820180516001600160e01b031663248a35ef60e11b17905260fe54835191820190935260008082529391926106d992169083906002908990899089906118ce565b9695505050505050565b6001600160a01b03811633146107535760405162461bcd60e51b815260206004820152602f60248201527f416363657373436f6e74726f6c3a2063616e206f6e6c792072656e6f756e636560448201526e103937b632b9903337b91039b2b63360891b6064820152608401610598565b61075d828261213b565b5050565b6000808751118015610774575085518751145b8015610781575084518751145b6107dd5760405162461bcd60e51b815260206004820152602760248201527f4d756c746953696744414f3a20696e76616c6964207472616e73616374696f6e604482015266040d8cadccee8d60cb1b6064820152608401610598565b606060005b8851811015610890578160008a838151811061080057610800613132565b60200260200101518a848151811061081a5761081a613132565b60200260200101518a858151811061083457610834613132565b6020026020010151518b868151811061084f5761084f613132565b602002602001015160405160200161086c96959493929190613148565b60405160208183030381529060405291508080610888906131ca565b9150506107e2565b506000638d80ff0a60e01b826040516024016108ac9190613106565b604051602081830303815290604052906001600160e01b0319166020820180516001600160e01b038381831617835250505050905061091560fc60009054906101000a90046001600160a01b0316826001898989604051806020016040528060008152506118ce565b9998505050505050505050565b61092a6123af565b60008281526101006020908152604080832081516101608101835281546001600160a01b031681526001820154938101939093526002810180549192840191610972906131e3565b80601f016020809104026020016040519081016040528092919081815260200182805461099e906131e3565b80156109eb5780601f106109c0576101008083540402835291602001916109eb565b820191906000526020600020905b8154815290600101906020018083116109ce57829003601f168201915b5050509183525050600382015460209091019060ff166001811115610a1257610a12612a96565b6001811115610a2357610a23612a96565b81526020016004820154815260200160058201548152602001600682018054610a4b906131e3565b80601f0160208091040260200160405190810160405280929190818152602001828054610a77906131e3565b8015610ac45780601f10610a9957610100808354040283529160200191610ac4565b820191906000526020600020905b815481529060010190602001808311610aa757829003601f168201915b50505050508152602001600782018054610add906131e3565b80601f0160208091040260200160405190810160405280929190818152602001828054610b09906131e3565b8015610b565780601f10610b2b57610100808354040283529160200191610b56565b820191906000526020600020905b815481529060010190602001808311610b3957829003601f168201915b50505050508152602001600882018054610b6f906131e3565b80601f0160208091040260200160405190810160405280929190818152602001828054610b9b906131e3565b8015610be85780601f10610bbd57610100808354040283529160200191610be8565b820191906000526020600020905b815481529060010190602001808311610bcb57829003601f168201915b505050918352505060098201546001600160a01b03166020820152600a82018054604090920191610c18906131e3565b80601f0160208091040260200160405190810160405280929190818152602001828054610c44906131e3565b8015610c915780601f10610c6657610100808354040283529160200191610c91565b820191906000526020600020905b815481529060010190602001808311610c7457829003601f168201915b505050505081525050905080608001516000036103c95760405162461bcd60e51b815260040161059890613217565b60008051602061379a833981519152610cd88161212e565b6106388686868686611f39565b60008181526101006020908152604080832081516101608101835281546001600160a01b0316815260018201549381019390935260028101805485949384019190610d2f906131e3565b80601f0160208091040260200160405190810160405280929190818152602001828054610d5b906131e3565b8015610da85780601f10610d7d57610100808354040283529160200191610da8565b820191906000526020600020905b815481529060010190602001808311610d8b57829003601f168201915b5050509183525050600382015460209091019060ff166001811115610dcf57610dcf612a96565b6001811115610de057610de0612a96565b81526020016004820154815260200160058201548152602001600682018054610e08906131e3565b80601f0160208091040260200160405190810160405280929190818152602001828054610e34906131e3565b8015610e815780601f10610e5657610100808354040283529160200191610e81565b820191906000526020600020905b815481529060010190602001808311610e6457829003601f168201915b50505050508152602001600782018054610e9a906131e3565b80601f0160208091040260200160405190810160405280929190818152602001828054610ec6906131e3565b8015610f135780601f10610ee857610100808354040283529160200191610f13565b820191906000526020600020905b815481529060010190602001808311610ef657829003601f168201915b50505050508152602001600882018054610f2c906131e3565b80601f0160208091040260200160405190810160405280929190818152602001828054610f58906131e3565b8015610fa55780601f10610f7a57610100808354040283529160200191610fa5565b820191906000526020600020905b815481529060010190602001808311610f8857829003601f168201915b505050918352505060098201546001600160a01b03166020820152600a82018054604090920191610fd5906131e3565b80601f0160208091040260200160405190810160405280929190818152602001828054611001906131e3565b801561104e5780601f106110235761010080835404028352916020019161104e565b820191906000526020600020905b81548152906001019060200180831161103157829003601f168201915b5050505050815250509050806080015160000361107d5760405162461bcd60e51b815260040161059890613217565b60fe546040516301244d4760e11b8152600481018590526001600160a01b03909116906302489a8e90602401602060405180830381865afa1580156110c6573d6000803e3d6000fd5b505050506040513d601f19601f820116820180604052508101906110ea919061324a565b156110f85750600292915050565b60fe5460405163a7f173ab60e01b8152600481018590526001600160a01b039091169063a7f173ab90602401602060405180830381865afa158015611141573d6000803e3d6000fd5b505050506040513d601f19601f82011682018060405250810190611165919061324a565b156111735750600192915050565b50600092915050565b50919050565b600054610100900460ff16158080156111a25750600054600160ff909116105b806111bc5750303b1580156111bc575060005460ff166001145b61121f5760405162461bcd60e51b815260206004820152602e60248201527f496e697469616c697a61626c653a20636f6e747261637420697320616c72656160448201526d191e481a5b9a5d1a585b1a5e995960921b6064820152608401610598565b6000805460ff191660011790558015611242576000805461ff0019166101001790555b60fd80546001600160a01b038087166001600160a01b03199283161790925560fe805488841690831617905560fc805486841690831617905560ff80549285169290911691909117905561129a8b8b8b8b8b8b610531565b60fd54604080518082018252600d81526c4865646572615365727669636560981b602082015290516001600160a01b039092169160009160008051602061377a833981519152916112eb9190613106565b60405180910390a360fc54604080518082018252600f81526e121959195c98535d5b1d1a54d95b99608a1b602082015290516001600160a01b039092169160009160008051602061377a833981519152916113469190613106565b60405180910390a360fe54604080518082018252601081526f486564657261476e6f7369735361666560801b602082015290516001600160a01b039092169160009160008051602061377a833981519152916113a29190613106565b60405180910390a380156113f0576000805461ff0019169055604051600181527f7f26b83ff96e1f2b6a682f133852f6798a09c465da95921460cefb38474024989060200160405180910390a15b5050505050505050505050565b60009182526065602090815260408084206001600160a01b0393909316845291905290205460ff1690565b60006001600160a01b0386166114805760405162461bcd60e51b815260206004820181905260248201527f4d756c746953696744414f3a2070726f78792063616e2774206265207a65726f6044820152606401610598565b6001600160a01b0385166114d65760405162461bcd60e51b815260206004820181905260248201527f4d756c746953696744414f3a206c6f6769632063616e2774206265207a65726f6044820152606401610598565b60ff5460408051632e83149160e11b81529051600092633d0d3f0f60e21b928a928a926001600160a01b031691635d0629229160048083019260a09291908290030181865afa15801561152d573d6000803e3d6000fd5b505050506040513d601f19601f82011682018060405250810190611551919061326c565b602001516040516001600160a01b0393841660248201529183166044830152919091166064820152608401604051602081830303815290604052906001600160e01b0319166020820180516001600160e01b03838183161783525050505090506115e560fe60009054906101000a90046001600160a01b0316826003888888604051806020016040528060008152506118ce565b9150505b95945050505050565b60fd54604080516001600160a01b0392831660248201528783166044820152888316606482015260848082018890528251808303909101815260a49091018252602080820180516001600160e01b031663031b4f8b60e21b17905260fe548351918201909352600080825293919261167692169083906004908990899089906118ce565b98975050505050505050565b60ff54604051637ae09f4d60e01b81526001600160a01b0390911690637ae09f4d906116b2903390600401612562565b60006040518083038186803b1580156116ca57600080fd5b505afa1580156116de573d6000803e3d6000fd5b505060fc54604080518082018252600f81526e121959195c98535d5b1d1a54d95b99608a1b602082015290516001600160a01b038681169550909216925060008051602061377a833981519152916117369190613106565b60405180910390a360fc80546001600160a01b0319166001600160a01b0392909216919091179055565b60ff54604051637ae09f4d60e01b81526001600160a01b0390911690637ae09f4d90611790903390600401612562565b60006040518083038186803b1580156117a857600080fd5b505afa1580156117bc573d6000803e3d6000fd5b505060fd54604080518082018252600d81526c4865646572615365727669636560981b602082015290516001600160a01b038681169550909216925060008051602061377a833981519152916118129190613106565b60405180910390a360fd80546001600160a01b0319166001600160a01b0392909216919091179055565b6118458261051c565b61184e8161212e565b61065c838361213b565b60fe546000906060906001600160a01b031633146118c65760405162461bcd60e51b815260206004820152602560248201527f4f6e6c7920486564657261476e6f736973536166652063616e20657865637574604482015264329034ba1760d91b6064820152608401610598565b509192909150565b6000845160000361192b5760405162461bcd60e51b815260206004820152602160248201527f4d756c746953696744414f3a207469746c652063616e277420626520626c616e6044820152606b60f81b6064820152608401610598565b835160000361197c5760405162461bcd60e51b815260206004820181905260248201527f4d756c746953696744414f3a20646573632063616e277420626520626c616e6b6044820152606401610598565b60fe54604051633c75d0af60e11b8152600091829182916001600160a01b0316906378eba15e906119b7908e9085908f908290600401613303565b60408051808303816000875af11580156119d5573d6000803e3d6000fd5b505050506040513d601f19601f820116820180604052508101906119f99190613339565b915091506000610100600084815260200190815260200160002090508b8160000160006101000a8154816001600160a01b0302191690836001600160a01b03160217905550600081600101819055508a816002019081611a5991906133a3565b5060038101805485919060ff191660018381811115611a7a57611a7a612a96565b021790555060048101829055600581018a905560068101611a9b8a826133a3565b5060078101611aaa89826133a3565b5060088101611ab988826133a3565b50600a8101611ac887826133a3565b506009810180546001600160a01b031916331790556040517f40fbf00a03221a6a6cf9fc8af1167728e15ea750d0327d53baf1c29aeaa3206190611b0f90859084906134eb565b60405180910390a150909a9950505050505050505050565b611b696040518060c001604052806060815260200160006001600160a01b03168152602001606081526020016060815260200160608152602001606081525090565b60c96040518060c0016040529081600082018054611b86906131e3565b80601f0160208091040260200160405190810160405280929190818152602001828054611bb2906131e3565b8015611bff5780601f10611bd457610100808354040283529160200191611bff565b820191906000526020600020905b815481529060010190602001808311611be257829003601f168201915b505050918352505060018201546001600160a01b03166020820152600282018054604090920191611c2f906131e3565b80601f0160208091040260200160405190810160405280929190818152602001828054611c5b906131e3565b8015611ca85780601f10611c7d57610100808354040283529160200191611ca8565b820191906000526020600020905b815481529060010190602001808311611c8b57829003601f168201915b50505050508152602001600382018054611cc1906131e3565b80601f0160208091040260200160405190810160405280929190818152602001828054611ced906131e3565b8015611d3a5780601f10611d0f57610100808354040283529160200191611d3a565b820191906000526020600020905b815481529060010190602001808311611d1d57829003601f168201915b50505050508152602001600482018054611d53906131e3565b80601f0160208091040260200160405190810160405280929190818152602001828054611d7f906131e3565b8015611dcc5780601f10611da157610100808354040283529160200191611dcc565b820191906000526020600020905b815481529060010190602001808311611daf57829003601f168201915b5050505050815260200160058201805480602002602001604051908101604052809291908181526020016000905b82821015611ea6578382906000526020600020018054611e19906131e3565b80601f0160208091040260200160405190810160405280929190818152602001828054611e45906131e3565b8015611e925780601f10611e6757610100808354040283529160200191611e92565b820191906000526020600020905b815481529060010190602001808311611e7557829003601f168201915b505050505081526020019060010190611dfa565b5050505081525050905090565b611ebd82826113fd565b61075d5760008281526065602090815260408083206001600160a01b03851684529091529020805460ff19166001179055611ef53390565b6001600160a01b0316816001600160a01b0316837f2f8788117e7eff1d82e926ec794901d17c78024a50270940304540a733656f0d60405160405180910390a45050565b8451600003611f845760405163d647364f60e01b81526020600482015260166024820152754261736544414f3a206e616d6520697320656d70747960501b6044820152606401610598565b60c9611f9086826133a3565b508151600003611fe35760405163d647364f60e01b815260206004820152601d60248201527f4261736544414f3a206465736372697074696f6e20697320656d7074790000006044820152606401610598565b60cd611fef83826133a3565b50825160000361203f5760405163d647364f60e01b815260206004820152601a6024820152794261736544414f3a20696e666f2075726c20697320656d70747960301b6044820152606401610598565b60cc61204b84826133a3565b5060005b81518110156120cd5781818151811061206a5761206a613132565b6020026020010151516000036120bb5760405163d647364f60e01b81526020600482015260156024820152744261736544414f3a20696e76616c6964206c696e6b60581b6044820152606401610598565b806120c5816131ca565b91505061204f565b5080516120e19060ce90602084019061242c565b5060cb6120ee85826133a3565b507fcc9d0d1e1a5fc974a889257e10cdee98a6c0d30c66047a145bceec19d4bc667460c960405161211f9190613636565b60405180910390a15050505050565b61213881336121a2565b50565b61214582826113fd565b1561075d5760008281526065602090815260408083206001600160a01b0385168085529252808320805460ff1916905551339285917ff6391f5c32d9c69d2a47ea670b442974b53935d1edc7fd64eb21e047a839171b9190a45050565b6121ac82826113fd565b61075d576121b9816121fb565b6121c483602061220d565b6040516020016121d59291906136c9565b60408051601f198184030181529082905262461bcd60e51b825261059891600401613106565b60606103c96001600160a01b03831660145b6060600061221c836002613738565b61222790600261374f565b6001600160401b0381111561223e5761223e61258f565b6040519080825280601f01601f191660200182016040528015612268576020820181803683370190505b509050600360fc1b8160008151811061228357612283613132565b60200101906001600160f81b031916908160001a905350600f60fb1b816001815181106122b2576122b2613132565b60200101906001600160f81b031916908160001a90535060006122d6846002613738565b6122e190600161374f565b90505b6001811115612359576f181899199a1a9b1b9c1cb0b131b232b360811b85600f166010811061231557612315613132565b1a60f81b82828151811061232b5761232b613132565b60200101906001600160f81b031916908160001a90535060049490941c9361235281613762565b90506122e4565b5083156123a85760405162461bcd60e51b815260206004820181905260248201527f537472696e67733a20686578206c656e67746820696e73756666696369656e746044820152606401610598565b9392505050565b60405180610160016040528060006001600160a01b031681526020016000815260200160608152602001600060018111156123ec576123ec612a96565b8152602001600081526020016000815260200160608152602001606081526020016060815260200160006001600160a01b03168152602001606081525090565b828054828255906000526020600020908101928215612472579160200282015b82811115612472578251829061246290826133a3565b509160200191906001019061244c565b5061247e929150612482565b5090565b8082111561247e576000612496828261249f565b50600101612482565b5080546124ab906131e3565b6000825580601f106124bb575050565b601f01602090049060005260206000209081019061213891905b8082111561247e57600081556001016124d5565b6000602082840312156124fb57600080fd5b81356001600160e01b0319811681146123a857600080fd5b6001600160a01b038116811461213857600080fd5b803561253381612513565b919050565b60006020828403121561254a57600080fd5b81356123a881612513565b6001600160a01b03169052565b6001600160a01b0391909116815260200190565b60006020828403121561258857600080fd5b5035919050565b634e487b7160e01b600052604160045260246000fd5b604051601f8201601f191681016001600160401b03811182821017156125cd576125cd61258f565b604052919050565b600082601f8301126125e657600080fd5b81356001600160401b038111156125ff576125ff61258f565b612612601f8201601f19166020016125a5565b81815284602083860101111561262757600080fd5b816020850160208301376000918101602001919091529392505050565b60006001600160401b0382111561265d5761265d61258f565b5060051b60200190565b600082601f83011261267857600080fd5b8135602061268d61268883612644565b6125a5565b82815260059290921b840181019181810190868411156126ac57600080fd5b8286015b848110156126eb5780356001600160401b038111156126cf5760008081fd5b6126dd8986838b01016125d5565b8452509183019183016126b0565b509695505050505050565b60008060008060008060c0878903121561270f57600080fd5b61271887612528565b955060208701356001600160401b038082111561273457600080fd5b6127408a838b016125d5565b9650604089013591508082111561275657600080fd5b6127628a838b016125d5565b9550606089013591508082111561277857600080fd5b6127848a838b016125d5565b9450608089013591508082111561279a57600080fd5b6127a68a838b016125d5565b935060a08901359150808211156127bc57600080fd5b506127c989828a01612667565b9150509295509295509295565b600080604083850312156127e957600080fd5b8235915060208301356127fb81612513565b809150509250929050565b6000806000806080858703121561281c57600080fd5b843561282781612513565b935060208501356001600160401b038082111561284357600080fd5b61284f888389016125d5565b9450604087013591508082111561286557600080fd5b612871888389016125d5565b9350606087013591508082111561288757600080fd5b50612894878288016125d5565b91505092959194509250565b600082601f8301126128b157600080fd5b813560206128c161268883612644565b82815260059290921b840181019181810190868411156128e057600080fd5b8286015b848110156126eb5780356128f781612513565b83529183019183016128e4565b600082601f83011261291557600080fd5b8135602061292561268883612644565b82815260059290921b8401810191818101908684111561294457600080fd5b8286015b848110156126eb5780358352918301918301612948565b60008060008060008060c0878903121561297857600080fd5b86356001600160401b038082111561298f57600080fd5b61299b8a838b016128a0565b975060208901359150808211156129b157600080fd5b6129bd8a838b01612904565b965060408901359150808211156129d357600080fd5b6129df8a838b01612667565b955060608901359150808211156129f557600080fd5b612a018a838b016125d5565b94506080890135915080821115612a1757600080fd5b612a238a838b016125d5565b935060a0890135915080821115612a3957600080fd5b506127c989828a016125d5565b60005b83811015612a61578181015183820152602001612a49565b50506000910152565b60008151808452612a82816020860160208601612a46565b601f01601f19169290920160200192915050565b634e487b7160e01b600052602160045260246000fd5b60028110612abc57612abc612a96565b9052565b60208152612ad2602082018351612555565b6020820151604082015260006040830151610160806060850152612afa610180850183612a6a565b91506060850151612b0e6080860182612aac565b50608085015160a085015260a085015160c085015260c0850151601f19808685030160e0870152612b3f8483612a6a565b935060e08701519150610100818786030181880152612b5e8584612a6a565b945080880151925050610120818786030181880152612b7d8584612a6a565b945080880151925050610140612b9581880184612555565b8701518685039091018387015290506106d98382612a6a565b600080600080600060a08688031215612bc657600080fd5b85356001600160401b0380821115612bdd57600080fd5b612be989838a016125d5565b96506020880135915080821115612bff57600080fd5b612c0b89838a016125d5565b95506040880135915080821115612c2157600080fd5b612c2d89838a016125d5565b94506060880135915080821115612c4357600080fd5b612c4f89838a016125d5565b93506080880135915080821115612c6557600080fd5b50612c7288828901612667565b9150509295509295909350565b6020810160038310612c9357612c93612a96565b91905290565b6000806000806000806000806000806101408b8d031215612cb957600080fd5b612cc28b612528565b995060208b01356001600160401b0380821115612cde57600080fd5b612cea8e838f016125d5565b9a5060408d0135915080821115612d0057600080fd5b612d0c8e838f016125d5565b995060608d0135915080821115612d2257600080fd5b612d2e8e838f016125d5565b985060808d0135915080821115612d4457600080fd5b612d508e838f016125d5565b975060a08d0135915080821115612d6657600080fd5b50612d738d828e01612667565b955050612d8260c08c01612528565b9350612d9060e08c01612528565b9250612d9f6101008c01612528565b9150612dae6101208c01612528565b90509295989b9194979a5092959850565b600080600080600060a08688031215612dd757600080fd5b8535612de281612513565b94506020860135612df281612513565b935060408601356001600160401b0380821115612e0e57600080fd5b612e1a89838a016125d5565b94506060880135915080821115612e3057600080fd5b612e3c89838a016125d5565b93506080880135915080821115612e5257600080fd5b50612c72888289016125d5565b60008060008060008060c08789031215612e7857600080fd5b8635612e8381612513565b95506020870135612e9381612513565b94506040870135935060608701356001600160401b03808211156129f557600080fd5b60008060408385031215612ec957600080fd5b8235612ed481612513565b915060208301356001600160401b03811115612eef57600080fd5b612efb858286016125d5565b9150509250929050565b6001600160a01b0383168152604060208201819052600090612f2990830184612a6a565b949350505050565b600080600080600080600060e0888a031215612f4c57600080fd5b612f5588612528565b965060208801356001600160401b0380821115612f7157600080fd5b612f7d8b838c016125d5565b975060408a0135965060608a0135915080821115612f9a57600080fd5b612fa68b838c016125d5565b955060808a0135915080821115612fbc57600080fd5b612fc88b838c016125d5565b945060a08a0135915080821115612fde57600080fd5b612fea8b838c016125d5565b935060c08a013591508082111561300057600080fd5b5061300d8a828b016125d5565b91505092959891949750929550565b60006020808352835160c08285015261303860e0850182612a6a565b905060018060a01b03828601511660408501526040850151601f19808684030160608701526130678383612a6a565b925060608701519150808684030160808701526130848383612a6a565b925060808701519150808684030160a08701526130a18383612a6a565b60a0880151878203830160c089015280518083529194508501925084840190600581901b8501860160005b828110156130f857848783030184526130e6828751612a6a565b958801959388019391506001016130cc565b509998505050505050505050565b6020815260006123a86020830184612a6a565b60006020828403121561312b57600080fd5b5051919050565b634e487b7160e01b600052603260045260246000fd5b6000875161315a818460208c01612a46565b60f888901b6001600160f81b031916908301908152606087901b6001600160601b0319166001820152601581018690526035810185905283516131a4816055840160208801612a46565b0160550198975050505050505050565b634e487b7160e01b600052601160045260246000fd5b6000600182016131dc576131dc6131b4565b5060010190565b600181811c908216806131f757607f821691505b60208210810361117c57634e487b7160e01b600052602260045260246000fd5b602080825260199082015278135d5b1d1a54da59d11053ce881b9bc81d1e1b88195e1a5cdd603a1b604082015260600190565b60006020828403121561325c57600080fd5b815180151581146123a857600080fd5b600060a0828403121561327e57600080fd5b60405160a081016001600160401b03811182821017156132a0576132a061258f565b60405282516132ae81612513565b815260208301516132be81612513565b602082015260408301516132d181612513565b604082015260608301516132e481612513565b606082015260808301516132f781612513565b60808201529392505050565b60018060a01b038516815283602082015260806040820152600061332a6080830185612a6a565b90506115e96060830184612aac565b6000806040838503121561334c57600080fd5b505080516020909101519092909150565b601f82111561065c57600081815260208120601f850160051c810160208610156133845750805b601f850160051c820191505b8181101561063857828155600101613390565b81516001600160401b038111156133bc576133bc61258f565b6133d0816133ca84546131e3565b8461335d565b602080601f83116001811461340557600084156133ed5750858301515b600019600386901b1c1916600185901b178555610638565b600085815260208120601f198616915b8281101561343457888601518255948401946001909101908401613415565b50858210156134525787850151600019600388901b60f8161c191681555b5050505050600190811b01905550565b6001600160a01b031690565b6000815461347b816131e3565b80855260206001838116801561349857600181146134b2576134e0565b60ff1985168884015283151560051b8801830195506134e0565b866000528260002060005b858110156134d85781548a82018601529083019084016134bd565b890184019650505b505050505092915050565b8281526040602082015261350b604082016135068454613462565b612555565b6001820154606082015260006101608060808401526135316101a084016002860161346e565b600385015460ff1661354660a0860182612aac565b50600485015460c0850152600585015460e0850152603f198085830301610100860152613576826006880161346e565b91508085830301610120860152613590826007880161346e565b915080858303016101408601526135aa826008880161346e565b91506135b96009870154613462565b6135c584870182612555565b50848203016101808501526106d981600a870161346e565b600081548084526020808501808196508360051b81019150856000528260002060005b85811015613629578284038952613617848361346e565b98850198935060019182019101613600565b5091979650505050505050565b6020815260c06020820152600061365060e083018461346e565b60018401546001600160a01b03166040840152601f198382038101606085015261367d826002870161346e565b915080848303016080850152613696826003870161346e565b9150808483030160a08501526136af826004870161346e565b9150808483030160c085015250612f2981600586016135dd565b76020b1b1b2b9b9a1b7b73a3937b61d1030b1b1b7bab73a1604d1b8152600083516136fb816017850160208801612a46565b7001034b99036b4b9b9b4b733903937b6329607d1b601791840191820152835161372c816028840160208801612a46565b01602801949350505050565b80820281158282048414176103c9576103c96131b4565b808201808211156103c9576103c96131b4565b600081613771576137716131b4565b50600019019056fecf9d4a2ff924c5f3553e3c8485e6bc24fde822593d2c3d78c8fabaada123f8f6f591dda2e9b53c180cef2a1f29bc285ccc0649b7a0efc8de2ec0cfe024d46b96a2646970667358221220449c4db92cbb3c23e54a7b5ad1716620bfebf0322ad2d841f5e6b037450062ad64736f6c63430008120033",
  "linkReferences": {},
  "deployedLinkReferences": {}
}