{
  "_format": "hh-sol-artifact-1",
  "contractName": "MultisigDAOFactory",
  "sourceName": "contracts/dao/MultisigDAOFactory.sol",
  "abi": [
    {
      "inputs": [],
      "stateMutability": "nonpayable",
      "type": "constructor"
    },
    {
      "inputs": [
        {
          "internalType": "string",
          "name": "message",
          "type": "string"
        }
      ],
      "name": "InvalidInput",
      "type": "error"
    },
    {
      "anonymous": false,
      "inputs": [
        {
          "components": [
            {
              "internalType": "address payable",
              "name": "daoTreasurer",
              "type": "address"
            },
            {
              "internalType": "address",
              "name": "tokenAddress",
              "type": "address"
            },
            {
              "internalType": "uint256",
              "name": "daoFee",
              "type": "uint256"
            }
          ],
          "indexed": false,
          "internalType": "struct DAOConfiguration.DAOConfigDetails",
          "name": "daoConfig",
          "type": "tuple"
        }
      ],
      "name": "DAOConfig",
      "type": "event"
    },
    {
      "anonymous": false,
      "inputs": [
        {
          "indexed": false,
          "internalType": "address",
          "name": "daoAddress",
          "type": "address"
        },
        {
          "indexed": false,
          "internalType": "address",
          "name": "safeAddress",
          "type": "address"
        },
        {
          "indexed": false,
          "internalType": "address",
          "name": "multiSendAddress",
          "type": "address"
        },
        {
          "components": [
            {
              "internalType": "address",
              "name": "admin",
              "type": "address"
            },
            {
              "internalType": "string",
              "name": "name",
              "type": "string"
            },
            {
              "internalType": "string",
              "name": "logoUrl",
              "type": "string"
            },
            {
              "internalType": "string",
              "name": "infoUrl",
              "type": "string"
            },
            {
              "internalType": "address[]",
              "name": "owners",
              "type": "address[]"
            },
            {
              "internalType": "uint256",
              "name": "threshold",
              "type": "uint256"
            },
            {
              "internalType": "bool",
              "name": "isPrivate",
              "type": "bool"
            },
            {
              "internalType": "string",
              "name": "description",
              "type": "string"
            },
            {
              "internalType": "string[]",
              "name": "webLinks",
              "type": "string[]"
            }
          ],
          "indexed": false,
          "internalType": "struct ISharedModel.MultiSigCreateDAOInputs",
          "name": "inputs",
          "type": "tuple"
        }
      ],
      "name": "DAOCreated",
      "type": "event"
    },
    {
      "anonymous": false,
      "inputs": [
        {
          "indexed": false,
          "internalType": "uint8",
          "name": "version",
          "type": "uint8"
        }
      ],
      "name": "Initialized",
      "type": "event"
    },
    {
      "anonymous": false,
      "inputs": [
        {
          "indexed": true,
          "internalType": "address",
          "name": "oldImplementation",
          "type": "address"
        },
        {
          "indexed": true,
          "internalType": "address",
          "name": "newImplementation",
          "type": "address"
        },
        {
          "indexed": false,
          "internalType": "string",
          "name": "name",
          "type": "string"
        }
      ],
      "name": "LogicUpdated",
      "type": "event"
    },
    {
      "inputs": [
        {
          "internalType": "address payable",
          "name": "daoTreasurer",
          "type": "address"
        },
        {
          "internalType": "address",
          "name": "tokenAddress",
          "type": "address"
        },
        {
          "internalType": "uint256",
          "name": "daoFee",
          "type": "uint256"
        }
      ],
      "name": "changeDAOConfig",
      "outputs": [],
      "stateMutability": "nonpayable",
      "type": "function"
    },
    {
      "inputs": [
        {
          "components": [
            {
              "internalType": "address",
              "name": "admin",
              "type": "address"
            },
            {
              "internalType": "string",
              "name": "name",
              "type": "string"
            },
            {
              "internalType": "string",
              "name": "logoUrl",
              "type": "string"
            },
            {
              "internalType": "string",
              "name": "infoUrl",
              "type": "string"
            },
            {
              "internalType": "address[]",
              "name": "owners",
              "type": "address[]"
            },
            {
              "internalType": "uint256",
              "name": "threshold",
              "type": "uint256"
            },
            {
              "internalType": "bool",
              "name": "isPrivate",
              "type": "bool"
            },
            {
              "internalType": "string",
              "name": "description",
              "type": "string"
            },
            {
              "internalType": "string[]",
              "name": "webLinks",
              "type": "string[]"
            }
          ],
          "internalType": "struct ISharedModel.MultiSigCreateDAOInputs",
          "name": "_createDAOInputs",
          "type": "tuple"
        }
      ],
      "name": "createDAO",
      "outputs": [
        {
          "internalType": "address",
          "name": "",
          "type": "address"
        }
      ],
      "stateMutability": "payable",
      "type": "function"
    },
    {
      "inputs": [],
      "name": "getDAOConfigDetails",
      "outputs": [
        {
          "components": [
            {
              "internalType": "address payable",
              "name": "daoTreasurer",
              "type": "address"
            },
            {
              "internalType": "address",
              "name": "tokenAddress",
              "type": "address"
            },
            {
              "internalType": "uint256",
              "name": "daoFee",
              "type": "uint256"
            }
          ],
          "internalType": "struct DAOConfiguration.DAOConfigDetails",
          "name": "",
          "type": "tuple"
        }
      ],
      "stateMutability": "view",
      "type": "function"
    },
    {
      "inputs": [],
      "name": "getDAOs",
      "outputs": [
        {
          "internalType": "address[]",
          "name": "",
          "type": "address[]"
        }
      ],
      "stateMutability": "view",
      "type": "function"
    },
    {
      "inputs": [],
      "name": "getHederaServiceVersion",
      "outputs": [
        {
          "internalType": "contract IHederaService",
          "name": "",
          "type": "address"
        }
      ],
      "stateMutability": "view",
      "type": "function"
    },
    {
      "inputs": [],
      "name": "getMultiSendContractAddress",
      "outputs": [
        {
          "internalType": "address",
          "name": "",
          "type": "address"
        }
      ],
      "stateMutability": "view",
      "type": "function"
    },
    {
      "inputs": [
        {
          "internalType": "contract ISystemRoleBasedAccess",
          "name": "_iSystemRoleBasedAccess",
          "type": "address"
        },
        {
          "internalType": "address",
          "name": "_daoLogic",
          "type": "address"
        },
        {
          "internalType": "address",
          "name": "_safeLogic",
          "type": "address"
        },
        {
          "internalType": "address",
          "name": "_safeFactory",
          "type": "address"
        },
        {
          "components": [
            {
              "internalType": "address payable",
              "name": "daoTreasurer",
              "type": "address"
            },
            {
              "internalType": "address",
              "name": "tokenAddress",
              "type": "address"
            },
            {
              "internalType": "uint256",
              "name": "daoFee",
              "type": "uint256"
            }
          ],
          "internalType": "struct DAOConfiguration.DAOConfigDetails",
          "name": "_daoConfigDetails",
          "type": "tuple"
        },
        {
          "internalType": "contract IHederaService",
          "name": "_hederaService",
          "type": "address"
        },
        {
          "internalType": "contract HederaMultiSend",
          "name": "_multiSend",
          "type": "address"
        }
      ],
      "name": "initialize",
      "outputs": [],
      "stateMutability": "nonpayable",
      "type": "function"
    },
    {
      "inputs": [
        {
          "internalType": "address",
          "name": "_newImpl",
          "type": "address"
        }
      ],
      "name": "upgradeDaoLogicAddress",
      "outputs": [],
      "stateMutability": "nonpayable",
      "type": "function"
    },
    {
      "inputs": [
        {
          "internalType": "contract IHederaService",
          "name": "newHederaService",
          "type": "address"
        }
      ],
      "name": "upgradeHederaService",
      "outputs": [],
      "stateMutability": "nonpayable",
      "type": "function"
    },
    {
      "inputs": [
        {
          "internalType": "contract HederaMultiSend",
          "name": "_multiSend",
          "type": "address"
        }
      ],
      "name": "upgradeMultiSend",
      "outputs": [],
      "stateMutability": "nonpayable",
      "type": "function"
    },
    {
      "inputs": [
        {
          "internalType": "address",
          "name": "_newImpl",
          "type": "address"
        }
      ],
      "name": "upgradeSafeFactoryAddress",
      "outputs": [],
      "stateMutability": "nonpayable",
      "type": "function"
    },
    {
      "inputs": [
        {
          "internalType": "address",
          "name": "_newImpl",
          "type": "address"
        }
      ],
      "name": "upgradeSafeLogicAddress",
      "outputs": [],
      "stateMutability": "nonpayable",
      "type": "function"
    }
  ],
  "bytecode": "0x608060405234801561001057600080fd5b5061001961001e565b6100dd565b600054610100900460ff161561008a5760405162461bcd60e51b815260206004820152602760248201527f496e697469616c697a61626c653a20636f6e747261637420697320696e697469604482015266616c697a696e6760c81b606482015260840160405180910390fd5b60005460ff908116146100db576000805460ff191660ff9081179091556040519081527f7f26b83ff96e1f2b6a682f133852f6798a09c465da95921460cefb38474024989060200160405180910390a15b565b612e5a80620000ed6000396000f3fe608060405260043610620000a45760003560e01c80631792440314620000a95780632e2956ce14620000dc5780633f7bcf0c1462000103578063415cc7dd14620001285780636dab6f75146200014f5780637bd0ca1f146200016f5780637c27c66c14620001945780639b316eda14620001b9578063d26d681f14620001de578063e113cae71462000203578063f3ad2d3e1462000278578063fda2d015146200028f575b600080fd5b348015620000b657600080fd5b506039546001600160a01b03165b604051620000d39190620014c6565b60405180910390f35b348015620000e957600080fd5b5062000101620000fb36600462001505565b620002b4565b005b3480156200011057600080fd5b5062000101620001223660046200154b565b620003fd565b3480156200013557600080fd5b5062000140620004db565b604051620000d39190620015b8565b3480156200015c57600080fd5b506038546001600160a01b0316620000c4565b3480156200017c57600080fd5b50620001016200018e3660046200154b565b6200053f565b348015620001a157600080fd5b5062000101620001b336600462001667565b6200061e565b348015620001c657600080fd5b5062000101620001d83660046200154b565b6200099d565b348015620001eb57600080fd5b5062000101620001fd3660046200154b565b62000a7c565b3480156200021057600080fd5b5060408051606080820183526000808352602080840182905292840152825180820184526001546001600160a01b03908116808352600254821683860190815260035493870193845286519182525190911693810193909352519282019290925201620000d3565b620000c46200028936600462001907565b62000b5f565b3480156200029c57600080fd5b5062000101620002ae3660046200154b565b62000c69565b6001546001600160a01b03163314620003225760405162461bcd60e51b815260206004820152602560248201527f44414f436f6e66696775726174696f6e3a2044414f207472656173757265722060448201526437b7363c9760d91b60648201526084015b60405180910390fd5b6000811180156200033b57506001600160a01b03831615155b6200039c5760405162461bcd60e51b815260206004820152602a60248201527f44414f436f6e66696775726174696f6e3a20496e76616c69642044414f20436f604482015269373334b3902230ba309760b11b606482015260840162000319565b6003819055600280546001600160a01b038085166001600160a01b031992831617909255600180549286169290911691909117815560405160008051602062002e0583398151915291620003f09162001a73565b60405180910390a1505050565b603a54604051637ae09f4d60e01b81526001600160a01b0390911690637ae09f4d906200042f903390600401620014c6565b60006040518083038186803b1580156200044857600080fd5b505afa1580156200045d573d6000803e3d6000fd5b5050603554604080518082018252600881526744616f4c6f67696360c01b602082015290516001600160a01b038681169550909216925060008051602062002de583398151915291620004b1919062001ae6565b60405180910390a3603580546001600160a01b0319166001600160a01b0392909216919091179055565b6060603b8054806020026020016040519081016040528092919081815260200182805480156200053557602002820191906000526020600020905b81546001600160a01b0316815260019091019060200180831162000516575b5050505050905090565b603a54604051637ae09f4d60e01b81526001600160a01b0390911690637ae09f4d9062000571903390600401620014c6565b60006040518083038186803b1580156200058a57600080fd5b505afa1580156200059f573d6000803e3d6000fd5b50506036546040805180820182526009815268536166654c6f67696360b81b602082015290516001600160a01b038681169550909216925060008051602062002de583398151915291620005f4919062001ae6565b60405180910390a3603680546001600160a01b0319166001600160a01b0392909216919091179055565b600054610100900460ff16158080156200063f5750600054600160ff909116105b806200065b5750303b1580156200065b575060005460ff166001145b620006c05760405162461bcd60e51b815260206004820152602e60248201527f496e697469616c697a61626c653a20636f6e747261637420697320616c72656160448201526d191e481a5b9a5d1a585b1a5e995960921b606482015260840162000319565b6000805460ff191660011790558015620006e4576000805461ff0019166101001790555b603a80546001600160a01b03199081166001600160a01b038b8116919091179092556035805482168a84169081179091556036805483168a851617905560378054831689851617905560388054831687851617905560398054831686851617905586516001805484169185169190911790556020808801516002805490941694169390931790915560408087015160035580518082018252600881526744616f4c6f67696360c01b9381019390935251909160009160008051602062002de583398151915291620007b59162001ae6565b60405180910390a36036546040805180820182526009815268536166654c6f67696360b81b602082015290516001600160a01b039092169160009160008051602062002de5833981519152916200080d919062001ae6565b60405180910390a3603754604080518082018252600b81526a53616665466163746f727960a81b602082015290516001600160a01b039092169160009160008051602062002de58339815191529162000867919062001ae6565b60405180910390a3603854604080518082018252600d81526c4865646572615365727669636560981b602082015290516001600160a01b039092169160009160008051602062002de583398151915291620008c3919062001ae6565b60405180910390a36039546040805180820182526009815268135d5b1d1a54d95b9960ba1b602082015290516001600160a01b039092169160009160008051602062002de5833981519152916200091b919062001ae6565b60405180910390a360008051602062002e05833981519152600160405162000944919062001a73565b60405180910390a1801562000993576000805461ff0019169055604051600181527f7f26b83ff96e1f2b6a682f133852f6798a09c465da95921460cefb38474024989060200160405180910390a15b5050505050505050565b603a54604051637ae09f4d60e01b81526001600160a01b0390911690637ae09f4d90620009cf903390600401620014c6565b60006040518083038186803b158015620009e857600080fd5b505afa158015620009fd573d6000803e3d6000fd5b50506039546040805180820182526009815268135d5b1d1a54d95b9960ba1b602082015290516001600160a01b038681169550909216925060008051602062002de58339815191529162000a52919062001ae6565b60405180910390a3603980546001600160a01b0319166001600160a01b0392909216919091179055565b603a54604051637ae09f4d60e01b81526001600160a01b0390911690637ae09f4d9062000aae903390600401620014c6565b60006040518083038186803b15801562000ac757600080fd5b505afa15801562000adc573d6000803e3d6000fd5b5050603854604080518082018252600d81526c4865646572615365727669636560981b602082015290516001600160a01b038681169550909216925060008051602062002de58339815191529162000b35919062001ae6565b60405180910390a3603880546001600160a01b0319166001600160a01b0392909216919091179055565b60385460009062000b79906001600160a01b031662000d4a565b600062000b8f83608001518460a0015162000ecc565b9050600062000bbd84600001518560200151866040015187606001518860e001518961010001518862000fe1565b90508360c0015162000c1557603b80546001810182556000919091527fbbe3212124853f8b0084a66a2d057c2966e251e132af3691db153ab65f0d1a4d0180546001600160a01b0319166001600160a01b0383161790555b6039546040517f4b58a2fa62b1241fa22dccf4a0046838aed47bfa53b79d317695ad0cf30bbf749162000c5a91849186916001600160a01b0390911690899062001b54565b60405180910390a19392505050565b603a54604051637ae09f4d60e01b81526001600160a01b0390911690637ae09f4d9062000c9b903390600401620014c6565b60006040518083038186803b15801562000cb457600080fd5b505afa15801562000cc9573d6000803e3d6000fd5b5050603754604080518082018252600b81526a53616665466163746f727960a81b602082015290516001600160a01b038681169550909216925060008051602062002de58339815191529162000d20919062001ae6565b60405180910390a3603780546001600160a01b0319166001600160a01b0392909216919091179055565b6002546001600160a01b031615801562000e2d576001546003546040516000926001600160a01b031691908381818185875af1925050503d806000811462000daf576040519150601f19603f3d011682016040523d82523d6000602084013e62000db4565b606091505b505090508062000e285760405162461bcd60e51b815260206004820152603860248201527f44414f436f6e66696775726174696f6e3a205472616e736665722048424152206044820152772a37902220a7902a3932b0b9bab932b9102330b4b632b21760411b606482015260840162000319565b505050565b60025460015460035460009262000e569286926001600160a01b03928316923392169062001190565b90506016811462000e285760405162461bcd60e51b815260206004820152603960248201527f44414f436f6e66696775726174696f6e3a205472616e7366657220546f6b656e604482015278102a37902220a7902a3932b0b9bab932b9102330b4b632b21760391b606482015260840162000319565b60375460365460408051602081018252600080825291516361b69abd60e01b81529193849360609385936001600160a01b03938416936361b69abd9362000f1a939116919060040162001c71565b6020604051808303816000875af115801562000f3a573d6000803e3d6000fd5b505050506040513d601f19601f8201168201806040525081019062000f60919062001c9f565b60405163b63e800d60e01b815290915081906001600160a01b0382169063b63e800d9062000fa2908a908a908990899082908190600090829060040162001cbf565b600060405180830381600087803b15801562000fbd57600080fd5b505af115801562000fd2573d6000803e3d6000fd5b50929998505050505050505050565b600080603a60009054906101000a90046001600160a01b03166001600160a01b0316635d0629226040518163ffffffff1660e01b8152600401608060405180830381865afa15801562001038573d6000803e3d6000fd5b505050506040513d601f19601f820116820180604052508101906200105e919062001d2e565b6020015190506000603560009054906101000a90046001600160a01b031682604051806020016040528060008152506040516200109b90620014b8565b620010a99392919062001dbe565b604051809103906000f080158015620010c6573d6000803e3d6000fd5b5090506000819050806001600160a01b0316637f4324938c8c8c8c8c8c8c603860009054906101000a90046001600160a01b0316603960009054906101000a90046001600160a01b0316603a60009054906101000a90046001600160a01b03166040518b63ffffffff1660e01b81526004016200114d9a9998979695949392919062001df5565b600060405180830381600087803b1580156200116857600080fd5b505af11580156200117d573d6000803e3d6000fd5b50929d9c50505050505050505050505050565b6000806200119f8787620011bb565b9050620011b08187878787620012a0565b979650505050505050565b6000806000846001600160a01b0316635d2c5bad856040518263ffffffff1660e01b8152600401620011ee9190620014c6565b60408051808303816000875af11580156200120d573d6000803e3d6000fd5b505050506040513d601f19601f8201168201806040525081019062001233919062001ea4565b91509150601660030b8260070b146200128f5760405162461bcd60e51b815260206004820152601e60248201527f546f6b656e4f7065726174696f6e733a20696e76616c696420746f6b656e0000604482015260640162000319565b8060030b6001149250505092915050565b60008086620013b657306001600160a01b0386161462001338576040516323b872dd60e01b81526001600160a01b038716906323b872dd90620012ec9088908890889060040162001eee565b6020604051808303816000875af11580156200130c573d6000803e3d6000fd5b505050506040513d601f19601f8201168201806040525081019062001332919062001f12565b620013ae565b60405163a9059cbb60e01b81526001600160a01b0385811660048301526024820185905287169063a9059cbb906044016020604051808303816000875af115801562001388573d6000803e3d6000fd5b505050506040513d601f19601f82011682018060405250810190620013ae919062001f12565b905062001499565b6040516323b872dd60e01b81526001600160a01b038716906323b872dd90620013e89088908890889060040162001eee565b600060405180830381600087803b1580156200140357600080fd5b505af115801562001418573d6000803e3d6000fd5b50506040516331a9108f60e11b8152600481018690526001600160a01b03878116935089169150636352211e90602401602060405180830381865afa15801562001466573d6000803e3d6000fd5b505050506040513d601f19601f820116820180604052508101906200148c919062001c9f565b6001600160a01b03161490505b80620014a7576015620014aa565b60165b60030b979650505050505050565b610eb28062001f3383390190565b6001600160a01b0391909116815260200190565b6001600160a01b0381168114620014f057600080fd5b50565b80356200150081620014da565b919050565b6000806000606084860312156200151b57600080fd5b83356200152881620014da565b925060208401356200153a81620014da565b929592945050506040919091013590565b6000602082840312156200155e57600080fd5b81356200156b81620014da565b9392505050565b600081518084526020808501945080840160005b83811015620015ad5781516001600160a01b03168752958201959082019060010162001586565b509495945050505050565b6020815260006200156b602083018462001572565b634e487b7160e01b600052604160045260246000fd5b604051606081016001600160401b0381118282101715620016085762001608620015cd565b60405290565b60405161012081016001600160401b0381118282101715620016085762001608620015cd565b604051601f8201601f191681016001600160401b03811182821017156200165f576200165f620015cd565b604052919050565b60008060008060008060008789036101208112156200168557600080fd5b88356200169281620014da565b97506020890135620016a481620014da565b96506040890135620016b681620014da565b95506060890135620016c881620014da565b94506060607f1982011215620016dd57600080fd5b50620016e8620015e3565b6080890135620016f881620014da565b815260a08901356200170a81620014da565b602082015260c0890135604082015292506200172960e08901620014f3565b91506200173a6101008901620014f3565b905092959891949750929550565b600082601f8301126200175a57600080fd5b81356001600160401b03811115620017765762001776620015cd565b6200178b601f8201601f191660200162001634565b818152846020838601011115620017a157600080fd5b816020850160208301376000918101602001919091529392505050565b60006001600160401b03821115620017da57620017da620015cd565b5060051b60200190565b600082601f830112620017f657600080fd5b813560206200180f6200180983620017be565b62001634565b82815260059290921b840181019181810190868411156200182f57600080fd5b8286015b84811015620018575780356200184981620014da565b835291830191830162001833565b509695505050505050565b8015158114620014f057600080fd5b8035620015008162001862565b600082601f8301126200189057600080fd5b81356020620018a36200180983620017be565b82815260059290921b84018101918181019086841115620018c357600080fd5b8286015b84811015620018575780356001600160401b03811115620018e85760008081fd5b620018f88986838b010162001748565b845250918301918301620018c7565b6000602082840312156200191a57600080fd5b81356001600160401b03808211156200193257600080fd5b9083019061012082860312156200194857600080fd5b620019526200160e565b6200195d83620014f3565b81526020830135828111156200197257600080fd5b620019808782860162001748565b6020830152506040830135828111156200199957600080fd5b620019a78782860162001748565b604083015250606083013582811115620019c057600080fd5b620019ce8782860162001748565b606083015250608083013582811115620019e757600080fd5b620019f587828601620017e4565b60808301525060a083013560a082015262001a1360c0840162001871565b60c082015260e08301358281111562001a2b57600080fd5b62001a398782860162001748565b60e083015250610100808401358381111562001a5457600080fd5b62001a62888287016200187e565b918301919091525095945050505050565b81546001600160a01b0390811682526001830154166020820152600290910154604082015260600190565b6000815180845260005b8181101562001ac65760208185018101518683018201520162001aa8565b506000602082860101526020601f19601f83011685010191505092915050565b6020815260006200156b602083018462001a9e565b600081518084526020808501808196508360051b8101915082860160005b8581101562001b4757828403895262001b3484835162001a9e565b9885019893509084019060010162001b19565b5091979650505050505050565b6001600160a01b03858116825284811660208301528381166040830152608060608301819052835190911690820152600060208301516101208060a085015262001ba36101a085018362001a9e565b91506040850151607f19808685030160c087015262001bc3848362001a9e565b935060608701519150808685030160e087015262001be2848362001a9e565b93506080870151915061010081878603018188015262001c03858462001572565b945060a08801518488015260c0880151935062001c2561014088018515159052565b60e08801519350818786030161016088015262001c43858562001a9e565b9450808801519350508086850301610180870152505062001c65828262001afb565b98975050505050505050565b6001600160a01b038316815260406020820181905260009062001c979083018462001a9e565b949350505050565b60006020828403121562001cb257600080fd5b81516200156b81620014da565b600061010080835262001cd58184018c62001572565b602084018b90526001600160a01b038a81166040860152848203606086015290915062001d03828a62001a9e565b978116608085015295861660a0840152505060c081019290925290911660e090910152949350505050565b60006080828403121562001d4157600080fd5b604051608081016001600160401b038111828210171562001d665762001d66620015cd565b604052825162001d7681620014da565b8152602083015162001d8881620014da565b6020820152604083015162001d9d81620014da565b6040820152606083015162001db281620014da565b60608201529392505050565b6001600160a01b0384811682528316602082015260606040820181905260009062001dec9083018462001a9e565b95945050505050565b6001600160a01b038b811682526101406020830181905260009162001e1d8483018e62001a9e565b9150838203604085015262001e33828d62001a9e565b9150838203606085015262001e49828c62001a9e565b9150838203608085015262001e5f828b62001a9e565b915083820360a085015262001e75828a62001afb565b97811660c085015295861660e08401525050918316610100830152909116610120909101529695505050505050565b6000806040838503121562001eb857600080fd5b82518060070b811462001eca57600080fd5b8092505060208301518060030b811462001ee357600080fd5b809150509250929050565b6001600160a01b039384168152919092166020820152604081019190915260600190565b60006020828403121562001f2557600080fd5b81516200156b816200186256fe608060405260405162000eb238038062000eb2833981016040819052620000269162000497565b828162000036828260006200004d565b50620000449050826200008a565b505050620005ca565b6200005883620000e5565b600082511180620000665750805b1562000085576200008383836200012760201b620001691760201c565b505b505050565b7f7e644d79422f17c01e4894b5f4f588d331ebfa28653d42ae832dc59e38c9798f620000b562000156565b604080516001600160a01b03928316815291841660208301520160405180910390a1620000e2816200018f565b50565b620000f08162000244565b6040516001600160a01b038216907fbc7cd75a20ee27fd9adebab32041f755214dbc6bffa90cc0225b39da2e5c2d3b90600090a250565b60606200014f838360405180606001604052806027815260200162000e8b60279139620002f8565b9392505050565b60006200018060008051602062000e6b83398151915260001b6200037760201b620001951760201c565b546001600160a01b0316919050565b6001600160a01b038116620001fa5760405162461bcd60e51b815260206004820152602660248201527f455243313936373a206e65772061646d696e20697320746865207a65726f206160448201526564647265737360d01b60648201526084015b60405180910390fd5b806200022360008051602062000e6b83398151915260001b6200037760201b620001951760201c565b80546001600160a01b0319166001600160a01b039290921691909117905550565b6200025a816200037a60201b620001981760201c565b620002be5760405162461bcd60e51b815260206004820152602d60248201527f455243313936373a206e657720696d706c656d656e746174696f6e206973206e60448201526c1bdd08184818dbdb9d1c9858dd609a1b6064820152608401620001f1565b80620002237f360894a13ba1a3210667c828492db98dca3e2076cc3735a920a3ca505d382bbc60001b6200037760201b620001951760201c565b6060600080856001600160a01b03168560405162000317919062000577565b600060405180830381855af49150503d806000811462000354576040519150601f19603f3d011682016040523d82523d6000602084013e62000359565b606091505b5090925090506200036d8683838762000389565b9695505050505050565b90565b6001600160a01b03163b151590565b60608315620003fd578251600003620003f557620003a7856200037a565b620003f55760405162461bcd60e51b815260206004820152601d60248201527f416464726573733a2063616c6c20746f206e6f6e2d636f6e74726163740000006044820152606401620001f1565b508162000409565b62000409838362000411565b949350505050565b815115620004225781518083602001fd5b8060405162461bcd60e51b8152600401620001f1919062000595565b80516001600160a01b03811681146200045657600080fd5b919050565b634e487b7160e01b600052604160045260246000fd5b60005b838110156200048e57818101518382015260200162000474565b50506000910152565b600080600060608486031215620004ad57600080fd5b620004b8846200043e565b9250620004c8602085016200043e565b60408501519092506001600160401b0380821115620004e657600080fd5b818601915086601f830112620004fb57600080fd5b8151818111156200051057620005106200045b565b604051601f8201601f19908116603f011681019083821181831017156200053b576200053b6200045b565b816040528281528960208487010111156200055557600080fd5b6200056883602083016020880162000471565b80955050505050509250925092565b600082516200058b81846020870162000471565b9190910192915050565b6020815260008251806020840152620005b681604085016020870162000471565b601f01601f19169190910160400192915050565b61089180620005da6000396000f3fe60806040523661001357610011610017565b005b6100115b61001f6101a7565b6001600160a01b0316330361015f5760606001600160e01b0319600035166364d3180d60e11b810161005a576100536101c8565b9150610157565b63587086bd60e11b6001600160e01b031982160161007a5761005361021f565b63070d7c6960e41b6001600160e01b031982160161009a57610053610265565b621eb96f60e61b6001600160e01b03198216016100b957610053610296565b63a39f25e560e01b6001600160e01b03198216016100d9576100536102d6565b60405162461bcd60e51b815260206004820152604260248201527f5472616e73706172656e745570677261646561626c6550726f78793a2061646d60448201527f696e2063616e6e6f742066616c6c6261636b20746f2070726f78792074617267606482015261195d60f21b608482015260a4015b60405180910390fd5b815160208301f35b6101676102ea565b565b606061018e8383604051806060016040528060278152602001610835602791396102fa565b9392505050565b90565b6001600160a01b03163b151590565b60006000805160206107f58339815191525b546001600160a01b0316919050565b60606101d2610372565b60006101e13660048184610649565b8101906101ee919061068f565b905061020b8160405180602001604052806000815250600061037d565b505060408051602081019091526000815290565b60606000806102313660048184610649565b81019061023e91906106c0565b9150915061024e8282600161037d565b604051806020016040528060008152509250505090565b606061026f610372565b600061027e3660048184610649565b81019061028b919061068f565b905061020b816103a9565b60606102a0610372565b60006102aa6101a7565b604080516001600160a01b03831660208201529192500160405160208183030381529060405291505090565b60606102e0610372565b60006102aa610400565b6101676102f5610400565b61040f565b6060600080856001600160a01b03168560405161031791906107a5565b600060405180830381855af49150503d8060008114610352576040519150601f19603f3d011682016040523d82523d6000602084013e610357565b606091505b509150915061036886838387610433565b9695505050505050565b341561016757600080fd5b610386836104b2565b6000825111806103935750805b156103a4576103a28383610169565b505b505050565b7f7e644d79422f17c01e4894b5f4f588d331ebfa28653d42ae832dc59e38c9798f6103d26101a7565b604080516001600160a01b03928316815291841660208301520160405180910390a16103fd816104f2565b50565b600061040a610589565b905090565b3660008037600080366000845af43d6000803e80801561042e573d6000f35b3d6000fd5b606083156104a05782516000036104995761044d85610198565b6104995760405162461bcd60e51b815260206004820152601d60248201527f416464726573733a2063616c6c20746f206e6f6e2d636f6e7472616374000000604482015260640161014e565b50816104aa565b6104aa838361059f565b949350505050565b6104bb816105c9565b6040516001600160a01b038216907fbc7cd75a20ee27fd9adebab32041f755214dbc6bffa90cc0225b39da2e5c2d3b90600090a250565b6001600160a01b0381166105575760405162461bcd60e51b815260206004820152602660248201527f455243313936373a206e65772061646d696e20697320746865207a65726f206160448201526564647265737360d01b606482015260840161014e565b806000805160206107f58339815191525b80546001600160a01b0319166001600160a01b039290921691909117905550565b60006000805160206108158339815191526101b9565b8151156105af5781518083602001fd5b8060405162461bcd60e51b815260040161014e91906107c1565b6105d281610198565b6106345760405162461bcd60e51b815260206004820152602d60248201527f455243313936373a206e657720696d706c656d656e746174696f6e206973206e60448201526c1bdd08184818dbdb9d1c9858dd609a1b606482015260840161014e565b80600080516020610815833981519152610568565b6000808585111561065957600080fd5b8386111561066657600080fd5b5050820193919092039150565b80356001600160a01b038116811461068a57600080fd5b919050565b6000602082840312156106a157600080fd5b61018e82610673565b634e487b7160e01b600052604160045260246000fd5b600080604083850312156106d357600080fd5b6106dc83610673565b915060208301356001600160401b03808211156106f857600080fd5b818501915085601f83011261070c57600080fd5b81358181111561071e5761071e6106aa565b604051601f8201601f19908116603f01168101908382118183101715610746576107466106aa565b8160405282815288602084870101111561075f57600080fd5b8260208601602083013760006020848301015280955050505050509250929050565b60005b8381101561079c578181015183820152602001610784565b50506000910152565b600082516107b7818460208701610781565b9190910192915050565b60208152600082518060208401526107e0816040850160208701610781565b601f01601f1916919091016040019291505056feb53127684a568b3173ae13b9f8a6016e243e63b6e8ee1178d6a717850b5d6103360894a13ba1a3210667c828492db98dca3e2076cc3735a920a3ca505d382bbc416464726573733a206c6f772d6c6576656c2064656c65676174652063616c6c206661696c6564a26469706673582212206903e5c4246b5644c9b348bc6c150cc1e0e09c0b84dd3bf68c718931362f785664736f6c63430008120033b53127684a568b3173ae13b9f8a6016e243e63b6e8ee1178d6a717850b5d6103416464726573733a206c6f772d6c6576656c2064656c65676174652063616c6c206661696c6564cf9d4a2ff924c5f3553e3c8485e6bc24fde822593d2c3d78c8fabaada123f8f6e4fce836b51cd99426dfc85e9e28de32d7175bcaba52192a50b39585cb2faa57a26469706673582212209b68cc8d40d1d45c37df3ca8b937eca90158f20313c32a34a06c2ddddb87d2dd64736f6c63430008120033",
  "linkReferences": {},
  "deployedLinkReferences": {}
}