{
  "_format": "hh-sol-artifact-1",
  "contractName": "NFTDAOFactory",
  "sourceName": "contracts/dao/NFTDAOFactory.sol",
  "abi": [
    {
      "inputs": [
        {
          "internalType": "string",
          "name": "message",
          "type": "string"
        }
      ],
      "name": "InvalidInput",
      "type": "error"
    },
    {
      "anonymous": false,
      "inputs": [
        {
          "components": [
            {
              "internalType": "address payable",
              "name": "daoTreasurer",
              "type": "address"
            },
            {
              "internalType": "address",
              "name": "tokenAddress",
              "type": "address"
            },
            {
              "internalType": "uint256",
              "name": "daoFee",
              "type": "uint256"
            }
          ],
          "indexed": false,
          "internalType": "struct DAOConfiguration.DAOConfigDetails",
          "name": "daoConfig",
          "type": "tuple"
        }
      ],
      "name": "DAOConfig",
      "type": "event"
    },
    {
      "anonymous": false,
      "inputs": [
        {
          "indexed": false,
          "internalType": "address",
          "name": "tokenHolderAddress",
          "type": "address"
        },
        {
          "indexed": false,
          "internalType": "address",
          "name": "assetsHolderAddress",
          "type": "address"
        },
        {
          "indexed": false,
          "internalType": "address",
          "name": "governorAddress",
          "type": "address"
        },
        {
          "indexed": false,
          "internalType": "address",
          "name": "daoAddress",
          "type": "address"
        },
        {
          "components": [
            {
              "internalType": "address",
              "name": "admin",
              "type": "address"
            },
            {
              "internalType": "string",
              "name": "name",
              "type": "string"
            },
            {
              "internalType": "string",
              "name": "logoUrl",
              "type": "string"
            },
            {
              "internalType": "string",
              "name": "infoUrl",
              "type": "string"
            },
            {
              "internalType": "address",
              "name": "tokenAddress",
              "type": "address"
            },
            {
              "internalType": "uint256",
              "name": "quorumThreshold",
              "type": "uint256"
            },
            {
              "internalType": "uint256",
              "name": "votingDelay",
              "type": "uint256"
            },
            {
              "internalType": "uint256",
              "name": "votingPeriod",
              "type": "uint256"
            },
            {
              "internalType": "bool",
              "name": "isPrivate",
              "type": "bool"
            },
            {
              "internalType": "string",
              "name": "description",
              "type": "string"
            },
            {
              "internalType": "string[]",
              "name": "webLinks",
              "type": "string[]"
            }
          ],
          "indexed": false,
          "internalType": "struct ISharedModel.CreateDAOInputs",
          "name": "inputs",
          "type": "tuple"
        }
      ],
      "name": "DAOCreated",
      "type": "event"
    },
    {
      "anonymous": false,
      "inputs": [
        {
          "indexed": false,
          "internalType": "uint8",
          "name": "version",
          "type": "uint8"
        }
      ],
      "name": "Initialized",
      "type": "event"
    },
    {
      "anonymous": false,
      "inputs": [
        {
          "indexed": true,
          "internalType": "address",
          "name": "oldImplementation",
          "type": "address"
        },
        {
          "indexed": true,
          "internalType": "address",
          "name": "newImplementation",
          "type": "address"
        },
        {
          "indexed": false,
          "internalType": "string",
          "name": "name",
          "type": "string"
        }
      ],
      "name": "LogicUpdated",
      "type": "event"
    },
    {
      "inputs": [
        {
          "internalType": "address payable",
          "name": "daoTreasurer",
          "type": "address"
        },
        {
          "internalType": "address",
          "name": "tokenAddress",
          "type": "address"
        },
        {
          "internalType": "uint256",
          "name": "daoFee",
          "type": "uint256"
        }
      ],
      "name": "changeDAOConfig",
      "outputs": [],
      "stateMutability": "nonpayable",
      "type": "function"
    },
    {
      "inputs": [
        {
          "components": [
            {
              "internalType": "address",
              "name": "admin",
              "type": "address"
            },
            {
              "internalType": "string",
              "name": "name",
              "type": "string"
            },
            {
              "internalType": "string",
              "name": "logoUrl",
              "type": "string"
            },
            {
              "internalType": "string",
              "name": "infoUrl",
              "type": "string"
            },
            {
              "internalType": "address",
              "name": "tokenAddress",
              "type": "address"
            },
            {
              "internalType": "uint256",
              "name": "quorumThreshold",
              "type": "uint256"
            },
            {
              "internalType": "uint256",
              "name": "votingDelay",
              "type": "uint256"
            },
            {
              "internalType": "uint256",
              "name": "votingPeriod",
              "type": "uint256"
            },
            {
              "internalType": "bool",
              "name": "isPrivate",
              "type": "bool"
            },
            {
              "internalType": "string",
              "name": "description",
              "type": "string"
            },
            {
              "internalType": "string[]",
              "name": "webLinks",
              "type": "string[]"
            }
          ],
          "internalType": "struct ISharedModel.CreateDAOInputs",
          "name": "_createDAOInputs",
          "type": "tuple"
        }
      ],
      "name": "createDAO",
      "outputs": [
        {
          "internalType": "address",
          "name": "tokenHolderAddress",
          "type": "address"
        },
        {
          "internalType": "address",
          "name": "assetsHolderAddress",
          "type": "address"
        },
        {
          "internalType": "address",
          "name": "governorAddress",
          "type": "address"
        },
        {
          "internalType": "address",
          "name": "daoAddress",
          "type": "address"
        }
      ],
      "stateMutability": "payable",
      "type": "function"
    },
    {
      "inputs": [],
      "name": "getDAOConfigDetails",
      "outputs": [
        {
          "components": [
            {
              "internalType": "address payable",
              "name": "daoTreasurer",
              "type": "address"
            },
            {
              "internalType": "address",
              "name": "tokenAddress",
              "type": "address"
            },
            {
              "internalType": "uint256",
              "name": "daoFee",
              "type": "uint256"
            }
          ],
          "internalType": "struct DAOConfiguration.DAOConfigDetails",
          "name": "",
          "type": "tuple"
        }
      ],
      "stateMutability": "view",
      "type": "function"
    },
    {
      "inputs": [],
      "name": "getDAOs",
      "outputs": [
        {
          "internalType": "address[]",
          "name": "",
          "type": "address[]"
        }
      ],
      "stateMutability": "view",
      "type": "function"
    },
    {
      "inputs": [],
      "name": "getHederaServiceVersion",
      "outputs": [
        {
          "internalType": "contract IHederaService",
          "name": "",
          "type": "address"
        }
      ],
      "stateMutability": "view",
      "type": "function"
    },
    {
      "inputs": [],
      "name": "getTokenHolderFactoryAddress",
      "outputs": [
        {
          "internalType": "address",
          "name": "",
          "type": "address"
        }
      ],
      "stateMutability": "view",
      "type": "function"
    },
    {
      "inputs": [
        {
          "internalType": "address",
          "name": "_daoLogic",
          "type": "address"
        },
        {
          "internalType": "address",
          "name": "_governorLogic",
          "type": "address"
        },
        {
          "internalType": "address",
          "name": "_assetsHolderLogic",
          "type": "address"
        },
        {
          "internalType": "contract IHederaService",
          "name": "_hederaService",
          "type": "address"
        },
        {
          "components": [
            {
              "internalType": "address payable",
              "name": "daoTreasurer",
              "type": "address"
            },
            {
              "internalType": "address",
              "name": "tokenAddress",
              "type": "address"
            },
            {
              "internalType": "uint256",
              "name": "daoFee",
              "type": "uint256"
            }
          ],
          "internalType": "struct DAOConfiguration.DAOConfigDetails",
          "name": "_daoConfigDetails",
          "type": "tuple"
        },
        {
          "internalType": "contract ITokenHolderFactory",
          "name": "_tokenHolderFactory",
          "type": "address"
        },
        {
          "internalType": "contract ISystemRoleBasedAccess",
          "name": "_iSystemRoleBasedAccess",
          "type": "address"
        }
      ],
      "name": "initialize",
      "outputs": [],
      "stateMutability": "nonpayable",
      "type": "function"
    },
    {
      "inputs": [
        {
          "internalType": "address",
          "name": "_assetsHolderLogic",
          "type": "address"
        }
      ],
      "name": "upgradeAssetHolderImplementation",
      "outputs": [],
      "stateMutability": "nonpayable",
      "type": "function"
    },
    {
      "inputs": [
        {
          "internalType": "address",
          "name": "_daoLogic",
          "type": "address"
        }
      ],
      "name": "upgradeDAOLogicImplementation",
      "outputs": [],
      "stateMutability": "nonpayable",
      "type": "function"
    },
    {
      "inputs": [
        {
          "internalType": "address",
          "name": "_governorLogic",
          "type": "address"
        }
      ],
      "name": "upgradeGovernorImplementation",
      "outputs": [],
      "stateMutability": "nonpayable",
      "type": "function"
    },
    {
      "inputs": [
        {
          "internalType": "contract IHederaService",
          "name": "_hederaService",
          "type": "address"
        }
      ],
      "name": "upgradeHederaService",
      "outputs": [],
      "stateMutability": "nonpayable",
      "type": "function"
    },
    {
      "inputs": [
        {
          "internalType": "contract ISystemRoleBasedAccess",
          "name": "_iSystemRoleBasedAccess",
          "type": "address"
        }
      ],
      "name": "upgradeISystemRoleBasedAccess",
      "outputs": [],
      "stateMutability": "nonpayable",
      "type": "function"
    },
    {
      "inputs": [
        {
          "internalType": "contract ITokenHolderFactory",
          "name": "_tokenHolderFactory",
          "type": "address"
        }
      ],
      "name": "upgradeTokenHolderFactory",
      "outputs": [],
      "stateMutability": "nonpayable",
      "type": "function"
    }
  ],
  "bytecode": "0x608060405234801561001057600080fd5b5061001961001e565b6100dd565b600054610100900460ff161561008a5760405162461bcd60e51b815260206004820152602760248201527f496e697469616c697a61626c653a20636f6e747261637420697320696e697469604482015266616c697a696e6760c81b606482015260840160405180910390fd5b60005460ff908116146100db576000805460ff191660ff9081179091556040519081527f7f26b83ff96e1f2b6a682f133852f6798a09c465da95921460cefb38474024989060200160405180910390a15b565b612f4780620000ed6000396000f3fe608060405260043610620000b05760003560e01c80632e2956ce14620000b557806340af810a14620000dc578063415cc7dd146200012b578063471ebd6514620001525780636dab6f75146200017757806374d4443414620001a15780637c27c66c14620001c65780637c3ad0bc14620001eb578063958dc1631462000210578063c0e96bc21462000235578063d26d681f146200025a578063e113cae7146200027f578063f7f49f0c14620002f4575b600080fd5b348015620000c257600080fd5b50620000da620000d43660046200176b565b62000314565b005b620000f3620000ed36600462001987565b6200045d565b604080516001600160a01b03958616815293851660208501529184169183019190915290911660608201526080015b60405180910390f35b3480156200013857600080fd5b506200014362000602565b60405162000122919062001b03565b3480156200015f57600080fd5b50620000da6200017136600462001b52565b62000666565b3480156200018457600080fd5b506039546001600160a01b03165b60405162000122919062001b79565b348015620001ae57600080fd5b50620000da620001c036600462001b52565b62000748565b348015620001d357600080fd5b50620000da620001e536600462001b8d565b62000830565b348015620001f857600080fd5b50620000da6200020a36600462001b52565b62000c11565b3480156200021d57600080fd5b50620000da6200022f36600462001b52565b62000cf1565b3480156200024257600080fd5b50620000da6200025436600462001b52565b62000dcc565b3480156200026757600080fd5b50620000da6200027936600462001b52565b62000ead565b3480156200028c57600080fd5b5060408051606080820183526000808352602080840182905292840152825180820184526001546001600160a01b0390811680835260025482168386019081526003549387019384528651918252519091169381019390935251928201929092520162000122565b3480156200030157600080fd5b50603a546001600160a01b031662000192565b6001546001600160a01b03163314620003825760405162461bcd60e51b815260206004820152602560248201527f44414f436f6e66696775726174696f6e3a2044414f207472656173757265722060448201526437b7363c9760d91b60648201526084015b60405180910390fd5b6000811180156200039b57506001600160a01b03831615155b620003fc5760405162461bcd60e51b815260206004820152602a60248201527f44414f436f6e66696775726174696f6e3a20496e76616c69642044414f20436f604482015269373334b3902230ba309760b11b606482015260840162000379565b6003819055600280546001600160a01b038085166001600160a01b031992831617909255600180549286169290911691909117815560405160008051602062002ef283398151915291620004509162001c6e565b60405180910390a1505050565b60008060008060006001600160a01b031685608001516001600160a01b031603620004d65760405163d647364f60e01b815260206004820152602160248201527f44414f466163746f72793a20746f6b656e2061646472657373206973207a65726044820152606f60f81b606482015260840162000379565b8460e00151600003620005375760405163d647364f60e01b815260206004820152602160248201527f44414f466163746f72793a20766f74696e6720706572696f64206973207a65726044820152606f60f81b606482015260840162000379565b6039546200054e906001600160a01b031662000f90565b620005598562001112565b61010089015193975091955093509150620005ba57603580546001810182556000919091527fcfa4bec1d3298408bb5afcfcd9c430549c5b31f8aa5c5848151c0a55f473c34d0180546001600160a01b0319166001600160a01b0383161790555b7fa291e38e5cf3fa3672a23adca1b59e946a0afeb64b0cbdcca01998ee46e489a78485848489604051620005f395949392919062001e29565b60405180910390a19193509193565b606060358054806020026020016040519081016040528092919081815260200182805480156200065c57602002820191906000526020600020905b81546001600160a01b031681526001909101906020018083116200063d575b5050505050905090565b603b54604051637ae09f4d60e01b81526001600160a01b0390911690637ae09f4d906200069890339060040162001b79565b60006040518083038186803b158015620006b157600080fd5b505afa158015620006c6573d6000803e3d6000fd5b5050603854604080518082018252600c81526b20b9b9b2ba39a437b63232b960a11b602082015290516001600160a01b038681169550909216925060008051602062002ed2833981519152916200071e919062001e67565b60405180910390a3603880546001600160a01b0319166001600160a01b0392909216919091179055565b603b54604051637ae09f4d60e01b81526001600160a01b0390911690637ae09f4d906200077a90339060040162001b79565b60006040518083038186803b1580156200079357600080fd5b505afa158015620007a8573d6000803e3d6000fd5b5050603a546040805180820182526012815271546f6b656e486f6c646572466163746f727960701b602082015290516001600160a01b038681169550909216925060008051602062002ed28339815191529162000806919062001e67565b60405180910390a3603a80546001600160a01b0319166001600160a01b0392909216919091179055565b600054610100900460ff1615808015620008515750600054600160ff909116105b806200086d5750303b1580156200086d575060005460ff166001145b620008d25760405162461bcd60e51b815260206004820152602e60248201527f496e697469616c697a61626c653a20636f6e747261637420697320616c72656160448201526d191e481a5b9a5d1a585b1a5e995960921b606482015260840162000379565b6000805460ff191660011790558015620008f6576000805461ff0019166101001790555b603680546001600160a01b03199081166001600160a01b038b81169182179093556037805483168b85161790556038805483168a85161790556039805483168985161790558651600180548416918516919091179055602080880151600280548516918616919091179055604080890151600355603a80548516898716179055603b805490941694871694909417909255825180840184526005815264475f44414f60d81b92810192909252915160009160008051602062002ed283398151915291620009c4919062001e67565b60405180910390a3603754604080518082018252600a815269476f7665726e616e636560b01b602082015290516001600160a01b039092169160009160008051602062002ed28339815191529162000a1d919062001e67565b60405180910390a3603854604080518082018252600c81526b20b9b9b2ba39a437b63232b960a11b602082015290516001600160a01b039092169160009160008051602062002ed28339815191529162000a78919062001e67565b60405180910390a3603954604080518082018252600d81526c4865646572615365727669636560981b602082015290516001600160a01b039092169160009160008051602062002ed28339815191529162000ad4919062001e67565b60405180910390a3603a546040805180820182526012815271546f6b656e486f6c646572466163746f727960701b602082015290516001600160a01b039092169160009160008051602062002ed28339815191529162000b35919062001e67565b60405180910390a3603b54604080518082018252600b81526a4953797374656d526f6c6560a81b602082015290516001600160a01b039092169160009160008051602062002ed28339815191529162000b8f919062001e67565b60405180910390a360008051602062002ef2833981519152600160405162000bb8919062001c6e565b60405180910390a1801562000c07576000805461ff0019169055604051600181527f7f26b83ff96e1f2b6a682f133852f6798a09c465da95921460cefb38474024989060200160405180910390a15b5050505050505050565b603b54604051637ae09f4d60e01b81526001600160a01b0390911690637ae09f4d9062000c4390339060040162001b79565b60006040518083038186803b15801562000c5c57600080fd5b505afa15801562000c71573d6000803e3d6000fd5b5050603754604080518082018252600a815269476f7665726e616e636560b01b602082015290516001600160a01b038681169550909216925060008051602062002ed28339815191529162000cc7919062001e67565b60405180910390a3603780546001600160a01b0319166001600160a01b0392909216919091179055565b603b54604051637ae09f4d60e01b81526001600160a01b0390911690637ae09f4d9062000d2390339060040162001b79565b60006040518083038186803b15801562000d3c57600080fd5b505afa15801562000d51573d6000803e3d6000fd5b50506036546040805180820182526005815264475f44414f60d81b602082015290516001600160a01b038681169550909216925060008051602062002ed28339815191529162000da2919062001e67565b60405180910390a3603680546001600160a01b0319166001600160a01b0392909216919091179055565b603b54604051637ae09f4d60e01b81526001600160a01b0390911690637ae09f4d9062000dfe90339060040162001b79565b60006040518083038186803b15801562000e1757600080fd5b505afa15801562000e2c573d6000803e3d6000fd5b5050603b54604080518082018252600b81526a4953797374656d526f6c6560a81b602082015290516001600160a01b038681169550909216925060008051602062002ed28339815191529162000e83919062001e67565b60405180910390a3603b80546001600160a01b0319166001600160a01b0392909216919091179055565b603b54604051637ae09f4d60e01b81526001600160a01b0390911690637ae09f4d9062000edf90339060040162001b79565b60006040518083038186803b15801562000ef857600080fd5b505afa15801562000f0d573d6000803e3d6000fd5b5050603954604080518082018252600d81526c4865646572615365727669636560981b602082015290516001600160a01b038681169550909216925060008051602062002ed28339815191529162000f66919062001e67565b60405180910390a3603980546001600160a01b0319166001600160a01b0392909216919091179055565b6002546001600160a01b031615801562001073576001546003546040516000926001600160a01b031691908381818185875af1925050503d806000811462000ff5576040519150601f19603f3d011682016040523d82523d6000602084013e62000ffa565b606091505b50509050806200106e5760405162461bcd60e51b815260206004820152603860248201527f44414f436f6e66696775726174696f6e3a205472616e736665722048424152206044820152772a37902220a7902a3932b0b9bab932b9102330b4b632b21760411b606482015260840162000379565b505050565b6002546001546003546000926200109c9286926001600160a01b03928316923392169062001340565b9050601681146200106e5760405162461bcd60e51b815260206004820152603960248201527f44414f436f6e66696775726174696f6e3a205472616e7366657220546f6b656e604482015278102a37902220a7902a3932b0b9bab932b9102330b4b632b21760391b606482015260840162000379565b6000806000806200113d60405180606001604052806000815260200160008152602001600081525090565b60c0860151815260e0860151602082015260a0860151604080830191909152603a546080880151915163d7fbaa1960e01b81526000926001600160a01b039092169163d7fbaa199162001194919060040162001b79565b6020604051808303816000875af1158015620011b4573d6000803e3d6000fd5b505050506040513d601f19601f82011682018060405250810190620011da919062001e7c565b603854909150600090620011f7906001600160a01b03166200136b565b60375490915060009062001214906001600160a01b03166200136b565b603954603b5460408051634c7fdda760e01b815288516004820152602089015160248201529088015160448201526001600160a01b038781166064830152868116608483015292831660a482015290821660c4820152919250821690634c7fdda79060e401600060405180830381600087803b1580156200129457600080fd5b505af1158015620012a9573d6000803e3d6000fd5b505060365460009250620012c791506001600160a01b03166200136b565b604051633a789e5360e01b81529091506001600160a01b03821690633a789e5390620012fa9085908e9060040162001e9c565b600060405180830381600087803b1580156200131557600080fd5b505af11580156200132a573d6000803e3d6000fd5b50959c949b509299509097509195505050505050565b6000806200134f878762001435565b90506200136081878787876200151a565b979650505050505050565b600080603b60009054906101000a90046001600160a01b03166001600160a01b0316635d0629226040518163ffffffff1660e01b8152600401608060405180830381865afa158015620013c2573d6000803e3d6000fd5b505050506040513d601f19601f82011682018060405250810190620013e8919062001eca565b6020015190506060838282604051620014019062001732565b6200140f9392919062001f5a565b604051809103906000f0801580156200142c573d6000803e3d6000fd5b50949350505050565b6000806000846001600160a01b0316635d2c5bad856040518263ffffffff1660e01b815260040162001468919062001b79565b60408051808303816000875af115801562001487573d6000803e3d6000fd5b505050506040513d601f19601f82011682018060405250810190620014ad919062001f91565b91509150601660030b8260070b14620015095760405162461bcd60e51b815260206004820152601e60248201527f546f6b656e4f7065726174696f6e733a20696e76616c696420746f6b656e0000604482015260640162000379565b8060030b6001149250505092915050565b600080866200163057306001600160a01b03861614620015b2576040516323b872dd60e01b81526001600160a01b038716906323b872dd90620015669088908890889060040162001fdb565b6020604051808303816000875af115801562001586573d6000803e3d6000fd5b505050506040513d601f19601f82011682018060405250810190620015ac919062001fff565b62001628565b60405163a9059cbb60e01b81526001600160a01b0385811660048301526024820185905287169063a9059cbb906044016020604051808303816000875af115801562001602573d6000803e3d6000fd5b505050506040513d601f19601f8201168201806040525081019062001628919062001fff565b905062001713565b6040516323b872dd60e01b81526001600160a01b038716906323b872dd90620016629088908890889060040162001fdb565b600060405180830381600087803b1580156200167d57600080fd5b505af115801562001692573d6000803e3d6000fd5b50506040516331a9108f60e11b8152600481018690526001600160a01b03878116935089169150636352211e90602401602060405180830381865afa158015620016e0573d6000803e3d6000fd5b505050506040513d601f19601f8201168201806040525081019062001706919062001e7c565b6001600160a01b03161490505b806200172157601562001724565b60165b60030b979650505050505050565b610eb2806200202083390190565b6001600160a01b03811681146200175657600080fd5b50565b8035620017668162001740565b919050565b6000806000606084860312156200178157600080fd5b83356200178e8162001740565b92506020840135620017a08162001740565b929592945050506040919091013590565b634e487b7160e01b600052604160045260246000fd5b60405161016081016001600160401b0381118282101715620017ed57620017ed620017b1565b60405290565b604051606081016001600160401b0381118282101715620017ed57620017ed620017b1565b604051601f8201601f191681016001600160401b0381118282101715620018435762001843620017b1565b604052919050565b600082601f8301126200185d57600080fd5b81356001600160401b03811115620018795762001879620017b1565b6200188e601f8201601f191660200162001818565b818152846020838601011115620018a457600080fd5b816020850160208301376000918101602001919091529392505050565b80151581146200175657600080fd5b80356200176681620018c1565b600082601f830112620018ef57600080fd5b813560206001600160401b03808311156200190e576200190e620017b1565b8260051b6200191f83820162001818565b93845285810183019383810190888611156200193a57600080fd5b84880192505b858310156200197b578235848111156200195a5760008081fd5b6200196a8a87838c01016200184b565b835250918401919084019062001940565b98975050505050505050565b6000602082840312156200199a57600080fd5b81356001600160401b0380821115620019b257600080fd5b908301906101608286031215620019c857600080fd5b620019d2620017c7565b620019dd8362001759565b8152602083013582811115620019f257600080fd5b62001a00878286016200184b565b60208301525060408301358281111562001a1957600080fd5b62001a27878286016200184b565b60408301525060608301358281111562001a4057600080fd5b62001a4e878286016200184b565b60608301525062001a626080840162001759565b608082015260a083013560a082015260c083013560c082015260e083013560e082015261010062001a95818501620018d0565b90820152610120838101358381111562001aae57600080fd5b62001abc888287016200184b565b828401525050610140808401358381111562001ad757600080fd5b62001ae588828701620018dd565b918301919091525095945050505050565b6001600160a01b03169052565b6020808252825182820181905260009190848201906040850190845b8181101562001b465783516001600160a01b03168352928401929184019160010162001b1f565b50909695505050505050565b60006020828403121562001b6557600080fd5b813562001b728162001740565b9392505050565b6001600160a01b0391909116815260200190565b600080600080600080600087890361012081121562001bab57600080fd5b883562001bb88162001740565b9750602089013562001bca8162001740565b9650604089013562001bdc8162001740565b9550606089013562001bee8162001740565b94506060607f198201121562001c0357600080fd5b5062001c0e620017f3565b608089013562001c1e8162001740565b815260a089013562001c308162001740565b602082015260c08901356040820152925062001c4f60e0890162001759565b915062001c60610100890162001759565b905092959891949750929550565b81546001600160a01b0390811682526001830154166020820152600290910154604082015260600190565b6000815180845260005b8181101562001cc15760208185018101518683018201520162001ca3565b506000602082860101526020601f19601f83011685010191505092915050565b6000815180845260208085019450848260051b860182860160005b8581101562001d2a57838303895262001d1783835162001c99565b9885019892509084019060010162001cfc565b5090979650505050505050565b600061016062001d4984845162001af6565b602083015181602086015262001d628286018262001c99565b9150506040830151848203604086015262001d7e828262001c99565b9150506060830151848203606086015262001d9a828262001c99565b915050608083015162001db1608086018262001af6565b5060a083015160a085015260c083015160c085015260e083015160e08501526101008084015162001de58287018215159052565b5050610120808401518583038287015262001e01838262001c99565b92505050610140808401518583038287015262001e1f838262001ce1565b9695505050505050565b6001600160a01b038681168252858116602083015284811660408301528316606082015260a060808201819052600090620013609083018462001d37565b60208152600062001b72602083018462001c99565b60006020828403121562001e8f57600080fd5b815162001b728162001740565b6001600160a01b038316815260406020820181905260009062001ec29083018462001d37565b949350505050565b60006080828403121562001edd57600080fd5b604051608081016001600160401b038111828210171562001f025762001f02620017b1565b604052825162001f128162001740565b8152602083015162001f248162001740565b6020820152604083015162001f398162001740565b6040820152606083015162001f4e8162001740565b60608201529392505050565b6001600160a01b0384811682528316602082015260606040820181905260009062001f889083018462001c99565b95945050505050565b6000806040838503121562001fa557600080fd5b82518060070b811462001fb757600080fd5b8092505060208301518060030b811462001fd057600080fd5b809150509250929050565b6001600160a01b039384168152919092166020820152604081019190915260600190565b6000602082840312156200201257600080fd5b815162001b7281620018c156fe608060405260405162000eb238038062000eb2833981016040819052620000269162000497565b828162000036828260006200004d565b50620000449050826200008a565b505050620005ca565b6200005883620000e5565b600082511180620000665750805b1562000085576200008383836200012760201b620001691760201c565b505b505050565b7f7e644d79422f17c01e4894b5f4f588d331ebfa28653d42ae832dc59e38c9798f620000b562000156565b604080516001600160a01b03928316815291841660208301520160405180910390a1620000e2816200018f565b50565b620000f08162000244565b6040516001600160a01b038216907fbc7cd75a20ee27fd9adebab32041f755214dbc6bffa90cc0225b39da2e5c2d3b90600090a250565b60606200014f838360405180606001604052806027815260200162000e8b60279139620002f8565b9392505050565b60006200018060008051602062000e6b83398151915260001b6200037760201b620001951760201c565b546001600160a01b0316919050565b6001600160a01b038116620001fa5760405162461bcd60e51b815260206004820152602660248201527f455243313936373a206e65772061646d696e20697320746865207a65726f206160448201526564647265737360d01b60648201526084015b60405180910390fd5b806200022360008051602062000e6b83398151915260001b6200037760201b620001951760201c565b80546001600160a01b0319166001600160a01b039290921691909117905550565b6200025a816200037a60201b620001981760201c565b620002be5760405162461bcd60e51b815260206004820152602d60248201527f455243313936373a206e657720696d706c656d656e746174696f6e206973206e60448201526c1bdd08184818dbdb9d1c9858dd609a1b6064820152608401620001f1565b80620002237f360894a13ba1a3210667c828492db98dca3e2076cc3735a920a3ca505d382bbc60001b6200037760201b620001951760201c565b6060600080856001600160a01b03168560405162000317919062000577565b600060405180830381855af49150503d806000811462000354576040519150601f19603f3d011682016040523d82523d6000602084013e62000359565b606091505b5090925090506200036d8683838762000389565b9695505050505050565b90565b6001600160a01b03163b151590565b60608315620003fd578251600003620003f557620003a7856200037a565b620003f55760405162461bcd60e51b815260206004820152601d60248201527f416464726573733a2063616c6c20746f206e6f6e2d636f6e74726163740000006044820152606401620001f1565b508162000409565b62000409838362000411565b949350505050565b815115620004225781518083602001fd5b8060405162461bcd60e51b8152600401620001f1919062000595565b80516001600160a01b03811681146200045657600080fd5b919050565b634e487b7160e01b600052604160045260246000fd5b60005b838110156200048e57818101518382015260200162000474565b50506000910152565b600080600060608486031215620004ad57600080fd5b620004b8846200043e565b9250620004c8602085016200043e565b60408501519092506001600160401b0380821115620004e657600080fd5b818601915086601f830112620004fb57600080fd5b8151818111156200051057620005106200045b565b604051601f8201601f19908116603f011681019083821181831017156200053b576200053b6200045b565b816040528281528960208487010111156200055557600080fd5b6200056883602083016020880162000471565b80955050505050509250925092565b600082516200058b81846020870162000471565b9190910192915050565b6020815260008251806020840152620005b681604085016020870162000471565b601f01601f19169190910160400192915050565b61089180620005da6000396000f3fe60806040523661001357610011610017565b005b6100115b61001f6101a7565b6001600160a01b0316330361015f5760606001600160e01b0319600035166364d3180d60e11b810161005a576100536101c8565b9150610157565b63587086bd60e11b6001600160e01b031982160161007a5761005361021f565b63070d7c6960e41b6001600160e01b031982160161009a57610053610265565b621eb96f60e61b6001600160e01b03198216016100b957610053610296565b63a39f25e560e01b6001600160e01b03198216016100d9576100536102d6565b60405162461bcd60e51b815260206004820152604260248201527f5472616e73706172656e745570677261646561626c6550726f78793a2061646d60448201527f696e2063616e6e6f742066616c6c6261636b20746f2070726f78792074617267606482015261195d60f21b608482015260a4015b60405180910390fd5b815160208301f35b6101676102ea565b565b606061018e8383604051806060016040528060278152602001610835602791396102fa565b9392505050565b90565b6001600160a01b03163b151590565b60006000805160206107f58339815191525b546001600160a01b0316919050565b60606101d2610372565b60006101e13660048184610649565b8101906101ee919061068f565b905061020b8160405180602001604052806000815250600061037d565b505060408051602081019091526000815290565b60606000806102313660048184610649565b81019061023e91906106c0565b9150915061024e8282600161037d565b604051806020016040528060008152509250505090565b606061026f610372565b600061027e3660048184610649565b81019061028b919061068f565b905061020b816103a9565b60606102a0610372565b60006102aa6101a7565b604080516001600160a01b03831660208201529192500160405160208183030381529060405291505090565b60606102e0610372565b60006102aa610400565b6101676102f5610400565b61040f565b6060600080856001600160a01b03168560405161031791906107a5565b600060405180830381855af49150503d8060008114610352576040519150601f19603f3d011682016040523d82523d6000602084013e610357565b606091505b509150915061036886838387610433565b9695505050505050565b341561016757600080fd5b610386836104b2565b6000825111806103935750805b156103a4576103a28383610169565b505b505050565b7f7e644d79422f17c01e4894b5f4f588d331ebfa28653d42ae832dc59e38c9798f6103d26101a7565b604080516001600160a01b03928316815291841660208301520160405180910390a16103fd816104f2565b50565b600061040a610589565b905090565b3660008037600080366000845af43d6000803e80801561042e573d6000f35b3d6000fd5b606083156104a05782516000036104995761044d85610198565b6104995760405162461bcd60e51b815260206004820152601d60248201527f416464726573733a2063616c6c20746f206e6f6e2d636f6e7472616374000000604482015260640161014e565b50816104aa565b6104aa838361059f565b949350505050565b6104bb816105c9565b6040516001600160a01b038216907fbc7cd75a20ee27fd9adebab32041f755214dbc6bffa90cc0225b39da2e5c2d3b90600090a250565b6001600160a01b0381166105575760405162461bcd60e51b815260206004820152602660248201527f455243313936373a206e65772061646d696e20697320746865207a65726f206160448201526564647265737360d01b606482015260840161014e565b806000805160206107f58339815191525b80546001600160a01b0319166001600160a01b039290921691909117905550565b60006000805160206108158339815191526101b9565b8151156105af5781518083602001fd5b8060405162461bcd60e51b815260040161014e91906107c1565b6105d281610198565b6106345760405162461bcd60e51b815260206004820152602d60248201527f455243313936373a206e657720696d706c656d656e746174696f6e206973206e60448201526c1bdd08184818dbdb9d1c9858dd609a1b606482015260840161014e565b80600080516020610815833981519152610568565b6000808585111561065957600080fd5b8386111561066657600080fd5b5050820193919092039150565b80356001600160a01b038116811461068a57600080fd5b919050565b6000602082840312156106a157600080fd5b61018e82610673565b634e487b7160e01b600052604160045260246000fd5b600080604083850312156106d357600080fd5b6106dc83610673565b915060208301356001600160401b03808211156106f857600080fd5b818501915085601f83011261070c57600080fd5b81358181111561071e5761071e6106aa565b604051601f8201601f19908116603f01168101908382118183101715610746576107466106aa565b8160405282815288602084870101111561075f57600080fd5b8260208601602083013760006020848301015280955050505050509250929050565b60005b8381101561079c578181015183820152602001610784565b50506000910152565b600082516107b7818460208701610781565b9190910192915050565b60208152600082518060208401526107e0816040850160208701610781565b601f01601f1916919091016040019291505056feb53127684a568b3173ae13b9f8a6016e243e63b6e8ee1178d6a717850b5d6103360894a13ba1a3210667c828492db98dca3e2076cc3735a920a3ca505d382bbc416464726573733a206c6f772d6c6576656c2064656c65676174652063616c6c206661696c6564a26469706673582212206903e5c4246b5644c9b348bc6c150cc1e0e09c0b84dd3bf68c718931362f785664736f6c63430008120033b53127684a568b3173ae13b9f8a6016e243e63b6e8ee1178d6a717850b5d6103416464726573733a206c6f772d6c6576656c2064656c65676174652063616c6c206661696c6564cf9d4a2ff924c5f3553e3c8485e6bc24fde822593d2c3d78c8fabaada123f8f6e4fce836b51cd99426dfc85e9e28de32d7175bcaba52192a50b39585cb2faa57a26469706673582212205ac7f7acbbfb2255aa7b46bfc9664eaf183767eae57843b0c8671d9e62292f5364736f6c63430008120033",
  "linkReferences": {},
  "deployedLinkReferences": {}
}