{
  "_format": "hh-sol-artifact-1",
  "contractName": "NFTDAOFactory",
  "sourceName": "contracts/dao/NFTDAOFactory.sol",
  "abi": [
    {
      "inputs": [
        {
          "internalType": "string",
          "name": "message",
          "type": "string"
        }
      ],
      "name": "InvalidInput",
      "type": "error"
    },
    {
      "anonymous": false,
      "inputs": [
        {
          "indexed": false,
          "internalType": "address",
          "name": "daoAddress",
          "type": "address"
        },
        {
          "components": [
            {
              "internalType": "address",
              "name": "tokenTransferLogic",
              "type": "address"
            },
            {
              "internalType": "address",
              "name": "textLogic",
              "type": "address"
            },
            {
              "internalType": "address",
              "name": "contractUpgradeLogic",
              "type": "address"
            },
            {
              "internalType": "address",
              "name": "createTokenLogic",
              "type": "address"
            }
          ],
          "indexed": false,
          "internalType": "struct ISharedDAOModel.Governor",
          "name": "governors",
          "type": "tuple"
        },
        {
          "indexed": false,
          "internalType": "address",
          "name": "tokenHolderAddress",
          "type": "address"
        },
        {
          "components": [
            {
              "internalType": "address",
              "name": "admin",
              "type": "address"
            },
            {
              "internalType": "string",
              "name": "name",
              "type": "string"
            },
            {
              "internalType": "string",
              "name": "logoUrl",
              "type": "string"
            },
            {
              "internalType": "string",
              "name": "infoUrl",
              "type": "string"
            },
            {
              "internalType": "address",
              "name": "tokenAddress",
              "type": "address"
            },
            {
              "internalType": "uint256",
              "name": "quorumThreshold",
              "type": "uint256"
            },
            {
              "internalType": "uint256",
              "name": "votingDelay",
              "type": "uint256"
            },
            {
              "internalType": "uint256",
              "name": "votingPeriod",
              "type": "uint256"
            },
            {
              "internalType": "bool",
              "name": "isPrivate",
              "type": "bool"
            },
            {
              "internalType": "string",
              "name": "description",
              "type": "string"
            },
            {
              "internalType": "string[]",
              "name": "webLinks",
              "type": "string[]"
            }
          ],
          "indexed": false,
          "internalType": "struct ISharedDAOModel.CreateDAOInputs",
          "name": "inputs",
          "type": "tuple"
        }
      ],
      "name": "DAOCreated",
      "type": "event"
    },
    {
      "anonymous": false,
      "inputs": [
        {
          "components": [
            {
              "internalType": "address",
              "name": "tokenTransferLogic",
              "type": "address"
            },
            {
              "internalType": "address",
              "name": "textLogic",
              "type": "address"
            },
            {
              "internalType": "address",
              "name": "contractUpgradeLogic",
              "type": "address"
            },
            {
              "internalType": "address",
              "name": "createTokenLogic",
              "type": "address"
            }
          ],
          "indexed": false,
          "internalType": "struct ISharedDAOModel.Governor",
          "name": "oldImplementation",
          "type": "tuple"
        },
        {
          "components": [
            {
              "internalType": "address",
              "name": "tokenTransferLogic",
              "type": "address"
            },
            {
              "internalType": "address",
              "name": "textLogic",
              "type": "address"
            },
            {
              "internalType": "address",
              "name": "contractUpgradeLogic",
              "type": "address"
            },
            {
              "internalType": "address",
              "name": "createTokenLogic",
              "type": "address"
            }
          ],
          "indexed": false,
          "internalType": "struct ISharedDAOModel.Governor",
          "name": "newImplementation",
          "type": "tuple"
        },
        {
          "indexed": false,
          "internalType": "string",
          "name": "name",
          "type": "string"
        }
      ],
      "name": "GovernorLogicUpdated",
      "type": "event"
    },
    {
      "anonymous": false,
      "inputs": [
        {
          "indexed": false,
          "internalType": "uint8",
          "name": "version",
          "type": "uint8"
        }
      ],
      "name": "Initialized",
      "type": "event"
    },
    {
      "anonymous": false,
      "inputs": [
        {
          "indexed": true,
          "internalType": "address",
          "name": "oldImplementation",
          "type": "address"
        },
        {
          "indexed": true,
          "internalType": "address",
          "name": "newImplementation",
          "type": "address"
        },
        {
          "indexed": false,
          "internalType": "string",
          "name": "name",
          "type": "string"
        }
      ],
      "name": "LogicUpdated",
      "type": "event"
    },
    {
      "inputs": [
        {
          "components": [
            {
              "internalType": "address",
              "name": "admin",
              "type": "address"
            },
            {
              "internalType": "string",
              "name": "name",
              "type": "string"
            },
            {
              "internalType": "string",
              "name": "logoUrl",
              "type": "string"
            },
            {
              "internalType": "string",
              "name": "infoUrl",
              "type": "string"
            },
            {
              "internalType": "address",
              "name": "tokenAddress",
              "type": "address"
            },
            {
              "internalType": "uint256",
              "name": "quorumThreshold",
              "type": "uint256"
            },
            {
              "internalType": "uint256",
              "name": "votingDelay",
              "type": "uint256"
            },
            {
              "internalType": "uint256",
              "name": "votingPeriod",
              "type": "uint256"
            },
            {
              "internalType": "bool",
              "name": "isPrivate",
              "type": "bool"
            },
            {
              "internalType": "string",
              "name": "description",
              "type": "string"
            },
            {
              "internalType": "string[]",
              "name": "webLinks",
              "type": "string[]"
            }
          ],
          "internalType": "struct ISharedDAOModel.CreateDAOInputs",
          "name": "_createDAOInputs",
          "type": "tuple"
        }
      ],
      "name": "createDAO",
      "outputs": [
        {
          "internalType": "address",
          "name": "",
          "type": "address"
        }
      ],
      "stateMutability": "nonpayable",
      "type": "function"
    },
    {
      "inputs": [],
      "name": "getDAOs",
      "outputs": [
        {
          "internalType": "address[]",
          "name": "",
          "type": "address[]"
        }
      ],
      "stateMutability": "view",
      "type": "function"
    },
    {
      "inputs": [],
      "name": "getHederaServiceVersion",
      "outputs": [
        {
          "internalType": "contract IHederaService",
          "name": "",
          "type": "address"
        }
      ],
      "stateMutability": "view",
      "type": "function"
    },
    {
      "inputs": [],
      "name": "getTokenHolderFactoryAddress",
      "outputs": [
        {
          "internalType": "address",
          "name": "",
          "type": "address"
        }
      ],
      "stateMutability": "view",
      "type": "function"
    },
    {
      "inputs": [
        {
          "internalType": "contract ISystemRoleBasedAccess",
          "name": "_iSystemRoleBasedAccess",
          "type": "address"
        },
        {
          "internalType": "contract IHederaService",
          "name": "_hederaService",
          "type": "address"
        },
        {
          "internalType": "contract FTDAO",
          "name": "_daoLogic",
          "type": "address"
        },
        {
          "internalType": "contract ITokenHolderFactory",
          "name": "_tokenHolderFactory",
          "type": "address"
        },
        {
          "components": [
            {
              "internalType": "address",
              "name": "tokenTransferLogic",
              "type": "address"
            },
            {
              "internalType": "address",
              "name": "textLogic",
              "type": "address"
            },
            {
              "internalType": "address",
              "name": "contractUpgradeLogic",
              "type": "address"
            },
            {
              "internalType": "address",
              "name": "createTokenLogic",
              "type": "address"
            }
          ],
          "internalType": "struct ISharedDAOModel.Governor",
          "name": "_governors",
          "type": "tuple"
        }
      ],
      "name": "initialize",
      "outputs": [],
      "stateMutability": "nonpayable",
      "type": "function"
    },
    {
      "inputs": [
        {
          "internalType": "contract FTDAO",
          "name": "_newImpl",
          "type": "address"
        }
      ],
      "name": "upgradeFTDAOLogicImplementation",
      "outputs": [],
      "stateMutability": "nonpayable",
      "type": "function"
    },
    {
      "inputs": [
        {
          "components": [
            {
              "internalType": "address",
              "name": "tokenTransferLogic",
              "type": "address"
            },
            {
              "internalType": "address",
              "name": "textLogic",
              "type": "address"
            },
            {
              "internalType": "address",
              "name": "contractUpgradeLogic",
              "type": "address"
            },
            {
              "internalType": "address",
              "name": "createTokenLogic",
              "type": "address"
            }
          ],
          "internalType": "struct ISharedDAOModel.Governor",
          "name": "_newImpl",
          "type": "tuple"
        }
      ],
      "name": "upgradeGovernorsImplementation",
      "outputs": [],
      "stateMutability": "nonpayable",
      "type": "function"
    },
    {
      "inputs": [
        {
          "internalType": "contract IHederaService",
          "name": "newHederaService",
          "type": "address"
        }
      ],
      "name": "upgradeHederaService",
      "outputs": [],
      "stateMutability": "nonpayable",
      "type": "function"
    },
    {
      "inputs": [
        {
          "internalType": "contract ITokenHolderFactory",
          "name": "_newTokenHolderFactory",
          "type": "address"
        }
      ],
      "name": "upgradeTokenHolderFactory",
      "outputs": [],
      "stateMutability": "nonpayable",
      "type": "function"
    }
  ],
  "bytecode": "0x608060405234801561001057600080fd5b50612534806100206000396000f3fe60806040523480156200001157600080fd5b50600436106200008e5760003560e01c806331878601146200009357806340af810a14620000ac578063415cc7dd14620000db5780636dab6f7514620000f457806374d4443414620001065780639edd88eb146200011d578063a860b8951462000134578063d26d681f146200014b578063f7f49f0c1462000162575b600080fd5b620000aa620000a436600462000cfd565b62000174565b005b620000c3620000bd36600462000f01565b6200024f565b604051620000d291906200107d565b60405180910390f35b620000e5620004fa565b604051620000d2919062001091565b6007546001600160a01b0316620000c3565b620000aa6200011736600462000cfd565b6200055e565b620000aa6200012e36600462001153565b62000646565b620000aa62000145366004620011cd565b62000947565b620000aa6200015c36600462000cfd565b62000a52565b6008546001600160a01b0316620000c3565b600954604051637ae09f4d60e01b81526001600160a01b0390911690637ae09f4d90620001a69033906004016200107d565b60006040518083038186803b158015620001bf57600080fd5b505afa158015620001d4573d6000803e3d6000fd5b50506002546040805180820182526005815264465444414f60d81b602082015290516001600160a01b0386811695509092169250600080516020620024bf8339815191529162000225919062001234565b60405180910390a3600280546001600160a01b0319166001600160a01b0392909216919091179055565b60808101516000906001600160a01b0316620002bd5760405163d647364f60e01b815260206004820152602160248201527f44414f466163746f72793a20746f6b656e2061646472657373206973207a65726044820152606f60f81b60648201526084015b60405180910390fd5b8160e001516000036200031e5760405163d647364f60e01b815260206004820152602160248201527f44414f466163746f72793a20766f74696e6720706572696f64206973207a65726044820152606f60f81b6064820152608401620002b4565b600854608083015160405163d7fbaa1960e01b81526000926001600160a01b03169163d7fbaa19916200035591906004016200107d565b6020604051808303816000875af115801562000375573d6000803e3d6000fd5b505050506040513d601f19601f820116820180604052508101906200039b919062001249565b90506000620003ab848362000b35565b90506000819050600080600080846001600160a01b03166352323f016040518163ffffffff1660e01b8152600401608060405180830381865afa158015620003f7573d6000803e3d6000fd5b505050506040513d601f19601f820116820180604052508101906200041d919062001269565b93509350935093508861010001516200047b576001805480820182556000919091527fb10e2d527612073b26eecdfd717e6a320cf44b4afac2b0732d9fcbe2b7fa0cf60180546001600160a01b0319166001600160a01b0388161790555b6200048562000caf565b6001600160a01b03808616825283811660408084019190915285821660208401529083166060830152517f1f95d54723af2ab52782a973d34d64994286fea67a9f635c11c2452d048b7b5490620004e490899084908c908f906200144f565b60405180910390a1509498975050505050505050565b606060018054806020026020016040519081016040528092919081815260200182805480156200055457602002820191906000526020600020905b81546001600160a01b0316815260019091019060200180831162000535575b5050505050905090565b600954604051637ae09f4d60e01b81526001600160a01b0390911690637ae09f4d90620005909033906004016200107d565b60006040518083038186803b158015620005a957600080fd5b505afa158015620005be573d6000803e3d6000fd5b50506008546040805180820182526012815271546f6b656e486f6c646572466163746f727960701b602082015290516001600160a01b0386811695509092169250600080516020620024bf833981519152916200061c919062001234565b60405180910390a3600880546001600160a01b0319166001600160a01b0392909216919091179055565b600054610100900460ff1615808015620006675750600054600160ff909116105b80620006835750303b15801562000683575060005460ff166001145b620006e85760405162461bcd60e51b815260206004820152602e60248201527f496e697469616c697a61626c653a20636f6e747261637420697320616c72656160448201526d191e481a5b9a5d1a585b1a5e995960921b6064820152608401620002b4565b6000805460ff1916600117905580156200070c576000805461ff0019166101001790555b600980546001600160a01b03199081166001600160a01b038981169190911790925560078054821688841617905560028054821687841690811790915560088054831687851617905584516003805484169185169190911790556020808601516004805485169186169190911790556040808701516005805486169187169190911781556060880151600680549096169616959095179093558251808401845293845264465444414f60d81b9084015290519091600091600080516020620024bf83398151915291620007df9162001234565b60405180910390a36008546040805180820182526012815271546f6b656e486f6c646572466163746f727960701b602082015290516001600160a01b0390921691600091600080516020620024bf8339815191529162000840919062001234565b60405180910390a3600754604080518082018252600d81526c4865646572615365727669636560981b602082015290516001600160a01b0390921691600091600080516020620024bf833981519152916200089c919062001234565b60405180910390a3620008ae62000caf565b6040805180820182526009815268476f7665726e6f727360b81b60208201529051600080516020620024df83398151915291620008ef91849187916200148d565b60405180910390a15080156200093f576000805461ff0019169055604051600181527f7f26b83ff96e1f2b6a682f133852f6798a09c465da95921460cefb38474024989060200160405180910390a15b505050505050565b600954604051637ae09f4d60e01b81526001600160a01b0390911690637ae09f4d90620009799033906004016200107d565b60006040518083038186803b1580156200099257600080fd5b505afa158015620009a7573d6000803e3d6000fd5b50506040805180820182526009815268476f7665726e6f727360b81b60208201529051600080516020620024df8339815191529350620009ed92506003918591620014f8565b60405180910390a18051600380546001600160a01b03199081166001600160a01b039384161790915560208301516004805483169184169190911790556040830151600580548316918416919091179055606090920151600680549093169116179055565b600954604051637ae09f4d60e01b81526001600160a01b0390911690637ae09f4d9062000a849033906004016200107d565b60006040518083038186803b15801562000a9d57600080fd5b505afa15801562000ab2573d6000803e3d6000fd5b5050600754604080518082018252600d81526c4865646572615365727669636560981b602082015290516001600160a01b0386811695509092169250600080516020620024bf8339815191529162000b0b919062001234565b60405180910390a3600780546001600160a01b0319166001600160a01b0392909216919091179055565b600254600090819062000b51906001600160a01b031662000be5565b6040805180820182526007546001600160a01b0390811682528681166020830152600954925163a8b1cc4360e01b815293945090928185169263a8b1cc439262000ba8928a92600392889291169060040162001509565b600060405180830381600087803b15801562000bc357600080fd5b505af115801562000bd8573d6000803e3d6000fd5b5093979650505050505050565b600080600960009054906101000a90046001600160a01b03166001600160a01b0316635d0629226040518163ffffffff1660e01b8152600401608060405180830381865afa15801562000c3c573d6000803e3d6000fd5b505050506040513d601f19601f8201168201806040525081019062000c62919062001563565b602001519050606083828260405162000c7b9062000cd6565b62000c8993929190620015d5565b604051809103906000f08015801562000ca6573d6000803e3d6000fd5b50949350505050565b60408051608081018252600080825260208201819052918101829052606081019190915290565b610eb2806200160d83390190565b6001600160a01b038116811462000cfa57600080fd5b50565b60006020828403121562000d1057600080fd5b813562000d1d8162000ce4565b9392505050565b634e487b7160e01b600052604160045260246000fd5b60405161016081016001600160401b038111828210171562000d605762000d6062000d24565b60405290565b604051608081016001600160401b038111828210171562000d605762000d6062000d24565b604051601f8201601f191681016001600160401b038111828210171562000db65762000db662000d24565b604052919050565b803562000dcb8162000ce4565b919050565b600082601f83011262000de257600080fd5b81356001600160401b0381111562000dfe5762000dfe62000d24565b62000e13601f8201601f191660200162000d8b565b81815284602083860101111562000e2957600080fd5b816020850160208301376000918101602001919091529392505050565b8035801515811462000dcb57600080fd5b600082601f83011262000e6957600080fd5b813560206001600160401b038083111562000e885762000e8862000d24565b8260051b62000e9983820162000d8b565b938452858101830193838101908886111562000eb457600080fd5b84880192505b8583101562000ef55782358481111562000ed45760008081fd5b62000ee48a87838c010162000dd0565b835250918401919084019062000eba565b98975050505050505050565b60006020828403121562000f1457600080fd5b81356001600160401b038082111562000f2c57600080fd5b90830190610160828603121562000f4257600080fd5b62000f4c62000d3a565b62000f578362000dbe565b815260208301358281111562000f6c57600080fd5b62000f7a8782860162000dd0565b60208301525060408301358281111562000f9357600080fd5b62000fa18782860162000dd0565b60408301525060608301358281111562000fba57600080fd5b62000fc88782860162000dd0565b60608301525062000fdc6080840162000dbe565b608082015260a083013560a082015260c083013560c082015260e083013560e08201526101006200100f81850162000e46565b9082015261012083810135838111156200102857600080fd5b620010368882870162000dd0565b82840152505061014080840135838111156200105157600080fd5b6200105f8882870162000e57565b918301919091525095945050505050565b6001600160a01b03169052565b6001600160a01b0391909116815260200190565b6020808252825182820181905260009190848201906040850190845b81811015620010d45783516001600160a01b031683529284019291840191600101620010ad565b50909695505050505050565b600060808284031215620010f357600080fd5b620010fd62000d66565b905081356200110c8162000ce4565b815260208201356200111e8162000ce4565b60208201526040820135620011338162000ce4565b60408201526060820135620011488162000ce4565b606082015292915050565b600080600080600061010086880312156200116d57600080fd5b85356200117a8162000ce4565b945060208601356200118c8162000ce4565b935060408601356200119e8162000ce4565b92506060860135620011b08162000ce4565b9150620011c18760808801620010e0565b90509295509295909350565b600060808284031215620011e057600080fd5b62000d1d8383620010e0565b6000815180845260005b818110156200121457602081850181015186830182015201620011f6565b506000602082860101526020601f19601f83011685010191505092915050565b60208152600062000d1d6020830184620011ec565b6000602082840312156200125c57600080fd5b815162000d1d8162000ce4565b600080600080608085870312156200128057600080fd5b84516200128d8162000ce4565b6020860151909450620012a08162000ce4565b6040860151909350620012b38162000ce4565b6060860151909250620012c68162000ce4565b939692955090935050565b80516001600160a01b03908116835260208083015182169084015260408083015182169084015260609182015116910152565b600081518084526020808501808196508360051b8101915082860160005b85811015620013505782840389526200133d848351620011ec565b9885019893509084019060010162001322565b5091979650505050505050565b60006101606200136f84845162001070565b60208301518160208601526200138882860182620011ec565b91505060408301518482036040860152620013a48282620011ec565b91505060608301518482036060860152620013c08282620011ec565b9150506080830151620013d7608086018262001070565b5060a083015160a085015260c083015160c085015260e083015160e0850152610100808401516200140b8287018215159052565b50506101208084015185830382870152620014278382620011ec565b92505050610140808401518583038287015262001445838262001304565b9695505050505050565b6001600160a01b0385811682526000906200146e6020840187620012d1565b80851660a08401525060e060c08301526200144560e08301846200135d565b60006101206200149e8387620012d1565b620014ad6080840186620012d1565b806101008401526200144581840185620011ec565b80546001600160a01b03908116835260018201548116602084015260028201548116604084015260039091015416606090910152565b60006101206200149e8387620014c2565b60006101008083526200151f818401886200135d565b915050620015316020830186620014c2565b83516001600160a01b0390811660a0840152602090940151841660c08301529190921660e09092019190915292915050565b6000608082840312156200157657600080fd5b6200158062000d66565b82516200158d8162000ce4565b815260208301516200159f8162000ce4565b60208201526040830151620015b48162000ce4565b60408201526060830151620015c98162000ce4565b60608201529392505050565b6001600160a01b038481168252831660208201526060604082018190526000906200160390830184620011ec565b9594505050505056fe608060405260405162000eb238038062000eb2833981016040819052620000269162000497565b828162000036828260006200004d565b50620000449050826200008a565b505050620005ca565b6200005883620000e5565b600082511180620000665750805b1562000085576200008383836200012760201b620001691760201c565b505b505050565b7f7e644d79422f17c01e4894b5f4f588d331ebfa28653d42ae832dc59e38c9798f620000b562000156565b604080516001600160a01b03928316815291841660208301520160405180910390a1620000e2816200018f565b50565b620000f08162000244565b6040516001600160a01b038216907fbc7cd75a20ee27fd9adebab32041f755214dbc6bffa90cc0225b39da2e5c2d3b90600090a250565b60606200014f838360405180606001604052806027815260200162000e8b60279139620002f8565b9392505050565b60006200018060008051602062000e6b83398151915260001b6200037760201b620001951760201c565b546001600160a01b0316919050565b6001600160a01b038116620001fa5760405162461bcd60e51b815260206004820152602660248201527f455243313936373a206e65772061646d696e20697320746865207a65726f206160448201526564647265737360d01b60648201526084015b60405180910390fd5b806200022360008051602062000e6b83398151915260001b6200037760201b620001951760201c565b80546001600160a01b0319166001600160a01b039290921691909117905550565b6200025a816200037a60201b620001981760201c565b620002be5760405162461bcd60e51b815260206004820152602d60248201527f455243313936373a206e657720696d706c656d656e746174696f6e206973206e60448201526c1bdd08184818dbdb9d1c9858dd609a1b6064820152608401620001f1565b80620002237f360894a13ba1a3210667c828492db98dca3e2076cc3735a920a3ca505d382bbc60001b6200037760201b620001951760201c565b6060600080856001600160a01b03168560405162000317919062000577565b600060405180830381855af49150503d806000811462000354576040519150601f19603f3d011682016040523d82523d6000602084013e62000359565b606091505b5090925090506200036d8683838762000389565b9695505050505050565b90565b6001600160a01b03163b151590565b60608315620003fd578251600003620003f557620003a7856200037a565b620003f55760405162461bcd60e51b815260206004820152601d60248201527f416464726573733a2063616c6c20746f206e6f6e2d636f6e74726163740000006044820152606401620001f1565b508162000409565b62000409838362000411565b949350505050565b815115620004225781518083602001fd5b8060405162461bcd60e51b8152600401620001f1919062000595565b80516001600160a01b03811681146200045657600080fd5b919050565b634e487b7160e01b600052604160045260246000fd5b60005b838110156200048e57818101518382015260200162000474565b50506000910152565b600080600060608486031215620004ad57600080fd5b620004b8846200043e565b9250620004c8602085016200043e565b60408501519092506001600160401b0380821115620004e657600080fd5b818601915086601f830112620004fb57600080fd5b8151818111156200051057620005106200045b565b604051601f8201601f19908116603f011681019083821181831017156200053b576200053b6200045b565b816040528281528960208487010111156200055557600080fd5b6200056883602083016020880162000471565b80955050505050509250925092565b600082516200058b81846020870162000471565b9190910192915050565b6020815260008251806020840152620005b681604085016020870162000471565b601f01601f19169190910160400192915050565b61089180620005da6000396000f3fe60806040523661001357610011610017565b005b6100115b61001f6101a7565b6001600160a01b0316330361015f5760606001600160e01b0319600035166364d3180d60e11b810161005a576100536101c8565b9150610157565b63587086bd60e11b6001600160e01b031982160161007a5761005361021f565b63070d7c6960e41b6001600160e01b031982160161009a57610053610265565b621eb96f60e61b6001600160e01b03198216016100b957610053610296565b63a39f25e560e01b6001600160e01b03198216016100d9576100536102d6565b60405162461bcd60e51b815260206004820152604260248201527f5472616e73706172656e745570677261646561626c6550726f78793a2061646d60448201527f696e2063616e6e6f742066616c6c6261636b20746f2070726f78792074617267606482015261195d60f21b608482015260a4015b60405180910390fd5b815160208301f35b6101676102ea565b565b606061018e8383604051806060016040528060278152602001610835602791396102fa565b9392505050565b90565b6001600160a01b03163b151590565b60006000805160206107f58339815191525b546001600160a01b0316919050565b60606101d2610372565b60006101e13660048184610649565b8101906101ee919061068f565b905061020b8160405180602001604052806000815250600061037d565b505060408051602081019091526000815290565b60606000806102313660048184610649565b81019061023e91906106c0565b9150915061024e8282600161037d565b604051806020016040528060008152509250505090565b606061026f610372565b600061027e3660048184610649565b81019061028b919061068f565b905061020b816103a9565b60606102a0610372565b60006102aa6101a7565b604080516001600160a01b03831660208201529192500160405160208183030381529060405291505090565b60606102e0610372565b60006102aa610400565b6101676102f5610400565b61040f565b6060600080856001600160a01b03168560405161031791906107a5565b600060405180830381855af49150503d8060008114610352576040519150601f19603f3d011682016040523d82523d6000602084013e610357565b606091505b509150915061036886838387610433565b9695505050505050565b341561016757600080fd5b610386836104b2565b6000825111806103935750805b156103a4576103a28383610169565b505b505050565b7f7e644d79422f17c01e4894b5f4f588d331ebfa28653d42ae832dc59e38c9798f6103d26101a7565b604080516001600160a01b03928316815291841660208301520160405180910390a16103fd816104f2565b50565b600061040a610589565b905090565b3660008037600080366000845af43d6000803e80801561042e573d6000f35b3d6000fd5b606083156104a05782516000036104995761044d85610198565b6104995760405162461bcd60e51b815260206004820152601d60248201527f416464726573733a2063616c6c20746f206e6f6e2d636f6e7472616374000000604482015260640161014e565b50816104aa565b6104aa838361059f565b949350505050565b6104bb816105c9565b6040516001600160a01b038216907fbc7cd75a20ee27fd9adebab32041f755214dbc6bffa90cc0225b39da2e5c2d3b90600090a250565b6001600160a01b0381166105575760405162461bcd60e51b815260206004820152602660248201527f455243313936373a206e65772061646d696e20697320746865207a65726f206160448201526564647265737360d01b606482015260840161014e565b806000805160206107f58339815191525b80546001600160a01b0319166001600160a01b039290921691909117905550565b60006000805160206108158339815191526101b9565b8151156105af5781518083602001fd5b8060405162461bcd60e51b815260040161014e91906107c1565b6105d281610198565b6106345760405162461bcd60e51b815260206004820152602d60248201527f455243313936373a206e657720696d706c656d656e746174696f6e206973206e60448201526c1bdd08184818dbdb9d1c9858dd609a1b606482015260840161014e565b80600080516020610815833981519152610568565b6000808585111561065957600080fd5b8386111561066657600080fd5b5050820193919092039150565b80356001600160a01b038116811461068a57600080fd5b919050565b6000602082840312156106a157600080fd5b61018e82610673565b634e487b7160e01b600052604160045260246000fd5b600080604083850312156106d357600080fd5b6106dc83610673565b915060208301356001600160401b03808211156106f857600080fd5b818501915085601f83011261070c57600080fd5b81358181111561071e5761071e6106aa565b604051601f8201601f19908116603f01168101908382118183101715610746576107466106aa565b8160405282815288602084870101111561075f57600080fd5b8260208601602083013760006020848301015280955050505050509250929050565b60005b8381101561079c578181015183820152602001610784565b50506000910152565b600082516107b7818460208701610781565b9190910192915050565b60208152600082518060208401526107e0816040850160208701610781565b601f01601f1916919091016040019291505056feb53127684a568b3173ae13b9f8a6016e243e63b6e8ee1178d6a717850b5d6103360894a13ba1a3210667c828492db98dca3e2076cc3735a920a3ca505d382bbc416464726573733a206c6f772d6c6576656c2064656c65676174652063616c6c206661696c6564a2646970667358221220620b02c16977e4bc46dc8e126676654738ae0c6dcb3ade55e68906b6b7d90c2164736f6c63430008120033b53127684a568b3173ae13b9f8a6016e243e63b6e8ee1178d6a717850b5d6103416464726573733a206c6f772d6c6576656c2064656c65676174652063616c6c206661696c6564cf9d4a2ff924c5f3553e3c8485e6bc24fde822593d2c3d78c8fabaada123f8f6429e3348bcf9d2e60a6a73d63d94bf646cbe299ed56df8317bee87dcd030a666a2646970667358221220a82fd097fa8f012f6c6dd8a3e7f4555f815d1cd469490eb5ee331d6b54ac346d64736f6c63430008120033",
  "linkReferences": {},
  "deployedLinkReferences": {}
}