{
  "_format": "hh-sol-artifact-1",
  "contractName": "NFTDAOFactory",
  "sourceName": "contracts/dao/NFTDAOFactory.sol",
  "abi": [
    {
      "inputs": [
        {
          "internalType": "string",
          "name": "message",
          "type": "string"
        }
      ],
      "name": "InvalidInput",
      "type": "error"
    },
    {
      "anonymous": false,
      "inputs": [
        {
          "indexed": false,
          "internalType": "address",
          "name": "tokenHolderAddress",
          "type": "address"
        },
        {
          "indexed": false,
          "internalType": "address",
          "name": "assetsHolderAddress",
          "type": "address"
        },
        {
          "indexed": false,
          "internalType": "address",
          "name": "governorAddress",
          "type": "address"
        },
        {
          "indexed": false,
          "internalType": "address",
          "name": "daoAddress",
          "type": "address"
        },
        {
          "components": [
            {
              "internalType": "address",
              "name": "admin",
              "type": "address"
            },
            {
              "internalType": "string",
              "name": "name",
              "type": "string"
            },
            {
              "internalType": "string",
              "name": "logoUrl",
              "type": "string"
            },
            {
              "internalType": "string",
              "name": "infoUrl",
              "type": "string"
            },
            {
              "internalType": "address",
              "name": "tokenAddress",
              "type": "address"
            },
            {
              "internalType": "uint256",
              "name": "quorumThreshold",
              "type": "uint256"
            },
            {
              "internalType": "uint256",
              "name": "votingDelay",
              "type": "uint256"
            },
            {
              "internalType": "uint256",
              "name": "votingPeriod",
              "type": "uint256"
            },
            {
              "internalType": "bool",
              "name": "isPrivate",
              "type": "bool"
            },
            {
              "internalType": "string",
              "name": "description",
              "type": "string"
            },
            {
              "internalType": "string[]",
              "name": "webLinks",
              "type": "string[]"
            }
          ],
          "indexed": false,
          "internalType": "struct ISharedModel.CreateDAOInputs",
          "name": "inputs",
          "type": "tuple"
        }
      ],
      "name": "DAOCreated",
      "type": "event"
    },
    {
      "anonymous": false,
      "inputs": [
        {
          "indexed": true,
          "internalType": "address",
          "name": "previousController",
          "type": "address"
        },
        {
          "indexed": true,
          "internalType": "address",
          "name": "newController",
          "type": "address"
        }
      ],
      "name": "FeeConfigControllerChanged",
      "type": "event"
    },
    {
      "anonymous": false,
      "inputs": [
        {
          "components": [
            {
              "internalType": "address",
              "name": "receiver",
              "type": "address"
            },
            {
              "internalType": "address",
              "name": "tokenAddress",
              "type": "address"
            },
            {
              "internalType": "uint256",
              "name": "amountOrId",
              "type": "uint256"
            }
          ],
          "indexed": false,
          "internalType": "struct ISharedModel.FeeConfig",
          "name": "feeConfig",
          "type": "tuple"
        }
      ],
      "name": "FeeConfigUpdated",
      "type": "event"
    },
    {
      "anonymous": false,
      "inputs": [
        {
          "indexed": false,
          "internalType": "uint8",
          "name": "version",
          "type": "uint8"
        }
      ],
      "name": "Initialized",
      "type": "event"
    },
    {
      "anonymous": false,
      "inputs": [
        {
          "indexed": true,
          "internalType": "address",
          "name": "oldImplementation",
          "type": "address"
        },
        {
          "indexed": true,
          "internalType": "address",
          "name": "newImplementation",
          "type": "address"
        },
        {
          "indexed": false,
          "internalType": "string",
          "name": "name",
          "type": "string"
        }
      ],
      "name": "LogicUpdated",
      "type": "event"
    },
    {
      "inputs": [
        {
          "internalType": "address",
          "name": "_newController",
          "type": "address"
        }
      ],
      "name": "changeFeeConfigController",
      "outputs": [],
      "stateMutability": "nonpayable",
      "type": "function"
    },
    {
      "inputs": [
        {
          "internalType": "address",
          "name": "_newController",
          "type": "address"
        }
      ],
      "name": "changeFeeConfigControllerViaProposal",
      "outputs": [],
      "stateMutability": "nonpayable",
      "type": "function"
    },
    {
      "inputs": [
        {
          "components": [
            {
              "internalType": "address",
              "name": "admin",
              "type": "address"
            },
            {
              "internalType": "string",
              "name": "name",
              "type": "string"
            },
            {
              "internalType": "string",
              "name": "logoUrl",
              "type": "string"
            },
            {
              "internalType": "string",
              "name": "infoUrl",
              "type": "string"
            },
            {
              "internalType": "address",
              "name": "tokenAddress",
              "type": "address"
            },
            {
              "internalType": "uint256",
              "name": "quorumThreshold",
              "type": "uint256"
            },
            {
              "internalType": "uint256",
              "name": "votingDelay",
              "type": "uint256"
            },
            {
              "internalType": "uint256",
              "name": "votingPeriod",
              "type": "uint256"
            },
            {
              "internalType": "bool",
              "name": "isPrivate",
              "type": "bool"
            },
            {
              "internalType": "string",
              "name": "description",
              "type": "string"
            },
            {
              "internalType": "string[]",
              "name": "webLinks",
              "type": "string[]"
            }
          ],
          "internalType": "struct ISharedModel.CreateDAOInputs",
          "name": "_createDAOInputs",
          "type": "tuple"
        }
      ],
      "name": "createDAO",
      "outputs": [
        {
          "internalType": "address",
          "name": "tokenHolderAddress",
          "type": "address"
        },
        {
          "internalType": "address",
          "name": "assetsHolderAddress",
          "type": "address"
        },
        {
          "internalType": "address",
          "name": "governorAddress",
          "type": "address"
        },
        {
          "internalType": "address",
          "name": "daoAddress",
          "type": "address"
        }
      ],
      "stateMutability": "payable",
      "type": "function"
    },
    {
      "inputs": [],
      "name": "feeConfig",
      "outputs": [
        {
          "internalType": "address",
          "name": "receiver",
          "type": "address"
        },
        {
          "internalType": "address",
          "name": "tokenAddress",
          "type": "address"
        },
        {
          "internalType": "uint256",
          "name": "amountOrId",
          "type": "uint256"
        }
      ],
      "stateMutability": "view",
      "type": "function"
    },
    {
      "inputs": [],
      "name": "getDAOs",
      "outputs": [
        {
          "internalType": "address[]",
          "name": "",
          "type": "address[]"
        }
      ],
      "stateMutability": "view",
      "type": "function"
    },
    {
      "inputs": [],
      "name": "getHederaServiceVersion",
      "outputs": [
        {
          "internalType": "contract IHederaService",
          "name": "",
          "type": "address"
        }
      ],
      "stateMutability": "view",
      "type": "function"
    },
    {
      "inputs": [],
      "name": "getTokenHolderFactoryAddress",
      "outputs": [
        {
          "internalType": "address",
          "name": "",
          "type": "address"
        }
      ],
      "stateMutability": "view",
      "type": "function"
    },
    {
      "inputs": [],
      "name": "iSystemRoleBasedAccess",
      "outputs": [
        {
          "internalType": "contract ISystemRoleBasedAccess",
          "name": "",
          "type": "address"
        }
      ],
      "stateMutability": "view",
      "type": "function"
    },
    {
      "inputs": [
        {
          "internalType": "address",
          "name": "_daoLogic",
          "type": "address"
        },
        {
          "internalType": "address",
          "name": "_governorLogic",
          "type": "address"
        },
        {
          "internalType": "address",
          "name": "_assetsHolderLogic",
          "type": "address"
        },
        {
          "internalType": "contract IHederaService",
          "name": "_hederaService",
          "type": "address"
        },
        {
          "components": [
            {
              "internalType": "address",
              "name": "receiver",
              "type": "address"
            },
            {
              "internalType": "address",
              "name": "tokenAddress",
              "type": "address"
            },
            {
              "internalType": "uint256",
              "name": "amountOrId",
              "type": "uint256"
            }
          ],
          "internalType": "struct ISharedModel.FeeConfig",
          "name": "_feeConfig",
          "type": "tuple"
        },
        {
          "internalType": "contract ITokenHolderFactory",
          "name": "_tokenHolderFactory",
          "type": "address"
        },
        {
          "internalType": "contract ISystemRoleBasedAccess",
          "name": "_iSystemRoleBasedAccess",
          "type": "address"
        }
      ],
      "name": "initialize",
      "outputs": [],
      "stateMutability": "nonpayable",
      "type": "function"
    },
    {
      "inputs": [
        {
          "components": [
            {
              "internalType": "address",
              "name": "receiver",
              "type": "address"
            },
            {
              "internalType": "address",
              "name": "tokenAddress",
              "type": "address"
            },
            {
              "internalType": "uint256",
              "name": "amountOrId",
              "type": "uint256"
            }
          ],
          "internalType": "struct ISharedModel.FeeConfig",
          "name": "_feeConfig",
          "type": "tuple"
        }
      ],
      "name": "updateFeeConfig",
      "outputs": [],
      "stateMutability": "nonpayable",
      "type": "function"
    },
    {
      "inputs": [
        {
          "internalType": "address",
          "name": "_assetsHolderLogic",
          "type": "address"
        }
      ],
      "name": "upgradeAssetHolderImplementation",
      "outputs": [],
      "stateMutability": "nonpayable",
      "type": "function"
    },
    {
      "inputs": [
        {
          "internalType": "address",
          "name": "_daoLogic",
          "type": "address"
        }
      ],
      "name": "upgradeDAOLogicImplementation",
      "outputs": [],
      "stateMutability": "nonpayable",
      "type": "function"
    },
    {
      "inputs": [
        {
          "internalType": "address",
          "name": "_governorLogic",
          "type": "address"
        }
      ],
      "name": "upgradeGovernorImplementation",
      "outputs": [],
      "stateMutability": "nonpayable",
      "type": "function"
    },
    {
      "inputs": [
        {
          "internalType": "contract IHederaService",
          "name": "_hederaService",
          "type": "address"
        }
      ],
      "name": "upgradeHederaService",
      "outputs": [],
      "stateMutability": "nonpayable",
      "type": "function"
    },
    {
      "inputs": [
        {
          "internalType": "contract ISystemRoleBasedAccess",
          "name": "_iSystemRoleBasedAccess",
          "type": "address"
        }
      ],
      "name": "upgradeISystemRoleBasedAccess",
      "outputs": [],
      "stateMutability": "nonpayable",
      "type": "function"
    },
    {
      "inputs": [
        {
          "internalType": "contract ITokenHolderFactory",
          "name": "_tokenHolderFactory",
          "type": "address"
        }
      ],
      "name": "upgradeTokenHolderFactory",
      "outputs": [],
      "stateMutability": "nonpayable",
      "type": "function"
    }
  ],
  "bytecode": "0x608060405234801561001057600080fd5b5061001961001e565b6100dd565b600054610100900460ff161561008a5760405162461bcd60e51b815260206004820152602760248201527f496e697469616c697a61626c653a20636f6e747261637420697320696e697469604482015266616c697a696e6760c81b606482015260840160405180910390fd5b60005460ff908116146100db576000805460ff191660ff9081179091556040519081527f7f26b83ff96e1f2b6a682f133852f6798a09c465da95921460cefb38474024989060200160405180910390a15b565b61328a80620000ed6000396000f3fe608060405260043610620000d45760003560e01c80631e5eb1d014620000d957806340af810a1462000120578063415cc7dd146200016b578063471ebd6514620001925780636dab6f7514620001b957806374d4443414620001e35780637c27c66c14620002085780637c3ad0bc146200022d5780638fd9007f14620002525780639127b2971462000277578063932e57b1146200029c578063958dc16314620002be578063c0e96bc214620002e3578063d26d681f1462000308578063efa6f425146200032d578063f7f49f0c1462000352575b600080fd5b348015620000e657600080fd5b5060015460025460035462000106926001600160a01b0390811692169083565b604051620001179392919062001a7e565b60405180910390f35b620001376200013136600462001c7b565b62000372565b604080516001600160a01b039586168152938516602085015291841691830191909152909116606082015260800162000117565b3480156200017857600080fd5b50620001836200052a565b60405162000117919062001dea565b3480156200019f57600080fd5b50620001b7620001b136600462001e39565b6200058e565b005b348015620001c657600080fd5b50603b546001600160a01b03165b60405162000117919062001e60565b348015620001f057600080fd5b50620001b76200020236600462001e39565b62000670565b3480156200021557600080fd5b50620001b76200022736600462001ee7565b62000758565b3480156200023a57600080fd5b50620001b76200024c36600462001e39565b62000a86565b3480156200025f57600080fd5b50620001b76200027136600462001e39565b62000b66565b3480156200028457600080fd5b50620001b76200029636600462001e39565b62000c51565b348015620002a957600080fd5b50600554620001d4906001600160a01b031681565b348015620002cb57600080fd5b50620001b7620002dd36600462001e39565b62000cb9565b348015620002f057600080fd5b50620001b76200030236600462001e39565b62000d94565b3480156200031557600080fd5b50620001b76200032736600462001e39565b62000e75565b3480156200033a57600080fd5b50620001b76200034c36600462001f8d565b62000f58565b3480156200035f57600080fd5b50603c546001600160a01b0316620001d4565b60008060008060006001600160a01b031685608001516001600160a01b031603620003ef5760405163d647364f60e01b815260206004820152602160248201527f44414f466163746f72793a20746f6b656e2061646472657373206973207a65726044820152606f60f81b60648201526084015b60405180910390fd5b8460e00151600003620004505760405163d647364f60e01b815260206004820152602160248201527f44414f466163746f72793a20766f74696e6720706572696f64206973207a65726044820152606f60f81b6064820152608401620003e6565b6200045f856080015162000fb1565b603b5462000476906001600160a01b031662001030565b620004818562001140565b61010089015193975091955093509150620004e257603780546001810182556000919091527f42a7b7dd785cd69714a189dffb3fd7d7174edc9ece837694ce50f7078f7c31ae0180546001600160a01b0319166001600160a01b0383161790555b7fa291e38e5cf3fa3672a23adca1b59e946a0afeb64b0cbdcca01998ee46e489a784848484896040516200051b9594939291906200213f565b60405180910390a19193509193565b606060378054806020026020016040519081016040528092919081815260200182805480156200058457602002820191906000526020600020905b81546001600160a01b0316815260019091019060200180831162000565575b5050505050905090565b600554604051637ae09f4d60e01b81526001600160a01b0390911690637ae09f4d90620005c090339060040162001e60565b60006040518083038186803b158015620005d957600080fd5b505afa158015620005ee573d6000803e3d6000fd5b5050603a54604080518082018252600c81526b20b9b9b2ba39a437b63232b960a11b602082015290516001600160a01b038681169550909216925060008051602062003235833981519152916200064691906200217d565b60405180910390a3603a80546001600160a01b0319166001600160a01b0392909216919091179055565b600554604051637ae09f4d60e01b81526001600160a01b0390911690637ae09f4d90620006a290339060040162001e60565b60006040518083038186803b158015620006bb57600080fd5b505afa158015620006d0573d6000803e3d6000fd5b5050603c546040805180820182526012815271546f6b656e486f6c646572466163746f727960701b602082015290516001600160a01b038681169550909216925060008051602062003235833981519152916200072e91906200217d565b60405180910390a3603c80546001600160a01b0319166001600160a01b0392909216919091179055565b600054610100900460ff1615808015620007795750600054600160ff909116105b80620007955750303b15801562000795575060005460ff166001145b620007fa5760405162461bcd60e51b815260206004820152602e60248201527f496e697469616c697a61626c653a20636f6e747261637420697320616c72656160448201526d191e481a5b9a5d1a585b1a5e995960921b6064820152608401620003e6565b6000805460ff1916600117905580156200081e576000805461ff0019166101001790555b6200082a84836200136e565b603880546001600160a01b03808b166001600160a01b03199283168117909355603980548b8316908416179055603a80548a8316908416179055603b8054898316908416179055603c8054918716919092161790556040805180820182526005815264475f44414f60d81b602082015290516000916000805160206200323583398151915291620008bc91906200217d565b60405180910390a3603954604080518082018252600a815269476f7665726e616e636560b01b602082015290516001600160a01b039092169160009160008051602062003235833981519152916200091591906200217d565b60405180910390a3603a54604080518082018252600c81526b20b9b9b2ba39a437b63232b960a11b602082015290516001600160a01b039092169160009160008051602062003235833981519152916200097091906200217d565b60405180910390a3603b54604080518082018252600d81526c4865646572615365727669636560981b602082015290516001600160a01b03909216916000916000805160206200323583398151915291620009cc91906200217d565b60405180910390a3603c546040805180820182526012815271546f6b656e486f6c646572466163746f727960701b602082015290516001600160a01b0390921691600091600080516020620032358339815191529162000a2d91906200217d565b60405180910390a3801562000a7c576000805461ff0019169055604051600181527f7f26b83ff96e1f2b6a682f133852f6798a09c465da95921460cefb38474024989060200160405180910390a15b5050505050505050565b600554604051637ae09f4d60e01b81526001600160a01b0390911690637ae09f4d9062000ab890339060040162001e60565b60006040518083038186803b15801562000ad157600080fd5b505afa15801562000ae6573d6000803e3d6000fd5b5050603954604080518082018252600a815269476f7665726e616e636560b01b602082015290516001600160a01b0386811695509092169250600080516020620032358339815191529162000b3c91906200217d565b60405180910390a3603980546001600160a01b0319166001600160a01b0392909216919091179055565b600554604051634fee0ff160e01b81526001600160a01b0390911690634fee0ff19062000b9890339060040162001e60565b60006040518083038186803b15801562000bb157600080fd5b505afa15801562000bc6573d6000803e3d6000fd5b505050506001600160a01b038116330362000bf55760405162461bcd60e51b8152600401620003e69062002192565b6004546040516001600160a01b038084169216907fb6f25ccac2e112929ade9d1937d395e698bf375a04b9f7d4eb46c7cb1f95402790600090a3600480546001600160a01b0319166001600160a01b0392909216919091179055565b62000c5b62001461565b6001600160a01b0316336001600160a01b03161462000c8e5760405162461bcd60e51b8152600401620003e690620021c0565b6001600160a01b038116330362000bf55760405162461bcd60e51b8152600401620003e69062002192565b600554604051637ae09f4d60e01b81526001600160a01b0390911690637ae09f4d9062000ceb90339060040162001e60565b60006040518083038186803b15801562000d0457600080fd5b505afa15801562000d19573d6000803e3d6000fd5b50506038546040805180820182526005815264475f44414f60d81b602082015290516001600160a01b0386811695509092169250600080516020620032358339815191529162000d6a91906200217d565b60405180910390a3603880546001600160a01b0319166001600160a01b0392909216919091179055565b600554604051637ae09f4d60e01b81526001600160a01b0390911690637ae09f4d9062000dc690339060040162001e60565b60006040518083038186803b15801562000ddf57600080fd5b505afa15801562000df4573d6000803e3d6000fd5b5050600554604080518082018252600b81526a4953797374656d526f6c6560a81b602082015290516001600160a01b0386811695509092169250600080516020620032358339815191529162000e4b91906200217d565b60405180910390a3600580546001600160a01b0319166001600160a01b0392909216919091179055565b600554604051637ae09f4d60e01b81526001600160a01b0390911690637ae09f4d9062000ea790339060040162001e60565b60006040518083038186803b15801562000ec057600080fd5b505afa15801562000ed5573d6000803e3d6000fd5b5050603b54604080518082018252600d81526c4865646572615365727669636560981b602082015290516001600160a01b0386811695509092169250600080516020620032358339815191529162000f2e91906200217d565b60405180910390a3603b80546001600160a01b0319166001600160a01b0392909216919091179055565b62000f6262001461565b6001600160a01b0316336001600160a01b03161462000f955760405162461bcd60e51b8152600401620003e690620021c0565b62000fae81600001518260200151836040015162001470565b50565b603b5462000fc9906001600160a01b03168262001550565b151560011462000fae5760405162461bcd60e51b815260206004820152602b60248201527f44414f466163746f72793a20546f6b656e207479706520262044414f2074797060448201526a329036b4b9b6b0ba31b41760a91b6064820152608401620003e6565b6002546001600160a01b0316620010c5576003543414620010aa5760405162461bcd60e51b815260206004820152602d60248201527f46433a204842415220616d6f756e74206d7573742062652073616d6520746f2060448201526c18dbdb999a59c8185b5bdd5b9d609a1b6064820152608401620003e6565b60015460035462000fae916001600160a01b03169062001635565b600254600154600354600092620010ee9285926001600160a01b03928316923392169062001756565b9050601681146200113c5760405162461bcd60e51b81526020600482015260176024820152761190ce88119959481d1c985b9cd9995c8819985a5b1959604a1b6044820152606401620003e6565b5050565b6000806000806200116b60405180606001604052806000815260200160008152602001600081525090565b60c0860151815260e0860151602082015260a0860151604080830191909152603c546080880151915163d7fbaa1960e01b81526000926001600160a01b039092169163d7fbaa1991620011c2919060040162001e60565b6020604051808303816000875af1158015620011e2573d6000803e3d6000fd5b505050506040513d601f19601f82011682018060405250810190620012089190620021ee565b603a5490915060009062001225906001600160a01b031662001781565b60395490915060009062001242906001600160a01b031662001781565b603b5460055460408051634c7fdda760e01b815288516004820152602089015160248201529088015160448201526001600160a01b038781166064830152868116608483015292831660a482015290821660c4820152919250821690634c7fdda79060e401600060405180830381600087803b158015620012c257600080fd5b505af1158015620012d7573d6000803e3d6000fd5b505060385460009250620012f591506001600160a01b031662001781565b604051633a789e5360e01b81529091506001600160a01b03821690633a789e5390620013289085908e906004016200220e565b600060405180830381600087803b1580156200134357600080fd5b505af115801562001358573d6000803e3d6000fd5b50959c949b509299509097509195505050505050565b600054610100900460ff16620013db5760405162461bcd60e51b815260206004820152602b60248201527f496e697469616c697a61626c653a20636f6e7472616374206973206e6f74206960448201526a6e697469616c697a696e6760a81b6064820152608401620003e6565b620013f482600001518360200151846040015162001470565b600580546001600160a01b0319166001600160a01b038316908117909155604080518082018252600b81526a4953797374656d526f6c6560a81b6020820152905160009160008051602062003235833981519152916200145591906200217d565b60405180910390a35050565b6004546001600160a01b031690565b6000811180156200148957506001600160a01b03831615155b620014d55760405162461bcd60e51b815260206004820152601b60248201527a46433a20496e76616c69642066656520636f6e666967206461746160281b6044820152606401620003e6565b600180546001600160a01b038581166001600160a01b0319928316811790935560028054918616919092168117909155600383905560408051928352602083019190915281018290527febd34b2df88ea5c9f67c04b13b08e5e63c2d17e269aab73b866fe47a8736a2649060600160405180910390a1505050565b6000806000846001600160a01b0316635d2c5bad856040518263ffffffff1660e01b815260040162001583919062001e60565b60408051808303816000875af1158015620015a2573d6000803e3d6000fd5b505050506040513d601f19601f82011682018060405250810190620015c891906200223c565b91509150601660030b8260070b14620016245760405162461bcd60e51b815260206004820152601e60248201527f546f6b656e4f7065726174696f6e733a20696e76616c696420746f6b656e00006044820152606401620003e6565b8060030b6001149250505092915050565b80471015620016875760405162461bcd60e51b815260206004820152601d60248201527f416464726573733a20696e73756666696369656e742062616c616e63650000006044820152606401620003e6565b6000826001600160a01b03168260405160006040518083038185875af1925050503d8060008114620016d6576040519150601f19603f3d011682016040523d82523d6000602084013e620016db565b606091505b5050905080620017515760405162461bcd60e51b815260206004820152603a60248201527f416464726573733a20756e61626c6520746f2073656e642076616c75652c20726044820152791958da5c1a595b9d081b585e481a185d99481c995d995c9d195960321b6064820152608401620003e6565b505050565b60008062001765878762001550565b90506200177681878787876200184b565b979650505050505050565b600080600560009054906101000a90046001600160a01b03166001600160a01b0316635d0629226040518163ffffffff1660e01b815260040160a060405180830381865afa158015620017d8573d6000803e3d6000fd5b505050506040513d601f19601f82011682018060405250810190620017fe919062002286565b6020015190506060838282604051620018179062001a63565b62001825939291906200232b565b604051809103906000f08015801562001842573d6000803e3d6000fd5b50949350505050565b600080866200196157306001600160a01b03861614620018e3576040516323b872dd60e01b81526001600160a01b038716906323b872dd90620018979088908890889060040162001a7e565b6020604051808303816000875af1158015620018b7573d6000803e3d6000fd5b505050506040513d601f19601f82011682018060405250810190620018dd919062002362565b62001959565b60405163a9059cbb60e01b81526001600160a01b0385811660048301526024820185905287169063a9059cbb906044016020604051808303816000875af115801562001933573d6000803e3d6000fd5b505050506040513d601f19601f8201168201806040525081019062001959919062002362565b905062001a44565b6040516323b872dd60e01b81526001600160a01b038716906323b872dd90620019939088908890889060040162001a7e565b600060405180830381600087803b158015620019ae57600080fd5b505af1158015620019c3573d6000803e3d6000fd5b50506040516331a9108f60e11b8152600481018690526001600160a01b03878116935089169150636352211e90602401602060405180830381865afa15801562001a11573d6000803e3d6000fd5b505050506040513d601f19601f8201168201806040525081019062001a379190620021ee565b6001600160a01b03161490505b8062001a5257601562001a55565b60165b60030b979650505050505050565b610eb2806200238383390190565b6001600160a01b03169052565b6001600160a01b039384168152919092166020820152604081019190915260600190565b634e487b7160e01b600052604160045260246000fd5b60405161016081016001600160401b038111828210171562001ade5762001ade62001aa2565b60405290565b604051601f8201601f191681016001600160401b038111828210171562001b0f5762001b0f62001aa2565b604052919050565b6001600160a01b038116811462000fae57600080fd5b803562001b3a8162001b17565b919050565b600082601f83011262001b5157600080fd5b81356001600160401b0381111562001b6d5762001b6d62001aa2565b62001b82601f8201601f191660200162001ae4565b81815284602083860101111562001b9857600080fd5b816020850160208301376000918101602001919091529392505050565b801515811462000fae57600080fd5b803562001b3a8162001bb5565b600082601f83011262001be357600080fd5b813560206001600160401b038083111562001c025762001c0262001aa2565b8260051b62001c1383820162001ae4565b938452858101830193838101908886111562001c2e57600080fd5b84880192505b8583101562001c6f5782358481111562001c4e5760008081fd5b62001c5e8a87838c010162001b3f565b835250918401919084019062001c34565b98975050505050505050565b60006020828403121562001c8e57600080fd5b81356001600160401b038082111562001ca657600080fd5b90830190610160828603121562001cbc57600080fd5b62001cc662001ab8565b62001cd18362001b2d565b815260208301358281111562001ce657600080fd5b62001cf48782860162001b3f565b60208301525060408301358281111562001d0d57600080fd5b62001d1b8782860162001b3f565b60408301525060608301358281111562001d3457600080fd5b62001d428782860162001b3f565b60608301525062001d566080840162001b2d565b608082015260a083013560a082015260c083013560c082015260e083013560e082015261010062001d8981850162001bc4565b90820152610120838101358381111562001da257600080fd5b62001db08882870162001b3f565b828401525050610140808401358381111562001dcb57600080fd5b62001dd98882870162001bd1565b918301919091525095945050505050565b6020808252825182820181905260009190848201906040850190845b8181101562001e2d5783516001600160a01b03168352928401929184019160010162001e06565b50909695505050505050565b60006020828403121562001e4c57600080fd5b813562001e598162001b17565b9392505050565b6001600160a01b0391909116815260200190565b60006060828403121562001e8757600080fd5b604051606081016001600160401b038111828210171562001eac5762001eac62001aa2565b604052905080823562001ebf8162001b17565b8152602083013562001ed18162001b17565b6020820152604092830135920191909152919050565b6000806000806000806000610120888a03121562001f0457600080fd5b873562001f118162001b17565b9650602088013562001f238162001b17565b9550604088013562001f358162001b17565b9450606088013562001f478162001b17565b935062001f588960808a0162001e74565b925060e088013562001f6a8162001b17565b915061010088013562001f7d8162001b17565b8091505092959891949750929550565b60006060828403121562001fa057600080fd5b62001e59838362001e74565b6000815180845260005b8181101562001fd45760208185018101518683018201520162001fb6565b506000602082860101526020601f19601f83011685010191505092915050565b600081518084526020808501808196508360051b8101915082860160005b85811015620020405782840389526200202d84835162001fac565b9885019893509084019060010162002012565b5091979650505050505050565b60006101606200205f84845162001a71565b6020830151816020860152620020788286018262001fac565b9150506040830151848203604086015262002094828262001fac565b91505060608301518482036060860152620020b0828262001fac565b9150506080830151620020c7608086018262001a71565b5060a083015160a085015260c083015160c085015260e083015160e085015261010080840151620020fb8287018215159052565b5050610120808401518583038287015262002117838262001fac565b92505050610140808401518583038287015262002135838262001ff4565b9695505050505050565b6001600160a01b038681168252858116602083015284811660408301528316606082015260a06080820181905260009062001776908301846200204d565b60208152600062001e59602083018462001fac565b6020808252601490820152731190ce881cd95b19881b9bdd08185b1b1bddd95960621b604082015260600190565b60208082526014908201527323219d1027379020baba3437b934bd30ba34b7b760611b604082015260600190565b6000602082840312156200220157600080fd5b815162001e598162001b17565b6001600160a01b038316815260406020820181905260009062002234908301846200204d565b949350505050565b600080604083850312156200225057600080fd5b82518060070b81146200226257600080fd5b8092505060208301518060030b81146200227b57600080fd5b809150509250929050565b600060a082840312156200229957600080fd5b60405160a081016001600160401b0381118282101715620022be57620022be62001aa2565b6040528251620022ce8162001b17565b81526020830151620022e08162001b17565b60208201526040830151620022f58162001b17565b604082015260608301516200230a8162001b17565b606082015260808301516200231f8162001b17565b60808201529392505050565b6001600160a01b03848116825283166020820152606060408201819052600090620023599083018462001fac565b95945050505050565b6000602082840312156200237557600080fd5b815162001e598162001bb556fe608060405260405162000eb238038062000eb2833981016040819052620000269162000497565b828162000036828260006200004d565b50620000449050826200008a565b505050620005ca565b6200005883620000e5565b600082511180620000665750805b1562000085576200008383836200012760201b620001691760201c565b505b505050565b7f7e644d79422f17c01e4894b5f4f588d331ebfa28653d42ae832dc59e38c9798f620000b562000156565b604080516001600160a01b03928316815291841660208301520160405180910390a1620000e2816200018f565b50565b620000f08162000244565b6040516001600160a01b038216907fbc7cd75a20ee27fd9adebab32041f755214dbc6bffa90cc0225b39da2e5c2d3b90600090a250565b60606200014f838360405180606001604052806027815260200162000e8b60279139620002f8565b9392505050565b60006200018060008051602062000e6b83398151915260001b6200037760201b620001951760201c565b546001600160a01b0316919050565b6001600160a01b038116620001fa5760405162461bcd60e51b815260206004820152602660248201527f455243313936373a206e65772061646d696e20697320746865207a65726f206160448201526564647265737360d01b60648201526084015b60405180910390fd5b806200022360008051602062000e6b83398151915260001b6200037760201b620001951760201c565b80546001600160a01b0319166001600160a01b039290921691909117905550565b6200025a816200037a60201b620001981760201c565b620002be5760405162461bcd60e51b815260206004820152602d60248201527f455243313936373a206e657720696d706c656d656e746174696f6e206973206e60448201526c1bdd08184818dbdb9d1c9858dd609a1b6064820152608401620001f1565b80620002237f360894a13ba1a3210667c828492db98dca3e2076cc3735a920a3ca505d382bbc60001b6200037760201b620001951760201c565b6060600080856001600160a01b03168560405162000317919062000577565b600060405180830381855af49150503d806000811462000354576040519150601f19603f3d011682016040523d82523d6000602084013e62000359565b606091505b5090925090506200036d8683838762000389565b9695505050505050565b90565b6001600160a01b03163b151590565b60608315620003fd578251600003620003f557620003a7856200037a565b620003f55760405162461bcd60e51b815260206004820152601d60248201527f416464726573733a2063616c6c20746f206e6f6e2d636f6e74726163740000006044820152606401620001f1565b508162000409565b62000409838362000411565b949350505050565b815115620004225781518083602001fd5b8060405162461bcd60e51b8152600401620001f1919062000595565b80516001600160a01b03811681146200045657600080fd5b919050565b634e487b7160e01b600052604160045260246000fd5b60005b838110156200048e57818101518382015260200162000474565b50506000910152565b600080600060608486031215620004ad57600080fd5b620004b8846200043e565b9250620004c8602085016200043e565b60408501519092506001600160401b0380821115620004e657600080fd5b818601915086601f830112620004fb57600080fd5b8151818111156200051057620005106200045b565b604051601f8201601f19908116603f011681019083821181831017156200053b576200053b6200045b565b816040528281528960208487010111156200055557600080fd5b6200056883602083016020880162000471565b80955050505050509250925092565b600082516200058b81846020870162000471565b9190910192915050565b6020815260008251806020840152620005b681604085016020870162000471565b601f01601f19169190910160400192915050565b61089180620005da6000396000f3fe60806040523661001357610011610017565b005b6100115b61001f6101a7565b6001600160a01b0316330361015f5760606001600160e01b0319600035166364d3180d60e11b810161005a576100536101c8565b9150610157565b63587086bd60e11b6001600160e01b031982160161007a5761005361021f565b63070d7c6960e41b6001600160e01b031982160161009a57610053610265565b621eb96f60e61b6001600160e01b03198216016100b957610053610296565b63a39f25e560e01b6001600160e01b03198216016100d9576100536102d6565b60405162461bcd60e51b815260206004820152604260248201527f5472616e73706172656e745570677261646561626c6550726f78793a2061646d60448201527f696e2063616e6e6f742066616c6c6261636b20746f2070726f78792074617267606482015261195d60f21b608482015260a4015b60405180910390fd5b815160208301f35b6101676102ea565b565b606061018e8383604051806060016040528060278152602001610835602791396102fa565b9392505050565b90565b6001600160a01b03163b151590565b60006000805160206107f58339815191525b546001600160a01b0316919050565b60606101d2610372565b60006101e13660048184610649565b8101906101ee919061068f565b905061020b8160405180602001604052806000815250600061037d565b505060408051602081019091526000815290565b60606000806102313660048184610649565b81019061023e91906106c0565b9150915061024e8282600161037d565b604051806020016040528060008152509250505090565b606061026f610372565b600061027e3660048184610649565b81019061028b919061068f565b905061020b816103a9565b60606102a0610372565b60006102aa6101a7565b604080516001600160a01b03831660208201529192500160405160208183030381529060405291505090565b60606102e0610372565b60006102aa610400565b6101676102f5610400565b61040f565b6060600080856001600160a01b03168560405161031791906107a5565b600060405180830381855af49150503d8060008114610352576040519150601f19603f3d011682016040523d82523d6000602084013e610357565b606091505b509150915061036886838387610433565b9695505050505050565b341561016757600080fd5b610386836104b2565b6000825111806103935750805b156103a4576103a28383610169565b505b505050565b7f7e644d79422f17c01e4894b5f4f588d331ebfa28653d42ae832dc59e38c9798f6103d26101a7565b604080516001600160a01b03928316815291841660208301520160405180910390a16103fd816104f2565b50565b600061040a610589565b905090565b3660008037600080366000845af43d6000803e80801561042e573d6000f35b3d6000fd5b606083156104a05782516000036104995761044d85610198565b6104995760405162461bcd60e51b815260206004820152601d60248201527f416464726573733a2063616c6c20746f206e6f6e2d636f6e7472616374000000604482015260640161014e565b50816104aa565b6104aa838361059f565b949350505050565b6104bb816105c9565b6040516001600160a01b038216907fbc7cd75a20ee27fd9adebab32041f755214dbc6bffa90cc0225b39da2e5c2d3b90600090a250565b6001600160a01b0381166105575760405162461bcd60e51b815260206004820152602660248201527f455243313936373a206e65772061646d696e20697320746865207a65726f206160448201526564647265737360d01b606482015260840161014e565b806000805160206107f58339815191525b80546001600160a01b0319166001600160a01b039290921691909117905550565b60006000805160206108158339815191526101b9565b8151156105af5781518083602001fd5b8060405162461bcd60e51b815260040161014e91906107c1565b6105d281610198565b6106345760405162461bcd60e51b815260206004820152602d60248201527f455243313936373a206e657720696d706c656d656e746174696f6e206973206e60448201526c1bdd08184818dbdb9d1c9858dd609a1b606482015260840161014e565b80600080516020610815833981519152610568565b6000808585111561065957600080fd5b8386111561066657600080fd5b5050820193919092039150565b80356001600160a01b038116811461068a57600080fd5b919050565b6000602082840312156106a157600080fd5b61018e82610673565b634e487b7160e01b600052604160045260246000fd5b600080604083850312156106d357600080fd5b6106dc83610673565b915060208301356001600160401b03808211156106f857600080fd5b818501915085601f83011261070c57600080fd5b81358181111561071e5761071e6106aa565b604051601f8201601f19908116603f01168101908382118183101715610746576107466106aa565b8160405282815288602084870101111561075f57600080fd5b8260208601602083013760006020848301015280955050505050509250929050565b60005b8381101561079c578181015183820152602001610784565b50506000910152565b600082516107b7818460208701610781565b9190910192915050565b60208152600082518060208401526107e0816040850160208701610781565b601f01601f1916919091016040019291505056feb53127684a568b3173ae13b9f8a6016e243e63b6e8ee1178d6a717850b5d6103360894a13ba1a3210667c828492db98dca3e2076cc3735a920a3ca505d382bbc416464726573733a206c6f772d6c6576656c2064656c65676174652063616c6c206661696c6564a26469706673582212206903e5c4246b5644c9b348bc6c150cc1e0e09c0b84dd3bf68c718931362f785664736f6c63430008120033b53127684a568b3173ae13b9f8a6016e243e63b6e8ee1178d6a717850b5d6103416464726573733a206c6f772d6c6576656c2064656c65676174652063616c6c206661696c6564cf9d4a2ff924c5f3553e3c8485e6bc24fde822593d2c3d78c8fabaada123f8f6a2646970667358221220a289b6e9dcc37cc50913cf46f06afdbdaf7187fbc8b465aacb290889816dfb2a64736f6c63430008120033",
  "linkReferences": {},
  "deployedLinkReferences": {}
}