{
  "_format": "hh-sol-artifact-1",
  "contractName": "Pair",
  "sourceName": "contracts/Pair.sol",
  "abi": [
    {
      "inputs": [
        {
          "internalType": "string",
          "name": "message",
          "type": "string"
        },
        {
          "internalType": "uint256",
          "name": "calculatedSlippage",
          "type": "uint256"
        },
        {
          "internalType": "uint256",
          "name": "slippageThreshold",
          "type": "uint256"
        }
      ],
      "name": "SlippageBreached",
      "type": "error"
    },
    {
      "inputs": [
        {
          "internalType": "string",
          "name": "message",
          "type": "string"
        },
        {
          "internalType": "address",
          "name": "passedTokenA",
          "type": "address"
        },
        {
          "internalType": "address",
          "name": "passedTokenB",
          "type": "address"
        },
        {
          "internalType": "address",
          "name": "expectedTokenA",
          "type": "address"
        },
        {
          "internalType": "address",
          "name": "expectedTokenB",
          "type": "address"
        }
      ],
      "name": "WrongPairPassed",
      "type": "error"
    },
    {
      "anonymous": false,
      "inputs": [
        {
          "indexed": false,
          "internalType": "uint8",
          "name": "version",
          "type": "uint8"
        }
      ],
      "name": "Initialized",
      "type": "event"
    },
    {
      "anonymous": false,
      "inputs": [
        {
          "indexed": true,
          "internalType": "address",
          "name": "previousOwner",
          "type": "address"
        },
        {
          "indexed": true,
          "internalType": "address",
          "name": "newOwner",
          "type": "address"
        }
      ],
      "name": "OwnershipTransferred",
      "type": "event"
    },
    {
      "inputs": [
        {
          "internalType": "address",
          "name": "fromAccount",
          "type": "address"
        },
        {
          "internalType": "address",
          "name": "_tokenA",
          "type": "address"
        },
        {
          "internalType": "address",
          "name": "_tokenB",
          "type": "address"
        },
        {
          "internalType": "uint256",
          "name": "_tokenAQty",
          "type": "uint256"
        },
        {
          "internalType": "uint256",
          "name": "_tokenBQty",
          "type": "uint256"
        }
      ],
      "name": "addLiquidity",
      "outputs": [],
      "stateMutability": "payable",
      "type": "function"
    },
    {
      "inputs": [
        {
          "internalType": "uint256",
          "name": "_tokenQ",
          "type": "uint256"
        }
      ],
      "name": "feeForToken",
      "outputs": [
        {
          "internalType": "uint256",
          "name": "",
          "type": "uint256"
        }
      ],
      "stateMutability": "view",
      "type": "function"
    },
    {
      "inputs": [],
      "name": "getContractAddress",
      "outputs": [
        {
          "internalType": "address",
          "name": "",
          "type": "address"
        }
      ],
      "stateMutability": "view",
      "type": "function"
    },
    {
      "inputs": [],
      "name": "getFee",
      "outputs": [
        {
          "internalType": "uint256",
          "name": "",
          "type": "uint256"
        }
      ],
      "stateMutability": "view",
      "type": "function"
    },
    {
      "inputs": [],
      "name": "getFeePrecision",
      "outputs": [
        {
          "internalType": "uint256",
          "name": "",
          "type": "uint256"
        }
      ],
      "stateMutability": "pure",
      "type": "function"
    },
    {
      "inputs": [],
      "name": "getHederaServiceVersion",
      "outputs": [
        {
          "internalType": "contract IHederaService",
          "name": "",
          "type": "address"
        }
      ],
      "stateMutability": "view",
      "type": "function"
    },
    {
      "inputs": [
        {
          "internalType": "uint256",
          "name": "amountTokenB",
          "type": "uint256"
        }
      ],
      "name": "getInGivenOut",
      "outputs": [
        {
          "internalType": "uint256",
          "name": "",
          "type": "uint256"
        },
        {
          "internalType": "uint256",
          "name": "",
          "type": "uint256"
        },
        {
          "internalType": "uint256",
          "name": "",
          "type": "uint256"
        },
        {
          "internalType": "uint256",
          "name": "",
          "type": "uint256"
        }
      ],
      "stateMutability": "view",
      "type": "function"
    },
    {
      "inputs": [],
      "name": "getLpTokenContractAddress",
      "outputs": [
        {
          "internalType": "address",
          "name": "",
          "type": "address"
        }
      ],
      "stateMutability": "view",
      "type": "function"
    },
    {
      "inputs": [
        {
          "internalType": "uint256",
          "name": "amountTokenA",
          "type": "uint256"
        }
      ],
      "name": "getOutGivenIn",
      "outputs": [
        {
          "internalType": "uint256",
          "name": "",
          "type": "uint256"
        },
        {
          "internalType": "uint256",
          "name": "",
          "type": "uint256"
        },
        {
          "internalType": "uint256",
          "name": "",
          "type": "uint256"
        },
        {
          "internalType": "uint256",
          "name": "",
          "type": "uint256"
        }
      ],
      "stateMutability": "view",
      "type": "function"
    },
    {
      "inputs": [],
      "name": "getPair",
      "outputs": [
        {
          "components": [
            {
              "components": [
                {
                  "internalType": "address",
                  "name": "tokenAddress",
                  "type": "address"
                },
                {
                  "internalType": "uint256",
                  "name": "tokenQty",
                  "type": "uint256"
                }
              ],
              "internalType": "struct IPair.Token",
              "name": "tokenA",
              "type": "tuple"
            },
            {
              "components": [
                {
                  "internalType": "address",
                  "name": "tokenAddress",
                  "type": "address"
                },
                {
                  "internalType": "uint256",
                  "name": "tokenQty",
                  "type": "uint256"
                }
              ],
              "internalType": "struct IPair.Token",
              "name": "tokenB",
              "type": "tuple"
            }
          ],
          "internalType": "struct IPair.Pair",
          "name": "",
          "type": "tuple"
        }
      ],
      "stateMutability": "view",
      "type": "function"
    },
    {
      "inputs": [],
      "name": "getPairInfo",
      "outputs": [
        {
          "components": [
            {
              "components": [
                {
                  "internalType": "address",
                  "name": "tokenAddress",
                  "type": "address"
                },
                {
                  "internalType": "uint256",
                  "name": "tokenQty",
                  "type": "uint256"
                }
              ],
              "internalType": "struct IPair.Token",
              "name": "tokenA",
              "type": "tuple"
            },
            {
              "components": [
                {
                  "internalType": "address",
                  "name": "tokenAddress",
                  "type": "address"
                },
                {
                  "internalType": "uint256",
                  "name": "tokenQty",
                  "type": "uint256"
                }
              ],
              "internalType": "struct IPair.Token",
              "name": "tokenB",
              "type": "tuple"
            }
          ],
          "internalType": "struct IPair.Pair",
          "name": "_pair",
          "type": "tuple"
        },
        {
          "components": [
            {
              "internalType": "uint256",
              "name": "tokenASpotPrice",
              "type": "uint256"
            },
            {
              "internalType": "uint256",
              "name": "tokenBSpotPrice",
              "type": "uint256"
            },
            {
              "internalType": "uint256",
              "name": "precision",
              "type": "uint256"
            },
            {
              "internalType": "uint256",
              "name": "feePrecision",
              "type": "uint256"
            },
            {
              "internalType": "uint256",
              "name": "fee",
              "type": "uint256"
            }
          ],
          "internalType": "struct IPair.Amount",
          "name": "_amount",
          "type": "tuple"
        }
      ],
      "stateMutability": "view",
      "type": "function"
    },
    {
      "inputs": [],
      "name": "getPairQty",
      "outputs": [
        {
          "internalType": "uint256",
          "name": "",
          "type": "uint256"
        },
        {
          "internalType": "uint256",
          "name": "",
          "type": "uint256"
        }
      ],
      "stateMutability": "view",
      "type": "function"
    },
    {
      "inputs": [],
      "name": "getPrecisionValue",
      "outputs": [
        {
          "internalType": "uint256",
          "name": "",
          "type": "uint256"
        }
      ],
      "stateMutability": "pure",
      "type": "function"
    },
    {
      "inputs": [],
      "name": "getSlippage",
      "outputs": [
        {
          "internalType": "uint256",
          "name": "",
          "type": "uint256"
        }
      ],
      "stateMutability": "view",
      "type": "function"
    },
    {
      "inputs": [
        {
          "internalType": "address",
          "name": "token",
          "type": "address"
        }
      ],
      "name": "getSpotPrice",
      "outputs": [
        {
          "internalType": "uint256",
          "name": "",
          "type": "uint256"
        }
      ],
      "stateMutability": "view",
      "type": "function"
    },
    {
      "inputs": [],
      "name": "getTokenPairAddress",
      "outputs": [
        {
          "internalType": "address",
          "name": "",
          "type": "address"
        },
        {
          "internalType": "address",
          "name": "",
          "type": "address"
        },
        {
          "internalType": "address",
          "name": "",
          "type": "address"
        },
        {
          "internalType": "uint256",
          "name": "",
          "type": "uint256"
        }
      ],
      "stateMutability": "view",
      "type": "function"
    },
    {
      "inputs": [],
      "name": "getVariantValue",
      "outputs": [
        {
          "internalType": "uint256",
          "name": "",
          "type": "uint256"
        }
      ],
      "stateMutability": "view",
      "type": "function"
    },
    {
      "inputs": [
        {
          "internalType": "contract IHederaService",
          "name": "_hederaService",
          "type": "address"
        },
        {
          "internalType": "contract ILPToken",
          "name": "_lpTokenContract",
          "type": "address"
        },
        {
          "internalType": "address",
          "name": "_tokenA",
          "type": "address"
        },
        {
          "internalType": "address",
          "name": "_tokenB",
          "type": "address"
        },
        {
          "internalType": "address",
          "name": "_treasury",
          "type": "address"
        },
        {
          "internalType": "uint256",
          "name": "_fee",
          "type": "uint256"
        },
        {
          "internalType": "contract Configuration",
          "name": "_configuration",
          "type": "address"
        }
      ],
      "name": "initialize",
      "outputs": [],
      "stateMutability": "nonpayable",
      "type": "function"
    },
    {
      "inputs": [],
      "name": "owner",
      "outputs": [
        {
          "internalType": "address",
          "name": "",
          "type": "address"
        }
      ],
      "stateMutability": "view",
      "type": "function"
    },
    {
      "inputs": [
        {
          "internalType": "address payable",
          "name": "toAccount",
          "type": "address"
        },
        {
          "internalType": "uint256",
          "name": "_lpToken",
          "type": "uint256"
        }
      ],
      "name": "removeLiquidity",
      "outputs": [],
      "stateMutability": "nonpayable",
      "type": "function"
    },
    {
      "inputs": [],
      "name": "renounceOwnership",
      "outputs": [],
      "stateMutability": "nonpayable",
      "type": "function"
    },
    {
      "inputs": [
        {
          "internalType": "uint256",
          "name": "_slippage",
          "type": "uint256"
        }
      ],
      "name": "setSlippage",
      "outputs": [
        {
          "internalType": "uint256",
          "name": "",
          "type": "uint256"
        }
      ],
      "stateMutability": "nonpayable",
      "type": "function"
    },
    {
      "inputs": [
        {
          "internalType": "uint256",
          "name": "_tokenBQty",
          "type": "uint256"
        }
      ],
      "name": "slippageInGivenOut",
      "outputs": [
        {
          "internalType": "uint256",
          "name": "",
          "type": "uint256"
        }
      ],
      "stateMutability": "view",
      "type": "function"
    },
    {
      "inputs": [
        {
          "internalType": "uint256",
          "name": "_tokenAQty",
          "type": "uint256"
        }
      ],
      "name": "slippageOutGivenIn",
      "outputs": [
        {
          "internalType": "uint256",
          "name": "",
          "type": "uint256"
        }
      ],
      "stateMutability": "view",
      "type": "function"
    },
    {
      "inputs": [
        {
          "internalType": "address",
          "name": "to",
          "type": "address"
        },
        {
          "internalType": "address",
          "name": "_token",
          "type": "address"
        },
        {
          "internalType": "uint256",
          "name": "_deltaQty",
          "type": "uint256"
        },
        {
          "internalType": "uint256",
          "name": "_slippage",
          "type": "uint256"
        }
      ],
      "name": "swapToken",
      "outputs": [],
      "stateMutability": "payable",
      "type": "function"
    },
    {
      "inputs": [
        {
          "internalType": "address",
          "name": "newOwner",
          "type": "address"
        }
      ],
      "name": "transferOwnership",
      "outputs": [],
      "stateMutability": "nonpayable",
      "type": "function"
    },
    {
      "inputs": [
        {
          "internalType": "contract IHederaService",
          "name": "newHederaService",
          "type": "address"
        }
      ],
      "name": "upgradeHederaService",
      "outputs": [],
      "stateMutability": "nonpayable",
      "type": "function"
    }
  ],
  "bytecode": "0x608060405234801561001057600080fd5b50612560806100206000396000f3fe60806040526004361061013c5760003560e01c80631b56b7e0146101415780632537d324146101745780632b26701a1461018857806332a2c5d0146101b057806337476ced146101cc5780634ea5efef146101e157806355bf9c40146101f457806356b35b0e146102345780635cd9e019146102575780636dab6f7514610277578063715018a614610295578063770ed04a146102aa57806384521399146102ca5780638d3be3a8146102e85780638da5cb5b146103085780639af5349a1461031d578063a201ccf614610367578063aff57fc614610387578063c1f1b1b5146103a7578063ca71d4e4146103c9578063ced72f87146103e0578063d26d681f146103f5578063eabcca1014610415578063f0fa55a914610435578063f2fde38b14610458578063f819163f14610478578063fc9cee3c1461048d575b600080fd5b34801561014d57600080fd5b5061016161015c366004611e2e565b6104a2565b6040519081526020015b60405180910390f35b34801561018057600080fd5b506064610161565b34801561019457600080fd5b50609a54609c546040805192835260208301919091520161016b565b3480156101bc57600080fd5b50305b60405161016b9190611e47565b6101df6101da366004611e70565b6104d2565b005b6101df6101ef366004611eb6565b6105a1565b34801561020057600080fd5b5061021461020f366004611e2e565b6107c8565b60408051948552602085019390935291830152606082015260800161016b565b34801561024057600080fd5b5061024961086f565b60405161016b929190611f46565b34801561026357600080fd5b50610161610272366004611f8c565b610948565b34801561028357600080fd5b506097546001600160a01b03166101bf565b3480156102a157600080fd5b506101df6109c6565b3480156102b657600080fd5b506101616102c5366004611e2e565b6109da565b3480156102d657600080fd5b506098546001600160a01b03166101bf565b3480156102f457600080fd5b50610214610303366004611e2e565b610a71565b34801561031457600080fd5b506101bf610ae6565b34801561032957600080fd5b50610332610af5565b60405161016b94939291906001600160a01b039485168152928416602084015292166040820152606081019190915260800190565b34801561037357600080fd5b506101df610382366004611fa9565b610b8b565b34801561039357600080fd5b506101616103a2366004611e2e565b610d88565b3480156103b357600080fd5b506103bc610dd4565b60405161016b9190611fd5565b3480156103d557600080fd5b506305f5e100610161565b3480156103ec57600080fd5b50609e54610161565b34801561040157600080fd5b506101df610410366004611f8c565b610e28565b34801561042157600080fd5b506101df610430366004611fe3565b610ea5565b34801561044157600080fd5b50610161610450366004611e2e565b609d81905590565b34801561046457600080fd5b506101df610473366004611f8c565b6110f3565b34801561048457600080fd5b5061016161116c565b34801561049957600080fd5b50610161611187565b60008060646002609e54856104b79190612086565b6104c1919061209d565b6104cb919061209d565b9392505050565b6104da6111a1565b6099546001600160a01b03848116911614806105035750609b546001600160a01b038481169116145b6105545760405162461bcd60e51b815260206004820152601f60248201527f506c73207061737320636f727265637420746f6b656e20746f20737761702e0060448201526064015b60405180910390fd5b61055e83836111fa565b6099549092506001600160a01b039081169084160361058757610582848383611268565b610592565b6105928483836113b5565b61059b60018055565b50505050565b6105a96111a1565b6105b384836111fa565b91506105bf83826111fa565b6099549091506001600160a01b0385811691161480156105ec5750609b546001600160a01b038481169116145b1561062b57609a80548391906000906106069084906120bf565b9091555050609c80548291906000906106209084906120bf565b909155506106f99050565b609b546001600160a01b03858116911614801561065557506099546001600160a01b038481169116145b1561068957609c805483919060009061066f9084906120bf565b9091555050609a80548291906000906106209084906120bf565b609954609b5460405163fc806d8d60e01b815260a06004820152601760a48201527615dc9bdb99c81d1bdad95b881c185a5c881c185cdcd959604a1b60c48201526001600160a01b038088166024830152808716604483015292831660648201529116608482015260e40161054b565b6107398530868686866040518060800160405280604681526020016122e06046913960405180608001604052806046815260200161229a60469139611508565b609854604051630854251360e01b815260048101849052602481018390526001600160a01b038781166044830152909116906308542513906064016020604051808303816000875af1158015610793573d6000803e3d6000fd5b505050506040513d601f19601f820116820180604052508101906107b791906120d2565b506107c160018055565b5050505050565b60008060008060008060006107dc88611522565b9250925092506000806107f06305f5e10090565b905060006107fc61116c565b609a549091506000906108109087906120bf565b609c549091506000826108238686612086565b61082d919061209d565b9050600061083b868361209d565b9050610847838261157b565b965050505050505060008061085b836115a0565b969c949b5099509497509195505050505050565b610877611df2565b6108a96040518060a0016040528060008152602001600081526020016000815260200160008152602001600081525090565b604080516080810182526099546001600160a01b03908116828401818152609a546060850152835283518085018552609b549092168252609c54602083810191909152830191909152825160a08101909352909350819061090990610948565b8152609b54602090910190610926906001600160a01b0316610948565b81526020016305f5e100815260200160648152602001609e5481525090509091565b6099546000906305f5e1009082906001600160a01b0385811691161461097057609c54610974565b609a545b6099549091506000906001600160a01b0386811691161461099757609a5461099b565b609c545b9050600081156109bd57816109b08585612086565b6109ba919061209d565b90505b95945050505050565b6109ce6115d8565b6109d86000611637565b565b609a54609c546000916305f5e1009183816109f58585612086565b6109ff919061209d565b9050600084610a0e8389612086565b610a18919061209d565b9050600080610a2689610a71565b93509350505060008183610a3a91906120bf565b90506000610a48828661157b565b9050600085610a578b84612086565b610a61919061209d565b9c9b505050505050505050505050565b6000806000806000806000610a8588611522565b925092509250600080610a9661116c565b609a54609c549192506305f5e10091600090610ab39088906120bf565b9050600081610ac28587612086565b610acc919061209d565b90506000610ada858361209d565b9050610847818561157b565b6065546001600160a01b031690565b609954609b5460985460408051638c237c6960e01b815290516000948594859485946001600160a01b03938416949284169390911691638c237c69916004808201926020929091908290030181865afa158015610b56573d6000803e3d6000fd5b505050506040513d601f19601f82011682018060405250810190610b7a91906120eb565b609e54935093509350935090919293565b610b936111a1565b609854604051636869958f60e01b815282916001600160a01b031690636869958f90610bc3908690600401611e47565b602060405180830381865afa158015610be0573d6000803e3d6000fd5b505050506040513d601f19601f82011682018060405250810190610c0491906120d2565b1015610c615760405162461bcd60e51b815260206004820152602660248201527f7573657220646f6573206e6f7420686176652073756666696369656e74206c70604482015265546f6b656e7360d01b606482015260840161054b565b600080610c6d83611689565b915091508160996000016001016000828254610c899190612108565b9091555050609c8054829190600090610ca3908490612108565b9091555050609954609b546040805160808101909152604a808252610d0193309389936001600160a01b039283169392909116918891889161240460208301396040518060800160405280604a815260200161244e604a9139611508565b609854604051630a2b35db60e21b8152600481018590526001600160a01b038681166024830152909116906328acd76c906044016020604051808303816000875af1158015610d54573d6000803e3d6000fd5b505050506040513d601f19601f82011682018060405250810190610d7891906120d2565b505050610d8460018055565b5050565b609a54609c546000916305f5e100918382610da38584612086565b610dad919061209d565b9050600084610dbc8389612086565b610dc6919061209d565b9050600080610a26896107c8565b610ddc611df2565b50604080516080810182526099546001600160a01b03908116828401908152609a54606084015282528251808401909352609b54168252609c5460208381019190915281019190915290565b610e306115d8565b609780546001600160a01b0319166001600160a01b038381169190911790915560985460405163d26d681f60e01b815291169063d26d681f90610e77908490600401611e47565b600060405180830381600087803b158015610e9157600080fd5b505af11580156107c1573d6000803e3d6000fd5b600054610100900460ff1615808015610ec55750600054600160ff909116105b80610ee65750610ed430611743565b158015610ee6575060005460ff166001145b610f495760405162461bcd60e51b815260206004820152602e60248201527f496e697469616c697a61626c653a20636f6e747261637420697320616c72656160448201526d191e481a5b9a5d1a585b1a5e995960921b606482015260840161054b565b6000805460ff191660011790558015610f6c576000805461ff0019166101001790555b610f74611752565b610f7c611781565b60008311610fdb5760405162461bcd60e51b815260206004820152602660248201527f506169723a204665652073686f756c642062652067726561746572207468616e604482015265103d32b9379760d11b606482015260840161054b565b609780546001600160a01b03199081166001600160a01b038b8116919091179092556098805482168a8416179055609e859055609f8054821687841617905560a080548216858416179055604080516080810182528984168183019081526000606083018190529082528251808401909352898516835260208084019182528083018490529151805160998054871691881691909117905590910151609a559051609b8054909316931692909217905551609c5561109930876117b0565b6110a330866117b0565b80156110e9576000805461ff0019169055604051600181527f7f26b83ff96e1f2b6a682f133852f6798a09c465da95921460cefb38474024989060200160405180910390a15b5050505050505050565b6110fb6115d8565b6001600160a01b0381166111605760405162461bcd60e51b815260206004820152602660248201527f4f776e61626c653a206e6577206f776e657220697320746865207a65726f206160448201526564647265737360d01b606482015260840161054b565b61116981611637565b50565b609a54609c54600091906111808183612086565b9250505090565b609d54600090156111995750609d5490565b506207a12090565b6002600154036111f35760405162461bcd60e51b815260206004820152601f60248201527f5265656e7472616e637947756172643a207265656e7472616e742063616c6c00604482015260640161054b565b6002600155565b6000611205836117d9565b1561125f5781156112585760405162461bcd60e51b815260206004820181905260248201527f48424152732073686f756c642062652070617373656420617320706179626c65604482015260640161054b565b5034611262565b50805b92915050565b600061127383610d88565b905061127f8183611862565b60008060008061128e876107c8565b935093509350935082609960000160010160008282546112ae91906120bf565b909155506112be905081836120bf565b609c80546000906112d0908490612108565b90915550506099546040805160808101909152604480825261130c928b9230926001600160a01b039092169188919061221660208301396118fb565b609f546099546040805160808101909152604f808252611347938c936001600160a01b039182169391169189919061249860208301396118fb565b609b546040805160608101825281815261137a9230928c926001600160a01b0390921691879161237560208301396118fb565b609f54609b546040805160808101909152604f8082526110e99330936001600160a01b03918216939116918691906123b560208301396118fb565b60006113c0836109da565b90506113cc8183611862565b6000806000806113db87610a71565b935093509350935082609960020160010160008282546113fb91906120bf565b9091555061140b905081836120bf565b609a805460009061141d908490612108565b9091555050609b5460408051608081019091526044808252611459928b9230926001600160a01b03909216918891906124e760208301396118fb565b609f54609b546040805160808101909152604f808252611494938c936001600160a01b03918216939116918991906123b560208301396118fb565b609954604080516060810182528181526114c79230928c926001600160a01b0390921691879161225a60208301396118fb565b609f546099546040805160808101909152604f8082526110e99330936001600160a01b039182169391169186919061232660208301396118fb565b60018055565b61151588888887866118fb565b6110e988888786856118fb565b600080600080611531856104a2565b9050600061154060028361209d565b9050600061154f60028461209d565b9050600061155d888561157b565b9050600061156b83836120bf565b9399919850929650945050505050565b6000818311156115965761158f8284612108565b9050611262565b6104cb8383612108565b60008060006115ae846104a2565b905060006115bc858361157b565b905060006115cb60028461209d565b9196919550909350505050565b336115e1610ae6565b6001600160a01b0316146109d85760405162461bcd60e51b815260206004820181905260248201527f4f776e61626c653a2063616c6c6572206973206e6f7420746865206f776e6572604482015260640161054b565b606580546001600160a01b038381166001600160a01b0319831681179093556040519116919082907f8be0079c531659141344cd1fd0a4f28419497f9722a3daafe3b4186f6b6457e090600090a35050565b6000806000609860009054906101000a90046001600160a01b03166001600160a01b031663a1e79f756040518163ffffffff1660e01b8152600401602060405180830381865afa1580156116e1573d6000803e3d6000fd5b505050506040513d601f19601f8201168201806040525081019061170591906120d2565b609a54909150600090829061171a9087612086565b611724919061209d565b609c5490915060009083906117399088612086565b6115cb919061209d565b6001600160a01b03163b151590565b600054610100900460ff166117795760405162461bcd60e51b815260040161054b9061211b565b6109d8611986565b600054610100900460ff166117a85760405162461bcd60e51b815260040161054b9061211b565b6109d86119ad565b6117b9816117d9565b610d84576097546117d4906001600160a01b031683836119dd565b505050565b60a0546040805163338c0edd60e01b815290516000926001600160a01b03169163338c0edd9160048083019260209291908290030181865afa158015611823573d6000803e3d6000fd5b505050506040513d601f19601f8201168201806040525081019061184791906120eb565b6001600160a01b0316826001600160a01b0316149050919050565b600080821161187857611873611187565b61187a565b815b9050808311156117d457604051634fad2c8560e11b815260606004820152603760648201527f5468652063616c63756c6174656420736c697070616765206973206f766572206084820152763a34329039b634b83830b3b2903a343932b9b437b6321760491b60a4820152602481018490526044810182905260c40161054b565b611904836117d9565b1561194b5761191285611a78565b156119255761192082611a86565b61192e565b61192e82611aed565b61193784611a78565b61194657611946828583611b39565b6107c1565b600061195984878786611bd0565b9050816016821461197d5760405162461bcd60e51b815260040161054b919061218a565b50505050505050565b600054610100900460ff166115025760405162461bcd60e51b815260040161054b9061211b565b600054610100900460ff166119d45760405162461bcd60e51b815260040161054b9061211b565b6109d833611637565b60006119e883611743565b156119ff576119f8848484611cf1565b90506104cb565b60405163f4a01e5b60e01b81526001600160a01b0385169063f4a01e5b90611a2d90869086906004016121bd565b6020604051808303816000875af1158015611a4c573d6000803e3d6000fd5b505050506040513d601f19601f82011682018060405250810190611a7091906120d2565b949350505050565b6001600160a01b0316301490565b80611a8f611dc8565b10156111695760405162461bcd60e51b815260206004820152602760248201527f436f6e747261637420646f6573206e6f7420686176652073756666696369656e6044820152667420486261727360c81b606482015260840161054b565b803410156111695760405162461bcd60e51b8152602060048201526019602482015278506c65617365207061737320636f727265637420486261727360381b604482015260640161054b565b609754604051631c384f9360e11b81526000916001600160a01b0316906338709f26908690611b6c908790600401611e47565b60206040518083038185885af1158015611b8a573d6000803e3d6000fd5b50505050506040513d601f19601f82011682018060405250810190611baf91906121d7565b905081816107c15760405162461bcd60e51b815260040161054b919061218a565b600080611bdc85611a78565b611c60576040516323b872dd60e01b81526001600160a01b0386811660048301528581166024830152604482018590528716906323b872dd906064016020604051808303816000875af1158015611c37573d6000803e3d6000fd5b505050506040513d601f19601f82011682018060405250810190611c5b91906121d7565b611cd3565b60405163a9059cbb60e01b81526001600160a01b0385811660048301526024820185905287169063a9059cbb906044016020604051808303816000875af1158015611caf573d6000803e3d6000fd5b505050506040513d601f19601f82011682018060405250810190611cd391906121d7565b905080611ce1576015611ce4565b60165b60030b9695505050505050565b6000806000856001600160a01b031663f4a01e5b60e01b8686604051602401611d1b9291906121bd565b60408051601f198184030181529181526020820180516001600160e01b03166001600160e01b0319909416939093179092529051611d5991906121f9565b600060405180830381855af49150503d8060008114611d94576040519150601f19603f3d011682016040523d82523d6000602084013e611d99565b606091505b509150915081611daa576015611dbe565b80806020019051810190611dbe91906120d2565b9695505050505050565b609954600090611de0906001600160a01b03166117d9565b611deb5750609c5490565b50609a5490565b6040518060400160405280611e05611e17565b8152602001611e12611e17565b905290565b604080518082019091526000808252602082015290565b600060208284031215611e4057600080fd5b5035919050565b6001600160a01b0391909116815260200190565b6001600160a01b038116811461116957600080fd5b60008060008060808587031215611e8657600080fd5b8435611e9181611e5b565b93506020850135611ea181611e5b565b93969395505050506040820135916060013590565b600080600080600060a08688031215611ece57600080fd5b8535611ed981611e5b565b94506020860135611ee981611e5b565b93506040860135611ef981611e5b565b94979396509394606081013594506080013592915050565b80516001600160a01b03168252602090810151910152565b611f34828251611f11565b60208101516117d46040840182611f11565b6101208101611f558285611f29565b82516080830152602083015160a0830152604083015160c0830152606083015160e083015260808301516101008301529392505050565b600060208284031215611f9e57600080fd5b81356104cb81611e5b565b60008060408385031215611fbc57600080fd5b8235611fc781611e5b565b946020939093013593505050565b608081016112628284611f29565b600080600080600080600060e0888a031215611ffe57600080fd5b873561200981611e5b565b9650602088013561201981611e5b565b9550604088013561202981611e5b565b9450606088013561203981611e5b565b9350608088013561204981611e5b565b925060a0880135915060c088013561206081611e5b565b8091505092959891949750929550565b634e487b7160e01b600052601160045260246000fd5b808202811582820484141761126257611262612070565b6000826120ba57634e487b7160e01b600052601260045260246000fd5b500490565b8082018082111561126257611262612070565b6000602082840312156120e457600080fd5b5051919050565b6000602082840312156120fd57600080fd5b81516104cb81611e5b565b8181038181111561126257611262612070565b6020808252602b908201527f496e697469616c697a61626c653a20636f6e7472616374206973206e6f74206960408201526a6e697469616c697a696e6760a81b606082015260800190565b60005b83811015612181578181015183820152602001612169565b50506000910152565b60208152600082518060208401526121a9816040850160208701612166565b601f01601f19169190910160400192915050565b6001600160a01b0392831681529116602082015260400190565b6000602082840312156121e957600080fd5b815180151581146104cb57600080fd5b6000825161220b818460208701612166565b919091019291505056fe73776170546f6b656e413a205472616e7366657272696e6720746f6b656e204120746f20636f6e7472616374206661696c656420776974682073746174757320636f646573776170546f6b656e423a205472616e7366657272696e6720746f6b656e204120746f2075736572206661696c656420776974682073746174757320636f6465416464206c69717569646974793a205472616e73666572696e6720746f6b656e204220746f20636f6e7472616374206661696c656420776974682073746174757320636f6465416464206c69717569646974793a205472616e73666572696e6720746f6b656e204120746f20636f6e7472616374206661696c656420776974682073746174757320636f646573776170546f6b656e424665653a205472616e7366657272696e672066656520617320746f6b656e204120746f20747265617375617279206661696c656420776974682073746174757320636f646573776170546f6b656e413a205472616e7366657272696e6720746f6b656e204220746f2075736572206661696c656420776974682073746174757320636f646573776170546f6b656e424665653a205472616e7366657272696e672066656520617320746f6b656e204220746f20747265617375617279206661696c656420776974682073746174757320636f646552656d6f7665206c69717569646974793a205472616e7366657272696e6720746f6b656e204120746f20636f6e7472616374206661696c656420776974682073746174757320636f646552656d6f7665206c69717569646974793a205472616e7366657272696e6720746f6b656e204220746f20636f6e7472616374206661696c656420776974682073746174757320636f646573776170546f6b656e414665653a205472616e7366657272696e672066656520617320746f6b656e204120746f20747265617375617279206661696c656420776974682073746174757320636f646573776170546f6b656e423a205472616e7366657272696e6720746f6b656e204220746f20636f6e7472616374206661696c656420776974682073746174757320636f6465a264697066735822122044628e70782d6d21f8e2093dc43af2aed2900aeeec59a5cdca0ef3c5e83fc44a64736f6c63430008120033",
  "linkReferences": {},
  "deployedLinkReferences": {}
}