{
  "_format": "hh-sol-artifact-1",
  "contractName": "SystemRoleBasedAccess",
  "sourceName": "contracts/common/SystemRoleBasedAccess.sol",
  "abi": [
    {
      "anonymous": false,
      "inputs": [
        {
          "indexed": false,
          "internalType": "uint8",
          "name": "version",
          "type": "uint8"
        }
      ],
      "name": "Initialized",
      "type": "event"
    },
    {
      "anonymous": false,
      "inputs": [
        {
          "indexed": true,
          "internalType": "bytes32",
          "name": "role",
          "type": "bytes32"
        },
        {
          "indexed": true,
          "internalType": "bytes32",
          "name": "previousAdminRole",
          "type": "bytes32"
        },
        {
          "indexed": true,
          "internalType": "bytes32",
          "name": "newAdminRole",
          "type": "bytes32"
        }
      ],
      "name": "RoleAdminChanged",
      "type": "event"
    },
    {
      "anonymous": false,
      "inputs": [
        {
          "indexed": true,
          "internalType": "bytes32",
          "name": "role",
          "type": "bytes32"
        },
        {
          "indexed": true,
          "internalType": "address",
          "name": "account",
          "type": "address"
        },
        {
          "indexed": true,
          "internalType": "address",
          "name": "sender",
          "type": "address"
        }
      ],
      "name": "RoleGranted",
      "type": "event"
    },
    {
      "anonymous": false,
      "inputs": [
        {
          "indexed": true,
          "internalType": "bytes32",
          "name": "role",
          "type": "bytes32"
        },
        {
          "indexed": true,
          "internalType": "address",
          "name": "account",
          "type": "address"
        },
        {
          "indexed": true,
          "internalType": "address",
          "name": "sender",
          "type": "address"
        }
      ],
      "name": "RoleRevoked",
      "type": "event"
    },
    {
      "anonymous": false,
      "inputs": [
        {
          "components": [
            {
              "internalType": "address",
              "name": "superAdmin",
              "type": "address"
            },
            {
              "internalType": "address",
              "name": "proxyAdmin",
              "type": "address"
            },
            {
              "internalType": "address",
              "name": "childProxyAdmin",
              "type": "address"
            },
            {
              "internalType": "address",
              "name": "vaultAddRewardUser",
              "type": "address"
            },
            {
              "internalType": "address",
              "name": "feeConfigControllerUser",
              "type": "address"
            }
          ],
          "indexed": false,
          "internalType": "struct ISystemRoleBasedAccess.SystemUsers",
          "name": "users",
          "type": "tuple"
        }
      ],
      "name": "UpdatedUsers",
      "type": "event"
    },
    {
      "inputs": [],
      "name": "CHILD_PROXY_ADMIN_ROLE",
      "outputs": [
        {
          "internalType": "bytes32",
          "name": "",
          "type": "bytes32"
        }
      ],
      "stateMutability": "view",
      "type": "function"
    },
    {
      "inputs": [],
      "name": "DEFAULT_ADMIN_ROLE",
      "outputs": [
        {
          "internalType": "bytes32",
          "name": "",
          "type": "bytes32"
        }
      ],
      "stateMutability": "view",
      "type": "function"
    },
    {
      "inputs": [],
      "name": "FEE_CONFIG_CONTROLLER_USER",
      "outputs": [
        {
          "internalType": "bytes32",
          "name": "",
          "type": "bytes32"
        }
      ],
      "stateMutability": "view",
      "type": "function"
    },
    {
      "inputs": [],
      "name": "VAULT_ADD_REWARD_USER",
      "outputs": [
        {
          "internalType": "bytes32",
          "name": "",
          "type": "bytes32"
        }
      ],
      "stateMutability": "view",
      "type": "function"
    },
    {
      "inputs": [
        {
          "internalType": "address",
          "name": "account",
          "type": "address"
        }
      ],
      "name": "checkChildProxyAdminRole",
      "outputs": [],
      "stateMutability": "view",
      "type": "function"
    },
    {
      "inputs": [
        {
          "internalType": "address",
          "name": "account",
          "type": "address"
        }
      ],
      "name": "checkFeeConfigControllerUser",
      "outputs": [],
      "stateMutability": "view",
      "type": "function"
    },
    {
      "inputs": [
        {
          "internalType": "address",
          "name": "account",
          "type": "address"
        }
      ],
      "name": "checkVaultAddRewardUser",
      "outputs": [],
      "stateMutability": "view",
      "type": "function"
    },
    {
      "inputs": [
        {
          "internalType": "bytes32",
          "name": "role",
          "type": "bytes32"
        }
      ],
      "name": "getRoleAdmin",
      "outputs": [
        {
          "internalType": "bytes32",
          "name": "",
          "type": "bytes32"
        }
      ],
      "stateMutability": "view",
      "type": "function"
    },
    {
      "inputs": [],
      "name": "getSystemUsers",
      "outputs": [
        {
          "components": [
            {
              "internalType": "address",
              "name": "superAdmin",
              "type": "address"
            },
            {
              "internalType": "address",
              "name": "proxyAdmin",
              "type": "address"
            },
            {
              "internalType": "address",
              "name": "childProxyAdmin",
              "type": "address"
            },
            {
              "internalType": "address",
              "name": "vaultAddRewardUser",
              "type": "address"
            },
            {
              "internalType": "address",
              "name": "feeConfigControllerUser",
              "type": "address"
            }
          ],
          "internalType": "struct ISystemRoleBasedAccess.SystemUsers",
          "name": "",
          "type": "tuple"
        }
      ],
      "stateMutability": "view",
      "type": "function"
    },
    {
      "inputs": [
        {
          "internalType": "bytes32",
          "name": "role",
          "type": "bytes32"
        },
        {
          "internalType": "address",
          "name": "account",
          "type": "address"
        }
      ],
      "name": "grantRole",
      "outputs": [],
      "stateMutability": "nonpayable",
      "type": "function"
    },
    {
      "inputs": [
        {
          "internalType": "bytes32",
          "name": "role",
          "type": "bytes32"
        },
        {
          "internalType": "address",
          "name": "account",
          "type": "address"
        }
      ],
      "name": "hasRole",
      "outputs": [
        {
          "internalType": "bool",
          "name": "",
          "type": "bool"
        }
      ],
      "stateMutability": "view",
      "type": "function"
    },
    {
      "inputs": [
        {
          "components": [
            {
              "internalType": "address",
              "name": "superAdmin",
              "type": "address"
            },
            {
              "internalType": "address",
              "name": "proxyAdmin",
              "type": "address"
            },
            {
              "internalType": "address",
              "name": "childProxyAdmin",
              "type": "address"
            },
            {
              "internalType": "address",
              "name": "vaultAddRewardUser",
              "type": "address"
            },
            {
              "internalType": "address",
              "name": "feeConfigControllerUser",
              "type": "address"
            }
          ],
          "internalType": "struct ISystemRoleBasedAccess.SystemUsers",
          "name": "_systemUsers",
          "type": "tuple"
        }
      ],
      "name": "initialize",
      "outputs": [],
      "stateMutability": "nonpayable",
      "type": "function"
    },
    {
      "inputs": [
        {
          "internalType": "bytes32",
          "name": "role",
          "type": "bytes32"
        },
        {
          "internalType": "address",
          "name": "account",
          "type": "address"
        }
      ],
      "name": "renounceRole",
      "outputs": [],
      "stateMutability": "nonpayable",
      "type": "function"
    },
    {
      "inputs": [
        {
          "internalType": "bytes32",
          "name": "role",
          "type": "bytes32"
        },
        {
          "internalType": "address",
          "name": "account",
          "type": "address"
        }
      ],
      "name": "revokeRole",
      "outputs": [],
      "stateMutability": "nonpayable",
      "type": "function"
    },
    {
      "inputs": [
        {
          "internalType": "bytes4",
          "name": "interfaceId",
          "type": "bytes4"
        }
      ],
      "name": "supportsInterface",
      "outputs": [
        {
          "internalType": "bool",
          "name": "",
          "type": "bool"
        }
      ],
      "stateMutability": "view",
      "type": "function"
    },
    {
      "inputs": [
        {
          "components": [
            {
              "internalType": "address",
              "name": "superAdmin",
              "type": "address"
            },
            {
              "internalType": "address",
              "name": "proxyAdmin",
              "type": "address"
            },
            {
              "internalType": "address",
              "name": "childProxyAdmin",
              "type": "address"
            },
            {
              "internalType": "address",
              "name": "vaultAddRewardUser",
              "type": "address"
            },
            {
              "internalType": "address",
              "name": "feeConfigControllerUser",
              "type": "address"
            }
          ],
          "internalType": "struct ISystemRoleBasedAccess.SystemUsers",
          "name": "_systemUsers",
          "type": "tuple"
        }
      ],
      "name": "updateSystemUsers",
      "outputs": [],
      "stateMutability": "nonpayable",
      "type": "function"
    }
  ],
  "bytecode": "0x608060405234801561001057600080fd5b50610cc1806100206000396000f3fe608060405234801561001057600080fd5b50600436106100d05760003560e01c806301ffc9a7146100d5578063248a9ca3146100fd5780632f2ff15d1461011e57806336568abe146101335780634fee0ff11461014657806355a16a04146101595780635d0629221461016e5780637ae09f4d146102345780638f656d221461024757806390d0c71a1461025a57806391d148541461026d578063968c55ab14610280578063a217fddf14610293578063d547741f1461029b578063e8185489146102ae578063f9ac84eb146102c3575b600080fd5b6100e86100e33660046109a1565b6102d8565b60405190151581526020015b60405180910390f35b61011061010b3660046109cb565b61030f565b6040519081526020016100f4565b61013161012c366004610a00565b610324565b005b610131610141366004610a00565b610345565b610131610154366004610a2c565b6103c8565b610110600080516020610c2c83398151915281565b6101e56040805160a081018252600080825260208201819052918101829052606081018290526080810191909152506040805160a08101825260c9546001600160a01b03908116825260ca548116602083015260cb5481169282019290925260cc548216606082015260cd54909116608082015290565b6040516100f4919081516001600160a01b039081168252602080840151821690830152604080840151821690830152606080840151821690830152608092830151169181019190915260a00190565b610131610242366004610a2c565b6103e3565b610131610255366004610a5d565b6103fb565b610131610268366004610a5d565b61056f565b6100e861027b366004610a00565b610581565b61013161028e366004610a2c565b6105ac565b610110600081565b6101316102a9366004610a00565b6105c4565b610110600080516020610c6c83398151915281565b610110600080516020610c4c83398151915281565b60006001600160e01b03198216637965db0b60e01b148061030957506301ffc9a760e01b6001600160e01b03198316145b92915050565b60009081526065602052604090206001015490565b61032d8261030f565b610336816105e0565b61034083836105ea565b505050565b6001600160a01b03811633146103ba5760405162461bcd60e51b815260206004820152602f60248201527f416363657373436f6e74726f6c3a2063616e206f6e6c792072656e6f756e636560448201526e103937b632b9903337b91039b2b63360891b60648201526084015b60405180910390fd5b6103c48282610670565b5050565b6103e0600080516020610c6c833981519152826106d7565b50565b6103e0600080516020610c2c833981519152826106d7565b600054610100900460ff161580801561041b5750600054600160ff909116105b806104355750303b158015610435575060005460ff166001145b6104985760405162461bcd60e51b815260206004820152602e60248201527f496e697469616c697a61626c653a20636f6e747261637420697320616c72656160448201526d191e481a5b9a5d1a585b1a5e995960921b60648201526084016103b1565b6000805460ff1916600117905580156104bb576000805461ff0019166101001790555b81516104c9906000906105ea565b6104e5600080516020610c2c83398151915283604001516105ea565b610501600080516020610c4c83398151915283606001516105ea565b61051d600080516020610c6c83398151915283608001516105ea565b61052682610730565b80156103c4576000805461ff0019169055604051600181527f7f26b83ff96e1f2b6a682f133852f6798a09c465da95921460cefb38474024989060200160405180910390a15050565b610578336103e3565b6103e081610730565b60009182526065602090815260408084206001600160a01b0393909316845291905290205460ff1690565b6103e0600080516020610c4c833981519152826106d7565b6105cd8261030f565b6105d6816105e0565b6103408383610670565b6103e081336106d7565b6105f48282610581565b6103c45760008281526065602090815260408083206001600160a01b03851684529091529020805460ff1916600117905561062c3390565b6001600160a01b0316816001600160a01b0316837f2f8788117e7eff1d82e926ec794901d17c78024a50270940304540a733656f0d60405160405180910390a45050565b61067a8282610581565b156103c45760008281526065602090815260408083206001600160a01b0385168085529252808320805460ff1916905551339285917ff6391f5c32d9c69d2a47ea670b442974b53935d1edc7fd64eb21e047a839171b9190a45050565b6106e18282610581565b6103c4576106ee816107ed565b6106f98360206107ff565b60405160200161070a929190610b1c565b60408051601f198184030181529082905262461bcd60e51b82526103b191600401610b8b565b805160c980546001600160a01b03199081166001600160a01b0393841690811790925560208085015160ca80548416918616918217905560408087015160cb80548616918816918217905560608089015160cc80548816918a1691821790556080808b015160cd80549099169a16998a17909755835197885294870193909352908501528301528101919091527f3a6177ebb9b71e56f6ecf7bc0861a76d3ef44e4b3c2d3bf0e347b8b85bb5f60e9060a00160405180910390a150565b60606103096001600160a01b03831660145b6060600061080e836002610bd4565b610819906002610beb565b6001600160401b0381111561083057610830610a47565b6040519080825280601f01601f19166020018201604052801561085a576020820181803683370190505b509050600360fc1b8160008151811061087557610875610bfe565b60200101906001600160f81b031916908160001a905350600f60fb1b816001815181106108a4576108a4610bfe565b60200101906001600160f81b031916908160001a90535060006108c8846002610bd4565b6108d3906001610beb565b90505b600181111561094b576f181899199a1a9b1b9c1cb0b131b232b360811b85600f166010811061090757610907610bfe565b1a60f81b82828151811061091d5761091d610bfe565b60200101906001600160f81b031916908160001a90535060049490941c9361094481610c14565b90506108d6565b50831561099a5760405162461bcd60e51b815260206004820181905260248201527f537472696e67733a20686578206c656e67746820696e73756666696369656e7460448201526064016103b1565b9392505050565b6000602082840312156109b357600080fd5b81356001600160e01b03198116811461099a57600080fd5b6000602082840312156109dd57600080fd5b5035919050565b80356001600160a01b03811681146109fb57600080fd5b919050565b60008060408385031215610a1357600080fd5b82359150610a23602084016109e4565b90509250929050565b600060208284031215610a3e57600080fd5b61099a826109e4565b634e487b7160e01b600052604160045260246000fd5b600060a08284031215610a6f57600080fd5b60405160a081016001600160401b0381118282101715610a9f57634e487b7160e01b600052604160045260246000fd5b604052610aab836109e4565b8152610ab9602084016109e4565b6020820152610aca604084016109e4565b6040820152610adb606084016109e4565b6060820152610aec608084016109e4565b60808201529392505050565b60005b83811015610b13578181015183820152602001610afb565b50506000910152565b76020b1b1b2b9b9a1b7b73a3937b61d1030b1b1b7bab73a1604d1b815260008351610b4e816017850160208801610af8565b7001034b99036b4b9b9b4b733903937b6329607d1b6017918401918201528351610b7f816028840160208801610af8565b01602801949350505050565b6020815260008251806020840152610baa816040850160208701610af8565b601f01601f19169190910160400192915050565b634e487b7160e01b600052601160045260246000fd5b808202811582820484141761030957610309610bbe565b8082018082111561030957610309610bbe565b634e487b7160e01b600052603260045260246000fd5b600081610c2357610c23610bbe565b50600019019056fe580dce950df8d118dbb4fee443132045d50f84714b4504bb167e20501fdd7513e3d3022dfa0e60ed0d164cb4ba293b7e32f91ebae823f126c45e4a9dcd31dddcb8871b9bafa6053004fb0fca84dd45a51d6e6e9a6a65ecd5da23f6087cebe772a264697066735822122054c93625d9807b945bc9e3f2b745fdaaa7a2a39e5e84d25bb66b9b2a4f8f038164736f6c63430008120033",
  "linkReferences": {},
  "deployedLinkReferences": {}
}