{
  "_format": "hh-sol-artifact-1",
  "contractName": "Configuration",
  "sourceName": "contracts/Configuration.sol",
  "abi": [
    {
      "anonymous": false,
      "inputs": [
        {
          "indexed": false,
          "internalType": "uint8",
          "name": "version",
          "type": "uint8"
        }
      ],
      "name": "Initialized",
      "type": "event"
    },
    {
      "anonymous": false,
      "inputs": [
        {
          "indexed": true,
          "internalType": "address",
          "name": "previousOwner",
          "type": "address"
        },
        {
          "indexed": true,
          "internalType": "address",
          "name": "newOwner",
          "type": "address"
        }
      ],
      "name": "OwnershipTransferred",
      "type": "event"
    },
    {
      "inputs": [],
      "name": "getHbarxAddress",
      "outputs": [
        {
          "internalType": "address",
          "name": "",
          "type": "address"
        }
      ],
      "stateMutability": "view",
      "type": "function"
    },
    {
      "inputs": [],
      "name": "getTransactionsFee",
      "outputs": [
        {
          "internalType": "uint256[]",
          "name": "feeItems",
          "type": "uint256[]"
        }
      ],
      "stateMutability": "view",
      "type": "function"
    },
    {
      "inputs": [],
      "name": "initialize",
      "outputs": [],
      "stateMutability": "nonpayable",
      "type": "function"
    },
    {
      "inputs": [],
      "name": "owner",
      "outputs": [
        {
          "internalType": "address",
          "name": "",
          "type": "address"
        }
      ],
      "stateMutability": "view",
      "type": "function"
    },
    {
      "inputs": [],
      "name": "renounceOwnership",
      "outputs": [],
      "stateMutability": "nonpayable",
      "type": "function"
    },
    {
      "inputs": [
        {
          "internalType": "address",
          "name": "newAddress",
          "type": "address"
        }
      ],
      "name": "setHbarxAddress",
      "outputs": [],
      "stateMutability": "nonpayable",
      "type": "function"
    },
    {
      "inputs": [
        {
          "internalType": "uint256",
          "name": "_key",
          "type": "uint256"
        },
        {
          "internalType": "uint256",
          "name": "_value",
          "type": "uint256"
        }
      ],
      "name": "setTransactionFee",
      "outputs": [],
      "stateMutability": "nonpayable",
      "type": "function"
    },
    {
      "inputs": [
        {
          "internalType": "address",
          "name": "newOwner",
          "type": "address"
        }
      ],
      "name": "transferOwnership",
      "outputs": [],
      "stateMutability": "nonpayable",
      "type": "function"
    }
  ],
  "bytecode": "0x608060405234801561001057600080fd5b50610817806100206000396000f3fe608060405234801561001057600080fd5b50600436106100785760003560e01c8063338c0edd1461007d57806337d7d41e146100a7578063715018a6146100bc5780638129fc1c146100c45780638da5cb5b146100cc57806394193284146100d4578063f16a9630146100e9578063f2fde38b146100fc575b600080fd5b6068546001600160a01b03165b6040516001600160a01b0390911681526020015b60405180910390f35b6100ba6100b5366004610682565b61010f565b005b6100ba610128565b6100ba61013c565b61008a61026e565b6100dc61027d565b60405161009e91906106a4565b6100ba6100f73660046106e8565b61036f565b6100ba61010a3660046106e8565b610399565b61011761040f565b6101236065838361046e565b505050565b61013061040f565b61013a6000610483565b565b600054610100900460ff161580801561015c5750600054600160ff909116105b806101765750303b158015610176575060005460ff166001145b6101de5760405162461bcd60e51b815260206004820152602e60248201527f496e697469616c697a61626c653a20636f6e747261637420697320616c72656160448201526d191e481a5b9a5d1a585b1a5e995960921b60648201526084015b60405180910390fd5b6000805460ff191660011790558015610201576000805461ff0019166101001790555b6102096104d5565b610211610504565b606880546001600160a01b031916612182179055801561026b576000805461ff0019169055604051600181527f7f26b83ff96e1f2b6a682f133852f6798a09c465da95921460cefb38474024989060200160405180910390a15b50565b6033546001600160a01b031690565b6060600061028b6065610530565b9050610298816002610727565b6001600160401b038111156102af576102af61073e565b6040519080825280602002602001820160405280156102d8578160200160208202803683370190505b50915060005b8181101561036a576000806102f4606584610541565b90925090508185610306856002610727565b8151811061031657610316610754565b6020908102919091010152808561032e856002610727565b61033990600161076a565b8151811061034957610349610754565b602002602001018181525050505080806103629061077d565b9150506102de565b505090565b61037761040f565b606880546001600160a01b0319166001600160a01b0392909216919091179055565b6103a161040f565b6001600160a01b0381166104065760405162461bcd60e51b815260206004820152602660248201527f4f776e61626c653a206e6577206f776e657220697320746865207a65726f206160448201526564647265737360d01b60648201526084016101d5565b61026b81610483565b3361041861026e565b6001600160a01b03161461013a5760405162461bcd60e51b815260206004820181905260248201527f4f776e61626c653a2063616c6c6572206973206e6f7420746865206f776e657260448201526064016101d5565b600061047b84848461055d565b949350505050565b603380546001600160a01b038381166001600160a01b0319831681179093556040519116919082907f8be0079c531659141344cd1fd0a4f28419497f9722a3daafe3b4186f6b6457e090600090a35050565b600054610100900460ff166104fc5760405162461bcd60e51b81526004016101d590610796565b61013a61057a565b61051260656001600561046e565b5061052160656002601e61046e565b5061026b60656003600a61046e565b600061053b826105aa565b92915050565b600080808061055086866105b5565b9097909650945050505050565b6000828152600284016020526040812082905561047b84846105e0565b600054610100900460ff166105a15760405162461bcd60e51b81526004016101d590610796565b61013a33610483565b600061053b826105f3565b600080806105c385856105fd565b600081815260029690960160205260409095205494959350505050565b60006105ec8383610609565b9392505050565b600061053b825490565b60006105ec8383610658565b60008181526001830160205260408120546106505750815460018181018455600084815260208082209093018490558454848252828601909352604090209190915561053b565b50600061053b565b600082600001828154811061066f5761066f610754565b9060005260206000200154905092915050565b6000806040838503121561069557600080fd5b50508035926020909101359150565b6020808252825182820181905260009190848201906040850190845b818110156106dc578351835292840192918401916001016106c0565b50909695505050505050565b6000602082840312156106fa57600080fd5b81356001600160a01b03811681146105ec57600080fd5b634e487b7160e01b600052601160045260246000fd5b808202811582820484141761053b5761053b610711565b634e487b7160e01b600052604160045260246000fd5b634e487b7160e01b600052603260045260246000fd5b8082018082111561053b5761053b610711565b60006001820161078f5761078f610711565b5060010190565b6020808252602b908201527f496e697469616c697a61626c653a20636f6e7472616374206973206e6f74206960408201526a6e697469616c697a696e6760a81b60608201526080019056fea2646970667358221220abd4f315e58e7c3dedf04055ab6ce4199b5f4b847d7475a36a2d9a9a8d9328e664736f6c63430008120033",
  "linkReferences": {},
  "deployedLinkReferences": {}
}