{
  "_format": "hh-sol-artifact-1",
  "contractName": "Configuration",
  "sourceName": "contracts/Configuration.sol",
  "abi": [
    {
      "anonymous": false,
      "inputs": [
        {
          "indexed": false,
          "internalType": "uint8",
          "name": "version",
          "type": "uint8"
        }
      ],
      "name": "Initialized",
      "type": "event"
    },
    {
      "anonymous": false,
      "inputs": [
        {
          "indexed": true,
          "internalType": "address",
          "name": "previousOwner",
          "type": "address"
        },
        {
          "indexed": true,
          "internalType": "address",
          "name": "newOwner",
          "type": "address"
        }
      ],
      "name": "OwnershipTransferred",
      "type": "event"
    },
    {
      "inputs": [],
      "name": "getTransactionsFee",
      "outputs": [
        {
          "internalType": "uint256[]",
          "name": "feeItems",
          "type": "uint256[]"
        }
      ],
      "stateMutability": "view",
      "type": "function"
    },
    {
      "inputs": [],
      "name": "initialize",
      "outputs": [],
      "stateMutability": "nonpayable",
      "type": "function"
    },
    {
      "inputs": [],
      "name": "owner",
      "outputs": [
        {
          "internalType": "address",
          "name": "",
          "type": "address"
        }
      ],
      "stateMutability": "view",
      "type": "function"
    },
    {
      "inputs": [],
      "name": "renounceOwnership",
      "outputs": [],
      "stateMutability": "nonpayable",
      "type": "function"
    },
    {
      "inputs": [
        {
          "internalType": "uint256",
          "name": "_key",
          "type": "uint256"
        },
        {
          "internalType": "uint256",
          "name": "_value",
          "type": "uint256"
        }
      ],
      "name": "setTransactionFee",
      "outputs": [],
      "stateMutability": "nonpayable",
      "type": "function"
    },
    {
      "inputs": [
        {
          "internalType": "address",
          "name": "newOwner",
          "type": "address"
        }
      ],
      "name": "transferOwnership",
      "outputs": [],
      "stateMutability": "nonpayable",
      "type": "function"
    }
  ],
  "bytecode": "0x608060405234801561001057600080fd5b506109bf806100206000396000f3fe608060405234801561001057600080fd5b50600436106100725760003560e01c80638da5cb5b116100505780638da5cb5b1461009c57806394193284146100c9578063f2fde38b146100de57600080fd5b806337d7d41e14610077578063715018a61461008c5780638129fc1c14610094575b600080fd5b61008a6100853660046107fe565b6100f1565b005b61008a61010a565b61008a61011e565b60335460405173ffffffffffffffffffffffffffffffffffffffff90911681526020015b60405180910390f35b6100d16102bd565b6040516100c09190610820565b61008a6100ec366004610864565b6103b0565b6100f9610464565b610105606583836104e5565b505050565b610112610464565b61011c60006104fa565b565b600054610100900460ff161580801561013e5750600054600160ff909116105b806101585750303b158015610158575060005460ff166001145b6101e9576040517f08c379a000000000000000000000000000000000000000000000000000000000815260206004820152602e60248201527f496e697469616c697a61626c653a20636f6e747261637420697320616c72656160448201527f647920696e697469616c697a656400000000000000000000000000000000000060648201526084015b60405180910390fd5b600080547fffffffffffffffffffffffffffffffffffffffffffffffffffffffffffffff00166001179055801561024757600080547fffffffffffffffffffffffffffffffffffffffffffffffffffffffffffff00ff166101001790555b61024f610571565b610257610610565b80156102ba57600080547fffffffffffffffffffffffffffffffffffffffffffffffffffffffffffff00ff169055604051600181527f7f26b83ff96e1f2b6a682f133852f6798a09c465da95921460cefb38474024989060200160405180910390a15b50565b606060006102cb606561063c565b90506102d88160026108c9565b67ffffffffffffffff8111156102f0576102f06108e0565b604051908082528060200260200182016040528015610319578160200160208202803683370190505b50915060005b818110156103ab5760008061033560658461064d565b909250905081856103478560026108c9565b815181106103575761035761090f565b6020908102919091010152808561036f8560026108c9565b61037a90600161093e565b8151811061038a5761038a61090f565b602002602001018181525050505080806103a390610951565b91505061031f565b505090565b6103b8610464565b73ffffffffffffffffffffffffffffffffffffffff811661045b576040517f08c379a000000000000000000000000000000000000000000000000000000000815260206004820152602660248201527f4f776e61626c653a206e6577206f776e657220697320746865207a65726f206160448201527f646472657373000000000000000000000000000000000000000000000000000060648201526084016101e0565b6102ba816104fa565b60335473ffffffffffffffffffffffffffffffffffffffff16331461011c576040517f08c379a000000000000000000000000000000000000000000000000000000000815260206004820181905260248201527f4f776e61626c653a2063616c6c6572206973206e6f7420746865206f776e657260448201526064016101e0565b60006104f2848484610669565b949350505050565b6033805473ffffffffffffffffffffffffffffffffffffffff8381167fffffffffffffffffffffffff0000000000000000000000000000000000000000831681179093556040519116919082907f8be0079c531659141344cd1fd0a4f28419497f9722a3daafe3b4186f6b6457e090600090a35050565b600054610100900460ff16610608576040517f08c379a000000000000000000000000000000000000000000000000000000000815260206004820152602b60248201527f496e697469616c697a61626c653a20636f6e7472616374206973206e6f74206960448201527f6e697469616c697a696e6700000000000000000000000000000000000000000060648201526084016101e0565b61011c610686565b61061e6065600160056104e5565b5061062d60656002601e6104e5565b506102ba60656003600a6104e5565b600061064782610726565b92915050565b600080808061065c8686610731565b9097909650945050505050565b600082815260028401602052604081208290556104f2848461075c565b600054610100900460ff1661071d576040517f08c379a000000000000000000000000000000000000000000000000000000000815260206004820152602b60248201527f496e697469616c697a61626c653a20636f6e7472616374206973206e6f74206960448201527f6e697469616c697a696e6700000000000000000000000000000000000000000060648201526084016101e0565b61011c336104fa565b60006106478261076f565b6000808061073f8585610779565b600081815260029690960160205260409095205494959350505050565b60006107688383610785565b9392505050565b6000610647825490565b600061076883836107d4565b60008181526001830160205260408120546107cc57508154600181810184556000848152602080822090930184905584548482528286019093526040902091909155610647565b506000610647565b60008260000182815481106107eb576107eb61090f565b9060005260206000200154905092915050565b6000806040838503121561081157600080fd5b50508035926020909101359150565b6020808252825182820181905260009190848201906040850190845b818110156108585783518352928401929184019160010161083c565b50909695505050505050565b60006020828403121561087657600080fd5b813573ffffffffffffffffffffffffffffffffffffffff8116811461076857600080fd5b7f4e487b7100000000000000000000000000000000000000000000000000000000600052601160045260246000fd5b80820281158282048414176106475761064761089a565b7f4e487b7100000000000000000000000000000000000000000000000000000000600052604160045260246000fd5b7f4e487b7100000000000000000000000000000000000000000000000000000000600052603260045260246000fd5b808201808211156106475761064761089a565b60007fffffffffffffffffffffffffffffffffffffffffffffffffffffffffffffffff82036109825761098261089a565b506001019056fea26469706673582212206af1d5dd0cddd902afeb61a819186dcd942ed5ecfa2c662874f3b11bd3eab73564736f6c63430008110033",
  "linkReferences": {},
  "deployedLinkReferences": {}
}