{
  "_format": "hh-sol-artifact-1",
  "contractName": "Factory",
  "sourceName": "contracts/Factory.sol",
  "abi": [
    {
      "anonymous": false,
      "inputs": [
        {
          "indexed": false,
          "internalType": "uint8",
          "name": "version",
          "type": "uint8"
        }
      ],
      "name": "Initialized",
      "type": "event"
    },
    {
      "anonymous": false,
      "inputs": [
        {
          "indexed": true,
          "internalType": "address",
          "name": "oldImplementation",
          "type": "address"
        },
        {
          "indexed": true,
          "internalType": "address",
          "name": "newImplementation",
          "type": "address"
        },
        {
          "indexed": false,
          "internalType": "string",
          "name": "name",
          "type": "string"
        }
      ],
      "name": "LogicUpdated",
      "type": "event"
    },
    {
      "anonymous": false,
      "inputs": [
        {
          "indexed": true,
          "internalType": "address",
          "name": "pairAddress",
          "type": "address"
        }
      ],
      "name": "PairCreated",
      "type": "event"
    },
    {
      "inputs": [
        {
          "internalType": "address",
          "name": "_tokenA",
          "type": "address"
        },
        {
          "internalType": "address",
          "name": "_tokenB",
          "type": "address"
        },
        {
          "internalType": "address",
          "name": "_treasury",
          "type": "address"
        },
        {
          "internalType": "int256",
          "name": "_fee",
          "type": "int256"
        }
      ],
      "name": "createPair",
      "outputs": [
        {
          "internalType": "address",
          "name": "pair",
          "type": "address"
        }
      ],
      "stateMutability": "payable",
      "type": "function"
    },
    {
      "inputs": [
        {
          "internalType": "address",
          "name": "_tokenA",
          "type": "address"
        },
        {
          "internalType": "address",
          "name": "_tokenB",
          "type": "address"
        },
        {
          "internalType": "int256",
          "name": "_fee",
          "type": "int256"
        }
      ],
      "name": "getPair",
      "outputs": [
        {
          "internalType": "address",
          "name": "",
          "type": "address"
        }
      ],
      "stateMutability": "view",
      "type": "function"
    },
    {
      "inputs": [],
      "name": "getPairs",
      "outputs": [
        {
          "internalType": "address[]",
          "name": "",
          "type": "address[]"
        }
      ],
      "stateMutability": "view",
      "type": "function"
    },
    {
      "inputs": [],
      "name": "hbarxAddress",
      "outputs": [
        {
          "internalType": "address",
          "name": "",
          "type": "address"
        }
      ],
      "stateMutability": "nonpayable",
      "type": "function"
    },
    {
      "inputs": [
        {
          "internalType": "address",
          "name": "_tokenToSwap",
          "type": "address"
        },
        {
          "internalType": "address",
          "name": "_otherTokenOfPair",
          "type": "address"
        },
        {
          "internalType": "int256",
          "name": "_qtyToSwap",
          "type": "int256"
        }
      ],
      "name": "recommendedPairToSwap",
      "outputs": [
        {
          "internalType": "address",
          "name": "",
          "type": "address"
        },
        {
          "internalType": "address",
          "name": "",
          "type": "address"
        },
        {
          "internalType": "int256",
          "name": "",
          "type": "int256"
        },
        {
          "internalType": "uint256",
          "name": "",
          "type": "uint256"
        },
        {
          "internalType": "int256",
          "name": "",
          "type": "int256"
        }
      ],
      "stateMutability": "view",
      "type": "function"
    },
    {
      "inputs": [
        {
          "internalType": "contract IBaseHTS",
          "name": "_service",
          "type": "address"
        },
        {
          "internalType": "address",
          "name": "_admin",
          "type": "address"
        },
        {
          "internalType": "contract Configuration",
          "name": "_configuration",
          "type": "address"
        }
      ],
      "name": "setUpFactory",
      "outputs": [],
      "stateMutability": "nonpayable",
      "type": "function"
    },
    {
      "inputs": [
        {
          "internalType": "address",
          "name": "_newImpl",
          "type": "address"
        }
      ],
      "name": "upgradeLpTokenImplementation",
      "outputs": [],
      "stateMutability": "nonpayable",
      "type": "function"
    },
    {
      "inputs": [
        {
          "internalType": "address",
          "name": "_newImpl",
          "type": "address"
        }
      ],
      "name": "upgradePairImplementation",
      "outputs": [],
      "stateMutability": "nonpayable",
      "type": "function"
    }
  ],
  "bytecode": "0x608060405234801561001057600080fd5b506159b0806100206000396000f3fe608060405260043610620000745760003560e01c806312359560146200007957806332c6d42d14620000ad578063767eb5ef14620000d457806387a45e4c14620000fb57806394ad9d8d1462000154578063e283cff71462000179578063e598d5871462000191578063fbdd9ff714620001b6575b600080fd5b620000906200008a36600462001020565b620001db565b6040516001600160a01b0390911681526020015b60405180910390f35b348015620000ba57600080fd5b50620000d2620000cc36600462001078565b620002f0565b005b348015620000e157600080fd5b50620000ec6200058c565b604051620000a49190620010ca565b3480156200010857600080fd5b50620001206200011a36600462001119565b620005f0565b604080516001600160a01b039687168152959094166020860152928401919091526060830152608082015260a001620000a4565b3480156200016157600080fd5b50620000906200017336600462001119565b620006d1565b3480156200018657600080fd5b50620000906200071c565b3480156200019e57600080fd5b50620000d2620001b03660046200115f565b62000793565b348015620001c357600080fd5b50620000d2620001d53660046200115f565b62000845565b6000806000620001ec8787620008f4565b6001600160a01b038083166000908152600360209081526040808320848616845282528083208a8452909152902054169450909250905082620002e65760006200023983838888620009c8565b6001600160a01b038085166000908152600360209081526040808320878516845282528083208a845290915280822080549385166001600160a01b03199485168117909155600280546001810182559084527f405787fa12a823e0f2b7631cc41b3ba8828b3321ca811111fa75cd3aa3bb5ace01805490941681179093555192965086935090917fb14a725aeeb25d591b81b16b4c5b25403dd8867bdd1876fa787867f566206be19190a2505b5050949350505050565b600054610100900460ff1615808015620003115750600054600160ff909116105b806200032d5750303b1580156200032d575060005460ff166001145b620003965760405162461bcd60e51b815260206004820152602e60248201527f496e697469616c697a61626c653a20636f6e747261637420697320616c72656160448201526d191e481a5b9a5d1a585b1a5e995960921b60648201526084015b60405180910390fd5b6000805460ff191660011790558015620003ba576000805461ff0019166101001790555b600180546001600160a01b0319166001600160a01b03868116919091179091556000805462010000600160b01b0319166201000092861692909202919091179055604051620004099062000f9c565b604051809103906000f08015801562000426573d6000803e3d6000fd5b50600480546001600160a01b039283166001600160a01b03199182168117909255600680549386169390911692909217909155604080518082018252600c81526b14185a5c90dbdb9d1c9858dd60a21b602082015290516000916000805160206200595b833981519152916200049d9190620011da565b60405180910390a3604051620004b39062000faa565b604051809103906000f080158015620004d0573d6000803e3d6000fd5b50600580546001600160a01b0319166001600160a01b03929092169182179055604080518082018252600f81526e131c151bdad95b90dbdb9d1c9858dd608a1b602082015290516000916000805160206200595b83398151915291620005379190620011da565b60405180910390a3801562000586576000805461ff0019169055604051600181527f7f26b83ff96e1f2b6a682f133852f6798a09c465da95921460cefb38474024989060200160405180910390a15b50505050565b60606002805480602002602001604051908101604052809291908181526020018280548015620005e657602002820191906000526020600020905b81546001600160a01b03168152600190910190602001808311620005c7575b5050505050905090565b600080600080600080600660009054906101000a90046001600160a01b03166001600160a01b031663941932846040518163ffffffff1660e01b8152600401600060405180830381865afa1580156200064d573d6000803e3d6000fd5b505050506040513d6000823e601f3d908101601f1916820160405262000677919081019062001238565b9050600080620006888b8b620008f4565b9150915060006200069d8484848f8e62000a83565b9050806000015181602001518260400151836060015184608001519850985098509850985050505050939792965093509350565b6000806000620006e28686620008f4565b6001600160a01b03918216600090815260036020908152604080832093851683529281528282208883529052205416925050509392505050565b6001546040805163e283cff760e01b815290516000926001600160a01b03169163e283cff7916004808301926020929190829003018187875af115801562000768573d6000803e3d6000fd5b505050506040513d601f19601f820116820180604052508101906200078e9190620012e8565b905090565b6000546201000090046001600160a01b03163314620007c65760405162461bcd60e51b81526004016200038d9062001308565b600554604080518082018252600f81526e131c151bdad95b90dbdb9d1c9858dd608a1b602082015290516001600160a01b038085169316916000805160206200595b833981519152916200081b9190620011da565b60405180910390a3600580546001600160a01b0319166001600160a01b0392909216919091179055565b6000546201000090046001600160a01b03163314620008785760405162461bcd60e51b81526004016200038d9062001308565b600454604080518082018252600c81526b14185a5c90dbdb9d1c9858dd60a21b602082015290516001600160a01b038085169316916000805160206200595b83398151915291620008ca9190620011da565b60405180910390a3600480546001600160a01b0319166001600160a01b0392909216919091179055565b600080826001600160a01b0316846001600160a01b031603620009505760405162461bcd60e51b81526020600482015260136024820152724944454e544943414c5f41444452455353455360681b60448201526064016200038d565b826001600160a01b0316846001600160a01b0316106200097257828462000975565b83835b90925090506001600160a01b038216620009c15760405162461bcd60e51b815260206004820152600c60248201526b5a45524f5f4144445245535360a01b60448201526064016200038d565b9250929050565b600080620009d7868662000d68565b600454909150620009f1906001600160a01b031662000e30565b60015460405162e4f6ed60e81b81526001600160a01b039182166004820152838216602482015288821660448201528782166064820152868216608482015260a4810186905291935083169063e4f6ed009060c401600060405180830381600087803b15801562000a6157600080fd5b505af115801562000a76573d6000803e3d6000fd5b5050505050949350505050565b62000a8d62000fb8565b62000a9762000fb8565b60005b875181101562000d5d5760008862000ab483600162001336565b8151811062000ac75762000ac762001358565b6020908102919091018101516001600160a01b03808b1660009081526003845260408082208c841683528552808220848352909452929092205490925016801562000d455760008060008b6001600160a01b03168a6001600160a01b03160362000c14576040516322c9ec0b60e11b8152600481018a90526001600160a01b03851690634593d81690602401608060405180830381865afa15801562000b71573d6000803e3d6000fd5b505050506040513d601f19601f8201168201806040525081019062000b9791906200136e565b50604051639dcfc22b60e01b8152600481018d90529095508d94506001600160a01b0387169250639dcfc22b9150602401602060405180830381865afa15801562000be6573d6000803e3d6000fd5b505050506040513d601f19601f8201168201806040525081019062000c0c9190620013a5565b905062000cf8565b604051636c09e9b160e11b8152600481018a90526001600160a01b0385169063d813d36290602401608060405180830381865afa15801562000c5a573d6000803e3d6000fd5b505050506040513d601f19601f8201168201806040525081019062000c8091906200136e565b50506040516318a8643760e31b8152600481018c90529094508d93506001600160a01b038616915063c54321b890602401602060405180830381865afa15801562000ccf573d6000803e3d6000fd5b505050506040513d601f19601f8201168201806040525081019062000cf59190620013a5565b90505b866040015183131562000d41576040518060a00160405280856001600160a01b03168152602001836001600160a01b031681526020018481526020018681526020018281525096505b5050505b5062000d55905081600262001336565b905062000a9a565b509695505050505050565b60008062000d77848462000e8d565b905060008160405160200162000d8e9190620013bf565b60408051601f1981840301815291905260055490915062000db8906001600160a01b031662000e30565b600154604051639065714760e01b81529194506001600160a01b0380861692639065714792349262000df49291169086908890600401620013f3565b6000604051808303818588803b15801562000e0e57600080fd5b505af115801562000e23573d6000803e3d6000fd5b5050505050505092915050565b6000606082600060029054906101000a90046001600160a01b03168260405162000e5a9062000ff9565b62000e689392919062001437565b604051809103906000f08015801562000e85573d6000803e3d6000fd5b509392505050565b60606000836001600160a01b03166395d89b416040518163ffffffff1660e01b81526004016000604051808303816000875af115801562000ed2573d6000803e3d6000fd5b505050506040513d6000823e601f3d908101601f1916820160405262000efc91908101906200146e565b90506000836001600160a01b03166395d89b416040518163ffffffff1660e01b81526004016000604051808303816000875af115801562000f41573d6000803e3d6000fd5b505050506040513d6000823e601f3d908101601f1916820160405262000f6b91908101906200146e565b9050818160405160200162000f829291906200150c565b604051602081830303815290604052925050505b92915050565b61229b806200154d83390190565b61132f80620037e883390190565b6040518060a0016040528060006001600160a01b0316815260200160006001600160a01b031681526020016000815260200160008152602001600081525090565b610e448062004b1783390190565b6001600160a01b03811681146200101d57600080fd5b50565b600080600080608085870312156200103757600080fd5b8435620010448162001007565b93506020850135620010568162001007565b92506040850135620010688162001007565b9396929550929360600135925050565b6000806000606084860312156200108e57600080fd5b83356200109b8162001007565b92506020840135620010ad8162001007565b91506040840135620010bf8162001007565b809150509250925092565b6020808252825182820181905260009190848201906040850190845b818110156200110d5783516001600160a01b031683529284019291840191600101620010e6565b50909695505050505050565b6000806000606084860312156200112f57600080fd5b83356200113c8162001007565b925060208401356200114e8162001007565b929592945050506040919091013590565b6000602082840312156200117257600080fd5b81356200117f8162001007565b9392505050565b60005b83811015620011a357818101518382015260200162001189565b50506000910152565b60008151808452620011c681602086016020860162001186565b601f01601f19169290920160200192915050565b6020815260006200117f6020830184620011ac565b634e487b7160e01b600052604160045260246000fd5b604051601f8201601f191681016001600160401b0381118282101715620012305762001230620011ef565b604052919050565b600060208083850312156200124c57600080fd5b82516001600160401b03808211156200126457600080fd5b818501915085601f8301126200127957600080fd5b8151818111156200128e576200128e620011ef565b8060051b9150620012a184830162001205565b8181529183018401918481019088841115620012bc57600080fd5b938501935b83851015620012dc57845182529385019390850190620012c1565b98975050505050505050565b600060208284031215620012fb57600080fd5b81516200117f8162001007565b602080825260149082015273119858dd1bdc9e4e88185d5d1a0819985a5b195960621b604082015260600190565b8082018082111562000f9657634e487b7160e01b600052601160045260246000fd5b634e487b7160e01b600052603260045260246000fd5b600080600080608085870312156200138557600080fd5b505082516020840151604085015160609095015191969095509092509050565b600060208284031215620013b857600080fd5b5051919050565b60008251620013d381846020870162001186565b6d204c5020746f6b656e206e616d6560901b920191825250600e01919050565b6001600160a01b03841681526060602082018190526000906200141990830185620011ac565b82810360408401526200142d8185620011ac565b9695505050505050565b6001600160a01b038481168252831660208201526060604082018190526000906200146590830184620011ac565b95945050505050565b6000602082840312156200148157600080fd5b81516001600160401b03808211156200149957600080fd5b818401915084601f830112620014ae57600080fd5b815181811115620014c357620014c3620011ef565b620014d8601f8201601f191660200162001205565b9150808252856020828501011115620014f057600080fd5b6200150381602084016020860162001186565b50949350505050565b600083516200152081846020880162001186565b602d60f81b90830190815283516200154081600184016020880162001186565b0160010194935050505056fe608060405234801561001057600080fd5b5061227b806100206000396000f3fe6080604052600436106101055760003560e01c80630d329a521461010a578063198f9b831461012c5780632537d3241461013f57806325fd3ee9146101625780632b26701a1461017557806332a2c5d01461019d5780634593d816146101b957806356b35b0e146101f95780635cd9e0191461021c578063845213991461023c57806389b11e1b1461025a5780639af5349a1461027d5780639dcfc22b146102a2578063c1f1b1b5146102c2578063c54321b8146102e4578063ca71d4e414610304578063ced72f871461031b578063d13b92cf14610330578063d813d36214610350578063e4f6ed0014610370578063f819163f14610390578063fc9cee3c146103a5575b600080fd5b34801561011657600080fd5b5061012a610125366004611b1b565b6103ba565b005b61012a61013a366004611b47565b6105a7565b34801561014b57600080fd5b5060645b6040519081526020015b60405180910390f35b61012a610170366004611b8d565b610660565b34801561018157600080fd5b5060035460055460408051928352602083019190915201610159565b3480156101a957600080fd5b50305b6040516101599190611be8565b3480156101c557600080fd5b506101d96101d4366004611bfc565b61087a565b604080519485526020850193909352918301526060820152608001610159565b34801561020557600080fd5b5061020e610921565b604051610159929190611c4a565b34801561022857600080fd5b5061014f610237366004611c90565b6109fa565b34801561024857600080fd5b506001546001600160a01b03166101ac565b34801561026657600080fd5b5061014f610275366004611bfc565b600681905590565b34801561028957600080fd5b50610292610a7a565b6040516101599493929190611cad565b3480156102ae57600080fd5b5061014f6102bd366004611bfc565b610b0d565b3480156102ce57600080fd5b506102d7610b9d565b6040516101599190611cd7565b3480156102f057600080fd5b5061014f6102ff366004611bfc565b610bf1565b34801561031057600080fd5b506305f5e10061014f565b34801561032757600080fd5b5060075461014f565b34801561033c57600080fd5b5061014f61034b366004611bfc565b610c84565b34801561035c57600080fd5b506101d961036b366004611bfc565b610cb4565b34801561037c57600080fd5b5061012a61038b366004611ce5565b610d29565b34801561039c57600080fd5b5061014f610f32565b3480156103b157600080fd5b5061014f610f4d565b600154604051636869958f60e01b815282916001600160a01b031690636869958f906103ea908690600401611be8565b602060405180830381865afa158015610407573d6000803e3d6000fd5b505050506040513d601f19601f8201168201806040525081019061042b9190611d5e565b121561048d5760405162461bcd60e51b815260206004820152602660248201527f7573657220646f6573206e6f7420686176652073756666696369656e74206c70604482015265546f6b656e7360d01b60648201526084015b60405180910390fd5b60008061049983610f68565b6002546004546040805160808101909152604a8082529496509294506104f593309389936001600160a01b039081169316918891889161211f60208301396040518060800160405280604a8152602001612169604a913961102f565b6003805483919060009061050a908490611d8d565b909155505060058054829190600090610524908490611d8d565b90915550506001546040516301526b1360e51b8152600481018590526001600160a01b03868116602483015290911690632a4d6260906044016020604051808303816000875af115801561057c573d6000803e3d6000fd5b505050506040513d601f19601f820116820180604052508101906105a09190611d5e565b5050505050565b6002546001600160a01b03848116911614806105d057506004546001600160a01b038481169116145b61061c5760405162461bcd60e51b815260206004820152601f60248201527f506c73207061737320636f727265637420746f6b656e20746f20737761702e006044820152606401610484565b6106268383611053565b6002549092506001600160a01b039081169084160361064f5761064a8483836110c1565b61065a565b61065a848383611224565b50505050565b61066a8483611053565b91506106768382611053565b90506106b8853086868686604051806080016040528060468152602001611ffb60469139604051806080016040528060468152602001611fb56046913961102f565b6002546001600160a01b0385811691161480156106e257506004546001600160a01b038481169116145b1561072157600380548391906000906106fc908490611db4565b909155505060058054829190600090610716908490611db4565b909155506107f49050565b6004546001600160a01b03858116911614801561074b57506002546001600160a01b038481169116145b1561077f5760058054839190600090610765908490611db4565b909155505060038054829190600090610716908490611db4565b6002546004805460405163fc806d8d60e01b815260a092810192909252601760a48301527615dc9bdb99c81d1bdad95b881c185a5c881c185cdcd959604a1b60c48301526001600160a01b0380881660248401528087166044840152928316606483015291909116608482015260e401610484565b60015460405163b4e2517960e01b815260048101849052602481018390526001600160a01b0387811660448301529091169063b4e25179906064016020604051808303816000875af115801561084e573d6000803e3d6000fd5b505050506040513d601f19601f820116820180604052508101906108729190611d5e565b505050505050565b600080600080600080600061088e88611386565b9250925092506000806108a26305f5e10090565b905060006108ae610f32565b6003549091506000906108c2908790611db4565b6005549091506000826108d58686611ddc565b6108df9190611e0c565b905060006108ed8683611e0c565b90506108f98184611d8d565b965050505050505060008061090d836113df565b969c949b5099509497509195505050505050565b610929611aca565b61095b6040518060a0016040528060008152602001600081526020016000815260200160008152602001600081525090565b604080516080810182526002546001600160a01b0390811682840181815260035460608501528352835180850185526004549092168252600554602083810191909152830191909152825160a0810190935290935081906109bb906109fa565b81526004546020909101906109d8906001600160a01b03166109fa565b81526020016305f5e10081526020016064815260200160075481525090509091565b6002546000906305f5e1009082906001600160a01b03858116911614610a2257600554610a26565b6003545b6002549091506000906001600160a01b03868116911614610a4957600354610a4d565b6005545b9050600080821315610a715781610a648585611ddc565b610a6e9190611e0c565b90505b95945050505050565b6002546004805460015460408051638c237c6960e01b815290516000958695869586956001600160a01b039384169591841694931692638c237c69928281019260209291908290030181865afa158015610ad8573d6000803e3d6000fd5b505050506040513d601f19601f82011682018060405250810190610afc9190611e48565b600754935093509350935090919293565b6003546005546000916305f5e100918382610b288584611ddc565b610b329190611e0c565b9050600084610b418389611ddc565b610b4b9190611e0c565b9050600080610b598961087a565b93509350505060008183610b6d9190611db4565b90508388610b7b8383611d8d565b610b859190611ddc565b610b8f9190611e0c565b9a9950505050505050505050565b610ba5611aca565b50604080516080810182526002546001600160a01b0390811682840190815260035460608401528252825180840190935260045416825260055460208381019190915281019190915290565b6003546005546000916305f5e100918381610c0c8585611ddc565b610c169190611e0c565b9050600084610c258389611ddc565b610c2f9190611e0c565b9050600080610c3d89610cb4565b93509350505060008183610c519190611db4565b905060008489610c618285611d8d565b610c6b9190611ddc565b610c759190611e0c565b9b9a5050505050505050505050565b6000806064600260075485610c999190611ddc565b610ca39190611e0c565b610cad9190611e0c565b9392505050565b6000806000806000806000610cc888611386565b925092509250600080610cd9610f32565b6003546005549192506305f5e10091600090610cf6908890611db4565b9050600081610d058587611ddc565b610d0f9190611e0c565b90506000610d1d8583611e0c565b90506108f98482611d8d565b600054610100900460ff1615808015610d495750600054600160ff909116105b80610d6a5750610d5830611423565b158015610d6a575060005460ff166001145b610dcd5760405162461bcd60e51b815260206004820152602e60248201527f496e697469616c697a61626c653a20636f6e747261637420697320616c72656160448201526d191e481a5b9a5d1a585b1a5e995960921b6064820152608401610484565b6000805460ff191660011790558015610df0576000805461ff0019166101001790555b600080546001600160a01b03808a16620100000262010000600160b01b0319909216919091178255600180548983166001600160a01b0319918216179091556007859055600880548784169083161790556040805160808101825289841681830190815260608201869052815281518083019092528884168252602082810195865280820183905290518051600280549187169186169190911790550151600355516004805491909316911617905551600555610ead3086611432565b610eb73085611432565b600854610ecd906001600160a01b031686611432565b600854610ee3906001600160a01b031685611432565b8015610f29576000805461ff0019169055604051600181527f7f26b83ff96e1f2b6a682f133852f6798a09c465da95921460cefb38474024989060200160405180910390a15b50505050505050565b60035460055460009190610f468183611ddc565b9250505090565b6000806006541315610f60575060065490565b506207a12090565b6000806000600160009054906101000a90046001600160a01b03166001600160a01b031663a1e79f756040518163ffffffff1660e01b8152600401602060405180830381865afa158015610fc0573d6000803e3d6000fd5b505050506040513d601f19601f82011682018060405250810190610fe49190611d5e565b6003549091506000908290610ff99087611ddc565b6110039190611e0c565b60055490915060009083906110189088611ddc565b6110229190611e0c565b9196919550909350505050565b61103c8888888786611462565b6110498888878685611462565b5050505050505050565b600061105e836114d9565b156110b85781156110b15760405162461bcd60e51b815260206004820181905260248201527f48424152732073686f756c642062652070617373656420617320706179626c656044820152606401610484565b50346110bb565b50805b92915050565b60006110cc83610b0d565b90506110d8818361156e565b6000806000806110e78761087a565b935093509350935082600260000160010160008282546111079190611db4565b909155505060025460408051608081019091526044808252611143928b9230926001600160a01b0390921691889190611f316020830139611462565b6008546002546040805160808101909152604f80825261117e938c936001600160a01b03918216939116918991906121b36020830139611462565b6111888183611db4565b6005805460009061119a908490611d8d565b90915550506004546111b69089906001600160a01b0316611432565b600454604080516060810182528181526111e99230928c926001600160a01b039092169187916120906020830139611462565b6008546004546040805160808101909152604f8082526110499330936001600160a01b03918216939116918691906120d06020830139611462565b600061122f83610bf1565b905061123b818361156e565b60008060008061124a87610cb4565b9350935093509350826002800160010160008282546112699190611db4565b9091555050600454604080516080810190915260448082526112a5928b9230926001600160a01b03909216918891906122026020830139611462565b6008546004546040805160808101909152604f8082526112e0938c936001600160a01b03918216939116918991906120d06020830139611462565b6112ea8183611db4565b600380546000906112fc908490611d8d565b90915550506002546113189089906001600160a01b0316611432565b6002546040805160608101825281815261134b9230928c926001600160a01b03909216918791611f756020830139611462565b6008546002546040805160808101909152604f8082526110499330936001600160a01b03918216939116918691906120416020830139611462565b60008060008061139585610c84565b905060006113a4600283611e0c565b905060006113b3600284611e0c565b905060006113c18489611d8d565b905060006113cf8383611db4565b9399919850929650945050505050565b600080600083126113f057826113f9565b6113f983611e65565b9250600061140684610c84565b905060006114148286611d8d565b90506000611022600284611e0c565b6001600160a01b03163b151590565b61143b816114d9565b61145e5760005461145c906201000090046001600160a01b03168383611620565b505b5050565b61146b836114d9565b156114b257611479856116bb565b1561148c57611487826116c9565b611495565b61149582611733565b61149e846116bb565b6114ad576114ad82858361177f565b6105a0565b6114bb856116bb565b156114cc576114ad8383868461181b565b6105a083838787856118b3565b60008060029054906101000a90046001600160a01b03166001600160a01b031663e283cff76040518163ffffffff1660e01b81526004016020604051808303816000875af115801561152f573d6000803e3d6000fd5b505050506040513d601f19601f820116820180604052508101906115539190611e48565b6001600160a01b0316826001600160a01b0316149050919050565b60008082136115845761157f610f4d565b611586565b815b905060008312611596578261159f565b61159f83611e65565b92508083131561145c576040516318cc060960e01b815260606004820152603760648201527f5468652063616c63756c6174656420736c697070616765206973206f766572206084820152763a34329039b634b83830b3b2903a343932b9b437b6321760491b60a4820152602481018490526044810182905260c401610484565b600061162b83611423565b156116425761163b848484611956565b9050610cad565b60405163f4a01e5b60e01b81526001600160a01b0385169063f4a01e5b906116709086908690600401611e81565b6020604051808303816000875af115801561168f573d6000803e3d6000fd5b505050506040513d601f19601f820116820180604052508101906116b39190611d5e565b949350505050565b6001600160a01b0316301490565b806116d2611a2d565b10156117305760405162461bcd60e51b815260206004820152602760248201527f436f6e747261637420646f6573206e6f7420686176652073756666696369656e6044820152667420486261727360c81b6064820152608401610484565b50565b803410156117305760405162461bcd60e51b8152602060048201526019602482015278506c65617365207061737320636f727265637420486261727360381b6044820152606401610484565b60008054604051631c384f9360e11b8152620100009091046001600160a01b0316906338709f269086906117b7908790600401611be8565b60206040518083038185885af11580156117d5573d6000803e3d6000fd5b50505050506040513d601f19601f820116820180604052508101906117fa9190611e9b565b905081816105a05760405162461bcd60e51b81526004016104849190611ee1565b60405163a9059cbb60e01b81526001600160a01b038381166004830152602482018590526000919086169063a9059cbb906044016020604051808303816000875af115801561186e573d6000803e3d6000fd5b505050506040513d601f19601f820116820180604052508101906118929190611e9b565b905081816108725760405162461bcd60e51b81526004016104849190611ee1565b600080546040516338044eab60e11b8152620100009091046001600160a01b0316906370089d56906118ef908990889088908b90600401611cad565b6020604051808303816000875af115801561190e573d6000803e3d6000fd5b505050506040513d601f19601f820116820180604052508101906119329190611d5e565b90508160168214610f295760405162461bcd60e51b81526004016104849190611ee1565b6000806000856001600160a01b031663f4a01e5b60e01b8686604051602401611980929190611e81565b60408051601f198184030181529181526020820180516001600160e01b03166001600160e01b03199094169390931790925290516119be9190611f14565b600060405180830381855af49150503d80600081146119f9576040519150601f19603f3d011682016040523d82523d6000602084013e6119fe565b606091505b509150915081611a0f576015611a23565b80806020019051810190611a239190611d5e565b9695505050505050565b60008060029054906101000a90046001600160a01b03166001600160a01b031663e283cff76040518163ffffffff1660e01b81526004016020604051808303816000875af1158015611a83573d6000803e3d6000fd5b505050506040513d601f19601f82011682018060405250810190611aa79190611e48565b6002546001600160a01b03908116911614611ac3575060055490565b5060035490565b6040518060400160405280611add611aef565b8152602001611aea611aef565b905290565b604080518082019091526000808252602082015290565b6001600160a01b038116811461173057600080fd5b60008060408385031215611b2e57600080fd5b8235611b3981611b06565b946020939093013593505050565b60008060008060808587031215611b5d57600080fd5b8435611b6881611b06565b93506020850135611b7881611b06565b93969395505050506040820135916060013590565b600080600080600060a08688031215611ba557600080fd5b8535611bb081611b06565b94506020860135611bc081611b06565b93506040860135611bd081611b06565b94979396509394606081013594506080013592915050565b6001600160a01b0391909116815260200190565b600060208284031215611c0e57600080fd5b5035919050565b80516001600160a01b03168252602090810151910152565b611c38828251611c15565b602081015161145c6040840182611c15565b6101208101611c598285611c2d565b82516080830152602083015160a0830152604083015160c0830152606083015160e083015260808301516101008301529392505050565b600060208284031215611ca257600080fd5b8135610cad81611b06565b6001600160a01b039485168152928416602084015292166040820152606081019190915260800190565b608081016110bb8284611c2d565b60008060008060008060c08789031215611cfe57600080fd5b8635611d0981611b06565b95506020870135611d1981611b06565b94506040870135611d2981611b06565b93506060870135611d3981611b06565b92506080870135611d4981611b06565b8092505060a087013590509295509295509295565b600060208284031215611d7057600080fd5b5051919050565b634e487b7160e01b600052601160045260246000fd5b8181036000831280158383131683831282161715611dad57611dad611d77565b5092915050565b8082018281126000831280158216821582161715611dd457611dd4611d77565b505092915050565b80820260008212600160ff1b84141615611df857611df8611d77565b81810583148215176110bb576110bb611d77565b600082611e2957634e487b7160e01b600052601260045260246000fd5b600160ff1b821460001984141615611e4357611e43611d77565b500590565b600060208284031215611e5a57600080fd5b8151610cad81611b06565b6000600160ff1b8201611e7a57611e7a611d77565b5060000390565b6001600160a01b0392831681529116602082015260400190565b600060208284031215611ead57600080fd5b81518015158114610cad57600080fd5b60005b83811015611ed8578181015183820152602001611ec0565b50506000910152565b6020815260008251806020840152611f00816040850160208701611ebd565b601f01601f19169190910160400192915050565b60008251611f26818460208701611ebd565b919091019291505056fe73776170546f6b656e413a205472616e7366657272696e6720746f6b656e204120746f20636f6e7472616374206661696c656420776974682073746174757320636f646573776170546f6b656e423a205472616e7366657272696e6720746f6b656e204120746f2075736572206661696c656420776974682073746174757320636f6465416464206c69717569646974793a205472616e73666572696e6720746f6b656e204220746f20636f6e7472616374206661696c656420776974682073746174757320636f6465416464206c69717569646974793a205472616e73666572696e6720746f6b656e204120746f20636f6e7472616374206661696c656420776974682073746174757320636f646573776170546f6b656e424665653a205472616e7366657272696e672066656520617320746f6b656e204120746f20747265617375617279206661696c656420776974682073746174757320636f646573776170546f6b656e413a205472616e7366657272696e6720746f6b656e204220746f2075736572206661696c656420776974682073746174757320636f646573776170546f6b656e424665653a205472616e7366657272696e672066656520617320746f6b656e204220746f20747265617375617279206661696c656420776974682073746174757320636f646552656d6f7665206c69717569646974793a205472616e7366657272696e6720746f6b656e204120746f20636f6e7472616374206661696c656420776974682073746174757320636f646552656d6f7665206c69717569646974793a205472616e7366657272696e6720746f6b656e204220746f20636f6e7472616374206661696c656420776974682073746174757320636f646573776170546f6b656e414665653a205472616e7366657272696e672066656520617320746f6b656e204120746f20747265617375617279206661696c656420776974682073746174757320636f646573776170546f6b656e423a205472616e7366657272696e6720746f6b656e204220746f20636f6e7472616374206661696c656420776974682073746174757320636f6465a26469706673582212208ec442b4d42637620305915ac3b2cd567add4b542e822372c32384945310249564736f6c63430008110033608060405234801561001057600080fd5b5061130f806100206000396000f3fe6080604052600436106100605760003560e01c80632a4d626014610065578063665df460146100985780636869958f146100b85780638c237c69146100d857806390657147146100fe578063a1e79f7514610113578063b4e2517914610128575b600080fd5b34801561007157600080fd5b50610085610080366004610d50565b610148565b6040519081526020015b60405180910390f35b3480156100a457600080fd5b506100856100b3366004610d80565b610418565b3480156100c457600080fd5b506100856100d3366004610d99565b610471565b3480156100e457600080fd5b506001546001600160a01b031660405161008f9190610dbd565b61011161010c366004610e73565b6104e3565b005b34801561011f57600080fd5b5061008561063e565b34801561013457600080fd5b50610085610143366004610ee8565b6106b1565b600080831361019c5760405162461bcd60e51b815260206004820152601b60248201527a506c656173652070726f7669646520746f6b656e20636f756e747360281b60448201526064015b60405180910390fd5b604051636869958f60e01b815283903090636869958f906101c1908690600401610dbd565b602060405180830381865afa1580156101de573d6000803e3d6000fd5b505050506040513d601f19601f820116820180604052508101906102029190610f21565b121561024f5760405162461bcd60e51b815260206004820152601c60248201527b155cd95c88111bd95cc81b9bdd081a185d99481b1c08185b5bdd5b9d60221b6044820152606401610193565b600080546001546040516338044eab60e11b81526001600160a01b0391821660048201528582166024820152306044820152606481018790526201000090920416906370089d56906084016020604051808303816000875af11580156102b9573d6000803e3d6000fd5b505050506040513d601f19601f820116820180604052508101906102dd9190610f21565b9050601681146103435760405162461bcd60e51b815260206004820152602b60248201527f4c50546f6b656e3a20746f6b656e207472616e73666572206661696c6564207460448201526a379031b7b73a3930b1ba1760a91b6064820152608401610193565b60005460015460405163770c8f5160e01b81526001600160a01b036201000090930483169263770c8f519261037f929116908890600401610f3a565b60408051808303816000875af115801561039d573d6000803e3d6000fd5b505050506040513d601f19601f820116820180604052508101906103c19190610f53565b5090506016811461040c5760405162461bcd60e51b81526020600482015260156024820152742628103a37b5b2b710313ab937103330b4b632b21760591b6044820152606401610193565b50601690505b92915050565b6000806002610428846001610f8d565b6104329190610fb5565b90508291505b8181121561046b579050806002816104508186610fb5565b61045a9190610f8d565b6104649190610fb5565b9050610438565b50919050565b6001546040516370a0823160e01b81526000916001600160a01b0316906370a08231906104a2908590600401610dbd565b602060405180830381865afa1580156104bf573d6000803e3d6000fd5b505050506040513d601f19601f820116820180604052508101906104129190610f21565b600054610100900460ff16158080156105035750600054600160ff909116105b8061051d5750303b15801561051d575060005460ff166001145b6105805760405162461bcd60e51b815260206004820152602e60248201527f496e697469616c697a61626c653a20636f6e747261637420697320616c72656160448201526d191e481a5b9a5d1a585b1a5e995960921b6064820152608401610193565b6000805460ff1916600117905580156105a3576000805461ff0019166101001790555b6000805462010000600160b01b031916620100006001600160a01b038716021781556105d0818585610a1e565b600180546001600160a01b0319166001600160a01b039290921691909117905550508015610638576000805461ff0019169055604051600181527f7f26b83ff96e1f2b6a682f133852f6798a09c465da95921460cefb38474024989060200160405180910390a15b50505050565b600154604080516318160ddd60e01b815290516000926001600160a01b0316916318160ddd9160048083019260209291908290030181865afa158015610688573d6000803e3d6000fd5b505050506040513d601f19601f820116820180604052508101906106ac9190610f21565b905090565b6000336001600160a01b03167fe4f4aace5288c74d7e5faabc390ceb3719dce95266b935043173ec59fd8db24660405161070e906020808252600f908201526e30b63637ba26282a37b5b2b72337b960891b604082015260600190565b60405180910390a26000841380156107265750600083135b61077e5760405162461bcd60e51b8152602060048201526024808201527f506c656173652070726f7669646520706f73697469766520746f6b656e20636f604482015263756e747360e01b6064820152608401610193565b600061078d6100b38587610ff1565b6001549091506001600160a01b03166107e85760405162461bcd60e51b815260206004820152601f60248201527f4c697175696469747920546f6b656e206e6f7420696e697469616c697a6564006044820152606401610193565b60005460015460405163f4a01e5b60e01b81526001600160a01b038681166004830152918216602482015262010000909204169063f4a01e5b906044016020604051808303816000875af1158015610844573d6000803e3d6000fd5b505050506040513d601f19601f820116820180604052508101906108689190610f21565b50600080546001546040516361de9ff960e11b81526001600160a01b036201000090930483169263c3bd3ff2926108a6929116908690600401610f3a565b60408051808303816000875af11580156108c4573d6000803e3d6000fd5b505050506040513d601f19601f820116820180604052508101906108e89190610f53565b509050601681146109365760405162461bcd60e51b81526020600482015260186024820152772628103a37b5b2b71036b4b73a34b733903330b4b632b21760411b6044820152606401610193565b60015460405163a9059cbb60e01b81526000916001600160a01b03169063a9059cbb906109699088908790600401610f3a565b6020604051808303816000875af1158015610988573d6000803e3d6000fd5b505050506040513d601f19601f820116820180604052508101906109ac9190611021565b905080610a115760405162461bcd60e51b815260206004820152602d60248201527f4c50546f6b656e3a20746f6b656e207472616e73666572206661696c6564206660448201526c3937b69031b7b73a3930b1ba1760991b6064820152608401610193565b5060169695505050505050565b6000806000610a2b610c5a565b600080546201000090046001600160a01b031660808301526040805160018082528183019092526010949094179390602082015b610a67610c9d565b815260200190600190039081610a5f57905050905060405180604001604052808481526020018381525081600081518110610aa457610aa4611043565b6020026020010181905250610ab7610cbc565b306020820152627a12006040820152610ace610cdc565b8881600001819052508781602001819052503081604001906001600160a01b031690816001600160a01b03168152505081816101000181905250828160e00181905250600080600060029054906101000a90046001600160a01b03166001600160a01b0316635ed9138460e01b848e6008604051602401610b5193929190611174565b60408051601f198184030181529181526020820180516001600160e01b03166001600160e01b0319909416939093179092529051610b8f9190611298565b600060405180830381855af49150503d8060008114610bca576040519150601f19603f3d011682016040523d82523d6000602084013e610bcf565b606091505b509150915081610be25760156000610bf6565b80806020019051810190610bf691906112b4565b909950975060168914610c4b5760405162461bcd60e51b815260206004820152601f60248201527f4c50546f6b656e3a20546f6b656e206372656174696f6e206661696c65642e006044820152606401610193565b50505050505050935093915050565b6040518060a0016040528060001515815260200160006001600160a01b03168152602001606081526020016060815260200160006001600160a01b031681525090565b604051806040016040528060008152602001610cb7610c5a565b905290565b604080516060810182526000808252602082018190529181019190915290565b604051806101200160405280606081526020016060815260200160006001600160a01b0316815260200160608152602001600015158152602001600060070b815260200160001515815260200160608152602001610cb7610cbc565b6001600160a01b0381168114610d4d57600080fd5b50565b60008060408385031215610d6357600080fd5b823591506020830135610d7581610d38565b809150509250929050565b600060208284031215610d9257600080fd5b5035919050565b600060208284031215610dab57600080fd5b8135610db681610d38565b9392505050565b6001600160a01b0391909116815260200190565b634e487b7160e01b600052604160045260246000fd5b600082601f830112610df857600080fd5b81356001600160401b0380821115610e1257610e12610dd1565b604051601f8301601f19908116603f01168101908282118183101715610e3a57610e3a610dd1565b81604052838152866020858801011115610e5357600080fd5b836020870160208301376000602085830101528094505050505092915050565b600080600060608486031215610e8857600080fd5b8335610e9381610d38565b925060208401356001600160401b0380821115610eaf57600080fd5b610ebb87838801610de7565b93506040860135915080821115610ed157600080fd5b50610ede86828701610de7565b9150509250925092565b600080600060608486031215610efd57600080fd5b83359250602084013591506040840135610f1681610d38565b809150509250925092565b600060208284031215610f3357600080fd5b5051919050565b6001600160a01b03929092168252602082015260400190565b60008060408385031215610f6657600080fd5b505080516020909101519092909150565b634e487b7160e01b600052601160045260246000fd5b8082018281126000831280158216821582161715610fad57610fad610f77565b505092915050565b600082610fd257634e487b7160e01b600052601260045260246000fd5b600160ff1b821460001984141615610fec57610fec610f77565b500590565b80820260008212600160ff1b8414161561100d5761100d610f77565b818105831482151761041257610412610f77565b60006020828403121561103357600080fd5b81518015158114610db657600080fd5b634e487b7160e01b600052603260045260246000fd5b60005b8381101561107457818101518382015260200161105c565b50506000910152565b60008151808452611095816020860160208601611059565b601f01601f19169290920160200192915050565b600082825180855260208086019550808260051b84010181860160005b8481101561116757858303601f1901895281518051845284015160408585018190528151151581860152818601516001600160a01b039081166060808801919091529183015160a0608080890182905291939092909161112960e08a018661107d565b92860151898403603f1901858b0152929450611145858461107d565b9501511660c097909701969096525050988401989250908301906001016110c6565b5090979650505050505050565b60608152600084516101608060608501526111936101c085018361107d565b91506020870151605f19808685030160808701526111b1848361107d565b9350604089015191506111cf60a08701836001600160a01b03169052565b60608901519150808685030160c08701526111ea848361107d565b93506080890151915061120160e087018315159052565b60a089015191506101006112198188018460070b9052565b60c08a0151151561012088015260e08a01518786038301610140890152925061124285846110a9565b9450808a01519250505061127c828601828051600790810b83526020808301516001600160a01b031690840152604091820151900b910152565b50506020830185905260ff841660408401529050949350505050565b600082516112aa818460208701611059565b9190910192915050565b600080604083850312156112c757600080fd5b825191506020830151610d7581610d3856fea2646970667358221220ef414ee95fb3f4d7c06f3b66690e0bba94c9dffc05f113a16087b2e9942fd2f864736f6c63430008110033608060405260405162000e4438038062000e44833981016040819052620000269162000497565b828162000036828260006200004d565b50620000449050826200008a565b505050620005ca565b6200005883620000e5565b600082511180620000665750805b1562000085576200008383836200012760201b6200022e1760201c565b505b505050565b7f7e644d79422f17c01e4894b5f4f588d331ebfa28653d42ae832dc59e38c9798f620000b562000156565b604080516001600160a01b03928316815291841660208301520160405180910390a1620000e2816200018f565b50565b620000f08162000244565b6040516001600160a01b038216907fbc7cd75a20ee27fd9adebab32041f755214dbc6bffa90cc0225b39da2e5c2d3b90600090a250565b60606200014f838360405180606001604052806027815260200162000e1d60279139620002f8565b9392505050565b60006200018060008051602062000dfd83398151915260001b6200037760201b620001ea1760201c565b546001600160a01b0316919050565b6001600160a01b038116620001fa5760405162461bcd60e51b815260206004820152602660248201527f455243313936373a206e65772061646d696e20697320746865207a65726f206160448201526564647265737360d01b60648201526084015b60405180910390fd5b806200022360008051602062000dfd83398151915260001b6200037760201b620001ea1760201c565b80546001600160a01b0319166001600160a01b039290921691909117905550565b6200025a816200037a60201b6200025a1760201c565b620002be5760405162461bcd60e51b815260206004820152602d60248201527f455243313936373a206e657720696d706c656d656e746174696f6e206973206e60448201526c1bdd08184818dbdb9d1c9858dd609a1b6064820152608401620001f1565b80620002237f360894a13ba1a3210667c828492db98dca3e2076cc3735a920a3ca505d382bbc60001b6200037760201b620001ea1760201c565b6060600080856001600160a01b03168560405162000317919062000577565b600060405180830381855af49150503d806000811462000354576040519150601f19603f3d011682016040523d82523d6000602084013e62000359565b606091505b5090925090506200036d8683838762000389565b9695505050505050565b90565b6001600160a01b03163b151590565b60608315620003fd578251600003620003f557620003a7856200037a565b620003f55760405162461bcd60e51b815260206004820152601d60248201527f416464726573733a2063616c6c20746f206e6f6e2d636f6e74726163740000006044820152606401620001f1565b508162000409565b62000409838362000411565b949350505050565b815115620004225781518083602001fd5b8060405162461bcd60e51b8152600401620001f1919062000595565b80516001600160a01b03811681146200045657600080fd5b919050565b634e487b7160e01b600052604160045260246000fd5b60005b838110156200048e57818101518382015260200162000474565b50506000910152565b600080600060608486031215620004ad57600080fd5b620004b8846200043e565b9250620004c8602085016200043e565b60408501519092506001600160401b0380821115620004e657600080fd5b818601915086601f830112620004fb57600080fd5b8151818111156200051057620005106200045b565b604051601f8201601f19908116603f011681019083821181831017156200053b576200053b6200045b565b816040528281528960208487010111156200055557600080fd5b6200056883602083016020880162000471565b80955050505050509250925092565b600082516200058b81846020870162000471565b9190910192915050565b6020815260008251806020840152620005b681604085016020870162000471565b601f01601f19169190910160400192915050565b61082380620005da6000396000f3fe60806040526004361061004e5760003560e01c80633659cfe6146100655780634f1ef286146100855780635c60da1b146100985780638f283970146100c9578063f851a440146100e95761005d565b3661005d5761005b6100fe565b005b61005b6100fe565b34801561007157600080fd5b5061005b610080366004610676565b610118565b61005b610093366004610691565b610155565b3480156100a457600080fd5b506100ad6101bc565b6040516001600160a01b03909116815260200160405180910390f35b3480156100d557600080fd5b5061005b6100e4366004610676565b6101ed565b3480156100f557600080fd5b506100ad61020d565b610106610269565b6101166101116102fe565b610308565b565b61012061032c565b6001600160a01b0316330361014d5761014a8160405180602001604052806000815250600061034d565b50565b61014a6100fe565b61015d61032c565b6001600160a01b031633036101b4576101af8383838080601f0160208091040260200160405190810160405280939291908181526020018383808284376000920191909152506001925061034d915050565b505050565b6101af6100fe565b60006101c661032c565b6001600160a01b031633036101e2576101dd6102fe565b905090565b6101ea6100fe565b90565b6101f561032c565b6001600160a01b0316330361014d5761014a81610378565b600061021761032c565b6001600160a01b031633036101e2576101dd61032c565b606061025383836040518060600160405280602781526020016107c7602791396103cc565b9392505050565b6001600160a01b03163b151590565b61027161032c565b6001600160a01b031633036101165760405162461bcd60e51b815260206004820152604260248201527f5472616e73706172656e745570677261646561626c6550726f78793a2061646d60448201527f696e2063616e6e6f742066616c6c6261636b20746f2070726f78792074617267606482015261195d60f21b608482015260a4015b60405180910390fd5b60006101dd610444565b3660008037600080366000845af43d6000803e808015610327573d6000f35b3d6000fd5b60006000805160206107878339815191525b546001600160a01b0316919050565b6103568361045a565b6000825111806103635750805b156101af57610372838361022e565b50505050565b7f7e644d79422f17c01e4894b5f4f588d331ebfa28653d42ae832dc59e38c9798f6103a161032c565b604080516001600160a01b03928316815291841660208301520160405180910390a161014a8161049a565b6060600080856001600160a01b0316856040516103e99190610737565b600060405180830381855af49150503d8060008114610424576040519150601f19603f3d011682016040523d82523d6000602084013e610429565b606091505b509150915061043a86838387610531565b9695505050505050565b60006000805160206107a783398151915261033e565b610463816105b0565b6040516001600160a01b038216907fbc7cd75a20ee27fd9adebab32041f755214dbc6bffa90cc0225b39da2e5c2d3b90600090a250565b6001600160a01b0381166104ff5760405162461bcd60e51b815260206004820152602660248201527f455243313936373a206e65772061646d696e20697320746865207a65726f206160448201526564647265737360d01b60648201526084016102f5565b806000805160206107878339815191525b80546001600160a01b0319166001600160a01b039290921691909117905550565b6060831561059e5782516000036105975761054b8561025a565b6105975760405162461bcd60e51b815260206004820152601d60248201527f416464726573733a2063616c6c20746f206e6f6e2d636f6e747261637400000060448201526064016102f5565b50816105a8565b6105a88383610630565b949350505050565b6105b98161025a565b61061b5760405162461bcd60e51b815260206004820152602d60248201527f455243313936373a206e657720696d706c656d656e746174696f6e206973206e60448201526c1bdd08184818dbdb9d1c9858dd609a1b60648201526084016102f5565b806000805160206107a7833981519152610510565b8151156106405781518083602001fd5b8060405162461bcd60e51b81526004016102f59190610753565b80356001600160a01b038116811461067157600080fd5b919050565b60006020828403121561068857600080fd5b6102538261065a565b6000806000604084860312156106a657600080fd5b6106af8461065a565b925060208401356001600160401b03808211156106cb57600080fd5b818601915086601f8301126106df57600080fd5b8135818111156106ee57600080fd5b87602082850101111561070057600080fd5b6020830194508093505050509250925092565b60005b8381101561072e578181015183820152602001610716565b50506000910152565b60008251610749818460208701610713565b9190910192915050565b6020815260008251806020840152610772816040850160208701610713565b601f01601f1916919091016040019291505056feb53127684a568b3173ae13b9f8a6016e243e63b6e8ee1178d6a717850b5d6103360894a13ba1a3210667c828492db98dca3e2076cc3735a920a3ca505d382bbc416464726573733a206c6f772d6c6576656c2064656c65676174652063616c6c206661696c6564a26469706673582212204433d45c6a09820eaaf32b7d14a27e34b6394f971bf833e4b517275aea53355964736f6c63430008110033b53127684a568b3173ae13b9f8a6016e243e63b6e8ee1178d6a717850b5d6103416464726573733a206c6f772d6c6576656c2064656c65676174652063616c6c206661696c6564cf9d4a2ff924c5f3553e3c8485e6bc24fde822593d2c3d78c8fabaada123f8f6a2646970667358221220453ff4251ce16b48364bca8431b4d9c5e06b6b64cd50346dbe5129a55cef195e64736f6c63430008110033",
  "linkReferences": {},
  "deployedLinkReferences": {}
}