{
  "_format": "hh-sol-artifact-1",
  "contractName": "Factory",
  "sourceName": "contracts/Factory.sol",
  "abi": [
    {
      "anonymous": false,
      "inputs": [
        {
          "indexed": false,
          "internalType": "uint8",
          "name": "version",
          "type": "uint8"
        }
      ],
      "name": "Initialized",
      "type": "event"
    },
    {
      "anonymous": false,
      "inputs": [
        {
          "indexed": true,
          "internalType": "address",
          "name": "oldImplementation",
          "type": "address"
        },
        {
          "indexed": true,
          "internalType": "address",
          "name": "newImplementation",
          "type": "address"
        },
        {
          "indexed": false,
          "internalType": "string",
          "name": "name",
          "type": "string"
        }
      ],
      "name": "LogicUpdated",
      "type": "event"
    },
    {
      "anonymous": false,
      "inputs": [
        {
          "indexed": true,
          "internalType": "address",
          "name": "pairAddress",
          "type": "address"
        }
      ],
      "name": "PairCreated",
      "type": "event"
    },
    {
      "inputs": [
        {
          "internalType": "address",
          "name": "_tokenA",
          "type": "address"
        },
        {
          "internalType": "address",
          "name": "_tokenB",
          "type": "address"
        },
        {
          "internalType": "address",
          "name": "_treasury",
          "type": "address"
        },
        {
          "internalType": "int256",
          "name": "_fee",
          "type": "int256"
        }
      ],
      "name": "createPair",
      "outputs": [
        {
          "internalType": "address",
          "name": "pair",
          "type": "address"
        }
      ],
      "stateMutability": "payable",
      "type": "function"
    },
    {
      "inputs": [
        {
          "internalType": "address",
          "name": "_tokenA",
          "type": "address"
        },
        {
          "internalType": "address",
          "name": "_tokenB",
          "type": "address"
        },
        {
          "internalType": "int256",
          "name": "_fee",
          "type": "int256"
        }
      ],
      "name": "getPair",
      "outputs": [
        {
          "internalType": "address",
          "name": "",
          "type": "address"
        }
      ],
      "stateMutability": "view",
      "type": "function"
    },
    {
      "inputs": [],
      "name": "getPairs",
      "outputs": [
        {
          "internalType": "address[]",
          "name": "",
          "type": "address[]"
        }
      ],
      "stateMutability": "view",
      "type": "function"
    },
    {
      "inputs": [],
      "name": "hbarxAddress",
      "outputs": [
        {
          "internalType": "address",
          "name": "",
          "type": "address"
        }
      ],
      "stateMutability": "nonpayable",
      "type": "function"
    },
    {
      "inputs": [
        {
          "internalType": "contract IBaseHTS",
          "name": "_service",
          "type": "address"
        },
        {
          "internalType": "address",
          "name": "_admin",
          "type": "address"
        }
      ],
      "name": "setUpFactory",
      "outputs": [],
      "stateMutability": "nonpayable",
      "type": "function"
    },
    {
      "inputs": [
        {
          "internalType": "address",
          "name": "_newImpl",
          "type": "address"
        }
      ],
      "name": "upgradeLpTokenImplementation",
      "outputs": [],
      "stateMutability": "nonpayable",
      "type": "function"
    },
    {
      "inputs": [
        {
          "internalType": "address",
          "name": "_newImpl",
          "type": "address"
        }
      ],
      "name": "upgradePairImplementation",
      "outputs": [],
      "stateMutability": "nonpayable",
      "type": "function"
    }
  ],
  "bytecode": "0x608060405234801561001057600080fd5b50615e5f806100206000396000f3fe608060405260043610620000795760003560e01c8063c77a36521162000054578063c77a3652146200010b578063e283cff71462000132578063e598d587146200014a578063fbdd9ff7146200016f57600080fd5b806312359560146200007e578063767eb5ef14620000bf57806394ad9d8d14620000e6575b600080fd5b620000956200008f36600462000ff2565b62000194565b60405173ffffffffffffffffffffffffffffffffffffffff90911681526020015b60405180910390f35b348015620000cc57600080fd5b50620000d7620002db565b604051620000b691906200104a565b348015620000f357600080fd5b506200009562000105366004620010a6565b6200034c565b3480156200011857600080fd5b50620001306200012a366004620010ec565b620003a4565b005b3480156200013f57600080fd5b506200009562000773565b3480156200015757600080fd5b5062000130620001693660046200112a565b62000810565b3480156200017c57600080fd5b50620001306200018e3660046200112a565b62000969565b6000806000620001a5878762000ac2565b73ffffffffffffffffffffffffffffffffffffffff8083166000908152600360209081526040808320848616845282528083208a8452909152902054169450909250905082620002d1576000620001ff8383888862000c26565b73ffffffffffffffffffffffffffffffffffffffff8085166000908152600360209081526040808320878516845282528083208a845290915280822080549385167fffffffffffffffffffffffff00000000000000000000000000000000000000009485168117909155600280546001810182559084527f405787fa12a823e0f2b7631cc41b3ba8828b3321ca811111fa75cd3aa3bb5ace01805490941681179093555192965086935090917fb14a725aeeb25d591b81b16b4c5b25403dd8867bdd1876fa787867f566206be19190a2505b5050949350505050565b606060028054806020026020016040519081016040528092919081815260200182805480156200034257602002820191906000526020600020905b815473ffffffffffffffffffffffffffffffffffffffff16815260019091019060200180831162000316575b5050505050905090565b60008060006200035d868662000ac2565b73ffffffffffffffffffffffffffffffffffffffff918216600090815260036020908152604080832093851683529281528282208883529052205416925050509392505050565b600054610100900460ff1615808015620003c55750600054600160ff909116105b80620003e15750303b158015620003e1575060005460ff166001145b62000473576040517f08c379a000000000000000000000000000000000000000000000000000000000815260206004820152602e60248201527f496e697469616c697a61626c653a20636f6e747261637420697320616c72656160448201527f647920696e697469616c697a656400000000000000000000000000000000000060648201526084015b60405180910390fd5b600080547fffffffffffffffffffffffffffffffffffffffffffffffffffffffffffffff001660011790558015620004d257600080547fffffffffffffffffffffffffffffffffffffffffffffffffffffffffffff00ff166101001790555b600180547fffffffffffffffffffffffff00000000000000000000000000000000000000001673ffffffffffffffffffffffffffffffffffffffff85811691909117909155600080547fffffffffffffffffffff0000000000000000000000000000000000000000ffff1662010000928516929092029190911790556040516200055c9062000fa2565b604051809103906000f08015801562000579573d6000803e3d6000fd5b50600480547fffffffffffffffffffffffff00000000000000000000000000000000000000001673ffffffffffffffffffffffffffffffffffffffff929092169182179055604080518082018252600c81527f50616972436f6e74726163740000000000000000000000000000000000000000602082015290516000917fcf9d4a2ff924c5f3553e3c8485e6bc24fde822593d2c3d78c8fabaada123f8f691620006249190620011a5565b60405180910390a36040516200063a9062000fb0565b604051809103906000f08015801562000657573d6000803e3d6000fd5b50600580547fffffffffffffffffffffffff00000000000000000000000000000000000000001673ffffffffffffffffffffffffffffffffffffffff929092169182179055604080518082018252600f81527f4c70546f6b656e436f6e74726163740000000000000000000000000000000000602082015290516000917fcf9d4a2ff924c5f3553e3c8485e6bc24fde822593d2c3d78c8fabaada123f8f691620007029190620011a5565b60405180910390a380156200076e57600080547fffffffffffffffffffffffffffffffffffffffffffffffffffffffffffff00ff169055604051600181527f7f26b83ff96e1f2b6a682f133852f6798a09c465da95921460cefb38474024989060200160405180910390a15b505050565b600154604080517fe283cff7000000000000000000000000000000000000000000000000000000008152905160009273ffffffffffffffffffffffffffffffffffffffff169163e283cff7916004808301926020929190829003018187875af1158015620007e5573d6000803e3d6000fd5b505050506040513d601f19601f820116820180604052508101906200080b9190620011ba565b905090565b60005462010000900473ffffffffffffffffffffffffffffffffffffffff16331462000899576040517f08c379a000000000000000000000000000000000000000000000000000000000815260206004820152601460248201527f466163746f72793a2061757468206661696c656400000000000000000000000060448201526064016200046a565b600554604080518082018252600f81527f4c70546f6b656e436f6e747261637400000000000000000000000000000000006020820152905173ffffffffffffffffffffffffffffffffffffffff8085169316917fcf9d4a2ff924c5f3553e3c8485e6bc24fde822593d2c3d78c8fabaada123f8f6916200091a9190620011a5565b60405180910390a3600580547fffffffffffffffffffffffff00000000000000000000000000000000000000001673ffffffffffffffffffffffffffffffffffffffff92909216919091179055565b60005462010000900473ffffffffffffffffffffffffffffffffffffffff163314620009f2576040517f08c379a000000000000000000000000000000000000000000000000000000000815260206004820152601460248201527f466163746f72793a2061757468206661696c656400000000000000000000000060448201526064016200046a565b600454604080518082018252600c81527f50616972436f6e747261637400000000000000000000000000000000000000006020820152905173ffffffffffffffffffffffffffffffffffffffff8085169316917fcf9d4a2ff924c5f3553e3c8485e6bc24fde822593d2c3d78c8fabaada123f8f69162000a739190620011a5565b60405180910390a3600480547fffffffffffffffffffffffff00000000000000000000000000000000000000001673ffffffffffffffffffffffffffffffffffffffff92909216919091179055565b6000808273ffffffffffffffffffffffffffffffffffffffff168473ffffffffffffffffffffffffffffffffffffffff160362000b5c576040517f08c379a000000000000000000000000000000000000000000000000000000000815260206004820152601360248201527f4944454e544943414c5f4144445245535345530000000000000000000000000060448201526064016200046a565b8273ffffffffffffffffffffffffffffffffffffffff168473ffffffffffffffffffffffffffffffffffffffff161062000b9857828462000b9b565b83835b909250905073ffffffffffffffffffffffffffffffffffffffff821662000c1f576040517f08c379a000000000000000000000000000000000000000000000000000000000815260206004820152600c60248201527f5a45524f5f41444452455353000000000000000000000000000000000000000060448201526064016200046a565b9250929050565b60008062000c35868662000d15565b60045490915062000c5c9073ffffffffffffffffffffffffffffffffffffffff1662000e10565b6001546040517fe4f6ed0000000000000000000000000000000000000000000000000000000000815273ffffffffffffffffffffffffffffffffffffffff9182166004820152838216602482015288821660448201528782166064820152868216608482015260a4810186905291935083169063e4f6ed009060c401600060405180830381600087803b15801562000cf357600080fd5b505af115801562000d08573d6000803e3d6000fd5b5050505050949350505050565b60008062000d24848462000e7a565b905060008160405160200162000d3b9190620011da565b60408051601f1981840301815291905260055490915062000d729073ffffffffffffffffffffffffffffffffffffffff1662000e10565b6001546040517f9065714700000000000000000000000000000000000000000000000000000000815291945073ffffffffffffffffffffffffffffffffffffffff80861692639065714792349262000dd492911690869088906004016200121d565b6000604051808303818588803b15801562000dee57600080fd5b505af115801562000e03573d6000803e3d6000fd5b5050505050505092915050565b6000606082600060029054906101000a900473ffffffffffffffffffffffffffffffffffffffff168260405162000e479062000fbe565b62000e55939291906200126c565b604051809103906000f08015801562000e72573d6000803e3d6000fd5b509392505050565b606060008373ffffffffffffffffffffffffffffffffffffffff166395d89b416040518163ffffffff1660e01b81526004016000604051808303816000875af115801562000ecc573d6000803e3d6000fd5b505050506040513d6000823e601f3d908101601f1916820160405262000ef69190810190620012df565b905060008373ffffffffffffffffffffffffffffffffffffffff166395d89b416040518163ffffffff1660e01b81526004016000604051808303816000875af115801562000f48573d6000803e3d6000fd5b505050506040513d6000823e601f3d908101601f1916820160405262000f729190810190620012df565b9050818160405160200162000f8992919062001398565b6040516020818303038152906040529250505092915050565b6121f080620013f583390190565b61180d80620035e583390190565b6110388062004df283390190565b73ffffffffffffffffffffffffffffffffffffffff8116811462000fef57600080fd5b50565b600080600080608085870312156200100957600080fd5b8435620010168162000fcc565b93506020850135620010288162000fcc565b925060408501356200103a8162000fcc565b9396929550929360600135925050565b6020808252825182820181905260009190848201906040850190845b818110156200109a57835173ffffffffffffffffffffffffffffffffffffffff168352928401929184019160010162001066565b50909695505050505050565b600080600060608486031215620010bc57600080fd5b8335620010c98162000fcc565b92506020840135620010db8162000fcc565b929592945050506040919091013590565b600080604083850312156200110057600080fd5b82356200110d8162000fcc565b915060208301356200111f8162000fcc565b809150509250929050565b6000602082840312156200113d57600080fd5b81356200114a8162000fcc565b9392505050565b60005b838110156200116e57818101518382015260200162001154565b50506000910152565b600081518084526200119181602086016020860162001151565b601f01601f19169290920160200192915050565b6020815260006200114a602083018462001177565b600060208284031215620011cd57600080fd5b81516200114a8162000fcc565b60008251620011ee81846020870162001151565b7f204c5020746f6b656e206e616d65000000000000000000000000000000000000920191825250600e01919050565b73ffffffffffffffffffffffffffffffffffffffff841681526060602082015260006200124e606083018562001177565b828103604084015262001262818562001177565b9695505050505050565b600073ffffffffffffffffffffffffffffffffffffffff808616835280851660208401525060606040830152620012a7606083018462001177565b95945050505050565b7f4e487b7100000000000000000000000000000000000000000000000000000000600052604160045260246000fd5b600060208284031215620012f257600080fd5b815167ffffffffffffffff808211156200130b57600080fd5b818401915084601f8301126200132057600080fd5b815181811115620013355762001335620012b0565b604051601f8201601f19908116603f01168101908382118183101715620013605762001360620012b0565b816040528281528760208487010111156200137a57600080fd5b6200138d83602083016020880162001151565b979650505050505050565b60008351620013ac81846020880162001151565b7f2d000000000000000000000000000000000000000000000000000000000000009083019081528351620013e881600184016020880162001151565b0160010194935050505056fe608060405234801561001057600080fd5b506121d0806100206000396000f3fe60806040526004361061016a5760003560e01c80639af5349a116100cb578063ced72f871161007f578063e4f6ed0011610059578063e4f6ed001461043e578063f819163f1461045e578063fc9cee3c1461047357600080fd5b8063ced72f87146103e9578063d13b92cf146103fe578063d813d3621461041e57600080fd5b8063c1f1b1b5116100b0578063c1f1b1b514610314578063c54321b8146103b2578063ca71d4e4146103d257600080fd5b80639af5349a146102aa5780639dcfc22b146102f457600080fd5b806332a2c5d0116101225780635cd9e019116101075780635cd9e01914610249578063845213991461026957806389b11e1b1461028757600080fd5b806332a2c5d0146102025780634593d8161461022957600080fd5b80632537d324116101535780632537d324146101a457806325fd3ee9146101c75780632b26701a146101da57600080fd5b80630d329a521461016f578063198f9b8314610191575b600080fd5b34801561017b57600080fd5b5061018f61018a366004611a8a565b610488565b005b61018f61019f366004611ab6565b6106d5565b3480156101b057600080fd5b5060645b6040519081526020015b60405180910390f35b61018f6101d5366004611afc565b6107a8565b3480156101e657600080fd5b50600354600554604080519283526020830191909152016101be565b34801561020e57600080fd5b50305b6040516001600160a01b0390911681526020016101be565b34801561023557600080fd5b506101b4610244366004611b57565b6108d3565b34801561025557600080fd5b506101b4610264366004611b70565b610936565b34801561027557600080fd5b506001546001600160a01b0316610211565b34801561029357600080fd5b506101b46102a2366004611b57565b600681905590565b3480156102b657600080fd5b506102bf6109ac565b6040516101be94939291906001600160a01b039485168152928416602084015292166040820152606081019190915260800190565b34801561030057600080fd5b506101b461030f366004611b57565b610a58565b34801561032057600080fd5b506103a5604080516080810182526000818301818152606083018290528252825180840190935280835260208084019190915281019190915250604080516080810182526002546001600160a01b0390811682840190815260035460608401528252825180840190935260045416825260055460208381019190915281019190915290565b6040516101be9190611b8d565b3480156103be57600080fd5b506101b46103cd366004611b57565b610ad1565b3480156103de57600080fd5b506305f5e1006101b4565b3480156103f557600080fd5b506007546101b4565b34801561040a57600080fd5b506101b4610419366004611b57565b610b2a565b34801561042a57600080fd5b506101b4610439366004611b57565b610b5a565b34801561044a57600080fd5b5061018f610459366004611bd1565b610bb0565b34801561046a57600080fd5b506101b4610e61565b34801561047f57600080fd5b506101b4610e7c565b6001546040517f6869958f0000000000000000000000000000000000000000000000000000000081526001600160a01b03848116600483015283921690636869958f90602401602060405180830381865afa1580156104eb573d6000803e3d6000fd5b505050506040513d601f19601f8201168201806040525081019061050f9190611c4a565b12156105a2576040517f08c379a000000000000000000000000000000000000000000000000000000000815260206004820152602660248201527f7573657220646f6573206e6f7420686176652073756666696369656e74206c7060448201527f546f6b656e73000000000000000000000000000000000000000000000000000060648201526084015b60405180910390fd5b6000806105ae83610e97565b6002546004546040805160808101909152604a80825294965092945061060a93309389936001600160a01b039081169316918891889161207460208301396040518060800160405280604a81526020016120be604a9139610f5e565b6003805483919060009061061f908490611c92565b909155505060058054829190600090610639908490611c92565b90915550506001546040517f2a4d6260000000000000000000000000000000000000000000000000000000008152600481018590526001600160a01b03868116602483015290911690632a4d6260906044016020604051808303816000875af11580156106aa573d6000803e3d6000fd5b505050506040513d601f19601f820116820180604052508101906106ce9190611c4a565b5050505050565b6002546001600160a01b03848116911614806106fe57506004546001600160a01b038481169116145b610764576040517f08c379a000000000000000000000000000000000000000000000000000000000815260206004820152601f60248201527f506c73207061737320636f727265637420746f6b656e20746f20737761702e006044820152606401610599565b61076e8383610f82565b6002549092506001600160a01b03908116908416036107975761079284838361100a565b6107a2565b6107a2848383611193565b50505050565b6107b28483610f82565b91506107be8382610f82565b9050610800853086868686604051806080016040528060468152602001611f5060469139604051806080016040528060468152602001611f0a60469139610f5e565b60038054839190600090610815908490611cb2565b90915550506005805482919060009061082f908490611cb2565b90915550506001546040517fb4e2517900000000000000000000000000000000000000000000000000000000815260048101849052602481018390526001600160a01b0387811660448301529091169063b4e25179906064016020604051808303816000875af11580156108a7573d6000803e3d6000fd5b505050506040513d601f19601f820116820180604052508101906108cb9190611c4a565b505050505050565b60006305f5e100816108e3610e61565b6003546005549192509060006108f98784611cb2565b6109038686611cda565b61090d9190611d26565b9050600061091b8683611d26565b905060006109298285611c92565b9998505050505050505050565b6002546000906305f5e1009082906001600160a01b0385811691161461095e57600554610962565b6003545b6002549091506000906001600160a01b0386811691161461098557600354610989565b6005545b90506000816109988585611cda565b6109a29190611d26565b9695505050505050565b60025460048054600154604080517f8c237c6900000000000000000000000000000000000000000000000000000000815290516000958695869586956001600160a01b039384169591841694931692638c237c69928281019260209291908290030181865afa158015610a23573d6000803e3d6000fd5b505050506040513d601f19601f82011682018060405250810190610a479190611db5565b600754935093509350935090919293565b6003546005546000916305f5e100918382610a738584611cda565b610a7d9190611d26565b9050600084610a8c8389611cda565b610a969190611d26565b90506000610aa3886108d3565b90508186610ab18383611c92565b610abb9190611cda565b610ac59190611d26565b98975050505050505050565b6003546005546000916305f5e100918381610aec8585611cda565b610af69190611d26565b9050600084610b058389611cda565b610b0f9190611d26565b90506000610b1c88610b5a565b90508186610ab18284611c92565b6000806064600260075485610b3f9190611cda565b610b499190611d26565b610b539190611d26565b9392505050565b600080610b65610e61565b6003546005549192506305f5e100916000610b808783611c92565b610b8a8587611cda565b610b949190611d26565b90506000610ba28583611d26565b905060006109298583611c92565b600054610100900460ff1615808015610bd05750600054600160ff909116105b80610bea5750303b158015610bea575060005460ff166001145b610c76576040517f08c379a000000000000000000000000000000000000000000000000000000000815260206004820152602e60248201527f496e697469616c697a61626c653a20636f6e747261637420697320616c72656160448201527f647920696e697469616c697a65640000000000000000000000000000000000006064820152608401610599565b600080547fffffffffffffffffffffffffffffffffffffffffffffffffffffffffffffff001660011790558015610cd457600080547fffffffffffffffffffffffffffffffffffffffffffffffffffffffffffff00ff166101001790555b600080546001600160a01b03808a1662010000027fffffffffffffffffffff0000000000000000000000000000000000000000ffff909216919091178255600180548983167fffffffffffffffffffffffff0000000000000000000000000000000000000000918216179091556007859055600880548784169083161790556040805160808101825289841681830190815260608201869052815281518083019092528884168252602082810195865280820183905290518051600280549187169186169190911790550151600355516004805491909316911617905551600555610dbf308661130f565b610dc9308561130f565b600854610ddf906001600160a01b03168661130f565b600854610df5906001600160a01b03168561130f565b8015610e5857600080547fffffffffffffffffffffffffffffffffffffffffffffffffffffffffffff00ff169055604051600181527f7f26b83ff96e1f2b6a682f133852f6798a09c465da95921460cefb38474024989060200160405180910390a15b50505050505050565b60035460055460009190610e758183611cda565b9250505090565b6000806006541315610e8f575060065490565b506207a12090565b6000806000600160009054906101000a90046001600160a01b03166001600160a01b031663a1e79f756040518163ffffffff1660e01b8152600401602060405180830381865afa158015610eef573d6000803e3d6000fd5b505050506040513d601f19601f82011682018060405250810190610f139190611c4a565b6003549091506000908290610f289087611cda565b610f329190611d26565b6005549091506000908390610f479088611cda565b610f519190611d26565b9196919550909350505050565b610f6b8888888786611401565b610f788888878685611401565b5050505050505050565b6000610f8d8361147f565b15611001578115610ffa576040517f08c379a000000000000000000000000000000000000000000000000000000000815260206004820181905260248201527f48424152732073686f756c642062652070617373656420617320706179626c656044820152606401610599565b5034611004565b50805b92915050565b600061101583610a58565b90506110218183611514565b600080600061102f866115d1565b9250925092506000611040836108d3565b905060008061104e8361162a565b91509150836002600001600101600082825461106a9190611cb2565b9091555050600254604080516080810190915260448082526110a6928d9230926001600160a01b0390921691899190611e866020830139611401565b6008546002546040805160808101909152604f8082526110e1938e936001600160a01b03918216939116918b91906121086020830139611401565b6110eb8183611cb2565b600580546000906110fd908490611c92565b9091555050600454611119908b906001600160a01b031661130f565b6004546040805160608101825281815261114c9230928e926001600160a01b03909216918791611fe56020830139611401565b6008546004546040805160808101909152604f8082526111879330936001600160a01b03918216939116918691906120256020830139611401565b50505050505050505050565b600061119e83610ad1565b90506111aa8183611514565b60008060006111b8866115d1565b92509250925060006111c983610b5a565b90506000806111d78361162a565b91509150836002800160010160008282546111f29190611cb2565b90915550506004546040805160808101909152604480825261122e928d9230926001600160a01b03909216918991906121576020830139611401565b6008546004546040805160808101909152604f808252611269938e936001600160a01b03918216939116918b91906120256020830139611401565b6112738183611cb2565b60038054600090611285908490611c92565b90915550506002546112a1908b906001600160a01b031661130f565b600254604080516060810182528181526112d49230928e926001600160a01b03909216918791611eca6020830139611401565b6008546002546040805160808101909152604f8082526111879330936001600160a01b0391821693911691869190611f966020830139611401565b6113188161147f565b6113fd5760008054604080516001600160a01b03868116602483015285811660448084019190915283518084039091018152606490920183526020820180517bffffffffffffffffffffffffffffffffffffffffffffffffffffffff167ff4a01e5b00000000000000000000000000000000000000000000000000000000179052915162010000909304909116916113b09190611df6565b600060405180830381855af49150503d80600081146113eb576040519150601f19603f3d011682016040523d82523d6000602084013e6113f0565b606091505b5050905080806107a25750505b5050565b61140a8361147f565b1561145657306001600160a01b0386160361142d5761142882611655565b611436565b611436826116ef565b306001600160a01b0385161461145157611451828583611759565b6106ce565b306001600160a01b038616036114725761145183838684611827565b6106ce83838787856118f2565b60008060029054906101000a90046001600160a01b03166001600160a01b031663e283cff76040518163ffffffff1660e01b81526004016020604051808303816000875af11580156114d5573d6000803e3d6000fd5b505050506040513d601f19601f820116820180604052508101906114f99190611db5565b6001600160a01b0316826001600160a01b0316149050919050565b600080821361152a57611525610e7c565b61152c565b815b9050808313156115cc576040517f18cc060900000000000000000000000000000000000000000000000000000000815260606004820152603760648201527f5468652063616c63756c6174656420736c697070616765206973206f7665722060848201527f74686520736c697070616765207468726573686f6c642e00000000000000000060a4820152602481018490526044810182905260c401610599565b505050565b6000806000806115e085610b2a565b905060006115ef600283611d26565b905060006115fe600284611d26565b9050600061160c8489611c92565b9050600061161a8383611cb2565b9399919850929650945050505050565b600080600061163884610b2a565b905060006116468286611c92565b90506000610f51600284611d26565b8061165e6119d8565b10156116ec576040517f08c379a000000000000000000000000000000000000000000000000000000000815260206004820152602760248201527f436f6e747261637420646f6573206e6f7420686176652073756666696369656e60448201527f74204862617273000000000000000000000000000000000000000000000000006064820152608401610599565b50565b803410156116ec576040517f08c379a000000000000000000000000000000000000000000000000000000000815260206004820152601960248201527f506c65617365207061737320636f7272656374204862617273000000000000006044820152606401610599565b600080546040517f38709f260000000000000000000000000000000000000000000000000000000081526001600160a01b03858116600483015262010000909204909116906338709f2690869060240160206040518083038185885af11580156117c7573d6000803e3d6000fd5b50505050506040513d601f19601f820116820180604052508101906117ec9190611e12565b905081816106ce576040517f08c379a00000000000000000000000000000000000000000000000000000000081526004016105999190611e34565b6040517fa9059cbb0000000000000000000000000000000000000000000000000000000081526001600160a01b038381166004830152602482018590526000919086169063a9059cbb906044016020604051808303816000875af1158015611893573d6000803e3d6000fd5b505050506040513d601f19601f820116820180604052508101906118b79190611e12565b905081816108cb576040517f08c379a00000000000000000000000000000000000000000000000000000000081526004016105999190611e34565b600080546040517f70089d560000000000000000000000000000000000000000000000000000000081526001600160a01b038881166004830152868116602483015285811660448301526064820188905262010000909204909116906370089d56906084016020604051808303816000875af1158015611976573d6000803e3d6000fd5b505050506040513d601f19601f8201168201806040525081019061199a9190611c4a565b90508160168214610e58576040517f08c379a00000000000000000000000000000000000000000000000000000000081526004016105999190611e34565b60008060029054906101000a90046001600160a01b03166001600160a01b031663e283cff76040518163ffffffff1660e01b81526004016020604051808303816000875af1158015611a2e573d6000803e3d6000fd5b505050506040513d601f19601f82011682018060405250810190611a529190611db5565b6002546001600160a01b03908116911614611a6e575060055490565b5060035490565b6001600160a01b03811681146116ec57600080fd5b60008060408385031215611a9d57600080fd5b8235611aa881611a75565b946020939093013593505050565b60008060008060808587031215611acc57600080fd5b8435611ad781611a75565b93506020850135611ae781611a75565b93969395505050506040820135916060013590565b600080600080600060a08688031215611b1457600080fd5b8535611b1f81611a75565b94506020860135611b2f81611a75565b93506040860135611b3f81611a75565b94979396509394606081013594506080013592915050565b600060208284031215611b6957600080fd5b5035919050565b600060208284031215611b8257600080fd5b8135610b5381611a75565b815180516001600160a01b03168252602090810151908201526080810160208381015180516001600160a01b031660408501529081015160608401525b5092915050565b60008060008060008060c08789031215611bea57600080fd5b8635611bf581611a75565b95506020870135611c0581611a75565b94506040870135611c1581611a75565b93506060870135611c2581611a75565b92506080870135611c3581611a75565b8092505060a087013590509295509295509295565b600060208284031215611c5c57600080fd5b5051919050565b7f4e487b7100000000000000000000000000000000000000000000000000000000600052601160045260246000fd5b8181036000831280158383131683831282161715611bca57611bca611c63565b8082018281126000831280158216821582161715611cd257611cd2611c63565b505092915050565b808202600082127f800000000000000000000000000000000000000000000000000000000000000084141615611d1257611d12611c63565b818105831482151761100457611004611c63565b600082611d5c577f4e487b7100000000000000000000000000000000000000000000000000000000600052601260045260246000fd5b7fffffffffffffffffffffffffffffffffffffffffffffffffffffffffffffffff83147f800000000000000000000000000000000000000000000000000000000000000083141615611db057611db0611c63565b500590565b600060208284031215611dc757600080fd5b8151610b5381611a75565b60005b83811015611ded578181015183820152602001611dd5565b50506000910152565b60008251611e08818460208701611dd2565b9190910192915050565b600060208284031215611e2457600080fd5b81518015158114610b5357600080fd5b6020815260008251806020840152611e53816040850160208701611dd2565b601f017fffffffffffffffffffffffffffffffffffffffffffffffffffffffffffffffe016919091016040019291505056fe73776170546f6b656e413a205472616e7366657272696e6720746f6b656e204120746f20636f6e7472616374206661696c656420776974682073746174757320636f646573776170546f6b656e423a205472616e7366657272696e6720746f6b656e204120746f2075736572206661696c656420776974682073746174757320636f6465416464206c69717569646974793a205472616e73666572696e6720746f6b656e204220746f20636f6e7472616374206661696c656420776974682073746174757320636f6465416464206c69717569646974793a205472616e73666572696e6720746f6b656e204120746f20636f6e7472616374206661696c656420776974682073746174757320636f646573776170546f6b656e424665653a205472616e7366657272696e672066656520617320746f6b656e204120746f20747265617375617279206661696c656420776974682073746174757320636f646573776170546f6b656e413a205472616e7366657272696e6720746f6b656e204220746f2075736572206661696c656420776974682073746174757320636f646573776170546f6b656e424665653a205472616e7366657272696e672066656520617320746f6b656e204220746f20747265617375617279206661696c656420776974682073746174757320636f646552656d6f7665206c69717569646974793a205472616e7366657272696e6720746f6b656e204120746f20636f6e7472616374206661696c656420776974682073746174757320636f646552656d6f7665206c69717569646974793a205472616e7366657272696e6720746f6b656e204220746f20636f6e7472616374206661696c656420776974682073746174757320636f646573776170546f6b656e414665653a205472616e7366657272696e672066656520617320746f6b656e204120746f20747265617375617279206661696c656420776974682073746174757320636f646573776170546f6b656e423a205472616e7366657272696e6720746f6b656e204220746f20636f6e7472616374206661696c656420776974682073746174757320636f6465a2646970667358221220ed1b5a35b7945200c1b4ca4df14552f2084b977af0dd9b91d1a00b72fab4d61b64736f6c63430008110033608060405234801561001057600080fd5b506117ed806100206000396000f3fe6080604052600436106100705760003560e01c80638c237c691161004e5780638c237c69146100e8578063906571471461011d578063a1e79f7514610132578063b4e251791461014757600080fd5b80632a4d626014610075578063665df460146100a85780636869958f146100c8575b600080fd5b34801561008157600080fd5b506100956100903660046110e4565b610167565b6040519081526020015b60405180910390f35b3480156100b457600080fd5b506100956100c3366004611114565b6104ca565b3480156100d457600080fd5b506100956100e336600461112d565b610523565b3480156100f457600080fd5b5060015460405173ffffffffffffffffffffffffffffffffffffffff909116815260200161009f565b61013061012b36600461122b565b6105b8565b005b34801561013e57600080fd5b506100956107c2565b34801561015357600080fd5b506100956101623660046112a1565b61085b565b60008083136101bd5760405162461bcd60e51b815260206004820152601b60248201527f506c656173652070726f7669646520746f6b656e20636f756e7473000000000060448201526064015b60405180910390fd5b6040517f6869958f00000000000000000000000000000000000000000000000000000000815273ffffffffffffffffffffffffffffffffffffffff8316600482015283903090636869958f90602401602060405180830381865afa158015610229573d6000803e3d6000fd5b505050506040513d601f19601f8201168201806040525081019061024d91906112da565b121561029b5760405162461bcd60e51b815260206004820152601c60248201527f5573657220446f6573206e6f742068617665206c7020616d6f756e740000000060448201526064016101b4565b600080546001546040517f70089d5600000000000000000000000000000000000000000000000000000000815273ffffffffffffffffffffffffffffffffffffffff91821660048201528582166024820152306044820152606481018790526201000090920416906370089d56906084016020604051808303816000875af115801561032b573d6000803e3d6000fd5b505050506040513d601f19601f8201168201806040525081019061034f91906112da565b9050601681146103c75760405162461bcd60e51b815260206004820152602b60248201527f4c50546f6b656e3a20746f6b656e207472616e73666572206661696c6564207460448201527f6f20636f6e74726163742e00000000000000000000000000000000000000000060648201526084016101b4565b6000546001546040517f770c8f5100000000000000000000000000000000000000000000000000000000815273ffffffffffffffffffffffffffffffffffffffff91821660048201526024810187905262010000909204169063770c8f519060440160408051808303816000875af1158015610447573d6000803e3d6000fd5b505050506040513d601f19601f8201168201806040525081019061046b91906112f3565b509050601681146104be5760405162461bcd60e51b815260206004820152601560248201527f4c5020746f6b656e206275726e206661696c65642e000000000000000000000060448201526064016101b4565b50601690505b92915050565b60008060026104da846001611346565b6104e4919061136e565b90508291505b8181121561051d57905080600281610502818661136e565b61050c9190611346565b610516919061136e565b90506104ea565b50919050565b6001546040517f70a0823100000000000000000000000000000000000000000000000000000000815273ffffffffffffffffffffffffffffffffffffffff838116600483015260009216906370a0823190602401602060405180830381865afa158015610594573d6000803e3d6000fd5b505050506040513d601f19601f820116820180604052508101906104c491906112da565b600054610100900460ff16158080156105d85750600054600160ff909116105b806105f25750303b1580156105f2575060005460ff166001145b6106645760405162461bcd60e51b815260206004820152602e60248201527f496e697469616c697a61626c653a20636f6e747261637420697320616c72656160448201527f647920696e697469616c697a656400000000000000000000000000000000000060648201526084016101b4565b600080547fffffffffffffffffffffffffffffffffffffffffffffffffffffffffffffff0016600117905580156106c257600080547fffffffffffffffffffffffffffffffffffffffffffffffffffffffffffff00ff166101001790555b600080547fffffffffffffffffffff0000000000000000000000000000000000000000ffff166201000073ffffffffffffffffffffffffffffffffffffffff871602178155610712818585610c92565b600180547fffffffffffffffffffffffff00000000000000000000000000000000000000001673ffffffffffffffffffffffffffffffffffffffff92909216919091179055505080156107bc57600080547fffffffffffffffffffffffffffffffffffffffffffffffffffffffffffff00ff169055604051600181527f7f26b83ff96e1f2b6a682f133852f6798a09c465da95921460cefb38474024989060200160405180910390a15b50505050565b600154604080517f18160ddd000000000000000000000000000000000000000000000000000000008152905160009273ffffffffffffffffffffffffffffffffffffffff16916318160ddd9160048083019260209291908290030181865afa158015610832573d6000803e3d6000fd5b505050506040513d601f19601f8201168201806040525081019061085691906112da565b905090565b60003373ffffffffffffffffffffffffffffffffffffffff167fe4f4aace5288c74d7e5faabc390ceb3719dce95266b935043173ec59fd8db2466040516108d3906020808252600f908201527f616c6c6f744c50546f6b656e466f720000000000000000000000000000000000604082015260600190565b60405180910390a26000841380156108eb5750600083135b61095c5760405162461bcd60e51b8152602060048201526024808201527f506c656173652070726f7669646520706f73697469766520746f6b656e20636f60448201527f756e74730000000000000000000000000000000000000000000000000000000060648201526084016101b4565b600061096b6100c385876113fd565b60015490915073ffffffffffffffffffffffffffffffffffffffff166109d35760405162461bcd60e51b815260206004820152601f60248201527f4c697175696469747920546f6b656e206e6f7420696e697469616c697a65640060448201526064016101b4565b6000546001546040517ff4a01e5b00000000000000000000000000000000000000000000000000000000815273ffffffffffffffffffffffffffffffffffffffff8681166004830152918216602482015262010000909204169063f4a01e5b906044016020604051808303816000875af1158015610a55573d6000803e3d6000fd5b505050506040513d601f19601f82011682018060405250810190610a7991906112da565b50600080546001546040517fc3bd3ff200000000000000000000000000000000000000000000000000000000815273ffffffffffffffffffffffffffffffffffffffff91821660048201526024810185905262010000909204169063c3bd3ff29060440160408051808303816000875af1158015610afb573d6000803e3d6000fd5b505050506040513d601f19601f82011682018060405250810190610b1f91906112f3565b50905060168114610b725760405162461bcd60e51b815260206004820152601860248201527f4c5020746f6b656e206d696e74696e67206661696c65642e000000000000000060448201526064016101b4565b6001546040517fa9059cbb00000000000000000000000000000000000000000000000000000000815273ffffffffffffffffffffffffffffffffffffffff868116600483015260248201859052600092169063a9059cbb906044016020604051808303816000875af1158015610bec573d6000803e3d6000fd5b505050506040513d601f19601f82011682018060405250810190610c109190611449565b905080610c855760405162461bcd60e51b815260206004820152602d60248201527f4c50546f6b656e3a20746f6b656e207472616e73666572206661696c6564206660448201527f726f6d20636f6e74726163742e0000000000000000000000000000000000000060648201526084016101b4565b5060169695505050505050565b6000806000610cf76040518060a00160405280600015158152602001600073ffffffffffffffffffffffffffffffffffffffff1681526020016060815260200160608152602001600073ffffffffffffffffffffffffffffffffffffffff1681525090565b6000805462010000900473ffffffffffffffffffffffffffffffffffffffff1660808301526040805160018082528183019092526010949094179390602082015b610d40611048565b815260200190600190039081610d3857905050905060405180604001604052808481526020018381525081600081518110610d7d57610d7d61146b565b6020026020010181905250610dc86040518060600160405280600060070b8152602001600073ffffffffffffffffffffffffffffffffffffffff168152602001600060070b81525090565b306020820152627a12006040820152610e3d60408051610120810182526060808252602080830182905260008385018190528284018390526080840181905260a0840181905260c0840181905260e0840183905284519283018552808352908201819052928101929092529061010082015290565b88816000018190525087816020018190525030816040019073ffffffffffffffffffffffffffffffffffffffff16908173ffffffffffffffffffffffffffffffffffffffff168152505081816101000181905250828160e00181905250600080600060029054906101000a900473ffffffffffffffffffffffffffffffffffffffff1673ffffffffffffffffffffffffffffffffffffffff16635ed9138460e01b848e6008604051602401610ef493929190611618565b604080517fffffffffffffffffffffffffffffffffffffffffffffffffffffffffffffffe08184030181529181526020820180517bffffffffffffffffffffffffffffffffffffffffffffffffffffffff167fffffffff00000000000000000000000000000000000000000000000000000000909416939093179092529051610f7d9190611776565b600060405180830381855af49150503d8060008114610fb8576040519150601f19603f3d011682016040523d82523d6000602084013e610fbd565b606091505b509150915081610fd05760156000610fe4565b80806020019051810190610fe49190611792565b9099509750601689146110395760405162461bcd60e51b815260206004820152601f60248201527f4c50546f6b656e3a20546f6b656e206372656174696f6e206661696c65642e0060448201526064016101b4565b50505050505050935093915050565b6040518060400160405280600081526020016110ba6040518060a00160405280600015158152602001600073ffffffffffffffffffffffffffffffffffffffff1681526020016060815260200160608152602001600073ffffffffffffffffffffffffffffffffffffffff1681525090565b905290565b73ffffffffffffffffffffffffffffffffffffffff811681146110e157600080fd5b50565b600080604083850312156110f757600080fd5b823591506020830135611109816110bf565b809150509250929050565b60006020828403121561112657600080fd5b5035919050565b60006020828403121561113f57600080fd5b813561114a816110bf565b9392505050565b7f4e487b7100000000000000000000000000000000000000000000000000000000600052604160045260246000fd5b600082601f83011261119157600080fd5b813567ffffffffffffffff808211156111ac576111ac611151565b604051601f83017fffffffffffffffffffffffffffffffffffffffffffffffffffffffffffffffe0908116603f011681019082821181831017156111f2576111f2611151565b8160405283815286602085880101111561120b57600080fd5b836020870160208301376000602085830101528094505050505092915050565b60008060006060848603121561124057600080fd5b833561124b816110bf565b9250602084013567ffffffffffffffff8082111561126857600080fd5b61127487838801611180565b9350604086013591508082111561128a57600080fd5b5061129786828701611180565b9150509250925092565b6000806000606084860312156112b657600080fd5b833592506020840135915060408401356112cf816110bf565b809150509250925092565b6000602082840312156112ec57600080fd5b5051919050565b6000806040838503121561130657600080fd5b505080516020909101519092909150565b7f4e487b7100000000000000000000000000000000000000000000000000000000600052601160045260246000fd5b808201828112600083128015821682158216171561136657611366611317565b505092915050565b6000826113a4577f4e487b7100000000000000000000000000000000000000000000000000000000600052601260045260246000fd5b7fffffffffffffffffffffffffffffffffffffffffffffffffffffffffffffffff83147f8000000000000000000000000000000000000000000000000000000000000000831416156113f8576113f8611317565b500590565b808202600082127f80000000000000000000000000000000000000000000000000000000000000008414161561143557611435611317565b81810583148215176104c4576104c4611317565b60006020828403121561145b57600080fd5b8151801515811461114a57600080fd5b7f4e487b7100000000000000000000000000000000000000000000000000000000600052603260045260246000fd5b60005b838110156114b557818101518382015260200161149d565b50506000910152565b600081518084526114d681602086016020860161149a565b601f017fffffffffffffffffffffffffffffffffffffffffffffffffffffffffffffffe0169290920160200192915050565b600082825180855260208086019550808260051b84010181860160005b8481101561160b577fffffffffffffffffffffffffffffffffffffffffffffffffffffffffffffffe086840301895281516040815185528582015191508086860152815115158186015285820151606073ffffffffffffffffffffffffffffffffffffffff8083168289015283850151935060a09250608083818a01526115af60e08a01866114be565b928601518984037fffffffffffffffffffffffffffffffffffffffffffffffffffffffffffffffc001858b01529294506115e985846114be565b9501511660c09790970196909652505098840198925090830190600101611525565b5090979650505050505050565b60608152600084516101608060608501526116376101c08501836114be565b915060208701517fffffffffffffffffffffffffffffffffffffffffffffffffffffffffffffffa08086850301608087015261167384836114be565b93506040890151915061169e60a087018373ffffffffffffffffffffffffffffffffffffffff169052565b60608901519150808685030160c08701526116b984836114be565b9350608089015191506116d060e087018315159052565b60a089015191506101006116e88188018460070b9052565b60c08a0151151561012088015260e08a0151878603830161014089015292506117118584611508565b9450808a01519250505061175a82860182805160070b825273ffffffffffffffffffffffffffffffffffffffff6020820151166020830152604081015160070b60408301525050565b50506020830185905260ff841660408401529050949350505050565b6000825161178881846020870161149a565b9190910192915050565b600080604083850312156117a557600080fd5b825191506020830151611109816110bf56fea2646970667358221220e4b8b64024444458824f5f7e2d0ac9068da8a29044ad52d3817aa46f981a738764736f6c6343000811003360806040526040516200103838038062001038833981016040819052620000269162000497565b828162000036828260006200004d565b50620000449050826200008a565b505050620005ca565b6200005883620000e5565b600082511180620000665750805b1562000085576200008383836200012760201b6200028c1760201c565b505b505050565b7f7e644d79422f17c01e4894b5f4f588d331ebfa28653d42ae832dc59e38c9798f620000b562000156565b604080516001600160a01b03928316815291841660208301520160405180910390a1620000e2816200018f565b50565b620000f08162000244565b6040516001600160a01b038216907fbc7cd75a20ee27fd9adebab32041f755214dbc6bffa90cc0225b39da2e5c2d3b90600090a250565b60606200014f83836040518060600160405280602781526020016200101160279139620002f8565b9392505050565b60006200018060008051602062000ff183398151915260001b6200037760201b6200022e1760201c565b546001600160a01b0316919050565b6001600160a01b038116620001fa5760405162461bcd60e51b815260206004820152602660248201527f455243313936373a206e65772061646d696e20697320746865207a65726f206160448201526564647265737360d01b60648201526084015b60405180910390fd5b806200022360008051602062000ff183398151915260001b6200037760201b6200022e1760201c565b80546001600160a01b0319166001600160a01b039290921691909117905550565b6200025a816200037a60201b620002b81760201c565b620002be5760405162461bcd60e51b815260206004820152602d60248201527f455243313936373a206e657720696d706c656d656e746174696f6e206973206e60448201526c1bdd08184818dbdb9d1c9858dd609a1b6064820152608401620001f1565b80620002237f360894a13ba1a3210667c828492db98dca3e2076cc3735a920a3ca505d382bbc60001b6200037760201b6200022e1760201c565b6060600080856001600160a01b03168560405162000317919062000577565b600060405180830381855af49150503d806000811462000354576040519150601f19603f3d011682016040523d82523d6000602084013e62000359565b606091505b5090925090506200036d8683838762000389565b9695505050505050565b90565b6001600160a01b03163b151590565b60608315620003fd578251600003620003f5576001600160a01b0385163b620003f55760405162461bcd60e51b815260206004820152601d60248201527f416464726573733a2063616c6c20746f206e6f6e2d636f6e74726163740000006044820152606401620001f1565b508162000409565b62000409838362000411565b949350505050565b815115620004225781518083602001fd5b8060405162461bcd60e51b8152600401620001f1919062000595565b80516001600160a01b03811681146200045657600080fd5b919050565b634e487b7160e01b600052604160045260246000fd5b60005b838110156200048e57818101518382015260200162000474565b50506000910152565b600080600060608486031215620004ad57600080fd5b620004b8846200043e565b9250620004c8602085016200043e565b60408501519092506001600160401b0380821115620004e657600080fd5b818601915086601f830112620004fb57600080fd5b8151818111156200051057620005106200045b565b604051601f8201601f19908116603f011681019083821181831017156200053b576200053b6200045b565b816040528281528960208487010111156200055557600080fd5b6200056883602083016020880162000471565b80955050505050509250925092565b600082516200058b81846020870162000471565b9190910192915050565b6020815260008251806020840152620005b681604085016020870162000471565b601f01601f19169190910160400192915050565b610a1780620005da6000396000f3fe60806040526004361061005e5760003560e01c80635c60da1b116100435780635c60da1b146100a85780638f283970146100e6578063f851a440146101065761006d565b80633659cfe6146100755780634f1ef286146100955761006d565b3661006d5761006b61011b565b005b61006b61011b565b34801561008157600080fd5b5061006b61009036600461088b565b610135565b61006b6100a33660046108a6565b61017f565b3480156100b457600080fd5b506100bd6101f3565b60405173ffffffffffffffffffffffffffffffffffffffff909116815260200160405180910390f35b3480156100f257600080fd5b5061006b61010136600461088b565b610231565b34801561011257600080fd5b506100bd61025e565b6101236102d4565b61013361012e6103ab565b6103b5565b565b61013d6103d9565b73ffffffffffffffffffffffffffffffffffffffff1633036101775761017481604051806020016040528060008152506000610419565b50565b61017461011b565b6101876103d9565b73ffffffffffffffffffffffffffffffffffffffff1633036101eb576101e68383838080601f01602080910402602001604051908101604052809392919081815260200183838082843760009201919091525060019250610419915050565b505050565b6101e661011b565b60006101fd6103d9565b73ffffffffffffffffffffffffffffffffffffffff163303610226576102216103ab565b905090565b61022e61011b565b90565b6102396103d9565b73ffffffffffffffffffffffffffffffffffffffff1633036101775761017481610444565b60006102686103d9565b73ffffffffffffffffffffffffffffffffffffffff163303610226576102216103d9565b60606102b183836040518060600160405280602781526020016109bb602791396104a5565b9392505050565b73ffffffffffffffffffffffffffffffffffffffff163b151590565b6102dc6103d9565b73ffffffffffffffffffffffffffffffffffffffff163303610133576040517f08c379a000000000000000000000000000000000000000000000000000000000815260206004820152604260248201527f5472616e73706172656e745570677261646561626c6550726f78793a2061646d60448201527f696e2063616e6e6f742066616c6c6261636b20746f2070726f7879207461726760648201527f6574000000000000000000000000000000000000000000000000000000000000608482015260a4015b60405180910390fd5b600061022161052a565b3660008037600080366000845af43d6000803e8080156103d4573d6000f35b3d6000fd5b60007fb53127684a568b3173ae13b9f8a6016e243e63b6e8ee1178d6a717850b5d61035b5473ffffffffffffffffffffffffffffffffffffffff16919050565b61042283610552565b60008251118061042f5750805b156101e65761043e838361028c565b50505050565b7f7e644d79422f17c01e4894b5f4f588d331ebfa28653d42ae832dc59e38c9798f61046d6103d9565b6040805173ffffffffffffffffffffffffffffffffffffffff928316815291841660208301520160405180910390a16101748161059f565b60606000808573ffffffffffffffffffffffffffffffffffffffff16856040516104cf919061094d565b600060405180830381855af49150503d806000811461050a576040519150601f19603f3d011682016040523d82523d6000602084013e61050f565b606091505b5091509150610520868383876106ab565b9695505050505050565b60007f360894a13ba1a3210667c828492db98dca3e2076cc3735a920a3ca505d382bbc6103fd565b61055b81610753565b60405173ffffffffffffffffffffffffffffffffffffffff8216907fbc7cd75a20ee27fd9adebab32041f755214dbc6bffa90cc0225b39da2e5c2d3b90600090a250565b73ffffffffffffffffffffffffffffffffffffffff8116610642576040517f08c379a000000000000000000000000000000000000000000000000000000000815260206004820152602660248201527f455243313936373a206e65772061646d696e20697320746865207a65726f206160448201527f646472657373000000000000000000000000000000000000000000000000000060648201526084016103a2565b807fb53127684a568b3173ae13b9f8a6016e243e63b6e8ee1178d6a717850b5d61035b80547fffffffffffffffffffffffff00000000000000000000000000000000000000001673ffffffffffffffffffffffffffffffffffffffff9290921691909117905550565b6060831561074157825160000361073a5773ffffffffffffffffffffffffffffffffffffffff85163b61073a576040517f08c379a000000000000000000000000000000000000000000000000000000000815260206004820152601d60248201527f416464726573733a2063616c6c20746f206e6f6e2d636f6e747261637400000060448201526064016103a2565b508161074b565b61074b838361081e565b949350505050565b73ffffffffffffffffffffffffffffffffffffffff81163b6107f7576040517f08c379a000000000000000000000000000000000000000000000000000000000815260206004820152602d60248201527f455243313936373a206e657720696d706c656d656e746174696f6e206973206e60448201527f6f74206120636f6e74726163740000000000000000000000000000000000000060648201526084016103a2565b807f360894a13ba1a3210667c828492db98dca3e2076cc3735a920a3ca505d382bbc610665565b81511561082e5781518083602001fd5b806040517f08c379a00000000000000000000000000000000000000000000000000000000081526004016103a29190610969565b803573ffffffffffffffffffffffffffffffffffffffff8116811461088657600080fd5b919050565b60006020828403121561089d57600080fd5b6102b182610862565b6000806000604084860312156108bb57600080fd5b6108c484610862565b9250602084013567ffffffffffffffff808211156108e157600080fd5b818601915086601f8301126108f557600080fd5b81358181111561090457600080fd5b87602082850101111561091657600080fd5b6020830194508093505050509250925092565b60005b8381101561094457818101518382015260200161092c565b50506000910152565b6000825161095f818460208701610929565b9190910192915050565b6020815260008251806020840152610988816040850160208701610929565b601f017fffffffffffffffffffffffffffffffffffffffffffffffffffffffffffffffe016919091016040019291505056fe416464726573733a206c6f772d6c6576656c2064656c65676174652063616c6c206661696c6564a26469706673582212204f094d7720fc7374a3c783a87072f71f199b8020e101c821dcfcb00422afd54164736f6c63430008110033b53127684a568b3173ae13b9f8a6016e243e63b6e8ee1178d6a717850b5d6103416464726573733a206c6f772d6c6576656c2064656c65676174652063616c6c206661696c6564a26469706673582212201b6b30bc04a4a67a2ced4cda8a74fa5ffa7521b23d97531cd433019ab057961a64736f6c63430008110033",
  "linkReferences": {},
  "deployedLinkReferences": {}
}