{
  "_format": "hh-sol-artifact-1",
  "contractName": "Factory",
  "sourceName": "contracts/Factory.sol",
  "abi": [
    {
      "anonymous": false,
      "inputs": [
        {
          "indexed": false,
          "internalType": "uint8",
          "name": "version",
          "type": "uint8"
        }
      ],
      "name": "Initialized",
      "type": "event"
    },
    {
      "anonymous": false,
      "inputs": [
        {
          "indexed": true,
          "internalType": "address",
          "name": "_pairAddress",
          "type": "address"
        },
        {
          "indexed": false,
          "internalType": "string",
          "name": "msg",
          "type": "string"
        }
      ],
      "name": "Initializing",
      "type": "event"
    },
    {
      "anonymous": false,
      "inputs": [
        {
          "indexed": true,
          "internalType": "address",
          "name": "_pairAddress",
          "type": "address"
        },
        {
          "indexed": false,
          "internalType": "string",
          "name": "msg",
          "type": "string"
        }
      ],
      "name": "PairCreated",
      "type": "event"
    },
    {
      "inputs": [
        {
          "internalType": "uint256",
          "name": "",
          "type": "uint256"
        }
      ],
      "name": "allPairs",
      "outputs": [
        {
          "internalType": "address",
          "name": "",
          "type": "address"
        }
      ],
      "stateMutability": "view",
      "type": "function"
    },
    {
      "inputs": [
        {
          "internalType": "address",
          "name": "_tokenA",
          "type": "address"
        },
        {
          "internalType": "address",
          "name": "_tokenB",
          "type": "address"
        },
        {
          "internalType": "address",
          "name": "_treasury",
          "type": "address"
        },
        {
          "internalType": "int256",
          "name": "_fee",
          "type": "int256"
        }
      ],
      "name": "createPair",
      "outputs": [
        {
          "internalType": "address",
          "name": "",
          "type": "address"
        }
      ],
      "stateMutability": "payable",
      "type": "function"
    },
    {
      "inputs": [
        {
          "internalType": "address",
          "name": "_tokenA",
          "type": "address"
        },
        {
          "internalType": "address",
          "name": "_tokenB",
          "type": "address"
        }
      ],
      "name": "getPair",
      "outputs": [
        {
          "internalType": "address",
          "name": "",
          "type": "address"
        }
      ],
      "stateMutability": "view",
      "type": "function"
    },
    {
      "inputs": [],
      "name": "getPairs",
      "outputs": [
        {
          "internalType": "address[]",
          "name": "",
          "type": "address[]"
        }
      ],
      "stateMutability": "view",
      "type": "function"
    },
    {
      "inputs": [
        {
          "internalType": "contract IBaseHTS",
          "name": "_tokenService",
          "type": "address"
        }
      ],
      "name": "setUpFactory",
      "outputs": [],
      "stateMutability": "nonpayable",
      "type": "function"
    }
  ],
  "bytecode": "0x608060405234801561001057600080fd5b50614173806100206000396000f3fe60806040526004361061005a5760003560e01c8063720ebf8511610043578063720ebf85146100bc578063767eb5ef146100de578063e6a439051461010057600080fd5b8063123595601461005f5780631e3dd18b1461009c575b600080fd5b61007261006d3660046109e3565b610120565b60405173ffffffffffffffffffffffffffffffffffffffff90911681526020015b60405180910390f35b3480156100a857600080fd5b506100726100b7366004610a56565b61029d565b3480156100c857600080fd5b506100dc6100d7366004610a33565b6102d4565b005b3480156100ea57600080fd5b506100f36104a4565b6040516100939190610aa7565b34801561010c57600080fd5b5061007261011b3660046109ab565b610513565b600080600061012f878761055f565b73ffffffffffffffffffffffffffffffffffffffff80831660009081526002602090815260408083208486168452909152902054929450909250168061029057600061017d848489896106be565b73ffffffffffffffffffffffffffffffffffffffff8086166000908152600260209081526040808320888516845290915280822080549385167fffffffffffffffffffffffff0000000000000000000000000000000000000000948516811790915560018054808201825593527fb10e2d527612073b26eecdfd717e6a320cf44b4afac2b0732d9fcbe2b7fa0cf690920180549093168217909255905191925082917f41109a3ae74b266db6be3d5575c98183405e90f7b440a430f62fb4e94b700d629061027c9060208082526010908201527f4e65772050616972204372656174656400000000000000000000000000000000604082015260600190565b60405180910390a250935061029592505050565b925050505b949350505050565b600181815481106102ad57600080fd5b60009182526020909120015473ffffffffffffffffffffffffffffffffffffffff16905081565b600054610100900460ff16158080156102f45750600054600160ff909116105b8061030e5750303b15801561030e575060005460ff166001145b61039f576040517f08c379a000000000000000000000000000000000000000000000000000000000815260206004820152602e60248201527f496e697469616c697a61626c653a20636f6e747261637420697320616c72656160448201527f647920696e697469616c697a656400000000000000000000000000000000000060648201526084015b60405180910390fd5b600080547fffffffffffffffffffffffffffffffffffffffffffffffffffffffffffffff0016600117905580156103fd57600080547fffffffffffffffffffffffffffffffffffffffffffffffffffffffffffff00ff166101001790555b600380547fffffffffffffffffffffffff00000000000000000000000000000000000000001673ffffffffffffffffffffffffffffffffffffffff841617905580156104a057600080547fffffffffffffffffffffffffffffffffffffffffffffffffffffffffffff00ff169055604051600181527f7f26b83ff96e1f2b6a682f133852f6798a09c465da95921460cefb38474024989060200160405180910390a15b5050565b6060600180548060200260200160405190810160405280929190818152602001828054801561050957602002820191906000526020600020905b815473ffffffffffffffffffffffffffffffffffffffff1681526001909101906020018083116104de575b5050505050905090565b6000806000610522858561055f565b73ffffffffffffffffffffffffffffffffffffffff9182166000908152600260209081526040808320938516835292905220541695945050505050565b6000808273ffffffffffffffffffffffffffffffffffffffff168473ffffffffffffffffffffffffffffffffffffffff1614156105f8576040517f08c379a000000000000000000000000000000000000000000000000000000000815260206004820152601360248201527f4944454e544943414c5f414444524553534553000000000000000000000000006044820152606401610396565b8273ffffffffffffffffffffffffffffffffffffffff168473ffffffffffffffffffffffffffffffffffffffff1610610632578284610635565b83835b909250905073ffffffffffffffffffffffffffffffffffffffff82166106b7576040517f08c379a000000000000000000000000000000000000000000000000000000000815260206004820152600c60248201527f5a45524f5f4144445245535300000000000000000000000000000000000000006044820152606401610396565b9250929050565b6040517fffffffffffffffffffffffffffffffffffffffff000000000000000000000000606086811b8216602084015285901b166034820152600090819060480160405160208183030381529060405280519060200120905060008160405161072690610991565b8190604051809103906000f5905080158015610746573d6000803e3d6000fd5b50905080600061075584610814565b6003546040517fe4f6ed0000000000000000000000000000000000000000000000000000000000815273ffffffffffffffffffffffffffffffffffffffff918216600482015281831660248201528b821660448201528a82166064820152898216608482015260a4810189905291925082919084169063e4f6ed009060c401600060405180830381600087803b1580156107ee57600080fd5b505af1158015610802573d6000803e3d6000fd5b50959c9b505050505050505050505050565b600080826040516108249061099e565b8190604051809103906000f5905080158015610844573d6000803e3d6000fd5b506003546040805173ffffffffffffffffffffffffffffffffffffffff92831660248083019190915282518083039091018152604490910182526020810180517bffffffffffffffffffffffffffffffffffffffffffffffffffffffff167fc4d66de80000000000000000000000000000000000000000000000000000000017905290519293506000929184169134916108dd91610a6e565b60006040518083038185875af1925050503d806000811461091a576040519150601f19603f3d011682016040523d82523d6000602084013e61091f565b606091505b505090508061098a576040517f08c379a000000000000000000000000000000000000000000000000000000000815260206004820152601c60248201527f4c50546f6b656e20496e697469616c697a6174696f6e206661696c21000000006044820152606401610396565b5092915050565b611d3380610b2783390190565b6118e48061285a83390190565b600080604083850312156109bd578182fd5b82356109c881610b01565b915060208301356109d881610b01565b809150509250929050565b600080600080608085870312156109f8578182fd5b8435610a0381610b01565b93506020850135610a1381610b01565b92506040850135610a2381610b01565b9396929550929360600135925050565b600060208284031215610a44578081fd5b8135610a4f81610b01565b9392505050565b600060208284031215610a67578081fd5b5035919050565b60008251815b81811015610a8e5760208186018101518583015201610a74565b81811115610a9c5782828501525b509190910192915050565b6020808252825182820181905260009190848201906040850190845b81811015610af557835173ffffffffffffffffffffffffffffffffffffffff1683529284019291840191600101610ac3565b50909695505050505050565b73ffffffffffffffffffffffffffffffffffffffff81168114610b2357600080fd5b5056fe608060405234801561001057600080fd5b50611d13806100206000396000f3fe608060405234801561001057600080fd5b506004361061016c5760003560e01c8063c1f1b1b5116100cd578063d813d36211610081578063e4f6ed0011610066578063e4f6ed0014610389578063f819163f1461039c578063fc9cee3c146103a457600080fd5b8063d813d3621461036e578063dc76fabc1461038157600080fd5b8063ca71d4e4116100b2578063ca71d4e41461034a578063ced72f8714610353578063d13b92cf1461035b57600080fd5b8063c1f1b1b51461025a578063c54321b81461033757600080fd5b80634593d8161161012457806389b11e1b1161010957806389b11e1b146101fe5780639af5349a146102145780639dcfc22b1461024757600080fd5b80634593d816146101d857806389a88def146101eb57600080fd5b806325fd3ee91161015557806325fd3ee91461019c5780632b26701a146101af57806332a2c5d0146101ca57600080fd5b80630d329a52146101715780632537d32414610186575b600080fd5b61018461017f366004611652565b6103ac565b005b60645b6040519081526020015b60405180910390f35b6101846101aa3660046115b8565b61063d565b60035460055460408051928352602083019190915201610193565b604051308152602001610193565b6101896101e63660046116f5565b6108d2565b6101846101f9366004611612565b610934565b61018961020c3660046116f5565b600681905590565b6002546004546040805173ffffffffffffffffffffffffffffffffffffffff938416815292909116602083015201610193565b6101896102553660046116f5565b610a19565b6102eb6040805160808101825260008183018181526060830182905282528251808401909352808352602080840191909152810191909152506040805160808101825260025473ffffffffffffffffffffffffffffffffffffffff90811682840190815260035460608401528252825180840190935260045416825260055460208381019190915281019190915290565b604080518251805173ffffffffffffffffffffffffffffffffffffffff908116835260209182015182840152938101518051909416928201929092529101516060820152608001610193565b6101896103453660046116f5565b610a91565b62989680610189565b600754610189565b6101896103693660046116f5565b610ae9565b61018961037c3660046116f5565b610b19565b610189610b6e565b61018461039736600461167d565b610b9b565b610189610e19565b610189610e34565b6001546040517f6869958f00000000000000000000000000000000000000000000000000000000815273ffffffffffffffffffffffffffffffffffffffff848116600483015283921690636869958f9060240160206040518083038186803b15801561041757600080fd5b505afa15801561042b573d6000803e3d6000fd5b505050506040513d601f19601f8201168201806040525081019061044f919061170d565b136104e1576040517f08c379a000000000000000000000000000000000000000000000000000000000815260206004820152602660248201527f7573657220646f6573206e6f7420686176652073756666696369656e74206c7060448201527f546f6b656e73000000000000000000000000000000000000000000000000000060648201526084015b60405180910390fd5b6000806104ed83610e4e565b6002546004546040805160808101909152604a808252949650929450610556933093899373ffffffffffffffffffffffffffffffffffffffff90811693169188918891611bb760208301396040518060800160405280604a8152602001611c01604a9139610f3e565b6003805483919060009061056b90849061194f565b90915550506005805482919060009061058590849061194f565b90915550506001546040517f2a4d62600000000000000000000000000000000000000000000000000000000081526004810185905273ffffffffffffffffffffffffffffffffffffffff868116602483015290911690632a4d626090604401602060405180830381600087803b1580156105fe57600080fd5b505af1158015610612573d6000803e3d6000fd5b505050506040513d601f19601f82011682018060405250810190610636919061170d565b5050505050565b6000546040517ff4a01e5b00000000000000000000000000000000000000000000000000000000815230600482015273ffffffffffffffffffffffffffffffffffffffff8681166024830152620100009092049091169063f4a01e5b90604401602060405180830381600087803b1580156106b757600080fd5b505af11580156106cb573d6000803e3d6000fd5b505050506040513d601f19601f820116820180604052508101906106ef919061170d565b506000546040517ff4a01e5b00000000000000000000000000000000000000000000000000000000815230600482015273ffffffffffffffffffffffffffffffffffffffff8581166024830152620100009092049091169063f4a01e5b90604401602060405180830381600087803b15801561076a57600080fd5b505af115801561077e573d6000803e3d6000fd5b505050506040513d601f19601f820116820180604052508101906107a2919061170d565b506107e3853086868686604051806080016040528060468152602001611b3160469139604051806080016040528060468152602001611aeb60469139610f3e565b600380548391906000906107f8908490611796565b909155505060058054829190600090610812908490611796565b90915550506001546040517fb4e25179000000000000000000000000000000000000000000000000000000008152600481018490526024810183905273ffffffffffffffffffffffffffffffffffffffff87811660448301529091169063b4e2517990606401602060405180830381600087803b15801561089257600080fd5b505af11580156108a6573d6000803e3d6000fd5b505050506040513d601f19601f820116820180604052508101906108ca919061170d565b505050505050565b600062989680816108e1610e19565b6003546005549192509060006108f78784611796565b6109018686611897565b61090b919061180a565b90506000610919868361180a565b90506000610927828561194f565b9998505050505050505050565b60025473ffffffffffffffffffffffffffffffffffffffff83811691161480610977575060045473ffffffffffffffffffffffffffffffffffffffff8381169116145b6109dd576040517f08c379a000000000000000000000000000000000000000000000000000000000815260206004820152601f60248201527f506c73207061737320636f727265637420746f6b656e20746f20737761702e0060448201526064016104d8565b60025473ffffffffffffffffffffffffffffffffffffffff83811691161415610a0f57610a0a8382610f62565b505050565b610a0a8382611229565b60035460055460009162989680918382610a338584611897565b610a3d919061180a565b9050600084610a4c8389611897565b610a56919061180a565b90506000610a63886108d2565b90508186610a71838361194f565b610a7b9190611897565b610a85919061180a565b98975050505050505050565b60035460055460009162989680918381610aab8585611897565b610ab5919061180a565b9050600084610ac48389611897565b610ace919061180a565b90506000610adb88610b19565b90508186610a71828461194f565b6000806064600260075485610afe9190611897565b610b08919061180a565b610b12919061180a565b9392505050565b600080610b24610e19565b60035460055491925062989680916000610b3e878361194f565b610b488587611897565b610b52919061180a565b90506000610b60858361180a565b90506000610927858361194f565b60035460055460009162989680918381610b888585611897565b610b92919061180a565b95945050505050565b600054610100900460ff1615808015610bbb5750600054600160ff909116105b80610bd55750303b158015610bd5575060005460ff166001145b610c61576040517f08c379a000000000000000000000000000000000000000000000000000000000815260206004820152602e60248201527f496e697469616c697a61626c653a20636f6e747261637420697320616c72656160448201527f647920696e697469616c697a656400000000000000000000000000000000000060648201526084016104d8565b600080547fffffffffffffffffffffffffffffffffffffffffffffffffffffffffffffff001660011790558015610cbf57600080547fffffffffffffffffffffffffffffffffffffffffffffffffffffffffffff00ff166101001790555b6000805473ffffffffffffffffffffffffffffffffffffffff808a1662010000027fffffffffffffffffffff0000000000000000000000000000000000000000ffff909216919091178255600180548983167fffffffffffffffffffffffff00000000000000000000000000000000000000009182161790915560078590556008805487841690831617905560408051608081018252898416818301908152606082018690528152815180830190925288841682526020828101958652808201839052905180516002805491871691861691909117905501516003555160048054919093169116179055516005558015610e1057600080547fffffffffffffffffffffffffffffffffffffffffffffffffffffffffffff00ff169055604051600181527f7f26b83ff96e1f2b6a682f133852f6798a09c465da95921460cefb38474024989060200160405180910390a15b50505050505050565b60035460055460009190610e2d8183611897565b9250505090565b6000806006541315610e47575060065490565b5061c35090565b6000806000600160009054906101000a900473ffffffffffffffffffffffffffffffffffffffff1673ffffffffffffffffffffffffffffffffffffffff1663a1e79f756040518163ffffffff1660e01b815260040160206040518083038186803b158015610ebb57600080fd5b505afa158015610ecf573d6000803e3d6000fd5b505050506040513d601f19601f82011682018060405250810190610ef3919061170d565b6003549091506000908290610f089087611897565b610f12919061180a565b6005549091506000908390610f279088611897565b610f31919061180a565b9196919550909350505050565b610f4b88888887866114b6565b610f5888888786856114b6565b5050505050505050565b6000610f6d82610a19565b90506000610f79610e34565b905080821315610fe5576040517f08c379a000000000000000000000000000000000000000000000000000000000815260206004820152601c60248201527f536c697070616765207468726573686f6c642062726561636865642e0000000060448201526064016104d8565b6000610ff084610ae9565b9050610ffd60028261180a565b611007908561194f565b93506000611014856108d2565b60038054919250869160009061102b908490611796565b909155506000905061103c82610ae9565b905061104960028261180a565b611053908361194f565b6002546040805160808101909152604480825292945061109a928a92309273ffffffffffffffffffffffffffffffffffffffff909116918b9190611a6760208301396114b6565b600580548391906000906110af90849061194f565b9091555050600054600480546040517ff4a01e5b00000000000000000000000000000000000000000000000000000000815273ffffffffffffffffffffffffffffffffffffffff8b811693820193909352908216602482015262010000909204169063f4a01e5b90604401602060405180830381600087803b15801561113457600080fd5b505af1158015611148573d6000803e3d6000fd5b505050506040513d601f19601f8201168201806040525081019061116c919061170d565b50600454604080516060810182528181526111ad9230928b9273ffffffffffffffffffffffffffffffffffffffff909216918791611b7760208301396114b6565b60085460028054600454610e1093309373ffffffffffffffffffffffffffffffffffffffff91821693821692909116906111e7908961180a565b6111f260028861180a565b6040518060800160405280604f8152602001611a18604f91396040518060800160405280604f8152602001611c4b604f9139610f3e565b600061123482610a91565b90506000611240610e34565b9050808213156112ac576040517f08c379a000000000000000000000000000000000000000000000000000000000815260206004820152601c60248201527f536c697070616765207468726573686f6c642062726561636865642e0000000060448201526064016104d8565b60006112b784610ae9565b90506112c460028261180a565b6112ce908561194f565b935060006112db85610b19565b6005805491925086916000906112f2908490611796565b909155506000905061130382610ae9565b905061131060028261180a565b61131a908361194f565b60045460408051608081019091526044808252929450611361928a92309273ffffffffffffffffffffffffffffffffffffffff909116918b9190611c9a60208301396114b6565b6003805483919060009061137690849061194f565b90915550506000546002546040517ff4a01e5b00000000000000000000000000000000000000000000000000000000815273ffffffffffffffffffffffffffffffffffffffff8a81166004830152918216602482015262010000909204169063f4a01e5b90604401602060405180830381600087803b1580156113f857600080fd5b505af115801561140c573d6000803e3d6000fd5b505050506040513d601f19601f82011682018060405250810190611430919061170d565b50600254604080516060810182528181526114719230928b9273ffffffffffffffffffffffffffffffffffffffff909216918791611aab60208301396114b6565b60085460028054600454610e1093309373ffffffffffffffffffffffffffffffffffffffff91821693821692909116906114ab908761180a565b6111f260028a61180a565b600080546040517f70089d5600000000000000000000000000000000000000000000000000000000815273ffffffffffffffffffffffffffffffffffffffff8681166004830152888116602483015287811660448301526064820186905262010000909204909116906370089d5690608401602060405180830381600087803b15801561154257600080fd5b505af1158015611556573d6000803e3d6000fd5b505050506040513d601f19601f8201168201806040525081019061157a919061170d565b90508160168214610e10576040517f08c379a00000000000000000000000000000000000000000000000000000000081526004016104d89190611725565b600080600080600060a086880312156115cf578081fd5b85356115da816119f2565b945060208601356115ea816119f2565b935060408601356115fa816119f2565b94979396509394606081013594506080013592915050565b600080600060608486031215611626578283fd5b8335611631816119f2565b92506020840135611641816119f2565b929592945050506040919091013590565b60008060408385031215611664578182fd5b823561166f816119f2565b946020939093013593505050565b60008060008060008060c08789031215611695578081fd5b86356116a0816119f2565b955060208701356116b0816119f2565b945060408701356116c0816119f2565b935060608701356116d0816119f2565b925060808701356116e0816119f2565b8092505060a087013590509295509295509295565b600060208284031215611706578081fd5b5035919050565b60006020828403121561171e578081fd5b5051919050565b6000602080835283518082850152825b8181101561175157858101830151858201604001528201611735565b818111156117625783604083870101525b50601f017fffffffffffffffffffffffffffffffffffffffffffffffffffffffffffffffe016929092016040019392505050565b6000808212827f7fffffffffffffffffffffffffffffffffffffffffffffffffffffffffffffff038413811516156117d0576117d06119c3565b827f8000000000000000000000000000000000000000000000000000000000000000038412811615611804576118046119c3565b50500190565b60008261183e577f4e487b710000000000000000000000000000000000000000000000000000000081526012600452602481fd5b7fffffffffffffffffffffffffffffffffffffffffffffffffffffffffffffffff83147f800000000000000000000000000000000000000000000000000000000000000083141615611892576118926119c3565b500590565b60007f7fffffffffffffffffffffffffffffffffffffffffffffffffffffffffffffff818413828413858304851182821616156118d6576118d66119c3565b7f800000000000000000000000000000000000000000000000000000000000000084871286820588128184161615611910576119106119c3565b85871292508782058712848416161561192b5761192b6119c3565b87850587128184161615611941576119416119c3565b505050929093029392505050565b6000808312837f800000000000000000000000000000000000000000000000000000000000000001831281151615611989576119896119c3565b837f7fffffffffffffffffffffffffffffffffffffffffffffffffffffffffffffff0183138116156119bd576119bd6119c3565b50500390565b7f4e487b7100000000000000000000000000000000000000000000000000000000600052601160045260246000fd5b73ffffffffffffffffffffffffffffffffffffffff81168114611a1457600080fd5b5056fe73776170466565546f6b656e413a205472616e7366657272696e672066656520617320746f6b656e204120746f20747265617375617279206661696c656420776974682073746174757320636f646573776170546f6b656e413a205472616e7366657272696e6720746f6b656e204120746f20636f6e7472616374206661696c656420776974682073746174757320636f646573776170546f6b656e423a205472616e7366657272696e6720746f6b656e204120746f2075736572206661696c656420776974682073746174757320636f6465416464206c69717569646974793a205472616e73666572696e6720746f6b656e204220746f20636f6e7472616374206661696c656420776974682073746174757320636f6465416464206c69717569646974793a205472616e73666572696e6720746f6b656e204120746f20636f6e7472616374206661696c656420776974682073746174757320636f646573776170546f6b656e413a205472616e7366657272696e6720746f6b656e204220746f2075736572206661696c656420776974682073746174757320636f646552656d6f7665206c69717569646974793a205472616e7366657272696e6720746f6b656e204120746f20636f6e7472616374206661696c656420776974682073746174757320636f646552656d6f7665206c69717569646974793a205472616e7366657272696e6720746f6b656e204220746f20636f6e7472616374206661696c656420776974682073746174757320636f646573776170466565546f6b656e423a205472616e7366657272696e672066656520617320746f6b656e204220746f20747265617375617279206661696c656420776974682073746174757320636f646573776170546f6b656e423a205472616e7366657272696e6720746f6b656e204220746f20636f6e7472616374206661696c656420776974682073746174757320636f6465a2646970667358221220ad14c656572bbf794cc2aa7130df533e9b057a66cfb8668401d5f47b5a041ab664736f6c63430008040033608060405234801561001057600080fd5b506118c4806100206000396000f3fe6080604052600436106100705760003560e01c80638c237c691161004e5780638c237c69146100e8578063a1e79f751461011d578063b4e2517914610132578063c4d66de81461015257600080fd5b80632a4d626014610075578063665df460146100a85780636869958f146100c8575b600080fd5b34801561008157600080fd5b506100956100903660046112cd565b610167565b6040519081526020015b60405180910390f35b3480156100b457600080fd5b506100956100c336600461129d565b610536565b3480156100d457600080fd5b506100956100e336600461127a565b61058f565b3480156100f457600080fd5b5060025460405173ffffffffffffffffffffffffffffffffffffffff909116815260200161009f565b34801561012957600080fd5b50610095610639565b34801561013e57600080fd5b5061009561014d366004611343565b6106e1565b61016561016036600461127a565b610ba0565b005b60008083136101d7576040517f08c379a000000000000000000000000000000000000000000000000000000000815260206004820152601b60248201527f506c656173652070726f7669646520746f6b656e20636f756e7473000000000060448201526064015b60405180910390fd5b6040517f6869958f00000000000000000000000000000000000000000000000000000000815273ffffffffffffffffffffffffffffffffffffffff8316600482015283903090636869958f9060240160206040518083038186803b15801561023e57600080fd5b505afa158015610252573d6000803e3d6000fd5b505050506040513d601f19601f8201168201806040525081019061027691906112b5565b136102dd576040517f08c379a000000000000000000000000000000000000000000000000000000000815260206004820152601c60248201527f5573657220446f6573206e6f742068617665206c7020616d6f756e740000000060448201526064016101ce565b600080546002546040517f70089d5600000000000000000000000000000000000000000000000000000000815273ffffffffffffffffffffffffffffffffffffffff9182166004820152858216602482015262010000909204166044820181905260648201869052906370089d5690608401602060405180830381600087803b15801561036957600080fd5b505af115801561037d573d6000803e3d6000fd5b505050506040513d601f19601f820116820180604052508101906103a191906112b5565b90506016811461040d576040517f08c379a000000000000000000000000000000000000000000000000000000000815260206004820152601960248201527f4c5020746f6b656e207472616e73666572206661696c65642e0000000000000060448201526064016101ce565b6000546002546040517f770c8f5100000000000000000000000000000000000000000000000000000000815273ffffffffffffffffffffffffffffffffffffffff91821660048201526024810187905262010000909204169063770c8f51906044016040805180830381600087803b15801561048857600080fd5b505af115801561049c573d6000803e3d6000fd5b505050506040513d601f19601f820116820180604052508101906104c09190611320565b50506016811461052c576040517f08c379a000000000000000000000000000000000000000000000000000000000815260206004820152601560248201527f4c5020746f6b656e206275726e206661696c65642e000000000000000000000060448201526064016101ce565b5060169392505050565b6000806002610546846001611651565b61055091906116c5565b90508291505b818112156105895790508060028161056e81866116c5565b6105789190611651565b61058291906116c5565b9050610556565b50919050565b6002546040517f70a0823100000000000000000000000000000000000000000000000000000000815273ffffffffffffffffffffffffffffffffffffffff838116600483015260009216906370a082319060240160206040518083038186803b1580156105fb57600080fd5b505afa15801561060f573d6000803e3d6000fd5b505050506040513d601f19601f8201168201806040525081019061063391906112b5565b92915050565b600254604080517f18160ddd000000000000000000000000000000000000000000000000000000008152905160009273ffffffffffffffffffffffffffffffffffffffff16916318160ddd916004808301926020929190829003018186803b1580156106a457600080fd5b505afa1580156106b8573d6000803e3d6000fd5b505050506040513d601f19601f820116820180604052508101906106dc91906112b5565b905090565b60003373ffffffffffffffffffffffffffffffffffffffff167fe4f4aace5288c74d7e5faabc390ceb3719dce95266b935043173ec59fd8db246604051610759906020808252600f908201527f616c6c6f744c50546f6b656e466f720000000000000000000000000000000000604082015260600190565b60405180910390a26000841380156107715750600083135b6107fc576040517f08c379a0000000000000000000000000000000000000000000000000000000008152602060048201526024808201527f506c656173652070726f7669646520706f73697469766520746f6b656e20636f60448201527f756e74730000000000000000000000000000000000000000000000000000000060648201526084016101ce565b600061080b6100c38587611752565b60025490915073ffffffffffffffffffffffffffffffffffffffff1661088d576040517f08c379a000000000000000000000000000000000000000000000000000000000815260206004820152601f60248201527f4c697175696469747920546f6b656e206e6f7420696e697469616c697a65640060448201526064016101ce565b6000546002546040517ff4a01e5b00000000000000000000000000000000000000000000000000000000815273ffffffffffffffffffffffffffffffffffffffff8681166004830152918216602482015262010000909204169063f4a01e5b90604401602060405180830381600087803b15801561090a57600080fd5b505af115801561091e573d6000803e3d6000fd5b505050506040513d601f19601f8201168201806040525081019061094291906112b5565b50600080546002546040517fc3bd3ff200000000000000000000000000000000000000000000000000000000815273ffffffffffffffffffffffffffffffffffffffff91821660048201526024810185905262010000909204169063c3bd3ff2906044016040805180830381600087803b1580156109bf57600080fd5b505af11580156109d3573d6000803e3d6000fd5b505050506040513d601f19601f820116820180604052508101906109f79190611320565b50905060168114610a64576040517f08c379a000000000000000000000000000000000000000000000000000000000815260206004820152601860248201527f4c5020746f6b656e206d696e74696e67206661696c65642e000000000000000060448201526064016101ce565b6000546002546040517f70089d5600000000000000000000000000000000000000000000000000000000815273ffffffffffffffffffffffffffffffffffffffff918216600482015262010000909204811660248301819052908616604483015260648201849052906370089d5690608401602060405180830381600087803b158015610af057600080fd5b505af1158015610b04573d6000803e3d6000fd5b505050506040513d601f19601f82011682018060405250810190610b2891906112b5565b905060168114610b94576040517f08c379a000000000000000000000000000000000000000000000000000000000815260206004820152601960248201527f4c5020746f6b656e207472616e73666572206661696c65642e0000000000000060448201526064016101ce565b50601695945050505050565b600054610100900460ff1615808015610bc05750600054600160ff909116105b80610bda5750303b158015610bda575060005460ff166001145b610c66576040517f08c379a000000000000000000000000000000000000000000000000000000000815260206004820152602e60248201527f496e697469616c697a61626c653a20636f6e747261637420697320616c72656160448201527f647920696e697469616c697a656400000000000000000000000000000000000060648201526084016101ce565b600080547fffffffffffffffffffffffffffffffffffffffffffffffffffffffffffffff001660011790558015610cc457600080547fffffffffffffffffffffffffffffffffffffffffffffffffffffffffffff00ff166101001790555b600080547fffffffffffffffffffff0000000000000000000000000000000000000000ffff166201000073ffffffffffffffffffffffffffffffffffffffff851602178155610d1281610dc0565b600280547fffffffffffffffffffffffff00000000000000000000000000000000000000001673ffffffffffffffffffffffffffffffffffffffff9290921691909117905550508015610dbc57600080547fffffffffffffffffffffffffffffffffffffffffffffffffffffffffffff00ff169055604051600181527f7f26b83ff96e1f2b6a682f133852f6798a09c465da95921460cefb38474024989060200160405180910390a15b5050565b6000806000610e256040518060a00160405280600015158152602001600073ffffffffffffffffffffffffffffffffffffffff1681526020016060815260200160608152602001600073ffffffffffffffffffffffffffffffffffffffff1681525090565b6000805462010000900473ffffffffffffffffffffffffffffffffffffffff1660808301526040805160018082528183019092526010949094179390602082015b610e6e611203565b815260200190600190039081610e6657905050905060405180604001604052808481526020018381525081600081518110610ed2577f4e487b7100000000000000000000000000000000000000000000000000000000600052603260045260246000fd5b6020026020010181905250610f236040518060600160405280600063ffffffff168152602001600073ffffffffffffffffffffffffffffffffffffffff168152602001600063ffffffff1681525090565b60005462010000900473ffffffffffffffffffffffffffffffffffffffff166020820152627a12006040820152610fb660408051610120810182526060808252602080830182905260008385018190528284018390526080840181905260a0840181905260c0840181905260e0840183905284519283018552808352908201819052928101929092529061010082015290565b604080518082018252600581527f4c6162343900000000000000000000000000000000000000000000000000000060208083019190915290835281518083018352600381527f4c3439000000000000000000000000000000000000000000000000000000000081830152908301526000805462010000900473ffffffffffffffffffffffffffffffffffffffff16838301819052610100840185905260e0840186905291519091829134907fdaf22a1d00000000000000000000000000000000000000000000000000000000906110969087908f906008906024016114f0565b604080517fffffffffffffffffffffffffffffffffffffffffffffffffffffffffffffffe08184030181529181526020820180517bffffffffffffffffffffffffffffffffffffffffffffffffffffffff167fffffffff0000000000000000000000000000000000000000000000000000000090941693909317909252905161111f91906114d4565b60006040518083038185875af1925050503d806000811461115c576040519150601f19603f3d011682016040523d82523d6000602084013e611161565b606091505b5091509150816111745760156000611188565b8080602001905181019061118891906112fc565b9099509750601689146111f7576040517f08c379a000000000000000000000000000000000000000000000000000000000815260206004820152601660248201527f546f6b656e206372656174696f6e206661696c65642e0000000000000000000060448201526064016101ce565b50505050505050915091565b6040518060400160405280600081526020016112756040518060a00160405280600015158152602001600073ffffffffffffffffffffffffffffffffffffffff1681526020016060815260200160608152602001600073ffffffffffffffffffffffffffffffffffffffff1681525090565b905290565b60006020828403121561128b578081fd5b813561129681611869565b9392505050565b6000602082840312156112ae578081fd5b5035919050565b6000602082840312156112c6578081fd5b5051919050565b600080604083850312156112df578081fd5b8235915060208301356112f181611869565b809150509250929050565b6000806040838503121561130e578182fd5b8251915060208301516112f181611869565b60008060408385031215611332578182fd5b505080516020909101519092909150565b600080600060608486031215611357578081fd5b8335925060208401359150604084013561137081611869565b809150509250925092565b600082825180855260208086019550808260051b840101818601855b8481101561147d577fffffffffffffffffffffffffffffffffffffffffffffffffffffffffffffffe086840301895281516040815185528582015191508086860152815115158186015285820151606073ffffffffffffffffffffffffffffffffffffffff8083168289015283850151935060a09250608083818a015261142160e08a018661148a565b928601518984037fffffffffffffffffffffffffffffffffffffffffffffffffffffffffffffffc001858b015292945061145b858461148a565b9501511660c09790970196909652505098840198925090830190600101611397565b5090979650505050505050565b600081518084526114a281602086016020860161180a565b601f017fffffffffffffffffffffffffffffffffffffffffffffffffffffffffffffffe0169290920160200192915050565b600082516114e681846020870161180a565b9190910192915050565b606081526000845161016080606085015261150f6101c085018361148a565b915060208701517fffffffffffffffffffffffffffffffffffffffffffffffffffffffffffffffa08086850301608087015261154b848361148a565b93506040890151915061157660a087018373ffffffffffffffffffffffffffffffffffffffff169052565b60608901519150808685030160c0870152611591848361148a565b9350608089015191506115a860e087018315159052565b60a089015191506101006115c38188018463ffffffff169052565b60c08a0151151561012088015260e08a0151878603830161014089015292506115ec858461137b565b9450808a01519250505061163582860182805163ffffffff908116835260208083015173ffffffffffffffffffffffffffffffffffffffff169084015260409182015116910152565b50506020830185905260ff841660408401529050949350505050565b6000808212827f7fffffffffffffffffffffffffffffffffffffffffffffffffffffffffffffff0384138115161561168b5761168b61183a565b827f80000000000000000000000000000000000000000000000000000000000000000384128116156116bf576116bf61183a565b50500190565b6000826116f9577f4e487b710000000000000000000000000000000000000000000000000000000081526012600452602481fd5b7fffffffffffffffffffffffffffffffffffffffffffffffffffffffffffffffff83147f80000000000000000000000000000000000000000000000000000000000000008314161561174d5761174d61183a565b500590565b60007f7fffffffffffffffffffffffffffffffffffffffffffffffffffffffffffffff818413828413858304851182821616156117915761179161183a565b7f8000000000000000000000000000000000000000000000000000000000000000848712868205881281841616156117cb576117cb61183a565b8587129250878205871284841616156117e6576117e661183a565b878505871281841616156117fc576117fc61183a565b505050929093029392505050565b60005b8381101561182557818101518382015260200161180d565b83811115611834576000848401525b50505050565b7f4e487b7100000000000000000000000000000000000000000000000000000000600052601160045260246000fd5b73ffffffffffffffffffffffffffffffffffffffff8116811461188b57600080fd5b5056fea26469706673582212208d1781c42ae88196cae72dbfa2e5efc190d8d11b7b2d506ff6ec9d82107ce73764736f6c63430008040033a2646970667358221220d02a91c85ebe0e966c469fc2b32f4b40a641ecf94f66481d828014cbe6ca256d64736f6c63430008040033",
  "linkReferences": {},
  "deployedLinkReferences": {}
}