{
  "_format": "hh-sol-artifact-1",
  "contractName": "FTDAO",
  "sourceName": "contracts/dao/FTDAO.sol",
  "abi": [
    {
      "inputs": [
        {
          "internalType": "string",
          "name": "message",
          "type": "string"
        }
      ],
      "name": "InvalidInput",
      "type": "error"
    },
    {
      "anonymous": false,
      "inputs": [
        {
          "indexed": false,
          "internalType": "string",
          "name": "previousDesc",
          "type": "string"
        },
        {
          "indexed": false,
          "internalType": "string",
          "name": "currentDesc",
          "type": "string"
        }
      ],
      "name": "DescriptionUpdated",
      "type": "event"
    },
    {
      "anonymous": false,
      "inputs": [
        {
          "components": [
            {
              "internalType": "address",
              "name": "tokenTransferLogic",
              "type": "address"
            },
            {
              "internalType": "address",
              "name": "textLogic",
              "type": "address"
            },
            {
              "internalType": "address",
              "name": "contractUpgradeLogic",
              "type": "address"
            },
            {
              "internalType": "address",
              "name": "createTokenLogic",
              "type": "address"
            }
          ],
          "indexed": false,
          "internalType": "struct ISharedDAOModel.Governor",
          "name": "oldImplementation",
          "type": "tuple"
        },
        {
          "components": [
            {
              "internalType": "address",
              "name": "tokenTransferLogic",
              "type": "address"
            },
            {
              "internalType": "address",
              "name": "textLogic",
              "type": "address"
            },
            {
              "internalType": "address",
              "name": "contractUpgradeLogic",
              "type": "address"
            },
            {
              "internalType": "address",
              "name": "createTokenLogic",
              "type": "address"
            }
          ],
          "indexed": false,
          "internalType": "struct ISharedDAOModel.Governor",
          "name": "newImplementation",
          "type": "tuple"
        },
        {
          "indexed": false,
          "internalType": "string",
          "name": "name",
          "type": "string"
        }
      ],
      "name": "GovernorLogicUpdated",
      "type": "event"
    },
    {
      "anonymous": false,
      "inputs": [
        {
          "indexed": false,
          "internalType": "uint8",
          "name": "version",
          "type": "uint8"
        }
      ],
      "name": "Initialized",
      "type": "event"
    },
    {
      "anonymous": false,
      "inputs": [
        {
          "indexed": false,
          "internalType": "string",
          "name": "previousLogoUrl",
          "type": "string"
        },
        {
          "indexed": false,
          "internalType": "string",
          "name": "currentLogoUrl",
          "type": "string"
        }
      ],
      "name": "LogoUrlUpdated",
      "type": "event"
    },
    {
      "anonymous": false,
      "inputs": [
        {
          "indexed": false,
          "internalType": "string",
          "name": "previousName",
          "type": "string"
        },
        {
          "indexed": false,
          "internalType": "string",
          "name": "currentName",
          "type": "string"
        }
      ],
      "name": "NameUpdated",
      "type": "event"
    },
    {
      "anonymous": false,
      "inputs": [
        {
          "indexed": true,
          "internalType": "address",
          "name": "previousOwner",
          "type": "address"
        },
        {
          "indexed": true,
          "internalType": "address",
          "name": "newOwner",
          "type": "address"
        }
      ],
      "name": "OwnershipTransferred",
      "type": "event"
    },
    {
      "anonymous": false,
      "inputs": [
        {
          "indexed": false,
          "internalType": "string",
          "name": "previousLink",
          "type": "string"
        },
        {
          "indexed": false,
          "internalType": "string",
          "name": "currentLink",
          "type": "string"
        }
      ],
      "name": "WebLinkUpdated",
      "type": "event"
    },
    {
      "inputs": [
        {
          "internalType": "address",
          "name": "_admin",
          "type": "address"
        },
        {
          "internalType": "string",
          "name": "_name",
          "type": "string"
        },
        {
          "internalType": "string",
          "name": "_logoUrl",
          "type": "string"
        },
        {
          "internalType": "string",
          "name": "_description",
          "type": "string"
        },
        {
          "internalType": "string[]",
          "name": "_webLinks",
          "type": "string[]"
        }
      ],
      "name": "__BaseDAO_init",
      "outputs": [],
      "stateMutability": "nonpayable",
      "type": "function"
    },
    {
      "inputs": [
        {
          "internalType": "string",
          "name": "_key",
          "type": "string"
        },
        {
          "internalType": "string",
          "name": "_value",
          "type": "string"
        }
      ],
      "name": "addWebLink",
      "outputs": [],
      "stateMutability": "nonpayable",
      "type": "function"
    },
    {
      "inputs": [
        {
          "internalType": "string",
          "name": "_title",
          "type": "string"
        },
        {
          "internalType": "string",
          "name": "_description",
          "type": "string"
        },
        {
          "internalType": "string",
          "name": "_linkToDiscussion",
          "type": "string"
        },
        {
          "internalType": "address payable",
          "name": "_proxyContract",
          "type": "address"
        },
        {
          "internalType": "address",
          "name": "_contractToUpgrade",
          "type": "address"
        }
      ],
      "name": "createContractUpgradeProposal",
      "outputs": [
        {
          "internalType": "uint256",
          "name": "",
          "type": "uint256"
        }
      ],
      "stateMutability": "nonpayable",
      "type": "function"
    },
    {
      "inputs": [
        {
          "internalType": "string",
          "name": "_title",
          "type": "string"
        },
        {
          "internalType": "string",
          "name": "_description",
          "type": "string"
        },
        {
          "internalType": "string",
          "name": "_linkToDiscussion",
          "type": "string"
        }
      ],
      "name": "createTextProposal",
      "outputs": [
        {
          "internalType": "uint256",
          "name": "",
          "type": "uint256"
        }
      ],
      "stateMutability": "nonpayable",
      "type": "function"
    },
    {
      "inputs": [
        {
          "internalType": "string",
          "name": "title",
          "type": "string"
        },
        {
          "internalType": "string",
          "name": "description",
          "type": "string"
        },
        {
          "internalType": "string",
          "name": "linkToDiscussion",
          "type": "string"
        },
        {
          "internalType": "address",
          "name": "treasurer",
          "type": "address"
        },
        {
          "internalType": "string",
          "name": "tokenName",
          "type": "string"
        },
        {
          "internalType": "string",
          "name": "tokenSymbol",
          "type": "string"
        }
      ],
      "name": "createTokenCreateProposal",
      "outputs": [
        {
          "internalType": "uint256",
          "name": "",
          "type": "uint256"
        }
      ],
      "stateMutability": "nonpayable",
      "type": "function"
    },
    {
      "inputs": [
        {
          "internalType": "string",
          "name": "_title",
          "type": "string"
        },
        {
          "internalType": "string",
          "name": "_description",
          "type": "string"
        },
        {
          "internalType": "string",
          "name": "_linkToDiscussion",
          "type": "string"
        },
        {
          "internalType": "address",
          "name": "_transferFromAccount",
          "type": "address"
        },
        {
          "internalType": "address",
          "name": "_transferToAccount",
          "type": "address"
        },
        {
          "internalType": "address",
          "name": "_tokenToTransfer",
          "type": "address"
        },
        {
          "internalType": "uint256",
          "name": "_transferTokenAmount",
          "type": "uint256"
        }
      ],
      "name": "createTokenTransferProposal",
      "outputs": [
        {
          "internalType": "uint256",
          "name": "",
          "type": "uint256"
        }
      ],
      "stateMutability": "nonpayable",
      "type": "function"
    },
    {
      "inputs": [],
      "name": "getContractUpgradeProposals",
      "outputs": [
        {
          "internalType": "uint256[]",
          "name": "",
          "type": "uint256[]"
        }
      ],
      "stateMutability": "view",
      "type": "function"
    },
    {
      "inputs": [],
      "name": "getDaoDetail",
      "outputs": [
        {
          "internalType": "string",
          "name": "_name",
          "type": "string"
        },
        {
          "internalType": "string",
          "name": "_logoUrl",
          "type": "string"
        },
        {
          "internalType": "string",
          "name": "_webLinks",
          "type": "string"
        },
        {
          "internalType": "string",
          "name": "_description",
          "type": "string"
        },
        {
          "internalType": "address",
          "name": "_admin",
          "type": "address"
        }
      ],
      "stateMutability": "view",
      "type": "function"
    },
    {
      "inputs": [],
      "name": "getGovernorContractAddresses",
      "outputs": [
        {
          "internalType": "address",
          "name": "",
          "type": "address"
        },
        {
          "internalType": "address",
          "name": "",
          "type": "address"
        },
        {
          "internalType": "address",
          "name": "",
          "type": "address"
        },
        {
          "internalType": "address",
          "name": "",
          "type": "address"
        }
      ],
      "stateMutability": "view",
      "type": "function"
    },
    {
      "inputs": [],
      "name": "getTextProposals",
      "outputs": [
        {
          "internalType": "uint256[]",
          "name": "",
          "type": "uint256[]"
        }
      ],
      "stateMutability": "view",
      "type": "function"
    },
    {
      "inputs": [],
      "name": "getTokenCreateProposals",
      "outputs": [
        {
          "internalType": "uint256[]",
          "name": "",
          "type": "uint256[]"
        }
      ],
      "stateMutability": "view",
      "type": "function"
    },
    {
      "inputs": [],
      "name": "getTokenTransferProposals",
      "outputs": [
        {
          "internalType": "uint256[]",
          "name": "",
          "type": "uint256[]"
        }
      ],
      "stateMutability": "view",
      "type": "function"
    },
    {
      "inputs": [
        {
          "components": [
            {
              "internalType": "address",
              "name": "admin",
              "type": "address"
            },
            {
              "internalType": "string",
              "name": "name",
              "type": "string"
            },
            {
              "internalType": "string",
              "name": "logoUrl",
              "type": "string"
            },
            {
              "internalType": "contract IERC20",
              "name": "tokenAddress",
              "type": "address"
            },
            {
              "internalType": "uint256",
              "name": "quorumThreshold",
              "type": "uint256"
            },
            {
              "internalType": "uint256",
              "name": "votingDelay",
              "type": "uint256"
            },
            {
              "internalType": "uint256",
              "name": "votingPeriod",
              "type": "uint256"
            },
            {
              "internalType": "bool",
              "name": "isPrivate",
              "type": "bool"
            },
            {
              "internalType": "string",
              "name": "description",
              "type": "string"
            },
            {
              "internalType": "string[]",
              "name": "webLinks",
              "type": "string[]"
            }
          ],
          "internalType": "struct ISharedDAOModel.CreateDAOInputs",
          "name": "inputs",
          "type": "tuple"
        },
        {
          "components": [
            {
              "internalType": "address",
              "name": "tokenTransferLogic",
              "type": "address"
            },
            {
              "internalType": "address",
              "name": "textLogic",
              "type": "address"
            },
            {
              "internalType": "address",
              "name": "contractUpgradeLogic",
              "type": "address"
            },
            {
              "internalType": "address",
              "name": "createTokenLogic",
              "type": "address"
            }
          ],
          "internalType": "struct ISharedDAOModel.Governor",
          "name": "governor",
          "type": "tuple"
        },
        {
          "components": [
            {
              "internalType": "contract IHederaService",
              "name": "hederaService",
              "type": "address"
            },
            {
              "internalType": "contract ITokenHolder",
              "name": "iTokenHolder",
              "type": "address"
            },
            {
              "internalType": "address",
              "name": "proxyAdmin",
              "type": "address"
            },
            {
              "internalType": "address",
              "name": "systemUser",
              "type": "address"
            }
          ],
          "internalType": "struct ISharedDAOModel.Common",
          "name": "common",
          "type": "tuple"
        }
      ],
      "name": "initialize",
      "outputs": [],
      "stateMutability": "nonpayable",
      "type": "function"
    },
    {
      "inputs": [
        {
          "internalType": "string[]",
          "name": "items",
          "type": "string[]"
        }
      ],
      "name": "isOddLengthArray",
      "outputs": [
        {
          "internalType": "bool",
          "name": "",
          "type": "bool"
        }
      ],
      "stateMutability": "pure",
      "type": "function"
    },
    {
      "inputs": [
        {
          "internalType": "string[]",
          "name": "items",
          "type": "string[]"
        },
        {
          "internalType": "string",
          "name": "separator",
          "type": "string"
        }
      ],
      "name": "join",
      "outputs": [
        {
          "internalType": "string",
          "name": "result",
          "type": "string"
        }
      ],
      "stateMutability": "pure",
      "type": "function"
    },
    {
      "inputs": [],
      "name": "owner",
      "outputs": [
        {
          "internalType": "address",
          "name": "",
          "type": "address"
        }
      ],
      "stateMutability": "view",
      "type": "function"
    },
    {
      "inputs": [],
      "name": "renounceOwnership",
      "outputs": [],
      "stateMutability": "nonpayable",
      "type": "function"
    },
    {
      "inputs": [
        {
          "internalType": "address",
          "name": "newOwner",
          "type": "address"
        }
      ],
      "name": "transferOwnership",
      "outputs": [],
      "stateMutability": "nonpayable",
      "type": "function"
    },
    {
      "inputs": [
        {
          "internalType": "string",
          "name": "_desc",
          "type": "string"
        }
      ],
      "name": "updateDescription",
      "outputs": [],
      "stateMutability": "nonpayable",
      "type": "function"
    },
    {
      "inputs": [
        {
          "internalType": "string",
          "name": "_logoUrl",
          "type": "string"
        }
      ],
      "name": "updateLogoURL",
      "outputs": [],
      "stateMutability": "nonpayable",
      "type": "function"
    },
    {
      "inputs": [
        {
          "internalType": "string",
          "name": "_name",
          "type": "string"
        }
      ],
      "name": "updateName",
      "outputs": [],
      "stateMutability": "nonpayable",
      "type": "function"
    },
    {
      "inputs": [
        {
          "internalType": "contract IHederaService",
          "name": "newHederaService",
          "type": "address"
        }
      ],
      "name": "upgradeHederaService",
      "outputs": [],
      "stateMutability": "nonpayable",
      "type": "function"
    }
  ],
  "bytecode": "0x608060405234801561001057600080fd5b50613b49806100206000396000f3fe60806040523480156200001157600080fd5b50600436106200017f5760003560e01c8063b16b32dd11620000d8578063d26d681f1162000097578063eadd6b38116200006e578063eadd6b38146200036f578063f2fde38b1462000379578063fca1c0b9146200039057600080fd5b8063d26d681f1462000319578063e6a898951462000330578063e735b48a146200035857600080fd5b8063b16b32dd14620002b3578063bac1037614620002bd578063c9dada3314620002d4578063cd02cb0f14620002eb578063ce2a9a46146200030257600080fd5b80637e8c5b8c11620001425780638da5cb5b11620001195780638da5cb5b14620002635780639a20e1fe146200027f578063acef78bc146200029657600080fd5b80637e8c5b8c146200022b5780637ec4e976146200023557806384da92a7146200024c57600080fd5b806352323f0114620001845780635860ef2014620001c95780635eff004514620001e257806366c5b9a61462000208578063715018a61462000221575b600080fd5b606b54606d54606c54606e54604080516001600160a01b0395861681529385166020850152918416918301919091529190911660608201526080015b60405180910390f35b620001d3620003b6565b604051620001c0919062001cee565b620001f9620001f336600462001e4a565b62000410565b604051908152602001620001c0565b6200021f6200021936600462001fb3565b620004e4565b005b6200021f620007da565b620001d3620007f2565b6200021f6200024636600462002082565b6200084a565b6200021f6200025d36600462002082565b620008a2565b6033546040516001600160a01b039091168152602001620001c0565b6200021f62000290366004620020c3565b62000943565b620002a062000b7e565b604051620001c095949392919062002182565b620001d362000e44565b620001f9620002ce366004620021f3565b62000e9c565b620001f9620002e5366004620022e6565b62000f73565b620001f9620002fc366004620023be565b6200104d565b6200021f62000313366004620024f6565b6200111b565b6200021f6200032a36600462002664565b62001350565b62000347620003413660046200268b565b6200154a565b6040519015158152602001620001c0565b6200021f6200036936600462002082565b62001564565b620001d36200160c565b6200021f6200038a36600462002664565b62001664565b620003a7620003a1366004620026c4565b620016e3565b604051620001c09190620026ff565b6060606f8054806020026020016040519081016040528092919081815260200182805480156200040657602002820191906000526020600020905b815481526020019060010190808311620003f1575b5050505050905090565b60006200041c62001782565b606c546040516364336add60e01b81526001600160a01b039091169060009082906364336add906200045d908b908b908b908b908b90339060040162002714565b6020604051808303816000875af11580156200047d573d6000803e3d6000fd5b505050506040513d601f19601f82011682018060405250810190620004a391906200277f565b607180546001810182556000919091527fa1fcd19bfe8c32a61095b6bfbb2664842857e148fcbb5188386c8cd40348d5b60181905598975050505050505050565b600054610100900460ff16620005555760405162461bcd60e51b815260206004820152602b60248201527f496e697469616c697a61626c653a20636f6e7472616374206973206e6f74206960448201526a6e697469616c697a696e6760a81b60648201526084015b60405180910390fd5b6001600160a01b038516620005ae5760405163d647364f60e01b815260206004820152601e60248201527f4261736544414f3a2061646d696e2061646472657373206973207a65726f000060448201526064016200054c565b8351600003620005fb5760405163d647364f60e01b81526020600482015260166024820152754261736544414f3a206e616d6520697320656d70747960501b60448201526064016200054c565b81516000036200064f5760405163d647364f60e01b815260206004820152601d60248201527f4261736544414f3a206465736372697074696f6e20697320656d70747900000060448201526064016200054c565b6200065a816200154a565b15620006bb5760405163d647364f60e01b815260206004820152602860248201527f4261736544414f3a206c696e6b73206d757374206265206576656e206c656e67604482015267746820617272617960c01b60648201526084016200054c565b606680546001600160a01b0319166001600160a01b0387161790556065620006e4858262002827565b506067620006f3848262002827565b50606862000702838262002827565b506066546200071a906001600160a01b0316620017de565b620007258162001830565b7ff19e969be7affb98a1d812094e0f24ecca36f1eabd6dd592c97020d47c64a00e606560405162000757919062002979565b60405180910390a17ff3672c8ff2861c97a6aebc9d331e5be084099f9979e991286ff2d8817bc24676606760405162000791919062002979565b60405180910390a17fe21432e1fe2b572d5803dd7316b7a854952317b42017f920a616ec70cdb8a5c16068604051620007cb919062002979565b60405180910390a15050505050565b620007e462001782565b620007f06000620017de565b565b60606071805480602002602001604051908101604052809291908181526020018280548015620004065760200282019190600052602060002090815481526020019060010190808311620003f1575050505050905090565b6200085462001782565b7ff3672c8ff2861c97a6aebc9d331e5be084099f9979e991286ff2d8817bc24676606782604051620008889291906200299c565b60405180910390a160676200089e828262002827565b5050565b620008ac62001782565b8051600003620008f95760405163d647364f60e01b81526020600482015260166024820152754261736544414f3a206e616d6520697320656d70747960501b60448201526064016200054c565b7ff19e969be7affb98a1d812094e0f24ecca36f1eabd6dd592c97020d47c64a00e6065826040516200092d9291906200299c565b60405180910390a160656200089e828262002827565b6200094d62001782565b600062000a4f6069805480602002602001604051908101604052809291908181526020016000905b8282101562000a2b578382906000526020600020018054620009979062002799565b80601f0160208091040260200160405190810160405280929190818152602001828054620009c59062002799565b801562000a165780601f10620009ea5761010080835404028352916020019162000a16565b820191906000526020600020905b815481529060010190602001808311620009f857829003601f168201915b50505050508152602001906001019062000975565b50505050604051806040016040528060018152602001600b60fa1b815250620016e3565b905062000a5d838362001ab2565b600062000b3b6069805480602002602001604051908101604052809291908181526020016000905b8282101562000a2b57838290600052602060002001805462000aa79062002799565b80601f016020809104026020016040519081016040528092919081815260200182805462000ad59062002799565b801562000b265780601f1062000afa5761010080835404028352916020019162000b26565b820191906000526020600020905b81548152906001019060200180831162000b0857829003601f168201915b50505050508152602001906001019062000a85565b90507f6d4399c79b2dee44cc5e581581020b8ae0051dc55c1c47b96095a4d15605130f828260405162000b70929190620029ce565b60405180910390a150505050565b60608060608060006065606762000c666069805480602002602001604051908101604052809291908181526020016000905b8282101562000a2b57838290600052602060002001805462000bd29062002799565b80601f016020809104026020016040519081016040528092919081815260200182805462000c009062002799565b801562000c515780601f1062000c255761010080835404028352916020019162000c51565b820191906000526020600020905b81548152906001019060200180831162000c3357829003601f168201915b50505050508152602001906001019062000bb0565b60665483546068916001600160a01b031690859062000c859062002799565b80601f016020809104026020016040519081016040528092919081815260200182805462000cb39062002799565b801562000d045780601f1062000cd85761010080835404028352916020019162000d04565b820191906000526020600020905b81548152906001019060200180831162000ce657829003601f168201915b5050505050945083805462000d199062002799565b80601f016020809104026020016040519081016040528092919081815260200182805462000d479062002799565b801562000d985780601f1062000d6c5761010080835404028352916020019162000d98565b820191906000526020600020905b81548152906001019060200180831162000d7a57829003601f168201915b5050505050935081805462000dad9062002799565b80601f016020809104026020016040519081016040528092919081815260200182805462000ddb9062002799565b801562000e2c5780601f1062000e005761010080835404028352916020019162000e2c565b820191906000526020600020905b81548152906001019060200180831162000e0e57829003601f168201915b50505050509150945094509450945094509091929394565b60606070805480602002602001604051908101604052809291908181526020018280548015620004065760200282019190600052602060002090815481526020019060010190808311620003f1575050505050905090565b600062000ea862001782565b606e5460405163f045f13960e01b81526001600160a01b0390911690600090829063f045f1399062000eeb908c908c908c908c908c908c903390600401620029e3565b6020604051808303816000875af115801562000f0b573d6000803e3d6000fd5b505050506040513d601f19601f8201168201806040525081019062000f3191906200277f565b607080546001810182556000919091527f8f6b23ffa15f0465e3176e15ca644cf24f86dc1312fe715484e3c4aead5eb78b018190559998505050505050505050565b600062000f7f62001782565b606b5460405163188588e560e21b81526001600160a01b0390911690600090829063621623949062000fc4908d908d908d908d908d908d908d90339060040162002a76565b6020604051808303816000875af115801562000fe4573d6000803e3d6000fd5b505050506040513d601f19601f820116820180604052508101906200100a91906200277f565b607280546001810182556000919091527fdffbd64cc7c1a7eb27984335d9416d51137a03d3fabec7141025c62663253fe1018190559a9950505050505050505050565b60006200105962001782565b606d54604051637427887960e11b81526001600160a01b0390911690600090829063e84f10f2906200109690899089908990339060040162002af5565b6020604051808303816000875af1158015620010b6573d6000803e3d6000fd5b505050506040513d601f19601f82011682018060405250810190620010dc91906200277f565b606f80546001810182556000919091527f39f2babe526038520877fc7c33d81accf578af4a06c5fa6b0d038cae36e12711018190559695505050505050565b600054610100900460ff16158080156200113c5750600054600160ff909116105b80620011585750303b15801562001158575060005460ff166001145b620011bd5760405162461bcd60e51b815260206004820152602e60248201527f496e697469616c697a61626c653a20636f6e747261637420697320616c72656160448201526d191e481a5b9a5d1a585b1a5e995960921b60648201526084016200054c565b6000805460ff191660011790558015620011e1576000805461ff0019166101001790555b6060820151606a80546001600160a01b0319166001600160a01b03909216919091179055825162001216908590849062001bda565b606b60006101000a8154816001600160a01b0302191690836001600160a01b031602179055506200124d8483856020015162001bda565b606d60006101000a8154816001600160a01b0302191690836001600160a01b03160217905550620012848483856040015162001bda565b606c60006101000a8154816001600160a01b0302191690836001600160a01b03160217905550620012bb8483856060015162001bda565b606e60006101000a8154816001600160a01b0302191690836001600160a01b0316021790555062001306846000015185602001518660400151876101000151886101200151620004e4565b80156200134a576000805461ff0019169055604051600181527f7f26b83ff96e1f2b6a682f133852f6798a09c465da95921460cefb38474024989060200162000b70565b50505050565b606a546001600160a01b03163314620013c35760405162461bcd60e51b815260206004820152602e60248201527f526f6c6542617365644163636573733a2063616c6c6572206973206e6f74207460448201526d34329039bcb9ba32b6903ab9b2b960911b60648201526084016200054c565b606b5460405163d26d681f60e01b81526001600160a01b0383811660048301529091169063d26d681f90602401600060405180830381600087803b1580156200140b57600080fd5b505af115801562001420573d6000803e3d6000fd5b5050606d5460405163d26d681f60e01b81526001600160a01b038581166004830152909116925063d26d681f9150602401600060405180830381600087803b1580156200146c57600080fd5b505af115801562001481573d6000803e3d6000fd5b5050606c5460405163d26d681f60e01b81526001600160a01b038581166004830152909116925063d26d681f9150602401600060405180830381600087803b158015620014cd57600080fd5b505af1158015620014e2573d6000803e3d6000fd5b5050606e5460405163d26d681f60e01b81526001600160a01b038581166004830152909116925063d26d681f9150602401600060405180830381600087803b1580156200152e57600080fd5b505af115801562001543573d6000803e3d6000fd5b5050505050565b6000600282516200155c919062002b4f565b151592915050565b6200156e62001782565b8051600003620015c25760405163d647364f60e01b815260206004820152601d60248201527f4261736544414f3a206465736372697074696f6e20697320656d70747900000060448201526064016200054c565b7fe21432e1fe2b572d5803dd7316b7a854952317b42017f920a616ec70cdb8a5c1606882604051620015f69291906200299c565b60405180910390a160686200089e828262002827565b60606072805480602002602001604051908101604052809291908181526020018280548015620004065760200282019190600052602060002090815481526020019060010190808311620003f1575050505050905090565b6200166e62001782565b6001600160a01b038116620016d55760405162461bcd60e51b815260206004820152602660248201527f4f776e61626c653a206e6577206f776e657220697320746865207a65726f206160448201526564647265737360d01b60648201526084016200054c565b620016e081620017de565b50565b815160609080156200177b578360008151811062001705576200170562002b72565b602002602001015191506000600190505b818110156200177957828486838151811062001736576200173662002b72565b6020026020010151604051602001620017529392919062002b88565b60405160208183030381529060405292508080620017709062002be7565b91505062001716565b505b5092915050565b6033546001600160a01b03163314620007f05760405162461bcd60e51b815260206004820181905260248201527f4f776e61626c653a2063616c6c6572206973206e6f7420746865206f776e657260448201526064016200054c565b603380546001600160a01b038381166001600160a01b0319831681179093556040519116919082907f8be0079c531659141344cd1fd0a4f28419497f9722a3daafe3b4186f6b6457e090600090a35050565b60006200190e6069805480602002602001604051908101604052809291908181526020016000905b8282101562000a2b5783829060005260206000200180546200187a9062002799565b80601f0160208091040260200160405190810160405280929190818152602001828054620018a89062002799565b8015620018f95780601f10620018cd57610100808354040283529160200191620018f9565b820191906000526020600020905b815481529060010190602001808311620018db57829003601f168201915b50505050508152602001906001019062001858565b905060005b82518110156200199157600083828151811062001934576200193462002b72565b6020026020010151905060008483600162001950919062002c03565b8151811062001963576200196362002b72565b6020026020010151905062001979828262001ab2565b5062001989905081600262002c03565b905062001913565b50600062001a706069805480602002602001604051908101604052809291908181526020016000905b8282101562000a2b578382906000526020600020018054620019dc9062002799565b80601f016020809104026020016040519081016040528092919081815260200182805462001a0a9062002799565b801562001a5b5780601f1062001a2f5761010080835404028352916020019162001a5b565b820191906000526020600020905b81548152906001019060200180831162001a3d57829003601f168201915b505050505081526020019060010190620019ba565b90507f6d4399c79b2dee44cc5e581581020b8ae0051dc55c1c47b96095a4d15605130f828260405162001aa5929190620029ce565b60405180910390a1505050565b600082511162001b055760405162461bcd60e51b815260206004820152601b60248201527f4261736544414f3a20696e76616c6964206b657920706173736564000000000060448201526064016200054c565b600081511162001b585760405162461bcd60e51b815260206004820152601d60248201527f4261736544414f3a20696e76616c69642076616c75652070617373656400000060448201526064016200054c565b606980546001810182556000919091527f7fb4302e8e91f9110a6554c2c0a24601252c2a42c2220ca988efcfe3999143080162001b96838262002827565b50606980546001810182556000919091527f7fb4302e8e91f9110a6554c2c0a24601252c2a42c2220ca988efcfe3999143080162001bd5828262002827565b505050565b60008062001bed83856040015162001c95565b606086015160a087015160c08801518751602089015160808b015160405163091696cb60e11b81526001600160a01b0396871660048201526024810195909552604485019390935290841660648401528316608483015260a482015291925082169063122d2d969060c401600060405180830381600087803b15801562001c7357600080fd5b505af115801562001c88573d6000803e3d6000fd5b5092979650505050505050565b6000606083838260405162001caa9062001ce0565b62001cb89392919062002c19565b604051809103906000f08015801562001cd5573d6000803e3d6000fd5b509150505b92915050565b610ecc8062002c4883390190565b6020808252825182820181905260009190848201906040850190845b8181101562001d285783518352928401929184019160010162001d0a565b50909695505050505050565b634e487b7160e01b600052604160045260246000fd5b604051610140810167ffffffffffffffff8111828210171562001d715762001d7162001d34565b60405290565b604051601f8201601f1916810167ffffffffffffffff8111828210171562001da35762001da362001d34565b604052919050565b600082601f83011262001dbd57600080fd5b813567ffffffffffffffff81111562001dda5762001dda62001d34565b62001def601f8201601f191660200162001d77565b81815284602083860101111562001e0557600080fd5b816020850160208301376000918101602001919091529392505050565b6001600160a01b0381168114620016e057600080fd5b803562001e458162001e22565b919050565b600080600080600060a0868803121562001e6357600080fd5b853567ffffffffffffffff8082111562001e7c57600080fd5b62001e8a89838a0162001dab565b9650602088013591508082111562001ea157600080fd5b62001eaf89838a0162001dab565b9550604088013591508082111562001ec657600080fd5b5062001ed58882890162001dab565b935050606086013562001ee88162001e22565b9150608086013562001efa8162001e22565b809150509295509295909350565b600082601f83011262001f1a57600080fd5b8135602067ffffffffffffffff8083111562001f3a5762001f3a62001d34565b8260051b62001f4b83820162001d77565b938452858101830193838101908886111562001f6657600080fd5b84880192505b8583101562001fa75782358481111562001f865760008081fd5b62001f968a87838c010162001dab565b835250918401919084019062001f6c565b98975050505050505050565b600080600080600060a0868803121562001fcc57600080fd5b853562001fd98162001e22565b9450602086013567ffffffffffffffff8082111562001ff757600080fd5b6200200589838a0162001dab565b955060408801359150808211156200201c57600080fd5b6200202a89838a0162001dab565b945060608801359150808211156200204157600080fd5b6200204f89838a0162001dab565b935060808801359150808211156200206657600080fd5b50620020758882890162001f08565b9150509295509295909350565b6000602082840312156200209557600080fd5b813567ffffffffffffffff811115620020ad57600080fd5b620020bb8482850162001dab565b949350505050565b60008060408385031215620020d757600080fd5b823567ffffffffffffffff80821115620020f057600080fd5b620020fe8683870162001dab565b935060208501359150808211156200211557600080fd5b50620021248582860162001dab565b9150509250929050565b60005b838110156200214b57818101518382015260200162002131565b50506000910152565b600081518084526200216e8160208601602086016200212e565b601f01601f19169290920160200192915050565b60a0815260006200219760a083018862002154565b8281036020840152620021ab818862002154565b90508281036040840152620021c1818762002154565b90508281036060840152620021d7818662002154565b9150506001600160a01b03831660808301529695505050505050565b60008060008060008060c087890312156200220d57600080fd5b863567ffffffffffffffff808211156200222657600080fd5b620022348a838b0162001dab565b975060208901359150808211156200224b57600080fd5b620022598a838b0162001dab565b965060408901359150808211156200227057600080fd5b6200227e8a838b0162001dab565b95506200228e60608a0162001e38565b94506080890135915080821115620022a557600080fd5b620022b38a838b0162001dab565b935060a0890135915080821115620022ca57600080fd5b50620022d989828a0162001dab565b9150509295509295509295565b600080600080600080600060e0888a0312156200230257600080fd5b873567ffffffffffffffff808211156200231b57600080fd5b620023298b838c0162001dab565b985060208a01359150808211156200234057600080fd5b6200234e8b838c0162001dab565b975060408a01359150808211156200236557600080fd5b50620023748a828b0162001dab565b9550506060880135620023878162001e22565b93506080880135620023998162001e22565b9250620023a960a0890162001e38565b915060c0880135905092959891949750929550565b600080600060608486031215620023d457600080fd5b833567ffffffffffffffff80821115620023ed57600080fd5b620023fb8783880162001dab565b945060208601359150808211156200241257600080fd5b620024208783880162001dab565b935060408601359150808211156200243757600080fd5b50620024468682870162001dab565b9150509250925092565b8035801515811462001e4557600080fd5b6000608082840312156200247457600080fd5b6040516080810181811067ffffffffffffffff821117156200249a576200249a62001d34565b6040529050808235620024ad8162001e22565b81526020830135620024bf8162001e22565b60208201526040830135620024d48162001e22565b60408201526060830135620024e98162001e22565b6060919091015292915050565b60008060006101208085870312156200250e57600080fd5b843567ffffffffffffffff808211156200252757600080fd5b9086019061014082890312156200253d57600080fd5b6200254762001d4a565b620025528362001e38565b81526020830135828111156200256757600080fd5b620025758a82860162001dab565b6020830152506040830135828111156200258e57600080fd5b6200259c8a82860162001dab565b604083015250620025b06060840162001e38565b60608201526080830135608082015260a083013560a082015260c083013560c0820152620025e160e0840162002450565b60e08201526101008084013583811115620025fb57600080fd5b620026098b82870162001dab565b82840152505083830135828111156200262157600080fd5b6200262f8a82860162001f08565b8583015250809650505050506200264a856020860162002461565b91506200265b8560a0860162002461565b90509250925092565b6000602082840312156200267757600080fd5b8135620026848162001e22565b9392505050565b6000602082840312156200269e57600080fd5b813567ffffffffffffffff811115620026b657600080fd5b620020bb8482850162001f08565b60008060408385031215620026d857600080fd5b823567ffffffffffffffff80821115620026f157600080fd5b620020fe8683870162001f08565b60208152600062002684602083018462002154565b60c0815260006200272960c083018962002154565b82810360208401526200273d818962002154565b9050828103604084015262002753818862002154565b6001600160a01b03968716606085015294861660808401525050921660a0909201919091529392505050565b6000602082840312156200279257600080fd5b5051919050565b600181811c90821680620027ae57607f821691505b602082108103620027cf57634e487b7160e01b600052602260045260246000fd5b50919050565b601f82111562001bd557600081815260208120601f850160051c81016020861015620027fe5750805b601f850160051c820191505b818110156200281f578281556001016200280a565b505050505050565b815167ffffffffffffffff81111562002844576200284462001d34565b6200285c8162002855845462002799565b84620027d5565b602080601f8311600181146200289457600084156200287b5750858301515b600019600386901b1c1916600185901b1785556200281f565b600085815260208120601f198616915b82811015620028c557888601518255948401946001909101908401620028a4565b5085821015620028e45787850151600019600388901b60f8161c191681555b5050505050600190811b01905550565b60008154620029038162002799565b8085526020600183811680156200292357600181146200293e576200296e565b60ff1985168884015283151560051b8801830195506200296e565b866000528260002060005b85811015620029665781548a820186015290830190840162002949565b890184019650505b505050505092915050565b6040815260006040820152606060208201526000620026846060830184620028f4565b604081526000620029b16040830185620028f4565b8281036020840152620029c5818562002154565b95945050505050565b604081526000620029b1604083018562002154565b60e081526000620029f860e083018a62002154565b828103602084015262002a0c818a62002154565b9050828103604084015262002a22818962002154565b90506001600160a01b038088166060850152838203608085015262002a48828862002154565b915083820360a085015262002a5e828762002154565b925080851660c0850152505098975050505050505050565b600061010080835262002a8c8184018c62002154565b9050828103602084015262002aa2818b62002154565b9050828103604084015262002ab8818a62002154565b6001600160a01b0398891660608501529688166080840152505092851660a084015260c083019190915290921660e0909201919091529392505050565b60808152600062002b0a608083018762002154565b828103602084015262002b1e818762002154565b9050828103604084015262002b34818662002154565b9150506001600160a01b038316606083015295945050505050565b60008262002b6d57634e487b7160e01b600052601260045260246000fd5b500690565b634e487b7160e01b600052603260045260246000fd5b6000845162002b9c8184602089016200212e565b84519083019062002bb28183602089016200212e565b845191019062002bc78183602088016200212e565b0195945050505050565b634e487b7160e01b600052601160045260246000fd5b60006001820162002bfc5762002bfc62002bd1565b5060010190565b8082018082111562001cda5762001cda62002bd1565b60006001600160a01b03808616835280851660208401525060606040830152620029c560608301846200215456fe608060405260405162000ecc38038062000ecc833981016040819052620000269162000497565b828162000036828260006200004d565b50620000449050826200008a565b505050620005ca565b6200005883620000e5565b600082511180620000665750805b1562000085576200008383836200012760201b620001691760201c565b505b505050565b7f7e644d79422f17c01e4894b5f4f588d331ebfa28653d42ae832dc59e38c9798f620000b562000156565b604080516001600160a01b03928316815291841660208301520160405180910390a1620000e2816200018f565b50565b620000f08162000244565b6040516001600160a01b038216907fbc7cd75a20ee27fd9adebab32041f755214dbc6bffa90cc0225b39da2e5c2d3b90600090a250565b60606200014f838360405180606001604052806027815260200162000ea560279139620002f8565b9392505050565b60006200018060008051602062000e8583398151915260001b6200037760201b620001951760201c565b546001600160a01b0316919050565b6001600160a01b038116620001fa5760405162461bcd60e51b815260206004820152602660248201527f455243313936373a206e65772061646d696e20697320746865207a65726f206160448201526564647265737360d01b60648201526084015b60405180910390fd5b806200022360008051602062000e8583398151915260001b6200037760201b620001951760201c565b80546001600160a01b0319166001600160a01b039290921691909117905550565b6200025a816200037a60201b620001981760201c565b620002be5760405162461bcd60e51b815260206004820152602d60248201527f455243313936373a206e657720696d706c656d656e746174696f6e206973206e60448201526c1bdd08184818dbdb9d1c9858dd609a1b6064820152608401620001f1565b80620002237f360894a13ba1a3210667c828492db98dca3e2076cc3735a920a3ca505d382bbc60001b6200037760201b620001951760201c565b6060600080856001600160a01b03168560405162000317919062000577565b600060405180830381855af49150503d806000811462000354576040519150601f19603f3d011682016040523d82523d6000602084013e62000359565b606091505b5090925090506200036d8683838762000389565b9695505050505050565b90565b6001600160a01b03163b151590565b60608315620003fd578251600003620003f5576001600160a01b0385163b620003f55760405162461bcd60e51b815260206004820152601d60248201527f416464726573733a2063616c6c20746f206e6f6e2d636f6e74726163740000006044820152606401620001f1565b508162000409565b62000409838362000411565b949350505050565b815115620004225781518083602001fd5b8060405162461bcd60e51b8152600401620001f1919062000595565b80516001600160a01b03811681146200045657600080fd5b919050565b634e487b7160e01b600052604160045260246000fd5b60005b838110156200048e57818101518382015260200162000474565b50506000910152565b600080600060608486031215620004ad57600080fd5b620004b8846200043e565b9250620004c8602085016200043e565b60408501519092506001600160401b0380821115620004e657600080fd5b818601915086601f830112620004fb57600080fd5b8151818111156200051057620005106200045b565b604051601f8201601f19908116603f011681019083821181831017156200053b576200053b6200045b565b816040528281528960208487010111156200055557600080fd5b6200056883602083016020880162000471565b80955050505050509250925092565b600082516200058b81846020870162000471565b9190910192915050565b6020815260008251806020840152620005b681604085016020870162000471565b601f01601f19169190910160400192915050565b6108ab80620005da6000396000f3fe60806040523661001357610011610017565b005b6100115b61001f6101a7565b6001600160a01b0316330361015f5760606001600160e01b0319600035166364d3180d60e11b810161005a576100536101da565b9150610157565b63587086bd60e11b6001600160e01b031982160161007a57610053610231565b63070d7c6960e41b6001600160e01b031982160161009a57610053610277565b621eb96f60e61b6001600160e01b03198216016100b9576100536102a8565b63a39f25e560e01b6001600160e01b03198216016100d9576100536102e8565b60405162461bcd60e51b815260206004820152604260248201527f5472616e73706172656e745570677261646561626c6550726f78793a2061646d60448201527f696e2063616e6e6f742066616c6c6261636b20746f2070726f78792074617267606482015261195d60f21b608482015260a4015b60405180910390fd5b815160208301f35b6101676102fc565b565b606061018e838360405180606001604052806027815260200161084f6027913961030c565b9392505050565b90565b6001600160a01b03163b151590565b60007fb53127684a568b3173ae13b9f8a6016e243e63b6e8ee1178d6a717850b5d61035b546001600160a01b0316919050565b60606101e4610384565b60006101f336600481846106a2565b81019061020091906106e8565b905061021d8160405180602001604052806000815250600061038f565b505060408051602081019091526000815290565b606060008061024336600481846106a2565b8101906102509190610719565b915091506102608282600161038f565b604051806020016040528060008152509250505090565b6060610281610384565b600061029036600481846106a2565b81019061029d91906106e8565b905061021d816103bb565b60606102b2610384565b60006102bc6101a7565b604080516001600160a01b03831660208201529192500160405160208183030381529060405291505090565b60606102f2610384565b60006102bc610412565b610167610307610412565b610421565b6060600080856001600160a01b03168560405161032991906107ff565b600060405180830381855af49150503d8060008114610364576040519150601f19603f3d011682016040523d82523d6000602084013e610369565b606091505b509150915061037a86838387610445565b9695505050505050565b341561016757600080fd5b610398836104c6565b6000825111806103a55750805b156103b6576103b48383610169565b505b505050565b7f7e644d79422f17c01e4894b5f4f588d331ebfa28653d42ae832dc59e38c9798f6103e46101a7565b604080516001600160a01b03928316815291841660208301520160405180910390a161040f81610506565b50565b600061041c6105bc565b905090565b3660008037600080366000845af43d6000803e808015610440573d6000f35b3d6000fd5b606083156104b45782516000036104ad576001600160a01b0385163b6104ad5760405162461bcd60e51b815260206004820152601d60248201527f416464726573733a2063616c6c20746f206e6f6e2d636f6e7472616374000000604482015260640161014e565b50816104be565b6104be83836105e4565b949350505050565b6104cf8161060e565b6040516001600160a01b038216907fbc7cd75a20ee27fd9adebab32041f755214dbc6bffa90cc0225b39da2e5c2d3b90600090a250565b6001600160a01b03811661056b5760405162461bcd60e51b815260206004820152602660248201527f455243313936373a206e65772061646d696e20697320746865207a65726f206160448201526564647265737360d01b606482015260840161014e565b807fb53127684a568b3173ae13b9f8a6016e243e63b6e8ee1178d6a717850b5d61035b805473ffffffffffffffffffffffffffffffffffffffff19166001600160a01b039290921691909117905550565b60007f360894a13ba1a3210667c828492db98dca3e2076cc3735a920a3ca505d382bbc6101cb565b8151156105f45781518083602001fd5b8060405162461bcd60e51b815260040161014e919061081b565b6001600160a01b0381163b61067b5760405162461bcd60e51b815260206004820152602d60248201527f455243313936373a206e657720696d706c656d656e746174696f6e206973206e60448201526c1bdd08184818dbdb9d1c9858dd609a1b606482015260840161014e565b807f360894a13ba1a3210667c828492db98dca3e2076cc3735a920a3ca505d382bbc61058e565b600080858511156106b257600080fd5b838611156106bf57600080fd5b5050820193919092039150565b80356001600160a01b03811681146106e357600080fd5b919050565b6000602082840312156106fa57600080fd5b61018e826106cc565b634e487b7160e01b600052604160045260246000fd5b6000806040838503121561072c57600080fd5b610735836106cc565b9150602083013567ffffffffffffffff8082111561075257600080fd5b818501915085601f83011261076657600080fd5b81358181111561077857610778610703565b604051601f8201601f19908116603f011681019083821181831017156107a0576107a0610703565b816040528281528860208487010111156107b957600080fd5b8260208601602083013760006020848301015280955050505050509250929050565b60005b838110156107f65781810151838201526020016107de565b50506000910152565b600082516108118184602087016107db565b9190910192915050565b602081526000825180602084015261083a8160408501602087016107db565b601f01601f1916919091016040019291505056fe416464726573733a206c6f772d6c6576656c2064656c65676174652063616c6c206661696c6564a2646970667358221220fb4626745ae8f971d2ea920e16c9476c772f050301b983b3f02aa85dd4e1c5c164736f6c63430008120033b53127684a568b3173ae13b9f8a6016e243e63b6e8ee1178d6a717850b5d6103416464726573733a206c6f772d6c6576656c2064656c65676174652063616c6c206661696c6564a264697066735822122076523e1816a386e19adf39098250fc7d26d541012eac7facace6632b36a659a764736f6c63430008120033",
  "linkReferences": {},
  "deployedLinkReferences": {}
}