{
  "_format": "hh-sol-artifact-1",
  "contractName": "FTDAO",
  "sourceName": "contracts/dao/FTDAO.sol",
  "abi": [
    {
      "inputs": [
        {
          "internalType": "string",
          "name": "message",
          "type": "string"
        }
      ],
      "name": "InvalidInput",
      "type": "error"
    },
    {
      "anonymous": false,
      "inputs": [
        {
          "components": [
            {
              "internalType": "string",
              "name": "name",
              "type": "string"
            },
            {
              "internalType": "address",
              "name": "admin",
              "type": "address"
            },
            {
              "internalType": "string",
              "name": "logoUrl",
              "type": "string"
            },
            {
              "internalType": "string",
              "name": "description",
              "type": "string"
            },
            {
              "internalType": "string[]",
              "name": "webLinks",
              "type": "string[]"
            }
          ],
          "indexed": false,
          "internalType": "struct BaseDAO.DAOInfo",
          "name": "daoInfo",
          "type": "tuple"
        }
      ],
      "name": "DAOInfoUpdated",
      "type": "event"
    },
    {
      "anonymous": false,
      "inputs": [
        {
          "components": [
            {
              "internalType": "address",
              "name": "tokenTransferLogic",
              "type": "address"
            },
            {
              "internalType": "address",
              "name": "textLogic",
              "type": "address"
            },
            {
              "internalType": "address",
              "name": "contractUpgradeLogic",
              "type": "address"
            },
            {
              "internalType": "address",
              "name": "createTokenLogic",
              "type": "address"
            }
          ],
          "indexed": false,
          "internalType": "struct ISharedDAOModel.Governor",
          "name": "oldImplementation",
          "type": "tuple"
        },
        {
          "components": [
            {
              "internalType": "address",
              "name": "tokenTransferLogic",
              "type": "address"
            },
            {
              "internalType": "address",
              "name": "textLogic",
              "type": "address"
            },
            {
              "internalType": "address",
              "name": "contractUpgradeLogic",
              "type": "address"
            },
            {
              "internalType": "address",
              "name": "createTokenLogic",
              "type": "address"
            }
          ],
          "indexed": false,
          "internalType": "struct ISharedDAOModel.Governor",
          "name": "newImplementation",
          "type": "tuple"
        },
        {
          "indexed": false,
          "internalType": "string",
          "name": "name",
          "type": "string"
        }
      ],
      "name": "GovernorLogicUpdated",
      "type": "event"
    },
    {
      "anonymous": false,
      "inputs": [
        {
          "indexed": false,
          "internalType": "uint8",
          "name": "version",
          "type": "uint8"
        }
      ],
      "name": "Initialized",
      "type": "event"
    },
    {
      "anonymous": false,
      "inputs": [
        {
          "indexed": true,
          "internalType": "address",
          "name": "previousOwner",
          "type": "address"
        },
        {
          "indexed": true,
          "internalType": "address",
          "name": "newOwner",
          "type": "address"
        }
      ],
      "name": "OwnershipTransferred",
      "type": "event"
    },
    {
      "inputs": [
        {
          "internalType": "address",
          "name": "_admin",
          "type": "address"
        },
        {
          "internalType": "string",
          "name": "_name",
          "type": "string"
        },
        {
          "internalType": "string",
          "name": "_logoUrl",
          "type": "string"
        },
        {
          "internalType": "string",
          "name": "_description",
          "type": "string"
        },
        {
          "internalType": "string[]",
          "name": "_webLinks",
          "type": "string[]"
        }
      ],
      "name": "__BaseDAO_init",
      "outputs": [],
      "stateMutability": "nonpayable",
      "type": "function"
    },
    {
      "inputs": [
        {
          "internalType": "string",
          "name": "_title",
          "type": "string"
        },
        {
          "internalType": "string",
          "name": "_description",
          "type": "string"
        },
        {
          "internalType": "string",
          "name": "_linkToDiscussion",
          "type": "string"
        },
        {
          "internalType": "address payable",
          "name": "_proxyContract",
          "type": "address"
        },
        {
          "internalType": "address",
          "name": "_contractToUpgrade",
          "type": "address"
        }
      ],
      "name": "createContractUpgradeProposal",
      "outputs": [
        {
          "internalType": "uint256",
          "name": "",
          "type": "uint256"
        }
      ],
      "stateMutability": "nonpayable",
      "type": "function"
    },
    {
      "inputs": [
        {
          "internalType": "string",
          "name": "_title",
          "type": "string"
        },
        {
          "internalType": "string",
          "name": "_description",
          "type": "string"
        },
        {
          "internalType": "string",
          "name": "_linkToDiscussion",
          "type": "string"
        }
      ],
      "name": "createTextProposal",
      "outputs": [
        {
          "internalType": "uint256",
          "name": "",
          "type": "uint256"
        }
      ],
      "stateMutability": "nonpayable",
      "type": "function"
    },
    {
      "inputs": [
        {
          "internalType": "string",
          "name": "title",
          "type": "string"
        },
        {
          "internalType": "string",
          "name": "description",
          "type": "string"
        },
        {
          "internalType": "string",
          "name": "linkToDiscussion",
          "type": "string"
        },
        {
          "internalType": "address",
          "name": "treasurer",
          "type": "address"
        },
        {
          "internalType": "string",
          "name": "tokenName",
          "type": "string"
        },
        {
          "internalType": "string",
          "name": "tokenSymbol",
          "type": "string"
        }
      ],
      "name": "createTokenCreateProposal",
      "outputs": [
        {
          "internalType": "uint256",
          "name": "",
          "type": "uint256"
        }
      ],
      "stateMutability": "nonpayable",
      "type": "function"
    },
    {
      "inputs": [
        {
          "internalType": "string",
          "name": "_title",
          "type": "string"
        },
        {
          "internalType": "string",
          "name": "_description",
          "type": "string"
        },
        {
          "internalType": "string",
          "name": "_linkToDiscussion",
          "type": "string"
        },
        {
          "internalType": "address",
          "name": "_transferFromAccount",
          "type": "address"
        },
        {
          "internalType": "address",
          "name": "_transferToAccount",
          "type": "address"
        },
        {
          "internalType": "address",
          "name": "_tokenToTransfer",
          "type": "address"
        },
        {
          "internalType": "uint256",
          "name": "_transferTokenAmount",
          "type": "uint256"
        }
      ],
      "name": "createTokenTransferProposal",
      "outputs": [
        {
          "internalType": "uint256",
          "name": "",
          "type": "uint256"
        }
      ],
      "stateMutability": "nonpayable",
      "type": "function"
    },
    {
      "inputs": [],
      "name": "getContractUpgradeProposals",
      "outputs": [
        {
          "internalType": "uint256[]",
          "name": "",
          "type": "uint256[]"
        }
      ],
      "stateMutability": "view",
      "type": "function"
    },
    {
      "inputs": [],
      "name": "getDaoInfo",
      "outputs": [
        {
          "components": [
            {
              "internalType": "string",
              "name": "name",
              "type": "string"
            },
            {
              "internalType": "address",
              "name": "admin",
              "type": "address"
            },
            {
              "internalType": "string",
              "name": "logoUrl",
              "type": "string"
            },
            {
              "internalType": "string",
              "name": "description",
              "type": "string"
            },
            {
              "internalType": "string[]",
              "name": "webLinks",
              "type": "string[]"
            }
          ],
          "internalType": "struct BaseDAO.DAOInfo",
          "name": "",
          "type": "tuple"
        }
      ],
      "stateMutability": "view",
      "type": "function"
    },
    {
      "inputs": [],
      "name": "getGovernorContractAddresses",
      "outputs": [
        {
          "internalType": "address",
          "name": "",
          "type": "address"
        },
        {
          "internalType": "address",
          "name": "",
          "type": "address"
        },
        {
          "internalType": "address",
          "name": "",
          "type": "address"
        },
        {
          "internalType": "address",
          "name": "",
          "type": "address"
        }
      ],
      "stateMutability": "view",
      "type": "function"
    },
    {
      "inputs": [],
      "name": "getTextProposals",
      "outputs": [
        {
          "internalType": "uint256[]",
          "name": "",
          "type": "uint256[]"
        }
      ],
      "stateMutability": "view",
      "type": "function"
    },
    {
      "inputs": [],
      "name": "getTokenCreateProposals",
      "outputs": [
        {
          "internalType": "uint256[]",
          "name": "",
          "type": "uint256[]"
        }
      ],
      "stateMutability": "view",
      "type": "function"
    },
    {
      "inputs": [],
      "name": "getTokenTransferProposals",
      "outputs": [
        {
          "internalType": "uint256[]",
          "name": "",
          "type": "uint256[]"
        }
      ],
      "stateMutability": "view",
      "type": "function"
    },
    {
      "inputs": [
        {
          "components": [
            {
              "internalType": "address",
              "name": "admin",
              "type": "address"
            },
            {
              "internalType": "string",
              "name": "name",
              "type": "string"
            },
            {
              "internalType": "string",
              "name": "logoUrl",
              "type": "string"
            },
            {
              "internalType": "contract IERC20",
              "name": "tokenAddress",
              "type": "address"
            },
            {
              "internalType": "uint256",
              "name": "quorumThreshold",
              "type": "uint256"
            },
            {
              "internalType": "uint256",
              "name": "votingDelay",
              "type": "uint256"
            },
            {
              "internalType": "uint256",
              "name": "votingPeriod",
              "type": "uint256"
            },
            {
              "internalType": "bool",
              "name": "isPrivate",
              "type": "bool"
            },
            {
              "internalType": "string",
              "name": "description",
              "type": "string"
            },
            {
              "internalType": "string[]",
              "name": "webLinks",
              "type": "string[]"
            }
          ],
          "internalType": "struct ISharedDAOModel.CreateDAOInputs",
          "name": "inputs",
          "type": "tuple"
        },
        {
          "components": [
            {
              "internalType": "address",
              "name": "tokenTransferLogic",
              "type": "address"
            },
            {
              "internalType": "address",
              "name": "textLogic",
              "type": "address"
            },
            {
              "internalType": "address",
              "name": "contractUpgradeLogic",
              "type": "address"
            },
            {
              "internalType": "address",
              "name": "createTokenLogic",
              "type": "address"
            }
          ],
          "internalType": "struct ISharedDAOModel.Governor",
          "name": "governor",
          "type": "tuple"
        },
        {
          "components": [
            {
              "internalType": "contract IHederaService",
              "name": "hederaService",
              "type": "address"
            },
            {
              "internalType": "contract ITokenHolder",
              "name": "iTokenHolder",
              "type": "address"
            },
            {
              "internalType": "address",
              "name": "proxyAdmin",
              "type": "address"
            },
            {
              "internalType": "address",
              "name": "systemUser",
              "type": "address"
            }
          ],
          "internalType": "struct ISharedDAOModel.Common",
          "name": "common",
          "type": "tuple"
        }
      ],
      "name": "initialize",
      "outputs": [],
      "stateMutability": "nonpayable",
      "type": "function"
    },
    {
      "inputs": [],
      "name": "owner",
      "outputs": [
        {
          "internalType": "address",
          "name": "",
          "type": "address"
        }
      ],
      "stateMutability": "view",
      "type": "function"
    },
    {
      "inputs": [],
      "name": "renounceOwnership",
      "outputs": [],
      "stateMutability": "nonpayable",
      "type": "function"
    },
    {
      "inputs": [
        {
          "internalType": "address",
          "name": "newOwner",
          "type": "address"
        }
      ],
      "name": "transferOwnership",
      "outputs": [],
      "stateMutability": "nonpayable",
      "type": "function"
    },
    {
      "inputs": [
        {
          "internalType": "string",
          "name": "_name",
          "type": "string"
        },
        {
          "internalType": "string",
          "name": "_logoUrl",
          "type": "string"
        },
        {
          "internalType": "string",
          "name": "_description",
          "type": "string"
        },
        {
          "internalType": "string[]",
          "name": "_webLinks",
          "type": "string[]"
        }
      ],
      "name": "updateDaoInfo",
      "outputs": [],
      "stateMutability": "nonpayable",
      "type": "function"
    },
    {
      "inputs": [
        {
          "internalType": "contract IHederaService",
          "name": "newHederaService",
          "type": "address"
        }
      ],
      "name": "upgradeHederaService",
      "outputs": [],
      "stateMutability": "nonpayable",
      "type": "function"
    }
  ],
  "bytecode": "0x608060405234801561001057600080fd5b506132a0806100206000396000f3fe60806040523480156200001157600080fd5b5060043610620000ee5760003560e01c806352323f0114620000f35780635860ef2014620001385780635eff0045146200015157806366c5b9a61462000177578063715018a614620001905780637e8c5b8c146200019a5780638da5cb5b14620001a45780639831586814620001bd578063b16b32dd14620001d4578063bac1037614620001de578063c9dada3314620001f5578063cd02cb0f146200020c578063ce2a9a461462000223578063d26d681f146200023a578063eadd6b381462000251578063f2fde38b146200025b578063fa382f871462000272575b600080fd5b606b54606d54606c54606e54604080516001600160a01b0395861681529385166020850152918416918301919091529190911660608201526080015b60405180910390f35b620001426200028b565b6040516200012f919062001494565b6200016862000162366004620015ed565b620002e5565b6040519081526020016200012f565b6200018e6200018836600462001754565b620003b9565b005b6200018e620004be565b62000142620004d6565b620001ae6200052e565b6040516200012f919062001822565b6200018e620001ce36600462001836565b6200053d565b620001426200055b565b62000168620001ef366004620018ef565b620005b3565b6200016862000206366004620019e1565b6200068a565b620001686200021d36600462001ab8565b62000764565b6200018e6200023436600462001bee565b62000832565b6200018e6200024b36600462001d5b565b62000a6a565b6200014262000c71565b6200018e6200026c36600462001d5b565b62000cc9565b6200027c62000d48565b6040516200012f919062001dca565b6060606f805480602002602001604051908101604052809291908181526020018280548015620002db57602002820191906000526020600020905b815481526020019060010190808311620002c6575b5050505050905090565b6000620002f16200105e565b606c546040516364336add60e01b81526001600160a01b039091169060009082906364336add9062000332908b908b908b908b908b90339060040162001ea1565b6020604051808303816000875af115801562000352573d6000803e3d6000fd5b505050506040513d601f19601f8201168201806040525081019062000378919062001f0c565b607180546001810182556000919091527fa1fcd19bfe8c32a61095b6bfbb2664842857e148fcbb5188386c8cd40348d5b60181905598975050505050505050565b600054610100900460ff166200042a5760405162461bcd60e51b815260206004820152602b60248201527f496e697469616c697a61626c653a20636f6e7472616374206973206e6f74206960448201526a6e697469616c697a696e6760a81b60648201526084015b60405180910390fd5b6001600160a01b038516620004835760405163d647364f60e01b815260206004820152601e60248201527f4261736544414f3a2061646d696e2061646472657373206973207a65726f0000604482015260640162000421565b606680546001600160a01b0319166001600160a01b038716179055620004a985620010c1565b620004b78484848462001113565b5050505050565b620004c86200105e565b620004d46000620010c1565b565b60606071805480602002602001604051908101604052809291908181526020018280548015620002db5760200282019190600052602060002090815481526020019060010190808311620002c6575050505050905090565b6033546001600160a01b031690565b620005476200105e565b620005558484848462001113565b50505050565b60606070805480602002602001604051908101604052809291908181526020018280548015620002db5760200282019190600052602060002090815481526020019060010190808311620002c6575050505050905090565b6000620005bf6200105e565b606e5460405163f045f13960e01b81526001600160a01b0390911690600090829063f045f1399062000602908c908c908c908c908c908c90339060040162001f26565b6020604051808303816000875af115801562000622573d6000803e3d6000fd5b505050506040513d601f19601f8201168201806040525081019062000648919062001f0c565b607080546001810182556000919091527f8f6b23ffa15f0465e3176e15ca644cf24f86dc1312fe715484e3c4aead5eb78b018190559998505050505050505050565b6000620006966200105e565b606b5460405163188588e560e21b81526001600160a01b03909116906000908290636216239490620006db908d908d908d908d908d908d908d90339060040162001fba565b6020604051808303816000875af1158015620006fb573d6000803e3d6000fd5b505050506040513d601f19601f8201168201806040525081019062000721919062001f0c565b607280546001810182556000919091527fdffbd64cc7c1a7eb27984335d9416d51137a03d3fabec7141025c62663253fe1018190559a9950505050505050505050565b6000620007706200105e565b606d54604051637427887960e11b81526001600160a01b0390911690600090829063e84f10f290620007ad90899089908990339060040162002039565b6020604051808303816000875af1158015620007cd573d6000803e3d6000fd5b505050506040513d601f19601f82011682018060405250810190620007f3919062001f0c565b606f80546001810182556000919091527f39f2babe526038520877fc7c33d81accf578af4a06c5fa6b0d038cae36e12711018190559695505050505050565b600054610100900460ff1615808015620008535750600054600160ff909116105b806200086f5750303b1580156200086f575060005460ff166001145b620008d45760405162461bcd60e51b815260206004820152602e60248201527f496e697469616c697a61626c653a20636f6e747261637420697320616c72656160448201526d191e481a5b9a5d1a585b1a5e995960921b606482015260840162000421565b6000805460ff191660011790558015620008f8576000805461ff0019166101001790555b6060820151606a80546001600160a01b0319166001600160a01b0390921691909117905582516200092d9085908490620012b4565b606b60006101000a8154816001600160a01b0302191690836001600160a01b031602179055506200096484838560200151620012b4565b606d60006101000a8154816001600160a01b0302191690836001600160a01b031602179055506200099b84838560400151620012b4565b606c60006101000a8154816001600160a01b0302191690836001600160a01b03160217905550620009d284838560600151620012b4565b606e60006101000a8154816001600160a01b0302191690836001600160a01b0316021790555062000a1d846000015185602001518660400151876101000151886101200151620003b9565b801562000555576000805461ff0019169055604051600181527f7f26b83ff96e1f2b6a682f133852f6798a09c465da95921460cefb3847402498906020015b60405180910390a150505050565b606a546001600160a01b0316331462000add5760405162461bcd60e51b815260206004820152602e60248201527f526f6c6542617365644163636573733a2063616c6c6572206973206e6f74207460448201526d34329039bcb9ba32b6903ab9b2b960911b606482015260840162000421565b606b5460405163d26d681f60e01b81526001600160a01b039091169063d26d681f9062000b0f90849060040162001822565b600060405180830381600087803b15801562000b2a57600080fd5b505af115801562000b3f573d6000803e3d6000fd5b5050606d5460405163d26d681f60e01b81526001600160a01b03909116925063d26d681f915062000b7590849060040162001822565b600060405180830381600087803b15801562000b9057600080fd5b505af115801562000ba5573d6000803e3d6000fd5b5050606c5460405163d26d681f60e01b81526001600160a01b03909116925063d26d681f915062000bdb90849060040162001822565b600060405180830381600087803b15801562000bf657600080fd5b505af115801562000c0b573d6000803e3d6000fd5b5050606e5460405163d26d681f60e01b81526001600160a01b03909116925063d26d681f915062000c4190849060040162001822565b600060405180830381600087803b15801562000c5c57600080fd5b505af1158015620004b7573d6000803e3d6000fd5b60606072805480602002602001604051908101604052809291908181526020018280548015620002db5760200282019190600052602060002090815481526020019060010190808311620002c6575050505050905090565b62000cd36200105e565b6001600160a01b03811662000d3a5760405162461bcd60e51b815260206004820152602660248201527f4f776e61626c653a206e6577206f776e657220697320746865207a65726f206160448201526564647265737360d01b606482015260840162000421565b62000d4581620010c1565b50565b62000d846040518060a001604052806060815260200160006001600160a01b031681526020016060815260200160608152602001606081525090565b60656040518060a001604052908160008201805462000da39062002092565b80601f016020809104026020016040519081016040528092919081815260200182805462000dd19062002092565b801562000e225780601f1062000df65761010080835404028352916020019162000e22565b820191906000526020600020905b81548152906001019060200180831162000e0457829003601f168201915b505050918352505060018201546001600160a01b0316602082015260028201805460409092019162000e549062002092565b80601f016020809104026020016040519081016040528092919081815260200182805462000e829062002092565b801562000ed35780601f1062000ea75761010080835404028352916020019162000ed3565b820191906000526020600020905b81548152906001019060200180831162000eb557829003601f168201915b5050505050815260200160038201805462000eee9062002092565b80601f016020809104026020016040519081016040528092919081815260200182805462000f1c9062002092565b801562000f6d5780601f1062000f415761010080835404028352916020019162000f6d565b820191906000526020600020905b81548152906001019060200180831162000f4f57829003601f168201915b5050505050815260200160048201805480602002602001604051908101604052809291908181526020016000905b828210156200105157838290600052602060002001805462000fbd9062002092565b80601f016020809104026020016040519081016040528092919081815260200182805462000feb9062002092565b80156200103c5780601f1062001010576101008083540402835291602001916200103c565b820191906000526020600020905b8154815290600101906020018083116200101e57829003601f168201915b50505050508152602001906001019062000f9b565b5050505081525050905090565b33620010696200052e565b6001600160a01b031614620004d45760405162461bcd60e51b815260206004820181905260248201527f4f776e61626c653a2063616c6c6572206973206e6f7420746865206f776e6572604482015260640162000421565b603380546001600160a01b038381166001600160a01b0319831681179093556040519116919082907f8be0079c531659141344cd1fd0a4f28419497f9722a3daafe3b4186f6b6457e090600090a35050565b8351600003620011605760405163d647364f60e01b81526020600482015260166024820152754261736544414f3a206e616d6520697320656d70747960501b604482015260640162000421565b60656200116e858262002121565b508151600003620011c35760405163d647364f60e01b815260206004820152601d60248201527f4261736544414f3a206465736372697074696f6e20697320656d707479000000604482015260640162000421565b6068620011d1838262002121565b5060005b81518110156200125c57818181518110620011f457620011f4620021ed565b602002602001015151600003620012475760405163d647364f60e01b81526020600482015260156024820152744261736544414f3a20696e76616c6964206c696e6b60581b604482015260640162000421565b80620012538162002203565b915050620011d5565b50805162001272906069906020840190620013b8565b50606762001281848262002121565b507fa6f9f25f4c5fed6464b219efa94b247fa993d06e7594aa81dd392bcbbd360061606560405162000a5c9190620022b0565b600080620012c78385604001516200136f565b606086015160a087015160c08801518751602089015160808b015160405163091696cb60e11b81526001600160a01b0396871660048201526024810195909552604485019390935290841660648401528316608483015260a482015291925082169063122d2d969060c401600060405180830381600087803b1580156200134d57600080fd5b505af115801562001362573d6000803e3d6000fd5b5092979650505050505050565b60006060838382604051620013849062001415565b620013929392919062002381565b604051809103906000f080158015620013af573d6000803e3d6000fd5b50949350505050565b82805482825590600052602060002090810192821562001403579160200282015b82811115620014035782518290620013f2908262002121565b5091602001919060010190620013d9565b506200141192915062001423565b5090565b610eb280620023b983390190565b80821115620014115760006200143a828262001444565b5060010162001423565b508054620014529062002092565b6000825580601f1062001463575050565b601f01602090049060005260206000209081019062000d4591905b808211156200141157600081556001016200147e565b6020808252825182820181905260009190848201906040850190845b81811015620014ce57835183529284019291840191600101620014b0565b50909695505050505050565b634e487b7160e01b600052604160045260246000fd5b60405161014081016001600160401b0381118282101715620015165762001516620014da565b60405290565b604051601f8201601f191681016001600160401b0381118282101715620015475762001547620014da565b604052919050565b600082601f8301126200156157600080fd5b81356001600160401b038111156200157d576200157d620014da565b62001592601f8201601f19166020016200151c565b818152846020838601011115620015a857600080fd5b816020850160208301376000918101602001919091529392505050565b6001600160a01b038116811462000d4557600080fd5b8035620015e881620015c5565b919050565b600080600080600060a086880312156200160657600080fd5b85356001600160401b03808211156200161e57600080fd5b6200162c89838a016200154f565b965060208801359150808211156200164357600080fd5b6200165189838a016200154f565b955060408801359150808211156200166857600080fd5b5062001677888289016200154f565b93505060608601356200168a81620015c5565b915060808601356200169c81620015c5565b809150509295509295909350565b600082601f830112620016bc57600080fd5b813560206001600160401b0380831115620016db57620016db620014da565b8260051b620016ec8382016200151c565b93845285810183019383810190888611156200170757600080fd5b84880192505b858310156200174857823584811115620017275760008081fd5b620017378a87838c01016200154f565b83525091840191908401906200170d565b98975050505050505050565b600080600080600060a086880312156200176d57600080fd5b85356200177a81620015c5565b945060208601356001600160401b03808211156200179757600080fd5b620017a589838a016200154f565b95506040880135915080821115620017bc57600080fd5b620017ca89838a016200154f565b94506060880135915080821115620017e157600080fd5b620017ef89838a016200154f565b935060808801359150808211156200180657600080fd5b506200181588828901620016aa565b9150509295509295909350565b6001600160a01b0391909116815260200190565b600080600080608085870312156200184d57600080fd5b84356001600160401b03808211156200186557600080fd5b62001873888389016200154f565b955060208701359150808211156200188a57600080fd5b62001898888389016200154f565b94506040870135915080821115620018af57600080fd5b620018bd888389016200154f565b93506060870135915080821115620018d457600080fd5b50620018e387828801620016aa565b91505092959194509250565b60008060008060008060c087890312156200190957600080fd5b86356001600160401b03808211156200192157600080fd5b6200192f8a838b016200154f565b975060208901359150808211156200194657600080fd5b620019548a838b016200154f565b965060408901359150808211156200196b57600080fd5b620019798a838b016200154f565b95506200198960608a01620015db565b94506080890135915080821115620019a057600080fd5b620019ae8a838b016200154f565b935060a0890135915080821115620019c557600080fd5b50620019d489828a016200154f565b9150509295509295509295565b600080600080600080600060e0888a031215620019fd57600080fd5b87356001600160401b038082111562001a1557600080fd5b62001a238b838c016200154f565b985060208a013591508082111562001a3a57600080fd5b62001a488b838c016200154f565b975060408a013591508082111562001a5f57600080fd5b5062001a6e8a828b016200154f565b955050606088013562001a8181620015c5565b9350608088013562001a9381620015c5565b925062001aa360a08901620015db565b915060c0880135905092959891949750929550565b60008060006060848603121562001ace57600080fd5b83356001600160401b038082111562001ae657600080fd5b62001af4878388016200154f565b9450602086013591508082111562001b0b57600080fd5b62001b19878388016200154f565b9350604086013591508082111562001b3057600080fd5b5062001b3f868287016200154f565b9150509250925092565b80358015158114620015e857600080fd5b60006080828403121562001b6d57600080fd5b604051608081016001600160401b038111828210171562001b925762001b92620014da565b604052905080823562001ba581620015c5565b8152602083013562001bb781620015c5565b6020820152604083013562001bcc81620015c5565b6040820152606083013562001be181620015c5565b6060919091015292915050565b600080600061012080858703121562001c0657600080fd5b84356001600160401b038082111562001c1e57600080fd5b90860190610140828903121562001c3457600080fd5b62001c3e620014f0565b62001c4983620015db565b815260208301358281111562001c5e57600080fd5b62001c6c8a8286016200154f565b60208301525060408301358281111562001c8557600080fd5b62001c938a8286016200154f565b60408301525062001ca760608401620015db565b60608201526080830135608082015260a083013560a082015260c083013560c082015262001cd860e0840162001b49565b60e0820152610100808401358381111562001cf257600080fd5b62001d008b8287016200154f565b828401525050838301358281111562001d1857600080fd5b62001d268a828601620016aa565b85830152508096505050505062001d41856020860162001b5a565b915062001d528560a0860162001b5a565b90509250925092565b60006020828403121562001d6e57600080fd5b813562001d7b81620015c5565b9392505050565b6000815180845260005b8181101562001daa5760208185018101518683018201520162001d8c565b506000602082860101526020601f19601f83011685010191505092915050565b60006020808352835160a08285015262001de860c085018262001d82565b905060018060a01b03828601511660408501526040850151601f198086840301606087015262001e19838362001d82565b9250606087015191508086840301608087015262001e38838362001d82565b6080880151878203830160a089015280518083529194508501925084840190600581901b8501860160005b8281101562001e93578487830301845262001e8082875162001d82565b9588019593880193915060010162001e63565b509998505050505050505050565b60c08152600062001eb660c083018962001d82565b828103602084015262001eca818962001d82565b9050828103604084015262001ee0818862001d82565b6001600160a01b03968716606085015294861660808401525050921660a0909201919091529392505050565b60006020828403121562001f1f57600080fd5b5051919050565b60e08152600062001f3b60e083018a62001d82565b828103602084015262001f4f818a62001d82565b9050828103604084015262001f65818962001d82565b6001600160a01b038881166060860152848203608086015290915062001f8c828862001d82565b915083820360a085015262001fa2828762001d82565b925080851660c0850152505098975050505050505050565b600061010080835262001fd08184018c62001d82565b9050828103602084015262001fe6818b62001d82565b9050828103604084015262001ffc818a62001d82565b6001600160a01b0398891660608501529688166080840152505092851660a084015260c083019190915290921660e0909201919091529392505050565b6080815260006200204e608083018762001d82565b828103602084015262002062818762001d82565b9050828103604084015262002078818662001d82565b91505060018060a01b038316606083015295945050505050565b600181811c90821680620020a757607f821691505b602082108103620020c857634e487b7160e01b600052602260045260246000fd5b50919050565b601f8211156200211c57600081815260208120601f850160051c81016020861015620020f75750805b601f850160051c820191505b81811015620021185782815560010162002103565b5050505b505050565b81516001600160401b038111156200213d576200213d620014da565b62002155816200214e845462002092565b84620020ce565b602080601f8311600181146200218d5760008415620021745750858301515b600019600386901b1c1916600185901b17855562002118565b600085815260208120601f198616915b82811015620021be578886015182559484019460019091019084016200219d565b5085821015620021dd5787850151600019600388901b60f8161c191681555b5050505050600190811b01905550565b634e487b7160e01b600052603260045260246000fd5b6000600182016200222457634e487b7160e01b600052601160045260246000fd5b5060010190565b600081546200223a8162002092565b8085526020600183811680156200225a57600181146200227557620022a5565b60ff1985168884015283151560051b880183019550620022a5565b866000528260002060005b858110156200229d5781548a820186015290830190840162002280565b890184019650505b505050505092915050565b6000602080835260a081840152620022cc60c08401856200222b565b6001858101546001600160a01b03166040860152601f1985830381016060870152620022fc83600289016200222b565b9250808684030160808701526200231783600389016200222b565b868103820160a0880152600488018054808352600091825286822092955086860191600582901b87018801905b828110156200237257858883030184526200236082866200222b565b94870194938901939150860162002344565b509a9950505050505050505050565b6001600160a01b03848116825283166020820152606060408201819052600090620023af9083018462001d82565b9594505050505056fe608060405260405162000eb238038062000eb2833981016040819052620000269162000497565b828162000036828260006200004d565b50620000449050826200008a565b505050620005ca565b6200005883620000e5565b600082511180620000665750805b1562000085576200008383836200012760201b620001691760201c565b505b505050565b7f7e644d79422f17c01e4894b5f4f588d331ebfa28653d42ae832dc59e38c9798f620000b562000156565b604080516001600160a01b03928316815291841660208301520160405180910390a1620000e2816200018f565b50565b620000f08162000244565b6040516001600160a01b038216907fbc7cd75a20ee27fd9adebab32041f755214dbc6bffa90cc0225b39da2e5c2d3b90600090a250565b60606200014f838360405180606001604052806027815260200162000e8b60279139620002f8565b9392505050565b60006200018060008051602062000e6b83398151915260001b6200037760201b620001951760201c565b546001600160a01b0316919050565b6001600160a01b038116620001fa5760405162461bcd60e51b815260206004820152602660248201527f455243313936373a206e65772061646d696e20697320746865207a65726f206160448201526564647265737360d01b60648201526084015b60405180910390fd5b806200022360008051602062000e6b83398151915260001b6200037760201b620001951760201c565b80546001600160a01b0319166001600160a01b039290921691909117905550565b6200025a816200037a60201b620001981760201c565b620002be5760405162461bcd60e51b815260206004820152602d60248201527f455243313936373a206e657720696d706c656d656e746174696f6e206973206e60448201526c1bdd08184818dbdb9d1c9858dd609a1b6064820152608401620001f1565b80620002237f360894a13ba1a3210667c828492db98dca3e2076cc3735a920a3ca505d382bbc60001b6200037760201b620001951760201c565b6060600080856001600160a01b03168560405162000317919062000577565b600060405180830381855af49150503d806000811462000354576040519150601f19603f3d011682016040523d82523d6000602084013e62000359565b606091505b5090925090506200036d8683838762000389565b9695505050505050565b90565b6001600160a01b03163b151590565b60608315620003fd578251600003620003f557620003a7856200037a565b620003f55760405162461bcd60e51b815260206004820152601d60248201527f416464726573733a2063616c6c20746f206e6f6e2d636f6e74726163740000006044820152606401620001f1565b508162000409565b62000409838362000411565b949350505050565b815115620004225781518083602001fd5b8060405162461bcd60e51b8152600401620001f1919062000595565b80516001600160a01b03811681146200045657600080fd5b919050565b634e487b7160e01b600052604160045260246000fd5b60005b838110156200048e57818101518382015260200162000474565b50506000910152565b600080600060608486031215620004ad57600080fd5b620004b8846200043e565b9250620004c8602085016200043e565b60408501519092506001600160401b0380821115620004e657600080fd5b818601915086601f830112620004fb57600080fd5b8151818111156200051057620005106200045b565b604051601f8201601f19908116603f011681019083821181831017156200053b576200053b6200045b565b816040528281528960208487010111156200055557600080fd5b6200056883602083016020880162000471565b80955050505050509250925092565b600082516200058b81846020870162000471565b9190910192915050565b6020815260008251806020840152620005b681604085016020870162000471565b601f01601f19169190910160400192915050565b61089180620005da6000396000f3fe60806040523661001357610011610017565b005b6100115b61001f6101a7565b6001600160a01b0316330361015f5760606001600160e01b0319600035166364d3180d60e11b810161005a576100536101c8565b9150610157565b63587086bd60e11b6001600160e01b031982160161007a5761005361021f565b63070d7c6960e41b6001600160e01b031982160161009a57610053610265565b621eb96f60e61b6001600160e01b03198216016100b957610053610296565b63a39f25e560e01b6001600160e01b03198216016100d9576100536102d6565b60405162461bcd60e51b815260206004820152604260248201527f5472616e73706172656e745570677261646561626c6550726f78793a2061646d60448201527f696e2063616e6e6f742066616c6c6261636b20746f2070726f78792074617267606482015261195d60f21b608482015260a4015b60405180910390fd5b815160208301f35b6101676102ea565b565b606061018e8383604051806060016040528060278152602001610835602791396102fa565b9392505050565b90565b6001600160a01b03163b151590565b60006000805160206107f58339815191525b546001600160a01b0316919050565b60606101d2610372565b60006101e13660048184610649565b8101906101ee919061068f565b905061020b8160405180602001604052806000815250600061037d565b505060408051602081019091526000815290565b60606000806102313660048184610649565b81019061023e91906106c0565b9150915061024e8282600161037d565b604051806020016040528060008152509250505090565b606061026f610372565b600061027e3660048184610649565b81019061028b919061068f565b905061020b816103a9565b60606102a0610372565b60006102aa6101a7565b604080516001600160a01b03831660208201529192500160405160208183030381529060405291505090565b60606102e0610372565b60006102aa610400565b6101676102f5610400565b61040f565b6060600080856001600160a01b03168560405161031791906107a5565b600060405180830381855af49150503d8060008114610352576040519150601f19603f3d011682016040523d82523d6000602084013e610357565b606091505b509150915061036886838387610433565b9695505050505050565b341561016757600080fd5b610386836104b2565b6000825111806103935750805b156103a4576103a28383610169565b505b505050565b7f7e644d79422f17c01e4894b5f4f588d331ebfa28653d42ae832dc59e38c9798f6103d26101a7565b604080516001600160a01b03928316815291841660208301520160405180910390a16103fd816104f2565b50565b600061040a610589565b905090565b3660008037600080366000845af43d6000803e80801561042e573d6000f35b3d6000fd5b606083156104a05782516000036104995761044d85610198565b6104995760405162461bcd60e51b815260206004820152601d60248201527f416464726573733a2063616c6c20746f206e6f6e2d636f6e7472616374000000604482015260640161014e565b50816104aa565b6104aa838361059f565b949350505050565b6104bb816105c9565b6040516001600160a01b038216907fbc7cd75a20ee27fd9adebab32041f755214dbc6bffa90cc0225b39da2e5c2d3b90600090a250565b6001600160a01b0381166105575760405162461bcd60e51b815260206004820152602660248201527f455243313936373a206e65772061646d696e20697320746865207a65726f206160448201526564647265737360d01b606482015260840161014e565b806000805160206107f58339815191525b80546001600160a01b0319166001600160a01b039290921691909117905550565b60006000805160206108158339815191526101b9565b8151156105af5781518083602001fd5b8060405162461bcd60e51b815260040161014e91906107c1565b6105d281610198565b6106345760405162461bcd60e51b815260206004820152602d60248201527f455243313936373a206e657720696d706c656d656e746174696f6e206973206e60448201526c1bdd08184818dbdb9d1c9858dd609a1b606482015260840161014e565b80600080516020610815833981519152610568565b6000808585111561065957600080fd5b8386111561066657600080fd5b5050820193919092039150565b80356001600160a01b038116811461068a57600080fd5b919050565b6000602082840312156106a157600080fd5b61018e82610673565b634e487b7160e01b600052604160045260246000fd5b600080604083850312156106d357600080fd5b6106dc83610673565b915060208301356001600160401b03808211156106f857600080fd5b818501915085601f83011261070c57600080fd5b81358181111561071e5761071e6106aa565b604051601f8201601f19908116603f01168101908382118183101715610746576107466106aa565b8160405282815288602084870101111561075f57600080fd5b8260208601602083013760006020848301015280955050505050509250929050565b60005b8381101561079c578181015183820152602001610784565b50506000910152565b600082516107b7818460208701610781565b9190910192915050565b60208152600082518060208401526107e0816040850160208701610781565b601f01601f1916919091016040019291505056feb53127684a568b3173ae13b9f8a6016e243e63b6e8ee1178d6a717850b5d6103360894a13ba1a3210667c828492db98dca3e2076cc3735a920a3ca505d382bbc416464726573733a206c6f772d6c6576656c2064656c65676174652063616c6c206661696c6564a2646970667358221220620b02c16977e4bc46dc8e126676654738ae0c6dcb3ade55e68906b6b7d90c2164736f6c63430008120033b53127684a568b3173ae13b9f8a6016e243e63b6e8ee1178d6a717850b5d6103416464726573733a206c6f772d6c6576656c2064656c65676174652063616c6c206661696c6564a26469706673582212208b4095acf2a392c71ea9c134ddf3ea070a2315e596c3577e25a73d131b0308a364736f6c63430008120033",
  "linkReferences": {},
  "deployedLinkReferences": {}
}