{
  "_format": "hh-sol-artifact-1",
  "contractName": "GODHolder",
  "sourceName": "contracts/governance/GODHolder.sol",
  "abi": [
    {
      "anonymous": false,
      "inputs": [
        {
          "indexed": false,
          "internalType": "uint8",
          "name": "version",
          "type": "uint8"
        }
      ],
      "name": "Initialized",
      "type": "event"
    },
    {
      "anonymous": false,
      "inputs": [
        {
          "indexed": true,
          "internalType": "address",
          "name": "previousOwner",
          "type": "address"
        },
        {
          "indexed": true,
          "internalType": "address",
          "name": "newOwner",
          "type": "address"
        }
      ],
      "name": "OwnershipTransferred",
      "type": "event"
    },
    {
      "inputs": [
        {
          "internalType": "address",
          "name": "voter",
          "type": "address"
        },
        {
          "internalType": "uint256",
          "name": "proposalId",
          "type": "uint256"
        }
      ],
      "name": "addProposalForVoter",
      "outputs": [
        {
          "internalType": "int32",
          "name": "",
          "type": "int32"
        }
      ],
      "stateMutability": "nonpayable",
      "type": "function"
    },
    {
      "inputs": [
        {
          "internalType": "address",
          "name": "voter",
          "type": "address"
        }
      ],
      "name": "balanceOfVoter",
      "outputs": [
        {
          "internalType": "uint256",
          "name": "",
          "type": "uint256"
        }
      ],
      "stateMutability": "view",
      "type": "function"
    },
    {
      "inputs": [],
      "name": "canUserClaimTokens",
      "outputs": [
        {
          "internalType": "bool",
          "name": "",
          "type": "bool"
        }
      ],
      "stateMutability": "view",
      "type": "function"
    },
    {
      "inputs": [],
      "name": "getActiveProposalsForUser",
      "outputs": [
        {
          "internalType": "uint256[]",
          "name": "",
          "type": "uint256[]"
        }
      ],
      "stateMutability": "view",
      "type": "function"
    },
    {
      "inputs": [],
      "name": "getHederaServiceVersion",
      "outputs": [
        {
          "internalType": "contract IHederaService",
          "name": "",
          "type": "address"
        }
      ],
      "stateMutability": "view",
      "type": "function"
    },
    {
      "inputs": [],
      "name": "getToken",
      "outputs": [
        {
          "internalType": "address",
          "name": "",
          "type": "address"
        }
      ],
      "stateMutability": "view",
      "type": "function"
    },
    {
      "inputs": [
        {
          "internalType": "address",
          "name": "user",
          "type": "address"
        },
        {
          "internalType": "uint256",
          "name": "_amount",
          "type": "uint256"
        }
      ],
      "name": "grabTokensFromUser",
      "outputs": [],
      "stateMutability": "nonpayable",
      "type": "function"
    },
    {
      "inputs": [
        {
          "internalType": "contract IHederaService",
          "name": "_hederaService",
          "type": "address"
        },
        {
          "internalType": "address",
          "name": "token",
          "type": "address"
        }
      ],
      "name": "initialize",
      "outputs": [],
      "stateMutability": "nonpayable",
      "type": "function"
    },
    {
      "inputs": [],
      "name": "isNFTType",
      "outputs": [
        {
          "internalType": "bool",
          "name": "",
          "type": "bool"
        }
      ],
      "stateMutability": "pure",
      "type": "function"
    },
    {
      "inputs": [],
      "name": "owner",
      "outputs": [
        {
          "internalType": "address",
          "name": "",
          "type": "address"
        }
      ],
      "stateMutability": "view",
      "type": "function"
    },
    {
      "inputs": [
        {
          "internalType": "address[]",
          "name": "voters",
          "type": "address[]"
        },
        {
          "internalType": "uint256",
          "name": "proposalId",
          "type": "uint256"
        }
      ],
      "name": "removeActiveProposals",
      "outputs": [
        {
          "internalType": "int32",
          "name": "",
          "type": "int32"
        }
      ],
      "stateMutability": "nonpayable",
      "type": "function"
    },
    {
      "inputs": [],
      "name": "renounceOwnership",
      "outputs": [],
      "stateMutability": "nonpayable",
      "type": "function"
    },
    {
      "inputs": [
        {
          "internalType": "uint256",
          "name": "_amount",
          "type": "uint256"
        }
      ],
      "name": "revertTokensForVoter",
      "outputs": [
        {
          "internalType": "int32",
          "name": "",
          "type": "int32"
        }
      ],
      "stateMutability": "nonpayable",
      "type": "function"
    },
    {
      "inputs": [
        {
          "internalType": "address",
          "name": "newOwner",
          "type": "address"
        }
      ],
      "name": "transferOwnership",
      "outputs": [],
      "stateMutability": "nonpayable",
      "type": "function"
    },
    {
      "inputs": [
        {
          "internalType": "contract IHederaService",
          "name": "newHederaService",
          "type": "address"
        }
      ],
      "name": "upgradeHederaService",
      "outputs": [],
      "stateMutability": "nonpayable",
      "type": "function"
    }
  ],
  "bytecode": "0x608060405234801561001057600080fd5b50611205806100206000396000f3fe608060405234801561001057600080fd5b50600436106100f55760003560e01c8063822d852d11610097578063d819f7f611610066578063d819f7f614610213578063dc43b9e614610226578063e07ca47a1461022d578063f2fde38b1461024057600080fd5b8063822d852d146101c25780638da5cb5b146101d7578063cdb7f9d5146101e8578063d26d681f1461020057600080fd5b8063485cc955116100d3578063485cc9551461018157806358ccb91c146101965780636dab6f75146101a9578063715018a6146101ba57600080fd5b8063121d351b146100fa57806321df0da7146101365780632f81b68b1461015b575b600080fd5b610123610108366004610ed9565b6001600160a01b031660009081526068602052604090205490565b6040519081526020015b60405180910390f35b6067546001600160a01b03165b6040516001600160a01b03909116815260200161012d565b61016e610169366004610ef6565b610253565b60405160039190910b815260200161012d565b61019461018f366004610f0f565b610481565b005b6101946101a4366004610f48565b6105d1565b6066546001600160a01b0316610143565b6101946107ed565b6101ca610801565b60405161012d9190610f74565b6033546001600160a01b0316610143565b6101f0610862565b604051901515815260200161012d565b61019461020e366004610ed9565b610892565b61016e610221366004610f48565b6108bc565b60006101f0565b61016e61023b366004610fce565b6108f0565b61019461024e366004610ed9565b61095c565b60008082116102c45760405162461bcd60e51b815260206004820152603260248201527f474f44486f6c6465723a20756e6c6f636b20616d6f756e74206d7573742062656044820152711030903837b9b4ba34bb3290373ab6b132b960711b60648201526084015b60405180910390fd5b33600090815260656020526040902054156103215760405162461bcd60e51b815260206004820152601b60248201527f5573657227732050726f706f73616c732061726520616374697665000000000060448201526064016102bb565b33600090815260686020526040902054828110156103a75760405162461bcd60e51b815260206004820152603e60248201527f474f44486f6c6465723a20756e6c6f636b20616d6f756e742063616e2774206260448201527f65206772656174657220746f20746865206c6f636b656420616d6f756e74000060648201526084016102bb565b33600090815260686020526040812080548592906103c69084906110af565b90915550503360009081526068602052604081205490036103f257336000908152606860205260408120555b60675460009061040d906001600160a01b03163033876109d5565b9050601681146104775760405162461bcd60e51b815260206004820152602f60248201527f474f44486f6c6465723a20746f6b656e207472616e73666572206661696c656460448201526e10333937b69031b7b73a3930b1ba1760891b60648201526084016102bb565b5060169392505050565b600054610100900460ff16158080156104a15750600054600160ff909116105b806104bb5750303b1580156104bb575060005460ff166001145b61051e5760405162461bcd60e51b815260206004820152602e60248201527f496e697469616c697a61626c653a20636f6e747261637420697320616c72656160448201526d191e481a5b9a5d1a585b1a5e995960921b60648201526084016102bb565b6000805460ff191660011790558015610541576000805461ff0019166101001790555b610549610af9565b606680546001600160a01b038086166001600160a01b031992831681179093556067805491861691909216811790915561058591903090610b28565b5080156105cc576000805461ff0019169055604051600181527f7f26b83ff96e1f2b6a682f133852f6798a09c465da95921460cefb38474024989060200160405180910390a15b505050565b6000811161063a5760405162461bcd60e51b815260206004820152603060248201527f474f44486f6c6465723a206c6f636b20616d6f756e74206d757374206265206160448201526f103837b9b4ba34bb3290373ab6b132b960811b60648201526084016102bb565b606754600090610653906001600160a01b031684610bca565b9050600081116106c15760405162461bcd60e51b815260206004820152603360248201527f474f44486f6c6465723a2062616c616e636520616d6f756e74206d7573742062604482015272329030903837b9b4ba34bb3290373ab6b132b960691b60648201526084016102bb565b808211156107375760405162461bcd60e51b815260206004820152603d60248201527f474f44486f6c6465723a206c6f636b20616d6f756e742063616e27742062652060448201527f6772656174657220746f207468652062616c616e636520616d6f756e7400000060648201526084016102bb565b6001600160a01b0383166000908152606860205260408120805484929061075f9084906110c2565b909155505060675460009061077f906001600160a01b03168530866109d5565b9050601681146107e75760405162461bcd60e51b815260206004820152602d60248201527f474f44486f6c6465723a20746f6b656e207472616e73666572206661696c656460448201526c103a379031b7b73a3930b1ba1760991b60648201526084016102bb565b50505050565b6107f5610c38565b6107ff6000610c92565b565b3360009081526065602090815260409182902080548351818402810184019094528084526060939283018282801561085857602002820191906000526020600020905b815481526020019060010190808311610844575b5050505050905090565b3360009081526065602052604081205415801561088d57503360009081526068602052604090205415155b905090565b61089a610c38565b606680546001600160a01b0319166001600160a01b0392909216919091179055565b6001600160a01b03821660009081526065602090815260408220805460018101825590835291200181905560165b92915050565b6000805b835181101561047757600060656000868481518110610915576109156110d5565b60200260200101516001600160a01b03166001600160a01b0316815260200190815260200160002090506109498482610ce4565b5080610954816110eb565b9150506108f4565b610964610c38565b6001600160a01b0381166109c95760405162461bcd60e51b815260206004820152602660248201527f4f776e61626c653a206e6577206f776e657220697320746865207a65726f206160448201526564647265737360d01b60648201526084016102bb565b6109d281610c92565b50565b600080306001600160a01b03861614610a68576040516323b872dd60e01b81526001600160a01b0386811660048301528581166024830152604482018590528716906323b872dd906064016020604051808303816000875af1158015610a3f573d6000803e3d6000fd5b505050506040513d601f19601f82011682018060405250810190610a639190611104565b610adb565b60405163a9059cbb60e01b81526001600160a01b0385811660048301526024820185905287169063a9059cbb906044016020604051808303816000875af1158015610ab7573d6000803e3d6000fd5b505050506040513d601f19601f82011682018060405250810190610adb9190611104565b905080610ae9576015610aec565b60165b60030b9695505050505050565b600054610100900460ff16610b205760405162461bcd60e51b81526004016102bb90611126565b6107ff610db3565b60006001600160a01b0383163b15610b4c57610b45848484610de3565b9050610bc3565b60405163f4a01e5b60e01b81526001600160a01b038481166004830152838116602483015285169063f4a01e5b906044016020604051808303816000875af1158015610b9c573d6000803e3d6000fd5b505050506040513d601f19601f82011682018060405250810190610bc09190611171565b90505b9392505050565b6040516370a0823160e01b81526001600160a01b038281166004830152600091908416906370a0823190602401602060405180830381865afa158015610c14573d6000803e3d6000fd5b505050506040513d601f19601f82011682018060405250810190610bc39190611171565b6033546001600160a01b031633146107ff5760405162461bcd60e51b815260206004820181905260248201527f4f776e61626c653a2063616c6c6572206973206e6f7420746865206f776e657260448201526064016102bb565b603380546001600160a01b038381166001600160a01b0319831681179093556040519116919082907f8be0079c531659141344cd1fd0a4f28419497f9722a3daafe3b4186f6b6457e090600090a35050565b805460005b8254811015610d2f5783838281548110610d0557610d056110d5565b906000526020600020015403610d1d57809150610d2f565b80610d27816110eb565b915050610ce9565b5081548110610d3d57505050565b81548290610d4d906001906110af565b81548110610d5d57610d5d6110d5565b9060005260206000200154828281548110610d7a57610d7a6110d5565b906000526020600020018190555081805480610d9857610d9861118a565b60019003818190600052602060002001600090559055505050565b600054610100900460ff16610dda5760405162461bcd60e51b81526004016102bb90611126565b6107ff33610c92565b604080516001600160a01b03848116602483015283811660448084019190915283518084039091018152606490920183526020820180516001600160e01b031663f4a01e5b60e01b17905291516000928392839291881691610e4591906111a0565b600060405180830381855af49150503d8060008114610e80576040519150601f19603f3d011682016040523d82523d6000602084013e610e85565b606091505b509150915081610e96576015610eaa565b80806020019051810190610eaa9190611171565b9695505050505050565b6001600160a01b03811681146109d257600080fd5b8035610ed481610eb4565b919050565b600060208284031215610eeb57600080fd5b8135610bc381610eb4565b600060208284031215610f0857600080fd5b5035919050565b60008060408385031215610f2257600080fd5b8235610f2d81610eb4565b91506020830135610f3d81610eb4565b809150509250929050565b60008060408385031215610f5b57600080fd5b8235610f6681610eb4565b946020939093013593505050565b6020808252825182820181905260009190848201906040850190845b81811015610fac57835183529284019291840191600101610f90565b50909695505050505050565b634e487b7160e01b600052604160045260246000fd5b60008060408385031215610fe157600080fd5b823567ffffffffffffffff80821115610ff957600080fd5b818501915085601f83011261100d57600080fd5b813560208282111561102157611021610fb8565b8160051b604051601f19603f8301168101818110868211171561104657611046610fb8565b60405292835281830193508481018201928984111561106457600080fd5b948201945b838610156110895761107a86610ec9565b85529482019493820193611069565b9997909101359750505050505050565b634e487b7160e01b600052601160045260246000fd5b818103818111156108ea576108ea611099565b808201808211156108ea576108ea611099565b634e487b7160e01b600052603260045260246000fd5b6000600182016110fd576110fd611099565b5060010190565b60006020828403121561111657600080fd5b81518015158114610bc357600080fd5b6020808252602b908201527f496e697469616c697a61626c653a20636f6e7472616374206973206e6f74206960408201526a6e697469616c697a696e6760a81b606082015260800190565b60006020828403121561118357600080fd5b5051919050565b634e487b7160e01b600052603160045260246000fd5b6000825160005b818110156111c157602081860181015185830152016111a7565b50600092019182525091905056fea2646970667358221220f7f1977044347850a6997c4dd3906f724a8f35b519aa1e14f652e98edf2a7d0964736f6c63430008120033",
  "linkReferences": {},
  "deployedLinkReferences": {}
}