{
  "_format": "hh-sol-artifact-1",
  "contractName": "GODHolder",
  "sourceName": "contracts/governance/GODHolder.sol",
  "abi": [
    {
      "anonymous": false,
      "inputs": [
        {
          "indexed": false,
          "internalType": "uint8",
          "name": "version",
          "type": "uint8"
        }
      ],
      "name": "Initialized",
      "type": "event"
    },
    {
      "anonymous": false,
      "inputs": [
        {
          "indexed": true,
          "internalType": "address",
          "name": "previousOwner",
          "type": "address"
        },
        {
          "indexed": true,
          "internalType": "address",
          "name": "newOwner",
          "type": "address"
        }
      ],
      "name": "OwnershipTransferred",
      "type": "event"
    },
    {
      "anonymous": false,
      "inputs": [
        {
          "indexed": true,
          "internalType": "address",
          "name": "user",
          "type": "address"
        },
        {
          "indexed": false,
          "internalType": "uint256",
          "name": "idOrAmount",
          "type": "uint256"
        },
        {
          "indexed": false,
          "internalType": "uint8",
          "name": "operation",
          "type": "uint8"
        }
      ],
      "name": "UpdatedAmount",
      "type": "event"
    },
    {
      "inputs": [
        {
          "internalType": "address",
          "name": "voter",
          "type": "address"
        },
        {
          "internalType": "uint256",
          "name": "proposalId",
          "type": "uint256"
        }
      ],
      "name": "addProposalForVoter",
      "outputs": [
        {
          "internalType": "int32",
          "name": "",
          "type": "int32"
        }
      ],
      "stateMutability": "nonpayable",
      "type": "function"
    },
    {
      "inputs": [
        {
          "internalType": "address",
          "name": "voter",
          "type": "address"
        }
      ],
      "name": "balanceOfVoter",
      "outputs": [
        {
          "internalType": "uint256",
          "name": "",
          "type": "uint256"
        }
      ],
      "stateMutability": "view",
      "type": "function"
    },
    {
      "inputs": [],
      "name": "canUserClaimTokens",
      "outputs": [
        {
          "internalType": "bool",
          "name": "",
          "type": "bool"
        }
      ],
      "stateMutability": "view",
      "type": "function"
    },
    {
      "inputs": [],
      "name": "getActiveProposalsForUser",
      "outputs": [
        {
          "internalType": "uint256[]",
          "name": "",
          "type": "uint256[]"
        }
      ],
      "stateMutability": "view",
      "type": "function"
    },
    {
      "inputs": [],
      "name": "getHederaServiceVersion",
      "outputs": [
        {
          "internalType": "contract IHederaService",
          "name": "",
          "type": "address"
        }
      ],
      "stateMutability": "view",
      "type": "function"
    },
    {
      "inputs": [],
      "name": "getToken",
      "outputs": [
        {
          "internalType": "address",
          "name": "",
          "type": "address"
        }
      ],
      "stateMutability": "view",
      "type": "function"
    },
    {
      "inputs": [
        {
          "internalType": "address",
          "name": "user",
          "type": "address"
        },
        {
          "internalType": "uint256",
          "name": "_amount",
          "type": "uint256"
        }
      ],
      "name": "grabTokensFromUser",
      "outputs": [],
      "stateMutability": "nonpayable",
      "type": "function"
    },
    {
      "inputs": [
        {
          "internalType": "contract IHederaService",
          "name": "_hederaService",
          "type": "address"
        },
        {
          "internalType": "address",
          "name": "token",
          "type": "address"
        }
      ],
      "name": "initialize",
      "outputs": [],
      "stateMutability": "nonpayable",
      "type": "function"
    },
    {
      "inputs": [],
      "name": "isNFTType",
      "outputs": [
        {
          "internalType": "bool",
          "name": "",
          "type": "bool"
        }
      ],
      "stateMutability": "pure",
      "type": "function"
    },
    {
      "inputs": [],
      "name": "owner",
      "outputs": [
        {
          "internalType": "address",
          "name": "",
          "type": "address"
        }
      ],
      "stateMutability": "view",
      "type": "function"
    },
    {
      "inputs": [
        {
          "internalType": "address[]",
          "name": "voters",
          "type": "address[]"
        },
        {
          "internalType": "uint256",
          "name": "proposalId",
          "type": "uint256"
        }
      ],
      "name": "removeActiveProposals",
      "outputs": [
        {
          "internalType": "int32",
          "name": "",
          "type": "int32"
        }
      ],
      "stateMutability": "nonpayable",
      "type": "function"
    },
    {
      "inputs": [],
      "name": "renounceOwnership",
      "outputs": [],
      "stateMutability": "nonpayable",
      "type": "function"
    },
    {
      "inputs": [
        {
          "internalType": "uint256",
          "name": "_amount",
          "type": "uint256"
        }
      ],
      "name": "revertTokensForVoter",
      "outputs": [
        {
          "internalType": "int32",
          "name": "",
          "type": "int32"
        }
      ],
      "stateMutability": "nonpayable",
      "type": "function"
    },
    {
      "inputs": [
        {
          "internalType": "address",
          "name": "newOwner",
          "type": "address"
        }
      ],
      "name": "transferOwnership",
      "outputs": [],
      "stateMutability": "nonpayable",
      "type": "function"
    },
    {
      "inputs": [
        {
          "internalType": "contract IHederaService",
          "name": "newHederaService",
          "type": "address"
        }
      ],
      "name": "upgradeHederaService",
      "outputs": [],
      "stateMutability": "nonpayable",
      "type": "function"
    }
  ],
  "bytecode": "0x608060405234801561001057600080fd5b506112b2806100206000396000f3fe608060405234801561001057600080fd5b50600436106100f55760003560e01c8063822d852d11610097578063d819f7f611610066578063d819f7f614610213578063dc43b9e614610226578063e07ca47a1461022d578063f2fde38b1461024057600080fd5b8063822d852d146101c25780638da5cb5b146101d7578063cdb7f9d5146101e8578063d26d681f1461020057600080fd5b8063485cc955116100d3578063485cc9551461018157806358ccb91c146101965780636dab6f75146101a9578063715018a6146101ba57600080fd5b8063121d351b146100fa57806321df0da7146101365780632f81b68b1461015b575b600080fd5b610123610108366004610f86565b6001600160a01b031660009081526068602052604090205490565b6040519081526020015b60405180910390f35b6067546001600160a01b03165b6040516001600160a01b03909116815260200161012d565b61016e610169366004610fa3565b610253565b60405160039190910b815260200161012d565b61019461018f366004610fbc565b6104ce565b005b6101946101a4366004610ff5565b61061e565b6066546001600160a01b0316610143565b610194610890565b6101ca6108a4565b60405161012d9190611021565b6033546001600160a01b0316610143565b6101f0610905565b604051901515815260200161012d565b61019461020e366004610f86565b610935565b61016e610221366004610ff5565b61095f565b60006101f0565b61016e61023b36600461107b565b610993565b61019461024e366004610f86565b610a09565b60008082116102c45760405162461bcd60e51b815260206004820152603260248201527f474f44486f6c6465723a20756e6c6f636b20616d6f756e74206d7573742062656044820152711030903837b9b4ba34bb3290373ab6b132b960711b60648201526084015b60405180910390fd5b33600090815260656020526040902054156103215760405162461bcd60e51b815260206004820152601b60248201527f5573657227732050726f706f73616c732061726520616374697665000000000060448201526064016102bb565b33600090815260686020526040902054828110156103a75760405162461bcd60e51b815260206004820152603e60248201527f474f44486f6c6465723a20756e6c6f636b20616d6f756e742063616e2774206260448201527f65206772656174657220746f20746865206c6f636b656420616d6f756e74000060648201526084016102bb565b33600090815260686020526040812080548592906103c690849061115c565b90915550503360009081526068602052604081205490036103f257336000908152606860205260408120555b60675460009061040d906001600160a01b0316303387610a82565b9050601681146104775760405162461bcd60e51b815260206004820152602f60248201527f474f44486f6c6465723a20746f6b656e207472616e73666572206661696c656460448201526e10333937b69031b7b73a3930b1ba1760891b60648201526084016102bb565b336000818152606860209081526040918290205482519081526002918101919091527f7112aa7ec1e41eee02627d288d824efe05b8bc89f6623a5e0daf7be1aa0859c0910160405180910390a25060169392505050565b600054610100900460ff16158080156104ee5750600054600160ff909116105b806105085750303b158015610508575060005460ff166001145b61056b5760405162461bcd60e51b815260206004820152602e60248201527f496e697469616c697a61626c653a20636f6e747261637420697320616c72656160448201526d191e481a5b9a5d1a585b1a5e995960921b60648201526084016102bb565b6000805460ff19166001179055801561058e576000805461ff0019166101001790555b610596610ba6565b606680546001600160a01b038086166001600160a01b03199283168117909355606780549186169190921681179091556105d291903090610bd5565b508015610619576000805461ff0019169055604051600181527f7f26b83ff96e1f2b6a682f133852f6798a09c465da95921460cefb38474024989060200160405180910390a15b505050565b600081116106875760405162461bcd60e51b815260206004820152603060248201527f474f44486f6c6465723a206c6f636b20616d6f756e74206d757374206265206160448201526f103837b9b4ba34bb3290373ab6b132b960811b60648201526084016102bb565b6067546000906106a0906001600160a01b031684610c77565b90506000811161070e5760405162461bcd60e51b815260206004820152603360248201527f474f44486f6c6465723a2062616c616e636520616d6f756e74206d7573742062604482015272329030903837b9b4ba34bb3290373ab6b132b960691b60648201526084016102bb565b808211156107845760405162461bcd60e51b815260206004820152603d60248201527f474f44486f6c6465723a206c6f636b20616d6f756e742063616e27742062652060448201527f6772656174657220746f207468652062616c616e636520616d6f756e7400000060648201526084016102bb565b6001600160a01b038316600090815260686020526040812080548492906107ac90849061116f565b90915550506067546000906107cc906001600160a01b0316853086610a82565b9050601681146108345760405162461bcd60e51b815260206004820152602d60248201527f474f44486f6c6465723a20746f6b656e207472616e73666572206661696c656460448201526c103a379031b7b73a3930b1ba1760991b60648201526084016102bb565b6001600160a01b0384166000818152606860209081526040918290205482519081526001918101919091527f7112aa7ec1e41eee02627d288d824efe05b8bc89f6623a5e0daf7be1aa0859c0910160405180910390a250505050565b610898610ce5565b6108a26000610d3f565b565b336000908152606560209081526040918290208054835181840281018401909452808452606093928301828280156108fb57602002820191906000526020600020905b8154815260200190600101908083116108e7575b5050505050905090565b3360009081526065602052604081205415801561093057503360009081526068602052604090205415155b905090565b61093d610ce5565b606680546001600160a01b0319166001600160a01b0392909216919091179055565b6001600160a01b03821660009081526065602090815260408220805460018101825590835291200181905560165b92915050565b6000805b83518110156109ff576000606560008684815181106109b8576109b8611182565b60200260200101516001600160a01b03166001600160a01b0316815260200190815260200160002090506109ec8482610d91565b50806109f781611198565b915050610997565b5060169392505050565b610a11610ce5565b6001600160a01b038116610a765760405162461bcd60e51b815260206004820152602660248201527f4f776e61626c653a206e6577206f776e657220697320746865207a65726f206160448201526564647265737360d01b60648201526084016102bb565b610a7f81610d3f565b50565b600080306001600160a01b03861614610b15576040516323b872dd60e01b81526001600160a01b0386811660048301528581166024830152604482018590528716906323b872dd906064016020604051808303816000875af1158015610aec573d6000803e3d6000fd5b505050506040513d601f19601f82011682018060405250810190610b1091906111b1565b610b88565b60405163a9059cbb60e01b81526001600160a01b0385811660048301526024820185905287169063a9059cbb906044016020604051808303816000875af1158015610b64573d6000803e3d6000fd5b505050506040513d601f19601f82011682018060405250810190610b8891906111b1565b905080610b96576015610b99565b60165b60030b9695505050505050565b600054610100900460ff16610bcd5760405162461bcd60e51b81526004016102bb906111d3565b6108a2610e60565b60006001600160a01b0383163b15610bf957610bf2848484610e90565b9050610c70565b60405163f4a01e5b60e01b81526001600160a01b038481166004830152838116602483015285169063f4a01e5b906044016020604051808303816000875af1158015610c49573d6000803e3d6000fd5b505050506040513d601f19601f82011682018060405250810190610c6d919061121e565b90505b9392505050565b6040516370a0823160e01b81526001600160a01b038281166004830152600091908416906370a0823190602401602060405180830381865afa158015610cc1573d6000803e3d6000fd5b505050506040513d601f19601f82011682018060405250810190610c70919061121e565b6033546001600160a01b031633146108a25760405162461bcd60e51b815260206004820181905260248201527f4f776e61626c653a2063616c6c6572206973206e6f7420746865206f776e657260448201526064016102bb565b603380546001600160a01b038381166001600160a01b0319831681179093556040519116919082907f8be0079c531659141344cd1fd0a4f28419497f9722a3daafe3b4186f6b6457e090600090a35050565b805460005b8254811015610ddc5783838281548110610db257610db2611182565b906000526020600020015403610dca57809150610ddc565b80610dd481611198565b915050610d96565b5081548110610dea57505050565b81548290610dfa9060019061115c565b81548110610e0a57610e0a611182565b9060005260206000200154828281548110610e2757610e27611182565b906000526020600020018190555081805480610e4557610e45611237565b60019003818190600052602060002001600090559055505050565b600054610100900460ff16610e875760405162461bcd60e51b81526004016102bb906111d3565b6108a233610d3f565b604080516001600160a01b03848116602483015283811660448084019190915283518084039091018152606490920183526020820180516001600160e01b031663f4a01e5b60e01b17905291516000928392839291881691610ef2919061124d565b600060405180830381855af49150503d8060008114610f2d576040519150601f19603f3d011682016040523d82523d6000602084013e610f32565b606091505b509150915081610f43576015610f57565b80806020019051810190610f57919061121e565b9695505050505050565b6001600160a01b0381168114610a7f57600080fd5b8035610f8181610f61565b919050565b600060208284031215610f9857600080fd5b8135610c7081610f61565b600060208284031215610fb557600080fd5b5035919050565b60008060408385031215610fcf57600080fd5b8235610fda81610f61565b91506020830135610fea81610f61565b809150509250929050565b6000806040838503121561100857600080fd5b823561101381610f61565b946020939093013593505050565b6020808252825182820181905260009190848201906040850190845b818110156110595783518352928401929184019160010161103d565b50909695505050505050565b634e487b7160e01b600052604160045260246000fd5b6000806040838503121561108e57600080fd5b823567ffffffffffffffff808211156110a657600080fd5b818501915085601f8301126110ba57600080fd5b81356020828211156110ce576110ce611065565b8160051b604051601f19603f830116810181811086821117156110f3576110f3611065565b60405292835281830193508481018201928984111561111157600080fd5b948201945b838610156111365761112786610f76565b85529482019493820193611116565b9997909101359750505050505050565b634e487b7160e01b600052601160045260246000fd5b8181038181111561098d5761098d611146565b8082018082111561098d5761098d611146565b634e487b7160e01b600052603260045260246000fd5b6000600182016111aa576111aa611146565b5060010190565b6000602082840312156111c357600080fd5b81518015158114610c7057600080fd5b6020808252602b908201527f496e697469616c697a61626c653a20636f6e7472616374206973206e6f74206960408201526a6e697469616c697a696e6760a81b606082015260800190565b60006020828403121561123057600080fd5b5051919050565b634e487b7160e01b600052603160045260246000fd5b6000825160005b8181101561126e5760208186018101518583015201611254565b50600092019182525091905056fea264697066735822122086d5fd1c0471f9e30a90f8727974abc8b4e449355754a7920a1bfbdf960b37c364736f6c63430008120033",
  "linkReferences": {},
  "deployedLinkReferences": {}
}