{
  "_format": "hh-sol-artifact-1",
  "contractName": "GODHolder",
  "sourceName": "contracts/governance/GODHolder.sol",
  "abi": [
    {
      "anonymous": false,
      "inputs": [
        {
          "indexed": false,
          "internalType": "uint8",
          "name": "version",
          "type": "uint8"
        }
      ],
      "name": "Initialized",
      "type": "event"
    },
    {
      "inputs": [
        {
          "internalType": "address",
          "name": "voter",
          "type": "address"
        },
        {
          "internalType": "uint256",
          "name": "proposalId",
          "type": "uint256"
        }
      ],
      "name": "addProposalForVoter",
      "outputs": [
        {
          "internalType": "int32",
          "name": "",
          "type": "int32"
        }
      ],
      "stateMutability": "nonpayable",
      "type": "function"
    },
    {
      "inputs": [
        {
          "internalType": "address",
          "name": "voter",
          "type": "address"
        }
      ],
      "name": "balanceOfVoter",
      "outputs": [
        {
          "internalType": "uint256",
          "name": "",
          "type": "uint256"
        }
      ],
      "stateMutability": "view",
      "type": "function"
    },
    {
      "inputs": [],
      "name": "canUserClaimTokens",
      "outputs": [
        {
          "internalType": "bool",
          "name": "",
          "type": "bool"
        }
      ],
      "stateMutability": "view",
      "type": "function"
    },
    {
      "inputs": [],
      "name": "getActiveProposalsForUser",
      "outputs": [
        {
          "internalType": "uint256[]",
          "name": "",
          "type": "uint256[]"
        }
      ],
      "stateMutability": "view",
      "type": "function"
    },
    {
      "inputs": [],
      "name": "getToken",
      "outputs": [
        {
          "internalType": "address",
          "name": "",
          "type": "address"
        }
      ],
      "stateMutability": "view",
      "type": "function"
    },
    {
      "inputs": [
        {
          "internalType": "address",
          "name": "user",
          "type": "address"
        },
        {
          "internalType": "uint256",
          "name": "_amount",
          "type": "uint256"
        }
      ],
      "name": "grabTokensFromUser",
      "outputs": [],
      "stateMutability": "nonpayable",
      "type": "function"
    },
    {
      "inputs": [
        {
          "internalType": "contract IBaseHTS",
          "name": "tokenService",
          "type": "address"
        },
        {
          "internalType": "address",
          "name": "token",
          "type": "address"
        }
      ],
      "name": "initialize",
      "outputs": [],
      "stateMutability": "nonpayable",
      "type": "function"
    },
    {
      "inputs": [
        {
          "internalType": "address[]",
          "name": "voters",
          "type": "address[]"
        },
        {
          "internalType": "uint256",
          "name": "proposalId",
          "type": "uint256"
        }
      ],
      "name": "removeActiveProposals",
      "outputs": [
        {
          "internalType": "int32",
          "name": "",
          "type": "int32"
        }
      ],
      "stateMutability": "nonpayable",
      "type": "function"
    },
    {
      "inputs": [
        {
          "internalType": "uint256",
          "name": "_amount",
          "type": "uint256"
        }
      ],
      "name": "revertTokensForVoter",
      "outputs": [
        {
          "internalType": "int32",
          "name": "",
          "type": "int32"
        }
      ],
      "stateMutability": "nonpayable",
      "type": "function"
    }
  ],
  "bytecode": "0x608060405234801561001057600080fd5b50610e0c806100206000396000f3fe608060405234801561001057600080fd5b50600436106100835760003560e01c8063121d351b1461008857806321df0da7146100c45780632f81b68b146100dd578063485cc9551461010357806358ccb91c14610118578063822d852d1461012b578063cdb7f9d514610140578063d819f7f614610158578063e07ca47a1461016b575b600080fd5b6100b1610096366004610af1565b6001600160a01b031660009081526004602052604090205490565b6040519081526020015b60405180910390f35b6003546001600160a01b03166040516100bb9190610b15565b6100f06100eb366004610b29565b61017e565b60405160039190910b81526020016100bb565b610116610111366004610b42565b6103eb565b005b610116610126366004610b7b565b61052f565b610133610803565b6040516100bb9190610ba7565b610148610864565b60405190151581526020016100bb565b6100f0610166366004610b7b565b610894565b6100f0610179366004610c01565b6108c7565b60008082116101ef5760405162461bcd60e51b815260206004820152603260248201527f474f44486f6c6465723a20756e6c6f636b20616d6f756e74206d7573742062656044820152711030903837b9b4ba34bb3290373ab6b132b960711b60648201526084015b60405180910390fd5b336000908152600160205260409020541561024a5760405162461bcd60e51b815260206004820152601b60248201527a5573657227732050726f706f73616c73206172652061637469766560281b60448201526064016101e6565b33600090815260046020526040902054828110156102d05760405162461bcd60e51b815260206004820152603e60248201527f474f44486f6c6465723a20756e6c6f636b20616d6f756e742063616e2774206260448201527f65206772656174657220746f20746865206c6f636b656420616d6f756e74000060648201526084016101e6565b33600090815260046020526040812080548592906102ef908490610ce1565b909155505060035460405163a9059cbb60e01b8152336004820152602481018590526001600160a01b039091169063a9059cbb906044016020604051808303816000875af1158015610345573d6000803e3d6000fd5b505050506040513d601f19601f820116820180604052508101906103699190610cf4565b6103bb5760405162461bcd60e51b815260206004820152602f6024820152600080516020610db783398151915260448201526e10333937b69031b7b73a3930b1ba1760891b60648201526084016101e6565b3360009081526004602052604081205490036103e257336000908152600460205260408120555b50601692915050565b600054610100900460ff161580801561040b5750600054600160ff909116105b806104255750303b158015610425575060005460ff166001145b6104885760405162461bcd60e51b815260206004820152602e60248201527f496e697469616c697a61626c653a20636f6e747261637420697320616c72656160448201526d191e481a5b9a5d1a585b1a5e995960921b60648201526084016101e6565b6000805460ff1916600117905580156104ab576000805461ff0019166101001790555b600280546001600160a01b038086166001600160a01b0319928316179092556003805492851692909116821790556104e490309061093d565b801561052a576000805461ff0019169055604051600181527f7f26b83ff96e1f2b6a682f133852f6798a09c465da95921460cefb38474024989060200160405180910390a15b505050565b600081116105985760405162461bcd60e51b815260206004820152603060248201527f474f44486f6c6465723a206c6f636b20616d6f756e74206d757374206265206160448201526f103837b9b4ba34bb3290373ab6b132b960811b60648201526084016101e6565b6003546040516370a0823160e01b81526000916001600160a01b0316906370a08231906105c9908690600401610b15565b602060405180830381865afa1580156105e6573d6000803e3d6000fd5b505050506040513d601f19601f8201168201806040525081019061060a9190610d16565b9050600081116106785760405162461bcd60e51b815260206004820152603360248201527f474f44486f6c6465723a2062616c616e636520616d6f756e74206d7573742062604482015272329030903837b9b4ba34bb3290373ab6b132b960691b60648201526084016101e6565b808211156106ee5760405162461bcd60e51b815260206004820152603d60248201527f474f44486f6c6465723a206c6f636b20616d6f756e742063616e27742062652060448201527f6772656174657220746f207468652062616c616e636520616d6f756e7400000060648201526084016101e6565b6001600160a01b03831660009081526004602052604081208054849290610716908490610d2f565b90915550506002546003546040516338044eab60e11b81526001600160a01b03918216600482015285821660248201523060448201526064810185905260009291909116906370089d56906084016020604051808303816000875af1158015610783573d6000803e3d6000fd5b505050506040513d601f19601f820116820180604052508101906107a79190610d16565b9050601681146107fd5760405162461bcd60e51b815260206004820152602d6024820152600080516020610db783398151915260448201526c103a379031b7b73a3930b1ba1760991b60648201526084016101e6565b50505050565b3360009081526001602090815260409182902080548351818402810184019094528084526060939283018282801561085a57602002820191906000526020600020905b815481526020019060010190808311610846575b5050505050905090565b3360009081526001602052604081205415801561088f57503360009081526004602052604090205415155b905090565b6001600160a01b038216600090815260016020818152604083208054928301815583529091200181905560165b92915050565b6000805b8351811015610933576000600160008684815181106108ec576108ec610d42565b60200260200101516001600160a01b03166001600160a01b03168152602001908152602001600020905061092084826109fa565b508061092b81610d58565b9150506108cb565b5060169392505050565b6002546040516001600160a01b0384811660248301528381166044830152600092169063f4a01e5b60e01b9060640160408051601f198184030181529181526020820180516001600160e01b03166001600160e01b03199094169390931790925290516109aa9190610d71565b600060405180830381855af49150503d80600081146109e5576040519150601f19603f3d011682016040523d82523d6000602084013e6109ea565b606091505b5050905080806107fd5750505050565b805460005b8254811015610a455783838281548110610a1b57610a1b610d42565b906000526020600020015403610a3357809150610a45565b80610a3d81610d58565b9150506109ff565b5081548110610a5357505050565b81548290610a6390600190610ce1565b81548110610a7357610a73610d42565b9060005260206000200154828281548110610a9057610a90610d42565b906000526020600020018190555081805480610aae57610aae610da0565b60019003818190600052602060002001600090559055505050565b6001600160a01b0381168114610ade57600080fd5b50565b8035610aec81610ac9565b919050565b600060208284031215610b0357600080fd5b8135610b0e81610ac9565b9392505050565b6001600160a01b0391909116815260200190565b600060208284031215610b3b57600080fd5b5035919050565b60008060408385031215610b5557600080fd5b8235610b6081610ac9565b91506020830135610b7081610ac9565b809150509250929050565b60008060408385031215610b8e57600080fd5b8235610b9981610ac9565b946020939093013593505050565b6020808252825182820181905260009190848201906040850190845b81811015610bdf57835183529284019291840191600101610bc3565b50909695505050505050565b634e487b7160e01b600052604160045260246000fd5b60008060408385031215610c1457600080fd5b82356001600160401b0380821115610c2b57600080fd5b818501915085601f830112610c3f57600080fd5b8135602082821115610c5357610c53610beb565b8160051b604051601f19603f83011681018181108682111715610c7857610c78610beb565b604052928352818301935084810182019289841115610c9657600080fd5b948201945b83861015610cbb57610cac86610ae1565b85529482019493820193610c9b565b9997909101359750505050505050565b634e487b7160e01b600052601160045260246000fd5b818103818111156108c1576108c1610ccb565b600060208284031215610d0657600080fd5b81518015158114610b0e57600080fd5b600060208284031215610d2857600080fd5b5051919050565b808201808211156108c1576108c1610ccb565b634e487b7160e01b600052603260045260246000fd5b600060018201610d6a57610d6a610ccb565b5060010190565b6000825160005b81811015610d925760208186018101518583015201610d78565b506000920191825250919050565b634e487b7160e01b600052603160045260246000fdfe474f44486f6c6465723a20746f6b656e207472616e73666572206661696c6564a264697066735822122004e03583152be39b248b5df6fb2ed07b14404810d152ca0494c8b9c6fb6ea5bf64736f6c63430008110033",
  "linkReferences": {},
  "deployedLinkReferences": {}
}