{
  "_format": "hh-sol-artifact-1",
  "contractName": "GODHolder",
  "sourceName": "contracts/governance/GODHolder.sol",
  "abi": [
    {
      "anonymous": false,
      "inputs": [
        {
          "indexed": true,
          "internalType": "address",
          "name": "user",
          "type": "address"
        },
        {
          "indexed": false,
          "internalType": "bool",
          "name": "canClaim",
          "type": "bool"
        },
        {
          "indexed": false,
          "internalType": "uint8",
          "name": "operation",
          "type": "uint8"
        }
      ],
      "name": "CanClaimAmount",
      "type": "event"
    },
    {
      "anonymous": false,
      "inputs": [
        {
          "indexed": false,
          "internalType": "uint8",
          "name": "version",
          "type": "uint8"
        }
      ],
      "name": "Initialized",
      "type": "event"
    },
    {
      "anonymous": false,
      "inputs": [
        {
          "indexed": true,
          "internalType": "address",
          "name": "previousOwner",
          "type": "address"
        },
        {
          "indexed": true,
          "internalType": "address",
          "name": "newOwner",
          "type": "address"
        }
      ],
      "name": "OwnershipTransferred",
      "type": "event"
    },
    {
      "anonymous": false,
      "inputs": [
        {
          "indexed": true,
          "internalType": "address",
          "name": "user",
          "type": "address"
        },
        {
          "indexed": false,
          "internalType": "uint256",
          "name": "idOrAmount",
          "type": "uint256"
        },
        {
          "indexed": false,
          "internalType": "uint8",
          "name": "operation",
          "type": "uint8"
        }
      ],
      "name": "UpdatedAmount",
      "type": "event"
    },
    {
      "inputs": [
        {
          "internalType": "address",
          "name": "voter",
          "type": "address"
        },
        {
          "internalType": "uint256",
          "name": "proposalId",
          "type": "uint256"
        }
      ],
      "name": "addProposalForVoter",
      "outputs": [
        {
          "internalType": "int32",
          "name": "",
          "type": "int32"
        }
      ],
      "stateMutability": "nonpayable",
      "type": "function"
    },
    {
      "inputs": [
        {
          "internalType": "address",
          "name": "voter",
          "type": "address"
        }
      ],
      "name": "balanceOfVoter",
      "outputs": [
        {
          "internalType": "uint256",
          "name": "",
          "type": "uint256"
        }
      ],
      "stateMutability": "view",
      "type": "function"
    },
    {
      "inputs": [
        {
          "internalType": "address",
          "name": "account",
          "type": "address"
        }
      ],
      "name": "canUserClaimTokens",
      "outputs": [
        {
          "internalType": "bool",
          "name": "",
          "type": "bool"
        }
      ],
      "stateMutability": "view",
      "type": "function"
    },
    {
      "inputs": [],
      "name": "getActiveProposalsForUser",
      "outputs": [
        {
          "internalType": "uint256[]",
          "name": "",
          "type": "uint256[]"
        }
      ],
      "stateMutability": "view",
      "type": "function"
    },
    {
      "inputs": [],
      "name": "getHederaServiceVersion",
      "outputs": [
        {
          "internalType": "contract IHederaService",
          "name": "",
          "type": "address"
        }
      ],
      "stateMutability": "view",
      "type": "function"
    },
    {
      "inputs": [],
      "name": "getToken",
      "outputs": [
        {
          "internalType": "address",
          "name": "",
          "type": "address"
        }
      ],
      "stateMutability": "view",
      "type": "function"
    },
    {
      "inputs": [
        {
          "internalType": "address",
          "name": "user",
          "type": "address"
        },
        {
          "internalType": "uint256",
          "name": "_amount",
          "type": "uint256"
        }
      ],
      "name": "grabTokensFromUser",
      "outputs": [],
      "stateMutability": "nonpayable",
      "type": "function"
    },
    {
      "inputs": [
        {
          "internalType": "contract IHederaService",
          "name": "_hederaService",
          "type": "address"
        },
        {
          "internalType": "address",
          "name": "token",
          "type": "address"
        }
      ],
      "name": "initialize",
      "outputs": [],
      "stateMutability": "nonpayable",
      "type": "function"
    },
    {
      "inputs": [],
      "name": "isNFTType",
      "outputs": [
        {
          "internalType": "bool",
          "name": "",
          "type": "bool"
        }
      ],
      "stateMutability": "pure",
      "type": "function"
    },
    {
      "inputs": [],
      "name": "owner",
      "outputs": [
        {
          "internalType": "address",
          "name": "",
          "type": "address"
        }
      ],
      "stateMutability": "view",
      "type": "function"
    },
    {
      "inputs": [
        {
          "internalType": "address[]",
          "name": "voters",
          "type": "address[]"
        },
        {
          "internalType": "uint256",
          "name": "proposalId",
          "type": "uint256"
        }
      ],
      "name": "removeActiveProposals",
      "outputs": [
        {
          "internalType": "int32",
          "name": "",
          "type": "int32"
        }
      ],
      "stateMutability": "nonpayable",
      "type": "function"
    },
    {
      "inputs": [],
      "name": "renounceOwnership",
      "outputs": [],
      "stateMutability": "nonpayable",
      "type": "function"
    },
    {
      "inputs": [
        {
          "internalType": "uint256",
          "name": "_amount",
          "type": "uint256"
        }
      ],
      "name": "revertTokensForVoter",
      "outputs": [
        {
          "internalType": "int32",
          "name": "",
          "type": "int32"
        }
      ],
      "stateMutability": "nonpayable",
      "type": "function"
    },
    {
      "inputs": [
        {
          "internalType": "address",
          "name": "newOwner",
          "type": "address"
        }
      ],
      "name": "transferOwnership",
      "outputs": [],
      "stateMutability": "nonpayable",
      "type": "function"
    },
    {
      "inputs": [
        {
          "internalType": "contract IHederaService",
          "name": "newHederaService",
          "type": "address"
        }
      ],
      "name": "upgradeHederaService",
      "outputs": [],
      "stateMutability": "nonpayable",
      "type": "function"
    }
  ],
  "bytecode": "0x608060405234801561001057600080fd5b50611386806100206000396000f3fe608060405234801561001057600080fd5b50600436106100c55760003560e01c8063121d351b146100ca57806321df0da7146101065780632f81b68b14610120578063485cc9551461014657806358ccb91c1461015b5780636dab6f751461016e578063715018a61461017f57806371600cd614610187578063822d852d146101aa5780638da5cb5b146101bf578063d26d681f146101c7578063d819f7f6146101da578063dc43b9e6146101ed578063e07ca47a146101f4578063f2fde38b14610207575b600080fd5b6100f36100d8366004610fcd565b6001600160a01b031660009081526068602052604090205490565b6040519081526020015b60405180910390f35b6067546001600160a01b03165b6040516100fd9190610fea565b61013361012e366004610ffe565b61021a565b60405160039190910b81526020016100fd565b610159610154366004611017565b61046f565b005b610159610169366004611050565b6105c6565b6066546001600160a01b0316610113565b610159610814565b61019a610195366004610fcd565b610828565b60405190151581526020016100fd565b6101b261086b565b6040516100fd919061107c565b6101136108cc565b6101596101d5366004610fcd565b6108db565b6101336101e8366004611050565b610905565b600061019a565b6101336102023660046110d6565b610981565b610159610215366004610fcd565b610a39565b600080821161028b5760405162461bcd60e51b815260206004820152603260248201527f474f44486f6c6465723a20756e6c6f636b20616d6f756e74206d7573742062656044820152711030903837b9b4ba34bb3290373ab6b132b960711b60648201526084015b60405180910390fd5b33600090815260656020526040902054156102e65760405162461bcd60e51b815260206004820152601b60248201527a5573657227732050726f706f73616c73206172652061637469766560281b6044820152606401610282565b336000908152606860205260409020548281101561036c5760405162461bcd60e51b815260206004820152603e60248201527f474f44486f6c6465723a20756e6c6f636b20616d6f756e742063616e2774206260448201527f65206772656174657220746f20746865206c6f636b656420616d6f756e7400006064820152608401610282565b336000908152606860205260408120805485929061038b9084906111b6565b90915550503360009081526068602052604081205490036103b757336000908152606860205260408120555b6067546000906103d2906001600160a01b0316303387610ab2565b90506016811461042a5760405162461bcd60e51b815260206004820152602f602482015260008051602061131183398151915260448201526e10333937b69031b7b73a3930b1ba1760891b6064820152608401610282565b33600081815260686020908152604091829020548251908152600291810191909152600080516020611331833981519152910160405180910390a25060169392505050565b600054610100900460ff161580801561048f5750600054600160ff909116105b806104b0575061049e30610bd6565b1580156104b0575060005460ff166001145b6105135760405162461bcd60e51b815260206004820152602e60248201527f496e697469616c697a61626c653a20636f6e747261637420697320616c72656160448201526d191e481a5b9a5d1a585b1a5e995960921b6064820152608401610282565b6000805460ff191660011790558015610536576000805461ff0019166101001790555b61053e610be5565b606680546001600160a01b038086166001600160a01b031992831681179093556067805491861691909216811790915561057a91903090610c14565b5080156105c1576000805461ff0019169055604051600181527f7f26b83ff96e1f2b6a682f133852f6798a09c465da95921460cefb38474024989060200160405180910390a15b505050565b6000811161062f5760405162461bcd60e51b815260206004820152603060248201527f474f44486f6c6465723a206c6f636b20616d6f756e74206d757374206265206160448201526f103837b9b4ba34bb3290373ab6b132b960811b6064820152608401610282565b606754600090610648906001600160a01b031684610cb1565b9050600081116106b65760405162461bcd60e51b815260206004820152603360248201527f474f44486f6c6465723a2062616c616e636520616d6f756e74206d7573742062604482015272329030903837b9b4ba34bb3290373ab6b132b960691b6064820152608401610282565b8082111561072c5760405162461bcd60e51b815260206004820152603d60248201527f474f44486f6c6465723a206c6f636b20616d6f756e742063616e27742062652060448201527f6772656174657220746f207468652062616c616e636520616d6f756e740000006064820152608401610282565b6001600160a01b038316600090815260686020526040812080548492906107549084906111c9565b9091555050606754600090610774906001600160a01b0316853086610ab2565b9050601681146107ca5760405162461bcd60e51b815260206004820152602d602482015260008051602061131183398151915260448201526c103a379031b7b73a3930b1ba1760991b6064820152608401610282565b6001600160a01b038416600081815260686020908152604091829020548251908152600191810191909152600080516020611331833981519152910160405180910390a250505050565b61081c610d21565b6108266000610d80565b565b6001600160a01b03811660009081526065602052604081205415801561086557506001600160a01b03821660009081526068602052604090205415155b92915050565b336000908152606560209081526040918290208054835181840281018401909452808452606093928301828280156108c257602002820191906000526020600020905b8154815260200190600101908083116108ae575b5050505050905090565b6033546001600160a01b031690565b6108e3610d21565b606680546001600160a01b0319166001600160a01b0392909216919091179055565b6001600160a01b0382166000908152606560209081526040822080546001818101835582855292842001849055805490910361097757836001600160a01b03166000805160206112f183398151915261095d86610828565b604080519115158252600160208301520160405180910390a25b5060169392505050565b6000805b83518110156109775760008482815181106109a2576109a26111dc565b60200260200101519050600060656000836001600160a01b03166001600160a01b0316815260200190815260200160002090506109df8582610dd2565b8054600003610a2457816001600160a01b03166000805160206112f1833981519152610a0a84610828565b604080519115158252600260208301520160405180910390a25b50508080610a31906111f2565b915050610985565b610a41610d21565b6001600160a01b038116610aa65760405162461bcd60e51b815260206004820152602660248201527f4f776e61626c653a206e6577206f776e657220697320746865207a65726f206160448201526564647265737360d01b6064820152608401610282565b610aaf81610d80565b50565b600080306001600160a01b03861614610b45576040516323b872dd60e01b81526001600160a01b0386811660048301528581166024830152604482018590528716906323b872dd906064016020604051808303816000875af1158015610b1c573d6000803e3d6000fd5b505050506040513d601f19601f82011682018060405250810190610b40919061120b565b610bb8565b60405163a9059cbb60e01b81526001600160a01b0385811660048301526024820185905287169063a9059cbb906044016020604051808303816000875af1158015610b94573d6000803e3d6000fd5b505050506040513d601f19601f82011682018060405250810190610bb8919061120b565b905080610bc6576015610bc9565b60165b60030b9695505050505050565b6001600160a01b03163b151590565b600054610100900460ff16610c0c5760405162461bcd60e51b81526004016102829061122d565b610826610ea1565b6000610c1f83610bd6565b15610c3657610c2f848484610ed1565b9050610caa565b60405163f4a01e5b60e01b81526001600160a01b0385169063f4a01e5b90610c649086908690600401611278565b6020604051808303816000875af1158015610c83573d6000803e3d6000fd5b505050506040513d601f19601f82011682018060405250810190610ca79190611292565b90505b9392505050565b6040516370a0823160e01b81526000906001600160a01b038416906370a0823190610ce0908590600401610fea565b602060405180830381865afa158015610cfd573d6000803e3d6000fd5b505050506040513d601f19601f82011682018060405250810190610caa9190611292565b33610d2a6108cc565b6001600160a01b0316146108265760405162461bcd60e51b815260206004820181905260248201527f4f776e61626c653a2063616c6c6572206973206e6f7420746865206f776e65726044820152606401610282565b603380546001600160a01b038381166001600160a01b0319831681179093556040519116919082907f8be0079c531659141344cd1fd0a4f28419497f9722a3daafe3b4186f6b6457e090600090a35050565b805460005b8254811015610e1d5783838281548110610df357610df36111dc565b906000526020600020015403610e0b57809150610e1d565b80610e15816111f2565b915050610dd7565b5081548110610e2b57505050565b81548290610e3b906001906111b6565b81548110610e4b57610e4b6111dc565b9060005260206000200154828281548110610e6857610e686111dc565b906000526020600020018190555081805480610e8657610e866112ab565b60019003818190600052602060002001600090559055505050565b600054610100900460ff16610ec85760405162461bcd60e51b81526004016102829061122d565b61082633610d80565b6000806000856001600160a01b031663f4a01e5b60e01b8686604051602401610efb929190611278565b60408051601f198184030181529181526020820180516001600160e01b03166001600160e01b0319909416939093179092529051610f3991906112c1565b600060405180830381855af49150503d8060008114610f74576040519150601f19603f3d011682016040523d82523d6000602084013e610f79565b606091505b509150915081610f8a576015610f9e565b80806020019051810190610f9e9190611292565b9695505050505050565b6001600160a01b0381168114610aaf57600080fd5b8035610fc881610fa8565b919050565b600060208284031215610fdf57600080fd5b8135610caa81610fa8565b6001600160a01b0391909116815260200190565b60006020828403121561101057600080fd5b5035919050565b6000806040838503121561102a57600080fd5b823561103581610fa8565b9150602083013561104581610fa8565b809150509250929050565b6000806040838503121561106357600080fd5b823561106e81610fa8565b946020939093013593505050565b6020808252825182820181905260009190848201906040850190845b818110156110b457835183529284019291840191600101611098565b50909695505050505050565b634e487b7160e01b600052604160045260246000fd5b600080604083850312156110e957600080fd5b82356001600160401b038082111561110057600080fd5b818501915085601f83011261111457600080fd5b8135602082821115611128576111286110c0565b8160051b604051601f19603f8301168101818110868211171561114d5761114d6110c0565b60405292835281830193508481018201928984111561116b57600080fd5b948201945b838610156111905761118186610fbd565b85529482019493820193611170565b9997909101359750505050505050565b634e487b7160e01b600052601160045260246000fd5b81810381811115610865576108656111a0565b80820180821115610865576108656111a0565b634e487b7160e01b600052603260045260246000fd5b600060018201611204576112046111a0565b5060010190565b60006020828403121561121d57600080fd5b81518015158114610caa57600080fd5b6020808252602b908201527f496e697469616c697a61626c653a20636f6e7472616374206973206e6f74206960408201526a6e697469616c697a696e6760a81b606082015260800190565b6001600160a01b0392831681529116602082015260400190565b6000602082840312156112a457600080fd5b5051919050565b634e487b7160e01b600052603160045260246000fd5b6000825160005b818110156112e257602081860181015185830152016112c8565b50600092019182525091905056fe4646e8a4c81662cab16907c5a853090bb45b3277716d611899b054186e257cf7474f44486f6c6465723a20746f6b656e207472616e73666572206661696c65647112aa7ec1e41eee02627d288d824efe05b8bc89f6623a5e0daf7be1aa0859c0a26469706673582212203830ef038c5f84fea32b11b98740adce0d3f22c858bedfbbc100b86e612d8d4d64736f6c63430008120033",
  "linkReferences": {},
  "deployedLinkReferences": {}
}