{
  "_format": "hh-sol-artifact-1",
  "contractName": "GovernorTokenDAO",
  "sourceName": "contracts/dao/GovernanceDAO.sol",
  "abi": [
    {
      "inputs": [
        {
          "internalType": "string",
          "name": "message",
          "type": "string"
        }
      ],
      "name": "InvalidInput",
      "type": "error"
    },
    {
      "anonymous": false,
      "inputs": [
        {
          "indexed": false,
          "internalType": "string",
          "name": "previousDesc",
          "type": "string"
        },
        {
          "indexed": false,
          "internalType": "string",
          "name": "currentDesc",
          "type": "string"
        }
      ],
      "name": "DescriptionUpdated",
      "type": "event"
    },
    {
      "anonymous": false,
      "inputs": [
        {
          "indexed": false,
          "internalType": "uint8",
          "name": "version",
          "type": "uint8"
        }
      ],
      "name": "Initialized",
      "type": "event"
    },
    {
      "anonymous": false,
      "inputs": [
        {
          "indexed": false,
          "internalType": "string",
          "name": "previousLogoUrl",
          "type": "string"
        },
        {
          "indexed": false,
          "internalType": "string",
          "name": "currentLogoUrl",
          "type": "string"
        }
      ],
      "name": "LogoUrlUpdated",
      "type": "event"
    },
    {
      "anonymous": false,
      "inputs": [
        {
          "indexed": false,
          "internalType": "string",
          "name": "previousName",
          "type": "string"
        },
        {
          "indexed": false,
          "internalType": "string",
          "name": "currentName",
          "type": "string"
        }
      ],
      "name": "NameUpdated",
      "type": "event"
    },
    {
      "anonymous": false,
      "inputs": [
        {
          "indexed": true,
          "internalType": "address",
          "name": "previousOwner",
          "type": "address"
        },
        {
          "indexed": true,
          "internalType": "address",
          "name": "newOwner",
          "type": "address"
        }
      ],
      "name": "OwnershipTransferred",
      "type": "event"
    },
    {
      "anonymous": false,
      "inputs": [
        {
          "indexed": false,
          "internalType": "string",
          "name": "previousLink",
          "type": "string"
        },
        {
          "indexed": false,
          "internalType": "string",
          "name": "currentLink",
          "type": "string"
        }
      ],
      "name": "WebLinkUpdated",
      "type": "event"
    },
    {
      "inputs": [
        {
          "internalType": "address",
          "name": "_admin",
          "type": "address"
        },
        {
          "internalType": "string",
          "name": "_name",
          "type": "string"
        },
        {
          "internalType": "string",
          "name": "_logoUrl",
          "type": "string"
        },
        {
          "internalType": "string",
          "name": "_description",
          "type": "string"
        },
        {
          "internalType": "string[]",
          "name": "_webLinks",
          "type": "string[]"
        }
      ],
      "name": "__BaseDAO_init",
      "outputs": [],
      "stateMutability": "nonpayable",
      "type": "function"
    },
    {
      "inputs": [
        {
          "internalType": "string",
          "name": "_key",
          "type": "string"
        },
        {
          "internalType": "string",
          "name": "_value",
          "type": "string"
        }
      ],
      "name": "addWebLink",
      "outputs": [],
      "stateMutability": "nonpayable",
      "type": "function"
    },
    {
      "inputs": [
        {
          "internalType": "string",
          "name": "_title",
          "type": "string"
        },
        {
          "internalType": "string",
          "name": "_description",
          "type": "string"
        },
        {
          "internalType": "string",
          "name": "_linkToDiscussion",
          "type": "string"
        },
        {
          "internalType": "address",
          "name": "_transferFromAccount",
          "type": "address"
        },
        {
          "internalType": "address",
          "name": "_transferToAccount",
          "type": "address"
        },
        {
          "internalType": "address",
          "name": "_tokenToTransfer",
          "type": "address"
        },
        {
          "internalType": "uint256",
          "name": "_transferTokenAmount",
          "type": "uint256"
        }
      ],
      "name": "createProposal",
      "outputs": [
        {
          "internalType": "uint256",
          "name": "",
          "type": "uint256"
        }
      ],
      "stateMutability": "nonpayable",
      "type": "function"
    },
    {
      "inputs": [],
      "name": "getAllProposals",
      "outputs": [
        {
          "internalType": "uint256[]",
          "name": "",
          "type": "uint256[]"
        }
      ],
      "stateMutability": "view",
      "type": "function"
    },
    {
      "inputs": [],
      "name": "getDaoDetail",
      "outputs": [
        {
          "internalType": "string",
          "name": "_name",
          "type": "string"
        },
        {
          "internalType": "string",
          "name": "_logoUrl",
          "type": "string"
        },
        {
          "internalType": "string",
          "name": "_webLinks",
          "type": "string"
        },
        {
          "internalType": "string",
          "name": "_description",
          "type": "string"
        },
        {
          "internalType": "address",
          "name": "_admin",
          "type": "address"
        }
      ],
      "stateMutability": "view",
      "type": "function"
    },
    {
      "inputs": [],
      "name": "getGovernorTokenTransferContractAddress",
      "outputs": [
        {
          "internalType": "address",
          "name": "",
          "type": "address"
        }
      ],
      "stateMutability": "view",
      "type": "function"
    },
    {
      "inputs": [
        {
          "internalType": "address",
          "name": "_admin",
          "type": "address"
        },
        {
          "internalType": "string",
          "name": "_name",
          "type": "string"
        },
        {
          "internalType": "string",
          "name": "_logoUrl",
          "type": "string"
        },
        {
          "internalType": "string",
          "name": "_description",
          "type": "string"
        },
        {
          "internalType": "string[]",
          "name": "_webLinks",
          "type": "string[]"
        },
        {
          "internalType": "contract IGovernorTransferToken",
          "name": "governor",
          "type": "address"
        }
      ],
      "name": "initialize",
      "outputs": [],
      "stateMutability": "nonpayable",
      "type": "function"
    },
    {
      "inputs": [
        {
          "internalType": "string[]",
          "name": "items",
          "type": "string[]"
        }
      ],
      "name": "isOddLengthArray",
      "outputs": [
        {
          "internalType": "bool",
          "name": "",
          "type": "bool"
        }
      ],
      "stateMutability": "pure",
      "type": "function"
    },
    {
      "inputs": [
        {
          "internalType": "string[]",
          "name": "items",
          "type": "string[]"
        },
        {
          "internalType": "string",
          "name": "separator",
          "type": "string"
        }
      ],
      "name": "join",
      "outputs": [
        {
          "internalType": "string",
          "name": "result",
          "type": "string"
        }
      ],
      "stateMutability": "pure",
      "type": "function"
    },
    {
      "inputs": [],
      "name": "owner",
      "outputs": [
        {
          "internalType": "address",
          "name": "",
          "type": "address"
        }
      ],
      "stateMutability": "view",
      "type": "function"
    },
    {
      "inputs": [],
      "name": "renounceOwnership",
      "outputs": [],
      "stateMutability": "nonpayable",
      "type": "function"
    },
    {
      "inputs": [
        {
          "internalType": "address",
          "name": "newOwner",
          "type": "address"
        }
      ],
      "name": "transferOwnership",
      "outputs": [],
      "stateMutability": "nonpayable",
      "type": "function"
    },
    {
      "inputs": [
        {
          "internalType": "string",
          "name": "_desc",
          "type": "string"
        }
      ],
      "name": "updateDescription",
      "outputs": [],
      "stateMutability": "nonpayable",
      "type": "function"
    },
    {
      "inputs": [
        {
          "internalType": "string",
          "name": "_logoUrl",
          "type": "string"
        }
      ],
      "name": "updateLogoURL",
      "outputs": [],
      "stateMutability": "nonpayable",
      "type": "function"
    },
    {
      "inputs": [
        {
          "internalType": "string",
          "name": "_name",
          "type": "string"
        }
      ],
      "name": "updateName",
      "outputs": [],
      "stateMutability": "nonpayable",
      "type": "function"
    }
  ],
  "bytecode": "0x608060405234801561001057600080fd5b50611cfc806100206000396000f3fe608060405234801561001057600080fd5b50600436106100f55760003560e01c80639a20e1fe11610097578063e6a8989511610066578063e6a89895146101ed578063e735b48a14610210578063f2fde38b14610223578063fca1c0b91461023657600080fd5b80639a20e1fe1461019b578063acef78bc146101ae578063bf67ecba146101c7578063cceb68f5146101d857600080fd5b80637ec4e976116100d35780637ec4e9761461012a57806384da92a71461013d5780638da5cb5b1461015057806397ed5bcd1461017a57600080fd5b806326a8567e146100fa57806366c5b9a61461010f578063715018a614610122575b600080fd5b61010d6101083660046114b4565b610256565b005b61010d61011d366004611581565b610392565b61010d610668565b61010d610138366004611641565b61067c565b61010d61014b366004611641565b6106ce565b6033546001600160a01b03165b6040516001600160a01b0390911681526020015b60405180910390f35b61018d61018836600461167e565b610767565b604051908152602001610171565b61010d6101a9366004611746565b610835565b6101b6610a53565b6040516101719594939291906117fa565b606a546001600160a01b031661015d565b6101e0610cf6565b6040516101719190611863565b6102006101fb3660046118a7565b610d4e565b6040519015158152602001610171565b61010d61021e366004611641565b610d66565b61010d6102313660046118dc565b610e06565b610249610244366004611900565b610e7f565b6040516101719190611937565b600054610100900460ff16158080156102765750600054600160ff909116105b806102905750303b158015610290575060005460ff166001145b6102f85760405162461bcd60e51b815260206004820152602e60248201527f496e697469616c697a61626c653a20636f6e747261637420697320616c72656160448201526d191e481a5b9a5d1a585b1a5e995960921b60648201526084015b60405180910390fd5b6000805460ff19166001179055801561031b576000805461ff0019166101001790555b606a80546001600160a01b0319166001600160a01b0384161790556103438787878787610392565b8015610389576000805461ff0019169055604051600181527f7f26b83ff96e1f2b6a682f133852f6798a09c465da95921460cefb38474024989060200160405180910390a15b50505050505050565b600054610100900460ff166103fd5760405162461bcd60e51b815260206004820152602b60248201527f496e697469616c697a61626c653a20636f6e7472616374206973206e6f74206960448201526a6e697469616c697a696e6760a81b60648201526084016102ef565b6001600160a01b0385166104545760405163d647364f60e01b815260206004820152601e60248201527f4261736544414f3a2061646d696e2061646472657373206973207a65726f000060448201526064016102ef565b835160000361049f5760405163d647364f60e01b81526020600482015260166024820152754261736544414f3a206e616d6520697320656d70747960501b60448201526064016102ef565b81516000036104f15760405163d647364f60e01b815260206004820152601d60248201527f4261736544414f3a206465736372697074696f6e20697320656d70747900000060448201526064016102ef565b6104fa81610d4e565b156105595760405163d647364f60e01b815260206004820152602860248201527f4261736544414f3a206c696e6b73206d757374206265206576656e206c656e67604482015267746820617272617960c01b60648201526084016102ef565b606680546001600160a01b0319166001600160a01b038716179055606561058085826119d2565b50606761058d84826119d2565b50606861059a83826119d2565b506066546105b0906001600160a01b0316610f11565b6105b981610f63565b7ff19e969be7affb98a1d812094e0f24ecca36f1eabd6dd592c97020d47c64a00e60656040516105e99190611b0f565b60405180910390a17ff3672c8ff2861c97a6aebc9d331e5be084099f9979e991286ff2d8817bc2467660676040516106219190611b0f565b60405180910390a17fe21432e1fe2b572d5803dd7316b7a854952317b42017f920a616ec70cdb8a5c160686040516106599190611b0f565b60405180910390a15050505050565b6106706111bf565b61067a6000610f11565b565b6106846111bf565b7ff3672c8ff2861c97a6aebc9d331e5be084099f9979e991286ff2d8817bc246766067826040516106b6929190611b30565b60405180910390a160676106ca82826119d2565b5050565b6106d66111bf565b80516000036107215760405163d647364f60e01b81526020600482015260166024820152754261736544414f3a206e616d6520697320656d70747960501b60448201526064016102ef565b7ff19e969be7affb98a1d812094e0f24ecca36f1eabd6dd592c97020d47c64a00e606582604051610753929190611b30565b60405180910390a160656106ca82826119d2565b60006107716111bf565b606a5460405163188588e560e21b81526000916001600160a01b0316906362162394906107b0908c908c908c908c908c908c908c903390600401611b5e565b6020604051808303816000875af11580156107cf573d6000803e3d6000fd5b505050506040513d601f19601f820116820180604052508101906107f39190611bd7565b606b80546001810182556000919091527fbd43cb8ece8cd1863bcd6082d65c5b0d25665b1ce17980f0da43c0ed545f98b4018190559998505050505050505050565b61083d6111bf565b60006109336069805480602002602001604051908101604052809291908181526020016000905b828210156109105783829060005260206000200180546108839061194a565b80601f01602080910402602001604051908101604052809291908181526020018280546108af9061194a565b80156108fc5780601f106108d1576101008083540402835291602001916108fc565b820191906000526020600020905b8154815290600101906020018083116108df57829003601f168201915b505050505081526020019060010190610864565b50505050604051806040016040528060018152602001600b60fa1b815250610e7f565b905061093f8383611219565b6000610a126069805480602002602001604051908101604052809291908181526020016000905b828210156109105783829060005260206000200180546109859061194a565b80601f01602080910402602001604051908101604052809291908181526020018280546109b19061194a565b80156109fe5780601f106109d3576101008083540402835291602001916109fe565b820191906000526020600020905b8154815290600101906020018083116109e157829003601f168201915b505050505081526020019060010190610966565b90507f6d4399c79b2dee44cc5e581581020b8ae0051dc55c1c47b96095a4d15605130f8282604051610a45929190611bf0565b60405180910390a150505050565b606080606080600060656067610b306069805480602002602001604051908101604052809291908181526020016000905b82821015610910578382906000526020600020018054610aa39061194a565b80601f0160208091040260200160405190810160405280929190818152602001828054610acf9061194a565b8015610b1c5780601f10610af157610100808354040283529160200191610b1c565b820191906000526020600020905b815481529060010190602001808311610aff57829003601f168201915b505050505081526020019060010190610a84565b60665483546068916001600160a01b0316908590610b4d9061194a565b80601f0160208091040260200160405190810160405280929190818152602001828054610b799061194a565b8015610bc65780601f10610b9b57610100808354040283529160200191610bc6565b820191906000526020600020905b815481529060010190602001808311610ba957829003601f168201915b50505050509450838054610bd99061194a565b80601f0160208091040260200160405190810160405280929190818152602001828054610c059061194a565b8015610c525780601f10610c2757610100808354040283529160200191610c52565b820191906000526020600020905b815481529060010190602001808311610c3557829003601f168201915b50505050509350818054610c659061194a565b80601f0160208091040260200160405190810160405280929190818152602001828054610c919061194a565b8015610cde5780601f10610cb357610100808354040283529160200191610cde565b820191906000526020600020905b815481529060010190602001808311610cc157829003601f168201915b50505050509150945094509450945094509091929394565b6060606b805480602002602001604051908101604052809291908181526020018280548015610d4457602002820191906000526020600020905b815481526020019060010190808311610d30575b5050505050905090565b600060028251610d5e9190611c03565b151592915050565b610d6e6111bf565b8051600003610dc05760405163d647364f60e01b815260206004820152601d60248201527f4261736544414f3a206465736372697074696f6e20697320656d70747900000060448201526064016102ef565b7fe21432e1fe2b572d5803dd7316b7a854952317b42017f920a616ec70cdb8a5c1606882604051610df2929190611b30565b60405180910390a160686106ca82826119d2565b610e0e6111bf565b6001600160a01b038116610e735760405162461bcd60e51b815260206004820152602660248201527f4f776e61626c653a206e6577206f776e657220697320746865207a65726f206160448201526564647265737360d01b60648201526084016102ef565b610e7c81610f11565b50565b81516060908015610f0a5783600081518110610e9d57610e9d611c25565b602002602001015191506000600190505b81811015610f08578284868381518110610eca57610eca611c25565b6020026020010151604051602001610ee493929190611c3b565b60405160208183030381529060405292508080610f0090611c94565b915050610eae565b505b5092915050565b603380546001600160a01b038381166001600160a01b0319831681179093556040519116919082907f8be0079c531659141344cd1fd0a4f28419497f9722a3daafe3b4186f6b6457e090600090a35050565b60006110366069805480602002602001604051908101604052809291908181526020016000905b82821015610910578382906000526020600020018054610fa99061194a565b80601f0160208091040260200160405190810160405280929190818152602001828054610fd59061194a565b80156110225780601f10610ff757610100808354040283529160200191611022565b820191906000526020600020905b81548152906001019060200180831161100557829003601f168201915b505050505081526020019060010190610f8a565b905060005b82518110156110ab57600083828151811061105857611058611c25565b602002602001015190506000848360016110729190611cad565b8151811061108257611082611c25565b602002602001015190506110968282611219565b506110a49050816002611cad565b905061103b565b50600061117f6069805480602002602001604051908101604052809291908181526020016000905b828210156109105783829060005260206000200180546110f29061194a565b80601f016020809104026020016040519081016040528092919081815260200182805461111e9061194a565b801561116b5780601f106111405761010080835404028352916020019161116b565b820191906000526020600020905b81548152906001019060200180831161114e57829003601f168201915b5050505050815260200190600101906110d3565b90507f6d4399c79b2dee44cc5e581581020b8ae0051dc55c1c47b96095a4d15605130f82826040516111b2929190611bf0565b60405180910390a1505050565b6033546001600160a01b0316331461067a5760405162461bcd60e51b815260206004820181905260248201527f4f776e61626c653a2063616c6c6572206973206e6f7420746865206f776e657260448201526064016102ef565b600082511161126a5760405162461bcd60e51b815260206004820152601b60248201527f4261736544414f3a20696e76616c6964206b657920706173736564000000000060448201526064016102ef565b60008151116112bb5760405162461bcd60e51b815260206004820152601d60248201527f4261736544414f3a20696e76616c69642076616c75652070617373656400000060448201526064016102ef565b606980546001810182556000919091527f7fb4302e8e91f9110a6554c2c0a24601252c2a42c2220ca988efcfe399914308016112f783826119d2565b50606980546001810182556000919091527f7fb4302e8e91f9110a6554c2c0a24601252c2a42c2220ca988efcfe3999143080161133482826119d2565b505050565b6001600160a01b0381168114610e7c57600080fd5b803561135981611339565b919050565b634e487b7160e01b600052604160045260246000fd5b604051601f8201601f1916810167ffffffffffffffff8111828210171561139d5761139d61135e565b604052919050565b600082601f8301126113b657600080fd5b813567ffffffffffffffff8111156113d0576113d061135e565b6113e3601f8201601f1916602001611374565b8181528460208386010111156113f857600080fd5b816020850160208301376000918101602001919091529392505050565b600082601f83011261142657600080fd5b8135602067ffffffffffffffff808311156114435761144361135e565b8260051b611452838201611374565b938452858101830193838101908886111561146c57600080fd5b84880192505b858310156114a85782358481111561148a5760008081fd5b6114988a87838c01016113a5565b8352509184019190840190611472565b98975050505050505050565b60008060008060008060c087890312156114cd57600080fd5b6114d68761134e565b9550602087013567ffffffffffffffff808211156114f357600080fd5b6114ff8a838b016113a5565b9650604089013591508082111561151557600080fd5b6115218a838b016113a5565b9550606089013591508082111561153757600080fd5b6115438a838b016113a5565b9450608089013591508082111561155957600080fd5b5061156689828a01611415565b92505061157560a0880161134e565b90509295509295509295565b600080600080600060a0868803121561159957600080fd5b85356115a481611339565b9450602086013567ffffffffffffffff808211156115c157600080fd5b6115cd89838a016113a5565b955060408801359150808211156115e357600080fd5b6115ef89838a016113a5565b9450606088013591508082111561160557600080fd5b61161189838a016113a5565b9350608088013591508082111561162757600080fd5b5061163488828901611415565b9150509295509295909350565b60006020828403121561165357600080fd5b813567ffffffffffffffff81111561166a57600080fd5b611676848285016113a5565b949350505050565b600080600080600080600060e0888a03121561169957600080fd5b873567ffffffffffffffff808211156116b157600080fd5b6116bd8b838c016113a5565b985060208a01359150808211156116d357600080fd5b6116df8b838c016113a5565b975060408a01359150808211156116f557600080fd5b506117028a828b016113a5565b955050606088013561171381611339565b9350608088013561172381611339565b925061173160a0890161134e565b915060c0880135905092959891949750929550565b6000806040838503121561175957600080fd5b823567ffffffffffffffff8082111561177157600080fd5b61177d868387016113a5565b9350602085013591508082111561179357600080fd5b506117a0858286016113a5565b9150509250929050565b60005b838110156117c55781810151838201526020016117ad565b50506000910152565b600081518084526117e68160208601602086016117aa565b601f01601f19169290920160200192915050565b60a08152600061180d60a08301886117ce565b828103602084015261181f81886117ce565b9050828103604084015261183381876117ce565b9050828103606084015261184781866117ce565b9150506001600160a01b03831660808301529695505050505050565b6020808252825182820181905260009190848201906040850190845b8181101561189b5783518352928401929184019160010161187f565b50909695505050505050565b6000602082840312156118b957600080fd5b813567ffffffffffffffff8111156118d057600080fd5b61167684828501611415565b6000602082840312156118ee57600080fd5b81356118f981611339565b9392505050565b6000806040838503121561191357600080fd5b823567ffffffffffffffff8082111561192b57600080fd5b61177d86838701611415565b6020815260006118f960208301846117ce565b600181811c9082168061195e57607f821691505b60208210810361197e57634e487b7160e01b600052602260045260246000fd5b50919050565b601f82111561133457600081815260208120601f850160051c810160208610156119ab5750805b601f850160051c820191505b818110156119ca578281556001016119b7565b505050505050565b815167ffffffffffffffff8111156119ec576119ec61135e565b611a00816119fa845461194a565b84611984565b602080601f831160018114611a355760008415611a1d5750858301515b600019600386901b1c1916600185901b1785556119ca565b600085815260208120601f198616915b82811015611a6457888601518255948401946001909101908401611a45565b5085821015611a825787850151600019600388901b60f8161c191681555b5050505050600190811b01905550565b60008154611a9f8161194a565b808552602060018381168015611abc5760018114611ad657611b04565b60ff1985168884015283151560051b880183019550611b04565b866000528260002060005b85811015611afc5781548a8201860152908301908401611ae1565b890184019650505b505050505092915050565b60408152600060408201526060602082015260006118f96060830184611a92565b604081526000611b436040830185611a92565b8281036020840152611b5581856117ce565b95945050505050565b6000610100808352611b728184018c6117ce565b90508281036020840152611b86818b6117ce565b90508281036040840152611b9a818a6117ce565b6001600160a01b0398891660608501529688166080840152505092851660a084015260c083019190915290921660e0909201919091529392505050565b600060208284031215611be957600080fd5b5051919050565b604081526000611b4360408301856117ce565b600082611c2057634e487b7160e01b600052601260045260246000fd5b500690565b634e487b7160e01b600052603260045260246000fd5b60008451611c4d8184602089016117aa565b845190830190611c618183602089016117aa565b8451910190611c748183602088016117aa565b0195945050505050565b634e487b7160e01b600052601160045260246000fd5b600060018201611ca657611ca6611c7e565b5060010190565b80820180821115611cc057611cc0611c7e565b9291505056fea2646970667358221220e478cf8ffda714871c7af01e95d3937f5c7657d6e55bc9566c39a1d15b36884264736f6c63430008120033",
  "linkReferences": {},
  "deployedLinkReferences": {}
}