{
  "_format": "hh-sol-artifact-1",
  "contractName": "GovernanceDAOFactory",
  "sourceName": "contracts/dao/GovernanceDAOFactory.sol",
  "abi": [
    {
      "inputs": [
        {
          "internalType": "string",
          "name": "message",
          "type": "string"
        }
      ],
      "name": "InvalidInput",
      "type": "error"
    },
    {
      "inputs": [
        {
          "internalType": "string",
          "name": "message",
          "type": "string"
        }
      ],
      "name": "NotAdmin",
      "type": "error"
    },
    {
      "anonymous": false,
      "inputs": [
        {
          "indexed": false,
          "internalType": "uint8",
          "name": "version",
          "type": "uint8"
        }
      ],
      "name": "Initialized",
      "type": "event"
    },
    {
      "anonymous": false,
      "inputs": [
        {
          "indexed": true,
          "internalType": "address",
          "name": "oldImplementation",
          "type": "address"
        },
        {
          "indexed": true,
          "internalType": "address",
          "name": "newImplementation",
          "type": "address"
        },
        {
          "indexed": false,
          "internalType": "string",
          "name": "name",
          "type": "string"
        }
      ],
      "name": "LogicUpdated",
      "type": "event"
    },
    {
      "anonymous": false,
      "inputs": [
        {
          "indexed": true,
          "internalType": "address",
          "name": "previousOwner",
          "type": "address"
        },
        {
          "indexed": true,
          "internalType": "address",
          "name": "newOwner",
          "type": "address"
        }
      ],
      "name": "OwnershipTransferred",
      "type": "event"
    },
    {
      "anonymous": false,
      "inputs": [
        {
          "indexed": false,
          "internalType": "address",
          "name": "daoAddress",
          "type": "address"
        }
      ],
      "name": "PrivateDaoCreated",
      "type": "event"
    },
    {
      "anonymous": false,
      "inputs": [
        {
          "indexed": false,
          "internalType": "address",
          "name": "daoAddress",
          "type": "address"
        }
      ],
      "name": "PublicDaoCreated",
      "type": "event"
    },
    {
      "inputs": [
        {
          "internalType": "address",
          "name": "_admin",
          "type": "address"
        },
        {
          "internalType": "string",
          "name": "_name",
          "type": "string"
        },
        {
          "internalType": "string",
          "name": "_logoUrl",
          "type": "string"
        },
        {
          "internalType": "contract IERC20",
          "name": "_tokenAddress",
          "type": "address"
        },
        {
          "internalType": "uint256",
          "name": "_quorumThreshold",
          "type": "uint256"
        },
        {
          "internalType": "uint256",
          "name": "_votingDelay",
          "type": "uint256"
        },
        {
          "internalType": "uint256",
          "name": "_votingPeriod",
          "type": "uint256"
        },
        {
          "internalType": "bool",
          "name": "_isPrivate",
          "type": "bool"
        }
      ],
      "name": "createDAO",
      "outputs": [
        {
          "internalType": "address",
          "name": "",
          "type": "address"
        }
      ],
      "stateMutability": "nonpayable",
      "type": "function"
    },
    {
      "inputs": [],
      "name": "getDAOs",
      "outputs": [
        {
          "internalType": "address[]",
          "name": "",
          "type": "address[]"
        }
      ],
      "stateMutability": "view",
      "type": "function"
    },
    {
      "inputs": [],
      "name": "getGODTokenHolderFactoryAddress",
      "outputs": [
        {
          "internalType": "address",
          "name": "",
          "type": "address"
        }
      ],
      "stateMutability": "view",
      "type": "function"
    },
    {
      "inputs": [
        {
          "internalType": "address",
          "name": "_proxyAdmin",
          "type": "address"
        },
        {
          "internalType": "contract IBaseHTS",
          "name": "_baseHTS",
          "type": "address"
        },
        {
          "internalType": "contract IGovernorTokenDAO",
          "name": "_daoLogic",
          "type": "address"
        },
        {
          "internalType": "contract IGODTokenHolderFactory",
          "name": "_godTokenHolderFactory",
          "type": "address"
        },
        {
          "internalType": "contract IGovernorTransferToken",
          "name": "_tokenTransferLogic",
          "type": "address"
        }
      ],
      "name": "initialize",
      "outputs": [],
      "stateMutability": "nonpayable",
      "type": "function"
    },
    {
      "inputs": [],
      "name": "owner",
      "outputs": [
        {
          "internalType": "address",
          "name": "",
          "type": "address"
        }
      ],
      "stateMutability": "view",
      "type": "function"
    },
    {
      "inputs": [],
      "name": "renounceOwnership",
      "outputs": [],
      "stateMutability": "nonpayable",
      "type": "function"
    },
    {
      "inputs": [
        {
          "internalType": "address",
          "name": "newOwner",
          "type": "address"
        }
      ],
      "name": "transferOwnership",
      "outputs": [],
      "stateMutability": "nonpayable",
      "type": "function"
    },
    {
      "inputs": [
        {
          "internalType": "contract IGODTokenHolderFactory",
          "name": "_newGodTokenHolderFactory",
          "type": "address"
        }
      ],
      "name": "upgradeGODTokenHolderFactory",
      "outputs": [],
      "stateMutability": "nonpayable",
      "type": "function"
    },
    {
      "inputs": [
        {
          "internalType": "contract IGovernorTokenDAO",
          "name": "_newImpl",
          "type": "address"
        }
      ],
      "name": "upgradeGovernorTokenDaoLogicImplementation",
      "outputs": [],
      "stateMutability": "nonpayable",
      "type": "function"
    },
    {
      "inputs": [
        {
          "internalType": "contract IGovernorTransferToken",
          "name": "_newImpl",
          "type": "address"
        }
      ],
      "name": "upgradeGovernorTokenTransferLogicImplementation",
      "outputs": [],
      "stateMutability": "nonpayable",
      "type": "function"
    }
  ],
  "bytecode": "0x608060405234801561001057600080fd5b50612960806100206000396000f3fe60806040523480156200001157600080fd5b5060043610620000cd5760003560e01c806386e8bc82116200007f578063a59afb901162000062578063a59afb901462000194578063db0ee79314620001ab578063f2fde38b14620001c257600080fd5b806386e8bc82146200015e5780638da5cb5b146200017557600080fd5b80634b501c6111620000b45780634b501c61146200010d578063715018a6146200013d57806378318382146200014757600080fd5b80631459457a14620000d2578063415cc7dd14620000eb575b600080fd5b620000e9620000e336600462001549565b620001d9565b005b620000f56200057d565b604051620001049190620015c5565b60405180910390f35b62000117620005ee565b60405173ffffffffffffffffffffffffffffffffffffffff909116815260200162000104565b620000e9620006b7565b620000e96200015836600462001621565b620006cf565b620001176200016f36600462001694565b62000848565b60335473ffffffffffffffffffffffffffffffffffffffff1662000117565b620000e9620001a536600462001621565b62000d1b565b620000e9620001bc36600462001621565b62000e94565b620000e9620001d336600462001621565b6200100d565b600054610100900460ff1615808015620001fa5750600054600160ff909116105b80620002165750303b15801562000216575060005460ff166001145b620002a8576040517f08c379a000000000000000000000000000000000000000000000000000000000815260206004820152602e60248201527f496e697469616c697a61626c653a20636f6e747261637420697320616c72656160448201527f647920696e697469616c697a656400000000000000000000000000000000000060648201526084015b60405180910390fd5b600080547fffffffffffffffffffffffffffffffffffffffffffffffffffffffffffffff0016600117905580156200030757600080547fffffffffffffffffffffffffffffffffffffffffffffffffffffffffffff00ff166101001790555b62000311620010ca565b6066805473ffffffffffffffffffffffffffffffffffffffff8089167fffffffffffffffffffffffff00000000000000000000000000000000000000009283161790925560658054888416908316179055606880548784169083168117909155606a80548785169084161790556069805493861693909216929092179055604080518082018252601081527f476f7665726e6f72546f6b656e44414f00000000000000000000000000000000602082015290516000917fcf9d4a2ff924c5f3553e3c8485e6bc24fde822593d2c3d78c8fabaada123f8f691620003f59190620017d1565b60405180910390a3606954604080518082018252601581527f476f7665726e6f725472616e73666572546f6b656e00000000000000000000006020820152905173ffffffffffffffffffffffffffffffffffffffff909216916000917fcf9d4a2ff924c5f3553e3c8485e6bc24fde822593d2c3d78c8fabaada123f8f6916200047f9190620017d1565b60405180910390a3606a54604080518082018252601581527f474f44546f6b656e486f6c646572466163746f727900000000000000000000006020820152905173ffffffffffffffffffffffffffffffffffffffff909216916000917fcf9d4a2ff924c5f3553e3c8485e6bc24fde822593d2c3d78c8fabaada123f8f691620005099190620017d1565b60405180910390a380156200057557600080547fffffffffffffffffffffffffffffffffffffffffffffffffffffffffffff00ff169055604051600181527f7f26b83ff96e1f2b6a682f133852f6798a09c465da95921460cefb38474024989060200160405180910390a15b505050505050565b60606067805480602002602001604051908101604052809291908181526020018280548015620005e457602002820191906000526020600020905b815473ffffffffffffffffffffffffffffffffffffffff168152600190910190602001808311620005b8575b5050505050905090565b60665460009073ffffffffffffffffffffffffffffffffffffffff1633146200069a576040517f7625245e00000000000000000000000000000000000000000000000000000000815260206004820152602160248201527f476f7665726e616e636544414f466163746f72793a2061757468206661696c6560448201527f640000000000000000000000000000000000000000000000000000000000000060648201526084016200029f565b50606a5473ffffffffffffffffffffffffffffffffffffffff1690565b620006c16200116d565b620006cd6000620011f0565b565b60665473ffffffffffffffffffffffffffffffffffffffff16331462000778576040517f7625245e00000000000000000000000000000000000000000000000000000000815260206004820152602160248201527f476f7665726e616e636544414f466163746f72793a2061757468206661696c6560448201527f640000000000000000000000000000000000000000000000000000000000000060648201526084016200029f565b606954604080518082018252601581527f476f7665726e6f725472616e73666572546f6b656e00000000000000000000006020820152905173ffffffffffffffffffffffffffffffffffffffff8085169316917fcf9d4a2ff924c5f3553e3c8485e6bc24fde822593d2c3d78c8fabaada123f8f691620007f99190620017d1565b60405180910390a3606980547fffffffffffffffffffffffff00000000000000000000000000000000000000001673ffffffffffffffffffffffffffffffffffffffff92909216919091179055565b6000888103620008db576040517fd647364f00000000000000000000000000000000000000000000000000000000815260206004820152602360248201527f476f7665726e616e636544414f466163746f72793a206e616d6520697320656d60448201527f707479000000000000000000000000000000000000000000000000000000000060648201526084016200029f565b60008790036200096e576040517fd647364f00000000000000000000000000000000000000000000000000000000815260206004820152602260248201527f476f7665726e616e636544414f466163746f72793a2075726c20697320656d7060448201527f747900000000000000000000000000000000000000000000000000000000000060648201526084016200029f565b73ffffffffffffffffffffffffffffffffffffffff861662000a13576040517fd647364f00000000000000000000000000000000000000000000000000000000815260206004820152602b60248201527f476f7665726e616e636544414f466163746f72793a20746f6b656e206164647260448201527f657373206973207a65726f00000000000000000000000000000000000000000060648201526084016200029f565b73ffffffffffffffffffffffffffffffffffffffff8b1662000ab8576040517fd647364f00000000000000000000000000000000000000000000000000000000815260206004820152602b60248201527f476f7665726e616e636544414f466163746f72793a2061646d696e206164647260448201527f657373206973207a65726f00000000000000000000000000000000000000000060648201526084016200029f565b8260000362000b4a576040517fd647364f00000000000000000000000000000000000000000000000000000000815260206004820152602b60248201527f476f7665726e616e636544414f466163746f72793a20766f74696e672070657260448201527f696f64206973207a65726f00000000000000000000000000000000000000000060648201526084016200029f565b606a546040517f41f8e70c00000000000000000000000000000000000000000000000000000000815273ffffffffffffffffffffffffffffffffffffffff888116600483015260009216906341f8e70c906024016020604051808303816000875af115801562000bbe573d6000803e3d6000fd5b505050506040513d601f19601f8201168201806040525081019062000be49190620017e6565b9050600062000bf7888888888662001267565b9050600062000c0b8e8e8e8e8e8762001345565b9050841562000c635760405173ffffffffffffffffffffffffffffffffffffffff821681527ff375d008d938f6e4e8d7a3489e0bb1d57676eeb5ccaa0fd2aff29c7fd17215679060200160405180910390a162000d0a565b606780546001810182556000919091527f9787eeb91fe3101235e4a76063c7023ecb40f923f97916639c598592fa30d6ae0180547fffffffffffffffffffffffff00000000000000000000000000000000000000001673ffffffffffffffffffffffffffffffffffffffff83169081179091556040519081527f51f1202f71b54b8daa0013be67d19a8ebc75598b1b376d56ab4b55e4f119c2ce9060200160405180910390a15b9d9c50505050505050505050505050565b60665473ffffffffffffffffffffffffffffffffffffffff16331462000dc4576040517f7625245e00000000000000000000000000000000000000000000000000000000815260206004820152602160248201527f476f7665726e616e636544414f466163746f72793a2061757468206661696c6560448201527f640000000000000000000000000000000000000000000000000000000000000060648201526084016200029f565b606a54604080518082018252601581527f474f44546f6b656e486f6c646572466163746f727900000000000000000000006020820152905173ffffffffffffffffffffffffffffffffffffffff8085169316917fcf9d4a2ff924c5f3553e3c8485e6bc24fde822593d2c3d78c8fabaada123f8f69162000e459190620017d1565b60405180910390a3606a80547fffffffffffffffffffffffff00000000000000000000000000000000000000001673ffffffffffffffffffffffffffffffffffffffff92909216919091179055565b60665473ffffffffffffffffffffffffffffffffffffffff16331462000f3d576040517f7625245e00000000000000000000000000000000000000000000000000000000815260206004820152602160248201527f476f7665726e616e636544414f466163746f72793a2061757468206661696c6560448201527f640000000000000000000000000000000000000000000000000000000000000060648201526084016200029f565b606854604080518082018252601081527f476f7665726e6f72546f6b656e44414f000000000000000000000000000000006020820152905173ffffffffffffffffffffffffffffffffffffffff8085169316917fcf9d4a2ff924c5f3553e3c8485e6bc24fde822593d2c3d78c8fabaada123f8f69162000fbe9190620017d1565b60405180910390a3606880547fffffffffffffffffffffffff00000000000000000000000000000000000000001673ffffffffffffffffffffffffffffffffffffffff92909216919091179055565b620010176200116d565b73ffffffffffffffffffffffffffffffffffffffff8116620010bc576040517f08c379a000000000000000000000000000000000000000000000000000000000815260206004820152602660248201527f4f776e61626c653a206e6577206f776e657220697320746865207a65726f206160448201527f646472657373000000000000000000000000000000000000000000000000000060648201526084016200029f565b620010c781620011f0565b50565b600054610100900460ff1662001163576040517f08c379a000000000000000000000000000000000000000000000000000000000815260206004820152602b60248201527f496e697469616c697a61626c653a20636f6e7472616374206973206e6f74206960448201527f6e697469616c697a696e6700000000000000000000000000000000000000000060648201526084016200029f565b620006cd6200140f565b60335473ffffffffffffffffffffffffffffffffffffffff163314620006cd576040517f08c379a000000000000000000000000000000000000000000000000000000000815260206004820181905260248201527f4f776e61626c653a2063616c6c6572206973206e6f7420746865206f776e657260448201526064016200029f565b6033805473ffffffffffffffffffffffffffffffffffffffff8381167fffffffffffffffffffffffff0000000000000000000000000000000000000000831681179093556040519116919082907f8be0079c531659141344cd1fd0a4f28419497f9722a3daafe3b4186f6b6457e090600090a35050565b6069546000906200128e9073ffffffffffffffffffffffffffffffffffffffff16620014b3565b6065546040517f122d2d9600000000000000000000000000000000000000000000000000000000815273ffffffffffffffffffffffffffffffffffffffff898116600483015260248201889052604482018790529182166064820152848216608482015260a4810188905291925082169063122d2d969060c401600060405180830381600087803b1580156200132357600080fd5b505af115801562001338573d6000803e3d6000fd5b5050505095945050505050565b60685460009081906200136e9073ffffffffffffffffffffffffffffffffffffffff16620014b3565b6040517f613d25bb00000000000000000000000000000000000000000000000000000000815290915073ffffffffffffffffffffffffffffffffffffffff82169063613d25bb90620013cf908b908b908b908b908b908b906004016200184f565b600060405180830381600087803b158015620013ea57600080fd5b505af1158015620013ff573d6000803e3d6000fd5b50929a9950505050505050505050565b600054610100900460ff16620014a8576040517f08c379a000000000000000000000000000000000000000000000000000000000815260206004820152602b60248201527f496e697469616c697a61626c653a20636f6e7472616374206973206e6f74206960448201527f6e697469616c697a696e6700000000000000000000000000000000000000000060648201526084016200029f565b620006cd33620011f0565b606654604051600091606091849173ffffffffffffffffffffffffffffffffffffffff16908390620014e59062001518565b620014f393929190620018ae565b604051809103906000f08015801562001510573d6000803e3d6000fd5b509392505050565b61103880620018f383390190565b73ffffffffffffffffffffffffffffffffffffffff81168114620010c757600080fd5b600080600080600060a086880312156200156257600080fd5b85356200156f8162001526565b94506020860135620015818162001526565b93506040860135620015938162001526565b92506060860135620015a58162001526565b91506080860135620015b78162001526565b809150509295509295909350565b6020808252825182820181905260009190848201906040850190845b818110156200161557835173ffffffffffffffffffffffffffffffffffffffff1683529284019291840191600101620015e1565b50909695505050505050565b6000602082840312156200163457600080fd5b8135620016418162001526565b9392505050565b60008083601f8401126200165b57600080fd5b50813567ffffffffffffffff8111156200167457600080fd5b6020830191508360208285010111156200168d57600080fd5b9250929050565b6000806000806000806000806000806101008b8d031215620016b557600080fd5b8a35620016c28162001526565b995060208b013567ffffffffffffffff80821115620016e057600080fd5b620016ee8e838f0162001648565b909b50995060408d01359150808211156200170857600080fd5b50620017178d828e0162001648565b90985096505060608b01356200172d8162001526565b945060808b0135935060a08b0135925060c08b0135915060e08b013580151581146200175857600080fd5b809150509295989b9194979a5092959850565b6000815180845260005b81811015620017935760208185018101518683018201520162001775565b5060006020828601015260207fffffffffffffffffffffffffffffffffffffffffffffffffffffffffffffffe0601f83011685010191505092915050565b6020815260006200164160208301846200176b565b600060208284031215620017f957600080fd5b8151620016418162001526565b8183528181602085013750600060208284010152600060207fffffffffffffffffffffffffffffffffffffffffffffffffffffffffffffffe0601f840116840101905092915050565b600073ffffffffffffffffffffffffffffffffffffffff8089168352608060208401526200188260808401888a62001806565b83810360408501526200189781878962001806565b925050808416606084015250979650505050505050565b600073ffffffffffffffffffffffffffffffffffffffff808616835280851660208401525060606040830152620018e960608301846200176b565b9594505050505056fe60806040526040516200103838038062001038833981016040819052620000269162000497565b828162000036828260006200004d565b50620000449050826200008a565b505050620005ca565b6200005883620000e5565b600082511180620000665750805b1562000085576200008383836200012760201b6200028c1760201c565b505b505050565b7f7e644d79422f17c01e4894b5f4f588d331ebfa28653d42ae832dc59e38c9798f620000b562000156565b604080516001600160a01b03928316815291841660208301520160405180910390a1620000e2816200018f565b50565b620000f08162000244565b6040516001600160a01b038216907fbc7cd75a20ee27fd9adebab32041f755214dbc6bffa90cc0225b39da2e5c2d3b90600090a250565b60606200014f83836040518060600160405280602781526020016200101160279139620002f8565b9392505050565b60006200018060008051602062000ff183398151915260001b6200037760201b6200022e1760201c565b546001600160a01b0316919050565b6001600160a01b038116620001fa5760405162461bcd60e51b815260206004820152602660248201527f455243313936373a206e65772061646d696e20697320746865207a65726f206160448201526564647265737360d01b60648201526084015b60405180910390fd5b806200022360008051602062000ff183398151915260001b6200037760201b6200022e1760201c565b80546001600160a01b0319166001600160a01b039290921691909117905550565b6200025a816200037a60201b620002b81760201c565b620002be5760405162461bcd60e51b815260206004820152602d60248201527f455243313936373a206e657720696d706c656d656e746174696f6e206973206e60448201526c1bdd08184818dbdb9d1c9858dd609a1b6064820152608401620001f1565b80620002237f360894a13ba1a3210667c828492db98dca3e2076cc3735a920a3ca505d382bbc60001b6200037760201b6200022e1760201c565b6060600080856001600160a01b03168560405162000317919062000577565b600060405180830381855af49150503d806000811462000354576040519150601f19603f3d011682016040523d82523d6000602084013e62000359565b606091505b5090925090506200036d8683838762000389565b9695505050505050565b90565b6001600160a01b03163b151590565b60608315620003fd578251600003620003f5576001600160a01b0385163b620003f55760405162461bcd60e51b815260206004820152601d60248201527f416464726573733a2063616c6c20746f206e6f6e2d636f6e74726163740000006044820152606401620001f1565b508162000409565b62000409838362000411565b949350505050565b815115620004225781518083602001fd5b8060405162461bcd60e51b8152600401620001f1919062000595565b80516001600160a01b03811681146200045657600080fd5b919050565b634e487b7160e01b600052604160045260246000fd5b60005b838110156200048e57818101518382015260200162000474565b50506000910152565b600080600060608486031215620004ad57600080fd5b620004b8846200043e565b9250620004c8602085016200043e565b60408501519092506001600160401b0380821115620004e657600080fd5b818601915086601f830112620004fb57600080fd5b8151818111156200051057620005106200045b565b604051601f8201601f19908116603f011681019083821181831017156200053b576200053b6200045b565b816040528281528960208487010111156200055557600080fd5b6200056883602083016020880162000471565b80955050505050509250925092565b600082516200058b81846020870162000471565b9190910192915050565b6020815260008251806020840152620005b681604085016020870162000471565b601f01601f19169190910160400192915050565b610a1780620005da6000396000f3fe60806040526004361061005e5760003560e01c80635c60da1b116100435780635c60da1b146100a85780638f283970146100e6578063f851a440146101065761006d565b80633659cfe6146100755780634f1ef286146100955761006d565b3661006d5761006b61011b565b005b61006b61011b565b34801561008157600080fd5b5061006b61009036600461088b565b610135565b61006b6100a33660046108a6565b61017f565b3480156100b457600080fd5b506100bd6101f3565b60405173ffffffffffffffffffffffffffffffffffffffff909116815260200160405180910390f35b3480156100f257600080fd5b5061006b61010136600461088b565b610231565b34801561011257600080fd5b506100bd61025e565b6101236102d4565b61013361012e6103ab565b6103b5565b565b61013d6103d9565b73ffffffffffffffffffffffffffffffffffffffff1633036101775761017481604051806020016040528060008152506000610419565b50565b61017461011b565b6101876103d9565b73ffffffffffffffffffffffffffffffffffffffff1633036101eb576101e68383838080601f01602080910402602001604051908101604052809392919081815260200183838082843760009201919091525060019250610419915050565b505050565b6101e661011b565b60006101fd6103d9565b73ffffffffffffffffffffffffffffffffffffffff163303610226576102216103ab565b905090565b61022e61011b565b90565b6102396103d9565b73ffffffffffffffffffffffffffffffffffffffff1633036101775761017481610444565b60006102686103d9565b73ffffffffffffffffffffffffffffffffffffffff163303610226576102216103d9565b60606102b183836040518060600160405280602781526020016109bb602791396104a5565b9392505050565b73ffffffffffffffffffffffffffffffffffffffff163b151590565b6102dc6103d9565b73ffffffffffffffffffffffffffffffffffffffff163303610133576040517f08c379a000000000000000000000000000000000000000000000000000000000815260206004820152604260248201527f5472616e73706172656e745570677261646561626c6550726f78793a2061646d60448201527f696e2063616e6e6f742066616c6c6261636b20746f2070726f7879207461726760648201527f6574000000000000000000000000000000000000000000000000000000000000608482015260a4015b60405180910390fd5b600061022161052a565b3660008037600080366000845af43d6000803e8080156103d4573d6000f35b3d6000fd5b60007fb53127684a568b3173ae13b9f8a6016e243e63b6e8ee1178d6a717850b5d61035b5473ffffffffffffffffffffffffffffffffffffffff16919050565b61042283610552565b60008251118061042f5750805b156101e65761043e838361028c565b50505050565b7f7e644d79422f17c01e4894b5f4f588d331ebfa28653d42ae832dc59e38c9798f61046d6103d9565b6040805173ffffffffffffffffffffffffffffffffffffffff928316815291841660208301520160405180910390a16101748161059f565b60606000808573ffffffffffffffffffffffffffffffffffffffff16856040516104cf919061094d565b600060405180830381855af49150503d806000811461050a576040519150601f19603f3d011682016040523d82523d6000602084013e61050f565b606091505b5091509150610520868383876106ab565b9695505050505050565b60007f360894a13ba1a3210667c828492db98dca3e2076cc3735a920a3ca505d382bbc6103fd565b61055b81610753565b60405173ffffffffffffffffffffffffffffffffffffffff8216907fbc7cd75a20ee27fd9adebab32041f755214dbc6bffa90cc0225b39da2e5c2d3b90600090a250565b73ffffffffffffffffffffffffffffffffffffffff8116610642576040517f08c379a000000000000000000000000000000000000000000000000000000000815260206004820152602660248201527f455243313936373a206e65772061646d696e20697320746865207a65726f206160448201527f646472657373000000000000000000000000000000000000000000000000000060648201526084016103a2565b807fb53127684a568b3173ae13b9f8a6016e243e63b6e8ee1178d6a717850b5d61035b80547fffffffffffffffffffffffff00000000000000000000000000000000000000001673ffffffffffffffffffffffffffffffffffffffff9290921691909117905550565b6060831561074157825160000361073a5773ffffffffffffffffffffffffffffffffffffffff85163b61073a576040517f08c379a000000000000000000000000000000000000000000000000000000000815260206004820152601d60248201527f416464726573733a2063616c6c20746f206e6f6e2d636f6e747261637400000060448201526064016103a2565b508161074b565b61074b838361081e565b949350505050565b73ffffffffffffffffffffffffffffffffffffffff81163b6107f7576040517f08c379a000000000000000000000000000000000000000000000000000000000815260206004820152602d60248201527f455243313936373a206e657720696d706c656d656e746174696f6e206973206e60448201527f6f74206120636f6e74726163740000000000000000000000000000000000000060648201526084016103a2565b807f360894a13ba1a3210667c828492db98dca3e2076cc3735a920a3ca505d382bbc610665565b81511561082e5781518083602001fd5b806040517f08c379a00000000000000000000000000000000000000000000000000000000081526004016103a29190610969565b803573ffffffffffffffffffffffffffffffffffffffff8116811461088657600080fd5b919050565b60006020828403121561089d57600080fd5b6102b182610862565b6000806000604084860312156108bb57600080fd5b6108c484610862565b9250602084013567ffffffffffffffff808211156108e157600080fd5b818601915086601f8301126108f557600080fd5b81358181111561090457600080fd5b87602082850101111561091657600080fd5b6020830194508093505050509250925092565b60005b8381101561094457818101518382015260200161092c565b50506000910152565b6000825161095f818460208701610929565b9190910192915050565b6020815260008251806020840152610988816040850160208701610929565b601f017fffffffffffffffffffffffffffffffffffffffffffffffffffffffffffffffe016919091016040019291505056fe416464726573733a206c6f772d6c6576656c2064656c65676174652063616c6c206661696c6564a26469706673582212204f094d7720fc7374a3c783a87072f71f199b8020e101c821dcfcb00422afd54164736f6c63430008110033b53127684a568b3173ae13b9f8a6016e243e63b6e8ee1178d6a717850b5d6103416464726573733a206c6f772d6c6576656c2064656c65676174652063616c6c206661696c6564a264697066735822122092b75770e4895da83161d94c4adeeba68662c1ee840493a1e181ac41686082c464736f6c63430008110033",
  "linkReferences": {},
  "deployedLinkReferences": {}
}