{
  "_format": "hh-sol-artifact-1",
  "contractName": "GovernanceDAOFactory",
  "sourceName": "contracts/dao/GovernanceDAOFactory.sol",
  "abi": [
    {
      "inputs": [
        {
          "internalType": "string",
          "name": "message",
          "type": "string"
        }
      ],
      "name": "InvalidInput",
      "type": "error"
    },
    {
      "inputs": [
        {
          "internalType": "string",
          "name": "message",
          "type": "string"
        }
      ],
      "name": "NotAdmin",
      "type": "error"
    },
    {
      "anonymous": false,
      "inputs": [
        {
          "indexed": false,
          "internalType": "address",
          "name": "daoAddress",
          "type": "address"
        },
        {
          "indexed": false,
          "internalType": "address",
          "name": "admin",
          "type": "address"
        },
        {
          "indexed": false,
          "internalType": "string",
          "name": "name",
          "type": "string"
        },
        {
          "indexed": false,
          "internalType": "string",
          "name": "logoUrl",
          "type": "string"
        },
        {
          "indexed": false,
          "internalType": "address",
          "name": "tokenAddress",
          "type": "address"
        },
        {
          "indexed": false,
          "internalType": "uint256",
          "name": "quorumThreshold",
          "type": "uint256"
        },
        {
          "indexed": false,
          "internalType": "uint256",
          "name": "votingDelay",
          "type": "uint256"
        },
        {
          "indexed": false,
          "internalType": "uint256",
          "name": "votingPeriod",
          "type": "uint256"
        },
        {
          "indexed": false,
          "internalType": "bool",
          "name": "isPrivate",
          "type": "bool"
        }
      ],
      "name": "DAOCreated",
      "type": "event"
    },
    {
      "anonymous": false,
      "inputs": [
        {
          "indexed": false,
          "internalType": "uint8",
          "name": "version",
          "type": "uint8"
        }
      ],
      "name": "Initialized",
      "type": "event"
    },
    {
      "anonymous": false,
      "inputs": [
        {
          "indexed": true,
          "internalType": "address",
          "name": "oldImplementation",
          "type": "address"
        },
        {
          "indexed": true,
          "internalType": "address",
          "name": "newImplementation",
          "type": "address"
        },
        {
          "indexed": false,
          "internalType": "string",
          "name": "name",
          "type": "string"
        }
      ],
      "name": "LogicUpdated",
      "type": "event"
    },
    {
      "anonymous": false,
      "inputs": [
        {
          "indexed": true,
          "internalType": "address",
          "name": "previousOwner",
          "type": "address"
        },
        {
          "indexed": true,
          "internalType": "address",
          "name": "newOwner",
          "type": "address"
        }
      ],
      "name": "OwnershipTransferred",
      "type": "event"
    },
    {
      "inputs": [
        {
          "internalType": "address",
          "name": "_admin",
          "type": "address"
        },
        {
          "internalType": "string",
          "name": "_name",
          "type": "string"
        },
        {
          "internalType": "string",
          "name": "_logoUrl",
          "type": "string"
        },
        {
          "internalType": "contract IERC20",
          "name": "_tokenAddress",
          "type": "address"
        },
        {
          "internalType": "uint256",
          "name": "_quorumThreshold",
          "type": "uint256"
        },
        {
          "internalType": "uint256",
          "name": "_votingDelay",
          "type": "uint256"
        },
        {
          "internalType": "uint256",
          "name": "_votingPeriod",
          "type": "uint256"
        },
        {
          "internalType": "bool",
          "name": "_isPrivate",
          "type": "bool"
        }
      ],
      "name": "createDAO",
      "outputs": [
        {
          "internalType": "address",
          "name": "",
          "type": "address"
        }
      ],
      "stateMutability": "nonpayable",
      "type": "function"
    },
    {
      "inputs": [],
      "name": "getDAOs",
      "outputs": [
        {
          "internalType": "address[]",
          "name": "",
          "type": "address[]"
        }
      ],
      "stateMutability": "view",
      "type": "function"
    },
    {
      "inputs": [],
      "name": "getTokenHolderFactoryAddress",
      "outputs": [
        {
          "internalType": "address",
          "name": "",
          "type": "address"
        }
      ],
      "stateMutability": "view",
      "type": "function"
    },
    {
      "inputs": [
        {
          "internalType": "address",
          "name": "_proxyAdmin",
          "type": "address"
        },
        {
          "internalType": "contract IBaseHTS",
          "name": "_baseHTS",
          "type": "address"
        },
        {
          "internalType": "contract ITokenDAO",
          "name": "_daoLogic",
          "type": "address"
        },
        {
          "internalType": "contract ITokenHolderFactory",
          "name": "_tokenHolderFactory",
          "type": "address"
        },
        {
          "internalType": "contract IGovernorTransferToken",
          "name": "_tokenTransferLogic",
          "type": "address"
        }
      ],
      "name": "initialize",
      "outputs": [],
      "stateMutability": "nonpayable",
      "type": "function"
    },
    {
      "inputs": [],
      "name": "owner",
      "outputs": [
        {
          "internalType": "address",
          "name": "",
          "type": "address"
        }
      ],
      "stateMutability": "view",
      "type": "function"
    },
    {
      "inputs": [],
      "name": "renounceOwnership",
      "outputs": [],
      "stateMutability": "nonpayable",
      "type": "function"
    },
    {
      "inputs": [
        {
          "internalType": "address",
          "name": "newOwner",
          "type": "address"
        }
      ],
      "name": "transferOwnership",
      "outputs": [],
      "stateMutability": "nonpayable",
      "type": "function"
    },
    {
      "inputs": [
        {
          "internalType": "contract ITokenDAO",
          "name": "_newImpl",
          "type": "address"
        }
      ],
      "name": "upgradeTokenDaoLogicImplementation",
      "outputs": [],
      "stateMutability": "nonpayable",
      "type": "function"
    },
    {
      "inputs": [
        {
          "internalType": "contract ITokenHolderFactory",
          "name": "_newTokenHolderFactory",
          "type": "address"
        }
      ],
      "name": "upgradeTokenHolderFactory",
      "outputs": [],
      "stateMutability": "nonpayable",
      "type": "function"
    },
    {
      "inputs": [
        {
          "internalType": "contract IGovernorTransferToken",
          "name": "_newImpl",
          "type": "address"
        }
      ],
      "name": "upgradeTokenTransferLogicImplementation",
      "outputs": [],
      "stateMutability": "nonpayable",
      "type": "function"
    }
  ],
  "bytecode": "0x608060405234801561001057600080fd5b5061201b806100206000396000f3fe60806040523480156200001157600080fd5b50600436106200009a5760003560e01c80631459457a146200009f578063204a910c14620000b8578063242e86d214620000cf578063415cc7dd14620000e6578063715018a6146200010857806374d44434146200011257806386e8bc8214620001295780638da5cb5b146200014f578063f2fde38b1462000159578063f7f49f0c1462000170575b600080fd5b620000b6620000b036600462000d37565b6200017a565b005b620000b6620000c936600462000db3565b620003fb565b620000b6620000e036600462000db3565b620004a6565b620000f06200054c565b604051620000ff919062000dda565b60405180910390f35b620000b6620005b0565b620000b66200012336600462000db3565b620005c8565b620001406200013a36600462000e74565b62000678565b604051620000ff919062000f4a565b620001406200098c565b620000b66200016a36600462000db3565b6200099b565b6200014062000a1a565b600054610100900460ff16158080156200019b5750600054600160ff909116105b80620001b75750303b158015620001b7575060005460ff166001145b620002205760405162461bcd60e51b815260206004820152602e60248201527f496e697469616c697a61626c653a20636f6e747261637420697320616c72656160448201526d191e481a5b9a5d1a585b1a5e995960921b60648201526084015b60405180910390fd5b6000805460ff19166001179055801562000244576000805461ff0019166101001790555b6200024e62000a5b565b606680546001600160a01b038089166001600160a01b03199283161790925560658054888416908316179055606880548784169083168117909155606a805487851690841617905560698054938616939092169290921790556040805180820182526008815267546f6b656e44414f60c01b6020820152905160009160008051602062001fc683398151915291620002e7919062000fa6565b60405180910390a3606954604080518082018252600d81526c2a3930b739b332b92a37b5b2b760991b602082015290516001600160a01b039092169160009160008051602062001fc68339815191529162000343919062000fa6565b60405180910390a3606a546040805180820182526012815271546f6b656e486f6c646572466163746f727960701b602082015290516001600160a01b039092169160009160008051602062001fc683398151915291620003a4919062000fa6565b60405180910390a38015620003f3576000805461ff0019169055604051600181527f7f26b83ff96e1f2b6a682f133852f6798a09c465da95921460cefb38474024989060200160405180910390a15b505050505050565b6066546001600160a01b031633146200042957604051633b12922f60e11b8152600401620002179062000fbb565b606954604080518082018252600d81526c2a3930b739b332b92a37b5b2b760991b602082015290516001600160a01b0380851693169160008051602062001fc6833981519152916200047c919062000fa6565b60405180910390a3606980546001600160a01b0319166001600160a01b0392909216919091179055565b6066546001600160a01b03163314620004d457604051633b12922f60e11b8152600401620002179062000fbb565b6068546040805180820182526008815267546f6b656e44414f60c01b602082015290516001600160a01b0380851693169160008051602062001fc68339815191529162000522919062000fa6565b60405180910390a3606880546001600160a01b0319166001600160a01b0392909216919091179055565b60606067805480602002602001604051908101604052809291908181526020018280548015620005a657602002820191906000526020600020905b81546001600160a01b0316815260019091019060200180831162000587575b5050505050905090565b620005ba62000a8f565b620005c6600062000af2565b565b6066546001600160a01b03163314620005f657604051633b12922f60e11b8152600401620002179062000fbb565b606a546040805180820182526012815271546f6b656e486f6c646572466163746f727960701b602082015290516001600160a01b0380851693169160008051602062001fc6833981519152916200064e919062000fa6565b60405180910390a3606a80546001600160a01b0319166001600160a01b0392909216919091179055565b6000888103620006c85760405163d647364f60e01b815260206004820152601960248201527844414f466163746f72793a206e616d6520697320656d70747960381b604482015260640162000217565b6000879003620007175760405163d647364f60e01b815260206004820152601860248201527744414f466163746f72793a2075726c20697320656d70747960401b604482015260640162000217565b6001600160a01b0386166200077a5760405163d647364f60e01b815260206004820152602160248201527f44414f466163746f72793a20746f6b656e2061646472657373206973207a65726044820152606f60f81b606482015260840162000217565b6001600160a01b038b16620007dd5760405163d647364f60e01b815260206004820152602160248201527f44414f466163746f72793a2061646d696e2061646472657373206973207a65726044820152606f60f81b606482015260840162000217565b826000036200083a5760405163d647364f60e01b815260206004820152602160248201527f44414f466163746f72793a20766f74696e6720706572696f64206973207a65726044820152606f60f81b606482015260840162000217565b606a5460405163d7fbaa1960e01b81526000916001600160a01b03169063d7fbaa19906200086d908a9060040162000f4a565b6020604051808303816000875af11580156200088d573d6000803e3d6000fd5b505050506040513d601f19601f82011682018060405250810190620008b3919062000fec565b90506000620008c6888888888662000b44565b90506000620008da8e8e8e8e8e8762000bef565b9050846200092e57606780546001810182556000919091527f9787eeb91fe3101235e4a76063c7023ecb40f923f97916639c598592fa30d6ae0180546001600160a01b0319166001600160a01b0383161790555b7f70a627b2fddbcd4f524fdba067c5ae4e93f76045e5536edcc512dfe09dfe24e8818f8f8f8f8f8f8f8f8f8f604051620009739b9a9998979695949392919062001035565b60405180910390a19d9c50505050505050505050505050565b6033546001600160a01b031690565b620009a562000a8f565b6001600160a01b03811662000a0c5760405162461bcd60e51b815260206004820152602660248201527f4f776e61626c653a206e6577206f776e657220697320746865207a65726f206160448201526564647265737360d01b606482015260840162000217565b62000a178162000af2565b50565b6066546000906001600160a01b0316331462000a4b57604051633b12922f60e11b8152600401620002179062000fbb565b50606a546001600160a01b031690565b600054610100900460ff1662000a855760405162461bcd60e51b81526004016200021790620010ae565b620005c662000c86565b3362000a9a6200098c565b6001600160a01b031614620005c65760405162461bcd60e51b815260206004820181905260248201527f4f776e61626c653a2063616c6c6572206973206e6f7420746865206f776e6572604482015260640162000217565b603380546001600160a01b038381166001600160a01b0319831681179093556040519116919082907f8be0079c531659141344cd1fd0a4f28419497f9722a3daafe3b4186f6b6457e090600090a35050565b60695460009062000b5e906001600160a01b031662000cbb565b60655460405163091696cb60e11b81526001600160a01b03898116600483015260248201889052604482018790529182166064820152848216608482015260a4810188905291925082169063122d2d969060c401600060405180830381600087803b15801562000bcd57600080fd5b505af115801562000be2573d6000803e3d6000fd5b5050505095945050505050565b606854600090819062000c0b906001600160a01b031662000cbb565b60405163613d25bb60e01b81529091506001600160a01b0382169063613d25bb9062000c46908b908b908b908b908b908b90600401620010f9565b600060405180830381600087803b15801562000c6157600080fd5b505af115801562000c76573d6000803e3d6000fd5b50929a9950505050505050505050565b600054610100900460ff1662000cb05760405162461bcd60e51b81526004016200021790620010ae565b620005c63362000af2565b60665460405160009160609184916001600160a01b031690839062000ce09062000d13565b62000cee939291906200114a565b604051809103906000f08015801562000d0b573d6000803e3d6000fd5b509392505050565b610e44806200118283390190565b6001600160a01b038116811462000a1757600080fd5b600080600080600060a0868803121562000d5057600080fd5b853562000d5d8162000d21565b9450602086013562000d6f8162000d21565b9350604086013562000d818162000d21565b9250606086013562000d938162000d21565b9150608086013562000da58162000d21565b809150509295509295909350565b60006020828403121562000dc657600080fd5b813562000dd38162000d21565b9392505050565b6020808252825182820181905260009190848201906040850190845b8181101562000e1d5783516001600160a01b03168352928401929184019160010162000df6565b50909695505050505050565b60008083601f84011262000e3c57600080fd5b5081356001600160401b0381111562000e5457600080fd5b60208301915083602082850101111562000e6d57600080fd5b9250929050565b6000806000806000806000806000806101008b8d03121562000e9557600080fd5b8a3562000ea28162000d21565b995060208b01356001600160401b038082111562000ebf57600080fd5b62000ecd8e838f0162000e29565b909b50995060408d013591508082111562000ee757600080fd5b5062000ef68d828e0162000e29565b90985096505060608b013562000f0c8162000d21565b945060808b0135935060a08b0135925060c08b0135915060e08b0135801515811462000f3757600080fd5b809150509295989b9194979a5092959850565b6001600160a01b0391909116815260200190565b6000815180845260005b8181101562000f865760208185018101518683018201520162000f68565b506000602082860101526020601f19601f83011685010191505092915050565b60208152600062000dd3602083018462000f5e565b602080825260179082015276111053d19858dd1bdc9e4e88185d5d1a0819985a5b1959604a1b604082015260600190565b60006020828403121562000fff57600080fd5b815162000dd38162000d21565b81835281816020850137506000828201602090810191909152601f909101601f19169091010190565b6001600160a01b038c811682528b8116602083015261012060408301819052600091620010668483018d8f6200100c565b915083820360608501526200107d828b8d6200100c565b98166080840152505060a081019490945260c084019290925260e08301521515610100909101529695505050505050565b6020808252602b908201527f496e697469616c697a61626c653a20636f6e7472616374206973206e6f74206960408201526a6e697469616c697a696e6760a81b606082015260800190565b600060018060a01b038089168352608060208401526200111e60808401888a6200100c565b8381036040850152620011338187896200100c565b925050808416606084015250979650505050505050565b6001600160a01b03848116825283166020820152606060408201819052600090620011789083018462000f5e565b9594505050505056fe608060405260405162000e4438038062000e44833981016040819052620000269162000497565b828162000036828260006200004d565b50620000449050826200008a565b505050620005ca565b6200005883620000e5565b600082511180620000665750805b1562000085576200008383836200012760201b6200022e1760201c565b505b505050565b7f7e644d79422f17c01e4894b5f4f588d331ebfa28653d42ae832dc59e38c9798f620000b562000156565b604080516001600160a01b03928316815291841660208301520160405180910390a1620000e2816200018f565b50565b620000f08162000244565b6040516001600160a01b038216907fbc7cd75a20ee27fd9adebab32041f755214dbc6bffa90cc0225b39da2e5c2d3b90600090a250565b60606200014f838360405180606001604052806027815260200162000e1d60279139620002f8565b9392505050565b60006200018060008051602062000dfd83398151915260001b6200037760201b620001ea1760201c565b546001600160a01b0316919050565b6001600160a01b038116620001fa5760405162461bcd60e51b815260206004820152602660248201527f455243313936373a206e65772061646d696e20697320746865207a65726f206160448201526564647265737360d01b60648201526084015b60405180910390fd5b806200022360008051602062000dfd83398151915260001b6200037760201b620001ea1760201c565b80546001600160a01b0319166001600160a01b039290921691909117905550565b6200025a816200037a60201b6200025a1760201c565b620002be5760405162461bcd60e51b815260206004820152602d60248201527f455243313936373a206e657720696d706c656d656e746174696f6e206973206e60448201526c1bdd08184818dbdb9d1c9858dd609a1b6064820152608401620001f1565b80620002237f360894a13ba1a3210667c828492db98dca3e2076cc3735a920a3ca505d382bbc60001b6200037760201b620001ea1760201c565b6060600080856001600160a01b03168560405162000317919062000577565b600060405180830381855af49150503d806000811462000354576040519150601f19603f3d011682016040523d82523d6000602084013e62000359565b606091505b5090925090506200036d8683838762000389565b9695505050505050565b90565b6001600160a01b03163b151590565b60608315620003fd578251600003620003f557620003a7856200037a565b620003f55760405162461bcd60e51b815260206004820152601d60248201527f416464726573733a2063616c6c20746f206e6f6e2d636f6e74726163740000006044820152606401620001f1565b508162000409565b62000409838362000411565b949350505050565b815115620004225781518083602001fd5b8060405162461bcd60e51b8152600401620001f1919062000595565b80516001600160a01b03811681146200045657600080fd5b919050565b634e487b7160e01b600052604160045260246000fd5b60005b838110156200048e57818101518382015260200162000474565b50506000910152565b600080600060608486031215620004ad57600080fd5b620004b8846200043e565b9250620004c8602085016200043e565b60408501519092506001600160401b0380821115620004e657600080fd5b818601915086601f830112620004fb57600080fd5b8151818111156200051057620005106200045b565b604051601f8201601f19908116603f011681019083821181831017156200053b576200053b6200045b565b816040528281528960208487010111156200055557600080fd5b6200056883602083016020880162000471565b80955050505050509250925092565b600082516200058b81846020870162000471565b9190910192915050565b6020815260008251806020840152620005b681604085016020870162000471565b601f01601f19169190910160400192915050565b61082380620005da6000396000f3fe60806040526004361061004e5760003560e01c80633659cfe6146100655780634f1ef286146100855780635c60da1b146100985780638f283970146100c9578063f851a440146100e95761005d565b3661005d5761005b6100fe565b005b61005b6100fe565b34801561007157600080fd5b5061005b610080366004610676565b610118565b61005b610093366004610691565b610155565b3480156100a457600080fd5b506100ad6101bc565b6040516001600160a01b03909116815260200160405180910390f35b3480156100d557600080fd5b5061005b6100e4366004610676565b6101ed565b3480156100f557600080fd5b506100ad61020d565b610106610269565b6101166101116102fe565b610308565b565b61012061032c565b6001600160a01b0316330361014d5761014a8160405180602001604052806000815250600061034d565b50565b61014a6100fe565b61015d61032c565b6001600160a01b031633036101b4576101af8383838080601f0160208091040260200160405190810160405280939291908181526020018383808284376000920191909152506001925061034d915050565b505050565b6101af6100fe565b60006101c661032c565b6001600160a01b031633036101e2576101dd6102fe565b905090565b6101ea6100fe565b90565b6101f561032c565b6001600160a01b0316330361014d5761014a81610378565b600061021761032c565b6001600160a01b031633036101e2576101dd61032c565b606061025383836040518060600160405280602781526020016107c7602791396103cc565b9392505050565b6001600160a01b03163b151590565b61027161032c565b6001600160a01b031633036101165760405162461bcd60e51b815260206004820152604260248201527f5472616e73706172656e745570677261646561626c6550726f78793a2061646d60448201527f696e2063616e6e6f742066616c6c6261636b20746f2070726f78792074617267606482015261195d60f21b608482015260a4015b60405180910390fd5b60006101dd610444565b3660008037600080366000845af43d6000803e808015610327573d6000f35b3d6000fd5b60006000805160206107878339815191525b546001600160a01b0316919050565b6103568361045a565b6000825111806103635750805b156101af57610372838361022e565b50505050565b7f7e644d79422f17c01e4894b5f4f588d331ebfa28653d42ae832dc59e38c9798f6103a161032c565b604080516001600160a01b03928316815291841660208301520160405180910390a161014a8161049a565b6060600080856001600160a01b0316856040516103e99190610737565b600060405180830381855af49150503d8060008114610424576040519150601f19603f3d011682016040523d82523d6000602084013e610429565b606091505b509150915061043a86838387610531565b9695505050505050565b60006000805160206107a783398151915261033e565b610463816105b0565b6040516001600160a01b038216907fbc7cd75a20ee27fd9adebab32041f755214dbc6bffa90cc0225b39da2e5c2d3b90600090a250565b6001600160a01b0381166104ff5760405162461bcd60e51b815260206004820152602660248201527f455243313936373a206e65772061646d696e20697320746865207a65726f206160448201526564647265737360d01b60648201526084016102f5565b806000805160206107878339815191525b80546001600160a01b0319166001600160a01b039290921691909117905550565b6060831561059e5782516000036105975761054b8561025a565b6105975760405162461bcd60e51b815260206004820152601d60248201527f416464726573733a2063616c6c20746f206e6f6e2d636f6e747261637400000060448201526064016102f5565b50816105a8565b6105a88383610630565b949350505050565b6105b98161025a565b61061b5760405162461bcd60e51b815260206004820152602d60248201527f455243313936373a206e657720696d706c656d656e746174696f6e206973206e60448201526c1bdd08184818dbdb9d1c9858dd609a1b60648201526084016102f5565b806000805160206107a7833981519152610510565b8151156106405781518083602001fd5b8060405162461bcd60e51b81526004016102f59190610753565b80356001600160a01b038116811461067157600080fd5b919050565b60006020828403121561068857600080fd5b6102538261065a565b6000806000604084860312156106a657600080fd5b6106af8461065a565b925060208401356001600160401b03808211156106cb57600080fd5b818601915086601f8301126106df57600080fd5b8135818111156106ee57600080fd5b87602082850101111561070057600080fd5b6020830194508093505050509250925092565b60005b8381101561072e578181015183820152602001610716565b50506000910152565b60008251610749818460208701610713565b9190910192915050565b6020815260008251806020840152610772816040850160208701610713565b601f01601f1916919091016040019291505056feb53127684a568b3173ae13b9f8a6016e243e63b6e8ee1178d6a717850b5d6103360894a13ba1a3210667c828492db98dca3e2076cc3735a920a3ca505d382bbc416464726573733a206c6f772d6c6576656c2064656c65676174652063616c6c206661696c6564a26469706673582212204433d45c6a09820eaaf32b7d14a27e34b6394f971bf833e4b517275aea53355964736f6c63430008110033b53127684a568b3173ae13b9f8a6016e243e63b6e8ee1178d6a717850b5d6103416464726573733a206c6f772d6c6576656c2064656c65676174652063616c6c206661696c6564cf9d4a2ff924c5f3553e3c8485e6bc24fde822593d2c3d78c8fabaada123f8f6a264697066735822122041a71d94cec82fe07899013d5a8ec78c6e6ba3909923b1f53bdb2f48dbe12e2e64736f6c63430008110033",
  "linkReferences": {},
  "deployedLinkReferences": {}
}