{
  "_format": "hh-sol-artifact-1",
  "contractName": "HederaGnosisSafe",
  "sourceName": "contracts/gnosis/HederaGnosisSafe.sol",
  "abi": [
    {
      "anonymous": false,
      "inputs": [
        {
          "indexed": false,
          "internalType": "address",
          "name": "owner",
          "type": "address"
        }
      ],
      "name": "AddedOwner",
      "type": "event"
    },
    {
      "anonymous": false,
      "inputs": [
        {
          "indexed": true,
          "internalType": "bytes32",
          "name": "approvedHash",
          "type": "bytes32"
        },
        {
          "indexed": true,
          "internalType": "address",
          "name": "owner",
          "type": "address"
        }
      ],
      "name": "ApproveHash",
      "type": "event"
    },
    {
      "anonymous": false,
      "inputs": [
        {
          "indexed": false,
          "internalType": "address",
          "name": "handler",
          "type": "address"
        }
      ],
      "name": "ChangedFallbackHandler",
      "type": "event"
    },
    {
      "anonymous": false,
      "inputs": [
        {
          "indexed": false,
          "internalType": "address",
          "name": "guard",
          "type": "address"
        }
      ],
      "name": "ChangedGuard",
      "type": "event"
    },
    {
      "anonymous": false,
      "inputs": [
        {
          "indexed": false,
          "internalType": "uint256",
          "name": "threshold",
          "type": "uint256"
        }
      ],
      "name": "ChangedThreshold",
      "type": "event"
    },
    {
      "anonymous": false,
      "inputs": [
        {
          "indexed": false,
          "internalType": "address",
          "name": "module",
          "type": "address"
        }
      ],
      "name": "DisabledModule",
      "type": "event"
    },
    {
      "anonymous": false,
      "inputs": [
        {
          "indexed": false,
          "internalType": "address",
          "name": "module",
          "type": "address"
        }
      ],
      "name": "EnabledModule",
      "type": "event"
    },
    {
      "anonymous": false,
      "inputs": [
        {
          "indexed": false,
          "internalType": "bytes32",
          "name": "txHash",
          "type": "bytes32"
        },
        {
          "indexed": false,
          "internalType": "uint256",
          "name": "payment",
          "type": "uint256"
        }
      ],
      "name": "ExecutionFailure",
      "type": "event"
    },
    {
      "anonymous": false,
      "inputs": [
        {
          "indexed": true,
          "internalType": "address",
          "name": "module",
          "type": "address"
        }
      ],
      "name": "ExecutionFromModuleFailure",
      "type": "event"
    },
    {
      "anonymous": false,
      "inputs": [
        {
          "indexed": true,
          "internalType": "address",
          "name": "module",
          "type": "address"
        }
      ],
      "name": "ExecutionFromModuleSuccess",
      "type": "event"
    },
    {
      "anonymous": false,
      "inputs": [
        {
          "indexed": false,
          "internalType": "bytes32",
          "name": "txHash",
          "type": "bytes32"
        },
        {
          "indexed": false,
          "internalType": "uint256",
          "name": "payment",
          "type": "uint256"
        }
      ],
      "name": "ExecutionSuccess",
      "type": "event"
    },
    {
      "anonymous": false,
      "inputs": [
        {
          "indexed": false,
          "internalType": "address",
          "name": "owner",
          "type": "address"
        }
      ],
      "name": "RemovedOwner",
      "type": "event"
    },
    {
      "anonymous": false,
      "inputs": [
        {
          "indexed": true,
          "internalType": "address",
          "name": "sender",
          "type": "address"
        },
        {
          "indexed": false,
          "internalType": "uint256",
          "name": "value",
          "type": "uint256"
        }
      ],
      "name": "SafeReceived",
      "type": "event"
    },
    {
      "anonymous": false,
      "inputs": [
        {
          "indexed": true,
          "internalType": "address",
          "name": "initiator",
          "type": "address"
        },
        {
          "indexed": false,
          "internalType": "address[]",
          "name": "owners",
          "type": "address[]"
        },
        {
          "indexed": false,
          "internalType": "uint256",
          "name": "threshold",
          "type": "uint256"
        },
        {
          "indexed": false,
          "internalType": "address",
          "name": "initializer",
          "type": "address"
        },
        {
          "indexed": false,
          "internalType": "address",
          "name": "fallbackHandler",
          "type": "address"
        }
      ],
      "name": "SafeSetup",
      "type": "event"
    },
    {
      "anonymous": false,
      "inputs": [
        {
          "indexed": true,
          "internalType": "bytes32",
          "name": "msgHash",
          "type": "bytes32"
        }
      ],
      "name": "SignMsg",
      "type": "event"
    },
    {
      "anonymous": false,
      "inputs": [
        {
          "indexed": false,
          "internalType": "address",
          "name": "token",
          "type": "address"
        }
      ],
      "name": "TokenAssociated",
      "type": "event"
    },
    {
      "anonymous": false,
      "inputs": [
        {
          "indexed": true,
          "internalType": "address",
          "name": "token",
          "type": "address"
        },
        {
          "indexed": true,
          "internalType": "address",
          "name": "sender",
          "type": "address"
        },
        {
          "indexed": true,
          "internalType": "uint256",
          "name": "amount",
          "type": "uint256"
        }
      ],
      "name": "TokenTransferred",
      "type": "event"
    },
    {
      "stateMutability": "nonpayable",
      "type": "fallback"
    },
    {
      "inputs": [],
      "name": "VERSION",
      "outputs": [
        {
          "internalType": "string",
          "name": "",
          "type": "string"
        }
      ],
      "stateMutability": "view",
      "type": "function"
    },
    {
      "inputs": [
        {
          "internalType": "address",
          "name": "owner",
          "type": "address"
        },
        {
          "internalType": "uint256",
          "name": "_threshold",
          "type": "uint256"
        }
      ],
      "name": "addOwnerWithThreshold",
      "outputs": [],
      "stateMutability": "nonpayable",
      "type": "function"
    },
    {
      "inputs": [
        {
          "internalType": "bytes32",
          "name": "hashToApprove",
          "type": "bytes32"
        }
      ],
      "name": "approveHash",
      "outputs": [],
      "stateMutability": "nonpayable",
      "type": "function"
    },
    {
      "inputs": [
        {
          "internalType": "address",
          "name": "",
          "type": "address"
        },
        {
          "internalType": "bytes32",
          "name": "",
          "type": "bytes32"
        }
      ],
      "name": "approvedHashes",
      "outputs": [
        {
          "internalType": "uint256",
          "name": "",
          "type": "uint256"
        }
      ],
      "stateMutability": "view",
      "type": "function"
    },
    {
      "inputs": [
        {
          "internalType": "uint256",
          "name": "_threshold",
          "type": "uint256"
        }
      ],
      "name": "changeThreshold",
      "outputs": [],
      "stateMutability": "nonpayable",
      "type": "function"
    },
    {
      "inputs": [
        {
          "internalType": "bytes32",
          "name": "dataHash",
          "type": "bytes32"
        }
      ],
      "name": "checkApprovals",
      "outputs": [
        {
          "internalType": "bool",
          "name": "",
          "type": "bool"
        }
      ],
      "stateMutability": "view",
      "type": "function"
    },
    {
      "inputs": [
        {
          "internalType": "bytes32",
          "name": "dataHash",
          "type": "bytes32"
        },
        {
          "internalType": "bytes",
          "name": "data",
          "type": "bytes"
        },
        {
          "internalType": "bytes",
          "name": "signatures",
          "type": "bytes"
        },
        {
          "internalType": "uint256",
          "name": "requiredSignatures",
          "type": "uint256"
        }
      ],
      "name": "checkNSignatures",
      "outputs": [],
      "stateMutability": "view",
      "type": "function"
    },
    {
      "inputs": [
        {
          "internalType": "bytes32",
          "name": "dataHash",
          "type": "bytes32"
        },
        {
          "internalType": "bytes",
          "name": "data",
          "type": "bytes"
        },
        {
          "internalType": "bytes",
          "name": "signatures",
          "type": "bytes"
        }
      ],
      "name": "checkSignatures",
      "outputs": [],
      "stateMutability": "view",
      "type": "function"
    },
    {
      "inputs": [
        {
          "internalType": "address",
          "name": "prevModule",
          "type": "address"
        },
        {
          "internalType": "address",
          "name": "module",
          "type": "address"
        }
      ],
      "name": "disableModule",
      "outputs": [],
      "stateMutability": "nonpayable",
      "type": "function"
    },
    {
      "inputs": [],
      "name": "domainSeparator",
      "outputs": [
        {
          "internalType": "bytes32",
          "name": "",
          "type": "bytes32"
        }
      ],
      "stateMutability": "view",
      "type": "function"
    },
    {
      "inputs": [
        {
          "internalType": "address",
          "name": "module",
          "type": "address"
        }
      ],
      "name": "enableModule",
      "outputs": [],
      "stateMutability": "nonpayable",
      "type": "function"
    },
    {
      "inputs": [
        {
          "internalType": "address",
          "name": "to",
          "type": "address"
        },
        {
          "internalType": "uint256",
          "name": "value",
          "type": "uint256"
        },
        {
          "internalType": "bytes",
          "name": "data",
          "type": "bytes"
        },
        {
          "internalType": "enum Enum.Operation",
          "name": "operation",
          "type": "uint8"
        },
        {
          "internalType": "uint256",
          "name": "safeTxGas",
          "type": "uint256"
        },
        {
          "internalType": "uint256",
          "name": "baseGas",
          "type": "uint256"
        },
        {
          "internalType": "uint256",
          "name": "gasPrice",
          "type": "uint256"
        },
        {
          "internalType": "address",
          "name": "gasToken",
          "type": "address"
        },
        {
          "internalType": "address",
          "name": "refundReceiver",
          "type": "address"
        },
        {
          "internalType": "uint256",
          "name": "_nonce",
          "type": "uint256"
        }
      ],
      "name": "encodeTransactionData",
      "outputs": [
        {
          "internalType": "bytes",
          "name": "",
          "type": "bytes"
        }
      ],
      "stateMutability": "view",
      "type": "function"
    },
    {
      "inputs": [
        {
          "internalType": "address",
          "name": "",
          "type": "address"
        },
        {
          "internalType": "uint256",
          "name": "",
          "type": "uint256"
        },
        {
          "internalType": "bytes",
          "name": "",
          "type": "bytes"
        },
        {
          "internalType": "enum Enum.Operation",
          "name": "",
          "type": "uint8"
        },
        {
          "internalType": "uint256",
          "name": "",
          "type": "uint256"
        },
        {
          "internalType": "uint256",
          "name": "",
          "type": "uint256"
        },
        {
          "internalType": "uint256",
          "name": "",
          "type": "uint256"
        },
        {
          "internalType": "address",
          "name": "",
          "type": "address"
        },
        {
          "internalType": "address payable",
          "name": "",
          "type": "address"
        },
        {
          "internalType": "bytes",
          "name": "",
          "type": "bytes"
        }
      ],
      "name": "execTransaction",
      "outputs": [
        {
          "internalType": "bool",
          "name": "",
          "type": "bool"
        }
      ],
      "stateMutability": "payable",
      "type": "function"
    },
    {
      "inputs": [
        {
          "internalType": "address",
          "name": "to",
          "type": "address"
        },
        {
          "internalType": "uint256",
          "name": "value",
          "type": "uint256"
        },
        {
          "internalType": "bytes",
          "name": "data",
          "type": "bytes"
        },
        {
          "internalType": "enum Enum.Operation",
          "name": "operation",
          "type": "uint8"
        }
      ],
      "name": "execTransactionFromModule",
      "outputs": [
        {
          "internalType": "bool",
          "name": "success",
          "type": "bool"
        }
      ],
      "stateMutability": "nonpayable",
      "type": "function"
    },
    {
      "inputs": [
        {
          "internalType": "address",
          "name": "to",
          "type": "address"
        },
        {
          "internalType": "uint256",
          "name": "value",
          "type": "uint256"
        },
        {
          "internalType": "bytes",
          "name": "data",
          "type": "bytes"
        },
        {
          "internalType": "enum Enum.Operation",
          "name": "operation",
          "type": "uint8"
        }
      ],
      "name": "execTransactionFromModuleReturnData",
      "outputs": [
        {
          "internalType": "bool",
          "name": "success",
          "type": "bool"
        },
        {
          "internalType": "bytes",
          "name": "returnData",
          "type": "bytes"
        }
      ],
      "stateMutability": "nonpayable",
      "type": "function"
    },
    {
      "inputs": [
        {
          "internalType": "address",
          "name": "to",
          "type": "address"
        },
        {
          "internalType": "uint256",
          "name": "value",
          "type": "uint256"
        },
        {
          "internalType": "bytes",
          "name": "data",
          "type": "bytes"
        },
        {
          "internalType": "enum Enum.Operation",
          "name": "operation",
          "type": "uint8"
        },
        {
          "internalType": "uint256",
          "name": "nonce",
          "type": "uint256"
        }
      ],
      "name": "executeTransaction",
      "outputs": [
        {
          "internalType": "bool",
          "name": "success",
          "type": "bool"
        }
      ],
      "stateMutability": "payable",
      "type": "function"
    },
    {
      "inputs": [
        {
          "internalType": "bytes32",
          "name": "",
          "type": "bytes32"
        }
      ],
      "name": "executedHash",
      "outputs": [
        {
          "internalType": "bool",
          "name": "",
          "type": "bool"
        }
      ],
      "stateMutability": "view",
      "type": "function"
    },
    {
      "inputs": [],
      "name": "getChainId",
      "outputs": [
        {
          "internalType": "uint256",
          "name": "",
          "type": "uint256"
        }
      ],
      "stateMutability": "view",
      "type": "function"
    },
    {
      "inputs": [
        {
          "internalType": "address",
          "name": "start",
          "type": "address"
        },
        {
          "internalType": "uint256",
          "name": "pageSize",
          "type": "uint256"
        }
      ],
      "name": "getModulesPaginated",
      "outputs": [
        {
          "internalType": "address[]",
          "name": "array",
          "type": "address[]"
        },
        {
          "internalType": "address",
          "name": "next",
          "type": "address"
        }
      ],
      "stateMutability": "view",
      "type": "function"
    },
    {
      "inputs": [],
      "name": "getOwners",
      "outputs": [
        {
          "internalType": "address[]",
          "name": "",
          "type": "address[]"
        }
      ],
      "stateMutability": "view",
      "type": "function"
    },
    {
      "inputs": [
        {
          "internalType": "uint256",
          "name": "offset",
          "type": "uint256"
        },
        {
          "internalType": "uint256",
          "name": "length",
          "type": "uint256"
        }
      ],
      "name": "getStorageAt",
      "outputs": [
        {
          "internalType": "bytes",
          "name": "",
          "type": "bytes"
        }
      ],
      "stateMutability": "view",
      "type": "function"
    },
    {
      "inputs": [],
      "name": "getThreshold",
      "outputs": [
        {
          "internalType": "uint256",
          "name": "",
          "type": "uint256"
        }
      ],
      "stateMutability": "view",
      "type": "function"
    },
    {
      "inputs": [
        {
          "internalType": "address",
          "name": "to",
          "type": "address"
        },
        {
          "internalType": "uint256",
          "name": "value",
          "type": "uint256"
        },
        {
          "internalType": "bytes",
          "name": "data",
          "type": "bytes"
        },
        {
          "internalType": "enum Enum.Operation",
          "name": "operation",
          "type": "uint8"
        },
        {
          "internalType": "uint256",
          "name": "safeTxGas",
          "type": "uint256"
        },
        {
          "internalType": "uint256",
          "name": "baseGas",
          "type": "uint256"
        },
        {
          "internalType": "uint256",
          "name": "gasPrice",
          "type": "uint256"
        },
        {
          "internalType": "address",
          "name": "gasToken",
          "type": "address"
        },
        {
          "internalType": "address",
          "name": "refundReceiver",
          "type": "address"
        },
        {
          "internalType": "uint256",
          "name": "_nonce",
          "type": "uint256"
        }
      ],
      "name": "getTransactionHash",
      "outputs": [
        {
          "internalType": "bytes32",
          "name": "",
          "type": "bytes32"
        }
      ],
      "stateMutability": "view",
      "type": "function"
    },
    {
      "inputs": [
        {
          "internalType": "address",
          "name": "to",
          "type": "address"
        },
        {
          "internalType": "uint256",
          "name": "value",
          "type": "uint256"
        },
        {
          "internalType": "bytes",
          "name": "data",
          "type": "bytes"
        },
        {
          "internalType": "enum Enum.Operation",
          "name": "operation",
          "type": "uint8"
        }
      ],
      "name": "getTxnHash",
      "outputs": [
        {
          "internalType": "bytes32",
          "name": "",
          "type": "bytes32"
        },
        {
          "internalType": "uint256",
          "name": "",
          "type": "uint256"
        }
      ],
      "stateMutability": "nonpayable",
      "type": "function"
    },
    {
      "inputs": [
        {
          "internalType": "address",
          "name": "module",
          "type": "address"
        }
      ],
      "name": "isModuleEnabled",
      "outputs": [
        {
          "internalType": "bool",
          "name": "",
          "type": "bool"
        }
      ],
      "stateMutability": "view",
      "type": "function"
    },
    {
      "inputs": [
        {
          "internalType": "address",
          "name": "owner",
          "type": "address"
        }
      ],
      "name": "isOwner",
      "outputs": [
        {
          "internalType": "bool",
          "name": "",
          "type": "bool"
        }
      ],
      "stateMutability": "view",
      "type": "function"
    },
    {
      "inputs": [
        {
          "internalType": "bytes32",
          "name": "dataHash",
          "type": "bytes32"
        }
      ],
      "name": "isTransactionExecuted",
      "outputs": [
        {
          "internalType": "bool",
          "name": "",
          "type": "bool"
        }
      ],
      "stateMutability": "view",
      "type": "function"
    },
    {
      "inputs": [],
      "name": "nonce",
      "outputs": [
        {
          "internalType": "uint256",
          "name": "",
          "type": "uint256"
        }
      ],
      "stateMutability": "view",
      "type": "function"
    },
    {
      "inputs": [
        {
          "internalType": "address",
          "name": "prevOwner",
          "type": "address"
        },
        {
          "internalType": "address",
          "name": "owner",
          "type": "address"
        },
        {
          "internalType": "uint256",
          "name": "_threshold",
          "type": "uint256"
        }
      ],
      "name": "removeOwner",
      "outputs": [],
      "stateMutability": "nonpayable",
      "type": "function"
    },
    {
      "inputs": [
        {
          "internalType": "address",
          "name": "to",
          "type": "address"
        },
        {
          "internalType": "uint256",
          "name": "value",
          "type": "uint256"
        },
        {
          "internalType": "bytes",
          "name": "data",
          "type": "bytes"
        },
        {
          "internalType": "enum Enum.Operation",
          "name": "operation",
          "type": "uint8"
        }
      ],
      "name": "requiredTxGas",
      "outputs": [
        {
          "internalType": "uint256",
          "name": "",
          "type": "uint256"
        }
      ],
      "stateMutability": "nonpayable",
      "type": "function"
    },
    {
      "inputs": [
        {
          "internalType": "address",
          "name": "handler",
          "type": "address"
        }
      ],
      "name": "setFallbackHandler",
      "outputs": [],
      "stateMutability": "nonpayable",
      "type": "function"
    },
    {
      "inputs": [
        {
          "internalType": "address",
          "name": "guard",
          "type": "address"
        }
      ],
      "name": "setGuard",
      "outputs": [],
      "stateMutability": "nonpayable",
      "type": "function"
    },
    {
      "inputs": [
        {
          "internalType": "address[]",
          "name": "_owners",
          "type": "address[]"
        },
        {
          "internalType": "uint256",
          "name": "_threshold",
          "type": "uint256"
        },
        {
          "internalType": "address",
          "name": "to",
          "type": "address"
        },
        {
          "internalType": "bytes",
          "name": "data",
          "type": "bytes"
        },
        {
          "internalType": "address",
          "name": "fallbackHandler",
          "type": "address"
        },
        {
          "internalType": "address",
          "name": "paymentToken",
          "type": "address"
        },
        {
          "internalType": "uint256",
          "name": "payment",
          "type": "uint256"
        },
        {
          "internalType": "address payable",
          "name": "paymentReceiver",
          "type": "address"
        }
      ],
      "name": "setup",
      "outputs": [],
      "stateMutability": "nonpayable",
      "type": "function"
    },
    {
      "inputs": [
        {
          "internalType": "bytes32",
          "name": "",
          "type": "bytes32"
        }
      ],
      "name": "signedMessages",
      "outputs": [
        {
          "internalType": "uint256",
          "name": "",
          "type": "uint256"
        }
      ],
      "stateMutability": "view",
      "type": "function"
    },
    {
      "inputs": [
        {
          "internalType": "address",
          "name": "targetContract",
          "type": "address"
        },
        {
          "internalType": "bytes",
          "name": "calldataPayload",
          "type": "bytes"
        }
      ],
      "name": "simulateAndRevert",
      "outputs": [],
      "stateMutability": "nonpayable",
      "type": "function"
    },
    {
      "inputs": [
        {
          "internalType": "address",
          "name": "prevOwner",
          "type": "address"
        },
        {
          "internalType": "address",
          "name": "oldOwner",
          "type": "address"
        },
        {
          "internalType": "address",
          "name": "newOwner",
          "type": "address"
        }
      ],
      "name": "swapOwner",
      "outputs": [],
      "stateMutability": "nonpayable",
      "type": "function"
    },
    {
      "inputs": [
        {
          "internalType": "contract IBaseHTS",
          "name": "_baseHTS",
          "type": "address"
        },
        {
          "internalType": "address",
          "name": "_token",
          "type": "address"
        },
        {
          "internalType": "uint256",
          "name": "_amount",
          "type": "uint256"
        },
        {
          "internalType": "address",
          "name": "_sender",
          "type": "address"
        }
      ],
      "name": "transferToSafe",
      "outputs": [],
      "stateMutability": "nonpayable",
      "type": "function"
    },
    {
      "inputs": [
        {
          "internalType": "address",
          "name": "token",
          "type": "address"
        },
        {
          "internalType": "address",
          "name": "receiver",
          "type": "address"
        },
        {
          "internalType": "uint256",
          "name": "amount",
          "type": "uint256"
        }
      ],
      "name": "transferTokenViaSafe",
      "outputs": [
        {
          "internalType": "bool",
          "name": "transferred",
          "type": "bool"
        }
      ],
      "stateMutability": "nonpayable",
      "type": "function"
    },
    {
      "stateMutability": "payable",
      "type": "receive"
    }
  ],
  "bytecode": "0x608060405234801561001057600080fd5b50600160045561377e806100256000396000f3fe6080604052600436106101b95760003560e01c806302489a8e146102495780630d582f131461027e57806312fb68e0146102a05780632d9ad53d146102c05780632f54bf6e146102e05780633408e47014610300578063468721a71461031d5780635229073f1461033d5780635624b25b1461036b5780635ae6bd3714610398578063610b5925146103c5578063658af36b146103e5578063694e80c3146104055780636a7612021461042557806378eba15e146104385780637d8329741461046d5780639027e36f146104a5578063934f3a11146104d55780639681467f146104f5578063a0e67e2b14610508578063a7f173ab1461052a578063affed0e01461054a578063b4faba0914610560578063b63e800d14610580578063bb34db5a146105a0578063c4ca3a9c146105c0578063cc2f8452146105e0578063d4d9bdcd1461060e578063d8d11f781461062e578063e009cfde1461064e578063e19a9dd91461066e578063e318b52b1461068e578063e75235b8146106ae578063e86637db146106c3578063f08a0323146106e3578063f698da2514610703578063f8dc5dd914610718578063ffa1ad7414610738576101f5565b366101f55760405134815233907f3d0ce9bfc3ed7d6862dbb28b2dea94561fe714a1b4d019aa8af39730d1ad7c3d9060200160405180910390a2005b34801561020157600080fd5b5060008051602061372983398151915280548061021a57005b36600080373360601b365260008060143601600080855af190503d6000803e80610243573d6000fd5b503d6000f35b34801561025557600080fd5b50610269610264366004612925565b610769565b60405190151581526020015b60405180910390f35b34801561028a57600080fd5b5061029e610299366004612966565b61077e565b005b3480156102ac57600080fd5b5061029e6102bb366004612a34565b6108b5565b3480156102cc57600080fd5b506102696102db366004612aa8565b610d03565b3480156102ec57600080fd5b506102696102fb366004612aa8565b610d3e565b34801561030c57600080fd5b50465b604051908152602001610275565b34801561032957600080fd5b50610269610338366004612ad4565b610d76565b34801561034957600080fd5b5061035d610358366004612ad4565b610e4d565b604051610275929190612b8d565b34801561037757600080fd5b5061038b610386366004612ba8565b610e83565b6040516102759190612bca565b3480156103a457600080fd5b5061030f6103b3366004612925565b60076020526000908152604090205481565b3480156103d157600080fd5b5061029e6103e0366004612aa8565b610f08565b3480156103f157600080fd5b5061029e610400366004612bdd565b611026565b34801561041157600080fd5b5061029e610420366004612925565b61113b565b610269610433366004612c78565b6111bb565b34801561044457600080fd5b50610458610453366004612d50565b611212565b60408051928352602083019190915201610275565b34801561047957600080fd5b5061030f610488366004612966565b600860209081526000928352604080842090915290825290205481565b3480156104b157600080fd5b506102696104c0366004612925565b600a6020526000908152604090205460ff1681565b3480156104e157600080fd5b5061029e6104f0366004612dc0565b611252565b610269610503366004612e2c565b61129c565b34801561051457600080fd5b5061051d61165d565b6040516102759190612ef5565b34801561053657600080fd5b50610269610545366004612925565b61173b565b34801561055657600080fd5b5061030f60055481565b34801561056c57600080fd5b5061029e61057b366004612f08565b6117e4565b34801561058c57600080fd5b5061029e61059b366004612f57565b611807565b3480156105ac57600080fd5b506102696105bb36600461304b565b611909565b3480156105cc57600080fd5b5061030f6105db366004612d50565b61193f565b3480156105ec57600080fd5b506106006105fb366004612966565b6119d9565b60405161027592919061308c565b34801561061a57600080fd5b5061029e610629366004612925565b611ad2565b34801561063a57600080fd5b5061030f6106493660046130b6565b611b67565b34801561065a57600080fd5b5061029e610669366004613176565b611b94565b34801561067a57600080fd5b5061029e610689366004612aa8565b611cad565b34801561069a57600080fd5b5061029e6106a93660046131af565b611cf7565b3480156106ba57600080fd5b5060045461030f565b3480156106cf57600080fd5b5061038b6106de3660046130b6565b611ea8565b3480156106ef57600080fd5b5061029e6106fe366004612aa8565b611f81565b34801561070f57600080fd5b5061030f611fc1565b34801561072457600080fd5b5061029e61073336600461304b565b612018565b34801561074457600080fd5b5061038b604051806040016040528060058152602001640312e332e360dc1b81525081565b6000908152600a602052604090205460ff1690565b61078661215c565b6001600160a01b038216158015906107a857506001600160a01b038216600114155b80156107bd57506001600160a01b0382163014155b6107e25760405162461bcd60e51b81526004016107d9906131fa565b60405180910390fd5b6001600160a01b03828116600090815260026020526040902054161561081a5760405162461bcd60e51b81526004016107d990613219565b60026020526000805160206136e983398151915280546001600160a01b038481166000818152604081208054939094166001600160a01b0319938416179093556001835283549091161790915560038054916108758361324e565b9190505550600080516020613689833981519152826040516108979190613267565b60405180910390a180600454146108b1576108b18161113b565b5050565b6108c081604161217d565b825110156108f85760405162461bcd60e51b8152602060048201526005602482015264047533032360dc1b60448201526064016107d9565b6000808060008060005b86811015610cf7576041818102890160208101516040820151919092015160ff16955090935091506000849003610ad357919350839161094387604161217d565b82101561097a5760405162461bcd60e51b8152602060048201526005602482015264475330323160d81b60448201526064016107d9565b87516109878360206121b2565b11156109bd5760405162461bcd60e51b815260206004820152600560248201526423a998191960d91b60448201526064016107d9565b6020828901810151895190916109e09083906109da9087906121b2565b906121b2565b1115610a165760405162461bcd60e51b8152602060048201526005602482015264475330323360d81b60448201526064016107d9565b6040516320c13b0b60e01b8082528a8501602001916001600160a01b038916906320c13b0b90610a4c908f90869060040161327b565b602060405180830381865afa158015610a69573d6000803e3d6000fd5b505050506040513d601f19601f82011682018060405250810190610a8d91906132a0565b6001600160e01b03191614610acc5760405162461bcd60e51b815260206004820152600560248201526411d4cc0c8d60da1b60448201526064016107d9565b5050610c5d565b8360ff16600103610b55579193508391336001600160a01b0384161480610b1c57506001600160a01b03851660009081526008602090815260408083208d845290915290205415155b610b505760405162461bcd60e51b8152602060048201526005602482015264475330323560d81b60448201526064016107d9565b610c5d565b601e8460ff161115610c0b576040517b0ca2ba3432b932bab69029b4b3b732b21026b2b9b9b0b3b29d05199960211b6020820152603c81018b9052600190605c0160405160208183030381529060405280519060200120600486610bb991906132ca565b858560405160008152602001604052604051610bd894939291906132e3565b6020604051602081039080840390855afa158015610bfa573d6000803e3d6000fd5b505050602060405103519450610c5d565b60018a85858560405160008152602001604052604051610c2e94939291906132e3565b6020604051602081039080840390855afa158015610c50573d6000803e3d6000fd5b5050506020604051035194505b856001600160a01b0316856001600160a01b0316118015610c9757506001600160a01b038581166000908152600260205260409020541615155b8015610cad57506001600160a01b038516600114155b610ce15760405162461bcd60e51b815260206004820152600560248201526423a998191b60d91b60448201526064016107d9565b8495508080610cef9061324e565b915050610902565b50505050505050505050565b600060016001600160a01b03831614801590610d3857506001600160a01b038281166000908152600160205260409020541615155b92915050565b60006001600160a01b038216600114801590610d385750506001600160a01b0390811660009081526002602052604090205416151590565b600033600114801590610da05750336000908152600160205260409020546001600160a01b031615155b610dd45760405162461bcd60e51b815260206004820152600560248201526411d4cc4c0d60da1b60448201526064016107d9565b610de1858585855a6121ce565b90508015610e195760405133907f6895c13664aa4f67288b25d7a21d7aaa34916e355fb9b6fae0a139a9085becb890600090a2610e45565b60405133907facd2c8702804128fdb0db2bb49f6d127dd0181c13fd45dbfe16de0930e2bd37590600090a25b949350505050565b60006060610e5d86868686610d76565b915060405160203d0181016040523d81523d6000602083013e8091505094509492505050565b60606000610e92836020613301565b6001600160401b03811115610ea957610ea9612992565b6040519080825280601f01601f191660200182016040528015610ed3576020820181803683370190505b50905060005b83811015610f00578481015460208083028401015280610ef88161324e565b915050610ed9565b509392505050565b610f1061215c565b6001600160a01b03811615801590610f3257506001600160a01b038116600114155b610f4e5760405162461bcd60e51b81526004016107d990613318565b6001600160a01b038181166000908152600160205260409020541615610f9e5760405162461bcd60e51b815260206004820152600560248201526423a998981960d91b60448201526064016107d9565b600160208190526000805160206136a983398151915280546001600160a01b03848116600081815260408082208054949095166001600160a01b031994851617909455949094528254169092179055517fecdf3a3effea5783a3c4c2140e677577666428d44ed9d474a0b3a4c9943f84409061101b908390613267565b60405180910390a150565b6000611033853086612215565b90506015198101611076577fbbbf805ef99ca7d0b7d2cc769719f2a281c9b3331a3642efa75a712e3094a1668460405161106d9190613267565b60405180910390a15b61108385858430876122aa565b905060151981016110d45782826001600160a01b0316856001600160a01b03167f9c8515990fd8c61431c4ac8db9b81475f90c292a1dda77731e56c22e64fc764360405160405180910390a4611134565b60405162461bcd60e51b815260206004820152602f60248201527f486564657261476e6f736973536166653a207472616e7366657220746f6b656e60448201526e081d1bc81cd859994819985a5b1959608a1b60648201526084016107d9565b5050505050565b61114361215c565b6003548111156111655760405162461bcd60e51b81526004016107d990613337565b60018110156111865760405162461bcd60e51b81526004016107d990613356565b60048190556040518181527f610f7ff2b304ae8903c3de74c60c6ab1f7d6226b3f52c5161905bb5ad4039c939060200161101b565b60405162461bcd60e51b815260206004820152602360248201527f486564657261476e6f736973536166653a20415049206e6f7420617661696c61604482015262626c6560e81b60648201526000906084016107d9565b6000806000611240888888888860008060008060006009600081546112369061324e565b9182905550611b67565b60095490999098509650505050505050565b6004548061128a5760405162461bcd60e51b8152602060048201526005602482015264475330303160d81b60448201526064016107d9565b611296848484846108b5565b50505050565b60008060006112b7898989898960008060008060008e611ea8565b805160209091012091506112cc90508161173b565b6113155760405162461bcd60e51b815260206004820152601a60248201527913dddb995c881a185cc81b9bdd08185c1c1c9bdd9959081e595d60321b60448201526064016107d9565b61131e81610769565b1561137a5760405162461bcd60e51b815260206004820152602660248201527f486564657261476e6f736973536166653a2074786e20616c72656164792065786044820152651958dd5d195960d21b60648201526084016107d9565b6000818152600a60205260408120805460ff191660011790556113a96000805160206137098339815191525490565b90506001600160a01b0381161561143b576040805160208101825260008082529151633af85da960e11b81526001600160a01b038416926375f0bb5292611408928e928e928e928e928e929091829182918291829133906004016133ad565b600060405180830381600087803b15801561142257600080fd5b505af1158015611436573d6000803e3d6000fd5b505050505b61146961144b60006109c4613460565b603f61145960006040613301565b6114639190613473565b906123d9565b611475906101f4613460565b5a10156114ac5760405162461bcd60e51b8152602060048201526005602482015264047533031360dc1b60448201526064016107d9565b60005a90506115078a8a8a8a8080601f0160208091040260200160405190810160405280939291908181526020018383808284376000920191909152508c92506114f4915050565b6109c45a6115029190613495565b6121ce565b93506115145a82906123f0565b90508380611520575060005b80611529575060005b61155d5760405162461bcd60e51b8152602060048201526005602482015264475330313360d81b60448201526064016107d9565b600084156115a35760408051858152602081018390527f442e715f626346e8c54381002da614f62bee8d27386535b2521ec8540898556e910160405180910390a16115dd565b60408051858152602081018390527f23428b18acfb3ea64b08dc0c1d296ea9c09702c09083ca5272e64d115b687d23910160405180910390a15b50506001600160a01b0381161561165157604051631264e26d60e31b81526004810183905283151560248201526001600160a01b03821690639327136890604401600060405180830381600087803b15801561163857600080fd5b505af115801561164c573d6000803e3d6000fd5b505050505b50509695505050505050565b606060006003546001600160401b0381111561167b5761167b612992565b6040519080825280602002602001820160405280156116a4578160200160208202803683370190505b506001600090815260026020526000805160206136e983398151915254919250906001600160a01b03165b6001600160a01b03811660011461173357808383815181106116f3576116f36134a8565b6001600160a01b0392831660209182029290920181019190915291811660009081526002909252604090912054168161172b8161324e565b9250506116cf565b509092915050565b6001600090815260026020526000805160206136e98339815191525481906001600160a01b03165b6001600160a01b0381166001146117cd576001600160a01b03811660009081526008602090815260408083208784529091529020546001036117ad57816117a98161324e565b9250505b6001600160a01b0390811660009081526002602052604090205416611763565b600082118015610e45575050600454111592915050565b600080825160208401855af480600052503d6020523d600060403e60403d016000fd5b6118458a8a808060200260200160405190810160405280939291908181526020018383602002808284376000920191909152508c9250612511915050565b6001600160a01b0384161561185d5761185d846126df565b61189d8787878080601f0160208091040260200160405190810160405280939291908181526020018383808284376000920191909152506126f192505050565b81156118b4576118b28260006001868561240b565b505b336001600160a01b03167f141df868a6331af528e38c83b7aa03edc19be66e37ae67f9285bf4f8e3c6a1a88b8b8b8b896040516118f59594939291906134be565b60405180910390a250505050505050505050565b600033301461192a5760405162461bcd60e51b81526004016107d99061352a565b6119358484846127c7565b90505b9392505050565b6000805a9050611988878787878080601f01602080910402602001604051908101604052809392919081815260200183838082843760009201919091525089925050505a6121ce565b61199157600080fd5b60005a61199e9083613495565b9050806040516020016119b391815260200190565b60408051601f198184030181529082905262461bcd60e51b82526107d991600401612bca565b60606000826001600160401b038111156119f5576119f5612992565b604051908082528060200260200182016040528015611a1e578160200160208202803683370190505b506001600160a01b0380861660009081526001602052604081205492945091165b6001600160a01b03811615801590611a6157506001600160a01b038116600114155b8015611a6c57508482105b15611ac45780848381518110611a8457611a846134a8565b6001600160a01b03928316602091820292909201810191909152918116600090815260019092526040909120541681611abc8161324e565b925050611a3f565b908352919491935090915050565b336000908152600260205260409020546001600160a01b0316611b1f5760405162461bcd60e51b8152602060048201526005602482015264047533033360dc1b60448201526064016107d9565b336000818152600860209081526040808320858452909152808220600190555183917ff2a0eb156472d1440255b0d7c1e19cc07115d1051fe605b0dce69acfec884d9c91a350565b6000611b7c8c8c8c8c8c8c8c8c8c8c8c611ea8565b8051906020012090509b9a5050505050505050505050565b611b9c61215c565b6001600160a01b03811615801590611bbe57506001600160a01b038116600114155b611bda5760405162461bcd60e51b81526004016107d990613318565b6001600160a01b03828116600090815260016020526040902054811690821614611c2e5760405162461bcd60e51b8152602060048201526005602482015264475331303360d81b60448201526064016107d9565b6001600160a01b03818116600081815260016020526040808220805487861684528284208054919096166001600160a01b0319918216179095559290915281549092169055517faab4fa2b463f581b2b32cb3b7e3b704b9ce37cc209b5fb4d77e593ace405427690611ca1908390613267565b60405180910390a15050565b611cb561215c565b6000805160206137098339815191528181556040517f1151116914515bc0891ff9047a6cb32cf902546f83066499bcf8ba33d2353fa290611ca1908490613267565b611cff61215c565b6001600160a01b03811615801590611d2157506001600160a01b038116600114155b8015611d3657506001600160a01b0381163014155b611d525760405162461bcd60e51b81526004016107d9906131fa565b6001600160a01b038181166000908152600260205260409020541615611d8a5760405162461bcd60e51b81526004016107d990613219565b6001600160a01b03821615801590611dac57506001600160a01b038216600114155b611dc85760405162461bcd60e51b81526004016107d9906131fa565b6001600160a01b03838116600090815260026020526040902054811690831614611e045760405162461bcd60e51b81526004016107d990613549565b6001600160a01b03828116600081815260026020526040808220805486861680855283852080549288166001600160a01b03199384161790559589168452828420805482169096179095559290915281549092169055516000805160206136c983398151915290611e76908490613267565b60405180910390a160008051602061368983398151915281604051611e9b9190613267565b60405180910390a1505050565b606060007fbb8310d486368db6bd6f849402fdd73ad53d316b5a4b2644ad6efe0f941286d860001b8d8d8d8d604051611ee2929190613568565b604051908190038120611f08949392918e908e908e908e908e908e908e90602001613578565b60408051601f1981840301815291905280516020909101209050601960f81b600160f81b611f34611fc1565b6040516001600160f81b031993841660208201529290911660218301526022820152604281018290526062016040516020818303038152906040529150509b9a5050505050505050505050565b611f8961215c565b611f92816126df565b7f5ac6c46c93c8d0e53714ba3b53db3e7c046da994313d7ed0d192028bc7c228b08160405161101b9190613267565b60007f47e79534a245952e8b16893a336b85a3d9ea9fa8c573f3d803afb92a794692184660408051602081019390935282015230606082015260800160405160208183030381529060405280519060200120905090565b61202061215c565b8060016003546120309190613495565b101561204e5760405162461bcd60e51b81526004016107d990613337565b6001600160a01b0382161580159061207057506001600160a01b038216600114155b61208c5760405162461bcd60e51b81526004016107d9906131fa565b6001600160a01b038381166000908152600260205260409020548116908316146120c85760405162461bcd60e51b81526004016107d990613549565b6001600160a01b03828116600081815260026020526040808220805488861684529183208054929095166001600160a01b0319928316179094559181528254909116909155600380549161211b836135e7565b91905055506000805160206136c98339815191528260405161213d9190613267565b60405180910390a18060045414612157576121578161113b565b505050565b33301461217b5760405162461bcd60e51b81526004016107d99061352a565b565b60008260000361218f57506000610d38565b600061219b8385613301565b9050826121a88583613473565b1461193857600080fd5b6000806121bf8385613460565b90508381101561193857600080fd5b600060018360018111156121e4576121e4613375565b036121fc576000808551602087018986f4905061220c565b600080855160208701888a87f190505b95945050505050565b60006001600160a01b0383163b1561223957612232848484612858565b9050611938565b60405163f4a01e5b60e01b81526001600160a01b0385169063f4a01e5b9061226790869086906004016135fe565b6020604051808303816000875af1158015612286573d6000803e3d6000fd5b505050506040513d601f19601f820116820180604052508101906119359190613618565b6000306001600160a01b0385160361234c5760405163a9059cbb60e01b81526000906001600160a01b0387169063a9059cbb906122ed9087908790600401613631565b6020604051808303816000875af115801561230c573d6000803e3d6000fd5b505050506040513d601f19601f82011682018060405250810190612330919061364a565b90508061233e576015612341565b60165b60030b91505061220c565b6040516338044eab60e11b81526001600160a01b03868116600483015285811660248301528481166044830152606482018490528716906370089d56906084016020604051808303816000875af11580156123ab573d6000803e3d6000fd5b505050506040513d601f19601f820116820180604052508101906123cf9190613618565b9695505050505050565b6000818310156123e95781611938565b5090919050565b6000828211156123ff57600080fd5b6000610e458385613495565b6000806001600160a01b038316156124235782612425565b325b90506001600160a01b0384166124b8576124573a8610612445573a612447565b855b61245189896121b2565b9061217d565b6040519092506001600160a01b0382169083156108fc029084906000818181858888f193505050506124b35760405162461bcd60e51b8152602060048201526005602482015264475330313160d81b60448201526064016107d9565b612507565b6124c68561245189896121b2565b91506124d38482846127c7565b6125075760405162461bcd60e51b815260206004820152600560248201526423a998189960d91b60448201526064016107d9565b5095945050505050565b600454156125495760405162461bcd60e51b8152602060048201526005602482015264047533230360dc1b60448201526064016107d9565b815181111561256a5760405162461bcd60e51b81526004016107d990613337565b600181101561258b5760405162461bcd60e51b81526004016107d990613356565b600160005b83518110156126ac5760008482815181106125ad576125ad6134a8565b6020026020010151905060006001600160a01b0316816001600160a01b0316141580156125e457506001600160a01b038116600114155b80156125f957506001600160a01b0381163014155b80156126175750806001600160a01b0316836001600160a01b031614155b6126335760405162461bcd60e51b81526004016107d9906131fa565b6001600160a01b03818116600090815260026020526040902054161561266b5760405162461bcd60e51b81526004016107d990613219565b6001600160a01b03928316600090815260026020526040902080546001600160a01b03191693821693909317909255806126a48161324e565b915050612590565b506001600160a01b0316600090815260026020526040902080546001600160a01b03191660011790559051600355600455565b60008051602061372983398151915255565b600160008190526020526000805160206136a9833981519152546001600160a01b0316156127495760405162461bcd60e51b8152602060048201526005602482015264047533130360dc1b60448201526064016107d9565b6001600081905260208190526000805160206136a983398151915280546001600160a01b03191690911790556001600160a01b038216156108b1576127938260008360015a6121ce565b6108b15760405162461bcd60e51b8152602060048201526005602482015264047533030360dc1b60448201526064016107d9565b60008063a9059cbb84846040516024016127e2929190613631565b6040516020818303038152906040529060e01b6020820180516001600160e01b0383818316178352505050509050602060008251602084016000896127105a03f13d801561283b5760208114612843576000935061284e565b81935061284e565b600051158215171593505b5050509392505050565b6000806000856001600160a01b031663f4a01e5b60e01b86866040516024016128829291906135fe565b60408051601f198184030181529181526020820180516001600160e01b03166001600160e01b03199094169390931790925290516128c0919061366c565b600060405180830381855af49150503d80600081146128fb576040519150601f19603f3d011682016040523d82523d6000602084013e612900565b606091505b5091509150816129115760156123cf565b808060200190518101906123cf9190613618565b60006020828403121561293757600080fd5b5035919050565b6001600160a01b038116811461295357600080fd5b50565b80356129618161293e565b919050565b6000806040838503121561297957600080fd5b82356129848161293e565b946020939093013593505050565b634e487b7160e01b600052604160045260246000fd5b600082601f8301126129b957600080fd5b81356001600160401b03808211156129d3576129d3612992565b604051601f8301601f19908116603f011681019082821181831017156129fb576129fb612992565b81604052838152866020858801011115612a1457600080fd5b836020870160208301376000602085830101528094505050505092915050565b60008060008060808587031215612a4a57600080fd5b8435935060208501356001600160401b0380821115612a6857600080fd5b612a74888389016129a8565b94506040870135915080821115612a8a57600080fd5b50612a97878288016129a8565b949793965093946060013593505050565b600060208284031215612aba57600080fd5b81356119388161293e565b80356002811061296157600080fd5b60008060008060808587031215612aea57600080fd5b8435612af58161293e565b93506020850135925060408501356001600160401b03811115612b1757600080fd5b612b23878288016129a8565b925050612b3260608601612ac5565b905092959194509250565b60005b83811015612b58578181015183820152602001612b40565b50506000910152565b60008151808452612b79816020860160208601612b3d565b601f01601f19169290920160200192915050565b82151581526040602082015260006119356040830184612b61565b60008060408385031215612bbb57600080fd5b50508035926020909101359150565b6020815260006119386020830184612b61565b60008060008060808587031215612bf357600080fd5b8435612bfe8161293e565b93506020850135612c0e8161293e565b9250604085013591506060850135612c258161293e565b939692955090935050565b60008083601f840112612c4257600080fd5b5081356001600160401b03811115612c5957600080fd5b602083019150836020828501011115612c7157600080fd5b9250929050565b60008060008060008060008060008060006101408c8e031215612c9a57600080fd5b612ca38c612956565b9a5060208c013599506001600160401b0360408d0135811015612cc557600080fd5b612cd58e60408f01358f01612c30565b909a509850612ce660608e01612ac5565b975060808d0135965060a08d0135955060c08d01359450612d0960e08e01612956565b9350612d186101008e01612956565b9250806101208e01351115612d2c57600080fd5b50612d3e8d6101208e01358e016129a8565b90509295989b509295989b9093969950565b600080600080600060808688031215612d6857600080fd5b8535612d738161293e565b94506020860135935060408601356001600160401b03811115612d9557600080fd5b612da188828901612c30565b9094509250612db4905060608701612ac5565b90509295509295909350565b600080600060608486031215612dd557600080fd5b8335925060208401356001600160401b0380821115612df357600080fd5b612dff878388016129a8565b93506040860135915080821115612e1557600080fd5b50612e22868287016129a8565b9150509250925092565b60008060008060008060a08789031215612e4557600080fd5b8635612e508161293e565b95506020870135945060408701356001600160401b03811115612e7257600080fd5b612e7e89828a01612c30565b9095509350612e91905060608801612ac5565b9150608087013590509295509295509295565b6001600160a01b03169052565b600081518084526020808501945080840160005b83811015612eea5781516001600160a01b031687529582019590820190600101612ec5565b509495945050505050565b6020815260006119386020830184612eb1565b60008060408385031215612f1b57600080fd5b8235612f268161293e565b915060208301356001600160401b03811115612f4157600080fd5b612f4d858286016129a8565b9150509250929050565b6000806000806000806000806000806101008b8d031215612f7757600080fd5b8a356001600160401b0380821115612f8e57600080fd5b818d0191508d601f830112612fa257600080fd5b813581811115612fb157600080fd5b8e60208260051b8501011115612fc657600080fd5b60208381019d50909b508d01359950612fe160408e01612956565b985060608d0135915080821115612ff757600080fd5b506130048d828e01612c30565b9097509550613017905060808c01612956565b935061302560a08c01612956565b925060c08b0135915061303a60e08c01612956565b90509295989b9194979a5092959850565b60008060006060848603121561306057600080fd5b833561306b8161293e565b9250602084013561307b8161293e565b929592945050506040919091013590565b60408152600061309f6040830185612eb1565b905060018060a01b03831660208301529392505050565b60008060008060008060008060008060006101408c8e0312156130d857600080fd5b8b356130e38161293e565b9a5060208c0135995060408c01356001600160401b0381111561310557600080fd5b6131118e828f01612c30565b909a509850613124905060608d01612ac5565b965060808c0135955060a08c0135945060c08c0135935060e08c01356131498161293e565b92506101008c013561315a8161293e565b809250506101208c013590509295989b509295989b9093969950565b6000806040838503121561318957600080fd5b82356131948161293e565b915060208301356131a48161293e565b809150509250929050565b6000806000606084860312156131c457600080fd5b83356131cf8161293e565b925060208401356131df8161293e565b915060408401356131ef8161293e565b809150509250925092565b602080825260059082015264475332303360d81b604082015260600190565b60208082526005908201526411d4cc8c0d60da1b604082015260600190565b634e487b7160e01b600052601160045260246000fd5b60006001820161326057613260613238565b5060010190565b6001600160a01b0391909116815260200190565b60408152600061328e6040830185612b61565b828103602084015261220c8185612b61565b6000602082840312156132b257600080fd5b81516001600160e01b03198116811461193857600080fd5b60ff8281168282160390811115610d3857610d38613238565b93845260ff9290921660208401526040830152606082015260800190565b8082028115828204841417610d3857610d38613238565b602080825260059082015264475331303160d81b604082015260600190565b602080825260059082015264475332303160d81b604082015260600190565b60208082526005908201526423a999181960d91b604082015260600190565b634e487b7160e01b600052602160045260246000fd5b600281106133a957634e487b7160e01b600052602160045260246000fd5b9052565b6001600160a01b038d168152602081018c90526101606040820181905281018a905260006101808b8d828501376000838d01820152601f8c01601f191683016133f9606085018d61338b565b8a60808501528960a08501528860c085015261341860e0850189612ea4565b613426610100850188612ea4565b818482030161012085015261343d82820187612b61565b9250505061344f610140830184612ea4565b9d9c50505050505050505050505050565b80820180821115610d3857610d38613238565b60008261349057634e487b7160e01b600052601260045260246000fd5b500490565b81810381811115610d3857610d38613238565b634e487b7160e01b600052603260045260246000fd5b6080808252810185905260008660a08301825b888110156135015782356134e48161293e565b6001600160a01b03168252602092830192909101906001016134d1565b50602084019690965250506001600160a01b039283166040820152911660609091015292915050565b602080825260059082015264475330333160d81b604082015260600190565b602080825260059082015264475332303560d81b604082015260600190565b8183823760009101908152919050565b8b81526001600160a01b038b81166020830152604082018b9052606082018a90526101608201906135ac608084018b61338b565b60a083019890985260c082019690965260e0810194909452918516610100840152909316610120820152610140019190915295945050505050565b6000816135f6576135f6613238565b506000190190565b6001600160a01b0392831681529116602082015260400190565b60006020828403121561362a57600080fd5b5051919050565b6001600160a01b03929092168252602082015260400190565b60006020828403121561365c57600080fd5b8151801515811461193857600080fd5b6000825161367e818460208701612b3d565b919091019291505056fe9465fa0c962cc76958e6373a993326400c1c94f8be2fe3a952adfa7f60b2ea26cc69885fda6bcc1a4ace058b4a62bf5e179ea78fd58a1ccd71c22cc9b688792ff8d49fc529812e9a7c5c50e69c20f0dccc0db8fa95c98bc58cc9a4f1c1299eafe90b7bceb6e7df5418fb78d8ee546e97c83a08bbccc01a0644d599ccd2a7c2e04a204f620c8c5ccdca3fd54d003badd85ba500436a431f0cbda4f558c93c34c86c9a6c4a39284e37ed1cf53d337577d14212a4870fb976a4366c693b939918d5a26469706673582212207ed29271b93f75c5055eb4fc38c5c62b59d262bfcae2677adc078dcc1d86e38f64736f6c63430008110033",
  "linkReferences": {},
  "deployedLinkReferences": {}
}