{
  "_format": "hh-sol-artifact-1",
  "contractName": "HederaGnosisSafe",
  "sourceName": "contracts/gnosis/HederaGnosisSafe.sol",
  "abi": [
    {
      "anonymous": false,
      "inputs": [
        {
          "indexed": false,
          "internalType": "address",
          "name": "owner",
          "type": "address"
        }
      ],
      "name": "AddedOwner",
      "type": "event"
    },
    {
      "anonymous": false,
      "inputs": [
        {
          "indexed": true,
          "internalType": "bytes32",
          "name": "approvedHash",
          "type": "bytes32"
        },
        {
          "indexed": true,
          "internalType": "address",
          "name": "owner",
          "type": "address"
        }
      ],
      "name": "ApproveHash",
      "type": "event"
    },
    {
      "anonymous": false,
      "inputs": [
        {
          "indexed": false,
          "internalType": "address",
          "name": "handler",
          "type": "address"
        }
      ],
      "name": "ChangedFallbackHandler",
      "type": "event"
    },
    {
      "anonymous": false,
      "inputs": [
        {
          "indexed": false,
          "internalType": "address",
          "name": "guard",
          "type": "address"
        }
      ],
      "name": "ChangedGuard",
      "type": "event"
    },
    {
      "anonymous": false,
      "inputs": [
        {
          "indexed": false,
          "internalType": "uint256",
          "name": "threshold",
          "type": "uint256"
        }
      ],
      "name": "ChangedThreshold",
      "type": "event"
    },
    {
      "anonymous": false,
      "inputs": [
        {
          "indexed": false,
          "internalType": "address",
          "name": "module",
          "type": "address"
        }
      ],
      "name": "DisabledModule",
      "type": "event"
    },
    {
      "anonymous": false,
      "inputs": [
        {
          "indexed": false,
          "internalType": "address",
          "name": "module",
          "type": "address"
        }
      ],
      "name": "EnabledModule",
      "type": "event"
    },
    {
      "anonymous": false,
      "inputs": [
        {
          "indexed": false,
          "internalType": "bytes32",
          "name": "txHash",
          "type": "bytes32"
        },
        {
          "indexed": false,
          "internalType": "uint256",
          "name": "payment",
          "type": "uint256"
        }
      ],
      "name": "ExecutionFailure",
      "type": "event"
    },
    {
      "anonymous": false,
      "inputs": [
        {
          "indexed": true,
          "internalType": "address",
          "name": "module",
          "type": "address"
        }
      ],
      "name": "ExecutionFromModuleFailure",
      "type": "event"
    },
    {
      "anonymous": false,
      "inputs": [
        {
          "indexed": true,
          "internalType": "address",
          "name": "module",
          "type": "address"
        }
      ],
      "name": "ExecutionFromModuleSuccess",
      "type": "event"
    },
    {
      "anonymous": false,
      "inputs": [
        {
          "indexed": false,
          "internalType": "bytes32",
          "name": "txHash",
          "type": "bytes32"
        },
        {
          "indexed": false,
          "internalType": "uint256",
          "name": "payment",
          "type": "uint256"
        }
      ],
      "name": "ExecutionSuccess",
      "type": "event"
    },
    {
      "anonymous": false,
      "inputs": [
        {
          "indexed": false,
          "internalType": "uint8",
          "name": "version",
          "type": "uint8"
        }
      ],
      "name": "Initialized",
      "type": "event"
    },
    {
      "anonymous": false,
      "inputs": [
        {
          "indexed": false,
          "internalType": "address",
          "name": "owner",
          "type": "address"
        }
      ],
      "name": "RemovedOwner",
      "type": "event"
    },
    {
      "anonymous": false,
      "inputs": [
        {
          "indexed": true,
          "internalType": "address",
          "name": "sender",
          "type": "address"
        },
        {
          "indexed": false,
          "internalType": "uint256",
          "name": "value",
          "type": "uint256"
        }
      ],
      "name": "SafeReceived",
      "type": "event"
    },
    {
      "anonymous": false,
      "inputs": [
        {
          "indexed": true,
          "internalType": "address",
          "name": "initiator",
          "type": "address"
        },
        {
          "indexed": false,
          "internalType": "address[]",
          "name": "owners",
          "type": "address[]"
        },
        {
          "indexed": false,
          "internalType": "uint256",
          "name": "threshold",
          "type": "uint256"
        },
        {
          "indexed": false,
          "internalType": "address",
          "name": "initializer",
          "type": "address"
        },
        {
          "indexed": false,
          "internalType": "address",
          "name": "fallbackHandler",
          "type": "address"
        }
      ],
      "name": "SafeSetup",
      "type": "event"
    },
    {
      "anonymous": false,
      "inputs": [
        {
          "indexed": true,
          "internalType": "bytes32",
          "name": "msgHash",
          "type": "bytes32"
        }
      ],
      "name": "SignMsg",
      "type": "event"
    },
    {
      "anonymous": false,
      "inputs": [
        {
          "indexed": false,
          "internalType": "address",
          "name": "token",
          "type": "address"
        }
      ],
      "name": "TokenAssociated",
      "type": "event"
    },
    {
      "stateMutability": "nonpayable",
      "type": "fallback"
    },
    {
      "inputs": [],
      "name": "VERSION",
      "outputs": [
        {
          "internalType": "string",
          "name": "",
          "type": "string"
        }
      ],
      "stateMutability": "view",
      "type": "function"
    },
    {
      "inputs": [
        {
          "internalType": "address",
          "name": "owner",
          "type": "address"
        },
        {
          "internalType": "uint256",
          "name": "_threshold",
          "type": "uint256"
        }
      ],
      "name": "addOwnerWithThreshold",
      "outputs": [],
      "stateMutability": "nonpayable",
      "type": "function"
    },
    {
      "inputs": [
        {
          "internalType": "bytes32",
          "name": "hashToApprove",
          "type": "bytes32"
        }
      ],
      "name": "approveHash",
      "outputs": [],
      "stateMutability": "nonpayable",
      "type": "function"
    },
    {
      "inputs": [
        {
          "internalType": "address",
          "name": "",
          "type": "address"
        },
        {
          "internalType": "bytes32",
          "name": "",
          "type": "bytes32"
        }
      ],
      "name": "approvedHashes",
      "outputs": [
        {
          "internalType": "uint256",
          "name": "",
          "type": "uint256"
        }
      ],
      "stateMutability": "view",
      "type": "function"
    },
    {
      "inputs": [
        {
          "internalType": "contract IHederaService",
          "name": "_hederaService",
          "type": "address"
        },
        {
          "internalType": "address",
          "name": "_token",
          "type": "address"
        }
      ],
      "name": "associateToken",
      "outputs": [],
      "stateMutability": "nonpayable",
      "type": "function"
    },
    {
      "inputs": [
        {
          "internalType": "uint256",
          "name": "_threshold",
          "type": "uint256"
        }
      ],
      "name": "changeThreshold",
      "outputs": [],
      "stateMutability": "nonpayable",
      "type": "function"
    },
    {
      "inputs": [
        {
          "internalType": "bytes32",
          "name": "dataHash",
          "type": "bytes32"
        }
      ],
      "name": "checkApprovals",
      "outputs": [
        {
          "internalType": "bool",
          "name": "",
          "type": "bool"
        }
      ],
      "stateMutability": "view",
      "type": "function"
    },
    {
      "inputs": [
        {
          "internalType": "bytes32",
          "name": "dataHash",
          "type": "bytes32"
        },
        {
          "internalType": "bytes",
          "name": "data",
          "type": "bytes"
        },
        {
          "internalType": "bytes",
          "name": "signatures",
          "type": "bytes"
        },
        {
          "internalType": "uint256",
          "name": "requiredSignatures",
          "type": "uint256"
        }
      ],
      "name": "checkNSignatures",
      "outputs": [],
      "stateMutability": "view",
      "type": "function"
    },
    {
      "inputs": [
        {
          "internalType": "bytes32",
          "name": "dataHash",
          "type": "bytes32"
        },
        {
          "internalType": "bytes",
          "name": "data",
          "type": "bytes"
        },
        {
          "internalType": "bytes",
          "name": "signatures",
          "type": "bytes"
        }
      ],
      "name": "checkSignatures",
      "outputs": [],
      "stateMutability": "view",
      "type": "function"
    },
    {
      "inputs": [
        {
          "internalType": "address",
          "name": "prevModule",
          "type": "address"
        },
        {
          "internalType": "address",
          "name": "module",
          "type": "address"
        }
      ],
      "name": "disableModule",
      "outputs": [],
      "stateMutability": "nonpayable",
      "type": "function"
    },
    {
      "inputs": [],
      "name": "domainSeparator",
      "outputs": [
        {
          "internalType": "bytes32",
          "name": "",
          "type": "bytes32"
        }
      ],
      "stateMutability": "view",
      "type": "function"
    },
    {
      "inputs": [
        {
          "internalType": "address",
          "name": "module",
          "type": "address"
        }
      ],
      "name": "enableModule",
      "outputs": [],
      "stateMutability": "nonpayable",
      "type": "function"
    },
    {
      "inputs": [
        {
          "internalType": "address",
          "name": "to",
          "type": "address"
        },
        {
          "internalType": "uint256",
          "name": "value",
          "type": "uint256"
        },
        {
          "internalType": "bytes",
          "name": "data",
          "type": "bytes"
        },
        {
          "internalType": "enum Enum.Operation",
          "name": "operation",
          "type": "uint8"
        },
        {
          "internalType": "uint256",
          "name": "safeTxGas",
          "type": "uint256"
        },
        {
          "internalType": "uint256",
          "name": "baseGas",
          "type": "uint256"
        },
        {
          "internalType": "uint256",
          "name": "gasPrice",
          "type": "uint256"
        },
        {
          "internalType": "address",
          "name": "gasToken",
          "type": "address"
        },
        {
          "internalType": "address",
          "name": "refundReceiver",
          "type": "address"
        },
        {
          "internalType": "uint256",
          "name": "_nonce",
          "type": "uint256"
        }
      ],
      "name": "encodeTransactionData",
      "outputs": [
        {
          "internalType": "bytes",
          "name": "",
          "type": "bytes"
        }
      ],
      "stateMutability": "view",
      "type": "function"
    },
    {
      "inputs": [
        {
          "internalType": "address",
          "name": "",
          "type": "address"
        },
        {
          "internalType": "uint256",
          "name": "",
          "type": "uint256"
        },
        {
          "internalType": "bytes",
          "name": "",
          "type": "bytes"
        },
        {
          "internalType": "enum Enum.Operation",
          "name": "",
          "type": "uint8"
        },
        {
          "internalType": "uint256",
          "name": "",
          "type": "uint256"
        },
        {
          "internalType": "uint256",
          "name": "",
          "type": "uint256"
        },
        {
          "internalType": "uint256",
          "name": "",
          "type": "uint256"
        },
        {
          "internalType": "address",
          "name": "",
          "type": "address"
        },
        {
          "internalType": "address payable",
          "name": "",
          "type": "address"
        },
        {
          "internalType": "bytes",
          "name": "",
          "type": "bytes"
        }
      ],
      "name": "execTransaction",
      "outputs": [
        {
          "internalType": "bool",
          "name": "",
          "type": "bool"
        }
      ],
      "stateMutability": "payable",
      "type": "function"
    },
    {
      "inputs": [
        {
          "internalType": "address",
          "name": "to",
          "type": "address"
        },
        {
          "internalType": "uint256",
          "name": "value",
          "type": "uint256"
        },
        {
          "internalType": "bytes",
          "name": "data",
          "type": "bytes"
        },
        {
          "internalType": "enum Enum.Operation",
          "name": "operation",
          "type": "uint8"
        }
      ],
      "name": "execTransactionFromModule",
      "outputs": [
        {
          "internalType": "bool",
          "name": "success",
          "type": "bool"
        }
      ],
      "stateMutability": "nonpayable",
      "type": "function"
    },
    {
      "inputs": [
        {
          "internalType": "address",
          "name": "to",
          "type": "address"
        },
        {
          "internalType": "uint256",
          "name": "value",
          "type": "uint256"
        },
        {
          "internalType": "bytes",
          "name": "data",
          "type": "bytes"
        },
        {
          "internalType": "enum Enum.Operation",
          "name": "operation",
          "type": "uint8"
        }
      ],
      "name": "execTransactionFromModuleReturnData",
      "outputs": [
        {
          "internalType": "bool",
          "name": "success",
          "type": "bool"
        },
        {
          "internalType": "bytes",
          "name": "returnData",
          "type": "bytes"
        }
      ],
      "stateMutability": "nonpayable",
      "type": "function"
    },
    {
      "inputs": [
        {
          "internalType": "address",
          "name": "to",
          "type": "address"
        },
        {
          "internalType": "uint256",
          "name": "value",
          "type": "uint256"
        },
        {
          "internalType": "bytes",
          "name": "data",
          "type": "bytes"
        },
        {
          "internalType": "enum Enum.Operation",
          "name": "operation",
          "type": "uint8"
        },
        {
          "internalType": "uint256",
          "name": "nonce",
          "type": "uint256"
        }
      ],
      "name": "executeTransaction",
      "outputs": [
        {
          "internalType": "bool",
          "name": "success",
          "type": "bool"
        }
      ],
      "stateMutability": "payable",
      "type": "function"
    },
    {
      "inputs": [
        {
          "internalType": "bytes32",
          "name": "",
          "type": "bytes32"
        }
      ],
      "name": "executedHash",
      "outputs": [
        {
          "internalType": "bool",
          "name": "",
          "type": "bool"
        }
      ],
      "stateMutability": "view",
      "type": "function"
    },
    {
      "inputs": [
        {
          "internalType": "bytes32",
          "name": "dataHash",
          "type": "bytes32"
        }
      ],
      "name": "getApprovalCounts",
      "outputs": [
        {
          "internalType": "uint256",
          "name": "approvedCount",
          "type": "uint256"
        }
      ],
      "stateMutability": "view",
      "type": "function"
    },
    {
      "inputs": [],
      "name": "getChainId",
      "outputs": [
        {
          "internalType": "uint256",
          "name": "",
          "type": "uint256"
        }
      ],
      "stateMutability": "view",
      "type": "function"
    },
    {
      "inputs": [
        {
          "internalType": "address",
          "name": "start",
          "type": "address"
        },
        {
          "internalType": "uint256",
          "name": "pageSize",
          "type": "uint256"
        }
      ],
      "name": "getModulesPaginated",
      "outputs": [
        {
          "internalType": "address[]",
          "name": "array",
          "type": "address[]"
        },
        {
          "internalType": "address",
          "name": "next",
          "type": "address"
        }
      ],
      "stateMutability": "view",
      "type": "function"
    },
    {
      "inputs": [],
      "name": "getOwners",
      "outputs": [
        {
          "internalType": "address[]",
          "name": "",
          "type": "address[]"
        }
      ],
      "stateMutability": "view",
      "type": "function"
    },
    {
      "inputs": [
        {
          "internalType": "uint256",
          "name": "offset",
          "type": "uint256"
        },
        {
          "internalType": "uint256",
          "name": "length",
          "type": "uint256"
        }
      ],
      "name": "getStorageAt",
      "outputs": [
        {
          "internalType": "bytes",
          "name": "",
          "type": "bytes"
        }
      ],
      "stateMutability": "view",
      "type": "function"
    },
    {
      "inputs": [],
      "name": "getThreshold",
      "outputs": [
        {
          "internalType": "uint256",
          "name": "",
          "type": "uint256"
        }
      ],
      "stateMutability": "view",
      "type": "function"
    },
    {
      "inputs": [
        {
          "internalType": "address",
          "name": "to",
          "type": "address"
        },
        {
          "internalType": "uint256",
          "name": "value",
          "type": "uint256"
        },
        {
          "internalType": "bytes",
          "name": "data",
          "type": "bytes"
        },
        {
          "internalType": "enum Enum.Operation",
          "name": "operation",
          "type": "uint8"
        },
        {
          "internalType": "uint256",
          "name": "safeTxGas",
          "type": "uint256"
        },
        {
          "internalType": "uint256",
          "name": "baseGas",
          "type": "uint256"
        },
        {
          "internalType": "uint256",
          "name": "gasPrice",
          "type": "uint256"
        },
        {
          "internalType": "address",
          "name": "gasToken",
          "type": "address"
        },
        {
          "internalType": "address",
          "name": "refundReceiver",
          "type": "address"
        },
        {
          "internalType": "uint256",
          "name": "_nonce",
          "type": "uint256"
        }
      ],
      "name": "getTransactionHash",
      "outputs": [
        {
          "internalType": "bytes32",
          "name": "",
          "type": "bytes32"
        }
      ],
      "stateMutability": "view",
      "type": "function"
    },
    {
      "inputs": [
        {
          "internalType": "address",
          "name": "to",
          "type": "address"
        },
        {
          "internalType": "uint256",
          "name": "value",
          "type": "uint256"
        },
        {
          "internalType": "bytes",
          "name": "data",
          "type": "bytes"
        },
        {
          "internalType": "enum Enum.Operation",
          "name": "operation",
          "type": "uint8"
        }
      ],
      "name": "getTxnHash",
      "outputs": [
        {
          "internalType": "bytes32",
          "name": "",
          "type": "bytes32"
        },
        {
          "internalType": "uint256",
          "name": "",
          "type": "uint256"
        }
      ],
      "stateMutability": "nonpayable",
      "type": "function"
    },
    {
      "inputs": [
        {
          "internalType": "address",
          "name": "module",
          "type": "address"
        }
      ],
      "name": "isModuleEnabled",
      "outputs": [
        {
          "internalType": "bool",
          "name": "",
          "type": "bool"
        }
      ],
      "stateMutability": "view",
      "type": "function"
    },
    {
      "inputs": [
        {
          "internalType": "address",
          "name": "owner",
          "type": "address"
        }
      ],
      "name": "isOwner",
      "outputs": [
        {
          "internalType": "bool",
          "name": "",
          "type": "bool"
        }
      ],
      "stateMutability": "view",
      "type": "function"
    },
    {
      "inputs": [
        {
          "internalType": "bytes32",
          "name": "dataHash",
          "type": "bytes32"
        }
      ],
      "name": "isTransactionExecuted",
      "outputs": [
        {
          "internalType": "bool",
          "name": "",
          "type": "bool"
        }
      ],
      "stateMutability": "view",
      "type": "function"
    },
    {
      "inputs": [],
      "name": "nonce",
      "outputs": [
        {
          "internalType": "uint256",
          "name": "",
          "type": "uint256"
        }
      ],
      "stateMutability": "view",
      "type": "function"
    },
    {
      "inputs": [
        {
          "internalType": "address",
          "name": "prevOwner",
          "type": "address"
        },
        {
          "internalType": "address",
          "name": "owner",
          "type": "address"
        },
        {
          "internalType": "uint256",
          "name": "_threshold",
          "type": "uint256"
        }
      ],
      "name": "removeOwner",
      "outputs": [],
      "stateMutability": "nonpayable",
      "type": "function"
    },
    {
      "inputs": [
        {
          "internalType": "address",
          "name": "to",
          "type": "address"
        },
        {
          "internalType": "uint256",
          "name": "value",
          "type": "uint256"
        },
        {
          "internalType": "bytes",
          "name": "data",
          "type": "bytes"
        },
        {
          "internalType": "enum Enum.Operation",
          "name": "operation",
          "type": "uint8"
        }
      ],
      "name": "requiredTxGas",
      "outputs": [
        {
          "internalType": "uint256",
          "name": "",
          "type": "uint256"
        }
      ],
      "stateMutability": "nonpayable",
      "type": "function"
    },
    {
      "inputs": [
        {
          "internalType": "address",
          "name": "handler",
          "type": "address"
        }
      ],
      "name": "setFallbackHandler",
      "outputs": [],
      "stateMutability": "nonpayable",
      "type": "function"
    },
    {
      "inputs": [
        {
          "internalType": "address",
          "name": "guard",
          "type": "address"
        }
      ],
      "name": "setGuard",
      "outputs": [],
      "stateMutability": "nonpayable",
      "type": "function"
    },
    {
      "inputs": [
        {
          "internalType": "address[]",
          "name": "_owners",
          "type": "address[]"
        },
        {
          "internalType": "uint256",
          "name": "_threshold",
          "type": "uint256"
        },
        {
          "internalType": "address",
          "name": "to",
          "type": "address"
        },
        {
          "internalType": "bytes",
          "name": "data",
          "type": "bytes"
        },
        {
          "internalType": "address",
          "name": "fallbackHandler",
          "type": "address"
        },
        {
          "internalType": "address",
          "name": "paymentToken",
          "type": "address"
        },
        {
          "internalType": "uint256",
          "name": "payment",
          "type": "uint256"
        },
        {
          "internalType": "address payable",
          "name": "paymentReceiver",
          "type": "address"
        }
      ],
      "name": "setup",
      "outputs": [],
      "stateMutability": "nonpayable",
      "type": "function"
    },
    {
      "inputs": [
        {
          "internalType": "bytes32",
          "name": "",
          "type": "bytes32"
        }
      ],
      "name": "signedMessages",
      "outputs": [
        {
          "internalType": "uint256",
          "name": "",
          "type": "uint256"
        }
      ],
      "stateMutability": "view",
      "type": "function"
    },
    {
      "inputs": [
        {
          "internalType": "address",
          "name": "targetContract",
          "type": "address"
        },
        {
          "internalType": "bytes",
          "name": "calldataPayload",
          "type": "bytes"
        }
      ],
      "name": "simulateAndRevert",
      "outputs": [],
      "stateMutability": "nonpayable",
      "type": "function"
    },
    {
      "inputs": [
        {
          "internalType": "address",
          "name": "prevOwner",
          "type": "address"
        },
        {
          "internalType": "address",
          "name": "oldOwner",
          "type": "address"
        },
        {
          "internalType": "address",
          "name": "newOwner",
          "type": "address"
        }
      ],
      "name": "swapOwner",
      "outputs": [],
      "stateMutability": "nonpayable",
      "type": "function"
    },
    {
      "inputs": [
        {
          "internalType": "address",
          "name": "token",
          "type": "address"
        },
        {
          "internalType": "address",
          "name": "receiver",
          "type": "address"
        },
        {
          "internalType": "uint256",
          "name": "amount",
          "type": "uint256"
        }
      ],
      "name": "transferTokenViaSafe",
      "outputs": [],
      "stateMutability": "nonpayable",
      "type": "function"
    },
    {
      "stateMutability": "payable",
      "type": "receive"
    }
  ],
  "bytecode": "0x608060405234801561001057600080fd5b5060016004556137df806100256000396000f3fe6080604052600436106101c45760003560e01c806302489a8e146102545780630d582f131461028957806312fb68e0146102ab578063193f6b34146102cb5780632d9ad53d146102f95780632f54bf6e146103195780633408e47014610339578063468721a71461034c57806349146bde1461036c5780635229073f1461038c5780635624b25b146103ba5780635ae6bd37146103e7578063610b592514610414578063694e80c3146104345780636a7612021461045457806378eba15e146104675780637d8329741461049c5780639027e36f146104d4578063934f3a11146105045780639681467f14610524578063a0e67e2b14610537578063a7f173ab14610559578063affed0e014610579578063b4faba091461058f578063b63e800d146105af578063bb34db5a146105cf578063c4ca3a9c146105ef578063cc2f84521461060f578063d4d9bdcd1461063d578063d8d11f781461065d578063e009cfde1461067d578063e19a9dd91461069d578063e318b52b146106bd578063e75235b8146106dd578063e86637db146106f2578063f08a032314610712578063f698da2514610732578063f8dc5dd914610747578063ffa1ad741461076757610200565b366102005760405134815233907f3d0ce9bfc3ed7d6862dbb28b2dea94561fe714a1b4d019aa8af39730d1ad7c3d9060200160405180910390a2005b34801561020c57600080fd5b5060008051602061378a83398151915280548061022557005b36600080373360601b365260008060143601600080855af190503d6000803e8061024e573d6000fd5b503d6000f35b34801561026057600080fd5b5061027461026f3660046129d9565b610798565b60405190151581526020015b60405180910390f35b34801561029557600080fd5b506102a96102a4366004612a1a565b6107ad565b005b3480156102b757600080fd5b506102a96102c6366004612ae8565b6108e4565b3480156102d757600080fd5b506102eb6102e63660046129d9565b610d32565b604051908152602001610280565b34801561030557600080fd5b50610274610314366004612b5c565b610dc8565b34801561032557600080fd5b50610274610334366004612b5c565b610e03565b34801561034557600080fd5b50466102eb565b34801561035857600080fd5b50610274610367366004612b88565b610e3b565b34801561037857600080fd5b506102a9610387366004612bf1565b610f12565b34801561039857600080fd5b506103ac6103a7366004612b88565b610fef565b604051610280929190612c7a565b3480156103c657600080fd5b506103da6103d5366004612c95565b611025565b6040516102809190612cb7565b3480156103f357600080fd5b506102eb6104023660046129d9565b60076020526000908152604090205481565b34801561042057600080fd5b506102a961042f366004612b5c565b6110aa565b34801561044057600080fd5b506102a961044f3660046129d9565b6111c8565b610274610462366004612d12565b611248565b34801561047357600080fd5b50610487610482366004612dea565b61129f565b60408051928352602083019190915201610280565b3480156104a857600080fd5b506102eb6104b7366004612a1a565b600860209081526000928352604080842090915290825290205481565b3480156104e057600080fd5b506102746104ef3660046129d9565b603d6020526000908152604090205460ff1681565b34801561051057600080fd5b506102a961051f366004612e5a565b6112df565b610274610532366004612ec6565b611329565b34801561054357600080fd5b5061054c6116fc565b6040516102809190612f8f565b34801561056557600080fd5b506102746105743660046129d9565b6117da565b34801561058557600080fd5b506102eb60055481565b34801561059b57600080fd5b506102a96105aa366004612fa2565b611801565b3480156105bb57600080fd5b506102a96105ca366004612ff1565b611824565b3480156105db57600080fd5b506102a96105ea3660046130e5565b611926565b3480156105fb57600080fd5b506102eb61060a366004612dea565b6119b9565b34801561061b57600080fd5b5061062f61062a366004612a1a565b611a53565b604051610280929190613126565b34801561064957600080fd5b506102a96106583660046129d9565b611b4c565b34801561066957600080fd5b506102eb610678366004613150565b611be1565b34801561068957600080fd5b506102a9610698366004612bf1565b611c0e565b3480156106a957600080fd5b506102a96106b8366004612b5c565b611d27565b3480156106c957600080fd5b506102a96106d8366004613210565b611d71565b3480156106e957600080fd5b506004546102eb565b3480156106fe57600080fd5b506103da61070d366004613150565b611f15565b34801561071e57600080fd5b506102a961072d366004612b5c565b611fee565b34801561073e57600080fd5b506102eb61202e565b34801561075357600080fd5b506102a96107623660046130e5565b612085565b34801561077357600080fd5b506103da604051806040016040528060058152602001640312e332e360dc1b81525081565b6000908152603d602052604090205460ff1690565b6107b56121c4565b6001600160a01b038216158015906107d757506001600160a01b038216600114155b80156107ec57506001600160a01b0382163014155b6108115760405162461bcd60e51b81526004016108089061325b565b60405180910390fd5b6001600160a01b0382811660009081526002602052604090205416156108495760405162461bcd60e51b81526004016108089061327a565b600260205260008051602061374a83398151915280546001600160a01b038481166000818152604081208054939094166001600160a01b0319938416179093556001835283549091161790915560038054916108a4836132af565b91905055506000805160206136ea833981519152826040516108c691906132c8565b60405180910390a180600454146108e0576108e0816111c8565b5050565b6108ef8160416121e5565b825110156109275760405162461bcd60e51b8152602060048201526005602482015264047533032360dc1b6044820152606401610808565b6000808060008060005b86811015610d26576041818102890160208101516040820151919092015160ff16955090935091506000849003610b025791935083916109728760416121e5565b8210156109a95760405162461bcd60e51b8152602060048201526005602482015264475330323160d81b6044820152606401610808565b87516109b683602061221a565b11156109ec5760405162461bcd60e51b815260206004820152600560248201526423a998191960d91b6044820152606401610808565b602082890181015189519091610a0f908390610a0990879061221a565b9061221a565b1115610a455760405162461bcd60e51b8152602060048201526005602482015264475330323360d81b6044820152606401610808565b6040516320c13b0b60e01b8082528a8501602001916001600160a01b038916906320c13b0b90610a7b908f9086906004016132dc565b602060405180830381865afa158015610a98573d6000803e3d6000fd5b505050506040513d601f19601f82011682018060405250810190610abc9190613301565b6001600160e01b03191614610afb5760405162461bcd60e51b815260206004820152600560248201526411d4cc0c8d60da1b6044820152606401610808565b5050610c8c565b8360ff16600103610b84579193508391336001600160a01b0384161480610b4b57506001600160a01b03851660009081526008602090815260408083208d845290915290205415155b610b7f5760405162461bcd60e51b8152602060048201526005602482015264475330323560d81b6044820152606401610808565b610c8c565b601e8460ff161115610c3a576040517b0ca2ba3432b932bab69029b4b3b732b21026b2b9b9b0b3b29d05199960211b6020820152603c81018b9052600190605c0160405160208183030381529060405280519060200120600486610be8919061332b565b858560405160008152602001604052604051610c079493929190613344565b6020604051602081039080840390855afa158015610c29573d6000803e3d6000fd5b505050602060405103519450610c8c565b60018a85858560405160008152602001604052604051610c5d9493929190613344565b6020604051602081039080840390855afa158015610c7f573d6000803e3d6000fd5b5050506020604051035194505b856001600160a01b0316856001600160a01b0316118015610cc657506001600160a01b038581166000908152600260205260409020541615155b8015610cdc57506001600160a01b038516600114155b610d105760405162461bcd60e51b815260206004820152600560248201526423a998191b60d91b6044820152606401610808565b8495508080610d1e906132af565b915050610931565b50505050505050505050565b60016000908152600260205260008051602061374a833981519152546001600160a01b03165b6001600160a01b038116600114610dc2576001600160a01b0381166000908152600860209081526040808320868452909152902054600103610da25781610d9e816132af565b9250505b6001600160a01b0390811660009081526002602052604090205416610d58565b50919050565b600060016001600160a01b03831614801590610dfd57506001600160a01b038281166000908152600160205260409020541615155b92915050565b60006001600160a01b038216600114801590610dfd5750506001600160a01b0390811660009081526002602052604090205416151590565b600033600114801590610e655750336000908152600160205260409020546001600160a01b031615155b610e995760405162461bcd60e51b815260206004820152600560248201526411d4cc4c0d60da1b6044820152606401610808565b610ea6858585855a612236565b90508015610ede5760405133907f6895c13664aa4f67288b25d7a21d7aaa34916e355fb9b6fae0a139a9085becb890600090a2610f0a565b60405133907facd2c8702804128fdb0db2bb49f6d127dd0181c13fd45dbfe16de0930e2bd37590600090a25b949350505050565b333014610f315760405162461bcd60e51b815260040161080890613362565b6000610f3e83308461227d565b90506015198101610f85577fbbbf805ef99ca7d0b7d2cc769719f2a281c9b3331a3642efa75a712e3094a16682604051610f7891906132c8565b60405180910390a1505050565b60c28114610fea5760405162461bcd60e51b815260206004820152602c60248201527f486564657261476e6f736973536166653a206173736f63696174696f6e20666160448201526b696c656420746f207361666560a01b6064820152608401610808565b505050565b60006060610fff86868686610e3b565b915060405160203d0181016040523d81523d6000602083013e8091505094509492505050565b60606000611034836020613381565b6001600160401b0381111561104b5761104b612a46565b6040519080825280601f01601f191660200182016040528015611075576020820181803683370190505b50905060005b838110156110a257848101546020808302840101528061109a816132af565b91505061107b565b509392505050565b6110b26121c4565b6001600160a01b038116158015906110d457506001600160a01b038116600114155b6110f05760405162461bcd60e51b815260040161080890613398565b6001600160a01b0381811660009081526001602052604090205416156111405760405162461bcd60e51b815260206004820152600560248201526423a998981960d91b6044820152606401610808565b6001602081905260008051602061370a83398151915280546001600160a01b03848116600081815260408082208054949095166001600160a01b031994851617909455949094528254169092179055517fecdf3a3effea5783a3c4c2140e677577666428d44ed9d474a0b3a4c9943f8440906111bd9083906132c8565b60405180910390a150565b6111d06121c4565b6003548111156111f25760405162461bcd60e51b8152600401610808906133b7565b60018110156112135760405162461bcd60e51b8152600401610808906133d6565b60048190556040518181527f610f7ff2b304ae8903c3de74c60c6ab1f7d6226b3f52c5161905bb5ad4039c93906020016111bd565b60405162461bcd60e51b815260206004820152602360248201527f486564657261476e6f736973536166653a20415049206e6f7420617661696c61604482015262626c6560e81b6064820152600090608401610808565b60008060006112cd88888888886000806000806000603c600081546112c3906132af565b9182905550611be1565b603c5490999098509650505050505050565b600454806113175760405162461bcd60e51b8152602060048201526005602482015264475330303160d81b6044820152606401610808565b611323848484846108e4565b50505050565b6000611333612312565b60008061134c898989898960008060008060008e611f15565b805160209091012091506113619050816117da565b6113aa5760405162461bcd60e51b815260206004820152601a60248201527913dddb995c881a185cc81b9bdd08185c1c1c9bdd9959081e595d60321b6044820152606401610808565b6113b381610798565b1561140f5760405162461bcd60e51b815260206004820152602660248201527f486564657261476e6f736973536166653a2074786e20616c72656164792065786044820152651958dd5d195960d21b6064820152608401610808565b6000818152603d60205260408120805460ff1916600117905561143e60008051602061376a8339815191525490565b90506001600160a01b038116156114d0576040805160208101825260008082529151633af85da960e11b81526001600160a01b038416926375f0bb529261149d928e928e928e928e928e9290918291829182918291339060040161342d565b600060405180830381600087803b1580156114b757600080fd5b505af11580156114cb573d6000803e3d6000fd5b505050505b6114fe6114e060006109c46134e0565b603f6114ee60006040613381565b6114f891906134f3565b9061236b565b61150a906101f46134e0565b5a10156115415760405162461bcd60e51b8152602060048201526005602482015264047533031360dc1b6044820152606401610808565b60005a905061159c8a8a8a8a8080601f0160208091040260200160405190810160405280939291908181526020018383808284376000920191909152508c9250611589915050565b6109c45a6115979190613515565b612236565b93506115a95a8290612382565b905083806115b5575060005b806115be575060005b6115f25760405162461bcd60e51b8152602060048201526005602482015264475330313360d81b6044820152606401610808565b600084156116385760408051858152602081018390527f442e715f626346e8c54381002da614f62bee8d27386535b2521ec8540898556e910160405180910390a1611672565b60408051858152602081018390527f23428b18acfb3ea64b08dc0c1d296ea9c09702c09083ca5272e64d115b687d23910160405180910390a15b50506001600160a01b038116156116e657604051631264e26d60e31b81526004810183905283151560248201526001600160a01b03821690639327136890604401600060405180830381600087803b1580156116cd57600080fd5b505af11580156116e1573d6000803e3d6000fd5b505050505b50506116f26001600a55565b9695505050505050565b606060006003546001600160401b0381111561171a5761171a612a46565b604051908082528060200260200182016040528015611743578160200160208202803683370190505b5060016000908152600260205260008051602061374a83398151915254919250906001600160a01b03165b6001600160a01b0381166001146117d2578083838151811061179257611792613528565b6001600160a01b039283166020918202929092018101919091529181166000908152600290925260409091205416816117ca816132af565b92505061176e565b509092915050565b6000806117e683610d32565b90506000811180156117fa57506004548110155b9392505050565b600080825160208401855af480600052503d6020523d600060403e60403d016000fd5b6118628a8a808060200260200160405190810160405280939291908181526020018383602002808284376000920191909152508c92506124a3915050565b6001600160a01b0384161561187a5761187a84612671565b6118ba8787878080601f01602080910402602001604051908101604052809392919081815260200183838082843760009201919091525061268392505050565b81156118d1576118cf8260006001868561239d565b505b336001600160a01b03167f141df868a6331af528e38c83b7aa03edc19be66e37ae67f9285bf4f8e3c6a1a88b8b8b8b8960405161191295949392919061353e565b60405180910390a250505050505050505050565b3330146119455760405162461bcd60e51b815260040161080890613362565b600061195384308585612759565b9050601681146113235760405162461bcd60e51b815260206004820152602b60248201527f486564657261476e6f736973536166653a207472616e73666572206661696c6560448201526a642066726f6d207361666560a81b6064820152608401610808565b6000805a9050611a02878787878080601f01602080910402602001604051908101604052809392919081815260200183838082843760009201919091525089925050505a612236565b611a0b57600080fd5b60005a611a189083613515565b905080604051602001611a2d91815260200190565b60408051601f198184030181529082905262461bcd60e51b825261080891600401612cb7565b60606000826001600160401b03811115611a6f57611a6f612a46565b604051908082528060200260200182016040528015611a98578160200160208202803683370190505b506001600160a01b0380861660009081526001602052604081205492945091165b6001600160a01b03811615801590611adb57506001600160a01b038116600114155b8015611ae657508482105b15611b3e5780848381518110611afe57611afe613528565b6001600160a01b03928316602091820292909201810191909152918116600090815260019092526040909120541681611b36816132af565b925050611ab9565b908352919491935090915050565b336000908152600260205260409020546001600160a01b0316611b995760405162461bcd60e51b8152602060048201526005602482015264047533033360dc1b6044820152606401610808565b336000818152600860209081526040808320858452909152808220600190555183917ff2a0eb156472d1440255b0d7c1e19cc07115d1051fe605b0dce69acfec884d9c91a350565b6000611bf68c8c8c8c8c8c8c8c8c8c8c611f15565b8051906020012090509b9a5050505050505050505050565b611c166121c4565b6001600160a01b03811615801590611c3857506001600160a01b038116600114155b611c545760405162461bcd60e51b815260040161080890613398565b6001600160a01b03828116600090815260016020526040902054811690821614611ca85760405162461bcd60e51b8152602060048201526005602482015264475331303360d81b6044820152606401610808565b6001600160a01b03818116600081815260016020526040808220805487861684528284208054919096166001600160a01b0319918216179095559290915281549092169055517faab4fa2b463f581b2b32cb3b7e3b704b9ce37cc209b5fb4d77e593ace405427690611d1b9083906132c8565b60405180910390a15050565b611d2f6121c4565b60008051602061376a8339815191528181556040517f1151116914515bc0891ff9047a6cb32cf902546f83066499bcf8ba33d2353fa290611d1b9084906132c8565b611d796121c4565b6001600160a01b03811615801590611d9b57506001600160a01b038116600114155b8015611db057506001600160a01b0381163014155b611dcc5760405162461bcd60e51b81526004016108089061325b565b6001600160a01b038181166000908152600260205260409020541615611e045760405162461bcd60e51b81526004016108089061327a565b6001600160a01b03821615801590611e2657506001600160a01b038216600114155b611e425760405162461bcd60e51b81526004016108089061325b565b6001600160a01b03838116600090815260026020526040902054811690831614611e7e5760405162461bcd60e51b8152600401610808906135aa565b6001600160a01b03828116600081815260026020526040808220805486861680855283852080549288166001600160a01b031993841617905595891684528284208054821690961790955592909152815490921690555160008051602061372a83398151915290611ef09084906132c8565b60405180910390a16000805160206136ea83398151915281604051610f7891906132c8565b606060007fbb8310d486368db6bd6f849402fdd73ad53d316b5a4b2644ad6efe0f941286d860001b8d8d8d8d604051611f4f9291906135c9565b604051908190038120611f75949392918e908e908e908e908e908e908e906020016135d9565b60408051601f1981840301815291905280516020909101209050601960f81b600160f81b611fa161202e565b6040516001600160f81b031993841660208201529290911660218301526022820152604281018290526062016040516020818303038152906040529150509b9a5050505050505050505050565b611ff66121c4565b611fff81612671565b7f5ac6c46c93c8d0e53714ba3b53db3e7c046da994313d7ed0d192028bc7c228b0816040516111bd91906132c8565b60007f47e79534a245952e8b16893a336b85a3d9ea9fa8c573f3d803afb92a794692184660408051602081019390935282015230606082015260800160405160208183030381529060405280519060200120905090565b61208d6121c4565b80600160035461209d9190613515565b10156120bb5760405162461bcd60e51b8152600401610808906133b7565b6001600160a01b038216158015906120dd57506001600160a01b038216600114155b6120f95760405162461bcd60e51b81526004016108089061325b565b6001600160a01b038381166000908152600260205260409020548116908316146121355760405162461bcd60e51b8152600401610808906135aa565b6001600160a01b03828116600081815260026020526040808220805488861684529183208054929095166001600160a01b0319928316179094559181528254909116909155600380549161218883613648565b919050555060008051602061372a833981519152826040516121aa91906132c8565b60405180910390a18060045414610fea57610fea816111c8565b3330146121e35760405162461bcd60e51b815260040161080890613362565b565b6000826000036121f757506000610dfd565b60006122038385613381565b90508261221085836134f3565b146117fa57600080fd5b60008061222783856134e0565b9050838110156117fa57600080fd5b6000600183600181111561224c5761224c6133f5565b03612264576000808551602087018986f49050612274565b600080855160208701888a87f190505b95945050505050565b60006001600160a01b0383163b156122a15761229a84848461287b565b90506117fa565b60405163f4a01e5b60e01b81526001600160a01b0385169063f4a01e5b906122cf908690869060040161365f565b6020604051808303816000875af11580156122ee573d6000803e3d6000fd5b505050506040513d601f19601f82011682018060405250810190610f0a9190613679565b6002600a54036123645760405162461bcd60e51b815260206004820152601f60248201527f5265656e7472616e637947756172643a207265656e7472616e742063616c6c006044820152606401610808565b6002600a55565b60008183101561237b57816117fa565b5090919050565b60008282111561239157600080fd5b6000610f0a8385613515565b6000806001600160a01b038316156123b557826123b7565b325b90506001600160a01b03841661244a576123e93a86106123d7573a6123d9565b855b6123e3898961221a565b906121e5565b6040519092506001600160a01b0382169083156108fc029084906000818181858888f193505050506124455760405162461bcd60e51b8152602060048201526005602482015264475330313160d81b6044820152606401610808565b612499565b612458856123e3898961221a565b9150612465848284612948565b6124995760405162461bcd60e51b815260206004820152600560248201526423a998189960d91b6044820152606401610808565b5095945050505050565b600454156124db5760405162461bcd60e51b8152602060048201526005602482015264047533230360dc1b6044820152606401610808565b81518111156124fc5760405162461bcd60e51b8152600401610808906133b7565b600181101561251d5760405162461bcd60e51b8152600401610808906133d6565b600160005b835181101561263e57600084828151811061253f5761253f613528565b6020026020010151905060006001600160a01b0316816001600160a01b03161415801561257657506001600160a01b038116600114155b801561258b57506001600160a01b0381163014155b80156125a95750806001600160a01b0316836001600160a01b031614155b6125c55760405162461bcd60e51b81526004016108089061325b565b6001600160a01b0381811660009081526002602052604090205416156125fd5760405162461bcd60e51b81526004016108089061327a565b6001600160a01b03928316600090815260026020526040902080546001600160a01b0319169382169390931790925580612636816132af565b915050612522565b506001600160a01b0316600090815260026020526040902080546001600160a01b03191660011790559051600355600455565b60008051602061378a83398151915255565b6001600081905260205260008051602061370a833981519152546001600160a01b0316156126db5760405162461bcd60e51b8152602060048201526005602482015264047533130360dc1b6044820152606401610808565b60016000819052602081905260008051602061370a83398151915280546001600160a01b03191690911790556001600160a01b038216156108e0576127258260008360015a612236565b6108e05760405162461bcd60e51b8152602060048201526005602482015264047533030360dc1b6044820152606401610808565b600080306001600160a01b038616146127ec576040516323b872dd60e01b81526001600160a01b0386811660048301528581166024830152604482018590528716906323b872dd906064016020604051808303816000875af11580156127c3573d6000803e3d6000fd5b505050506040513d601f19601f820116820180604052508101906127e79190613692565b61285d565b60405163a9059cbb60e01b81526001600160a01b0387169063a9059cbb9061281a90879087906004016136b4565b6020604051808303816000875af1158015612839573d6000803e3d6000fd5b505050506040513d601f19601f8201168201806040525081019061285d9190613692565b90508061286b57601561286e565b60165b60030b9695505050505050565b6000806000856001600160a01b031663f4a01e5b60e01b86866040516024016128a592919061365f565b60408051601f198184030181529181526020820180516001600160e01b03166001600160e01b03199094169390931790925290516128e391906136cd565b600060405180830381855af49150503d806000811461291e576040519150601f19603f3d011682016040523d82523d6000602084013e612923565b606091505b5091509150816129345760156116f2565b808060200190518101906116f29190613679565b60008063a9059cbb84846040516024016129639291906136b4565b6040516020818303038152906040529060e01b6020820180516001600160e01b0383818316178352505050509050602060008251602084016000896127105a03f13d80156129bc57602081146129c457600093506129cf565b8193506129cf565b600051158215171593505b5050509392505050565b6000602082840312156129eb57600080fd5b5035919050565b6001600160a01b0381168114612a0757600080fd5b50565b8035612a15816129f2565b919050565b60008060408385031215612a2d57600080fd5b8235612a38816129f2565b946020939093013593505050565b634e487b7160e01b600052604160045260246000fd5b600082601f830112612a6d57600080fd5b81356001600160401b0380821115612a8757612a87612a46565b604051601f8301601f19908116603f01168101908282118183101715612aaf57612aaf612a46565b81604052838152866020858801011115612ac857600080fd5b836020870160208301376000602085830101528094505050505092915050565b60008060008060808587031215612afe57600080fd5b8435935060208501356001600160401b0380821115612b1c57600080fd5b612b2888838901612a5c565b94506040870135915080821115612b3e57600080fd5b50612b4b87828801612a5c565b949793965093946060013593505050565b600060208284031215612b6e57600080fd5b81356117fa816129f2565b803560028110612a1557600080fd5b60008060008060808587031215612b9e57600080fd5b8435612ba9816129f2565b93506020850135925060408501356001600160401b03811115612bcb57600080fd5b612bd787828801612a5c565b925050612be660608601612b79565b905092959194509250565b60008060408385031215612c0457600080fd5b8235612c0f816129f2565b91506020830135612c1f816129f2565b809150509250929050565b60005b83811015612c45578181015183820152602001612c2d565b50506000910152565b60008151808452612c66816020860160208601612c2a565b601f01601f19169290920160200192915050565b8215158152604060208201526000610f0a6040830184612c4e565b60008060408385031215612ca857600080fd5b50508035926020909101359150565b6020815260006117fa6020830184612c4e565b60008083601f840112612cdc57600080fd5b5081356001600160401b03811115612cf357600080fd5b602083019150836020828501011115612d0b57600080fd5b9250929050565b60008060008060008060008060008060006101408c8e031215612d3457600080fd5b612d3d8c612a0a565b9a5060208c013599506001600160401b0360408d0135811015612d5f57600080fd5b612d6f8e60408f01358f01612cca565b909a509850612d8060608e01612b79565b975060808d0135965060a08d0135955060c08d01359450612da360e08e01612a0a565b9350612db26101008e01612a0a565b9250806101208e01351115612dc657600080fd5b50612dd88d6101208e01358e01612a5c565b90509295989b509295989b9093969950565b600080600080600060808688031215612e0257600080fd5b8535612e0d816129f2565b94506020860135935060408601356001600160401b03811115612e2f57600080fd5b612e3b88828901612cca565b9094509250612e4e905060608701612b79565b90509295509295909350565b600080600060608486031215612e6f57600080fd5b8335925060208401356001600160401b0380821115612e8d57600080fd5b612e9987838801612a5c565b93506040860135915080821115612eaf57600080fd5b50612ebc86828701612a5c565b9150509250925092565b60008060008060008060a08789031215612edf57600080fd5b8635612eea816129f2565b95506020870135945060408701356001600160401b03811115612f0c57600080fd5b612f1889828a01612cca565b9095509350612f2b905060608801612b79565b9150608087013590509295509295509295565b6001600160a01b03169052565b600081518084526020808501945080840160005b83811015612f845781516001600160a01b031687529582019590820190600101612f5f565b509495945050505050565b6020815260006117fa6020830184612f4b565b60008060408385031215612fb557600080fd5b8235612fc0816129f2565b915060208301356001600160401b03811115612fdb57600080fd5b612fe785828601612a5c565b9150509250929050565b6000806000806000806000806000806101008b8d03121561301157600080fd5b8a356001600160401b038082111561302857600080fd5b818d0191508d601f83011261303c57600080fd5b81358181111561304b57600080fd5b8e60208260051b850101111561306057600080fd5b60208381019d50909b508d0135995061307b60408e01612a0a565b985060608d013591508082111561309157600080fd5b5061309e8d828e01612cca565b90975095506130b1905060808c01612a0a565b93506130bf60a08c01612a0a565b925060c08b013591506130d460e08c01612a0a565b90509295989b9194979a5092959850565b6000806000606084860312156130fa57600080fd5b8335613105816129f2565b92506020840135613115816129f2565b929592945050506040919091013590565b6040815260006131396040830185612f4b565b905060018060a01b03831660208301529392505050565b60008060008060008060008060008060006101408c8e03121561317257600080fd5b8b3561317d816129f2565b9a5060208c0135995060408c01356001600160401b0381111561319f57600080fd5b6131ab8e828f01612cca565b909a5098506131be905060608d01612b79565b965060808c0135955060a08c0135945060c08c0135935060e08c01356131e3816129f2565b92506101008c01356131f4816129f2565b809250506101208c013590509295989b509295989b9093969950565b60008060006060848603121561322557600080fd5b8335613230816129f2565b92506020840135613240816129f2565b91506040840135613250816129f2565b809150509250925092565b602080825260059082015264475332303360d81b604082015260600190565b60208082526005908201526411d4cc8c0d60da1b604082015260600190565b634e487b7160e01b600052601160045260246000fd5b6000600182016132c1576132c1613299565b5060010190565b6001600160a01b0391909116815260200190565b6040815260006132ef6040830185612c4e565b82810360208401526122748185612c4e565b60006020828403121561331357600080fd5b81516001600160e01b0319811681146117fa57600080fd5b60ff8281168282160390811115610dfd57610dfd613299565b93845260ff9290921660208401526040830152606082015260800190565b602080825260059082015264475330333160d81b604082015260600190565b8082028115828204841417610dfd57610dfd613299565b602080825260059082015264475331303160d81b604082015260600190565b602080825260059082015264475332303160d81b604082015260600190565b60208082526005908201526423a999181960d91b604082015260600190565b634e487b7160e01b600052602160045260246000fd5b6002811061342957634e487b7160e01b600052602160045260246000fd5b9052565b6001600160a01b038d168152602081018c90526101606040820181905281018a905260006101808b8d828501376000838d01820152601f8c01601f19168301613479606085018d61340b565b8a60808501528960a08501528860c085015261349860e0850189612f3e565b6134a6610100850188612f3e565b81848203016101208501526134bd82820187612c4e565b925050506134cf610140830184612f3e565b9d9c50505050505050505050505050565b80820180821115610dfd57610dfd613299565b60008261351057634e487b7160e01b600052601260045260246000fd5b500490565b81810381811115610dfd57610dfd613299565b634e487b7160e01b600052603260045260246000fd5b6080808252810185905260008660a08301825b88811015613581578235613564816129f2565b6001600160a01b0316825260209283019290910190600101613551565b50602084019690965250506001600160a01b039283166040820152911660609091015292915050565b602080825260059082015264475332303560d81b604082015260600190565b8183823760009101908152919050565b8b81526001600160a01b038b81166020830152604082018b9052606082018a905261016082019061360d608084018b61340b565b60a083019890985260c082019690965260e0810194909452918516610100840152909316610120820152610140019190915295945050505050565b60008161365757613657613299565b506000190190565b6001600160a01b0392831681529116602082015260400190565b60006020828403121561368b57600080fd5b5051919050565b6000602082840312156136a457600080fd5b815180151581146117fa57600080fd5b6001600160a01b03929092168252602082015260400190565b600082516136df818460208701612c2a565b919091019291505056fe9465fa0c962cc76958e6373a993326400c1c94f8be2fe3a952adfa7f60b2ea26cc69885fda6bcc1a4ace058b4a62bf5e179ea78fd58a1ccd71c22cc9b688792ff8d49fc529812e9a7c5c50e69c20f0dccc0db8fa95c98bc58cc9a4f1c1299eafe90b7bceb6e7df5418fb78d8ee546e97c83a08bbccc01a0644d599ccd2a7c2e04a204f620c8c5ccdca3fd54d003badd85ba500436a431f0cbda4f558c93c34c86c9a6c4a39284e37ed1cf53d337577d14212a4870fb976a4366c693b939918d5a26469706673582212200ae88613332080d906156062ef76864b588bdeb47a8e28771670afabf8d0bca964736f6c63430008120033",
  "linkReferences": {},
  "deployedLinkReferences": {}
}