{
  "_format": "hh-sol-artifact-1",
  "contractName": "HederaGnosisSafe",
  "sourceName": "contracts/gnosis/HederaGnosisSafe.sol",
  "abi": [
    {
      "anonymous": false,
      "inputs": [
        {
          "indexed": false,
          "internalType": "address",
          "name": "owner",
          "type": "address"
        }
      ],
      "name": "AddedOwner",
      "type": "event"
    },
    {
      "anonymous": false,
      "inputs": [
        {
          "indexed": true,
          "internalType": "bytes32",
          "name": "approvedHash",
          "type": "bytes32"
        },
        {
          "indexed": true,
          "internalType": "address",
          "name": "owner",
          "type": "address"
        }
      ],
      "name": "ApproveHash",
      "type": "event"
    },
    {
      "anonymous": false,
      "inputs": [
        {
          "indexed": false,
          "internalType": "address",
          "name": "handler",
          "type": "address"
        }
      ],
      "name": "ChangedFallbackHandler",
      "type": "event"
    },
    {
      "anonymous": false,
      "inputs": [
        {
          "indexed": false,
          "internalType": "address",
          "name": "guard",
          "type": "address"
        }
      ],
      "name": "ChangedGuard",
      "type": "event"
    },
    {
      "anonymous": false,
      "inputs": [
        {
          "indexed": false,
          "internalType": "uint256",
          "name": "threshold",
          "type": "uint256"
        }
      ],
      "name": "ChangedThreshold",
      "type": "event"
    },
    {
      "anonymous": false,
      "inputs": [
        {
          "indexed": false,
          "internalType": "address",
          "name": "module",
          "type": "address"
        }
      ],
      "name": "DisabledModule",
      "type": "event"
    },
    {
      "anonymous": false,
      "inputs": [
        {
          "indexed": false,
          "internalType": "address",
          "name": "module",
          "type": "address"
        }
      ],
      "name": "EnabledModule",
      "type": "event"
    },
    {
      "anonymous": false,
      "inputs": [
        {
          "indexed": false,
          "internalType": "bytes32",
          "name": "txHash",
          "type": "bytes32"
        },
        {
          "indexed": false,
          "internalType": "uint256",
          "name": "payment",
          "type": "uint256"
        }
      ],
      "name": "ExecutionFailure",
      "type": "event"
    },
    {
      "anonymous": false,
      "inputs": [
        {
          "indexed": true,
          "internalType": "address",
          "name": "module",
          "type": "address"
        }
      ],
      "name": "ExecutionFromModuleFailure",
      "type": "event"
    },
    {
      "anonymous": false,
      "inputs": [
        {
          "indexed": true,
          "internalType": "address",
          "name": "module",
          "type": "address"
        }
      ],
      "name": "ExecutionFromModuleSuccess",
      "type": "event"
    },
    {
      "anonymous": false,
      "inputs": [
        {
          "indexed": false,
          "internalType": "bytes32",
          "name": "txHash",
          "type": "bytes32"
        },
        {
          "indexed": false,
          "internalType": "uint256",
          "name": "payment",
          "type": "uint256"
        }
      ],
      "name": "ExecutionSuccess",
      "type": "event"
    },
    {
      "anonymous": false,
      "inputs": [
        {
          "indexed": false,
          "internalType": "uint8",
          "name": "version",
          "type": "uint8"
        }
      ],
      "name": "Initialized",
      "type": "event"
    },
    {
      "anonymous": false,
      "inputs": [
        {
          "indexed": false,
          "internalType": "address",
          "name": "owner",
          "type": "address"
        }
      ],
      "name": "RemovedOwner",
      "type": "event"
    },
    {
      "anonymous": false,
      "inputs": [
        {
          "indexed": true,
          "internalType": "address",
          "name": "sender",
          "type": "address"
        },
        {
          "indexed": false,
          "internalType": "uint256",
          "name": "value",
          "type": "uint256"
        }
      ],
      "name": "SafeReceived",
      "type": "event"
    },
    {
      "anonymous": false,
      "inputs": [
        {
          "indexed": true,
          "internalType": "address",
          "name": "initiator",
          "type": "address"
        },
        {
          "indexed": false,
          "internalType": "address[]",
          "name": "owners",
          "type": "address[]"
        },
        {
          "indexed": false,
          "internalType": "uint256",
          "name": "threshold",
          "type": "uint256"
        },
        {
          "indexed": false,
          "internalType": "address",
          "name": "initializer",
          "type": "address"
        },
        {
          "indexed": false,
          "internalType": "address",
          "name": "fallbackHandler",
          "type": "address"
        }
      ],
      "name": "SafeSetup",
      "type": "event"
    },
    {
      "anonymous": false,
      "inputs": [
        {
          "indexed": true,
          "internalType": "bytes32",
          "name": "msgHash",
          "type": "bytes32"
        }
      ],
      "name": "SignMsg",
      "type": "event"
    },
    {
      "anonymous": false,
      "inputs": [
        {
          "indexed": false,
          "internalType": "address",
          "name": "token",
          "type": "address"
        }
      ],
      "name": "TokenAssociated",
      "type": "event"
    },
    {
      "anonymous": false,
      "inputs": [
        {
          "indexed": true,
          "internalType": "address",
          "name": "token",
          "type": "address"
        },
        {
          "indexed": true,
          "internalType": "address",
          "name": "sender",
          "type": "address"
        },
        {
          "indexed": true,
          "internalType": "uint256",
          "name": "amount",
          "type": "uint256"
        }
      ],
      "name": "TokenTransferred",
      "type": "event"
    },
    {
      "stateMutability": "nonpayable",
      "type": "fallback"
    },
    {
      "inputs": [],
      "name": "VERSION",
      "outputs": [
        {
          "internalType": "string",
          "name": "",
          "type": "string"
        }
      ],
      "stateMutability": "view",
      "type": "function"
    },
    {
      "inputs": [
        {
          "internalType": "address",
          "name": "owner",
          "type": "address"
        },
        {
          "internalType": "uint256",
          "name": "_threshold",
          "type": "uint256"
        }
      ],
      "name": "addOwnerWithThreshold",
      "outputs": [],
      "stateMutability": "nonpayable",
      "type": "function"
    },
    {
      "inputs": [
        {
          "internalType": "bytes32",
          "name": "hashToApprove",
          "type": "bytes32"
        }
      ],
      "name": "approveHash",
      "outputs": [],
      "stateMutability": "nonpayable",
      "type": "function"
    },
    {
      "inputs": [
        {
          "internalType": "address",
          "name": "",
          "type": "address"
        },
        {
          "internalType": "bytes32",
          "name": "",
          "type": "bytes32"
        }
      ],
      "name": "approvedHashes",
      "outputs": [
        {
          "internalType": "uint256",
          "name": "",
          "type": "uint256"
        }
      ],
      "stateMutability": "view",
      "type": "function"
    },
    {
      "inputs": [
        {
          "internalType": "uint256",
          "name": "_threshold",
          "type": "uint256"
        }
      ],
      "name": "changeThreshold",
      "outputs": [],
      "stateMutability": "nonpayable",
      "type": "function"
    },
    {
      "inputs": [
        {
          "internalType": "bytes32",
          "name": "dataHash",
          "type": "bytes32"
        }
      ],
      "name": "checkApprovals",
      "outputs": [
        {
          "internalType": "bool",
          "name": "",
          "type": "bool"
        }
      ],
      "stateMutability": "view",
      "type": "function"
    },
    {
      "inputs": [
        {
          "internalType": "bytes32",
          "name": "dataHash",
          "type": "bytes32"
        },
        {
          "internalType": "bytes",
          "name": "data",
          "type": "bytes"
        },
        {
          "internalType": "bytes",
          "name": "signatures",
          "type": "bytes"
        },
        {
          "internalType": "uint256",
          "name": "requiredSignatures",
          "type": "uint256"
        }
      ],
      "name": "checkNSignatures",
      "outputs": [],
      "stateMutability": "view",
      "type": "function"
    },
    {
      "inputs": [
        {
          "internalType": "bytes32",
          "name": "dataHash",
          "type": "bytes32"
        },
        {
          "internalType": "bytes",
          "name": "data",
          "type": "bytes"
        },
        {
          "internalType": "bytes",
          "name": "signatures",
          "type": "bytes"
        }
      ],
      "name": "checkSignatures",
      "outputs": [],
      "stateMutability": "view",
      "type": "function"
    },
    {
      "inputs": [
        {
          "internalType": "address",
          "name": "prevModule",
          "type": "address"
        },
        {
          "internalType": "address",
          "name": "module",
          "type": "address"
        }
      ],
      "name": "disableModule",
      "outputs": [],
      "stateMutability": "nonpayable",
      "type": "function"
    },
    {
      "inputs": [],
      "name": "domainSeparator",
      "outputs": [
        {
          "internalType": "bytes32",
          "name": "",
          "type": "bytes32"
        }
      ],
      "stateMutability": "view",
      "type": "function"
    },
    {
      "inputs": [
        {
          "internalType": "address",
          "name": "module",
          "type": "address"
        }
      ],
      "name": "enableModule",
      "outputs": [],
      "stateMutability": "nonpayable",
      "type": "function"
    },
    {
      "inputs": [
        {
          "internalType": "address",
          "name": "to",
          "type": "address"
        },
        {
          "internalType": "uint256",
          "name": "value",
          "type": "uint256"
        },
        {
          "internalType": "bytes",
          "name": "data",
          "type": "bytes"
        },
        {
          "internalType": "enum Enum.Operation",
          "name": "operation",
          "type": "uint8"
        },
        {
          "internalType": "uint256",
          "name": "safeTxGas",
          "type": "uint256"
        },
        {
          "internalType": "uint256",
          "name": "baseGas",
          "type": "uint256"
        },
        {
          "internalType": "uint256",
          "name": "gasPrice",
          "type": "uint256"
        },
        {
          "internalType": "address",
          "name": "gasToken",
          "type": "address"
        },
        {
          "internalType": "address",
          "name": "refundReceiver",
          "type": "address"
        },
        {
          "internalType": "uint256",
          "name": "_nonce",
          "type": "uint256"
        }
      ],
      "name": "encodeTransactionData",
      "outputs": [
        {
          "internalType": "bytes",
          "name": "",
          "type": "bytes"
        }
      ],
      "stateMutability": "view",
      "type": "function"
    },
    {
      "inputs": [
        {
          "internalType": "address",
          "name": "",
          "type": "address"
        },
        {
          "internalType": "uint256",
          "name": "",
          "type": "uint256"
        },
        {
          "internalType": "bytes",
          "name": "",
          "type": "bytes"
        },
        {
          "internalType": "enum Enum.Operation",
          "name": "",
          "type": "uint8"
        },
        {
          "internalType": "uint256",
          "name": "",
          "type": "uint256"
        },
        {
          "internalType": "uint256",
          "name": "",
          "type": "uint256"
        },
        {
          "internalType": "uint256",
          "name": "",
          "type": "uint256"
        },
        {
          "internalType": "address",
          "name": "",
          "type": "address"
        },
        {
          "internalType": "address payable",
          "name": "",
          "type": "address"
        },
        {
          "internalType": "bytes",
          "name": "",
          "type": "bytes"
        }
      ],
      "name": "execTransaction",
      "outputs": [
        {
          "internalType": "bool",
          "name": "",
          "type": "bool"
        }
      ],
      "stateMutability": "payable",
      "type": "function"
    },
    {
      "inputs": [
        {
          "internalType": "address",
          "name": "to",
          "type": "address"
        },
        {
          "internalType": "uint256",
          "name": "value",
          "type": "uint256"
        },
        {
          "internalType": "bytes",
          "name": "data",
          "type": "bytes"
        },
        {
          "internalType": "enum Enum.Operation",
          "name": "operation",
          "type": "uint8"
        }
      ],
      "name": "execTransactionFromModule",
      "outputs": [
        {
          "internalType": "bool",
          "name": "success",
          "type": "bool"
        }
      ],
      "stateMutability": "nonpayable",
      "type": "function"
    },
    {
      "inputs": [
        {
          "internalType": "address",
          "name": "to",
          "type": "address"
        },
        {
          "internalType": "uint256",
          "name": "value",
          "type": "uint256"
        },
        {
          "internalType": "bytes",
          "name": "data",
          "type": "bytes"
        },
        {
          "internalType": "enum Enum.Operation",
          "name": "operation",
          "type": "uint8"
        }
      ],
      "name": "execTransactionFromModuleReturnData",
      "outputs": [
        {
          "internalType": "bool",
          "name": "success",
          "type": "bool"
        },
        {
          "internalType": "bytes",
          "name": "returnData",
          "type": "bytes"
        }
      ],
      "stateMutability": "nonpayable",
      "type": "function"
    },
    {
      "inputs": [
        {
          "internalType": "address",
          "name": "to",
          "type": "address"
        },
        {
          "internalType": "uint256",
          "name": "value",
          "type": "uint256"
        },
        {
          "internalType": "bytes",
          "name": "data",
          "type": "bytes"
        },
        {
          "internalType": "enum Enum.Operation",
          "name": "operation",
          "type": "uint8"
        },
        {
          "internalType": "uint256",
          "name": "nonce",
          "type": "uint256"
        }
      ],
      "name": "executeTransaction",
      "outputs": [
        {
          "internalType": "bool",
          "name": "success",
          "type": "bool"
        }
      ],
      "stateMutability": "payable",
      "type": "function"
    },
    {
      "inputs": [
        {
          "internalType": "bytes32",
          "name": "",
          "type": "bytes32"
        }
      ],
      "name": "executedHash",
      "outputs": [
        {
          "internalType": "bool",
          "name": "",
          "type": "bool"
        }
      ],
      "stateMutability": "view",
      "type": "function"
    },
    {
      "inputs": [],
      "name": "getChainId",
      "outputs": [
        {
          "internalType": "uint256",
          "name": "",
          "type": "uint256"
        }
      ],
      "stateMutability": "view",
      "type": "function"
    },
    {
      "inputs": [
        {
          "internalType": "address",
          "name": "start",
          "type": "address"
        },
        {
          "internalType": "uint256",
          "name": "pageSize",
          "type": "uint256"
        }
      ],
      "name": "getModulesPaginated",
      "outputs": [
        {
          "internalType": "address[]",
          "name": "array",
          "type": "address[]"
        },
        {
          "internalType": "address",
          "name": "next",
          "type": "address"
        }
      ],
      "stateMutability": "view",
      "type": "function"
    },
    {
      "inputs": [],
      "name": "getOwners",
      "outputs": [
        {
          "internalType": "address[]",
          "name": "",
          "type": "address[]"
        }
      ],
      "stateMutability": "view",
      "type": "function"
    },
    {
      "inputs": [
        {
          "internalType": "uint256",
          "name": "offset",
          "type": "uint256"
        },
        {
          "internalType": "uint256",
          "name": "length",
          "type": "uint256"
        }
      ],
      "name": "getStorageAt",
      "outputs": [
        {
          "internalType": "bytes",
          "name": "",
          "type": "bytes"
        }
      ],
      "stateMutability": "view",
      "type": "function"
    },
    {
      "inputs": [],
      "name": "getThreshold",
      "outputs": [
        {
          "internalType": "uint256",
          "name": "",
          "type": "uint256"
        }
      ],
      "stateMutability": "view",
      "type": "function"
    },
    {
      "inputs": [
        {
          "internalType": "address",
          "name": "to",
          "type": "address"
        },
        {
          "internalType": "uint256",
          "name": "value",
          "type": "uint256"
        },
        {
          "internalType": "bytes",
          "name": "data",
          "type": "bytes"
        },
        {
          "internalType": "enum Enum.Operation",
          "name": "operation",
          "type": "uint8"
        },
        {
          "internalType": "uint256",
          "name": "safeTxGas",
          "type": "uint256"
        },
        {
          "internalType": "uint256",
          "name": "baseGas",
          "type": "uint256"
        },
        {
          "internalType": "uint256",
          "name": "gasPrice",
          "type": "uint256"
        },
        {
          "internalType": "address",
          "name": "gasToken",
          "type": "address"
        },
        {
          "internalType": "address",
          "name": "refundReceiver",
          "type": "address"
        },
        {
          "internalType": "uint256",
          "name": "_nonce",
          "type": "uint256"
        }
      ],
      "name": "getTransactionHash",
      "outputs": [
        {
          "internalType": "bytes32",
          "name": "",
          "type": "bytes32"
        }
      ],
      "stateMutability": "view",
      "type": "function"
    },
    {
      "inputs": [
        {
          "internalType": "address",
          "name": "to",
          "type": "address"
        },
        {
          "internalType": "uint256",
          "name": "value",
          "type": "uint256"
        },
        {
          "internalType": "bytes",
          "name": "data",
          "type": "bytes"
        },
        {
          "internalType": "enum Enum.Operation",
          "name": "operation",
          "type": "uint8"
        }
      ],
      "name": "getTxnHash",
      "outputs": [
        {
          "internalType": "bytes32",
          "name": "",
          "type": "bytes32"
        },
        {
          "internalType": "uint256",
          "name": "",
          "type": "uint256"
        }
      ],
      "stateMutability": "nonpayable",
      "type": "function"
    },
    {
      "inputs": [
        {
          "internalType": "address",
          "name": "module",
          "type": "address"
        }
      ],
      "name": "isModuleEnabled",
      "outputs": [
        {
          "internalType": "bool",
          "name": "",
          "type": "bool"
        }
      ],
      "stateMutability": "view",
      "type": "function"
    },
    {
      "inputs": [
        {
          "internalType": "address",
          "name": "owner",
          "type": "address"
        }
      ],
      "name": "isOwner",
      "outputs": [
        {
          "internalType": "bool",
          "name": "",
          "type": "bool"
        }
      ],
      "stateMutability": "view",
      "type": "function"
    },
    {
      "inputs": [
        {
          "internalType": "bytes32",
          "name": "dataHash",
          "type": "bytes32"
        }
      ],
      "name": "isTransactionExecuted",
      "outputs": [
        {
          "internalType": "bool",
          "name": "",
          "type": "bool"
        }
      ],
      "stateMutability": "view",
      "type": "function"
    },
    {
      "inputs": [],
      "name": "nonce",
      "outputs": [
        {
          "internalType": "uint256",
          "name": "",
          "type": "uint256"
        }
      ],
      "stateMutability": "view",
      "type": "function"
    },
    {
      "inputs": [
        {
          "internalType": "address",
          "name": "prevOwner",
          "type": "address"
        },
        {
          "internalType": "address",
          "name": "owner",
          "type": "address"
        },
        {
          "internalType": "uint256",
          "name": "_threshold",
          "type": "uint256"
        }
      ],
      "name": "removeOwner",
      "outputs": [],
      "stateMutability": "nonpayable",
      "type": "function"
    },
    {
      "inputs": [
        {
          "internalType": "address",
          "name": "to",
          "type": "address"
        },
        {
          "internalType": "uint256",
          "name": "value",
          "type": "uint256"
        },
        {
          "internalType": "bytes",
          "name": "data",
          "type": "bytes"
        },
        {
          "internalType": "enum Enum.Operation",
          "name": "operation",
          "type": "uint8"
        }
      ],
      "name": "requiredTxGas",
      "outputs": [
        {
          "internalType": "uint256",
          "name": "",
          "type": "uint256"
        }
      ],
      "stateMutability": "nonpayable",
      "type": "function"
    },
    {
      "inputs": [
        {
          "internalType": "address",
          "name": "handler",
          "type": "address"
        }
      ],
      "name": "setFallbackHandler",
      "outputs": [],
      "stateMutability": "nonpayable",
      "type": "function"
    },
    {
      "inputs": [
        {
          "internalType": "address",
          "name": "guard",
          "type": "address"
        }
      ],
      "name": "setGuard",
      "outputs": [],
      "stateMutability": "nonpayable",
      "type": "function"
    },
    {
      "inputs": [
        {
          "internalType": "address[]",
          "name": "_owners",
          "type": "address[]"
        },
        {
          "internalType": "uint256",
          "name": "_threshold",
          "type": "uint256"
        },
        {
          "internalType": "address",
          "name": "to",
          "type": "address"
        },
        {
          "internalType": "bytes",
          "name": "data",
          "type": "bytes"
        },
        {
          "internalType": "address",
          "name": "fallbackHandler",
          "type": "address"
        },
        {
          "internalType": "address",
          "name": "paymentToken",
          "type": "address"
        },
        {
          "internalType": "uint256",
          "name": "payment",
          "type": "uint256"
        },
        {
          "internalType": "address payable",
          "name": "paymentReceiver",
          "type": "address"
        }
      ],
      "name": "setup",
      "outputs": [],
      "stateMutability": "nonpayable",
      "type": "function"
    },
    {
      "inputs": [
        {
          "internalType": "bytes32",
          "name": "",
          "type": "bytes32"
        }
      ],
      "name": "signedMessages",
      "outputs": [
        {
          "internalType": "uint256",
          "name": "",
          "type": "uint256"
        }
      ],
      "stateMutability": "view",
      "type": "function"
    },
    {
      "inputs": [
        {
          "internalType": "address",
          "name": "targetContract",
          "type": "address"
        },
        {
          "internalType": "bytes",
          "name": "calldataPayload",
          "type": "bytes"
        }
      ],
      "name": "simulateAndRevert",
      "outputs": [],
      "stateMutability": "nonpayable",
      "type": "function"
    },
    {
      "inputs": [
        {
          "internalType": "address",
          "name": "prevOwner",
          "type": "address"
        },
        {
          "internalType": "address",
          "name": "oldOwner",
          "type": "address"
        },
        {
          "internalType": "address",
          "name": "newOwner",
          "type": "address"
        }
      ],
      "name": "swapOwner",
      "outputs": [],
      "stateMutability": "nonpayable",
      "type": "function"
    },
    {
      "inputs": [
        {
          "internalType": "contract IBaseHTS",
          "name": "_baseHTS",
          "type": "address"
        },
        {
          "internalType": "address",
          "name": "_token",
          "type": "address"
        },
        {
          "internalType": "uint256",
          "name": "_amount",
          "type": "uint256"
        },
        {
          "internalType": "address",
          "name": "_sender",
          "type": "address"
        }
      ],
      "name": "transferToSafe",
      "outputs": [],
      "stateMutability": "nonpayable",
      "type": "function"
    },
    {
      "inputs": [
        {
          "internalType": "address",
          "name": "token",
          "type": "address"
        },
        {
          "internalType": "address",
          "name": "receiver",
          "type": "address"
        },
        {
          "internalType": "uint256",
          "name": "amount",
          "type": "uint256"
        }
      ],
      "name": "transferTokenViaSafe",
      "outputs": [
        {
          "internalType": "bool",
          "name": "transferred",
          "type": "bool"
        }
      ],
      "stateMutability": "nonpayable",
      "type": "function"
    },
    {
      "stateMutability": "payable",
      "type": "receive"
    }
  ],
  "bytecode": "0x608060405234801561001057600080fd5b5060016004556137db806100256000396000f3fe6080604052600436106101b95760003560e01c806302489a8e146102495780630d582f131461027e57806312fb68e0146102a05780632d9ad53d146102c05780632f54bf6e146102e05780633408e47014610300578063468721a71461031d5780635229073f1461033d5780635624b25b1461036b5780635ae6bd3714610398578063610b5925146103c5578063658af36b146103e5578063694e80c3146104055780636a7612021461042557806378eba15e146104385780637d8329741461046d5780639027e36f146104a5578063934f3a11146104d55780639681467f146104f5578063a0e67e2b14610508578063a7f173ab1461052a578063affed0e01461054a578063b4faba0914610560578063b63e800d14610580578063bb34db5a146105a0578063c4ca3a9c146105c0578063cc2f8452146105e0578063d4d9bdcd1461060e578063d8d11f781461062e578063e009cfde1461064e578063e19a9dd91461066e578063e318b52b1461068e578063e75235b8146106ae578063e86637db146106c3578063f08a0323146106e3578063f698da2514610703578063f8dc5dd914610718578063ffa1ad7414610738576101f5565b366101f55760405134815233907f3d0ce9bfc3ed7d6862dbb28b2dea94561fe714a1b4d019aa8af39730d1ad7c3d9060200160405180910390a2005b34801561020157600080fd5b5060008051602061378683398151915280548061021a57005b36600080373360601b365260008060143601600080855af190503d6000803e80610243573d6000fd5b503d6000f35b34801561025557600080fd5b50610269610264366004612982565b610769565b60405190151581526020015b60405180910390f35b34801561028a57600080fd5b5061029e6102993660046129c3565b61077e565b005b3480156102ac57600080fd5b5061029e6102bb366004612a91565b6108b5565b3480156102cc57600080fd5b506102696102db366004612b05565b610d03565b3480156102ec57600080fd5b506102696102fb366004612b05565b610d3e565b34801561030c57600080fd5b50465b604051908152602001610275565b34801561032957600080fd5b50610269610338366004612b31565b610d76565b34801561034957600080fd5b5061035d610358366004612b31565b610e4d565b604051610275929190612bea565b34801561037757600080fd5b5061038b610386366004612c05565b610e83565b6040516102759190612c27565b3480156103a457600080fd5b5061030f6103b3366004612982565b60076020526000908152604090205481565b3480156103d157600080fd5b5061029e6103e0366004612b05565b610f08565b3480156103f157600080fd5b5061029e610400366004612c3a565b611026565b34801561041157600080fd5b5061029e610420366004612982565b61113a565b610269610433366004612cd5565b6111ba565b34801561044457600080fd5b50610458610453366004612dad565b611211565b60408051928352602083019190915201610275565b34801561047957600080fd5b5061030f6104883660046129c3565b600860209081526000928352604080842090915290825290205481565b3480156104b157600080fd5b506102696104c0366004612982565b603d6020526000908152604090205460ff1681565b3480156104e157600080fd5b5061029e6104f0366004612e1d565b611251565b610269610503366004612e89565b61129b565b34801561051457600080fd5b5061051d61166e565b6040516102759190612f52565b34801561053657600080fd5b50610269610545366004612982565b61174c565b34801561055657600080fd5b5061030f60055481565b34801561056c57600080fd5b5061029e61057b366004612f65565b6117f5565b34801561058c57600080fd5b5061029e61059b366004612fb4565b611818565b3480156105ac57600080fd5b506102696105bb3660046130a8565b61191a565b3480156105cc57600080fd5b5061030f6105db366004612dad565b611950565b3480156105ec57600080fd5b506106006105fb3660046129c3565b6119ea565b6040516102759291906130e9565b34801561061a57600080fd5b5061029e610629366004612982565b611ae3565b34801561063a57600080fd5b5061030f610649366004613113565b611b78565b34801561065a57600080fd5b5061029e6106693660046131d3565b611ba5565b34801561067a57600080fd5b5061029e610689366004612b05565b611cbe565b34801561069a57600080fd5b5061029e6106a936600461320c565b611d08565b3480156106ba57600080fd5b5060045461030f565b3480156106cf57600080fd5b5061038b6106de366004613113565b611eb9565b3480156106ef57600080fd5b5061029e6106fe366004612b05565b611f92565b34801561070f57600080fd5b5061030f611fd2565b34801561072457600080fd5b5061029e6107333660046130a8565b612029565b34801561074457600080fd5b5061038b604051806040016040528060058152602001640312e332e360dc1b81525081565b6000908152603d602052604090205460ff1690565b61078661216d565b6001600160a01b038216158015906107a857506001600160a01b038216600114155b80156107bd57506001600160a01b0382163014155b6107e25760405162461bcd60e51b81526004016107d990613257565b60405180910390fd5b6001600160a01b03828116600090815260026020526040902054161561081a5760405162461bcd60e51b81526004016107d990613276565b600260205260008051602061374683398151915280546001600160a01b038481166000818152604081208054939094166001600160a01b031993841617909355600183528354909116179091556003805491610875836132ab565b91905055506000805160206136e68339815191528260405161089791906132c4565b60405180910390a180600454146108b1576108b18161113a565b5050565b6108c081604161218e565b825110156108f85760405162461bcd60e51b8152602060048201526005602482015264047533032360dc1b60448201526064016107d9565b6000808060008060005b86811015610cf7576041818102890160208101516040820151919092015160ff16955090935091506000849003610ad357919350839161094387604161218e565b82101561097a5760405162461bcd60e51b8152602060048201526005602482015264475330323160d81b60448201526064016107d9565b87516109878360206121c3565b11156109bd5760405162461bcd60e51b815260206004820152600560248201526423a998191960d91b60448201526064016107d9565b6020828901810151895190916109e09083906109da9087906121c3565b906121c3565b1115610a165760405162461bcd60e51b8152602060048201526005602482015264475330323360d81b60448201526064016107d9565b6040516320c13b0b60e01b8082528a8501602001916001600160a01b038916906320c13b0b90610a4c908f9086906004016132d8565b602060405180830381865afa158015610a69573d6000803e3d6000fd5b505050506040513d601f19601f82011682018060405250810190610a8d91906132fd565b6001600160e01b03191614610acc5760405162461bcd60e51b815260206004820152600560248201526411d4cc0c8d60da1b60448201526064016107d9565b5050610c5d565b8360ff16600103610b55579193508391336001600160a01b0384161480610b1c57506001600160a01b03851660009081526008602090815260408083208d845290915290205415155b610b505760405162461bcd60e51b8152602060048201526005602482015264475330323560d81b60448201526064016107d9565b610c5d565b601e8460ff161115610c0b576040517b0ca2ba3432b932bab69029b4b3b732b21026b2b9b9b0b3b29d05199960211b6020820152603c81018b9052600190605c0160405160208183030381529060405280519060200120600486610bb99190613327565b858560405160008152602001604052604051610bd89493929190613340565b6020604051602081039080840390855afa158015610bfa573d6000803e3d6000fd5b505050602060405103519450610c5d565b60018a85858560405160008152602001604052604051610c2e9493929190613340565b6020604051602081039080840390855afa158015610c50573d6000803e3d6000fd5b5050506020604051035194505b856001600160a01b0316856001600160a01b0316118015610c9757506001600160a01b038581166000908152600260205260409020541615155b8015610cad57506001600160a01b038516600114155b610ce15760405162461bcd60e51b815260206004820152600560248201526423a998191b60d91b60448201526064016107d9565b8495508080610cef906132ab565b915050610902565b50505050505050505050565b600060016001600160a01b03831614801590610d3857506001600160a01b038281166000908152600160205260409020541615155b92915050565b60006001600160a01b038216600114801590610d385750506001600160a01b0390811660009081526002602052604090205416151590565b600033600114801590610da05750336000908152600160205260409020546001600160a01b031615155b610dd45760405162461bcd60e51b815260206004820152600560248201526411d4cc4c0d60da1b60448201526064016107d9565b610de1858585855a6121df565b90508015610e195760405133907f6895c13664aa4f67288b25d7a21d7aaa34916e355fb9b6fae0a139a9085becb890600090a2610e45565b60405133907facd2c8702804128fdb0db2bb49f6d127dd0181c13fd45dbfe16de0930e2bd37590600090a25b949350505050565b60006060610e5d86868686610d76565b915060405160203d0181016040523d81523d6000602083013e8091505094509492505050565b60606000610e9283602061335e565b6001600160401b03811115610ea957610ea96129ef565b6040519080825280601f01601f191660200182016040528015610ed3576020820181803683370190505b50905060005b83811015610f00578481015460208083028401015280610ef8816132ab565b915050610ed9565b509392505050565b610f1061216d565b6001600160a01b03811615801590610f3257506001600160a01b038116600114155b610f4e5760405162461bcd60e51b81526004016107d990613375565b6001600160a01b038181166000908152600160205260409020541615610f9e5760405162461bcd60e51b815260206004820152600560248201526423a998981960d91b60448201526064016107d9565b6001602081905260008051602061370683398151915280546001600160a01b03848116600081815260408082208054949095166001600160a01b031994851617909455949094528254169092179055517fecdf3a3effea5783a3c4c2140e677577666428d44ed9d474a0b3a4c9943f84409061101b9083906132c4565b60405180910390a150565b6000611033853086612226565b90506015198101611076577fbbbf805ef99ca7d0b7d2cc769719f2a281c9b3331a3642efa75a712e3094a1668460405161106d91906132c4565b60405180910390a15b611082848330866122bb565b905060151981016110d35782826001600160a01b0316856001600160a01b03167f9c8515990fd8c61431c4ac8db9b81475f90c292a1dda77731e56c22e64fc764360405160405180910390a4611133565b60405162461bcd60e51b815260206004820152602f60248201527f486564657261476e6f736973536166653a207472616e7366657220746f6b656e60448201526e081d1bc81cd859994819985a5b1959608a1b60648201526084016107d9565b5050505050565b61114261216d565b6003548111156111645760405162461bcd60e51b81526004016107d990613394565b60018110156111855760405162461bcd60e51b81526004016107d9906133b3565b60048190556040518181527f610f7ff2b304ae8903c3de74c60c6ab1f7d6226b3f52c5161905bb5ad4039c939060200161101b565b60405162461bcd60e51b815260206004820152602360248201527f486564657261476e6f736973536166653a20415049206e6f7420617661696c61604482015262626c6560e81b60648201526000906084016107d9565b600080600061123f88888888886000806000806000603c60008154611235906132ab565b9182905550611b78565b603c5490999098509650505050505050565b600454806112895760405162461bcd60e51b8152602060048201526005602482015264475330303160d81b60448201526064016107d9565b611295848484846108b5565b50505050565b60006112a56123dd565b6000806112be898989898960008060008060008e611eb9565b805160209091012091506112d390508161174c565b61131c5760405162461bcd60e51b815260206004820152601a60248201527913dddb995c881a185cc81b9bdd08185c1c1c9bdd9959081e595d60321b60448201526064016107d9565b61132581610769565b156113815760405162461bcd60e51b815260206004820152602660248201527f486564657261476e6f736973536166653a2074786e20616c72656164792065786044820152651958dd5d195960d21b60648201526084016107d9565b6000818152603d60205260408120805460ff191660011790556113b06000805160206137668339815191525490565b90506001600160a01b03811615611442576040805160208101825260008082529151633af85da960e11b81526001600160a01b038416926375f0bb529261140f928e928e928e928e928e9290918291829182918291339060040161340a565b600060405180830381600087803b15801561142957600080fd5b505af115801561143d573d6000803e3d6000fd5b505050505b61147061145260006109c46134bd565b603f6114606000604061335e565b61146a91906134d0565b90612436565b61147c906101f46134bd565b5a10156114b35760405162461bcd60e51b8152602060048201526005602482015264047533031360dc1b60448201526064016107d9565b60005a905061150e8a8a8a8a8080601f0160208091040260200160405190810160405280939291908181526020018383808284376000920191909152508c92506114fb915050565b6109c45a61150991906134f2565b6121df565b935061151b5a829061244d565b90508380611527575060005b80611530575060005b6115645760405162461bcd60e51b8152602060048201526005602482015264475330313360d81b60448201526064016107d9565b600084156115aa5760408051858152602081018390527f442e715f626346e8c54381002da614f62bee8d27386535b2521ec8540898556e910160405180910390a16115e4565b60408051858152602081018390527f23428b18acfb3ea64b08dc0c1d296ea9c09702c09083ca5272e64d115b687d23910160405180910390a15b50506001600160a01b0381161561165857604051631264e26d60e31b81526004810183905283151560248201526001600160a01b03821690639327136890604401600060405180830381600087803b15801561163f57600080fd5b505af1158015611653573d6000803e3d6000fd5b505050505b50506116646001600a55565b9695505050505050565b606060006003546001600160401b0381111561168c5761168c6129ef565b6040519080825280602002602001820160405280156116b5578160200160208202803683370190505b5060016000908152600260205260008051602061374683398151915254919250906001600160a01b03165b6001600160a01b038116600114611744578083838151811061170457611704613505565b6001600160a01b0392831660209182029290920181019190915291811660009081526002909252604090912054168161173c816132ab565b9250506116e0565b509092915050565b6001600090815260026020526000805160206137468339815191525481906001600160a01b03165b6001600160a01b0381166001146117de576001600160a01b03811660009081526008602090815260408083208784529091529020546001036117be57816117ba816132ab565b9250505b6001600160a01b0390811660009081526002602052604090205416611774565b600082118015610e45575050600454111592915050565b600080825160208401855af480600052503d6020523d600060403e60403d016000fd5b6118568a8a808060200260200160405190810160405280939291908181526020018383602002808284376000920191909152508c925061256e915050565b6001600160a01b0384161561186e5761186e8461273c565b6118ae8787878080601f01602080910402602001604051908101604052809392919081815260200183838082843760009201919091525061274e92505050565b81156118c5576118c382600060018685612468565b505b336001600160a01b03167f141df868a6331af528e38c83b7aa03edc19be66e37ae67f9285bf4f8e3c6a1a88b8b8b8b8960405161190695949392919061351b565b60405180910390a250505050505050505050565b600033301461193b5760405162461bcd60e51b81526004016107d990613587565b611946848484612824565b90505b9392505050565b6000805a9050611999878787878080601f01602080910402602001604051908101604052809392919081815260200183838082843760009201919091525089925050505a6121df565b6119a257600080fd5b60005a6119af90836134f2565b9050806040516020016119c491815260200190565b60408051601f198184030181529082905262461bcd60e51b82526107d991600401612c27565b60606000826001600160401b03811115611a0657611a066129ef565b604051908082528060200260200182016040528015611a2f578160200160208202803683370190505b506001600160a01b0380861660009081526001602052604081205492945091165b6001600160a01b03811615801590611a7257506001600160a01b038116600114155b8015611a7d57508482105b15611ad55780848381518110611a9557611a95613505565b6001600160a01b03928316602091820292909201810191909152918116600090815260019092526040909120541681611acd816132ab565b925050611a50565b908352919491935090915050565b336000908152600260205260409020546001600160a01b0316611b305760405162461bcd60e51b8152602060048201526005602482015264047533033360dc1b60448201526064016107d9565b336000818152600860209081526040808320858452909152808220600190555183917ff2a0eb156472d1440255b0d7c1e19cc07115d1051fe605b0dce69acfec884d9c91a350565b6000611b8d8c8c8c8c8c8c8c8c8c8c8c611eb9565b8051906020012090509b9a5050505050505050505050565b611bad61216d565b6001600160a01b03811615801590611bcf57506001600160a01b038116600114155b611beb5760405162461bcd60e51b81526004016107d990613375565b6001600160a01b03828116600090815260016020526040902054811690821614611c3f5760405162461bcd60e51b8152602060048201526005602482015264475331303360d81b60448201526064016107d9565b6001600160a01b03818116600081815260016020526040808220805487861684528284208054919096166001600160a01b0319918216179095559290915281549092169055517faab4fa2b463f581b2b32cb3b7e3b704b9ce37cc209b5fb4d77e593ace405427690611cb29083906132c4565b60405180910390a15050565b611cc661216d565b6000805160206137668339815191528181556040517f1151116914515bc0891ff9047a6cb32cf902546f83066499bcf8ba33d2353fa290611cb29084906132c4565b611d1061216d565b6001600160a01b03811615801590611d3257506001600160a01b038116600114155b8015611d4757506001600160a01b0381163014155b611d635760405162461bcd60e51b81526004016107d990613257565b6001600160a01b038181166000908152600260205260409020541615611d9b5760405162461bcd60e51b81526004016107d990613276565b6001600160a01b03821615801590611dbd57506001600160a01b038216600114155b611dd95760405162461bcd60e51b81526004016107d990613257565b6001600160a01b03838116600090815260026020526040902054811690831614611e155760405162461bcd60e51b81526004016107d9906135a6565b6001600160a01b03828116600081815260026020526040808220805486861680855283852080549288166001600160a01b031993841617905595891684528284208054821690961790955592909152815490921690555160008051602061372683398151915290611e879084906132c4565b60405180910390a16000805160206136e683398151915281604051611eac91906132c4565b60405180910390a1505050565b606060007fbb8310d486368db6bd6f849402fdd73ad53d316b5a4b2644ad6efe0f941286d860001b8d8d8d8d604051611ef39291906135c5565b604051908190038120611f19949392918e908e908e908e908e908e908e906020016135d5565b60408051601f1981840301815291905280516020909101209050601960f81b600160f81b611f45611fd2565b6040516001600160f81b031993841660208201529290911660218301526022820152604281018290526062016040516020818303038152906040529150509b9a5050505050505050505050565b611f9a61216d565b611fa38161273c565b7f5ac6c46c93c8d0e53714ba3b53db3e7c046da994313d7ed0d192028bc7c228b08160405161101b91906132c4565b60007f47e79534a245952e8b16893a336b85a3d9ea9fa8c573f3d803afb92a794692184660408051602081019390935282015230606082015260800160405160208183030381529060405280519060200120905090565b61203161216d565b80600160035461204191906134f2565b101561205f5760405162461bcd60e51b81526004016107d990613394565b6001600160a01b0382161580159061208157506001600160a01b038216600114155b61209d5760405162461bcd60e51b81526004016107d990613257565b6001600160a01b038381166000908152600260205260409020548116908316146120d95760405162461bcd60e51b81526004016107d9906135a6565b6001600160a01b03828116600081815260026020526040808220805488861684529183208054929095166001600160a01b0319928316179094559181528254909116909155600380549161212c83613644565b91905055506000805160206137268339815191528260405161214e91906132c4565b60405180910390a18060045414612168576121688161113a565b505050565b33301461218c5760405162461bcd60e51b81526004016107d990613587565b565b6000826000036121a057506000610d38565b60006121ac838561335e565b9050826121b985836134d0565b1461194957600080fd5b6000806121d083856134bd565b90508381101561194957600080fd5b600060018360018111156121f5576121f56133d2565b0361220d576000808551602087018986f4905061221d565b600080855160208701888a87f190505b95945050505050565b60006001600160a01b0383163b1561224a576122438484846128b5565b9050611949565b60405163f4a01e5b60e01b81526001600160a01b0385169063f4a01e5b90612278908690869060040161365b565b6020604051808303816000875af1158015612297573d6000803e3d6000fd5b505050506040513d601f19601f820116820180604052508101906119469190613675565b600080306001600160a01b0386161461234e576040516323b872dd60e01b81526001600160a01b0386811660048301528581166024830152604482018590528716906323b872dd906064016020604051808303816000875af1158015612325573d6000803e3d6000fd5b505050506040513d601f19601f82011682018060405250810190612349919061368e565b6123bf565b60405163a9059cbb60e01b81526001600160a01b0387169063a9059cbb9061237c90879087906004016136b0565b6020604051808303816000875af115801561239b573d6000803e3d6000fd5b505050506040513d601f19601f820116820180604052508101906123bf919061368e565b9050806123cd5760156123d0565b60165b60030b9695505050505050565b6002600a540361242f5760405162461bcd60e51b815260206004820152601f60248201527f5265656e7472616e637947756172643a207265656e7472616e742063616c6c0060448201526064016107d9565b6002600a55565b6000818310156124465781611949565b5090919050565b60008282111561245c57600080fd5b6000610e4583856134f2565b6000806001600160a01b038316156124805782612482565b325b90506001600160a01b038416612515576124b43a86106124a2573a6124a4565b855b6124ae89896121c3565b9061218e565b6040519092506001600160a01b0382169083156108fc029084906000818181858888f193505050506125105760405162461bcd60e51b8152602060048201526005602482015264475330313160d81b60448201526064016107d9565b612564565b612523856124ae89896121c3565b9150612530848284612824565b6125645760405162461bcd60e51b815260206004820152600560248201526423a998189960d91b60448201526064016107d9565b5095945050505050565b600454156125a65760405162461bcd60e51b8152602060048201526005602482015264047533230360dc1b60448201526064016107d9565b81518111156125c75760405162461bcd60e51b81526004016107d990613394565b60018110156125e85760405162461bcd60e51b81526004016107d9906133b3565b600160005b835181101561270957600084828151811061260a5761260a613505565b6020026020010151905060006001600160a01b0316816001600160a01b03161415801561264157506001600160a01b038116600114155b801561265657506001600160a01b0381163014155b80156126745750806001600160a01b0316836001600160a01b031614155b6126905760405162461bcd60e51b81526004016107d990613257565b6001600160a01b0381811660009081526002602052604090205416156126c85760405162461bcd60e51b81526004016107d990613276565b6001600160a01b03928316600090815260026020526040902080546001600160a01b0319169382169390931790925580612701816132ab565b9150506125ed565b506001600160a01b0316600090815260026020526040902080546001600160a01b03191660011790559051600355600455565b60008051602061378683398151915255565b60016000819052602052600080516020613706833981519152546001600160a01b0316156127a65760405162461bcd60e51b8152602060048201526005602482015264047533130360dc1b60448201526064016107d9565b60016000819052602081905260008051602061370683398151915280546001600160a01b03191690911790556001600160a01b038216156108b1576127f08260008360015a6121df565b6108b15760405162461bcd60e51b8152602060048201526005602482015264047533030360dc1b60448201526064016107d9565b60008063a9059cbb848460405160240161283f9291906136b0565b6040516020818303038152906040529060e01b6020820180516001600160e01b0383818316178352505050509050602060008251602084016000896127105a03f13d801561289857602081146128a057600093506128ab565b8193506128ab565b600051158215171593505b5050509392505050565b6000806000856001600160a01b031663f4a01e5b60e01b86866040516024016128df92919061365b565b60408051601f198184030181529181526020820180516001600160e01b03166001600160e01b031990941693909317909252905161291d91906136c9565b600060405180830381855af49150503d8060008114612958576040519150601f19603f3d011682016040523d82523d6000602084013e61295d565b606091505b50915091508161296e576015611664565b808060200190518101906116649190613675565b60006020828403121561299457600080fd5b5035919050565b6001600160a01b03811681146129b057600080fd5b50565b80356129be8161299b565b919050565b600080604083850312156129d657600080fd5b82356129e18161299b565b946020939093013593505050565b634e487b7160e01b600052604160045260246000fd5b600082601f830112612a1657600080fd5b81356001600160401b0380821115612a3057612a306129ef565b604051601f8301601f19908116603f01168101908282118183101715612a5857612a586129ef565b81604052838152866020858801011115612a7157600080fd5b836020870160208301376000602085830101528094505050505092915050565b60008060008060808587031215612aa757600080fd5b8435935060208501356001600160401b0380821115612ac557600080fd5b612ad188838901612a05565b94506040870135915080821115612ae757600080fd5b50612af487828801612a05565b949793965093946060013593505050565b600060208284031215612b1757600080fd5b81356119498161299b565b8035600281106129be57600080fd5b60008060008060808587031215612b4757600080fd5b8435612b528161299b565b93506020850135925060408501356001600160401b03811115612b7457600080fd5b612b8087828801612a05565b925050612b8f60608601612b22565b905092959194509250565b60005b83811015612bb5578181015183820152602001612b9d565b50506000910152565b60008151808452612bd6816020860160208601612b9a565b601f01601f19169290920160200192915050565b82151581526040602082015260006119466040830184612bbe565b60008060408385031215612c1857600080fd5b50508035926020909101359150565b6020815260006119496020830184612bbe565b60008060008060808587031215612c5057600080fd5b8435612c5b8161299b565b93506020850135612c6b8161299b565b9250604085013591506060850135612c828161299b565b939692955090935050565b60008083601f840112612c9f57600080fd5b5081356001600160401b03811115612cb657600080fd5b602083019150836020828501011115612cce57600080fd5b9250929050565b60008060008060008060008060008060006101408c8e031215612cf757600080fd5b612d008c6129b3565b9a5060208c013599506001600160401b0360408d0135811015612d2257600080fd5b612d328e60408f01358f01612c8d565b909a509850612d4360608e01612b22565b975060808d0135965060a08d0135955060c08d01359450612d6660e08e016129b3565b9350612d756101008e016129b3565b9250806101208e01351115612d8957600080fd5b50612d9b8d6101208e01358e01612a05565b90509295989b509295989b9093969950565b600080600080600060808688031215612dc557600080fd5b8535612dd08161299b565b94506020860135935060408601356001600160401b03811115612df257600080fd5b612dfe88828901612c8d565b9094509250612e11905060608701612b22565b90509295509295909350565b600080600060608486031215612e3257600080fd5b8335925060208401356001600160401b0380821115612e5057600080fd5b612e5c87838801612a05565b93506040860135915080821115612e7257600080fd5b50612e7f86828701612a05565b9150509250925092565b60008060008060008060a08789031215612ea257600080fd5b8635612ead8161299b565b95506020870135945060408701356001600160401b03811115612ecf57600080fd5b612edb89828a01612c8d565b9095509350612eee905060608801612b22565b9150608087013590509295509295509295565b6001600160a01b03169052565b600081518084526020808501945080840160005b83811015612f475781516001600160a01b031687529582019590820190600101612f22565b509495945050505050565b6020815260006119496020830184612f0e565b60008060408385031215612f7857600080fd5b8235612f838161299b565b915060208301356001600160401b03811115612f9e57600080fd5b612faa85828601612a05565b9150509250929050565b6000806000806000806000806000806101008b8d031215612fd457600080fd5b8a356001600160401b0380821115612feb57600080fd5b818d0191508d601f830112612fff57600080fd5b81358181111561300e57600080fd5b8e60208260051b850101111561302357600080fd5b60208381019d50909b508d0135995061303e60408e016129b3565b985060608d013591508082111561305457600080fd5b506130618d828e01612c8d565b9097509550613074905060808c016129b3565b935061308260a08c016129b3565b925060c08b0135915061309760e08c016129b3565b90509295989b9194979a5092959850565b6000806000606084860312156130bd57600080fd5b83356130c88161299b565b925060208401356130d88161299b565b929592945050506040919091013590565b6040815260006130fc6040830185612f0e565b905060018060a01b03831660208301529392505050565b60008060008060008060008060008060006101408c8e03121561313557600080fd5b8b356131408161299b565b9a5060208c0135995060408c01356001600160401b0381111561316257600080fd5b61316e8e828f01612c8d565b909a509850613181905060608d01612b22565b965060808c0135955060a08c0135945060c08c0135935060e08c01356131a68161299b565b92506101008c01356131b78161299b565b809250506101208c013590509295989b509295989b9093969950565b600080604083850312156131e657600080fd5b82356131f18161299b565b915060208301356132018161299b565b809150509250929050565b60008060006060848603121561322157600080fd5b833561322c8161299b565b9250602084013561323c8161299b565b9150604084013561324c8161299b565b809150509250925092565b602080825260059082015264475332303360d81b604082015260600190565b60208082526005908201526411d4cc8c0d60da1b604082015260600190565b634e487b7160e01b600052601160045260246000fd5b6000600182016132bd576132bd613295565b5060010190565b6001600160a01b0391909116815260200190565b6040815260006132eb6040830185612bbe565b828103602084015261221d8185612bbe565b60006020828403121561330f57600080fd5b81516001600160e01b03198116811461194957600080fd5b60ff8281168282160390811115610d3857610d38613295565b93845260ff9290921660208401526040830152606082015260800190565b8082028115828204841417610d3857610d38613295565b602080825260059082015264475331303160d81b604082015260600190565b602080825260059082015264475332303160d81b604082015260600190565b60208082526005908201526423a999181960d91b604082015260600190565b634e487b7160e01b600052602160045260246000fd5b6002811061340657634e487b7160e01b600052602160045260246000fd5b9052565b6001600160a01b038d168152602081018c90526101606040820181905281018a905260006101808b8d828501376000838d01820152601f8c01601f19168301613456606085018d6133e8565b8a60808501528960a08501528860c085015261347560e0850189612f01565b613483610100850188612f01565b818482030161012085015261349a82820187612bbe565b925050506134ac610140830184612f01565b9d9c50505050505050505050505050565b80820180821115610d3857610d38613295565b6000826134ed57634e487b7160e01b600052601260045260246000fd5b500490565b81810381811115610d3857610d38613295565b634e487b7160e01b600052603260045260246000fd5b6080808252810185905260008660a08301825b8881101561355e5782356135418161299b565b6001600160a01b031682526020928301929091019060010161352e565b50602084019690965250506001600160a01b039283166040820152911660609091015292915050565b602080825260059082015264475330333160d81b604082015260600190565b602080825260059082015264475332303560d81b604082015260600190565b8183823760009101908152919050565b8b81526001600160a01b038b81166020830152604082018b9052606082018a9052610160820190613609608084018b6133e8565b60a083019890985260c082019690965260e0810194909452918516610100840152909316610120820152610140019190915295945050505050565b60008161365357613653613295565b506000190190565b6001600160a01b0392831681529116602082015260400190565b60006020828403121561368757600080fd5b5051919050565b6000602082840312156136a057600080fd5b8151801515811461194957600080fd5b6001600160a01b03929092168252602082015260400190565b600082516136db818460208701612b9a565b919091019291505056fe9465fa0c962cc76958e6373a993326400c1c94f8be2fe3a952adfa7f60b2ea26cc69885fda6bcc1a4ace058b4a62bf5e179ea78fd58a1ccd71c22cc9b688792ff8d49fc529812e9a7c5c50e69c20f0dccc0db8fa95c98bc58cc9a4f1c1299eafe90b7bceb6e7df5418fb78d8ee546e97c83a08bbccc01a0644d599ccd2a7c2e04a204f620c8c5ccdca3fd54d003badd85ba500436a431f0cbda4f558c93c34c86c9a6c4a39284e37ed1cf53d337577d14212a4870fb976a4366c693b939918d5a2646970667358221220e6d95a28b143b67dd8e0dbf97e96c831605f807664fe0f19b914e2d25620244164736f6c63430008120033",
  "linkReferences": {},
  "deployedLinkReferences": {}
}