{
  "_format": "hh-sol-artifact-1",
  "contractName": "LPToken",
  "sourceName": "contracts/LPToken.sol",
  "abi": [
    {
      "anonymous": false,
      "inputs": [
        {
          "indexed": false,
          "internalType": "uint8",
          "name": "version",
          "type": "uint8"
        }
      ],
      "name": "Initialized",
      "type": "event"
    },
    {
      "anonymous": false,
      "inputs": [
        {
          "indexed": true,
          "internalType": "address",
          "name": "_from",
          "type": "address"
        },
        {
          "indexed": false,
          "internalType": "string",
          "name": "msg",
          "type": "string"
        }
      ],
      "name": "SenderDetail",
      "type": "event"
    },
    {
      "inputs": [
        {
          "internalType": "int256",
          "name": "amountA",
          "type": "int256"
        },
        {
          "internalType": "int256",
          "name": "amountB",
          "type": "int256"
        },
        {
          "internalType": "address",
          "name": "_toUser",
          "type": "address"
        }
      ],
      "name": "allotLPTokenFor",
      "outputs": [
        {
          "internalType": "int256",
          "name": "responseCode",
          "type": "int256"
        }
      ],
      "stateMutability": "nonpayable",
      "type": "function"
    },
    {
      "inputs": [],
      "name": "getAllLPTokenCount",
      "outputs": [
        {
          "internalType": "int256",
          "name": "",
          "type": "int256"
        }
      ],
      "stateMutability": "view",
      "type": "function"
    },
    {
      "inputs": [],
      "name": "getLpTokenAddress",
      "outputs": [
        {
          "internalType": "address",
          "name": "",
          "type": "address"
        }
      ],
      "stateMutability": "view",
      "type": "function"
    },
    {
      "inputs": [
        {
          "internalType": "contract IBaseHTS",
          "name": "_tokenService",
          "type": "address"
        }
      ],
      "name": "initialize",
      "outputs": [],
      "stateMutability": "payable",
      "type": "function"
    },
    {
      "inputs": [
        {
          "internalType": "address",
          "name": "_user",
          "type": "address"
        }
      ],
      "name": "lpTokenForUser",
      "outputs": [
        {
          "internalType": "int256",
          "name": "",
          "type": "int256"
        }
      ],
      "stateMutability": "view",
      "type": "function"
    },
    {
      "inputs": [
        {
          "internalType": "int256",
          "name": "lpAmount",
          "type": "int256"
        },
        {
          "internalType": "address",
          "name": "fromUser",
          "type": "address"
        }
      ],
      "name": "removeLPTokenFor",
      "outputs": [
        {
          "internalType": "int256",
          "name": "responseCode",
          "type": "int256"
        }
      ],
      "stateMutability": "nonpayable",
      "type": "function"
    },
    {
      "inputs": [
        {
          "internalType": "int256",
          "name": "value",
          "type": "int256"
        }
      ],
      "name": "sqrt",
      "outputs": [
        {
          "internalType": "int256",
          "name": "output",
          "type": "int256"
        }
      ],
      "stateMutability": "pure",
      "type": "function"
    }
  ],
  "bytecode": "0x608060405234801561001057600080fd5b506118c4806100206000396000f3fe6080604052600436106100705760003560e01c80638c237c691161004e5780638c237c69146100e8578063a1e79f751461011d578063b4e2517914610132578063c4d66de81461015257600080fd5b80632a4d626014610075578063665df460146100a85780636869958f146100c8575b600080fd5b34801561008157600080fd5b506100956100903660046112cd565b610167565b6040519081526020015b60405180910390f35b3480156100b457600080fd5b506100956100c336600461129d565b610536565b3480156100d457600080fd5b506100956100e336600461127a565b61058f565b3480156100f457600080fd5b5060025460405173ffffffffffffffffffffffffffffffffffffffff909116815260200161009f565b34801561012957600080fd5b50610095610639565b34801561013e57600080fd5b5061009561014d366004611343565b6106e1565b61016561016036600461127a565b610ba0565b005b60008083136101d7576040517f08c379a000000000000000000000000000000000000000000000000000000000815260206004820152601b60248201527f506c656173652070726f7669646520746f6b656e20636f756e7473000000000060448201526064015b60405180910390fd5b6040517f6869958f00000000000000000000000000000000000000000000000000000000815273ffffffffffffffffffffffffffffffffffffffff8316600482015283903090636869958f9060240160206040518083038186803b15801561023e57600080fd5b505afa158015610252573d6000803e3d6000fd5b505050506040513d601f19601f8201168201806040525081019061027691906112b5565b136102dd576040517f08c379a000000000000000000000000000000000000000000000000000000000815260206004820152601c60248201527f5573657220446f6573206e6f742068617665206c7020616d6f756e740000000060448201526064016101ce565b600080546002546040517f70089d5600000000000000000000000000000000000000000000000000000000815273ffffffffffffffffffffffffffffffffffffffff9182166004820152858216602482015262010000909204166044820181905260648201869052906370089d5690608401602060405180830381600087803b15801561036957600080fd5b505af115801561037d573d6000803e3d6000fd5b505050506040513d601f19601f820116820180604052508101906103a191906112b5565b90506016811461040d576040517f08c379a000000000000000000000000000000000000000000000000000000000815260206004820152601960248201527f4c5020746f6b656e207472616e73666572206661696c65642e0000000000000060448201526064016101ce565b6000546002546040517f770c8f5100000000000000000000000000000000000000000000000000000000815273ffffffffffffffffffffffffffffffffffffffff91821660048201526024810187905262010000909204169063770c8f51906044016040805180830381600087803b15801561048857600080fd5b505af115801561049c573d6000803e3d6000fd5b505050506040513d601f19601f820116820180604052508101906104c09190611320565b50506016811461052c576040517f08c379a000000000000000000000000000000000000000000000000000000000815260206004820152601560248201527f4c5020746f6b656e206275726e206661696c65642e000000000000000000000060448201526064016101ce565b5060169392505050565b6000806002610546846001611651565b61055091906116c5565b90508291505b818112156105895790508060028161056e81866116c5565b6105789190611651565b61058291906116c5565b9050610556565b50919050565b6002546040517f70a0823100000000000000000000000000000000000000000000000000000000815273ffffffffffffffffffffffffffffffffffffffff838116600483015260009216906370a082319060240160206040518083038186803b1580156105fb57600080fd5b505afa15801561060f573d6000803e3d6000fd5b505050506040513d601f19601f8201168201806040525081019061063391906112b5565b92915050565b600254604080517f18160ddd000000000000000000000000000000000000000000000000000000008152905160009273ffffffffffffffffffffffffffffffffffffffff16916318160ddd916004808301926020929190829003018186803b1580156106a457600080fd5b505afa1580156106b8573d6000803e3d6000fd5b505050506040513d601f19601f820116820180604052508101906106dc91906112b5565b905090565b60003373ffffffffffffffffffffffffffffffffffffffff167fe4f4aace5288c74d7e5faabc390ceb3719dce95266b935043173ec59fd8db246604051610759906020808252600f908201527f616c6c6f744c50546f6b656e466f720000000000000000000000000000000000604082015260600190565b60405180910390a26000841380156107715750600083135b6107fc576040517f08c379a0000000000000000000000000000000000000000000000000000000008152602060048201526024808201527f506c656173652070726f7669646520706f73697469766520746f6b656e20636f60448201527f756e74730000000000000000000000000000000000000000000000000000000060648201526084016101ce565b600061080b6100c38587611752565b60025490915073ffffffffffffffffffffffffffffffffffffffff1661088d576040517f08c379a000000000000000000000000000000000000000000000000000000000815260206004820152601f60248201527f4c697175696469747920546f6b656e206e6f7420696e697469616c697a65640060448201526064016101ce565b6000546002546040517ff4a01e5b00000000000000000000000000000000000000000000000000000000815273ffffffffffffffffffffffffffffffffffffffff8681166004830152918216602482015262010000909204169063f4a01e5b90604401602060405180830381600087803b15801561090a57600080fd5b505af115801561091e573d6000803e3d6000fd5b505050506040513d601f19601f8201168201806040525081019061094291906112b5565b50600080546002546040517fc3bd3ff200000000000000000000000000000000000000000000000000000000815273ffffffffffffffffffffffffffffffffffffffff91821660048201526024810185905262010000909204169063c3bd3ff2906044016040805180830381600087803b1580156109bf57600080fd5b505af11580156109d3573d6000803e3d6000fd5b505050506040513d601f19601f820116820180604052508101906109f79190611320565b50905060168114610a64576040517f08c379a000000000000000000000000000000000000000000000000000000000815260206004820152601860248201527f4c5020746f6b656e206d696e74696e67206661696c65642e000000000000000060448201526064016101ce565b6000546002546040517f70089d5600000000000000000000000000000000000000000000000000000000815273ffffffffffffffffffffffffffffffffffffffff918216600482015262010000909204811660248301819052908616604483015260648201849052906370089d5690608401602060405180830381600087803b158015610af057600080fd5b505af1158015610b04573d6000803e3d6000fd5b505050506040513d601f19601f82011682018060405250810190610b2891906112b5565b905060168114610b94576040517f08c379a000000000000000000000000000000000000000000000000000000000815260206004820152601960248201527f4c5020746f6b656e207472616e73666572206661696c65642e0000000000000060448201526064016101ce565b50601695945050505050565b600054610100900460ff1615808015610bc05750600054600160ff909116105b80610bda5750303b158015610bda575060005460ff166001145b610c66576040517f08c379a000000000000000000000000000000000000000000000000000000000815260206004820152602e60248201527f496e697469616c697a61626c653a20636f6e747261637420697320616c72656160448201527f647920696e697469616c697a656400000000000000000000000000000000000060648201526084016101ce565b600080547fffffffffffffffffffffffffffffffffffffffffffffffffffffffffffffff001660011790558015610cc457600080547fffffffffffffffffffffffffffffffffffffffffffffffffffffffffffff00ff166101001790555b600080547fffffffffffffffffffff0000000000000000000000000000000000000000ffff166201000073ffffffffffffffffffffffffffffffffffffffff851602178155610d1281610dc0565b600280547fffffffffffffffffffffffff00000000000000000000000000000000000000001673ffffffffffffffffffffffffffffffffffffffff9290921691909117905550508015610dbc57600080547fffffffffffffffffffffffffffffffffffffffffffffffffffffffffffff00ff169055604051600181527f7f26b83ff96e1f2b6a682f133852f6798a09c465da95921460cefb38474024989060200160405180910390a15b5050565b6000806000610e256040518060a00160405280600015158152602001600073ffffffffffffffffffffffffffffffffffffffff1681526020016060815260200160608152602001600073ffffffffffffffffffffffffffffffffffffffff1681525090565b6000805462010000900473ffffffffffffffffffffffffffffffffffffffff1660808301526040805160018082528183019092526010949094179390602082015b610e6e611203565b815260200190600190039081610e6657905050905060405180604001604052808481526020018381525081600081518110610ed2577f4e487b7100000000000000000000000000000000000000000000000000000000600052603260045260246000fd5b6020026020010181905250610f236040518060600160405280600063ffffffff168152602001600073ffffffffffffffffffffffffffffffffffffffff168152602001600063ffffffff1681525090565b60005462010000900473ffffffffffffffffffffffffffffffffffffffff166020820152627a12006040820152610fb660408051610120810182526060808252602080830182905260008385018190528284018390526080840181905260a0840181905260c0840181905260e0840183905284519283018552808352908201819052928101929092529061010082015290565b604080518082018252600581527f4c6162343900000000000000000000000000000000000000000000000000000060208083019190915290835281518083018352600381527f4c3439000000000000000000000000000000000000000000000000000000000081830152908301526000805462010000900473ffffffffffffffffffffffffffffffffffffffff16838301819052610100840185905260e0840186905291519091829134907fdaf22a1d00000000000000000000000000000000000000000000000000000000906110969087908f906008906024016114f0565b604080517fffffffffffffffffffffffffffffffffffffffffffffffffffffffffffffffe08184030181529181526020820180517bffffffffffffffffffffffffffffffffffffffffffffffffffffffff167fffffffff0000000000000000000000000000000000000000000000000000000090941693909317909252905161111f91906114d4565b60006040518083038185875af1925050503d806000811461115c576040519150601f19603f3d011682016040523d82523d6000602084013e611161565b606091505b5091509150816111745760156000611188565b8080602001905181019061118891906112fc565b9099509750601689146111f7576040517f08c379a000000000000000000000000000000000000000000000000000000000815260206004820152601660248201527f546f6b656e206372656174696f6e206661696c65642e0000000000000000000060448201526064016101ce565b50505050505050915091565b6040518060400160405280600081526020016112756040518060a00160405280600015158152602001600073ffffffffffffffffffffffffffffffffffffffff1681526020016060815260200160608152602001600073ffffffffffffffffffffffffffffffffffffffff1681525090565b905290565b60006020828403121561128b578081fd5b813561129681611869565b9392505050565b6000602082840312156112ae578081fd5b5035919050565b6000602082840312156112c6578081fd5b5051919050565b600080604083850312156112df578081fd5b8235915060208301356112f181611869565b809150509250929050565b6000806040838503121561130e578182fd5b8251915060208301516112f181611869565b60008060408385031215611332578182fd5b505080516020909101519092909150565b600080600060608486031215611357578081fd5b8335925060208401359150604084013561137081611869565b809150509250925092565b600082825180855260208086019550808260051b840101818601855b8481101561147d577fffffffffffffffffffffffffffffffffffffffffffffffffffffffffffffffe086840301895281516040815185528582015191508086860152815115158186015285820151606073ffffffffffffffffffffffffffffffffffffffff8083168289015283850151935060a09250608083818a015261142160e08a018661148a565b928601518984037fffffffffffffffffffffffffffffffffffffffffffffffffffffffffffffffc001858b015292945061145b858461148a565b9501511660c09790970196909652505098840198925090830190600101611397565b5090979650505050505050565b600081518084526114a281602086016020860161180a565b601f017fffffffffffffffffffffffffffffffffffffffffffffffffffffffffffffffe0169290920160200192915050565b600082516114e681846020870161180a565b9190910192915050565b606081526000845161016080606085015261150f6101c085018361148a565b915060208701517fffffffffffffffffffffffffffffffffffffffffffffffffffffffffffffffa08086850301608087015261154b848361148a565b93506040890151915061157660a087018373ffffffffffffffffffffffffffffffffffffffff169052565b60608901519150808685030160c0870152611591848361148a565b9350608089015191506115a860e087018315159052565b60a089015191506101006115c38188018463ffffffff169052565b60c08a0151151561012088015260e08a0151878603830161014089015292506115ec858461137b565b9450808a01519250505061163582860182805163ffffffff908116835260208083015173ffffffffffffffffffffffffffffffffffffffff169084015260409182015116910152565b50506020830185905260ff841660408401529050949350505050565b6000808212827f7fffffffffffffffffffffffffffffffffffffffffffffffffffffffffffffff0384138115161561168b5761168b61183a565b827f80000000000000000000000000000000000000000000000000000000000000000384128116156116bf576116bf61183a565b50500190565b6000826116f9577f4e487b710000000000000000000000000000000000000000000000000000000081526012600452602481fd5b7fffffffffffffffffffffffffffffffffffffffffffffffffffffffffffffffff83147f80000000000000000000000000000000000000000000000000000000000000008314161561174d5761174d61183a565b500590565b60007f7fffffffffffffffffffffffffffffffffffffffffffffffffffffffffffffff818413828413858304851182821616156117915761179161183a565b7f8000000000000000000000000000000000000000000000000000000000000000848712868205881281841616156117cb576117cb61183a565b8587129250878205871284841616156117e6576117e661183a565b878505871281841616156117fc576117fc61183a565b505050929093029392505050565b60005b8381101561182557818101518382015260200161180d565b83811115611834576000848401525b50505050565b7f4e487b7100000000000000000000000000000000000000000000000000000000600052601160045260246000fd5b73ffffffffffffffffffffffffffffffffffffffff8116811461188b57600080fd5b5056fea26469706673582212208d1781c42ae88196cae72dbfa2e5efc190d8d11b7b2d506ff6ec9d82107ce73764736f6c63430008040033",
  "linkReferences": {},
  "deployedLinkReferences": {}
}