{
  "_format": "hh-sol-artifact-1",
  "contractName": "MultisigDAOFactory",
  "sourceName": "contracts/dao/MultisigDAOFactory.sol",
  "abi": [
    {
      "inputs": [
        {
          "internalType": "string",
          "name": "message",
          "type": "string"
        }
      ],
      "name": "InvalidInput",
      "type": "error"
    },
    {
      "inputs": [
        {
          "internalType": "string",
          "name": "message",
          "type": "string"
        }
      ],
      "name": "NotAdmin",
      "type": "error"
    },
    {
      "anonymous": false,
      "inputs": [
        {
          "indexed": false,
          "internalType": "address",
          "name": "daoAddress",
          "type": "address"
        },
        {
          "indexed": false,
          "internalType": "address",
          "name": "safeAddress",
          "type": "address"
        },
        {
          "components": [
            {
              "internalType": "address",
              "name": "admin",
              "type": "address"
            },
            {
              "internalType": "string",
              "name": "name",
              "type": "string"
            },
            {
              "internalType": "string",
              "name": "logoUrl",
              "type": "string"
            },
            {
              "internalType": "address[]",
              "name": "owners",
              "type": "address[]"
            },
            {
              "internalType": "uint256",
              "name": "threshold",
              "type": "uint256"
            },
            {
              "internalType": "bool",
              "name": "isPrivate",
              "type": "bool"
            },
            {
              "internalType": "string",
              "name": "description",
              "type": "string"
            },
            {
              "internalType": "string[]",
              "name": "webLinks",
              "type": "string[]"
            }
          ],
          "indexed": false,
          "internalType": "struct MultisigDAOFactory.CreateDAOInputs",
          "name": "inputs",
          "type": "tuple"
        }
      ],
      "name": "DAOCreated",
      "type": "event"
    },
    {
      "anonymous": false,
      "inputs": [
        {
          "indexed": false,
          "internalType": "uint8",
          "name": "version",
          "type": "uint8"
        }
      ],
      "name": "Initialized",
      "type": "event"
    },
    {
      "anonymous": false,
      "inputs": [
        {
          "indexed": true,
          "internalType": "address",
          "name": "oldImplementation",
          "type": "address"
        },
        {
          "indexed": true,
          "internalType": "address",
          "name": "newImplementation",
          "type": "address"
        },
        {
          "indexed": false,
          "internalType": "string",
          "name": "name",
          "type": "string"
        }
      ],
      "name": "LogicUpdated",
      "type": "event"
    },
    {
      "anonymous": false,
      "inputs": [
        {
          "indexed": true,
          "internalType": "address",
          "name": "previousOwner",
          "type": "address"
        },
        {
          "indexed": true,
          "internalType": "address",
          "name": "newOwner",
          "type": "address"
        }
      ],
      "name": "OwnershipTransferred",
      "type": "event"
    },
    {
      "inputs": [
        {
          "components": [
            {
              "internalType": "address",
              "name": "admin",
              "type": "address"
            },
            {
              "internalType": "string",
              "name": "name",
              "type": "string"
            },
            {
              "internalType": "string",
              "name": "logoUrl",
              "type": "string"
            },
            {
              "internalType": "address[]",
              "name": "owners",
              "type": "address[]"
            },
            {
              "internalType": "uint256",
              "name": "threshold",
              "type": "uint256"
            },
            {
              "internalType": "bool",
              "name": "isPrivate",
              "type": "bool"
            },
            {
              "internalType": "string",
              "name": "description",
              "type": "string"
            },
            {
              "internalType": "string[]",
              "name": "webLinks",
              "type": "string[]"
            }
          ],
          "internalType": "struct MultisigDAOFactory.CreateDAOInputs",
          "name": "_createDAOInputs",
          "type": "tuple"
        }
      ],
      "name": "createDAO",
      "outputs": [
        {
          "internalType": "address",
          "name": "",
          "type": "address"
        }
      ],
      "stateMutability": "nonpayable",
      "type": "function"
    },
    {
      "inputs": [],
      "name": "getDAOs",
      "outputs": [
        {
          "internalType": "address[]",
          "name": "",
          "type": "address[]"
        }
      ],
      "stateMutability": "view",
      "type": "function"
    },
    {
      "inputs": [],
      "name": "getHederaServiceVersion",
      "outputs": [
        {
          "internalType": "contract IHederaService",
          "name": "",
          "type": "address"
        }
      ],
      "stateMutability": "view",
      "type": "function"
    },
    {
      "inputs": [
        {
          "internalType": "address",
          "name": "_proxyAdmin",
          "type": "address"
        },
        {
          "internalType": "address",
          "name": "_daoLogic",
          "type": "address"
        },
        {
          "internalType": "address",
          "name": "_safeLogic",
          "type": "address"
        },
        {
          "internalType": "address",
          "name": "_safeFactory",
          "type": "address"
        },
        {
          "internalType": "contract IHederaService",
          "name": "_hederaService",
          "type": "address"
        }
      ],
      "name": "initialize",
      "outputs": [],
      "stateMutability": "nonpayable",
      "type": "function"
    },
    {
      "inputs": [],
      "name": "owner",
      "outputs": [
        {
          "internalType": "address",
          "name": "",
          "type": "address"
        }
      ],
      "stateMutability": "view",
      "type": "function"
    },
    {
      "inputs": [],
      "name": "renounceOwnership",
      "outputs": [],
      "stateMutability": "nonpayable",
      "type": "function"
    },
    {
      "inputs": [
        {
          "internalType": "address",
          "name": "newOwner",
          "type": "address"
        }
      ],
      "name": "transferOwnership",
      "outputs": [],
      "stateMutability": "nonpayable",
      "type": "function"
    },
    {
      "inputs": [
        {
          "internalType": "address",
          "name": "_newImpl",
          "type": "address"
        }
      ],
      "name": "upgradeDaoLogicAddress",
      "outputs": [],
      "stateMutability": "nonpayable",
      "type": "function"
    },
    {
      "inputs": [
        {
          "internalType": "contract IHederaService",
          "name": "newHederaService",
          "type": "address"
        }
      ],
      "name": "upgradeHederaService",
      "outputs": [],
      "stateMutability": "nonpayable",
      "type": "function"
    },
    {
      "inputs": [
        {
          "internalType": "address",
          "name": "_newImpl",
          "type": "address"
        }
      ],
      "name": "upgradeSafeFactoryAddress",
      "outputs": [],
      "stateMutability": "nonpayable",
      "type": "function"
    },
    {
      "inputs": [
        {
          "internalType": "address",
          "name": "_newImpl",
          "type": "address"
        }
      ],
      "name": "upgradeSafeLogicAddress",
      "outputs": [],
      "stateMutability": "nonpayable",
      "type": "function"
    }
  ],
  "bytecode": "0x608060405234801561001057600080fd5b50612405806100206000396000f3fe60806040523480156200001157600080fd5b5060043610620000c85760003560e01c8063715018a6116200008b578063d26d681f1162000062578063d26d681f1462000194578063f2fde38b14620001ab578063fda2d01514620001c257600080fd5b8063715018a614620001615780637bd0ca1f146200016b5780638da5cb5b146200018257600080fd5b80631459457a14620000cd5780633f7bcf0c14620000e6578063415cc7dd14620000fd5780634a6a8989146200011f5780636dab6f75146200014f575b600080fd5b620000e4620000de36600462000cc5565b620001d9565b005b620000e4620000f736600462000d41565b6200044f565b6200010762000524565b60405162000116919062000dae565b60405180910390f35b620001366200013036600462000ff1565b62000588565b6040516001600160a01b03909116815260200162000116565b6069546001600160a01b031662000136565b620000e462000663565b620000e46200017c36600462000d41565b6200067b565b6033546001600160a01b031662000136565b620000e4620001a536600462000d41565b62000751565b620000e4620001bc36600462000d41565b62000824565b620000e4620001d336600462000d41565b620008a3565b600054610100900460ff1615808015620001fa5750600054600160ff909116105b80620002165750303b15801562000216575060005460ff166001145b6200027f5760405162461bcd60e51b815260206004820152602e60248201527f496e697469616c697a61626c653a20636f6e747261637420697320616c72656160448201526d191e481a5b9a5d1a585b1a5e995960921b60648201526084015b60405180910390fd5b6000805460ff191660011790558015620002a3576000805461ff0019166101001790555b620002ad6200097b565b606580546001600160a01b038089166001600160a01b03199283161790925560668054888416908316811790915560678054888516908416179055606880548785169084161790556069805493861693909216929092179055604080518082018252600881526744616f4c6f67696360c01b60208201529051600091600080516020620023b0833981519152916200034691906200117b565b60405180910390a36067546040805180820182526009815268536166654c6f67696360b81b602082015290516001600160a01b0390921691600091600080516020620023b0833981519152916200039e91906200117b565b60405180910390a3606854604080518082018252600b81526a53616665466163746f727960a81b602082015290516001600160a01b0390921691600091600080516020620023b083398151915291620003f891906200117b565b60405180910390a3801562000447576000805461ff0019169055604051600181527f7f26b83ff96e1f2b6a682f133852f6798a09c465da95921460cefb38474024989060200160405180910390a15b505050505050565b6065546001600160a01b03163314620004ac57604051633b12922f60e11b815260206004820152601f60248201527f4d756c746973696744414f466163746f72793a2061757468206661696c656400604482015260640162000276565b606654604080518082018252600881526744616f4c6f67696360c01b602082015290516001600160a01b03808516931691600080516020620023b083398151915291620004fa91906200117b565b60405180910390a3606680546001600160a01b0319166001600160a01b0392909216919091179055565b6060606a8054806020026020016040519081016040528092919081815260200182805480156200057e57602002820191906000526020600020905b81546001600160a01b031681526001909101906020018083116200055f575b5050505050905090565b6000806200059f83606001518460800151620009af565b90506000620005c78460000151856020015186604001518760c001518860e001518762000ac4565b90508360a001516200061f57606a80546001810182556000919091527f116fea137db6e131133e7f2bab296045d8f41cc5607279db17b218cab0929a510180546001600160a01b0319166001600160a01b0383161790555b7f1ddd254eb8c412ecc00b0c0b1863352ac892f947a6b8a22aa483cc7a19fda4418183866040516200065493929190620011e9565b60405180910390a19392505050565b6200066d62000bac565b62000679600062000c08565b565b6065546001600160a01b03163314620006d857604051633b12922f60e11b815260206004820152601f60248201527f4d756c746973696744414f466163746f72793a2061757468206661696c656400604482015260640162000276565b6067546040805180820182526009815268536166654c6f67696360b81b602082015290516001600160a01b03808516931691600080516020620023b0833981519152916200072791906200117b565b60405180910390a3606780546001600160a01b0319166001600160a01b0392909216919091179055565b6200075b62000bac565b606980546001600160a01b0319166001600160a01b03831617905560005b606a5481101562000820576000606a82815481106200079c576200079c620012e8565b60009182526020909120015460405163d26d681f60e01b81526001600160a01b0385811660048301529091169150819063d26d681f90602401600060405180830381600087803b158015620007f057600080fd5b505af115801562000805573d6000803e3d6000fd5b505050505080806200081790620012fe565b91505062000779565b5050565b6200082e62000bac565b6001600160a01b038116620008955760405162461bcd60e51b815260206004820152602660248201527f4f776e61626c653a206e6577206f776e657220697320746865207a65726f206160448201526564647265737360d01b606482015260840162000276565b620008a08162000c08565b50565b6065546001600160a01b031633146200090057604051633b12922f60e11b815260206004820152601f60248201527f4d756c746973696744414f466163746f72793a2061757468206661696c656400604482015260640162000276565b606854604080518082018252600b81526a53616665466163746f727960a81b602082015290516001600160a01b03808516931691600080516020620023b0833981519152916200095191906200117b565b60405180910390a3606880546001600160a01b0319166001600160a01b0392909216919091179055565b600054610100900460ff16620009a55760405162461bcd60e51b8152600401620002769062001326565b6200067962000c5a565b60685460675460408051602081018252600080825291516361b69abd60e01b81529193849360609385936001600160a01b03938416936361b69abd93620009fd939116919060040162001371565b6020604051808303816000875af115801562000a1d573d6000803e3d6000fd5b505050506040513d601f19601f8201168201806040525081019062000a4391906200139d565b60405163b63e800d60e01b815290915081906001600160a01b0382169063b63e800d9062000a85908a908a9089908990829081906000908290600401620013bd565b600060405180830381600087803b15801562000aa057600080fd5b505af115801562000ab5573d6000803e3d6000fd5b50929998505050505050505050565b6066546065546040805160208101825260008082529151919384936001600160a01b03918216939116919062000afa9062000c8f565b62000b08939291906200142a565b604051809103906000f08015801562000b25573d6000803e3d6000fd5b5060695460405163bdb3691f60e01b815291925082916001600160a01b038084169263bdb3691f9262000b6b928e928e928e928e928e928e929091169060040162001461565b600060405180830381600087803b15801562000b8657600080fd5b505af115801562000b9b573d6000803e3d6000fd5b50929b9a5050505050505050505050565b6033546001600160a01b03163314620006795760405162461bcd60e51b815260206004820181905260248201527f4f776e61626c653a2063616c6c6572206973206e6f7420746865206f776e6572604482015260640162000276565b603380546001600160a01b038381166001600160a01b0319831681179093556040519116919082907f8be0079c531659141344cd1fd0a4f28419497f9722a3daafe3b4186f6b6457e090600090a35050565b600054610100900460ff1662000c845760405162461bcd60e51b8152600401620002769062001326565b620006793362000c08565b610ecc80620014e483390190565b6001600160a01b0381168114620008a057600080fd5b803562000cc08162000c9d565b919050565b600080600080600060a0868803121562000cde57600080fd5b853562000ceb8162000c9d565b9450602086013562000cfd8162000c9d565b9350604086013562000d0f8162000c9d565b9250606086013562000d218162000c9d565b9150608086013562000d338162000c9d565b809150509295509295909350565b60006020828403121562000d5457600080fd5b813562000d618162000c9d565b9392505050565b600081518084526020808501945080840160005b8381101562000da35781516001600160a01b03168752958201959082019060010162000d7c565b509495945050505050565b60208152600062000d61602083018462000d68565b634e487b7160e01b600052604160045260246000fd5b604051610100810167ffffffffffffffff8111828210171562000e005762000e0062000dc3565b60405290565b604051601f8201601f1916810167ffffffffffffffff8111828210171562000e325762000e3262000dc3565b604052919050565b600082601f83011262000e4c57600080fd5b813567ffffffffffffffff81111562000e695762000e6962000dc3565b62000e7e601f8201601f191660200162000e06565b81815284602083860101111562000e9457600080fd5b816020850160208301376000918101602001919091529392505050565b600067ffffffffffffffff82111562000ece5762000ece62000dc3565b5060051b60200190565b600082601f83011262000eea57600080fd5b8135602062000f0362000efd8362000eb1565b62000e06565b82815260059290921b8401810191818101908684111562000f2357600080fd5b8286015b8481101562000f4b57803562000f3d8162000c9d565b835291830191830162000f27565b509695505050505050565b8035801515811462000cc057600080fd5b600082601f83011262000f7957600080fd5b8135602062000f8c62000efd8362000eb1565b82815260059290921b8401810191818101908684111562000fac57600080fd5b8286015b8481101562000f4b57803567ffffffffffffffff81111562000fd25760008081fd5b62000fe28986838b010162000e3a565b84525091830191830162000fb0565b6000602082840312156200100457600080fd5b813567ffffffffffffffff808211156200101d57600080fd5b9083019061010082860312156200103357600080fd5b6200103d62000dd9565b620010488362000cb3565b81526020830135828111156200105d57600080fd5b6200106b8782860162000e3a565b6020830152506040830135828111156200108457600080fd5b620010928782860162000e3a565b604083015250606083013582811115620010ab57600080fd5b620010b98782860162000ed8565b60608301525060808301356080820152620010d760a0840162000f56565b60a082015260c083013582811115620010ef57600080fd5b620010fd8782860162000e3a565b60c08301525060e0830135828111156200111657600080fd5b620011248782860162000f67565b60e08301525095945050505050565b6000815180845260005b818110156200115b576020818501810151868301820152016200113d565b506000602082860101526020601f19601f83011685010191505092915050565b60208152600062000d61602083018462001133565b600081518084526020808501808196508360051b8101915082860160005b85811015620011dc578284038952620011c984835162001133565b98850198935090840190600101620011ae565b5091979650505050505050565b60006001600160a01b038086168352808516602084015250606060408301526200121f6060830184516001600160a01b03169052565b60208301516101008060808501526200123d61016085018362001133565b91506040850151605f19808685030160a08701526200125d848362001133565b935060608701519150808685030160c08701526200127c848362000d68565b9350608087015160e087015260a087015191506200129d8387018315159052565b60c087015192508086850301610120870152620012bb848462001133565b935060e0870151925080868503016101408701525050620012dd828262001190565b979650505050505050565b634e487b7160e01b600052603260045260246000fd5b6000600182016200131f57634e487b7160e01b600052601160045260246000fd5b5060010190565b6020808252602b908201527f496e697469616c697a61626c653a20636f6e7472616374206973206e6f74206960408201526a6e697469616c697a696e6760a81b606082015260800190565b6001600160a01b038316815260406020820152600062001395604083018462001133565b949350505050565b600060208284031215620013b057600080fd5b815162000d618162000c9d565b6000610100808352620013d38184018c62000d68565b90508960208401526001600160a01b03808a1660408501528382036060850152620013ff828a62001133565b978116608085015295861660a0840152505060c081019290925290911660e090910152949350505050565b60006001600160a01b0380861683528085166020840152506060604083015262001458606083018462001133565b95945050505050565b60006001600160a01b03808a16835260e060208401526200148660e084018a62001133565b83810360408501526200149a818a62001133565b90508381036060850152620014b0818962001133565b90508381036080850152620014c6818862001190565b95821660a0850152509290921660c090910152509594505050505056fe608060405260405162000ecc38038062000ecc833981016040819052620000269162000497565b828162000036828260006200004d565b50620000449050826200008a565b505050620005ca565b6200005883620000e5565b600082511180620000665750805b1562000085576200008383836200012760201b620001691760201c565b505b505050565b7f7e644d79422f17c01e4894b5f4f588d331ebfa28653d42ae832dc59e38c9798f620000b562000156565b604080516001600160a01b03928316815291841660208301520160405180910390a1620000e2816200018f565b50565b620000f08162000244565b6040516001600160a01b038216907fbc7cd75a20ee27fd9adebab32041f755214dbc6bffa90cc0225b39da2e5c2d3b90600090a250565b60606200014f838360405180606001604052806027815260200162000ea560279139620002f8565b9392505050565b60006200018060008051602062000e8583398151915260001b6200037760201b620001951760201c565b546001600160a01b0316919050565b6001600160a01b038116620001fa5760405162461bcd60e51b815260206004820152602660248201527f455243313936373a206e65772061646d696e20697320746865207a65726f206160448201526564647265737360d01b60648201526084015b60405180910390fd5b806200022360008051602062000e8583398151915260001b6200037760201b620001951760201c565b80546001600160a01b0319166001600160a01b039290921691909117905550565b6200025a816200037a60201b620001981760201c565b620002be5760405162461bcd60e51b815260206004820152602d60248201527f455243313936373a206e657720696d706c656d656e746174696f6e206973206e60448201526c1bdd08184818dbdb9d1c9858dd609a1b6064820152608401620001f1565b80620002237f360894a13ba1a3210667c828492db98dca3e2076cc3735a920a3ca505d382bbc60001b6200037760201b620001951760201c565b6060600080856001600160a01b03168560405162000317919062000577565b600060405180830381855af49150503d806000811462000354576040519150601f19603f3d011682016040523d82523d6000602084013e62000359565b606091505b5090925090506200036d8683838762000389565b9695505050505050565b90565b6001600160a01b03163b151590565b60608315620003fd578251600003620003f5576001600160a01b0385163b620003f55760405162461bcd60e51b815260206004820152601d60248201527f416464726573733a2063616c6c20746f206e6f6e2d636f6e74726163740000006044820152606401620001f1565b508162000409565b62000409838362000411565b949350505050565b815115620004225781518083602001fd5b8060405162461bcd60e51b8152600401620001f1919062000595565b80516001600160a01b03811681146200045657600080fd5b919050565b634e487b7160e01b600052604160045260246000fd5b60005b838110156200048e57818101518382015260200162000474565b50506000910152565b600080600060608486031215620004ad57600080fd5b620004b8846200043e565b9250620004c8602085016200043e565b60408501519092506001600160401b0380821115620004e657600080fd5b818601915086601f830112620004fb57600080fd5b8151818111156200051057620005106200045b565b604051601f8201601f19908116603f011681019083821181831017156200053b576200053b6200045b565b816040528281528960208487010111156200055557600080fd5b6200056883602083016020880162000471565b80955050505050509250925092565b600082516200058b81846020870162000471565b9190910192915050565b6020815260008251806020840152620005b681604085016020870162000471565b601f01601f19169190910160400192915050565b6108ab80620005da6000396000f3fe60806040523661001357610011610017565b005b6100115b61001f6101a7565b6001600160a01b0316330361015f5760606001600160e01b0319600035166364d3180d60e11b810161005a576100536101da565b9150610157565b63587086bd60e11b6001600160e01b031982160161007a57610053610231565b63070d7c6960e41b6001600160e01b031982160161009a57610053610277565b621eb96f60e61b6001600160e01b03198216016100b9576100536102a8565b63a39f25e560e01b6001600160e01b03198216016100d9576100536102e8565b60405162461bcd60e51b815260206004820152604260248201527f5472616e73706172656e745570677261646561626c6550726f78793a2061646d60448201527f696e2063616e6e6f742066616c6c6261636b20746f2070726f78792074617267606482015261195d60f21b608482015260a4015b60405180910390fd5b815160208301f35b6101676102fc565b565b606061018e838360405180606001604052806027815260200161084f6027913961030c565b9392505050565b90565b6001600160a01b03163b151590565b60007fb53127684a568b3173ae13b9f8a6016e243e63b6e8ee1178d6a717850b5d61035b546001600160a01b0316919050565b60606101e4610384565b60006101f336600481846106a2565b81019061020091906106e8565b905061021d8160405180602001604052806000815250600061038f565b505060408051602081019091526000815290565b606060008061024336600481846106a2565b8101906102509190610719565b915091506102608282600161038f565b604051806020016040528060008152509250505090565b6060610281610384565b600061029036600481846106a2565b81019061029d91906106e8565b905061021d816103bb565b60606102b2610384565b60006102bc6101a7565b604080516001600160a01b03831660208201529192500160405160208183030381529060405291505090565b60606102f2610384565b60006102bc610412565b610167610307610412565b610421565b6060600080856001600160a01b03168560405161032991906107ff565b600060405180830381855af49150503d8060008114610364576040519150601f19603f3d011682016040523d82523d6000602084013e610369565b606091505b509150915061037a86838387610445565b9695505050505050565b341561016757600080fd5b610398836104c6565b6000825111806103a55750805b156103b6576103b48383610169565b505b505050565b7f7e644d79422f17c01e4894b5f4f588d331ebfa28653d42ae832dc59e38c9798f6103e46101a7565b604080516001600160a01b03928316815291841660208301520160405180910390a161040f81610506565b50565b600061041c6105bc565b905090565b3660008037600080366000845af43d6000803e808015610440573d6000f35b3d6000fd5b606083156104b45782516000036104ad576001600160a01b0385163b6104ad5760405162461bcd60e51b815260206004820152601d60248201527f416464726573733a2063616c6c20746f206e6f6e2d636f6e7472616374000000604482015260640161014e565b50816104be565b6104be83836105e4565b949350505050565b6104cf8161060e565b6040516001600160a01b038216907fbc7cd75a20ee27fd9adebab32041f755214dbc6bffa90cc0225b39da2e5c2d3b90600090a250565b6001600160a01b03811661056b5760405162461bcd60e51b815260206004820152602660248201527f455243313936373a206e65772061646d696e20697320746865207a65726f206160448201526564647265737360d01b606482015260840161014e565b807fb53127684a568b3173ae13b9f8a6016e243e63b6e8ee1178d6a717850b5d61035b805473ffffffffffffffffffffffffffffffffffffffff19166001600160a01b039290921691909117905550565b60007f360894a13ba1a3210667c828492db98dca3e2076cc3735a920a3ca505d382bbc6101cb565b8151156105f45781518083602001fd5b8060405162461bcd60e51b815260040161014e919061081b565b6001600160a01b0381163b61067b5760405162461bcd60e51b815260206004820152602d60248201527f455243313936373a206e657720696d706c656d656e746174696f6e206973206e60448201526c1bdd08184818dbdb9d1c9858dd609a1b606482015260840161014e565b807f360894a13ba1a3210667c828492db98dca3e2076cc3735a920a3ca505d382bbc61058e565b600080858511156106b257600080fd5b838611156106bf57600080fd5b5050820193919092039150565b80356001600160a01b03811681146106e357600080fd5b919050565b6000602082840312156106fa57600080fd5b61018e826106cc565b634e487b7160e01b600052604160045260246000fd5b6000806040838503121561072c57600080fd5b610735836106cc565b9150602083013567ffffffffffffffff8082111561075257600080fd5b818501915085601f83011261076657600080fd5b81358181111561077857610778610703565b604051601f8201601f19908116603f011681019083821181831017156107a0576107a0610703565b816040528281528860208487010111156107b957600080fd5b8260208601602083013760006020848301015280955050505050509250929050565b60005b838110156107f65781810151838201526020016107de565b50506000910152565b600082516108118184602087016107db565b9190910192915050565b602081526000825180602084015261083a8160408501602087016107db565b601f01601f1916919091016040019291505056fe416464726573733a206c6f772d6c6576656c2064656c65676174652063616c6c206661696c6564a2646970667358221220fb4626745ae8f971d2ea920e16c9476c772f050301b983b3f02aa85dd4e1c5c164736f6c63430008120033b53127684a568b3173ae13b9f8a6016e243e63b6e8ee1178d6a717850b5d6103416464726573733a206c6f772d6c6576656c2064656c65676174652063616c6c206661696c6564cf9d4a2ff924c5f3553e3c8485e6bc24fde822593d2c3d78c8fabaada123f8f6a2646970667358221220b351983d5a80e3ac70f90cb28af5b1547e6578d6609508890547433bee604cde64736f6c63430008120033",
  "linkReferences": {},
  "deployedLinkReferences": {}
}