{
  "_format": "hh-sol-artifact-1",
  "contractName": "MultiSigDAO",
  "sourceName": "contracts/dao/MultisigDAO.sol",
  "abi": [
    {
      "inputs": [
        {
          "internalType": "string",
          "name": "message",
          "type": "string"
        }
      ],
      "name": "InvalidInput",
      "type": "error"
    },
    {
      "anonymous": false,
      "inputs": [
        {
          "indexed": false,
          "internalType": "string",
          "name": "previousDesc",
          "type": "string"
        },
        {
          "indexed": false,
          "internalType": "string",
          "name": "currentDesc",
          "type": "string"
        }
      ],
      "name": "DescriptionUpdated",
      "type": "event"
    },
    {
      "anonymous": false,
      "inputs": [
        {
          "indexed": false,
          "internalType": "uint8",
          "name": "version",
          "type": "uint8"
        }
      ],
      "name": "Initialized",
      "type": "event"
    },
    {
      "anonymous": false,
      "inputs": [
        {
          "indexed": false,
          "internalType": "string",
          "name": "previousLogoUrl",
          "type": "string"
        },
        {
          "indexed": false,
          "internalType": "string",
          "name": "currentLogoUrl",
          "type": "string"
        }
      ],
      "name": "LogoUrlUpdated",
      "type": "event"
    },
    {
      "anonymous": false,
      "inputs": [
        {
          "indexed": false,
          "internalType": "string",
          "name": "previousName",
          "type": "string"
        },
        {
          "indexed": false,
          "internalType": "string",
          "name": "currentName",
          "type": "string"
        }
      ],
      "name": "NameUpdated",
      "type": "event"
    },
    {
      "anonymous": false,
      "inputs": [
        {
          "indexed": true,
          "internalType": "address",
          "name": "previousOwner",
          "type": "address"
        },
        {
          "indexed": true,
          "internalType": "address",
          "name": "newOwner",
          "type": "address"
        }
      ],
      "name": "OwnershipTransferred",
      "type": "event"
    },
    {
      "anonymous": false,
      "inputs": [
        {
          "indexed": false,
          "internalType": "bytes32",
          "name": "txnHash",
          "type": "bytes32"
        },
        {
          "components": [
            {
              "internalType": "address",
              "name": "to",
              "type": "address"
            },
            {
              "internalType": "uint256",
              "name": "value",
              "type": "uint256"
            },
            {
              "internalType": "bytes",
              "name": "data",
              "type": "bytes"
            },
            {
              "internalType": "enum Enum.Operation",
              "name": "operation",
              "type": "uint8"
            },
            {
              "internalType": "uint256",
              "name": "nonce",
              "type": "uint256"
            },
            {
              "internalType": "uint256",
              "name": "transactionType",
              "type": "uint256"
            },
            {
              "internalType": "string",
              "name": "title",
              "type": "string"
            },
            {
              "internalType": "string",
              "name": "description",
              "type": "string"
            },
            {
              "internalType": "string",
              "name": "linkToDiscussion",
              "type": "string"
            },
            {
              "internalType": "address",
              "name": "creator",
              "type": "address"
            }
          ],
          "indexed": false,
          "internalType": "struct MultiSigDAO.TransactionInfo",
          "name": "info",
          "type": "tuple"
        }
      ],
      "name": "TransactionCreated",
      "type": "event"
    },
    {
      "anonymous": false,
      "inputs": [
        {
          "indexed": false,
          "internalType": "string",
          "name": "previousLink",
          "type": "string"
        },
        {
          "indexed": false,
          "internalType": "string",
          "name": "currentLink",
          "type": "string"
        }
      ],
      "name": "WebLinkUpdated",
      "type": "event"
    },
    {
      "inputs": [
        {
          "internalType": "address",
          "name": "_admin",
          "type": "address"
        },
        {
          "internalType": "string",
          "name": "_name",
          "type": "string"
        },
        {
          "internalType": "string",
          "name": "_logoUrl",
          "type": "string"
        },
        {
          "internalType": "string",
          "name": "_description",
          "type": "string"
        },
        {
          "internalType": "string[]",
          "name": "_webLinks",
          "type": "string[]"
        }
      ],
      "name": "__BaseDAO_init",
      "outputs": [],
      "stateMutability": "nonpayable",
      "type": "function"
    },
    {
      "inputs": [
        {
          "internalType": "string",
          "name": "_key",
          "type": "string"
        },
        {
          "internalType": "string",
          "name": "_value",
          "type": "string"
        }
      ],
      "name": "addWebLink",
      "outputs": [],
      "stateMutability": "nonpayable",
      "type": "function"
    },
    {
      "inputs": [
        {
          "internalType": "bytes32",
          "name": "_txnHash",
          "type": "bytes32"
        }
      ],
      "name": "getApprovalCounts",
      "outputs": [
        {
          "internalType": "uint256",
          "name": "",
          "type": "uint256"
        }
      ],
      "stateMutability": "view",
      "type": "function"
    },
    {
      "inputs": [],
      "name": "getDaoDetail",
      "outputs": [
        {
          "internalType": "string",
          "name": "_name",
          "type": "string"
        },
        {
          "internalType": "string",
          "name": "_logoUrl",
          "type": "string"
        },
        {
          "internalType": "string",
          "name": "_webLinks",
          "type": "string"
        },
        {
          "internalType": "string",
          "name": "_description",
          "type": "string"
        },
        {
          "internalType": "address",
          "name": "_admin",
          "type": "address"
        }
      ],
      "stateMutability": "view",
      "type": "function"
    },
    {
      "inputs": [],
      "name": "getHederaGnosisSafeContractAddress",
      "outputs": [
        {
          "internalType": "address",
          "name": "",
          "type": "address"
        }
      ],
      "stateMutability": "view",
      "type": "function"
    },
    {
      "inputs": [],
      "name": "getHederaServiceVersion",
      "outputs": [
        {
          "internalType": "contract IHederaService",
          "name": "",
          "type": "address"
        }
      ],
      "stateMutability": "view",
      "type": "function"
    },
    {
      "inputs": [
        {
          "internalType": "bytes32",
          "name": "_txnHash",
          "type": "bytes32"
        }
      ],
      "name": "getTransactionInfo",
      "outputs": [
        {
          "components": [
            {
              "internalType": "address",
              "name": "to",
              "type": "address"
            },
            {
              "internalType": "uint256",
              "name": "value",
              "type": "uint256"
            },
            {
              "internalType": "bytes",
              "name": "data",
              "type": "bytes"
            },
            {
              "internalType": "enum Enum.Operation",
              "name": "operation",
              "type": "uint8"
            },
            {
              "internalType": "uint256",
              "name": "nonce",
              "type": "uint256"
            },
            {
              "internalType": "uint256",
              "name": "transactionType",
              "type": "uint256"
            },
            {
              "internalType": "string",
              "name": "title",
              "type": "string"
            },
            {
              "internalType": "string",
              "name": "description",
              "type": "string"
            },
            {
              "internalType": "string",
              "name": "linkToDiscussion",
              "type": "string"
            },
            {
              "internalType": "address",
              "name": "creator",
              "type": "address"
            }
          ],
          "internalType": "struct MultiSigDAO.TransactionInfo",
          "name": "",
          "type": "tuple"
        }
      ],
      "stateMutability": "view",
      "type": "function"
    },
    {
      "inputs": [
        {
          "internalType": "address",
          "name": "_admin",
          "type": "address"
        },
        {
          "internalType": "string",
          "name": "_name",
          "type": "string"
        },
        {
          "internalType": "string",
          "name": "_logoUrl",
          "type": "string"
        },
        {
          "internalType": "string",
          "name": "_description",
          "type": "string"
        },
        {
          "internalType": "string[]",
          "name": "_webLinks",
          "type": "string[]"
        },
        {
          "internalType": "contract HederaGnosisSafe",
          "name": "_hederaGnosisSafe",
          "type": "address"
        },
        {
          "internalType": "contract IHederaService",
          "name": "_hederaService",
          "type": "address"
        }
      ],
      "name": "initialize",
      "outputs": [],
      "stateMutability": "nonpayable",
      "type": "function"
    },
    {
      "inputs": [
        {
          "internalType": "string[]",
          "name": "items",
          "type": "string[]"
        }
      ],
      "name": "isOddLengthArray",
      "outputs": [
        {
          "internalType": "bool",
          "name": "",
          "type": "bool"
        }
      ],
      "stateMutability": "pure",
      "type": "function"
    },
    {
      "inputs": [
        {
          "internalType": "string[]",
          "name": "items",
          "type": "string[]"
        },
        {
          "internalType": "string",
          "name": "separator",
          "type": "string"
        }
      ],
      "name": "join",
      "outputs": [
        {
          "internalType": "string",
          "name": "result",
          "type": "string"
        }
      ],
      "stateMutability": "pure",
      "type": "function"
    },
    {
      "inputs": [],
      "name": "owner",
      "outputs": [
        {
          "internalType": "address",
          "name": "",
          "type": "address"
        }
      ],
      "stateMutability": "view",
      "type": "function"
    },
    {
      "inputs": [
        {
          "internalType": "address",
          "name": "_to",
          "type": "address"
        },
        {
          "internalType": "bytes",
          "name": "_data",
          "type": "bytes"
        },
        {
          "internalType": "enum Enum.Operation",
          "name": "_operation",
          "type": "uint8"
        },
        {
          "internalType": "uint256",
          "name": "_type",
          "type": "uint256"
        },
        {
          "internalType": "string",
          "name": "title",
          "type": "string"
        },
        {
          "internalType": "string",
          "name": "desc",
          "type": "string"
        },
        {
          "internalType": "string",
          "name": "linkToDiscussion",
          "type": "string"
        }
      ],
      "name": "proposeTransaction",
      "outputs": [
        {
          "internalType": "bytes32",
          "name": "",
          "type": "bytes32"
        }
      ],
      "stateMutability": "payable",
      "type": "function"
    },
    {
      "inputs": [
        {
          "internalType": "address",
          "name": "_token",
          "type": "address"
        },
        {
          "internalType": "address",
          "name": "_receiver",
          "type": "address"
        },
        {
          "internalType": "uint256",
          "name": "_amount",
          "type": "uint256"
        },
        {
          "internalType": "string",
          "name": "title",
          "type": "string"
        },
        {
          "internalType": "string",
          "name": "desc",
          "type": "string"
        },
        {
          "internalType": "string",
          "name": "linkToDiscussion",
          "type": "string"
        }
      ],
      "name": "proposeTransferTransaction",
      "outputs": [
        {
          "internalType": "bytes32",
          "name": "",
          "type": "bytes32"
        }
      ],
      "stateMutability": "payable",
      "type": "function"
    },
    {
      "inputs": [],
      "name": "renounceOwnership",
      "outputs": [],
      "stateMutability": "nonpayable",
      "type": "function"
    },
    {
      "inputs": [
        {
          "internalType": "bytes32",
          "name": "_txnHash",
          "type": "bytes32"
        }
      ],
      "name": "state",
      "outputs": [
        {
          "internalType": "enum MultiSigDAO.TransactionState",
          "name": "",
          "type": "uint8"
        }
      ],
      "stateMutability": "view",
      "type": "function"
    },
    {
      "inputs": [
        {
          "internalType": "address",
          "name": "newOwner",
          "type": "address"
        }
      ],
      "name": "transferOwnership",
      "outputs": [],
      "stateMutability": "nonpayable",
      "type": "function"
    },
    {
      "inputs": [
        {
          "internalType": "string",
          "name": "_desc",
          "type": "string"
        }
      ],
      "name": "updateDescription",
      "outputs": [],
      "stateMutability": "nonpayable",
      "type": "function"
    },
    {
      "inputs": [
        {
          "internalType": "string",
          "name": "_logoUrl",
          "type": "string"
        }
      ],
      "name": "updateLogoURL",
      "outputs": [],
      "stateMutability": "nonpayable",
      "type": "function"
    },
    {
      "inputs": [
        {
          "internalType": "string",
          "name": "_name",
          "type": "string"
        }
      ],
      "name": "updateName",
      "outputs": [],
      "stateMutability": "nonpayable",
      "type": "function"
    },
    {
      "inputs": [
        {
          "internalType": "contract IHederaService",
          "name": "newHederaService",
          "type": "address"
        }
      ],
      "name": "upgradeHederaService",
      "outputs": [],
      "stateMutability": "nonpayable",
      "type": "function"
    }
  ],
  "bytecode": "0x608060405234801561001057600080fd5b50612c6f806100206000396000f3fe60806040526004361061011f5760003560e01c80639a200247116100a0578063e67d0ebb11610064578063e67d0ebb1461032f578063e6a8989514610342578063e735b48a14610372578063f2fde38b14610392578063fca1c0b9146103b257600080fd5b80639a200247146102965780639a20e1fe146102a9578063acef78bc146102c9578063bdb3691f146102ef578063d26d681f1461030f57600080fd5b8063715018a6116100e7578063715018a6146102055780637ec4e9761461021a57806380896acc1461023a57806384da92a7146102585780638da5cb5b1461027857600080fd5b8063193f6b341461012457806349e6b62c1461015757806361d585da1461018457806366c5b9a6146101b15780636dab6f75146101d3575b600080fd5b34801561013057600080fd5b5061014461013f366004611fca565b6103df565b6040519081526020015b60405180910390f35b34801561016357600080fd5b50610177610172366004611fca565b610453565b60405161014e919061205d565b34801561019057600080fd5b506101a461019f366004611fca565b610792565b60405161014e919061214a565b3480156101bd57600080fd5b506101d16101cc3660046122df565b610bcb565b005b3480156101df57600080fd5b50606b546001600160a01b03165b6040516001600160a01b03909116815260200161014e565b34801561021157600080fd5b506101d1610ea1565b34801561022657600080fd5b506101d161023536600461239f565b610eb5565b34801561024657600080fd5b50606c546001600160a01b03166101ed565b34801561026457600080fd5b506101d161027336600461239f565b610f07565b34801561028457600080fd5b506033546001600160a01b03166101ed565b6101446102a43660046123dc565b610fa0565b3480156102b557600080fd5b506101d16102c4366004612492565b611091565b3480156102d557600080fd5b506102de6112af565b60405161014e9594939291906124f6565b3480156102fb57600080fd5b506101d161030a36600461255f565b611552565b34801561031b57600080fd5b506101d161032a36600461263e565b6116b1565b61014461033d366004612671565b611740565b34801561034e57600080fd5b5061036261035d366004612749565b611969565b604051901515815260200161014e565b34801561037e57600080fd5b506101d161038d36600461239f565b611981565b34801561039e57600080fd5b506101d16103ad36600461263e565b611a21565b3480156103be57600080fd5b506103d26103cd36600461277e565b611a9a565b60405161014e91906127b5565b606c5460405163064fdacd60e21b8152600481018390526000916001600160a01b03169063193f6b3490602401602060405180830381865afa158015610429573d6000803e3d6000fd5b505050506040513d601f19601f8201168201806040525081019061044d91906127c8565b92915050565b61045b611f54565b6000828152606d6020908152604080832081516101408101835281546001600160a01b0316815260018201549381019390935260028101805491928401916104a2906127e1565b80601f01602080910402602001604051908101604052809291908181526020018280546104ce906127e1565b801561051b5780601f106104f05761010080835404028352916020019161051b565b820191906000526020600020905b8154815290600101906020018083116104fe57829003601f168201915b5050509183525050600382015460209091019060ff16600181111561054257610542612033565b600181111561055357610553612033565b8152602001600482015481526020016005820154815260200160068201805461057b906127e1565b80601f01602080910402602001604051908101604052809291908181526020018280546105a7906127e1565b80156105f45780601f106105c9576101008083540402835291602001916105f4565b820191906000526020600020905b8154815290600101906020018083116105d757829003601f168201915b5050505050815260200160078201805461060d906127e1565b80601f0160208091040260200160405190810160405280929190818152602001828054610639906127e1565b80156106865780601f1061065b57610100808354040283529160200191610686565b820191906000526020600020905b81548152906001019060200180831161066957829003601f168201915b5050505050815260200160088201805461069f906127e1565b80601f01602080910402602001604051908101604052809291908181526020018280546106cb906127e1565b80156107185780601f106106ed57610100808354040283529160200191610718565b820191906000526020600020905b8154815290600101906020018083116106fb57829003601f168201915b5050509183525050600991909101546001600160a01b0316602090910152608081015190915060000361044d5760405162461bcd60e51b815260206004820152601960248201527f4d756c746953696744414f3a206e6f2074786e2065786973740000000000000060448201526064015b60405180910390fd5b6000818152606d6020908152604080832081516101408101835281546001600160a01b03168152600182015493810193909352600281018054859493840191906107db906127e1565b80601f0160208091040260200160405190810160405280929190818152602001828054610807906127e1565b80156108545780601f1061082957610100808354040283529160200191610854565b820191906000526020600020905b81548152906001019060200180831161083757829003601f168201915b5050509183525050600382015460209091019060ff16600181111561087b5761087b612033565b600181111561088c5761088c612033565b815260200160048201548152602001600582015481526020016006820180546108b4906127e1565b80601f01602080910402602001604051908101604052809291908181526020018280546108e0906127e1565b801561092d5780601f106109025761010080835404028352916020019161092d565b820191906000526020600020905b81548152906001019060200180831161091057829003601f168201915b50505050508152602001600782018054610946906127e1565b80601f0160208091040260200160405190810160405280929190818152602001828054610972906127e1565b80156109bf5780601f10610994576101008083540402835291602001916109bf565b820191906000526020600020905b8154815290600101906020018083116109a257829003601f168201915b505050505081526020016008820180546109d8906127e1565b80601f0160208091040260200160405190810160405280929190818152602001828054610a04906127e1565b8015610a515780601f10610a2657610100808354040283529160200191610a51565b820191906000526020600020905b815481529060010190602001808311610a3457829003601f168201915b5050509183525050600991909101546001600160a01b03166020909101526080810151909150600003610ac65760405162461bcd60e51b815260206004820152601960248201527f4d756c746953696744414f3a206e6f2074786e206578697374000000000000006044820152606401610789565b606c546040516301244d4760e11b8152600481018590526001600160a01b03909116906302489a8e90602401602060405180830381865afa158015610b0f573d6000803e3d6000fd5b505050506040513d601f19601f82011682018060405250810190610b339190612815565b15610b415750600292915050565b606c5460405163a7f173ab60e01b8152600481018590526001600160a01b039091169063a7f173ab90602401602060405180830381865afa158015610b8a573d6000803e3d6000fd5b505050506040513d601f19601f82011682018060405250810190610bae9190612815565b15610bbc5750600192915050565b50600092915050565b50919050565b600054610100900460ff16610c365760405162461bcd60e51b815260206004820152602b60248201527f496e697469616c697a61626c653a20636f6e7472616374206973206e6f74206960448201526a6e697469616c697a696e6760a81b6064820152608401610789565b6001600160a01b038516610c8d5760405163d647364f60e01b815260206004820152601e60248201527f4261736544414f3a2061646d696e2061646472657373206973207a65726f00006044820152606401610789565b8351600003610cd85760405163d647364f60e01b81526020600482015260166024820152754261736544414f3a206e616d6520697320656d70747960501b6044820152606401610789565b8151600003610d2a5760405163d647364f60e01b815260206004820152601d60248201527f4261736544414f3a206465736372697074696f6e20697320656d7074790000006044820152606401610789565b610d3381611969565b15610d925760405163d647364f60e01b815260206004820152602860248201527f4261736544414f3a206c696e6b73206d757374206265206576656e206c656e67604482015267746820617272617960c01b6064820152608401610789565b606680546001600160a01b0319166001600160a01b0387161790556065610db98582612885565b506067610dc68482612885565b506068610dd38382612885565b50606654610de9906001600160a01b0316611b2c565b610df281611b7e565b7ff19e969be7affb98a1d812094e0f24ecca36f1eabd6dd592c97020d47c64a00e6065604051610e2291906129c2565b60405180910390a17ff3672c8ff2861c97a6aebc9d331e5be084099f9979e991286ff2d8817bc246766067604051610e5a91906129c2565b60405180910390a17fe21432e1fe2b572d5803dd7316b7a854952317b42017f920a616ec70cdb8a5c16068604051610e9291906129c2565b60405180910390a15050505050565b610ea9611dda565b610eb36000611b2c565b565b610ebd611dda565b7ff3672c8ff2861c97a6aebc9d331e5be084099f9979e991286ff2d8817bc24676606782604051610eef9291906129e3565b60405180910390a16067610f038282612885565b5050565b610f0f611dda565b8051600003610f5a5760405163d647364f60e01b81526020600482015260166024820152754261736544414f3a206e616d6520697320656d70747960501b6044820152606401610789565b7ff19e969be7affb98a1d812094e0f24ecca36f1eabd6dd592c97020d47c64a00e606582604051610f8c9291906129e3565b60405180910390a16065610f038282612885565b606c54606b5460405163658af36b60e01b81526001600160a01b039182166004820152888216602482015260448101879052336064820152600092919091169063658af36b90608401600060405180830381600087803b15801561100357600080fd5b505af1158015611017573d6000803e3d6000fd5b5050604080516001600160a01b038b811660248301528a8116604483015260648083018b90528351808403909101815260849092019092526020810180516001600160e01b0316635d9a6dad60e11b179052606c54909350600092506110849116838360018a8a8a611740565b9998505050505050505050565b611099611dda565b600061118f6069805480602002602001604051908101604052809291908181526020016000905b8282101561116c5783829060005260206000200180546110df906127e1565b80601f016020809104026020016040519081016040528092919081815260200182805461110b906127e1565b80156111585780601f1061112d57610100808354040283529160200191611158565b820191906000526020600020905b81548152906001019060200180831161113b57829003601f168201915b5050505050815260200190600101906110c0565b50505050604051806040016040528060018152602001600b60fa1b815250611a9a565b905061119b8383611e34565b600061126e6069805480602002602001604051908101604052809291908181526020016000905b8282101561116c5783829060005260206000200180546111e1906127e1565b80601f016020809104026020016040519081016040528092919081815260200182805461120d906127e1565b801561125a5780601f1061122f5761010080835404028352916020019161125a565b820191906000526020600020905b81548152906001019060200180831161123d57829003601f168201915b5050505050815260200190600101906111c2565b90507f6d4399c79b2dee44cc5e581581020b8ae0051dc55c1c47b96095a4d15605130f82826040516112a1929190612a11565b60405180910390a150505050565b60608060608060006065606761138c6069805480602002602001604051908101604052809291908181526020016000905b8282101561116c5783829060005260206000200180546112ff906127e1565b80601f016020809104026020016040519081016040528092919081815260200182805461132b906127e1565b80156113785780601f1061134d57610100808354040283529160200191611378565b820191906000526020600020905b81548152906001019060200180831161135b57829003601f168201915b5050505050815260200190600101906112e0565b60665483546068916001600160a01b03169085906113a9906127e1565b80601f01602080910402602001604051908101604052809291908181526020018280546113d5906127e1565b80156114225780601f106113f757610100808354040283529160200191611422565b820191906000526020600020905b81548152906001019060200180831161140557829003601f168201915b50505050509450838054611435906127e1565b80601f0160208091040260200160405190810160405280929190818152602001828054611461906127e1565b80156114ae5780601f10611483576101008083540402835291602001916114ae565b820191906000526020600020905b81548152906001019060200180831161149157829003601f168201915b505050505093508180546114c1906127e1565b80601f01602080910402602001604051908101604052809291908181526020018280546114ed906127e1565b801561153a5780601f1061150f5761010080835404028352916020019161153a565b820191906000526020600020905b81548152906001019060200180831161151d57829003601f168201915b50505050509150945094509450945094509091929394565b600054610100900460ff16158080156115725750600054600160ff909116105b8061158c5750303b15801561158c575060005460ff166001145b6115ef5760405162461bcd60e51b815260206004820152602e60248201527f496e697469616c697a61626c653a20636f6e747261637420697320616c72656160448201526d191e481a5b9a5d1a585b1a5e995960921b6064820152608401610789565b6000805460ff191660011790558015611612576000805461ff0019166101001790555b606b80546001600160a01b038085166001600160a01b031992831617909255606c80549286169290911691909117905561164f8888888888610bcb565b606a80546001600160a01b0319163317905580156116a7576000805461ff0019169055604051600181527f7f26b83ff96e1f2b6a682f133852f6798a09c465da95921460cefb38474024989060200160405180910390a15b5050505050505050565b606a546001600160a01b0316331461171e5760405162461bcd60e51b815260206004820152602a60248201527f4d756c746953696744414f3a2063616c6c6572206973206e6f742074686520736044820152693cb9ba32b6903ab9b2b960b11b6064820152608401610789565b606b80546001600160a01b0319166001600160a01b0392909216919091179055565b6000835160000361179d5760405162461bcd60e51b815260206004820152602160248201527f4d756c746953696744414f3a207469746c652063616e277420626520626c616e6044820152606b60f81b6064820152608401610789565b82516000036117ee5760405162461bcd60e51b815260206004820181905260248201527f4d756c746953696744414f3a20646573632063616e277420626520626c616e6b6044820152606401610789565b606c54604051633c75d0af60e11b815260009182916001600160a01b03909116906378eba15e90611829908d9034908e908e90600401612a24565b60408051808303816000875af1158015611847573d6000803e3d6000fd5b505050506040513d601f19601f8201168201806040525081019061186b9190612a5b565b6000828152606d6020526040902080546001600160a01b0319166001600160a01b038e161781553460018201559193509150600281016118ab8b82612885565b506003810180548a919060ff1916600183818111156118cc576118cc612033565b02179055506004810182905560058101889055600681016118ed8882612885565b50600781016118fc8782612885565b506008810161190b8682612885565b506009810180546001600160a01b031916331790556040517f122fdaea6d6de1c44d0a3270dde2d651500479c7c64559bd724a31059a2275f0906119529085908490612a7f565b60405180910390a150909998505050505050505050565b6000600282516119799190612b7c565b151592915050565b611989611dda565b80516000036119db5760405163d647364f60e01b815260206004820152601d60248201527f4261736544414f3a206465736372697074696f6e20697320656d7074790000006044820152606401610789565b7fe21432e1fe2b572d5803dd7316b7a854952317b42017f920a616ec70cdb8a5c1606882604051611a0d9291906129e3565b60405180910390a16068610f038282612885565b611a29611dda565b6001600160a01b038116611a8e5760405162461bcd60e51b815260206004820152602660248201527f4f776e61626c653a206e6577206f776e657220697320746865207a65726f206160448201526564647265737360d01b6064820152608401610789565b611a9781611b2c565b50565b81516060908015611b255783600081518110611ab857611ab8612b9e565b602002602001015191506000600190505b81811015611b23578284868381518110611ae557611ae5612b9e565b6020026020010151604051602001611aff93929190612bb4565b60405160208183030381529060405292508080611b1b90612c0d565b915050611ac9565b505b5092915050565b603380546001600160a01b038381166001600160a01b0319831681179093556040519116919082907f8be0079c531659141344cd1fd0a4f28419497f9722a3daafe3b4186f6b6457e090600090a35050565b6000611c516069805480602002602001604051908101604052809291908181526020016000905b8282101561116c578382906000526020600020018054611bc4906127e1565b80601f0160208091040260200160405190810160405280929190818152602001828054611bf0906127e1565b8015611c3d5780601f10611c1257610100808354040283529160200191611c3d565b820191906000526020600020905b815481529060010190602001808311611c2057829003601f168201915b505050505081526020019060010190611ba5565b905060005b8251811015611cc6576000838281518110611c7357611c73612b9e565b60200260200101519050600084836001611c8d9190612c26565b81518110611c9d57611c9d612b9e565b60200260200101519050611cb18282611e34565b50611cbf9050816002612c26565b9050611c56565b506000611d9a6069805480602002602001604051908101604052809291908181526020016000905b8282101561116c578382906000526020600020018054611d0d906127e1565b80601f0160208091040260200160405190810160405280929190818152602001828054611d39906127e1565b8015611d865780601f10611d5b57610100808354040283529160200191611d86565b820191906000526020600020905b815481529060010190602001808311611d6957829003601f168201915b505050505081526020019060010190611cee565b90507f6d4399c79b2dee44cc5e581581020b8ae0051dc55c1c47b96095a4d15605130f8282604051611dcd929190612a11565b60405180910390a1505050565b6033546001600160a01b03163314610eb35760405162461bcd60e51b815260206004820181905260248201527f4f776e61626c653a2063616c6c6572206973206e6f7420746865206f776e65726044820152606401610789565b6000825111611e855760405162461bcd60e51b815260206004820152601b60248201527f4261736544414f3a20696e76616c6964206b65792070617373656400000000006044820152606401610789565b6000815111611ed65760405162461bcd60e51b815260206004820152601d60248201527f4261736544414f3a20696e76616c69642076616c7565207061737365640000006044820152606401610789565b606980546001810182556000919091527f7fb4302e8e91f9110a6554c2c0a24601252c2a42c2220ca988efcfe39991430801611f128382612885565b50606980546001810182556000919091527f7fb4302e8e91f9110a6554c2c0a24601252c2a42c2220ca988efcfe39991430801611f4f8282612885565b505050565b60405180610140016040528060006001600160a01b03168152602001600081526020016060815260200160006001811115611f9157611f91612033565b8152602001600081526020016000815260200160608152602001606081526020016060815260200160006001600160a01b031681525090565b600060208284031215611fdc57600080fd5b5035919050565b60005b83811015611ffe578181015183820152602001611fe6565b50506000910152565b6000815180845261201f816020860160208601611fe3565b601f01601f19169290920160200192915050565b634e487b7160e01b600052602160045260246000fd5b6002811061205957612059612033565b9052565b602081526120776020820183516001600160a01b03169052565b602082015160408201526000604083015161014080606085015261209f610160850183612007565b915060608501516120b36080860182612049565b50608085015160a085015260a085015160c085015260c0850151601f19808685030160e08701526120e48483612007565b935060e087015191506101008187860301818801526121038584612007565b9450808801519250506101208187860301818801526121228584612007565b94508088015192505050612140828601826001600160a01b03169052565b5090949350505050565b602081016003831061215e5761215e612033565b91905290565b6001600160a01b0381168114611a9757600080fd5b803561218481612164565b919050565b634e487b7160e01b600052604160045260246000fd5b604051601f8201601f1916810167ffffffffffffffff811182821017156121c8576121c8612189565b604052919050565b600082601f8301126121e157600080fd5b813567ffffffffffffffff8111156121fb576121fb612189565b61220e601f8201601f191660200161219f565b81815284602083860101111561222357600080fd5b816020850160208301376000918101602001919091529392505050565b600082601f83011261225157600080fd5b8135602067ffffffffffffffff8083111561226e5761226e612189565b8260051b61227d83820161219f565b938452858101830193838101908886111561229757600080fd5b84880192505b858310156122d3578235848111156122b55760008081fd5b6122c38a87838c01016121d0565b835250918401919084019061229d565b98975050505050505050565b600080600080600060a086880312156122f757600080fd5b853561230281612164565b9450602086013567ffffffffffffffff8082111561231f57600080fd5b61232b89838a016121d0565b9550604088013591508082111561234157600080fd5b61234d89838a016121d0565b9450606088013591508082111561236357600080fd5b61236f89838a016121d0565b9350608088013591508082111561238557600080fd5b5061239288828901612240565b9150509295509295909350565b6000602082840312156123b157600080fd5b813567ffffffffffffffff8111156123c857600080fd5b6123d4848285016121d0565b949350505050565b60008060008060008060c087890312156123f557600080fd5b863561240081612164565b9550602087013561241081612164565b945060408701359350606087013567ffffffffffffffff8082111561243457600080fd5b6124408a838b016121d0565b9450608089013591508082111561245657600080fd5b6124628a838b016121d0565b935060a089013591508082111561247857600080fd5b5061248589828a016121d0565b9150509295509295509295565b600080604083850312156124a557600080fd5b823567ffffffffffffffff808211156124bd57600080fd5b6124c9868387016121d0565b935060208501359150808211156124df57600080fd5b506124ec858286016121d0565b9150509250929050565b60a08152600061250960a0830188612007565b828103602084015261251b8188612007565b9050828103604084015261252f8187612007565b905082810360608401526125438186612007565b9150506001600160a01b03831660808301529695505050505050565b600080600080600080600060e0888a03121561257a57600080fd5b61258388612179565b9650602088013567ffffffffffffffff808211156125a057600080fd5b6125ac8b838c016121d0565b975060408a01359150808211156125c257600080fd5b6125ce8b838c016121d0565b965060608a01359150808211156125e457600080fd5b6125f08b838c016121d0565b955060808a013591508082111561260657600080fd5b506126138a828b01612240565b93505061262260a08901612179565b915061263060c08901612179565b905092959891949750929550565b60006020828403121561265057600080fd5b813561265b81612164565b9392505050565b80356002811061218457600080fd5b600080600080600080600060e0888a03121561268c57600080fd5b61269588612179565b9650602088013567ffffffffffffffff808211156126b257600080fd5b6126be8b838c016121d0565b97506126cc60408b01612662565b965060608a0135955060808a01359150808211156126e957600080fd5b6126f58b838c016121d0565b945060a08a013591508082111561270b57600080fd5b6127178b838c016121d0565b935060c08a013591508082111561272d57600080fd5b5061273a8a828b016121d0565b91505092959891949750929550565b60006020828403121561275b57600080fd5b813567ffffffffffffffff81111561277257600080fd5b6123d484828501612240565b6000806040838503121561279157600080fd5b823567ffffffffffffffff808211156127a957600080fd5b6124c986838701612240565b60208152600061265b6020830184612007565b6000602082840312156127da57600080fd5b5051919050565b600181811c908216806127f557607f821691505b602082108103610bc557634e487b7160e01b600052602260045260246000fd5b60006020828403121561282757600080fd5b8151801515811461265b57600080fd5b601f821115611f4f57600081815260208120601f850160051c8101602086101561285e5750805b601f850160051c820191505b8181101561287d5782815560010161286a565b505050505050565b815167ffffffffffffffff81111561289f5761289f612189565b6128b3816128ad84546127e1565b84612837565b602080601f8311600181146128e857600084156128d05750858301515b600019600386901b1c1916600185901b17855561287d565b600085815260208120601f198616915b82811015612917578886015182559484019460019091019084016128f8565b50858210156129355787850151600019600388901b60f8161c191681555b5050505050600190811b01905550565b60008154612952816127e1565b80855260206001838116801561296f5760018114612989576129b7565b60ff1985168884015283151560051b8801830195506129b7565b866000528260002060005b858110156129af5781548a8201860152908301908401612994565b890184019650505b505050505092915050565b604081526000604082015260606020820152600061265b6060830184612945565b6040815260006129f66040830185612945565b8281036020840152612a088185612007565b95945050505050565b6040815260006129f66040830185612007565b6001600160a01b0385168152836020820152608060408201526000612a4c6080830185612007565b9050612a086060830184612049565b60008060408385031215612a6e57600080fd5b505080516020909101519092909150565b82815260406020820152612aae60408201612aa184546001600160a01b031690565b6001600160a01b03169052565b600182015460608201526000610140806080840152612ad4610180840160028601612945565b600385015460ff16612ae960a0860182612049565b50600485015460c0850152600585015460e0850152603f198085830301610100860152612b198260068801612945565b91508085830301610120860152612b338260078801612945565b915080858303018386015250612b4c8160088701612945565b915050612b6360098501546001600160a01b031690565b6001600160a01b03811661016085015250949350505050565b600082612b9957634e487b7160e01b600052601260045260246000fd5b500690565b634e487b7160e01b600052603260045260246000fd5b60008451612bc6818460208901611fe3565b845190830190612bda818360208901611fe3565b8451910190612bed818360208801611fe3565b0195945050505050565b634e487b7160e01b600052601160045260246000fd5b600060018201612c1f57612c1f612bf7565b5060010190565b8082018082111561044d5761044d612bf756fea2646970667358221220d0750811f7d285792b0f9bb16d76a92ed605db79e6e046b080cfd89599dc2b7d64736f6c63430008120033",
  "linkReferences": {},
  "deployedLinkReferences": {}
}