{
  "_format": "hh-sol-artifact-1",
  "contractName": "MultisigDAOFactory",
  "sourceName": "contracts/dao/MultisigDAOFactory.sol",
  "abi": [
    {
      "inputs": [
        {
          "internalType": "string",
          "name": "message",
          "type": "string"
        }
      ],
      "name": "InvalidInput",
      "type": "error"
    },
    {
      "inputs": [
        {
          "internalType": "string",
          "name": "message",
          "type": "string"
        }
      ],
      "name": "NotAdmin",
      "type": "error"
    },
    {
      "anonymous": false,
      "inputs": [
        {
          "indexed": false,
          "internalType": "address",
          "name": "daoAddress",
          "type": "address"
        },
        {
          "indexed": false,
          "internalType": "address",
          "name": "safeAddress",
          "type": "address"
        },
        {
          "indexed": false,
          "internalType": "address",
          "name": "admin",
          "type": "address"
        },
        {
          "indexed": false,
          "internalType": "string",
          "name": "name",
          "type": "string"
        },
        {
          "indexed": false,
          "internalType": "string",
          "name": "logoUrl",
          "type": "string"
        },
        {
          "indexed": false,
          "internalType": "address[]",
          "name": "owners",
          "type": "address[]"
        },
        {
          "indexed": false,
          "internalType": "uint256",
          "name": "threshold",
          "type": "uint256"
        },
        {
          "indexed": false,
          "internalType": "bool",
          "name": "isPrivate",
          "type": "bool"
        },
        {
          "indexed": false,
          "internalType": "string",
          "name": "description",
          "type": "string"
        },
        {
          "indexed": false,
          "internalType": "string",
          "name": "webLinks",
          "type": "string"
        }
      ],
      "name": "DAOCreated",
      "type": "event"
    },
    {
      "anonymous": false,
      "inputs": [
        {
          "indexed": false,
          "internalType": "uint8",
          "name": "version",
          "type": "uint8"
        }
      ],
      "name": "Initialized",
      "type": "event"
    },
    {
      "anonymous": false,
      "inputs": [
        {
          "indexed": true,
          "internalType": "address",
          "name": "oldImplementation",
          "type": "address"
        },
        {
          "indexed": true,
          "internalType": "address",
          "name": "newImplementation",
          "type": "address"
        },
        {
          "indexed": false,
          "internalType": "string",
          "name": "name",
          "type": "string"
        }
      ],
      "name": "LogicUpdated",
      "type": "event"
    },
    {
      "anonymous": false,
      "inputs": [
        {
          "indexed": true,
          "internalType": "address",
          "name": "previousOwner",
          "type": "address"
        },
        {
          "indexed": true,
          "internalType": "address",
          "name": "newOwner",
          "type": "address"
        }
      ],
      "name": "OwnershipTransferred",
      "type": "event"
    },
    {
      "inputs": [
        {
          "components": [
            {
              "internalType": "address",
              "name": "admin",
              "type": "address"
            },
            {
              "internalType": "string",
              "name": "name",
              "type": "string"
            },
            {
              "internalType": "string",
              "name": "logoUrl",
              "type": "string"
            },
            {
              "internalType": "address[]",
              "name": "owners",
              "type": "address[]"
            },
            {
              "internalType": "uint256",
              "name": "threshold",
              "type": "uint256"
            },
            {
              "internalType": "bool",
              "name": "isPrivate",
              "type": "bool"
            },
            {
              "internalType": "string",
              "name": "description",
              "type": "string"
            },
            {
              "internalType": "string[]",
              "name": "webLinks",
              "type": "string[]"
            }
          ],
          "internalType": "struct MultisigDAOFactory.CreateDAOInputs",
          "name": "_createDAOInputs",
          "type": "tuple"
        }
      ],
      "name": "createDAO",
      "outputs": [
        {
          "internalType": "address",
          "name": "",
          "type": "address"
        }
      ],
      "stateMutability": "nonpayable",
      "type": "function"
    },
    {
      "inputs": [],
      "name": "getDAOs",
      "outputs": [
        {
          "internalType": "address[]",
          "name": "",
          "type": "address[]"
        }
      ],
      "stateMutability": "view",
      "type": "function"
    },
    {
      "inputs": [],
      "name": "getHederaServiceVersion",
      "outputs": [
        {
          "internalType": "contract IHederaService",
          "name": "",
          "type": "address"
        }
      ],
      "stateMutability": "view",
      "type": "function"
    },
    {
      "inputs": [
        {
          "internalType": "address",
          "name": "_proxyAdmin",
          "type": "address"
        },
        {
          "internalType": "address",
          "name": "_daoLogic",
          "type": "address"
        },
        {
          "internalType": "address",
          "name": "_safeLogic",
          "type": "address"
        },
        {
          "internalType": "address",
          "name": "_safeFactory",
          "type": "address"
        },
        {
          "internalType": "contract IHederaService",
          "name": "_hederaService",
          "type": "address"
        }
      ],
      "name": "initialize",
      "outputs": [],
      "stateMutability": "nonpayable",
      "type": "function"
    },
    {
      "inputs": [
        {
          "internalType": "string[]",
          "name": "items",
          "type": "string[]"
        }
      ],
      "name": "isOddLengthArray",
      "outputs": [
        {
          "internalType": "bool",
          "name": "",
          "type": "bool"
        }
      ],
      "stateMutability": "pure",
      "type": "function"
    },
    {
      "inputs": [
        {
          "internalType": "string[]",
          "name": "items",
          "type": "string[]"
        },
        {
          "internalType": "string",
          "name": "separator",
          "type": "string"
        }
      ],
      "name": "join",
      "outputs": [
        {
          "internalType": "string",
          "name": "result",
          "type": "string"
        }
      ],
      "stateMutability": "pure",
      "type": "function"
    },
    {
      "inputs": [],
      "name": "owner",
      "outputs": [
        {
          "internalType": "address",
          "name": "",
          "type": "address"
        }
      ],
      "stateMutability": "view",
      "type": "function"
    },
    {
      "inputs": [],
      "name": "renounceOwnership",
      "outputs": [],
      "stateMutability": "nonpayable",
      "type": "function"
    },
    {
      "inputs": [
        {
          "internalType": "address",
          "name": "newOwner",
          "type": "address"
        }
      ],
      "name": "transferOwnership",
      "outputs": [],
      "stateMutability": "nonpayable",
      "type": "function"
    },
    {
      "inputs": [
        {
          "internalType": "address",
          "name": "_newImpl",
          "type": "address"
        }
      ],
      "name": "upgradeDaoLogicAddress",
      "outputs": [],
      "stateMutability": "nonpayable",
      "type": "function"
    },
    {
      "inputs": [
        {
          "internalType": "contract IHederaService",
          "name": "newHederaService",
          "type": "address"
        }
      ],
      "name": "upgradeHederaService",
      "outputs": [],
      "stateMutability": "nonpayable",
      "type": "function"
    },
    {
      "inputs": [
        {
          "internalType": "address",
          "name": "_newImpl",
          "type": "address"
        }
      ],
      "name": "upgradeSafeFactoryAddress",
      "outputs": [],
      "stateMutability": "nonpayable",
      "type": "function"
    },
    {
      "inputs": [
        {
          "internalType": "address",
          "name": "_newImpl",
          "type": "address"
        }
      ],
      "name": "upgradeSafeLogicAddress",
      "outputs": [],
      "stateMutability": "nonpayable",
      "type": "function"
    }
  ],
  "bytecode": "0x608060405234801561001057600080fd5b50612661806100206000396000f3fe60806040523480156200001157600080fd5b5060043610620000f15760003560e01c80637bd0ca1f1162000097578063e6a89895116200006e578063e6a8989514620001d4578063f2fde38b14620001fc578063fca1c0b91462000213578063fda2d015146200023957600080fd5b80637bd0ca1f14620001945780638da5cb5b14620001ab578063d26d681f14620001bd57600080fd5b80634a6a898911620000cc5780634a6a898914620001485780636dab6f751462000178578063715018a6146200018a57600080fd5b80631459457a14620000f65780633f7bcf0c146200010f578063415cc7dd1462000126575b600080fd5b6200010d6200010736600462000e59565b62000250565b005b6200010d6200012036600462000ed5565b620004c6565b620001306200059b565b6040516200013f919062000f3b565b60405180910390f35b6200015f620001593660046200117e565b620005ff565b6040516001600160a01b0390911681526020016200013f565b6069546001600160a01b03166200015f565b6200010d620006aa565b6200010d620001a536600462000ed5565b620006c2565b6033546001600160a01b03166200015f565b6200010d620001ce36600462000ed5565b62000798565b620001eb620001e5366004620012c0565b6200086b565b60405190151581526020016200013f565b6200010d6200020d36600462000ed5565b62000885565b6200022a6200022436600462001301565b62000904565b6040516200013f9190620013c0565b6200010d6200024a36600462000ed5565b620009a3565b600054610100900460ff1615808015620002715750600054600160ff909116105b806200028d5750303b1580156200028d575060005460ff166001145b620002f65760405162461bcd60e51b815260206004820152602e60248201527f496e697469616c697a61626c653a20636f6e747261637420697320616c72656160448201526d191e481a5b9a5d1a585b1a5e995960921b60648201526084015b60405180910390fd5b6000805460ff1916600117905580156200031a576000805461ff0019166101001790555b6200032462000a7b565b606580546001600160a01b038089166001600160a01b03199283161790925560668054888416908316811790915560678054888516908416179055606880548785169084161790556069805493861693909216929092179055604080518082018252600881526744616f4c6f67696360c01b602082015290516000916000805160206200260c83398151915291620003bd9190620013c0565b60405180910390a36067546040805180820182526009815268536166654c6f67696360b81b602082015290516001600160a01b03909216916000916000805160206200260c83398151915291620004159190620013c0565b60405180910390a3606854604080518082018252600b81526a53616665466163746f727960a81b602082015290516001600160a01b03909216916000916000805160206200260c833981519152916200046f9190620013c0565b60405180910390a38015620004be576000805461ff0019169055604051600181527f7f26b83ff96e1f2b6a682f133852f6798a09c465da95921460cefb38474024989060200160405180910390a15b505050505050565b6065546001600160a01b031633146200052357604051633b12922f60e11b815260206004820152601f60248201527f4d756c746973696744414f466163746f72793a2061757468206661696c6564006044820152606401620002ed565b606654604080518082018252600881526744616f4c6f67696360c01b602082015290516001600160a01b038085169316916000805160206200260c83398151915291620005719190620013c0565b60405180910390a3606680546001600160a01b0319166001600160a01b0392909216919091179055565b6060606a805480602002602001604051908101604052809291908181526020018280548015620005f557602002820191906000526020600020905b81546001600160a01b03168152600190910190602001808311620005d6575b5050505050905090565b600080620006168360600151846080015162000aaf565b905060006200063e8460000151856020015186604001518760c001518860e001518762000bc4565b90508360a001516200069657606a80546001810182556000919091527f116fea137db6e131133e7f2bab296045d8f41cc5607279db17b218cab0929a510180546001600160a01b0319166001600160a01b0383161790555b620006a381838662000cac565b9392505050565b620006b462000d40565b620006c0600062000d9c565b565b6065546001600160a01b031633146200071f57604051633b12922f60e11b815260206004820152601f60248201527f4d756c746973696744414f466163746f72793a2061757468206661696c6564006044820152606401620002ed565b6067546040805180820182526009815268536166654c6f67696360b81b602082015290516001600160a01b038085169316916000805160206200260c833981519152916200076e9190620013c0565b60405180910390a3606780546001600160a01b0319166001600160a01b0392909216919091179055565b620007a262000d40565b606980546001600160a01b0319166001600160a01b03831617905560005b606a5481101562000867576000606a8281548110620007e357620007e3620013d5565b60009182526020909120015460405163d26d681f60e01b81526001600160a01b0385811660048301529091169150819063d26d681f90602401600060405180830381600087803b1580156200083757600080fd5b505af11580156200084c573d6000803e3d6000fd5b505050505080806200085e90620013eb565b915050620007c0565b5050565b6000600282516200087d919062001413565b151592915050565b6200088f62000d40565b6001600160a01b038116620008f65760405162461bcd60e51b815260206004820152602660248201527f4f776e61626c653a206e6577206f776e657220697320746865207a65726f206160448201526564647265737360d01b6064820152608401620002ed565b620009018162000d9c565b50565b815160609080156200099c5783600081518110620009265762000926620013d5565b602002602001015191506000600190505b818110156200099a578284868381518110620009575762000957620013d5565b6020026020010151604051602001620009739392919062001436565b604051602081830303815290604052925080806200099190620013eb565b91505062000937565b505b5092915050565b6065546001600160a01b0316331462000a0057604051633b12922f60e11b815260206004820152601f60248201527f4d756c746973696744414f466163746f72793a2061757468206661696c6564006044820152606401620002ed565b606854604080518082018252600b81526a53616665466163746f727960a81b602082015290516001600160a01b038085169316916000805160206200260c8339815191529162000a519190620013c0565b60405180910390a3606880546001600160a01b0319166001600160a01b0392909216919091179055565b600054610100900460ff1662000aa55760405162461bcd60e51b8152600401620002ed906200147f565b620006c062000dee565b60685460675460408051602081018252600080825291516361b69abd60e01b81529193849360609385936001600160a01b03938416936361b69abd9362000afd9391169190600401620014ca565b6020604051808303816000875af115801562000b1d573d6000803e3d6000fd5b505050506040513d601f19601f8201168201806040525081019062000b439190620014ee565b60405163b63e800d60e01b815290915081906001600160a01b0382169063b63e800d9062000b85908a908a90899089908290819060009082906004016200150e565b600060405180830381600087803b15801562000ba057600080fd5b505af115801562000bb5573d6000803e3d6000fd5b50929998505050505050505050565b6066546065546040805160208101825260008082529151919384936001600160a01b03918216939116919062000bfa9062000e23565b62000c08939291906200157b565b604051809103906000f08015801562000c25573d6000803e3d6000fd5b5060695460405163bdb3691f60e01b815291925082916001600160a01b038084169263bdb3691f9262000c6b928e928e928e928e928e928e9290911690600401620015b2565b600060405180830381600087803b15801562000c8657600080fd5b505af115801562000c9b573d6000803e3d6000fd5b50929b9a5050505050505050505050565b7f18d2b6f944ae15fdd37f733d95a47589d4d24a9b7ebcf766ca6b4edb11ebf75c8383836000015184602001518560400151866060015187608001518860a001518960c0015162000d1b8b60e00151604051806040016040528060018152602001600b60fa1b81525062000904565b60405162000d339a999897969594939291906200168f565b60405180910390a1505050565b6033546001600160a01b03163314620006c05760405162461bcd60e51b815260206004820181905260248201527f4f776e61626c653a2063616c6c6572206973206e6f7420746865206f776e65726044820152606401620002ed565b603380546001600160a01b038381166001600160a01b0319831681179093556040519116919082907f8be0079c531659141344cd1fd0a4f28419497f9722a3daafe3b4186f6b6457e090600090a35050565b600054610100900460ff1662000e185760405162461bcd60e51b8152600401620002ed906200147f565b620006c03362000d9c565b610ecc806200174083390190565b6001600160a01b03811681146200090157600080fd5b803562000e548162000e31565b919050565b600080600080600060a0868803121562000e7257600080fd5b853562000e7f8162000e31565b9450602086013562000e918162000e31565b9350604086013562000ea38162000e31565b9250606086013562000eb58162000e31565b9150608086013562000ec78162000e31565b809150509295509295909350565b60006020828403121562000ee857600080fd5b8135620006a38162000e31565b600081518084526020808501945080840160005b8381101562000f305781516001600160a01b03168752958201959082019060010162000f09565b509495945050505050565b602081526000620006a3602083018462000ef5565b634e487b7160e01b600052604160045260246000fd5b604051610100810167ffffffffffffffff8111828210171562000f8d5762000f8d62000f50565b60405290565b604051601f8201601f1916810167ffffffffffffffff8111828210171562000fbf5762000fbf62000f50565b604052919050565b600082601f83011262000fd957600080fd5b813567ffffffffffffffff81111562000ff65762000ff662000f50565b6200100b601f8201601f191660200162000f93565b8181528460208386010111156200102157600080fd5b816020850160208301376000918101602001919091529392505050565b600067ffffffffffffffff8211156200105b576200105b62000f50565b5060051b60200190565b600082601f8301126200107757600080fd5b81356020620010906200108a836200103e565b62000f93565b82815260059290921b84018101918181019086841115620010b057600080fd5b8286015b84811015620010d8578035620010ca8162000e31565b8352918301918301620010b4565b509695505050505050565b8035801515811462000e5457600080fd5b600082601f8301126200110657600080fd5b81356020620011196200108a836200103e565b82815260059290921b840181019181810190868411156200113957600080fd5b8286015b84811015620010d857803567ffffffffffffffff8111156200115f5760008081fd5b6200116f8986838b010162000fc7565b8452509183019183016200113d565b6000602082840312156200119157600080fd5b813567ffffffffffffffff80821115620011aa57600080fd5b908301906101008286031215620011c057600080fd5b620011ca62000f66565b620011d58362000e47565b8152602083013582811115620011ea57600080fd5b620011f88782860162000fc7565b6020830152506040830135828111156200121157600080fd5b6200121f8782860162000fc7565b6040830152506060830135828111156200123857600080fd5b620012468782860162001065565b606083015250608083013560808201526200126460a08401620010e3565b60a082015260c0830135828111156200127c57600080fd5b6200128a8782860162000fc7565b60c08301525060e083013582811115620012a357600080fd5b620012b187828601620010f4565b60e08301525095945050505050565b600060208284031215620012d357600080fd5b813567ffffffffffffffff811115620012eb57600080fd5b620012f984828501620010f4565b949350505050565b600080604083850312156200131557600080fd5b823567ffffffffffffffff808211156200132e57600080fd5b6200133c86838701620010f4565b935060208501359150808211156200135357600080fd5b50620013628582860162000fc7565b9150509250929050565b60005b83811015620013895781810151838201526020016200136f565b50506000910152565b60008151808452620013ac8160208601602086016200136c565b601f01601f19169290920160200192915050565b602081526000620006a3602083018462001392565b634e487b7160e01b600052603260045260246000fd5b6000600182016200140c57634e487b7160e01b600052601160045260246000fd5b5060010190565b6000826200143157634e487b7160e01b600052601260045260246000fd5b500690565b600084516200144a8184602089016200136c565b845190830190620014608183602089016200136c565b8451910190620014758183602088016200136c565b0195945050505050565b6020808252602b908201527f496e697469616c697a61626c653a20636f6e7472616374206973206e6f74206960408201526a6e697469616c697a696e6760a81b606082015260800190565b6001600160a01b0383168152604060208201526000620012f9604083018462001392565b6000602082840312156200150157600080fd5b8151620006a38162000e31565b6000610100808352620015248184018c62000ef5565b90508960208401526001600160a01b03808a166040850152838203606085015262001550828a62001392565b978116608085015295861660a0840152505060c081019290925290911660e090910152949350505050565b60006001600160a01b03808616835280851660208401525060606040830152620015a9606083018462001392565b95945050505050565b6001600160a01b03881681526000602060e081840152620015d760e084018a62001392565b8381036040850152620015eb818a62001392565b9050838103606085015262001601818962001392565b905083810360808501528087518083528383019150838160051b840101848a0160005b838110156200165657601f198684030185526200164383835162001392565b9487019492509086019060010162001624565b50506001600160a01b03891660a08801529450620016749350505050565b6001600160a01b03831660c083015298975050505050505050565b60006101406001600160a01b03808e168452808d166020850152808c16604085015250806060840152620016c68184018b62001392565b90508281036080840152620016dc818a62001392565b905082810360a0840152620016f2818962000ef5565b90508660c084015285151560e084015282810361010084015262001717818662001392565b90508281036101208401526200172e818562001392565b9d9c5050505050505050505050505056fe608060405260405162000ecc38038062000ecc833981016040819052620000269162000497565b828162000036828260006200004d565b50620000449050826200008a565b505050620005ca565b6200005883620000e5565b600082511180620000665750805b1562000085576200008383836200012760201b620001691760201c565b505b505050565b7f7e644d79422f17c01e4894b5f4f588d331ebfa28653d42ae832dc59e38c9798f620000b562000156565b604080516001600160a01b03928316815291841660208301520160405180910390a1620000e2816200018f565b50565b620000f08162000244565b6040516001600160a01b038216907fbc7cd75a20ee27fd9adebab32041f755214dbc6bffa90cc0225b39da2e5c2d3b90600090a250565b60606200014f838360405180606001604052806027815260200162000ea560279139620002f8565b9392505050565b60006200018060008051602062000e8583398151915260001b6200037760201b620001951760201c565b546001600160a01b0316919050565b6001600160a01b038116620001fa5760405162461bcd60e51b815260206004820152602660248201527f455243313936373a206e65772061646d696e20697320746865207a65726f206160448201526564647265737360d01b60648201526084015b60405180910390fd5b806200022360008051602062000e8583398151915260001b6200037760201b620001951760201c565b80546001600160a01b0319166001600160a01b039290921691909117905550565b6200025a816200037a60201b620001981760201c565b620002be5760405162461bcd60e51b815260206004820152602d60248201527f455243313936373a206e657720696d706c656d656e746174696f6e206973206e60448201526c1bdd08184818dbdb9d1c9858dd609a1b6064820152608401620001f1565b80620002237f360894a13ba1a3210667c828492db98dca3e2076cc3735a920a3ca505d382bbc60001b6200037760201b620001951760201c565b6060600080856001600160a01b03168560405162000317919062000577565b600060405180830381855af49150503d806000811462000354576040519150601f19603f3d011682016040523d82523d6000602084013e62000359565b606091505b5090925090506200036d8683838762000389565b9695505050505050565b90565b6001600160a01b03163b151590565b60608315620003fd578251600003620003f5576001600160a01b0385163b620003f55760405162461bcd60e51b815260206004820152601d60248201527f416464726573733a2063616c6c20746f206e6f6e2d636f6e74726163740000006044820152606401620001f1565b508162000409565b62000409838362000411565b949350505050565b815115620004225781518083602001fd5b8060405162461bcd60e51b8152600401620001f1919062000595565b80516001600160a01b03811681146200045657600080fd5b919050565b634e487b7160e01b600052604160045260246000fd5b60005b838110156200048e57818101518382015260200162000474565b50506000910152565b600080600060608486031215620004ad57600080fd5b620004b8846200043e565b9250620004c8602085016200043e565b60408501519092506001600160401b0380821115620004e657600080fd5b818601915086601f830112620004fb57600080fd5b8151818111156200051057620005106200045b565b604051601f8201601f19908116603f011681019083821181831017156200053b576200053b6200045b565b816040528281528960208487010111156200055557600080fd5b6200056883602083016020880162000471565b80955050505050509250925092565b600082516200058b81846020870162000471565b9190910192915050565b6020815260008251806020840152620005b681604085016020870162000471565b601f01601f19169190910160400192915050565b6108ab80620005da6000396000f3fe60806040523661001357610011610017565b005b6100115b61001f6101a7565b6001600160a01b0316330361015f5760606001600160e01b0319600035166364d3180d60e11b810161005a576100536101da565b9150610157565b63587086bd60e11b6001600160e01b031982160161007a57610053610231565b63070d7c6960e41b6001600160e01b031982160161009a57610053610277565b621eb96f60e61b6001600160e01b03198216016100b9576100536102a8565b63a39f25e560e01b6001600160e01b03198216016100d9576100536102e8565b60405162461bcd60e51b815260206004820152604260248201527f5472616e73706172656e745570677261646561626c6550726f78793a2061646d60448201527f696e2063616e6e6f742066616c6c6261636b20746f2070726f78792074617267606482015261195d60f21b608482015260a4015b60405180910390fd5b815160208301f35b6101676102fc565b565b606061018e838360405180606001604052806027815260200161084f6027913961030c565b9392505050565b90565b6001600160a01b03163b151590565b60007fb53127684a568b3173ae13b9f8a6016e243e63b6e8ee1178d6a717850b5d61035b546001600160a01b0316919050565b60606101e4610384565b60006101f336600481846106a2565b81019061020091906106e8565b905061021d8160405180602001604052806000815250600061038f565b505060408051602081019091526000815290565b606060008061024336600481846106a2565b8101906102509190610719565b915091506102608282600161038f565b604051806020016040528060008152509250505090565b6060610281610384565b600061029036600481846106a2565b81019061029d91906106e8565b905061021d816103bb565b60606102b2610384565b60006102bc6101a7565b604080516001600160a01b03831660208201529192500160405160208183030381529060405291505090565b60606102f2610384565b60006102bc610412565b610167610307610412565b610421565b6060600080856001600160a01b03168560405161032991906107ff565b600060405180830381855af49150503d8060008114610364576040519150601f19603f3d011682016040523d82523d6000602084013e610369565b606091505b509150915061037a86838387610445565b9695505050505050565b341561016757600080fd5b610398836104c6565b6000825111806103a55750805b156103b6576103b48383610169565b505b505050565b7f7e644d79422f17c01e4894b5f4f588d331ebfa28653d42ae832dc59e38c9798f6103e46101a7565b604080516001600160a01b03928316815291841660208301520160405180910390a161040f81610506565b50565b600061041c6105bc565b905090565b3660008037600080366000845af43d6000803e808015610440573d6000f35b3d6000fd5b606083156104b45782516000036104ad576001600160a01b0385163b6104ad5760405162461bcd60e51b815260206004820152601d60248201527f416464726573733a2063616c6c20746f206e6f6e2d636f6e7472616374000000604482015260640161014e565b50816104be565b6104be83836105e4565b949350505050565b6104cf8161060e565b6040516001600160a01b038216907fbc7cd75a20ee27fd9adebab32041f755214dbc6bffa90cc0225b39da2e5c2d3b90600090a250565b6001600160a01b03811661056b5760405162461bcd60e51b815260206004820152602660248201527f455243313936373a206e65772061646d696e20697320746865207a65726f206160448201526564647265737360d01b606482015260840161014e565b807fb53127684a568b3173ae13b9f8a6016e243e63b6e8ee1178d6a717850b5d61035b805473ffffffffffffffffffffffffffffffffffffffff19166001600160a01b039290921691909117905550565b60007f360894a13ba1a3210667c828492db98dca3e2076cc3735a920a3ca505d382bbc6101cb565b8151156105f45781518083602001fd5b8060405162461bcd60e51b815260040161014e919061081b565b6001600160a01b0381163b61067b5760405162461bcd60e51b815260206004820152602d60248201527f455243313936373a206e657720696d706c656d656e746174696f6e206973206e60448201526c1bdd08184818dbdb9d1c9858dd609a1b606482015260840161014e565b807f360894a13ba1a3210667c828492db98dca3e2076cc3735a920a3ca505d382bbc61058e565b600080858511156106b257600080fd5b838611156106bf57600080fd5b5050820193919092039150565b80356001600160a01b03811681146106e357600080fd5b919050565b6000602082840312156106fa57600080fd5b61018e826106cc565b634e487b7160e01b600052604160045260246000fd5b6000806040838503121561072c57600080fd5b610735836106cc565b9150602083013567ffffffffffffffff8082111561075257600080fd5b818501915085601f83011261076657600080fd5b81358181111561077857610778610703565b604051601f8201601f19908116603f011681019083821181831017156107a0576107a0610703565b816040528281528860208487010111156107b957600080fd5b8260208601602083013760006020848301015280955050505050509250929050565b60005b838110156107f65781810151838201526020016107de565b50506000910152565b600082516108118184602087016107db565b9190910192915050565b602081526000825180602084015261083a8160408501602087016107db565b601f01601f1916919091016040019291505056fe416464726573733a206c6f772d6c6576656c2064656c65676174652063616c6c206661696c6564a2646970667358221220fb4626745ae8f971d2ea920e16c9476c772f050301b983b3f02aa85dd4e1c5c164736f6c63430008120033b53127684a568b3173ae13b9f8a6016e243e63b6e8ee1178d6a717850b5d6103416464726573733a206c6f772d6c6576656c2064656c65676174652063616c6c206661696c6564cf9d4a2ff924c5f3553e3c8485e6bc24fde822593d2c3d78c8fabaada123f8f6a2646970667358221220ead871ddf23a1aefff29957c4288203000b1979bde3e67662939270105050f0f64736f6c63430008120033",
  "linkReferences": {},
  "deployedLinkReferences": {}
}