{
  "_format": "hh-sol-artifact-1",
  "contractName": "MultiSigDAO",
  "sourceName": "contracts/dao/MultisigDAO.sol",
  "abi": [
    {
      "inputs": [
        {
          "internalType": "string",
          "name": "message",
          "type": "string"
        }
      ],
      "name": "InvalidInput",
      "type": "error"
    },
    {
      "anonymous": false,
      "inputs": [
        {
          "components": [
            {
              "internalType": "string",
              "name": "name",
              "type": "string"
            },
            {
              "internalType": "address",
              "name": "admin",
              "type": "address"
            },
            {
              "internalType": "string",
              "name": "logoUrl",
              "type": "string"
            },
            {
              "internalType": "string",
              "name": "description",
              "type": "string"
            },
            {
              "internalType": "string[]",
              "name": "webLinks",
              "type": "string[]"
            }
          ],
          "indexed": false,
          "internalType": "struct BaseDAO.DAOInfo",
          "name": "daoInfo",
          "type": "tuple"
        }
      ],
      "name": "DAOInfoUpdated",
      "type": "event"
    },
    {
      "anonymous": false,
      "inputs": [
        {
          "indexed": false,
          "internalType": "uint8",
          "name": "version",
          "type": "uint8"
        }
      ],
      "name": "Initialized",
      "type": "event"
    },
    {
      "anonymous": false,
      "inputs": [
        {
          "indexed": true,
          "internalType": "address",
          "name": "previousOwner",
          "type": "address"
        },
        {
          "indexed": true,
          "internalType": "address",
          "name": "newOwner",
          "type": "address"
        }
      ],
      "name": "OwnershipTransferred",
      "type": "event"
    },
    {
      "anonymous": false,
      "inputs": [
        {
          "indexed": false,
          "internalType": "bytes32",
          "name": "txnHash",
          "type": "bytes32"
        },
        {
          "components": [
            {
              "internalType": "address",
              "name": "to",
              "type": "address"
            },
            {
              "internalType": "uint256",
              "name": "value",
              "type": "uint256"
            },
            {
              "internalType": "bytes",
              "name": "data",
              "type": "bytes"
            },
            {
              "internalType": "enum Enum.Operation",
              "name": "operation",
              "type": "uint8"
            },
            {
              "internalType": "uint256",
              "name": "nonce",
              "type": "uint256"
            },
            {
              "internalType": "uint256",
              "name": "transactionType",
              "type": "uint256"
            },
            {
              "internalType": "string",
              "name": "title",
              "type": "string"
            },
            {
              "internalType": "string",
              "name": "description",
              "type": "string"
            },
            {
              "internalType": "string",
              "name": "linkToDiscussion",
              "type": "string"
            },
            {
              "internalType": "address",
              "name": "creator",
              "type": "address"
            }
          ],
          "indexed": false,
          "internalType": "struct MultiSigDAO.TransactionInfo",
          "name": "info",
          "type": "tuple"
        }
      ],
      "name": "TransactionCreated",
      "type": "event"
    },
    {
      "inputs": [
        {
          "internalType": "address",
          "name": "_admin",
          "type": "address"
        },
        {
          "internalType": "string",
          "name": "_name",
          "type": "string"
        },
        {
          "internalType": "string",
          "name": "_logoUrl",
          "type": "string"
        },
        {
          "internalType": "string",
          "name": "_description",
          "type": "string"
        },
        {
          "internalType": "string[]",
          "name": "_webLinks",
          "type": "string[]"
        }
      ],
      "name": "__BaseDAO_init",
      "outputs": [],
      "stateMutability": "nonpayable",
      "type": "function"
    },
    {
      "inputs": [
        {
          "internalType": "bytes32",
          "name": "_txnHash",
          "type": "bytes32"
        }
      ],
      "name": "getApprovalCounts",
      "outputs": [
        {
          "internalType": "uint256",
          "name": "",
          "type": "uint256"
        }
      ],
      "stateMutability": "view",
      "type": "function"
    },
    {
      "inputs": [],
      "name": "getDaoInfo",
      "outputs": [
        {
          "components": [
            {
              "internalType": "string",
              "name": "name",
              "type": "string"
            },
            {
              "internalType": "address",
              "name": "admin",
              "type": "address"
            },
            {
              "internalType": "string",
              "name": "logoUrl",
              "type": "string"
            },
            {
              "internalType": "string",
              "name": "description",
              "type": "string"
            },
            {
              "internalType": "string[]",
              "name": "webLinks",
              "type": "string[]"
            }
          ],
          "internalType": "struct BaseDAO.DAOInfo",
          "name": "",
          "type": "tuple"
        }
      ],
      "stateMutability": "view",
      "type": "function"
    },
    {
      "inputs": [],
      "name": "getHederaGnosisSafeContractAddress",
      "outputs": [
        {
          "internalType": "address",
          "name": "",
          "type": "address"
        }
      ],
      "stateMutability": "view",
      "type": "function"
    },
    {
      "inputs": [],
      "name": "getHederaServiceVersion",
      "outputs": [
        {
          "internalType": "contract IHederaService",
          "name": "",
          "type": "address"
        }
      ],
      "stateMutability": "view",
      "type": "function"
    },
    {
      "inputs": [],
      "name": "getMultiSendContractAddress",
      "outputs": [
        {
          "internalType": "address",
          "name": "",
          "type": "address"
        }
      ],
      "stateMutability": "view",
      "type": "function"
    },
    {
      "inputs": [
        {
          "internalType": "bytes32",
          "name": "_txnHash",
          "type": "bytes32"
        }
      ],
      "name": "getTransactionInfo",
      "outputs": [
        {
          "components": [
            {
              "internalType": "address",
              "name": "to",
              "type": "address"
            },
            {
              "internalType": "uint256",
              "name": "value",
              "type": "uint256"
            },
            {
              "internalType": "bytes",
              "name": "data",
              "type": "bytes"
            },
            {
              "internalType": "enum Enum.Operation",
              "name": "operation",
              "type": "uint8"
            },
            {
              "internalType": "uint256",
              "name": "nonce",
              "type": "uint256"
            },
            {
              "internalType": "uint256",
              "name": "transactionType",
              "type": "uint256"
            },
            {
              "internalType": "string",
              "name": "title",
              "type": "string"
            },
            {
              "internalType": "string",
              "name": "description",
              "type": "string"
            },
            {
              "internalType": "string",
              "name": "linkToDiscussion",
              "type": "string"
            },
            {
              "internalType": "address",
              "name": "creator",
              "type": "address"
            }
          ],
          "internalType": "struct MultiSigDAO.TransactionInfo",
          "name": "",
          "type": "tuple"
        }
      ],
      "stateMutability": "view",
      "type": "function"
    },
    {
      "inputs": [
        {
          "internalType": "address",
          "name": "_admin",
          "type": "address"
        },
        {
          "internalType": "string",
          "name": "_name",
          "type": "string"
        },
        {
          "internalType": "string",
          "name": "_logoUrl",
          "type": "string"
        },
        {
          "internalType": "string",
          "name": "_description",
          "type": "string"
        },
        {
          "internalType": "string[]",
          "name": "_webLinks",
          "type": "string[]"
        },
        {
          "internalType": "contract HederaGnosisSafe",
          "name": "_hederaGnosisSafe",
          "type": "address"
        },
        {
          "internalType": "contract IHederaService",
          "name": "_hederaService",
          "type": "address"
        },
        {
          "internalType": "contract HederaMultiSend",
          "name": "_multiSend",
          "type": "address"
        }
      ],
      "name": "initialize",
      "outputs": [],
      "stateMutability": "nonpayable",
      "type": "function"
    },
    {
      "inputs": [],
      "name": "owner",
      "outputs": [
        {
          "internalType": "address",
          "name": "",
          "type": "address"
        }
      ],
      "stateMutability": "view",
      "type": "function"
    },
    {
      "inputs": [
        {
          "internalType": "address[]",
          "name": "_targets",
          "type": "address[]"
        },
        {
          "internalType": "uint256[]",
          "name": "_values",
          "type": "uint256[]"
        },
        {
          "internalType": "bytes[]",
          "name": "_calldatas",
          "type": "bytes[]"
        },
        {
          "internalType": "string",
          "name": "title",
          "type": "string"
        },
        {
          "internalType": "string",
          "name": "desc",
          "type": "string"
        },
        {
          "internalType": "string",
          "name": "linkToDiscussion",
          "type": "string"
        }
      ],
      "name": "proposeBatchTransaction",
      "outputs": [
        {
          "internalType": "bytes32",
          "name": "",
          "type": "bytes32"
        }
      ],
      "stateMutability": "payable",
      "type": "function"
    },
    {
      "inputs": [
        {
          "internalType": "address",
          "name": "_to",
          "type": "address"
        },
        {
          "internalType": "bytes",
          "name": "_data",
          "type": "bytes"
        },
        {
          "internalType": "uint256",
          "name": "_type",
          "type": "uint256"
        },
        {
          "internalType": "string",
          "name": "title",
          "type": "string"
        },
        {
          "internalType": "string",
          "name": "desc",
          "type": "string"
        },
        {
          "internalType": "string",
          "name": "linkToDiscussion",
          "type": "string"
        }
      ],
      "name": "proposeTransaction",
      "outputs": [
        {
          "internalType": "bytes32",
          "name": "",
          "type": "bytes32"
        }
      ],
      "stateMutability": "payable",
      "type": "function"
    },
    {
      "inputs": [
        {
          "internalType": "address",
          "name": "_token",
          "type": "address"
        },
        {
          "internalType": "address",
          "name": "_receiver",
          "type": "address"
        },
        {
          "internalType": "uint256",
          "name": "_amount",
          "type": "uint256"
        },
        {
          "internalType": "string",
          "name": "title",
          "type": "string"
        },
        {
          "internalType": "string",
          "name": "desc",
          "type": "string"
        },
        {
          "internalType": "string",
          "name": "linkToDiscussion",
          "type": "string"
        }
      ],
      "name": "proposeTransferTransaction",
      "outputs": [
        {
          "internalType": "bytes32",
          "name": "",
          "type": "bytes32"
        }
      ],
      "stateMutability": "payable",
      "type": "function"
    },
    {
      "inputs": [],
      "name": "renounceOwnership",
      "outputs": [],
      "stateMutability": "nonpayable",
      "type": "function"
    },
    {
      "inputs": [
        {
          "internalType": "bytes32",
          "name": "_txnHash",
          "type": "bytes32"
        }
      ],
      "name": "state",
      "outputs": [
        {
          "internalType": "enum MultiSigDAO.TransactionState",
          "name": "",
          "type": "uint8"
        }
      ],
      "stateMutability": "view",
      "type": "function"
    },
    {
      "inputs": [
        {
          "internalType": "address",
          "name": "newOwner",
          "type": "address"
        }
      ],
      "name": "transferOwnership",
      "outputs": [],
      "stateMutability": "nonpayable",
      "type": "function"
    },
    {
      "inputs": [
        {
          "internalType": "string",
          "name": "_name",
          "type": "string"
        },
        {
          "internalType": "string",
          "name": "_logoUrl",
          "type": "string"
        },
        {
          "internalType": "string",
          "name": "_description",
          "type": "string"
        },
        {
          "internalType": "string[]",
          "name": "_webLinks",
          "type": "string[]"
        }
      ],
      "name": "updateDaoInfo",
      "outputs": [],
      "stateMutability": "nonpayable",
      "type": "function"
    },
    {
      "inputs": [
        {
          "internalType": "contract IHederaService",
          "name": "newHederaService",
          "type": "address"
        }
      ],
      "name": "upgradeHederaService",
      "outputs": [],
      "stateMutability": "nonpayable",
      "type": "function"
    },
    {
      "inputs": [
        {
          "internalType": "contract HederaMultiSend",
          "name": "_multiSend",
          "type": "address"
        }
      ],
      "name": "upgradeMultiSend",
      "outputs": [],
      "stateMutability": "nonpayable",
      "type": "function"
    }
  ],
  "bytecode": "0x608060405234801561001057600080fd5b50612803806100206000396000f3fe6080604052600436106100d95760003560e01c806317924403146100de578063193f6b34146101155780632248506414610143578063402482e41461016557806349e6b62c1461017857806361d585da146101a557806366c5b9a6146101d25780636dab6f75146101f2578063715018a61461021057806380896acc146102255780638da5cb5b1461024357806398315868146102585780639a200247146102785780639b316eda1461028b578063b829d3fe146102ab578063d26d681f146102be578063f2fde38b146102de578063fa382f87146102fe575b600080fd5b3480156100ea57600080fd5b50606b546001600160a01b03165b6040516001600160a01b0390911681526020015b60405180910390f35b34801561012157600080fd5b506101356101303660046119a9565b610320565b60405190815260200161010c565b34801561014f57600080fd5b5061016361015e366004611b4e565b610394565b005b610135610173366004611cfc565b6104fd565b34801561018457600080fd5b506101986101933660046119a9565b6106be565b60405161010c9190611e6a565b3480156101b157600080fd5b506101c56101c03660046119a9565b6109c8565b60405161010c9190611f47565b3480156101de57600080fd5b506101636101ed366004611f61565b610dd1565b3480156101fe57600080fd5b50606c546001600160a01b03166100f8565b34801561021c57600080fd5b50610163610eca565b34801561023157600080fd5b50606d546001600160a01b03166100f8565b34801561024f57600080fd5b506100f8610ede565b34801561026457600080fd5b50610163610273366004612020565b610eed565b6101356102863660046120cc565b610f07565b34801561029757600080fd5b506101636102a6366004612123565b610ff3565b6101356102b9366004612147565b61103f565b3480156102ca57600080fd5b506101636102d9366004612123565b611268565b3480156102ea57600080fd5b506101636102f9366004612123565b6112b4565b34801561030a57600080fd5b5061031361132d565b60405161010c91906121ae565b606d5460405163064fdacd60e21b8152600481018390526000916001600160a01b03169063193f6b3490602401602060405180830381865afa15801561036a573d6000803e3d6000fd5b505050506040513d601f19601f8201168201806040525081019061038e919061227b565b92915050565b600054610100900460ff16158080156103b45750600054600160ff909116105b806103ce5750303b1580156103ce575060005460ff166001145b6104365760405162461bcd60e51b815260206004820152602e60248201527f496e697469616c697a61626c653a20636f6e747261637420697320616c72656160448201526d191e481a5b9a5d1a585b1a5e995960921b60648201526084015b60405180910390fd5b6000805460ff191660011790558015610459576000805461ff0019166101001790555b606a8054336001600160a01b031991821617909155606c805482166001600160a01b0386811691909117909155606d80548316878316179055606b80549092169084161790556104ac8989898989610dd1565b80156104f2576000805461ff0019169055604051600181527f7f26b83ff96e1f2b6a682f133852f6798a09c465da95921460cefb38474024989060200160405180910390a15b505050505050505050565b6000808751118015610510575085518751145b801561051d575084518751145b6105795760405162461bcd60e51b815260206004820152602760248201527f4d756c746953696744414f3a20696e76616c6964207472616e73616374696f6e604482015266040d8cadccee8d60cb1b606482015260840161042d565b606060005b885181101561062c578160008a838151811061059c5761059c612294565b60200260200101518a84815181106105b6576105b6612294565b60200260200101518a85815181106105d0576105d0612294565b6020026020010151518b86815181106105eb576105eb612294565b6020026020010151604051602001610608969594939291906122aa565b6040516020818303038152906040529150808061062490612316565b91505061057e565b5060007f8d80ff0a19eeb79604f91006b003a79847afc54b18a8fde61bb59e08da5da9cf82604051602401610661919061233d565b60408051601f198184030181529190526020810180516001600160e01b03166001600160e01b031990931692909217909152606b549091506106b1906001600160a01b031682600289898961103f565b9998505050505050505050565b6106c6611869565b6000828152606e6020908152604080832081516101408101835281546001600160a01b03168152600182015493810193909352600281018054919284019161070d90612350565b80601f016020809104026020016040519081016040528092919081815260200182805461073990612350565b80156107865780601f1061075b57610100808354040283529160200191610786565b820191906000526020600020905b81548152906001019060200180831161076957829003601f168201915b5050509183525050600382015460209091019060ff1660018111156107ad576107ad611e40565b60018111156107be576107be611e40565b815260200160048201548152602001600582015481526020016006820180546107e690612350565b80601f016020809104026020016040519081016040528092919081815260200182805461081290612350565b801561085f5780601f106108345761010080835404028352916020019161085f565b820191906000526020600020905b81548152906001019060200180831161084257829003601f168201915b5050505050815260200160078201805461087890612350565b80601f01602080910402602001604051908101604052809291908181526020018280546108a490612350565b80156108f15780601f106108c6576101008083540402835291602001916108f1565b820191906000526020600020905b8154815290600101906020018083116108d457829003601f168201915b5050505050815260200160088201805461090a90612350565b80601f016020809104026020016040519081016040528092919081815260200182805461093690612350565b80156109835780601f1061095857610100808354040283529160200191610983565b820191906000526020600020905b81548152906001019060200180831161096657829003601f168201915b5050509183525050600991909101546001600160a01b0316602090910152608081015190915060000361038e5760405162461bcd60e51b815260040161042d90612384565b6000818152606e6020908152604080832081516101408101835281546001600160a01b0316815260018201549381019390935260028101805485949384019190610a1190612350565b80601f0160208091040260200160405190810160405280929190818152602001828054610a3d90612350565b8015610a8a5780601f10610a5f57610100808354040283529160200191610a8a565b820191906000526020600020905b815481529060010190602001808311610a6d57829003601f168201915b5050509183525050600382015460209091019060ff166001811115610ab157610ab1611e40565b6001811115610ac257610ac2611e40565b81526020016004820154815260200160058201548152602001600682018054610aea90612350565b80601f0160208091040260200160405190810160405280929190818152602001828054610b1690612350565b8015610b635780601f10610b3857610100808354040283529160200191610b63565b820191906000526020600020905b815481529060010190602001808311610b4657829003601f168201915b50505050508152602001600782018054610b7c90612350565b80601f0160208091040260200160405190810160405280929190818152602001828054610ba890612350565b8015610bf55780601f10610bca57610100808354040283529160200191610bf5565b820191906000526020600020905b815481529060010190602001808311610bd857829003601f168201915b50505050508152602001600882018054610c0e90612350565b80601f0160208091040260200160405190810160405280929190818152602001828054610c3a90612350565b8015610c875780601f10610c5c57610100808354040283529160200191610c87565b820191906000526020600020905b815481529060010190602001808311610c6a57829003601f168201915b5050509183525050600991909101546001600160a01b03166020909101526080810151909150600003610ccc5760405162461bcd60e51b815260040161042d90612384565b606d546040516301244d4760e11b8152600481018590526001600160a01b03909116906302489a8e90602401602060405180830381865afa158015610d15573d6000803e3d6000fd5b505050506040513d601f19601f82011682018060405250810190610d3991906123b7565b15610d475750600292915050565b606d5460405163a7f173ab60e01b8152600481018590526001600160a01b039091169063a7f173ab90602401602060405180830381865afa158015610d90573d6000803e3d6000fd5b505050506040513d601f19601f82011682018060405250810190610db491906123b7565b15610dc25750600192915050565b50600092915050565b50919050565b600054610100900460ff16610e3c5760405162461bcd60e51b815260206004820152602b60248201527f496e697469616c697a61626c653a20636f6e7472616374206973206e6f74206960448201526a6e697469616c697a696e6760a81b606482015260840161042d565b6001600160a01b038516610e935760405163d647364f60e01b815260206004820152601e60248201527f4261736544414f3a2061646d696e2061646472657373206973207a65726f0000604482015260640161042d565b606680546001600160a01b0319166001600160a01b038716179055610eb785611620565b610ec384848484611672565b5050505050565b610ed261180a565b610edc6000611620565b565b6033546001600160a01b031690565b610ef561180a565b610f0184848484611672565b50505050565b606d54606c5460405163658af36b60e01b81526001600160a01b039182166004820152888216602482015260448101879052336064820152600092919091169063658af36b90608401600060405180830381600087803b158015610f6a57600080fd5b505af1158015610f7e573d6000803e3d6000fd5b5050604080516001600160a01b038b811660248301528a8116604483015260648083018b90528351808403909101815260849092019092526020810180516001600160e01b0316635d9a6dad60e11b179052606d54909350610fe792501682600188888861103f565b98975050505050505050565b606a546001600160a01b0316331461101d5760405162461bcd60e51b815260040161042d906123d9565b606b80546001600160a01b0319166001600160a01b0392909216919091179055565b6000835160000361109c5760405162461bcd60e51b815260206004820152602160248201527f4d756c746953696744414f3a207469746c652063616e277420626520626c616e6044820152606b60f81b606482015260840161042d565b82516000036110ed5760405162461bcd60e51b815260206004820181905260248201527f4d756c746953696744414f3a20646573632063616e277420626520626c616e6b604482015260640161042d565b606d54604051633c75d0af60e11b8152600091829182916001600160a01b0316906378eba15e90611128908d9034908e908790600401612427565b60408051808303816000875af1158015611146573d6000803e3d6000fd5b505050506040513d601f19601f8201168201806040525081019061116a9190612466565b6000828152606e6020526040902080546001600160a01b0319166001600160a01b038e161781553460018201559193509150600281016111aa8b826124d9565b5060038101805485919060ff1916600183818111156111cb576111cb611e40565b02179055506004810182905560058101899055600681016111ec89826124d9565b50600781016111fb88826124d9565b506008810161120a87826124d9565b506009810180546001600160a01b031916331790556040517f122fdaea6d6de1c44d0a3270dde2d651500479c7c64559bd724a31059a2275f0906112519085908490612621565b60405180910390a150909998505050505050505050565b606a546001600160a01b031633146112925760405162461bcd60e51b815260040161042d906123d9565b606c80546001600160a01b0319166001600160a01b0392909216919091179055565b6112bc61180a565b6001600160a01b0381166113215760405162461bcd60e51b815260206004820152602660248201527f4f776e61626c653a206e6577206f776e657220697320746865207a65726f206160448201526564647265737360d01b606482015260840161042d565b61132a81611620565b50565b6113686040518060a001604052806060815260200160006001600160a01b031681526020016060815260200160608152602001606081525090565b60656040518060a001604052908160008201805461138590612350565b80601f01602080910402602001604051908101604052809291908181526020018280546113b190612350565b80156113fe5780601f106113d3576101008083540402835291602001916113fe565b820191906000526020600020905b8154815290600101906020018083116113e157829003601f168201915b505050918352505060018201546001600160a01b0316602082015260028201805460409092019161142e90612350565b80601f016020809104026020016040519081016040528092919081815260200182805461145a90612350565b80156114a75780601f1061147c576101008083540402835291602001916114a7565b820191906000526020600020905b81548152906001019060200180831161148a57829003601f168201915b505050505081526020016003820180546114c090612350565b80601f01602080910402602001604051908101604052809291908181526020018280546114ec90612350565b80156115395780601f1061150e57610100808354040283529160200191611539565b820191906000526020600020905b81548152906001019060200180831161151c57829003601f168201915b5050505050815260200160048201805480602002602001604051908101604052809291908181526020016000905b8282101561161357838290600052602060002001805461158690612350565b80601f01602080910402602001604051908101604052809291908181526020018280546115b290612350565b80156115ff5780601f106115d4576101008083540402835291602001916115ff565b820191906000526020600020905b8154815290600101906020018083116115e257829003601f168201915b505050505081526020019060010190611567565b5050505081525050905090565b603380546001600160a01b038381166001600160a01b0319831681179093556040519116919082907f8be0079c531659141344cd1fd0a4f28419497f9722a3daafe3b4186f6b6457e090600090a35050565b83516000036116bd5760405163d647364f60e01b81526020600482015260166024820152754261736544414f3a206e616d6520697320656d70747960501b604482015260640161042d565b60656116c985826124d9565b50815160000361171c5760405163d647364f60e01b815260206004820152601d60248201527f4261736544414f3a206465736372697074696f6e20697320656d707479000000604482015260640161042d565b606861172883826124d9565b5060005b81518110156117aa5781818151811061174757611747612294565b6020026020010151516000036117985760405163d647364f60e01b81526020600482015260156024820152744261736544414f3a20696e76616c6964206c696e6b60581b604482015260640161042d565b806117a281612316565b91505061172c565b5080516117be9060699060208401906118df565b5060676117cb84826124d9565b507fa6f9f25f4c5fed6464b219efa94b247fa993d06e7594aa81dd392bcbbd36006160656040516117fc9190612706565b60405180910390a150505050565b33611813610ede565b6001600160a01b031614610edc5760405162461bcd60e51b815260206004820181905260248201527f4f776e61626c653a2063616c6c6572206973206e6f7420746865206f776e6572604482015260640161042d565b60405180610140016040528060006001600160a01b031681526020016000815260200160608152602001600060018111156118a6576118a6611e40565b8152602001600081526020016000815260200160608152602001606081526020016060815260200160006001600160a01b031681525090565b828054828255906000526020600020908101928215611925579160200282015b82811115611925578251829061191590826124d9565b50916020019190600101906118ff565b50611931929150611935565b5090565b808211156119315760006119498282611952565b50600101611935565b50805461195e90612350565b6000825580601f1061196e575050565b601f01602090049060005260206000209081019061132a91905b808211156119315760008155600101611988565b6001600160a01b03169052565b6000602082840312156119bb57600080fd5b5035919050565b6001600160a01b038116811461132a57600080fd5b80356119e2816119c2565b919050565b634e487b7160e01b600052604160045260246000fd5b604051601f8201601f191681016001600160401b0381118282101715611a2557611a256119e7565b604052919050565b600082601f830112611a3e57600080fd5b81356001600160401b03811115611a5757611a576119e7565b611a6a601f8201601f19166020016119fd565b818152846020838601011115611a7f57600080fd5b816020850160208301376000918101602001919091529392505050565b60006001600160401b03821115611ab557611ab56119e7565b5060051b60200190565b600082601f830112611ad057600080fd5b81356020611ae5611ae083611a9c565b6119fd565b82815260059290921b84018101918181019086841115611b0457600080fd5b8286015b84811015611b435780356001600160401b03811115611b275760008081fd5b611b358986838b0101611a2d565b845250918301918301611b08565b509695505050505050565b600080600080600080600080610100898b031215611b6b57600080fd5b611b74896119d7565b975060208901356001600160401b0380821115611b9057600080fd5b611b9c8c838d01611a2d565b985060408b0135915080821115611bb257600080fd5b611bbe8c838d01611a2d565b975060608b0135915080821115611bd457600080fd5b611be08c838d01611a2d565b965060808b0135915080821115611bf657600080fd5b50611c038b828c01611abf565b945050611c1260a08a016119d7565b9250611c2060c08a016119d7565b9150611c2e60e08a016119d7565b90509295985092959890939650565b600082601f830112611c4e57600080fd5b81356020611c5e611ae083611a9c565b82815260059290921b84018101918181019086841115611c7d57600080fd5b8286015b84811015611b43578035611c94816119c2565b8352918301918301611c81565b600082601f830112611cb257600080fd5b81356020611cc2611ae083611a9c565b82815260059290921b84018101918181019086841115611ce157600080fd5b8286015b84811015611b435780358352918301918301611ce5565b60008060008060008060c08789031215611d1557600080fd5b86356001600160401b0380821115611d2c57600080fd5b611d388a838b01611c3d565b97506020890135915080821115611d4e57600080fd5b611d5a8a838b01611ca1565b96506040890135915080821115611d7057600080fd5b611d7c8a838b01611abf565b95506060890135915080821115611d9257600080fd5b611d9e8a838b01611a2d565b94506080890135915080821115611db457600080fd5b611dc08a838b01611a2d565b935060a0890135915080821115611dd657600080fd5b50611de389828a01611a2d565b9150509295509295509295565b60005b83811015611e0b578181015183820152602001611df3565b50506000910152565b60008151808452611e2c816020860160208601611df0565b601f01601f19169290920160200192915050565b634e487b7160e01b600052602160045260246000fd5b60028110611e6657611e66611e40565b9052565b60208152611e7c60208201835161199c565b6020820151604082015260006040830151610140806060850152611ea4610160850183611e14565b91506060850151611eb86080860182611e56565b50608085015160a085015260a085015160c085015260c0850151601f19808685030160e0870152611ee98483611e14565b935060e08701519150610100818786030181880152611f088584611e14565b945080880151925050610120818786030181880152611f278584611e14565b94508088015192505050611f3d8286018261199c565b5090949350505050565b6020810160038310611f5b57611f5b611e40565b91905290565b600080600080600060a08688031215611f7957600080fd5b8535611f84816119c2565b945060208601356001600160401b0380821115611fa057600080fd5b611fac89838a01611a2d565b95506040880135915080821115611fc257600080fd5b611fce89838a01611a2d565b94506060880135915080821115611fe457600080fd5b611ff089838a01611a2d565b9350608088013591508082111561200657600080fd5b5061201388828901611abf565b9150509295509295909350565b6000806000806080858703121561203657600080fd5b84356001600160401b038082111561204d57600080fd5b61205988838901611a2d565b9550602087013591508082111561206f57600080fd5b61207b88838901611a2d565b9450604087013591508082111561209157600080fd5b61209d88838901611a2d565b935060608701359150808211156120b357600080fd5b506120c087828801611abf565b91505092959194509250565b60008060008060008060c087890312156120e557600080fd5b86356120f0816119c2565b95506020870135612100816119c2565b94506040870135935060608701356001600160401b0380821115611d9257600080fd5b60006020828403121561213557600080fd5b8135612140816119c2565b9392505050565b60008060008060008060c0878903121561216057600080fd5b612169876119d7565b955060208701356001600160401b038082111561218557600080fd5b6121918a838b01611a2d565b9650604089013595506060890135915080821115611d9257600080fd5b60006020808352835160a0828501526121ca60c0850182611e14565b905060018060a01b03828601511660408501526040850151601f19808684030160608701526121f98383611e14565b925060608701519150808684030160808701526122168383611e14565b6080880151878203830160a089015280518083529194508501925084840190600581901b8501860160005b8281101561226d578487830301845261225b828751611e14565b95880195938801939150600101612241565b509998505050505050505050565b60006020828403121561228d57600080fd5b5051919050565b634e487b7160e01b600052603260045260246000fd5b600087516122bc818460208c01611df0565b60f888901b6001600160f81b031916908301908152606087901b6001600160601b031916600182015260158101869052603581018590528351612306816055840160208801611df0565b0160550198975050505050505050565b60006001820161233657634e487b7160e01b600052601160045260246000fd5b5060010190565b6020815260006121406020830184611e14565b600181811c9082168061236457607f821691505b602082108103610dcb57634e487b7160e01b600052602260045260246000fd5b602080825260199082015278135d5b1d1a54da59d11053ce881b9bc81d1e1b88195e1a5cdd603a1b604082015260600190565b6000602082840312156123c957600080fd5b8151801515811461214057600080fd5b6020808252602e908201527f526f6c6542617365644163636573733a2063616c6c6572206973206e6f74207460408201526d34329039bcb9ba32b6903ab9b2b960911b606082015260800190565b60018060a01b038516815283602082015260806040820152600061244e6080830185611e14565b905061245d6060830184611e56565b95945050505050565b6000806040838503121561247957600080fd5b505080516020909101519092909150565b601f8211156124d457600081815260208120601f850160051c810160208610156124b15750805b601f850160051c820191505b818110156124d0578281556001016124bd565b5050505b505050565b81516001600160401b038111156124f2576124f26119e7565b612506816125008454612350565b8461248a565b602080601f83116001811461253b57600084156125235750858301515b600019600386901b1c1916600185901b1785556124d0565b600085815260208120601f198616915b8281101561256a5788860151825594840194600190910190840161254b565b50858210156125885787850151600019600388901b60f8161c191681555b5050505050600190811b01905550565b6001600160a01b031690565b600081546125b181612350565b8085526020600183811680156125ce57600181146125e857612616565b60ff1985168884015283151560051b880183019550612616565b866000528260002060005b8581101561260e5781548a82018601529083019084016125f3565b890184019650505b505050505092915050565b828152604060208201526126416040820161263c8454612598565b61199c565b6001820154606082015260006101408060808401526126676101808401600286016125a4565b600385015460ff1661267c60a0860182611e56565b50600485015460c0850152600585015460e0850152603f1980858303016101008601526126ac82600688016125a4565b915080858303016101208601526126c682600788016125a4565b9150808583030183860152506126df81600887016125a4565b9150506126ef6009850154612598565b6126fd61016085018261199c565b50949350505050565b6000602080835260a08184015261272060c08401856125a4565b6001858101546001600160a01b03166040860152601f198583038101606087015261274e83600289016125a4565b92508086840301608087015261276783600389016125a4565b868103820160a0880152600488018054808352600091825286822092955086860191600582901b87018801905b828110156127be57858883030184526127ad82866125a4565b948701949389019391508601612794565b509a995050505050505050505056fea2646970667358221220b81f83976f50a76c80795c3adee915edf84de504758ef0f3ff1416629b35780964736f6c63430008120033",
  "linkReferences": {},
  "deployedLinkReferences": {}
}