{
  "_format": "hh-sol-artifact-1",
  "contractName": "MultisigDAOFactory",
  "sourceName": "contracts/dao/MultisigDAOFactory.sol",
  "abi": [
    {
      "inputs": [
        {
          "internalType": "string",
          "name": "message",
          "type": "string"
        }
      ],
      "name": "InvalidInput",
      "type": "error"
    },
    {
      "inputs": [
        {
          "internalType": "string",
          "name": "message",
          "type": "string"
        }
      ],
      "name": "NotAdmin",
      "type": "error"
    },
    {
      "anonymous": false,
      "inputs": [
        {
          "indexed": false,
          "internalType": "address",
          "name": "daoAddress",
          "type": "address"
        },
        {
          "indexed": false,
          "internalType": "address",
          "name": "safeAddress",
          "type": "address"
        },
        {
          "indexed": false,
          "internalType": "address",
          "name": "multiSendAddress",
          "type": "address"
        },
        {
          "components": [
            {
              "internalType": "address",
              "name": "admin",
              "type": "address"
            },
            {
              "internalType": "string",
              "name": "name",
              "type": "string"
            },
            {
              "internalType": "string",
              "name": "logoUrl",
              "type": "string"
            },
            {
              "internalType": "address[]",
              "name": "owners",
              "type": "address[]"
            },
            {
              "internalType": "uint256",
              "name": "threshold",
              "type": "uint256"
            },
            {
              "internalType": "bool",
              "name": "isPrivate",
              "type": "bool"
            },
            {
              "internalType": "string",
              "name": "description",
              "type": "string"
            },
            {
              "internalType": "string[]",
              "name": "webLinks",
              "type": "string[]"
            }
          ],
          "indexed": false,
          "internalType": "struct MultisigDAOFactory.CreateDAOInputs",
          "name": "inputs",
          "type": "tuple"
        }
      ],
      "name": "DAOCreated",
      "type": "event"
    },
    {
      "anonymous": false,
      "inputs": [
        {
          "indexed": false,
          "internalType": "uint8",
          "name": "version",
          "type": "uint8"
        }
      ],
      "name": "Initialized",
      "type": "event"
    },
    {
      "anonymous": false,
      "inputs": [
        {
          "indexed": true,
          "internalType": "address",
          "name": "oldImplementation",
          "type": "address"
        },
        {
          "indexed": true,
          "internalType": "address",
          "name": "newImplementation",
          "type": "address"
        },
        {
          "indexed": false,
          "internalType": "string",
          "name": "name",
          "type": "string"
        }
      ],
      "name": "LogicUpdated",
      "type": "event"
    },
    {
      "anonymous": false,
      "inputs": [
        {
          "indexed": true,
          "internalType": "address",
          "name": "previousOwner",
          "type": "address"
        },
        {
          "indexed": true,
          "internalType": "address",
          "name": "newOwner",
          "type": "address"
        }
      ],
      "name": "OwnershipTransferred",
      "type": "event"
    },
    {
      "inputs": [
        {
          "components": [
            {
              "internalType": "address",
              "name": "admin",
              "type": "address"
            },
            {
              "internalType": "string",
              "name": "name",
              "type": "string"
            },
            {
              "internalType": "string",
              "name": "logoUrl",
              "type": "string"
            },
            {
              "internalType": "address[]",
              "name": "owners",
              "type": "address[]"
            },
            {
              "internalType": "uint256",
              "name": "threshold",
              "type": "uint256"
            },
            {
              "internalType": "bool",
              "name": "isPrivate",
              "type": "bool"
            },
            {
              "internalType": "string",
              "name": "description",
              "type": "string"
            },
            {
              "internalType": "string[]",
              "name": "webLinks",
              "type": "string[]"
            }
          ],
          "internalType": "struct MultisigDAOFactory.CreateDAOInputs",
          "name": "_createDAOInputs",
          "type": "tuple"
        }
      ],
      "name": "createDAO",
      "outputs": [
        {
          "internalType": "address",
          "name": "",
          "type": "address"
        }
      ],
      "stateMutability": "nonpayable",
      "type": "function"
    },
    {
      "inputs": [],
      "name": "getDAOs",
      "outputs": [
        {
          "internalType": "address[]",
          "name": "",
          "type": "address[]"
        }
      ],
      "stateMutability": "view",
      "type": "function"
    },
    {
      "inputs": [],
      "name": "getHederaServiceVersion",
      "outputs": [
        {
          "internalType": "contract IHederaService",
          "name": "",
          "type": "address"
        }
      ],
      "stateMutability": "view",
      "type": "function"
    },
    {
      "inputs": [],
      "name": "getMultiSendContractAddress",
      "outputs": [
        {
          "internalType": "address",
          "name": "",
          "type": "address"
        }
      ],
      "stateMutability": "view",
      "type": "function"
    },
    {
      "inputs": [
        {
          "internalType": "address",
          "name": "_proxyAdmin",
          "type": "address"
        },
        {
          "internalType": "address",
          "name": "_daoLogic",
          "type": "address"
        },
        {
          "internalType": "address",
          "name": "_safeLogic",
          "type": "address"
        },
        {
          "internalType": "address",
          "name": "_safeFactory",
          "type": "address"
        },
        {
          "internalType": "contract IHederaService",
          "name": "_hederaService",
          "type": "address"
        },
        {
          "internalType": "contract HederaMultiSend",
          "name": "_multiSend",
          "type": "address"
        }
      ],
      "name": "initialize",
      "outputs": [],
      "stateMutability": "nonpayable",
      "type": "function"
    },
    {
      "inputs": [],
      "name": "owner",
      "outputs": [
        {
          "internalType": "address",
          "name": "",
          "type": "address"
        }
      ],
      "stateMutability": "view",
      "type": "function"
    },
    {
      "inputs": [],
      "name": "renounceOwnership",
      "outputs": [],
      "stateMutability": "nonpayable",
      "type": "function"
    },
    {
      "inputs": [
        {
          "internalType": "address",
          "name": "newOwner",
          "type": "address"
        }
      ],
      "name": "transferOwnership",
      "outputs": [],
      "stateMutability": "nonpayable",
      "type": "function"
    },
    {
      "inputs": [
        {
          "internalType": "address",
          "name": "_newImpl",
          "type": "address"
        }
      ],
      "name": "upgradeDaoLogicAddress",
      "outputs": [],
      "stateMutability": "nonpayable",
      "type": "function"
    },
    {
      "inputs": [
        {
          "internalType": "contract IHederaService",
          "name": "newHederaService",
          "type": "address"
        }
      ],
      "name": "upgradeHederaService",
      "outputs": [],
      "stateMutability": "nonpayable",
      "type": "function"
    },
    {
      "inputs": [
        {
          "internalType": "contract HederaMultiSend",
          "name": "_multiSend",
          "type": "address"
        }
      ],
      "name": "upgradeMultiSend",
      "outputs": [],
      "stateMutability": "nonpayable",
      "type": "function"
    },
    {
      "inputs": [
        {
          "internalType": "address",
          "name": "_newImpl",
          "type": "address"
        }
      ],
      "name": "upgradeSafeFactoryAddress",
      "outputs": [],
      "stateMutability": "nonpayable",
      "type": "function"
    },
    {
      "inputs": [
        {
          "internalType": "address",
          "name": "_newImpl",
          "type": "address"
        }
      ],
      "name": "upgradeSafeLogicAddress",
      "outputs": [],
      "stateMutability": "nonpayable",
      "type": "function"
    }
  ],
  "bytecode": "0x608060405234801561001057600080fd5b506124dd806100206000396000f3fe60806040523480156200001157600080fd5b5060043610620000be5760003560e01c80631792440314620000c35780633f7bcf0c14620000e8578063415cc7dd14620001015780634a6a8989146200011a5780636dab6f751462000131578063715018a614620001435780637bd0ca1f146200014d5780638da5cb5b14620001645780639b316eda146200016e578063cc2a9a5b1462000185578063d26d681f146200019c578063f2fde38b14620001b3578063fda2d01514620001ca575b600080fd5b606a546001600160a01b03165b604051620000df919062000d2b565b60405180910390f35b620000ff620000f936600462000d67565b620001e1565b005b6200010b62000290565b604051620000df919062000dd4565b620000d06200012b36600462001012565b620002f4565b6069546001600160a01b0316620000d0565b620000ff620003df565b620000ff6200015e36600462000d67565b620003f7565b620000d06200049e565b620000ff6200017f36600462000d67565b620004ad565b620000ff6200019636600462001153565b62000589565b620000ff620001ad36600462000d67565b62000808565b620000ff620001c436600462000d67565b620008dc565b620000ff620001db36600462000d67565b6200095b565b6065546001600160a01b031633146200021857604051633b12922f60e11b81526004016200020f90620011e2565b60405180910390fd5b606654604080518082018252600881526744616f4c6f67696360c01b602082015290516001600160a01b03808516931691600080516020620024888339815191529162000266919062001261565b60405180910390a3606680546001600160a01b0319166001600160a01b0392909216919091179055565b6060606b805480602002602001604051908101604052809291908181526020018280548015620002ea57602002820191906000526020600020905b81546001600160a01b03168152600190910190602001808311620002cb575b5050505050905090565b6000806200030b8360600151846080015162000a04565b90506000620003338460000151856020015186604001518760c001518860e001518762000b19565b90508360a001516200038b57606b80546001810182556000919091527fbd43cb8ece8cd1863bcd6082d65c5b0d25665b1ce17980f0da43c0ed545f98b40180546001600160a01b0319166001600160a01b0383161790555b606a546040517f0b440c8ad7499e955487ccbef2360cf1bba49a4e37c111318a459973f7ca218791620003d091849186916001600160a01b03909116908990620012cf565b60405180910390a19392505050565b620003e962000c05565b620003f5600062000c68565b565b6065546001600160a01b031633146200042557604051633b12922f60e11b81526004016200020f90620011e2565b6067546040805180820182526009815268536166654c6f67696360b81b602082015290516001600160a01b03808516931691600080516020620024888339815191529162000474919062001261565b60405180910390a3606780546001600160a01b0319166001600160a01b0392909216919091179055565b6033546001600160a01b031690565b620004b762000c05565b606a80546001600160a01b0319166001600160a01b03831617905560005b606b5481101562000585576000606b8281548110620004f857620004f8620013cb565b600091825260209091200154606a54604051634d98b76d60e11b81526001600160a01b0392831693508392639b316eda926200053a9291169060040162000d2b565b600060405180830381600087803b1580156200055557600080fd5b505af11580156200056a573d6000803e3d6000fd5b505050505080806200057c90620013e1565b915050620004d5565b5050565b600054610100900460ff1615808015620005aa5750600054600160ff909116105b80620005c65750303b158015620005c6575060005460ff166001145b6200062b5760405162461bcd60e51b815260206004820152602e60248201527f496e697469616c697a61626c653a20636f6e747261637420697320616c72656160448201526d191e481a5b9a5d1a585b1a5e995960921b60648201526084016200020f565b6000805460ff1916600117905580156200064f576000805461ff0019166101001790555b6200065962000cba565b606580546001600160a01b03199081166001600160a01b038a811691909117909255606680548216898416908117909155606780548316898516179055606880548316888516179055606980548316878516179055606a8054909216928516929092179055604080518082018252600881526744616f4c6f67696360c01b602082015290516000916000805160206200248883398151915291620006fe919062001261565b60405180910390a36067546040805180820182526009815268536166654c6f67696360b81b602082015290516001600160a01b0390921691600091600080516020620024888339815191529162000756919062001261565b60405180910390a3606854604080518082018252600b81526a53616665466163746f727960a81b602082015290516001600160a01b03909216916000916000805160206200248883398151915291620007b0919062001261565b60405180910390a38015620007ff576000805461ff0019169055604051600181527f7f26b83ff96e1f2b6a682f133852f6798a09c465da95921460cefb38474024989060200160405180910390a15b50505050505050565b6200081262000c05565b606980546001600160a01b0319166001600160a01b03831617905560005b606b5481101562000585576000606b8281548110620008535762000853620013cb565b60009182526020909120015460405163d26d681f60e01b81526001600160a01b039091169150819063d26d681f906200089190869060040162000d2b565b600060405180830381600087803b158015620008ac57600080fd5b505af1158015620008c1573d6000803e3d6000fd5b50505050508080620008d390620013e1565b91505062000830565b620008e662000c05565b6001600160a01b0381166200094d5760405162461bcd60e51b815260206004820152602660248201527f4f776e61626c653a206e6577206f776e657220697320746865207a65726f206160448201526564647265737360d01b60648201526084016200020f565b620009588162000c68565b50565b6065546001600160a01b031633146200098957604051633b12922f60e11b81526004016200020f90620011e2565b606854604080518082018252600b81526a53616665466163746f727960a81b602082015290516001600160a01b038085169316916000805160206200248883398151915291620009da919062001261565b60405180910390a3606880546001600160a01b0319166001600160a01b0392909216919091179055565b60685460675460408051602081018252600080825291516361b69abd60e01b81529193849360609385936001600160a01b03938416936361b69abd9362000a52939116919060040162001409565b6020604051808303816000875af115801562000a72573d6000803e3d6000fd5b505050506040513d601f19601f8201168201806040525081019062000a98919062001437565b60405163b63e800d60e01b815290915081906001600160a01b0382169063b63e800d9062000ada908a908a908990899082908190600090829060040162001457565b600060405180830381600087803b15801562000af557600080fd5b505af115801562000b0a573d6000803e3d6000fd5b50929998505050505050505050565b6066546065546040805160208101825260008082529151919384936001600160a01b03918216939116919062000b4f9062000d1d565b62000b5d93929190620014c6565b604051809103906000f08015801562000b7a573d6000803e3d6000fd5b50606954606a54604051630892141960e21b815292935083926001600160a01b038085169363224850649362000bc4938f938f938f938f938f938f938116921690600401620014fd565b600060405180830381600087803b15801562000bdf57600080fd5b505af115801562000bf4573d6000803e3d6000fd5b50929b9a5050505050505050505050565b3362000c106200049e565b6001600160a01b031614620003f55760405162461bcd60e51b815260206004820181905260248201527f4f776e61626c653a2063616c6c6572206973206e6f7420746865206f776e657260448201526064016200020f565b603380546001600160a01b038381166001600160a01b0319831681179093556040519116919082907f8be0079c531659141344cd1fd0a4f28419497f9722a3daafe3b4186f6b6457e090600090a35050565b600054610100900460ff1662000ce45760405162461bcd60e51b81526004016200020f906200158a565b620003f5600054610100900460ff1662000d125760405162461bcd60e51b81526004016200020f906200158a565b620003f53362000c68565b610eb280620015d683390190565b6001600160a01b0391909116815260200190565b6001600160a01b03811681146200095857600080fd5b803562000d628162000d3f565b919050565b60006020828403121562000d7a57600080fd5b813562000d878162000d3f565b9392505050565b600081518084526020808501945080840160005b8381101562000dc95781516001600160a01b03168752958201959082019060010162000da2565b509495945050505050565b60208152600062000d87602083018462000d8e565b634e487b7160e01b600052604160045260246000fd5b60405161010081016001600160401b038111828210171562000e255762000e2562000de9565b60405290565b604051601f8201601f191681016001600160401b038111828210171562000e565762000e5662000de9565b604052919050565b600082601f83011262000e7057600080fd5b81356001600160401b0381111562000e8c5762000e8c62000de9565b62000ea1601f8201601f191660200162000e2b565b81815284602083860101111562000eb757600080fd5b816020850160208301376000918101602001919091529392505050565b60006001600160401b0382111562000ef05762000ef062000de9565b5060051b60200190565b600082601f83011262000f0c57600080fd5b8135602062000f2562000f1f8362000ed4565b62000e2b565b82815260059290921b8401810191818101908684111562000f4557600080fd5b8286015b8481101562000f6d57803562000f5f8162000d3f565b835291830191830162000f49565b509695505050505050565b8035801515811462000d6257600080fd5b600082601f83011262000f9b57600080fd5b8135602062000fae62000f1f8362000ed4565b82815260059290921b8401810191818101908684111562000fce57600080fd5b8286015b8481101562000f6d5780356001600160401b0381111562000ff35760008081fd5b620010038986838b010162000e5e565b84525091830191830162000fd2565b6000602082840312156200102557600080fd5b81356001600160401b03808211156200103d57600080fd5b9083019061010082860312156200105357600080fd5b6200105d62000dff565b620010688362000d55565b81526020830135828111156200107d57600080fd5b6200108b8782860162000e5e565b602083015250604083013582811115620010a457600080fd5b620010b28782860162000e5e565b604083015250606083013582811115620010cb57600080fd5b620010d98782860162000efa565b60608301525060808301356080820152620010f760a0840162000f78565b60a082015260c0830135828111156200110f57600080fd5b6200111d8782860162000e5e565b60c08301525060e0830135828111156200113657600080fd5b620011448782860162000f89565b60e08301525095945050505050565b60008060008060008060c087890312156200116d57600080fd5b86356200117a8162000d3f565b955060208701356200118c8162000d3f565b945060408701356200119e8162000d3f565b93506060870135620011b08162000d3f565b92506080870135620011c28162000d3f565b915060a0870135620011d48162000d3f565b809150509295509295509295565b6020808252601f908201527f4d756c746973696744414f466163746f72793a2061757468206661696c656400604082015260600190565b6000815180845260005b81811015620012415760208185018101518683018201520162001223565b506000602082860101526020601f19601f83011685010191505092915050565b60208152600062000d87602083018462001219565b600081518084526020808501808196508360051b8101915082860160005b85811015620012c2578284038952620012af84835162001219565b9885019893509084019060010162001294565b5091979650505050505050565b6001600160a01b03858116825284811660208301528381166040830152608060608301819052835190911690820152600060208301516101008060a08501526200131e61018085018362001219565b91506040850151607f19808685030160c08701526200133e848362001219565b935060608701519150808685030160e08701526200135d848362000d8e565b935060808701518387015260a087015192506200137f61012087018415159052565b60c0870151925080868503016101408701526200139d848462001219565b935060e0870151925080868503016101608701525050620013bf828262001276565b98975050505050505050565b634e487b7160e01b600052603260045260246000fd5b6000600182016200140257634e487b7160e01b600052601160045260246000fd5b5060010190565b6001600160a01b03831681526040602082018190526000906200142f9083018462001219565b949350505050565b6000602082840312156200144a57600080fd5b815162000d878162000d3f565b60006101008083526200146d8184018c62000d8e565b602084018b90526001600160a01b038a8116604086015284820360608601529091506200149b828a62001219565b978116608085015295861660a0840152505060c081019290925290911660e090910152949350505050565b6001600160a01b03848116825283166020820152606060408201819052600090620014f49083018462001219565b95945050505050565b6001600160a01b03898116825261010060208301819052600091620015258483018c62001219565b915083820360408501526200153b828b62001219565b9150838203606085015262001551828a62001219565b9150838203608085015262001567828962001276565b96811660a085015294851660c08401525050911660e09091015295945050505050565b6020808252602b908201527f496e697469616c697a61626c653a20636f6e7472616374206973206e6f74206960408201526a6e697469616c697a696e6760a81b60608201526080019056fe608060405260405162000eb238038062000eb2833981016040819052620000269162000497565b828162000036828260006200004d565b50620000449050826200008a565b505050620005ca565b6200005883620000e5565b600082511180620000665750805b1562000085576200008383836200012760201b620001691760201c565b505b505050565b7f7e644d79422f17c01e4894b5f4f588d331ebfa28653d42ae832dc59e38c9798f620000b562000156565b604080516001600160a01b03928316815291841660208301520160405180910390a1620000e2816200018f565b50565b620000f08162000244565b6040516001600160a01b038216907fbc7cd75a20ee27fd9adebab32041f755214dbc6bffa90cc0225b39da2e5c2d3b90600090a250565b60606200014f838360405180606001604052806027815260200162000e8b60279139620002f8565b9392505050565b60006200018060008051602062000e6b83398151915260001b6200037760201b620001951760201c565b546001600160a01b0316919050565b6001600160a01b038116620001fa5760405162461bcd60e51b815260206004820152602660248201527f455243313936373a206e65772061646d696e20697320746865207a65726f206160448201526564647265737360d01b60648201526084015b60405180910390fd5b806200022360008051602062000e6b83398151915260001b6200037760201b620001951760201c565b80546001600160a01b0319166001600160a01b039290921691909117905550565b6200025a816200037a60201b620001981760201c565b620002be5760405162461bcd60e51b815260206004820152602d60248201527f455243313936373a206e657720696d706c656d656e746174696f6e206973206e60448201526c1bdd08184818dbdb9d1c9858dd609a1b6064820152608401620001f1565b80620002237f360894a13ba1a3210667c828492db98dca3e2076cc3735a920a3ca505d382bbc60001b6200037760201b620001951760201c565b6060600080856001600160a01b03168560405162000317919062000577565b600060405180830381855af49150503d806000811462000354576040519150601f19603f3d011682016040523d82523d6000602084013e62000359565b606091505b5090925090506200036d8683838762000389565b9695505050505050565b90565b6001600160a01b03163b151590565b60608315620003fd578251600003620003f557620003a7856200037a565b620003f55760405162461bcd60e51b815260206004820152601d60248201527f416464726573733a2063616c6c20746f206e6f6e2d636f6e74726163740000006044820152606401620001f1565b508162000409565b62000409838362000411565b949350505050565b815115620004225781518083602001fd5b8060405162461bcd60e51b8152600401620001f1919062000595565b80516001600160a01b03811681146200045657600080fd5b919050565b634e487b7160e01b600052604160045260246000fd5b60005b838110156200048e57818101518382015260200162000474565b50506000910152565b600080600060608486031215620004ad57600080fd5b620004b8846200043e565b9250620004c8602085016200043e565b60408501519092506001600160401b0380821115620004e657600080fd5b818601915086601f830112620004fb57600080fd5b8151818111156200051057620005106200045b565b604051601f8201601f19908116603f011681019083821181831017156200053b576200053b6200045b565b816040528281528960208487010111156200055557600080fd5b6200056883602083016020880162000471565b80955050505050509250925092565b600082516200058b81846020870162000471565b9190910192915050565b6020815260008251806020840152620005b681604085016020870162000471565b601f01601f19169190910160400192915050565b61089180620005da6000396000f3fe60806040523661001357610011610017565b005b6100115b61001f6101a7565b6001600160a01b0316330361015f5760606001600160e01b0319600035166364d3180d60e11b810161005a576100536101c8565b9150610157565b63587086bd60e11b6001600160e01b031982160161007a5761005361021f565b63070d7c6960e41b6001600160e01b031982160161009a57610053610265565b621eb96f60e61b6001600160e01b03198216016100b957610053610296565b63a39f25e560e01b6001600160e01b03198216016100d9576100536102d6565b60405162461bcd60e51b815260206004820152604260248201527f5472616e73706172656e745570677261646561626c6550726f78793a2061646d60448201527f696e2063616e6e6f742066616c6c6261636b20746f2070726f78792074617267606482015261195d60f21b608482015260a4015b60405180910390fd5b815160208301f35b6101676102ea565b565b606061018e8383604051806060016040528060278152602001610835602791396102fa565b9392505050565b90565b6001600160a01b03163b151590565b60006000805160206107f58339815191525b546001600160a01b0316919050565b60606101d2610372565b60006101e13660048184610649565b8101906101ee919061068f565b905061020b8160405180602001604052806000815250600061037d565b505060408051602081019091526000815290565b60606000806102313660048184610649565b81019061023e91906106c0565b9150915061024e8282600161037d565b604051806020016040528060008152509250505090565b606061026f610372565b600061027e3660048184610649565b81019061028b919061068f565b905061020b816103a9565b60606102a0610372565b60006102aa6101a7565b604080516001600160a01b03831660208201529192500160405160208183030381529060405291505090565b60606102e0610372565b60006102aa610400565b6101676102f5610400565b61040f565b6060600080856001600160a01b03168560405161031791906107a5565b600060405180830381855af49150503d8060008114610352576040519150601f19603f3d011682016040523d82523d6000602084013e610357565b606091505b509150915061036886838387610433565b9695505050505050565b341561016757600080fd5b610386836104b2565b6000825111806103935750805b156103a4576103a28383610169565b505b505050565b7f7e644d79422f17c01e4894b5f4f588d331ebfa28653d42ae832dc59e38c9798f6103d26101a7565b604080516001600160a01b03928316815291841660208301520160405180910390a16103fd816104f2565b50565b600061040a610589565b905090565b3660008037600080366000845af43d6000803e80801561042e573d6000f35b3d6000fd5b606083156104a05782516000036104995761044d85610198565b6104995760405162461bcd60e51b815260206004820152601d60248201527f416464726573733a2063616c6c20746f206e6f6e2d636f6e7472616374000000604482015260640161014e565b50816104aa565b6104aa838361059f565b949350505050565b6104bb816105c9565b6040516001600160a01b038216907fbc7cd75a20ee27fd9adebab32041f755214dbc6bffa90cc0225b39da2e5c2d3b90600090a250565b6001600160a01b0381166105575760405162461bcd60e51b815260206004820152602660248201527f455243313936373a206e65772061646d696e20697320746865207a65726f206160448201526564647265737360d01b606482015260840161014e565b806000805160206107f58339815191525b80546001600160a01b0319166001600160a01b039290921691909117905550565b60006000805160206108158339815191526101b9565b8151156105af5781518083602001fd5b8060405162461bcd60e51b815260040161014e91906107c1565b6105d281610198565b6106345760405162461bcd60e51b815260206004820152602d60248201527f455243313936373a206e657720696d706c656d656e746174696f6e206973206e60448201526c1bdd08184818dbdb9d1c9858dd609a1b606482015260840161014e565b80600080516020610815833981519152610568565b6000808585111561065957600080fd5b8386111561066657600080fd5b5050820193919092039150565b80356001600160a01b038116811461068a57600080fd5b919050565b6000602082840312156106a157600080fd5b61018e82610673565b634e487b7160e01b600052604160045260246000fd5b600080604083850312156106d357600080fd5b6106dc83610673565b915060208301356001600160401b03808211156106f857600080fd5b818501915085601f83011261070c57600080fd5b81358181111561071e5761071e6106aa565b604051601f8201601f19908116603f01168101908382118183101715610746576107466106aa565b8160405282815288602084870101111561075f57600080fd5b8260208601602083013760006020848301015280955050505050509250929050565b60005b8381101561079c578181015183820152602001610784565b50506000910152565b600082516107b7818460208701610781565b9190910192915050565b60208152600082518060208401526107e0816040850160208701610781565b601f01601f1916919091016040019291505056feb53127684a568b3173ae13b9f8a6016e243e63b6e8ee1178d6a717850b5d6103360894a13ba1a3210667c828492db98dca3e2076cc3735a920a3ca505d382bbc416464726573733a206c6f772d6c6576656c2064656c65676174652063616c6c206661696c6564a2646970667358221220620b02c16977e4bc46dc8e126676654738ae0c6dcb3ade55e68906b6b7d90c2164736f6c63430008120033b53127684a568b3173ae13b9f8a6016e243e63b6e8ee1178d6a717850b5d6103416464726573733a206c6f772d6c6576656c2064656c65676174652063616c6c206661696c6564cf9d4a2ff924c5f3553e3c8485e6bc24fde822593d2c3d78c8fabaada123f8f6a264697066735822122011a56dfc7086ad42fa974c8a5fbb6b69e7ba7aa5e1ff8b91bc55fa40216264e164736f6c63430008120033",
  "linkReferences": {},
  "deployedLinkReferences": {}
}