{
  "_format": "hh-sol-artifact-1",
  "contractName": "MultiSigDAO",
  "sourceName": "contracts/dao/MultisigDAO.sol",
  "abi": [
    {
      "inputs": [
        {
          "internalType": "string",
          "name": "message",
          "type": "string"
        }
      ],
      "name": "InvalidInput",
      "type": "error"
    },
    {
      "anonymous": false,
      "inputs": [
        {
          "indexed": false,
          "internalType": "uint8",
          "name": "version",
          "type": "uint8"
        }
      ],
      "name": "Initialized",
      "type": "event"
    },
    {
      "anonymous": false,
      "inputs": [
        {
          "indexed": true,
          "internalType": "address",
          "name": "previousOwner",
          "type": "address"
        },
        {
          "indexed": true,
          "internalType": "address",
          "name": "newOwner",
          "type": "address"
        }
      ],
      "name": "OwnershipTransferred",
      "type": "event"
    },
    {
      "anonymous": false,
      "inputs": [
        {
          "indexed": false,
          "internalType": "bytes32",
          "name": "txnHash",
          "type": "bytes32"
        },
        {
          "components": [
            {
              "internalType": "address",
              "name": "to",
              "type": "address"
            },
            {
              "internalType": "uint256",
              "name": "value",
              "type": "uint256"
            },
            {
              "internalType": "bytes",
              "name": "data",
              "type": "bytes"
            },
            {
              "internalType": "enum Enum.Operation",
              "name": "operation",
              "type": "uint8"
            },
            {
              "internalType": "uint256",
              "name": "nonce",
              "type": "uint256"
            }
          ],
          "indexed": false,
          "internalType": "struct MultiSigDAO.TransactionInfo",
          "name": "info",
          "type": "tuple"
        }
      ],
      "name": "TransactionCreated",
      "type": "event"
    },
    {
      "inputs": [
        {
          "internalType": "address",
          "name": "admin",
          "type": "address"
        },
        {
          "internalType": "string",
          "name": "name",
          "type": "string"
        },
        {
          "internalType": "string",
          "name": "logoUrl",
          "type": "string"
        }
      ],
      "name": "__BaseDAO_init",
      "outputs": [],
      "stateMutability": "nonpayable",
      "type": "function"
    },
    {
      "inputs": [
        {
          "internalType": "string",
          "name": "_key",
          "type": "string"
        },
        {
          "internalType": "string",
          "name": "_value",
          "type": "string"
        }
      ],
      "name": "addWebLink",
      "outputs": [],
      "stateMutability": "nonpayable",
      "type": "function"
    },
    {
      "inputs": [],
      "name": "getDaoDetail",
      "outputs": [
        {
          "internalType": "string",
          "name": "name",
          "type": "string"
        },
        {
          "internalType": "string",
          "name": "logoUrl",
          "type": "string"
        },
        {
          "components": [
            {
              "internalType": "string",
              "name": "key",
              "type": "string"
            },
            {
              "internalType": "string",
              "name": "value",
              "type": "string"
            }
          ],
          "internalType": "struct BaseDAO.Social[]",
          "name": "webLinks",
          "type": "tuple[]"
        }
      ],
      "stateMutability": "view",
      "type": "function"
    },
    {
      "inputs": [],
      "name": "getHederaGnosisSafeContractAddress",
      "outputs": [
        {
          "internalType": "address",
          "name": "",
          "type": "address"
        }
      ],
      "stateMutability": "view",
      "type": "function"
    },
    {
      "inputs": [
        {
          "internalType": "bytes32",
          "name": "_txnHash",
          "type": "bytes32"
        }
      ],
      "name": "getTransactionInfo",
      "outputs": [
        {
          "components": [
            {
              "internalType": "address",
              "name": "to",
              "type": "address"
            },
            {
              "internalType": "uint256",
              "name": "value",
              "type": "uint256"
            },
            {
              "internalType": "bytes",
              "name": "data",
              "type": "bytes"
            },
            {
              "internalType": "enum Enum.Operation",
              "name": "operation",
              "type": "uint8"
            },
            {
              "internalType": "uint256",
              "name": "nonce",
              "type": "uint256"
            }
          ],
          "internalType": "struct MultiSigDAO.TransactionInfo",
          "name": "",
          "type": "tuple"
        }
      ],
      "stateMutability": "view",
      "type": "function"
    },
    {
      "inputs": [],
      "name": "getWebLinks",
      "outputs": [
        {
          "components": [
            {
              "internalType": "string",
              "name": "key",
              "type": "string"
            },
            {
              "internalType": "string",
              "name": "value",
              "type": "string"
            }
          ],
          "internalType": "struct BaseDAO.Social[]",
          "name": "",
          "type": "tuple[]"
        }
      ],
      "stateMutability": "view",
      "type": "function"
    },
    {
      "inputs": [
        {
          "internalType": "address",
          "name": "_admin",
          "type": "address"
        },
        {
          "internalType": "string",
          "name": "_name",
          "type": "string"
        },
        {
          "internalType": "string",
          "name": "_logoUrl",
          "type": "string"
        },
        {
          "internalType": "contract HederaGnosisSafe",
          "name": "_hederaGnosisSafe",
          "type": "address"
        },
        {
          "internalType": "contract IBaseHTS",
          "name": "_iBaseHTS",
          "type": "address"
        }
      ],
      "name": "initialize",
      "outputs": [],
      "stateMutability": "nonpayable",
      "type": "function"
    },
    {
      "inputs": [],
      "name": "owner",
      "outputs": [
        {
          "internalType": "address",
          "name": "",
          "type": "address"
        }
      ],
      "stateMutability": "view",
      "type": "function"
    },
    {
      "inputs": [
        {
          "internalType": "address",
          "name": "_to",
          "type": "address"
        },
        {
          "internalType": "bytes",
          "name": "_data",
          "type": "bytes"
        },
        {
          "internalType": "enum Enum.Operation",
          "name": "_operation",
          "type": "uint8"
        }
      ],
      "name": "proposeTransaction",
      "outputs": [
        {
          "internalType": "bytes32",
          "name": "",
          "type": "bytes32"
        }
      ],
      "stateMutability": "payable",
      "type": "function"
    },
    {
      "inputs": [
        {
          "internalType": "address",
          "name": "_token",
          "type": "address"
        },
        {
          "internalType": "address",
          "name": "_receiver",
          "type": "address"
        },
        {
          "internalType": "uint256",
          "name": "_amount",
          "type": "uint256"
        }
      ],
      "name": "proposeTransferTransaction",
      "outputs": [
        {
          "internalType": "bytes32",
          "name": "",
          "type": "bytes32"
        }
      ],
      "stateMutability": "payable",
      "type": "function"
    },
    {
      "inputs": [],
      "name": "renounceOwnership",
      "outputs": [],
      "stateMutability": "nonpayable",
      "type": "function"
    },
    {
      "inputs": [
        {
          "internalType": "bytes32",
          "name": "_txnHash",
          "type": "bytes32"
        }
      ],
      "name": "state",
      "outputs": [
        {
          "internalType": "enum MultiSigDAO.TransactionState",
          "name": "",
          "type": "uint8"
        }
      ],
      "stateMutability": "view",
      "type": "function"
    },
    {
      "inputs": [
        {
          "internalType": "address",
          "name": "newOwner",
          "type": "address"
        }
      ],
      "name": "transferOwnership",
      "outputs": [],
      "stateMutability": "nonpayable",
      "type": "function"
    }
  ],
  "bytecode": "0x608060405234801561001057600080fd5b50611ae7806100206000396000f3fe6080604052600436106100a25760003560e01c806337915d7d146100a757806349e6b62c146100c957806361d585da146100ff5780636b718d441461012c5780636cf1dbed1461014d578063715018a61461016d57806380896acc146101825780638da5cb5b146101b45780639a20e1fe146101c9578063a0f48b55146101e9578063acef78bc1461020b578063bdf355b11461022f578063f2fde38b14610242575b600080fd5b3480156100b357600080fd5b506100c76100c2366004611252565b610262565b005b3480156100d557600080fd5b506100e96100e43660046112d4565b610405565b6040516100f6919061135d565b60405180910390f35b34801561010b57600080fd5b5061011f61011a3660046112d4565b61053e565b6040516100f691906113be565b61013f61013a366004611402565b610770565b6040519081526020016100f6565b34801561015957600080fd5b506100c76101683660046114d5565b61089f565b34801561017957600080fd5b506100c76109ec565b34801561018e57600080fd5b50606a546001600160a01b03165b6040516001600160a01b0390911681526020016100f6565b3480156101c057600080fd5b5061019c610a00565b3480156101d557600080fd5b506100c76101e436600461157d565b610a0f565b3480156101f557600080fd5b506101fe610b6b565b6040516100f69190611663565b34801561021757600080fd5b50610220610cee565b6040516100f69392919061167d565b61013f61023d3660046116b6565b610f99565b34801561024e57600080fd5b506100c761025d3660046116f7565b611082565b600054610100900460ff166102d25760405162461bcd60e51b815260206004820152602b60248201527f496e697469616c697a61626c653a20636f6e7472616374206973206e6f74206960448201526a6e697469616c697a696e6760a81b60648201526084015b60405180910390fd5b600083900361031d5760405163d647364f60e01b81526020600482015260166024820152754261736544414f3a206e616d6520697320656d70747960501b60448201526064016102c9565b60008190036103675760405163d647364f60e01b81526020600482015260156024820152744261736544414f3a2075726c20697320656d70747960581b60448201526064016102c9565b6001600160a01b0385166103be5760405163d647364f60e01b815260206004820152601e60248201527f4261736544414f3a2061646d696e2061646472657373206973207a65726f000060448201526064016102c9565b606580546001600160a01b0319166001600160a01b03871617905560666103e68486836117ac565b5060686103f48284836117ac565b506103fe856110fb565b5050505050565b61040d6111ac565b6000828152606b60209081526040808320815160a08101835281546001600160a01b03168152600182015493810193909352600281018054919284019161045390611714565b80601f016020809104026020016040519081016040528092919081815260200182805461047f90611714565b80156104cc5780601f106104a1576101008083540402835291602001916104cc565b820191906000526020600020905b8154815290600101906020018083116104af57829003601f168201915b5050509183525050600382015460209091019060ff1660018111156104f3576104f3611333565b600181111561050457610504611333565b8152602001600482015481525050905080608001516000036105385760405162461bcd60e51b81526004016102c990611865565b92915050565b6000818152606b60209081526040808320815160a08101835281546001600160a01b031681526001820154938101939093526002810180548594938401919061058690611714565b80601f01602080910402602001604051908101604052809291908181526020018280546105b290611714565b80156105ff5780601f106105d4576101008083540402835291602001916105ff565b820191906000526020600020905b8154815290600101906020018083116105e257829003601f168201915b5050509183525050600382015460209091019060ff16600181111561062657610626611333565b600181111561063757610637611333565b81526020016004820154815250509050806080015160000361066b5760405162461bcd60e51b81526004016102c990611865565b606a546040516301244d4760e11b8152600481018590526001600160a01b03909116906302489a8e90602401602060405180830381865afa1580156106b4573d6000803e3d6000fd5b505050506040513d601f19601f820116820180604052508101906106d89190611898565b156106e65750600292915050565b606a5460405163a7f173ab60e01b8152600481018590526001600160a01b039091169063a7f173ab90602401602060405180830381865afa15801561072f573d6000803e3d6000fd5b505050506040513d601f19601f820116820180604052508101906107539190611898565b156107615750600192915050565b50600092915050565b50919050565b606a54604051633c75d0af60e11b8152600091829182916001600160a01b0316906378eba15e906107ab90899034908a908a906004016118ba565b60408051808303816000875af11580156107c9573d6000803e3d6000fd5b505050506040513d601f19601f820116820180604052508101906107ed91906118f9565b6000828152606b6020526040902080546001600160a01b0319166001600160a01b038a1617815534600182015591935091506002810161082d878261191d565b5060038101805486919060ff19166001838181111561084e5761084e611333565b0217905550600481018290556040517fe61f937e2dbb74c6b85a98d7a547e6461c24bec3d761d15b955d43a3f7b2a4f09061088c90859084906119d6565b60405180910390a1509095945050505050565b600054610100900460ff16158080156108bf5750600054600160ff909116105b806108d95750303b1580156108d9575060005460ff166001145b61093c5760405162461bcd60e51b815260206004820152602e60248201527f496e697469616c697a61626c653a20636f6e747261637420697320616c72656160448201526d191e481a5b9a5d1a585b1a5e995960921b60648201526084016102c9565b6000805460ff19166001179055801561095f576000805461ff0019166101001790555b606980546001600160a01b038085166001600160a01b031992831617909255606a80549286169290911691909117905561099c8888888888610262565b80156109e2576000805461ff0019169055604051600181527f7f26b83ff96e1f2b6a682f133852f6798a09c465da95921460cefb38474024989060200160405180910390a15b5050505050505050565b6109f461114d565b6109fe60006110fb565b565b6033546001600160a01b031690565b610a1761114d565b82610a625760405162461bcd60e51b815260206004820152601b60248201527a10985cd9511053ce881a5b9d985b1a59081ad95e481c185cdcd959602a1b60448201526064016102c9565b80610aaf5760405162461bcd60e51b815260206004820152601d60248201527f4261736544414f3a20696e76616c69642076616c75652070617373656400000060448201526064016102c9565b6040805160606020601f8701819004028201810183529181018581526067928291908890889081908501838280828437600092019190915250505090825250604080516020601f8701819004810282018101909252858152918101919086908690819084018382808284376000920182905250939094525050835460018101855593815260209020825192936002020191829150610b4d908261191d565b5060208201516001820190610b62908261191d565b50505050505050565b60606067805480602002602001604051908101604052809291908181526020016000905b82821015610ce55783829060005260206000209060020201604051806040016040529081600082018054610bc290611714565b80601f0160208091040260200160405190810160405280929190818152602001828054610bee90611714565b8015610c3b5780601f10610c1057610100808354040283529160200191610c3b565b820191906000526020600020905b815481529060010190602001808311610c1e57829003601f168201915b50505050508152602001600182018054610c5490611714565b80601f0160208091040260200160405190810160405280929190818152602001828054610c8090611714565b8015610ccd5780601f10610ca257610100808354040283529160200191610ccd565b820191906000526020600020905b815481529060010190602001808311610cb057829003601f168201915b50505050508152505081526020019060010190610b8f565b50505050905090565b6060806060606660686067828054610d0590611714565b80601f0160208091040260200160405190810160405280929190818152602001828054610d3190611714565b8015610d7e5780601f10610d5357610100808354040283529160200191610d7e565b820191906000526020600020905b815481529060010190602001808311610d6157829003601f168201915b50505050509250818054610d9190611714565b80601f0160208091040260200160405190810160405280929190818152602001828054610dbd90611714565b8015610e0a5780601f10610ddf57610100808354040283529160200191610e0a565b820191906000526020600020905b815481529060010190602001808311610ded57829003601f168201915b5050505050915080805480602002602001604051908101604052809291908181526020016000905b82821015610f885783829060005260206000209060020201604051806040016040529081600082018054610e6590611714565b80601f0160208091040260200160405190810160405280929190818152602001828054610e9190611714565b8015610ede5780601f10610eb357610100808354040283529160200191610ede565b820191906000526020600020905b815481529060010190602001808311610ec157829003601f168201915b50505050508152602001600182018054610ef790611714565b80601f0160208091040260200160405190810160405280929190818152602001828054610f2390611714565b8015610f705780601f10610f4557610100808354040283529160200191610f70565b820191906000526020600020905b815481529060010190602001808311610f5357829003601f168201915b50505050508152505081526020019060010190610e32565b505050509050925092509250909192565b606a5460695460405163658af36b60e01b81526001600160a01b039182166004820152858216602482015260448101849052336064820152600092919091169063658af36b90608401600060405180830381600087803b158015610ffc57600080fd5b505af1158015611010573d6000803e3d6000fd5b5050604080516001600160a01b038881166024830152878116604483015260648083018890528351808403909101815260849092019092526020810180516001600160e01b0316635d9a6dad60e11b179052606a549093506000925061107891168383610770565b9695505050505050565b61108a61114d565b6001600160a01b0381166110ef5760405162461bcd60e51b815260206004820152602660248201527f4f776e61626c653a206e6577206f776e657220697320746865207a65726f206160448201526564647265737360d01b60648201526084016102c9565b6110f8816110fb565b50565b603380546001600160a01b038381166001600160a01b0319831681179093556040519116919082907f8be0079c531659141344cd1fd0a4f28419497f9722a3daafe3b4186f6b6457e090600090a35050565b33611156610a00565b6001600160a01b0316146109fe5760405162461bcd60e51b815260206004820181905260248201527f4f776e61626c653a2063616c6c6572206973206e6f7420746865206f776e657260448201526064016102c9565b6040518060a0016040528060006001600160a01b031681526020016000815260200160608152602001600060018111156111e8576111e8611333565b8152602001600081525090565b6001600160a01b03811681146110f857600080fd5b60008083601f84011261121c57600080fd5b5081356001600160401b0381111561123357600080fd5b60208301915083602082850101111561124b57600080fd5b9250929050565b60008060008060006060868803121561126a57600080fd5b8535611275816111f5565b945060208601356001600160401b038082111561129157600080fd5b61129d89838a0161120a565b909650945060408801359150808211156112b657600080fd5b506112c38882890161120a565b969995985093965092949392505050565b6000602082840312156112e657600080fd5b5035919050565b6000815180845260005b81811015611313576020818501810151868301820152016112f7565b506000602082860101526020601f19601f83011685010191505092915050565b634e487b7160e01b600052602160045260246000fd5b6002811061135957611359611333565b9052565b6020815260018060a01b038251166020820152602082015160408201526000604083015160a0606084015261139560c08401826112ed565b905060608401516113a96080850182611349565b50608084015160a08401528091505092915050565b60208101600383106113d2576113d2611333565b91905290565b634e487b7160e01b600052604160045260246000fd5b8035600281106113fd57600080fd5b919050565b60008060006060848603121561141757600080fd5b8335611422816111f5565b925060208401356001600160401b038082111561143e57600080fd5b818601915086601f83011261145257600080fd5b813581811115611464576114646113d8565b604051601f8201601f19908116603f0116810190838211818310171561148c5761148c6113d8565b816040528281528960208487010111156114a557600080fd5b8260208601602083013760006020848301015280965050505050506114cc604085016113ee565b90509250925092565b600080600080600080600060a0888a0312156114f057600080fd5b87356114fb816111f5565b965060208801356001600160401b038082111561151757600080fd5b6115238b838c0161120a565b909850965060408a013591508082111561153c57600080fd5b506115498a828b0161120a565b909550935050606088013561155d816111f5565b9150608088013561156d816111f5565b8091505092959891949750929550565b6000806000806040858703121561159357600080fd5b84356001600160401b03808211156115aa57600080fd5b6115b68883890161120a565b909650945060208701359150808211156115cf57600080fd5b506115dc8782880161120a565b95989497509550505050565b600081518084526020808501808196508360051b8101915082860160005b85811015611656578284038952815160408151818752611628828801826112ed565b9150508682015191508581038787015261164281836112ed565b9a87019a9550505090840190600101611606565b5091979650505050505050565b60208152600061167660208301846115e8565b9392505050565b60608152600061169060608301866112ed565b82810360208401526116a281866112ed565b9050828103604084015261107881856115e8565b6000806000606084860312156116cb57600080fd5b83356116d6816111f5565b925060208401356116e6816111f5565b929592945050506040919091013590565b60006020828403121561170957600080fd5b8135611676816111f5565b600181811c9082168061172857607f821691505b60208210810361076a57634e487b7160e01b600052602260045260246000fd5b601f82111561179257600081815260208120601f850160051c8101602086101561176f5750805b601f850160051c820191505b8181101561178e5782815560010161177b565b5050505b505050565b600019600383901b1c191660019190911b1790565b6001600160401b038311156117c3576117c36113d8565b6117d7836117d18354611714565b83611748565b6000601f84116001811461180557600085156117f35750838201355b6117fd8682611797565b8455506103fe565b600083815260209020601f19861690835b828110156118365786850135825560209485019460019092019101611816565b50868210156118535760001960f88860031b161c19848701351681555b505060018560011b0183555050505050565b602080825260199082015278135d5b1d1a54da59d11053ce881b9bc81d1e1b88195e1a5cdd603a1b604082015260600190565b6000602082840312156118aa57600080fd5b8151801515811461167657600080fd5b60018060a01b03851681528360208201526080604082015260006118e160808301856112ed565b90506118f06060830184611349565b95945050505050565b6000806040838503121561190c57600080fd5b505080516020909101519092909150565b81516001600160401b03811115611936576119366113d8565b61194a816119448454611714565b84611748565b602080601f83116001811461197957600084156119675750858301515b6119718582611797565b86555061178e565b600085815260208120601f198616915b828110156119a857888601518255948401946001909101908401611989565b50858210156119c65787850151600019600388901b60f8161c191681555b5050505050600190811b01905550565b8281526000602060408184015260018060a01b03845416604084015260018085015460608501526002850160a0608086015260008154611a1581611714565b8060e089015261010085831660008114611a365760018114611a5057611a7e565b60ff1984168a83015282151560051b8a0182019450611a7e565b856000528760002060005b84811015611a765781548c8201850152908801908901611a5b565b8b0183019550505b50505050600387015460ff169350611a9960a0870185611349565b600487015460c087015280945050505050939250505056fea2646970667358221220056543b996cb97adbee30aa9f9658fbae0405677bbb6587b97eda59f422114f364736f6c63430008110033",
  "linkReferences": {},
  "deployedLinkReferences": {}
}