{
  "_format": "hh-sol-artifact-1",
  "contractName": "MultiSigDAO",
  "sourceName": "contracts/dao/MultisigDAO.sol",
  "abi": [
    {
      "inputs": [
        {
          "internalType": "string",
          "name": "message",
          "type": "string"
        }
      ],
      "name": "InvalidInput",
      "type": "error"
    },
    {
      "anonymous": false,
      "inputs": [
        {
          "components": [
            {
              "internalType": "string",
              "name": "name",
              "type": "string"
            },
            {
              "internalType": "address",
              "name": "admin",
              "type": "address"
            },
            {
              "internalType": "string",
              "name": "logoUrl",
              "type": "string"
            },
            {
              "internalType": "string",
              "name": "description",
              "type": "string"
            },
            {
              "internalType": "string[]",
              "name": "webLinks",
              "type": "string[]"
            }
          ],
          "indexed": false,
          "internalType": "struct BaseDAO.DAOInfo",
          "name": "daoInfo",
          "type": "tuple"
        }
      ],
      "name": "DAOInfoUpdated",
      "type": "event"
    },
    {
      "anonymous": false,
      "inputs": [
        {
          "indexed": false,
          "internalType": "uint8",
          "name": "version",
          "type": "uint8"
        }
      ],
      "name": "Initialized",
      "type": "event"
    },
    {
      "anonymous": false,
      "inputs": [
        {
          "indexed": true,
          "internalType": "address",
          "name": "previousOwner",
          "type": "address"
        },
        {
          "indexed": true,
          "internalType": "address",
          "name": "newOwner",
          "type": "address"
        }
      ],
      "name": "OwnershipTransferred",
      "type": "event"
    },
    {
      "anonymous": false,
      "inputs": [
        {
          "indexed": false,
          "internalType": "bytes32",
          "name": "txnHash",
          "type": "bytes32"
        },
        {
          "components": [
            {
              "internalType": "address",
              "name": "to",
              "type": "address"
            },
            {
              "internalType": "uint256",
              "name": "value",
              "type": "uint256"
            },
            {
              "internalType": "bytes",
              "name": "data",
              "type": "bytes"
            },
            {
              "internalType": "enum Enum.Operation",
              "name": "operation",
              "type": "uint8"
            },
            {
              "internalType": "uint256",
              "name": "nonce",
              "type": "uint256"
            },
            {
              "internalType": "uint256",
              "name": "transactionType",
              "type": "uint256"
            },
            {
              "internalType": "string",
              "name": "title",
              "type": "string"
            },
            {
              "internalType": "string",
              "name": "description",
              "type": "string"
            },
            {
              "internalType": "string",
              "name": "linkToDiscussion",
              "type": "string"
            },
            {
              "internalType": "address",
              "name": "creator",
              "type": "address"
            }
          ],
          "indexed": false,
          "internalType": "struct MultiSigDAO.TransactionInfo",
          "name": "info",
          "type": "tuple"
        }
      ],
      "name": "TransactionCreated",
      "type": "event"
    },
    {
      "inputs": [
        {
          "internalType": "address",
          "name": "_admin",
          "type": "address"
        },
        {
          "internalType": "string",
          "name": "_name",
          "type": "string"
        },
        {
          "internalType": "string",
          "name": "_logoUrl",
          "type": "string"
        },
        {
          "internalType": "string",
          "name": "_description",
          "type": "string"
        },
        {
          "internalType": "string[]",
          "name": "_webLinks",
          "type": "string[]"
        }
      ],
      "name": "__BaseDAO_init",
      "outputs": [],
      "stateMutability": "nonpayable",
      "type": "function"
    },
    {
      "inputs": [
        {
          "internalType": "bytes32",
          "name": "_txnHash",
          "type": "bytes32"
        }
      ],
      "name": "getApprovalCounts",
      "outputs": [
        {
          "internalType": "uint256",
          "name": "",
          "type": "uint256"
        }
      ],
      "stateMutability": "view",
      "type": "function"
    },
    {
      "inputs": [],
      "name": "getDaoInfo",
      "outputs": [
        {
          "components": [
            {
              "internalType": "string",
              "name": "name",
              "type": "string"
            },
            {
              "internalType": "address",
              "name": "admin",
              "type": "address"
            },
            {
              "internalType": "string",
              "name": "logoUrl",
              "type": "string"
            },
            {
              "internalType": "string",
              "name": "description",
              "type": "string"
            },
            {
              "internalType": "string[]",
              "name": "webLinks",
              "type": "string[]"
            }
          ],
          "internalType": "struct BaseDAO.DAOInfo",
          "name": "",
          "type": "tuple"
        }
      ],
      "stateMutability": "view",
      "type": "function"
    },
    {
      "inputs": [],
      "name": "getHederaGnosisSafeContractAddress",
      "outputs": [
        {
          "internalType": "address",
          "name": "",
          "type": "address"
        }
      ],
      "stateMutability": "view",
      "type": "function"
    },
    {
      "inputs": [],
      "name": "getHederaServiceVersion",
      "outputs": [
        {
          "internalType": "contract IHederaService",
          "name": "",
          "type": "address"
        }
      ],
      "stateMutability": "view",
      "type": "function"
    },
    {
      "inputs": [
        {
          "internalType": "bytes32",
          "name": "_txnHash",
          "type": "bytes32"
        }
      ],
      "name": "getTransactionInfo",
      "outputs": [
        {
          "components": [
            {
              "internalType": "address",
              "name": "to",
              "type": "address"
            },
            {
              "internalType": "uint256",
              "name": "value",
              "type": "uint256"
            },
            {
              "internalType": "bytes",
              "name": "data",
              "type": "bytes"
            },
            {
              "internalType": "enum Enum.Operation",
              "name": "operation",
              "type": "uint8"
            },
            {
              "internalType": "uint256",
              "name": "nonce",
              "type": "uint256"
            },
            {
              "internalType": "uint256",
              "name": "transactionType",
              "type": "uint256"
            },
            {
              "internalType": "string",
              "name": "title",
              "type": "string"
            },
            {
              "internalType": "string",
              "name": "description",
              "type": "string"
            },
            {
              "internalType": "string",
              "name": "linkToDiscussion",
              "type": "string"
            },
            {
              "internalType": "address",
              "name": "creator",
              "type": "address"
            }
          ],
          "internalType": "struct MultiSigDAO.TransactionInfo",
          "name": "",
          "type": "tuple"
        }
      ],
      "stateMutability": "view",
      "type": "function"
    },
    {
      "inputs": [
        {
          "internalType": "address",
          "name": "_admin",
          "type": "address"
        },
        {
          "internalType": "string",
          "name": "_name",
          "type": "string"
        },
        {
          "internalType": "string",
          "name": "_logoUrl",
          "type": "string"
        },
        {
          "internalType": "string",
          "name": "_description",
          "type": "string"
        },
        {
          "internalType": "string[]",
          "name": "_webLinks",
          "type": "string[]"
        },
        {
          "internalType": "contract HederaGnosisSafe",
          "name": "_hederaGnosisSafe",
          "type": "address"
        },
        {
          "internalType": "contract IHederaService",
          "name": "_hederaService",
          "type": "address"
        }
      ],
      "name": "initialize",
      "outputs": [],
      "stateMutability": "nonpayable",
      "type": "function"
    },
    {
      "inputs": [],
      "name": "owner",
      "outputs": [
        {
          "internalType": "address",
          "name": "",
          "type": "address"
        }
      ],
      "stateMutability": "view",
      "type": "function"
    },
    {
      "inputs": [
        {
          "internalType": "address",
          "name": "_to",
          "type": "address"
        },
        {
          "internalType": "bytes",
          "name": "_data",
          "type": "bytes"
        },
        {
          "internalType": "uint256",
          "name": "_type",
          "type": "uint256"
        },
        {
          "internalType": "string",
          "name": "title",
          "type": "string"
        },
        {
          "internalType": "string",
          "name": "desc",
          "type": "string"
        },
        {
          "internalType": "string",
          "name": "linkToDiscussion",
          "type": "string"
        }
      ],
      "name": "proposeTransaction",
      "outputs": [
        {
          "internalType": "bytes32",
          "name": "",
          "type": "bytes32"
        }
      ],
      "stateMutability": "payable",
      "type": "function"
    },
    {
      "inputs": [
        {
          "internalType": "address",
          "name": "_token",
          "type": "address"
        },
        {
          "internalType": "address",
          "name": "_receiver",
          "type": "address"
        },
        {
          "internalType": "uint256",
          "name": "_amount",
          "type": "uint256"
        },
        {
          "internalType": "string",
          "name": "title",
          "type": "string"
        },
        {
          "internalType": "string",
          "name": "desc",
          "type": "string"
        },
        {
          "internalType": "string",
          "name": "linkToDiscussion",
          "type": "string"
        }
      ],
      "name": "proposeTransferTransaction",
      "outputs": [
        {
          "internalType": "bytes32",
          "name": "",
          "type": "bytes32"
        }
      ],
      "stateMutability": "payable",
      "type": "function"
    },
    {
      "inputs": [],
      "name": "renounceOwnership",
      "outputs": [],
      "stateMutability": "nonpayable",
      "type": "function"
    },
    {
      "inputs": [
        {
          "internalType": "bytes32",
          "name": "_txnHash",
          "type": "bytes32"
        }
      ],
      "name": "state",
      "outputs": [
        {
          "internalType": "enum MultiSigDAO.TransactionState",
          "name": "",
          "type": "uint8"
        }
      ],
      "stateMutability": "view",
      "type": "function"
    },
    {
      "inputs": [
        {
          "internalType": "address",
          "name": "newOwner",
          "type": "address"
        }
      ],
      "name": "transferOwnership",
      "outputs": [],
      "stateMutability": "nonpayable",
      "type": "function"
    },
    {
      "inputs": [
        {
          "internalType": "string",
          "name": "_name",
          "type": "string"
        },
        {
          "internalType": "string",
          "name": "_logoUrl",
          "type": "string"
        },
        {
          "internalType": "string",
          "name": "_description",
          "type": "string"
        },
        {
          "internalType": "string[]",
          "name": "_webLinks",
          "type": "string[]"
        }
      ],
      "name": "updateDaoInfo",
      "outputs": [],
      "stateMutability": "nonpayable",
      "type": "function"
    },
    {
      "inputs": [
        {
          "internalType": "contract IHederaService",
          "name": "newHederaService",
          "type": "address"
        }
      ],
      "name": "upgradeHederaService",
      "outputs": [],
      "stateMutability": "nonpayable",
      "type": "function"
    }
  ],
  "bytecode": "0x608060405234801561001057600080fd5b5061236d806100206000396000f3fe6080604052600436106100b85760003560e01c8063193f6b34146100bd57806349e6b62c146100f057806361d585da1461011d57806366c5b9a61461014a5780636dab6f751461016c578063715018a61461019e57806380896acc146101b35780638da5cb5b146101d157806398315868146101e65780639a20024714610206578063b829d3fe14610219578063bdb3691f1461022c578063d26d681f1461024c578063f2fde38b1461026c578063fa382f871461028c575b600080fd5b3480156100c957600080fd5b506100dd6100d8366004611763565b6102ae565b6040519081526020015b60405180910390f35b3480156100fc57600080fd5b5061011061010b366004611763565b610322565b6040516100e791906117f9565b34801561012957600080fd5b5061013d610138366004611763565b610635565b6040516100e791906118d6565b34801561015657600080fd5b5061016a610165366004611a5c565b610a3e565b005b34801561017857600080fd5b50606b546001600160a01b03165b6040516001600160a01b0390911681526020016100e7565b3480156101aa57600080fd5b5061016a610b37565b3480156101bf57600080fd5b50606c546001600160a01b0316610186565b3480156101dd57600080fd5b50610186610b4b565b3480156101f257600080fd5b5061016a610201366004611b1b565b610b5a565b6100dd610214366004611bc7565b610b74565b6100dd610227366004611c7c565b610c60565b34801561023857600080fd5b5061016a610247366004611ce3565b610e89565b34801561025857600080fd5b5061016a610267366004611dc1565b610fe8565b34801561027857600080fd5b5061016a610287366004611dc1565b61107b565b34801561029857600080fd5b506102a16110f4565b6040516100e79190611de5565b606c5460405163064fdacd60e21b8152600481018390526000916001600160a01b03169063193f6b3490602401602060405180830381865afa1580156102f8573d6000803e3d6000fd5b505050506040513d601f19601f8201168201806040525081019061031c9190611eb2565b92915050565b61032a611630565b6000828152606d6020908152604080832081516101408101835281546001600160a01b03168152600182015493810193909352600281018054919284019161037190611ecb565b80601f016020809104026020016040519081016040528092919081815260200182805461039d90611ecb565b80156103ea5780601f106103bf576101008083540402835291602001916103ea565b820191906000526020600020905b8154815290600101906020018083116103cd57829003601f168201915b5050509183525050600382015460209091019060ff166001811115610411576104116117cf565b6001811115610422576104226117cf565b8152602001600482015481526020016005820154815260200160068201805461044a90611ecb565b80601f016020809104026020016040519081016040528092919081815260200182805461047690611ecb565b80156104c35780601f10610498576101008083540402835291602001916104c3565b820191906000526020600020905b8154815290600101906020018083116104a657829003601f168201915b505050505081526020016007820180546104dc90611ecb565b80601f016020809104026020016040519081016040528092919081815260200182805461050890611ecb565b80156105555780601f1061052a57610100808354040283529160200191610555565b820191906000526020600020905b81548152906001019060200180831161053857829003601f168201915b5050505050815260200160088201805461056e90611ecb565b80601f016020809104026020016040519081016040528092919081815260200182805461059a90611ecb565b80156105e75780601f106105bc576101008083540402835291602001916105e7565b820191906000526020600020905b8154815290600101906020018083116105ca57829003601f168201915b5050509183525050600991909101546001600160a01b0316602090910152608081015190915060000361031c5760405162461bcd60e51b815260040161062c90611eff565b60405180910390fd5b6000818152606d6020908152604080832081516101408101835281546001600160a01b031681526001820154938101939093526002810180548594938401919061067e90611ecb565b80601f01602080910402602001604051908101604052809291908181526020018280546106aa90611ecb565b80156106f75780601f106106cc576101008083540402835291602001916106f7565b820191906000526020600020905b8154815290600101906020018083116106da57829003601f168201915b5050509183525050600382015460209091019060ff16600181111561071e5761071e6117cf565b600181111561072f5761072f6117cf565b8152602001600482015481526020016005820154815260200160068201805461075790611ecb565b80601f016020809104026020016040519081016040528092919081815260200182805461078390611ecb565b80156107d05780601f106107a5576101008083540402835291602001916107d0565b820191906000526020600020905b8154815290600101906020018083116107b357829003601f168201915b505050505081526020016007820180546107e990611ecb565b80601f016020809104026020016040519081016040528092919081815260200182805461081590611ecb565b80156108625780601f1061083757610100808354040283529160200191610862565b820191906000526020600020905b81548152906001019060200180831161084557829003601f168201915b5050505050815260200160088201805461087b90611ecb565b80601f01602080910402602001604051908101604052809291908181526020018280546108a790611ecb565b80156108f45780601f106108c9576101008083540402835291602001916108f4565b820191906000526020600020905b8154815290600101906020018083116108d757829003601f168201915b5050509183525050600991909101546001600160a01b031660209091015260808101519091506000036109395760405162461bcd60e51b815260040161062c90611eff565b606c546040516301244d4760e11b8152600481018590526001600160a01b03909116906302489a8e90602401602060405180830381865afa158015610982573d6000803e3d6000fd5b505050506040513d601f19601f820116820180604052508101906109a69190611f32565b156109b45750600292915050565b606c5460405163a7f173ab60e01b8152600481018590526001600160a01b039091169063a7f173ab90602401602060405180830381865afa1580156109fd573d6000803e3d6000fd5b505050506040513d601f19601f82011682018060405250810190610a219190611f32565b15610a2f5750600192915050565b50600092915050565b50919050565b600054610100900460ff16610aa95760405162461bcd60e51b815260206004820152602b60248201527f496e697469616c697a61626c653a20636f6e7472616374206973206e6f74206960448201526a6e697469616c697a696e6760a81b606482015260840161062c565b6001600160a01b038516610b005760405163d647364f60e01b815260206004820152601e60248201527f4261736544414f3a2061646d696e2061646472657373206973207a65726f0000604482015260640161062c565b606680546001600160a01b0319166001600160a01b038716179055610b24856113e7565b610b3084848484611439565b5050505050565b610b3f6115d1565b610b4960006113e7565b565b6033546001600160a01b031690565b610b626115d1565b610b6e84848484611439565b50505050565b606c54606b5460405163658af36b60e01b81526001600160a01b039182166004820152888216602482015260448101879052336064820152600092919091169063658af36b90608401600060405180830381600087803b158015610bd757600080fd5b505af1158015610beb573d6000803e3d6000fd5b5050604080516001600160a01b038b811660248301528a8116604483015260648083018b90528351808403909101815260849092019092526020810180516001600160e01b0316635d9a6dad60e11b179052606c54909350610c54925016826001888888610c60565b98975050505050505050565b60008351600003610cbd5760405162461bcd60e51b815260206004820152602160248201527f4d756c746953696744414f3a207469746c652063616e277420626520626c616e6044820152606b60f81b606482015260840161062c565b8251600003610d0e5760405162461bcd60e51b815260206004820181905260248201527f4d756c746953696744414f3a20646573632063616e277420626520626c616e6b604482015260640161062c565b606c54604051633c75d0af60e11b8152600091829182916001600160a01b0316906378eba15e90610d49908d9034908e908790600401611f54565b60408051808303816000875af1158015610d67573d6000803e3d6000fd5b505050506040513d601f19601f82011682018060405250810190610d8b9190611f93565b6000828152606d6020526040902080546001600160a01b0319166001600160a01b038e16178155346001820155919350915060028101610dcb8b82612006565b5060038101805485919060ff191660018381811115610dec57610dec6117cf565b0217905550600481018290556005810189905560068101610e0d8982612006565b5060078101610e1c8882612006565b5060088101610e2b8782612006565b506009810180546001600160a01b031916331790556040517f122fdaea6d6de1c44d0a3270dde2d651500479c7c64559bd724a31059a2275f090610e72908590849061214e565b60405180910390a150909998505050505050505050565b600054610100900460ff1615808015610ea95750600054600160ff909116105b80610ec35750303b158015610ec3575060005460ff166001145b610f265760405162461bcd60e51b815260206004820152602e60248201527f496e697469616c697a61626c653a20636f6e747261637420697320616c72656160448201526d191e481a5b9a5d1a585b1a5e995960921b606482015260840161062c565b6000805460ff191660011790558015610f49576000805461ff0019166101001790555b606b80546001600160a01b038085166001600160a01b031992831617909255606c805492861692909116919091179055610f868888888888610a3e565b606a80546001600160a01b031916331790558015610fde576000805461ff0019169055604051600181527f7f26b83ff96e1f2b6a682f133852f6798a09c465da95921460cefb38474024989060200160405180910390a15b5050505050505050565b606a546001600160a01b031633146110595760405162461bcd60e51b815260206004820152602e60248201527f526f6c6542617365644163636573733a2063616c6c6572206973206e6f74207460448201526d34329039bcb9ba32b6903ab9b2b960911b606482015260840161062c565b606b80546001600160a01b0319166001600160a01b0392909216919091179055565b6110836115d1565b6001600160a01b0381166110e85760405162461bcd60e51b815260206004820152602660248201527f4f776e61626c653a206e6577206f776e657220697320746865207a65726f206160448201526564647265737360d01b606482015260840161062c565b6110f1816113e7565b50565b61112f6040518060a001604052806060815260200160006001600160a01b031681526020016060815260200160608152602001606081525090565b60656040518060a001604052908160008201805461114c90611ecb565b80601f016020809104026020016040519081016040528092919081815260200182805461117890611ecb565b80156111c55780601f1061119a576101008083540402835291602001916111c5565b820191906000526020600020905b8154815290600101906020018083116111a857829003601f168201915b505050918352505060018201546001600160a01b031660208201526002820180546040909201916111f590611ecb565b80601f016020809104026020016040519081016040528092919081815260200182805461122190611ecb565b801561126e5780601f106112435761010080835404028352916020019161126e565b820191906000526020600020905b81548152906001019060200180831161125157829003601f168201915b5050505050815260200160038201805461128790611ecb565b80601f01602080910402602001604051908101604052809291908181526020018280546112b390611ecb565b80156113005780601f106112d557610100808354040283529160200191611300565b820191906000526020600020905b8154815290600101906020018083116112e357829003601f168201915b5050505050815260200160048201805480602002602001604051908101604052809291908181526020016000905b828210156113da57838290600052602060002001805461134d90611ecb565b80601f016020809104026020016040519081016040528092919081815260200182805461137990611ecb565b80156113c65780601f1061139b576101008083540402835291602001916113c6565b820191906000526020600020905b8154815290600101906020018083116113a957829003601f168201915b50505050508152602001906001019061132e565b5050505081525050905090565b603380546001600160a01b038381166001600160a01b0319831681179093556040519116919082907f8be0079c531659141344cd1fd0a4f28419497f9722a3daafe3b4186f6b6457e090600090a35050565b83516000036114845760405163d647364f60e01b81526020600482015260166024820152754261736544414f3a206e616d6520697320656d70747960501b604482015260640161062c565b60656114908582612006565b5081516000036114e35760405163d647364f60e01b815260206004820152601d60248201527f4261736544414f3a206465736372697074696f6e20697320656d707479000000604482015260640161062c565b60686114ef8382612006565b5060005b81518110156115715781818151811061150e5761150e612233565b60200260200101515160000361155f5760405163d647364f60e01b81526020600482015260156024820152744261736544414f3a20696e76616c6964206c696e6b60581b604482015260640161062c565b8061156981612249565b9150506114f3565b5080516115859060699060208401906116a6565b5060676115928482612006565b507fa6f9f25f4c5fed6464b219efa94b247fa993d06e7594aa81dd392bcbbd36006160656040516115c39190612270565b60405180910390a150505050565b336115da610b4b565b6001600160a01b031614610b495760405162461bcd60e51b815260206004820181905260248201527f4f776e61626c653a2063616c6c6572206973206e6f7420746865206f776e6572604482015260640161062c565b60405180610140016040528060006001600160a01b0316815260200160008152602001606081526020016000600181111561166d5761166d6117cf565b8152602001600081526020016000815260200160608152602001606081526020016060815260200160006001600160a01b031681525090565b8280548282559060005260206000209081019282156116ec579160200282015b828111156116ec57825182906116dc9082612006565b50916020019190600101906116c6565b506116f89291506116fc565b5090565b808211156116f85760006117108282611719565b506001016116fc565b50805461172590611ecb565b6000825580601f10611735575050565b601f0160209004906000526020600020908101906110f191905b808211156116f8576000815560010161174f565b60006020828403121561177557600080fd5b5035919050565b6001600160a01b03169052565b6000815180845260005b818110156117af57602081850181015186830182015201611793565b506000602082860101526020601f19601f83011685010191505092915050565b634e487b7160e01b600052602160045260246000fd5b600281106117f5576117f56117cf565b9052565b6020815261180b60208201835161177c565b6020820151604082015260006040830151610140806060850152611833610160850183611789565b9150606085015161184760808601826117e5565b50608085015160a085015260a085015160c085015260c0850151601f19808685030160e08701526118788483611789565b935060e087015191506101008187860301818801526118978584611789565b9450808801519250506101208187860301818801526118b68584611789565b945080880151925050506118cc8286018261177c565b5090949350505050565b60208101600383106118ea576118ea6117cf565b91905290565b6001600160a01b03811681146110f157600080fd5b8035611910816118f0565b919050565b634e487b7160e01b600052604160045260246000fd5b604051601f8201601f191681016001600160401b038111828210171561195357611953611915565b604052919050565b600082601f83011261196c57600080fd5b81356001600160401b0381111561198557611985611915565b611998601f8201601f191660200161192b565b8181528460208386010111156119ad57600080fd5b816020850160208301376000918101602001919091529392505050565b600082601f8301126119db57600080fd5b813560206001600160401b03808311156119f7576119f7611915565b8260051b611a0683820161192b565b9384528581018301938381019088861115611a2057600080fd5b84880192505b85831015610c5457823584811115611a3e5760008081fd5b611a4c8a87838c010161195b565b8352509184019190840190611a26565b600080600080600060a08688031215611a7457600080fd5b8535611a7f816118f0565b945060208601356001600160401b0380821115611a9b57600080fd5b611aa789838a0161195b565b95506040880135915080821115611abd57600080fd5b611ac989838a0161195b565b94506060880135915080821115611adf57600080fd5b611aeb89838a0161195b565b93506080880135915080821115611b0157600080fd5b50611b0e888289016119ca565b9150509295509295909350565b60008060008060808587031215611b3157600080fd5b84356001600160401b0380821115611b4857600080fd5b611b548883890161195b565b95506020870135915080821115611b6a57600080fd5b611b768883890161195b565b94506040870135915080821115611b8c57600080fd5b611b988883890161195b565b93506060870135915080821115611bae57600080fd5b50611bbb878288016119ca565b91505092959194509250565b60008060008060008060c08789031215611be057600080fd5b8635611beb816118f0565b95506020870135611bfb816118f0565b94506040870135935060608701356001600160401b0380821115611c1e57600080fd5b611c2a8a838b0161195b565b94506080890135915080821115611c4057600080fd5b611c4c8a838b0161195b565b935060a0890135915080821115611c6257600080fd5b50611c6f89828a0161195b565b9150509295509295509295565b60008060008060008060c08789031215611c9557600080fd5b611c9e87611905565b955060208701356001600160401b0380821115611cba57600080fd5b611cc68a838b0161195b565b9650604089013595506060890135915080821115611c1e57600080fd5b600080600080600080600060e0888a031215611cfe57600080fd5b611d0788611905565b965060208801356001600160401b0380821115611d2357600080fd5b611d2f8b838c0161195b565b975060408a0135915080821115611d4557600080fd5b611d518b838c0161195b565b965060608a0135915080821115611d6757600080fd5b611d738b838c0161195b565b955060808a0135915080821115611d8957600080fd5b50611d968a828b016119ca565b935050611da560a08901611905565b9150611db360c08901611905565b905092959891949750929550565b600060208284031215611dd357600080fd5b8135611dde816118f0565b9392505050565b60006020808352835160a082850152611e0160c0850182611789565b905060018060a01b03828601511660408501526040850151601f1980868403016060870152611e308383611789565b92506060870151915080868403016080870152611e4d8383611789565b6080880151878203830160a089015280518083529194508501925084840190600581901b8501860160005b82811015611ea45784878303018452611e92828751611789565b95880195938801939150600101611e78565b509998505050505050505050565b600060208284031215611ec457600080fd5b5051919050565b600181811c90821680611edf57607f821691505b602082108103610a3857634e487b7160e01b600052602260045260246000fd5b602080825260199082015278135d5b1d1a54da59d11053ce881b9bc81d1e1b88195e1a5cdd603a1b604082015260600190565b600060208284031215611f4457600080fd5b81518015158114611dde57600080fd5b60018060a01b0385168152836020820152608060408201526000611f7b6080830185611789565b9050611f8a60608301846117e5565b95945050505050565b60008060408385031215611fa657600080fd5b505080516020909101519092909150565b601f82111561200157600081815260208120601f850160051c81016020861015611fde5750805b601f850160051c820191505b81811015611ffd57828155600101611fea565b5050505b505050565b81516001600160401b0381111561201f5761201f611915565b6120338161202d8454611ecb565b84611fb7565b602080601f83116001811461206857600084156120505750858301515b600019600386901b1c1916600185901b178555611ffd565b600085815260208120601f198616915b8281101561209757888601518255948401946001909101908401612078565b50858210156120b55787850151600019600388901b60f8161c191681555b5050505050600190811b01905550565b6001600160a01b031690565b600081546120de81611ecb565b8085526020600183811680156120fb576001811461211557612143565b60ff1985168884015283151560051b880183019550612143565b866000528260002060005b8581101561213b5781548a8201860152908301908401612120565b890184019650505b505050505092915050565b8281526040602082015261216e6040820161216984546120c5565b61177c565b6001820154606082015260006101408060808401526121946101808401600286016120d1565b600385015460ff166121a960a08601826117e5565b50600485015460c0850152600585015460e0850152603f1980858303016101008601526121d982600688016120d1565b915080858303016101208601526121f382600788016120d1565b91508085830301838601525061220c81600887016120d1565b91505061221c60098501546120c5565b61222a61016085018261177c565b50949350505050565b634e487b7160e01b600052603260045260246000fd5b60006001820161226957634e487b7160e01b600052601160045260246000fd5b5060010190565b6000602080835260a08184015261228a60c08401856120d1565b6001858101546001600160a01b03166040860152601f19858303810160608701526122b883600289016120d1565b9250808684030160808701526122d183600389016120d1565b868103820160a0880152600488018054808352600091825286822092955086860191600582901b87018801905b82811015612328578588830301845261231782866120d1565b9487019493890193915086016122fe565b509a995050505050505050505056fea2646970667358221220232268acff7f0a0b9671388673f8ed73cf50e8e9eccfa45998f14b300f929c6764736f6c63430008120033",
  "linkReferences": {},
  "deployedLinkReferences": {}
}