{
  "_format": "hh-sol-artifact-1",
  "contractName": "MultisigDAOFactory",
  "sourceName": "contracts/dao/MultisigDAOFactory.sol",
  "abi": [
    {
      "inputs": [
        {
          "internalType": "string",
          "name": "message",
          "type": "string"
        }
      ],
      "name": "InvalidInput",
      "type": "error"
    },
    {
      "inputs": [
        {
          "internalType": "string",
          "name": "message",
          "type": "string"
        }
      ],
      "name": "NotAdmin",
      "type": "error"
    },
    {
      "anonymous": false,
      "inputs": [
        {
          "indexed": false,
          "internalType": "uint8",
          "name": "version",
          "type": "uint8"
        }
      ],
      "name": "Initialized",
      "type": "event"
    },
    {
      "anonymous": false,
      "inputs": [
        {
          "indexed": true,
          "internalType": "address",
          "name": "oldImplementation",
          "type": "address"
        },
        {
          "indexed": true,
          "internalType": "address",
          "name": "newImplementation",
          "type": "address"
        },
        {
          "indexed": false,
          "internalType": "string",
          "name": "name",
          "type": "string"
        }
      ],
      "name": "LogicUpdated",
      "type": "event"
    },
    {
      "anonymous": false,
      "inputs": [
        {
          "indexed": true,
          "internalType": "address",
          "name": "previousOwner",
          "type": "address"
        },
        {
          "indexed": true,
          "internalType": "address",
          "name": "newOwner",
          "type": "address"
        }
      ],
      "name": "OwnershipTransferred",
      "type": "event"
    },
    {
      "anonymous": false,
      "inputs": [
        {
          "indexed": false,
          "internalType": "address",
          "name": "daoAddress",
          "type": "address"
        }
      ],
      "name": "PrivateDaoCreated",
      "type": "event"
    },
    {
      "anonymous": false,
      "inputs": [
        {
          "indexed": false,
          "internalType": "address",
          "name": "daoAddress",
          "type": "address"
        }
      ],
      "name": "PublicDaoCreated",
      "type": "event"
    },
    {
      "inputs": [
        {
          "internalType": "address",
          "name": "_admin",
          "type": "address"
        },
        {
          "internalType": "string",
          "name": "_name",
          "type": "string"
        },
        {
          "internalType": "string",
          "name": "_logoUrl",
          "type": "string"
        },
        {
          "internalType": "address[]",
          "name": "_owners",
          "type": "address[]"
        },
        {
          "internalType": "uint256",
          "name": "_threshold",
          "type": "uint256"
        },
        {
          "internalType": "bool",
          "name": "_isPrivate",
          "type": "bool"
        }
      ],
      "name": "createDAO",
      "outputs": [
        {
          "internalType": "address",
          "name": "",
          "type": "address"
        }
      ],
      "stateMutability": "nonpayable",
      "type": "function"
    },
    {
      "inputs": [],
      "name": "getDAOs",
      "outputs": [
        {
          "internalType": "address[]",
          "name": "",
          "type": "address[]"
        }
      ],
      "stateMutability": "view",
      "type": "function"
    },
    {
      "inputs": [
        {
          "internalType": "address",
          "name": "_proxyAdmin",
          "type": "address"
        },
        {
          "internalType": "address",
          "name": "_daoLogic",
          "type": "address"
        },
        {
          "internalType": "address",
          "name": "_safeLogic",
          "type": "address"
        },
        {
          "internalType": "address",
          "name": "_safeFactory",
          "type": "address"
        },
        {
          "internalType": "contract IBaseHTS",
          "name": "_baseHTS",
          "type": "address"
        }
      ],
      "name": "initialize",
      "outputs": [],
      "stateMutability": "nonpayable",
      "type": "function"
    },
    {
      "inputs": [],
      "name": "owner",
      "outputs": [
        {
          "internalType": "address",
          "name": "",
          "type": "address"
        }
      ],
      "stateMutability": "view",
      "type": "function"
    },
    {
      "inputs": [],
      "name": "renounceOwnership",
      "outputs": [],
      "stateMutability": "nonpayable",
      "type": "function"
    },
    {
      "inputs": [
        {
          "internalType": "address",
          "name": "newOwner",
          "type": "address"
        }
      ],
      "name": "transferOwnership",
      "outputs": [],
      "stateMutability": "nonpayable",
      "type": "function"
    },
    {
      "inputs": [
        {
          "internalType": "address",
          "name": "_newImpl",
          "type": "address"
        }
      ],
      "name": "upgradeDaoLogicAddress",
      "outputs": [],
      "stateMutability": "nonpayable",
      "type": "function"
    },
    {
      "inputs": [
        {
          "internalType": "address",
          "name": "_newImpl",
          "type": "address"
        }
      ],
      "name": "upgradeSafeFactoryAddress",
      "outputs": [],
      "stateMutability": "nonpayable",
      "type": "function"
    },
    {
      "inputs": [
        {
          "internalType": "address",
          "name": "_newImpl",
          "type": "address"
        }
      ],
      "name": "upgradeSafeLogicAddress",
      "outputs": [],
      "stateMutability": "nonpayable",
      "type": "function"
    }
  ],
  "bytecode": "0x608060405234801561001057600080fd5b50611ecc806100206000396000f3fe60806040523480156200001157600080fd5b50600436106200008e5760003560e01c80631459457a14620000935780633f7bcf0c14620000ac578063415cc7dd14620000c35780636420e50414620000e5578063715018a6146200010b5780637bd0ca1f14620001155780638da5cb5b146200012c578063f2fde38b1462000136578063fda2d015146200014d575b600080fd5b620000aa620000a436600462000b1d565b62000164565b005b620000aa620000bd36600462000b99565b620003da565b620000cd62000480565b604051620000dc919062000bcd565b60405180910390f35b620000fc620000f636600462000c7d565b620004e4565b604051620000dc919062000d81565b620000aa620005e5565b620000aa6200012636600462000b99565b620005fd565b620000fc620006a4565b620000aa6200014736600462000b99565b620006b3565b620000aa6200015e36600462000b99565b62000732565b600054610100900460ff1615808015620001855750600054600160ff909116105b80620001a15750303b158015620001a1575060005460ff166001145b6200020a5760405162461bcd60e51b815260206004820152602e60248201527f496e697469616c697a61626c653a20636f6e747261637420697320616c72656160448201526d191e481a5b9a5d1a585b1a5e995960921b60648201526084015b60405180910390fd5b6000805460ff1916600117905580156200022e576000805461ff0019166101001790555b62000238620007db565b606580546001600160a01b038089166001600160a01b03199283161790925560668054888416908316811790915560678054888516908416179055606880548785169084161790556069805493861693909216929092179055604080518082018252600881526744616f4c6f67696360c01b6020820152905160009160008051602062001e7783398151915291620002d1919062000ddd565b60405180910390a36067546040805180820182526009815268536166654c6f67696360b81b602082015290516001600160a01b039092169160009160008051602062001e778339815191529162000329919062000ddd565b60405180910390a3606854604080518082018252600b81526a53616665466163746f727960a81b602082015290516001600160a01b039092169160009160008051602062001e778339815191529162000383919062000ddd565b60405180910390a38015620003d2576000805461ff0019169055604051600181527f7f26b83ff96e1f2b6a682f133852f6798a09c465da95921460cefb38474024989060200160405180910390a15b505050505050565b6065546001600160a01b031633146200040857604051633b12922f60e11b8152600401620002019062000df2565b606654604080518082018252600881526744616f4c6f67696360c01b602082015290516001600160a01b0380851693169160008051602062001e778339815191529162000456919062000ddd565b60405180910390a3606680546001600160a01b0319166001600160a01b0392909216919091179055565b6060606a805480602002602001604051908101604052809291908181526020018280548015620004da57602002820191906000526020600020905b81546001600160a01b03168152600190910190602001808311620004bb575b5050505050905090565b600080620004f48686866200080f565b90506000620005088c8c8c8c8c8762000927565b9050831562000550577ff375d008d938f6e4e8d7a3489e0bb1d57676eeb5ccaa0fd2aff29c7fd17215678160405162000542919062000d81565b60405180910390a1620005d6565b606a80546001810182556000919091527f116fea137db6e131133e7f2bab296045d8f41cc5607279db17b218cab0929a510180546001600160a01b0319166001600160a01b0383161790556040517f51f1202f71b54b8daa0013be67d19a8ebc75598b1b376d56ab4b55e4f119c2ce90620005cd90839062000d81565b60405180910390a15b9b9a5050505050505050505050565b620005ef62000a0f565b620005fb600062000a72565b565b6065546001600160a01b031633146200062b57604051633b12922f60e11b8152600401620002019062000df2565b6067546040805180820182526009815268536166654c6f67696360b81b602082015290516001600160a01b0380851693169160008051602062001e77833981519152916200067a919062000ddd565b60405180910390a3606780546001600160a01b0319166001600160a01b0392909216919091179055565b6033546001600160a01b031690565b620006bd62000a0f565b6001600160a01b038116620007245760405162461bcd60e51b815260206004820152602660248201527f4f776e61626c653a206e6577206f776e657220697320746865207a65726f206160448201526564647265737360d01b606482015260840162000201565b6200072f8162000a72565b50565b6065546001600160a01b031633146200076057604051633b12922f60e11b8152600401620002019062000df2565b606854604080518082018252600b81526a53616665466163746f727960a81b602082015290516001600160a01b0380851693169160008051602062001e7783398151915291620007b1919062000ddd565b60405180910390a3606880546001600160a01b0319166001600160a01b0392909216919091179055565b600054610100900460ff16620008055760405162461bcd60e51b8152600401620002019062000e29565b620005fb62000ac4565b60685460675460408051602081018252600080825291516361b69abd60e01b81529193849360609385936001600160a01b03938416936361b69abd936200085d939116919060040162000e74565b6020604051808303816000875af11580156200087d573d6000803e3d6000fd5b505050506040513d601f19601f82011682018060405250810190620008a3919062000ea2565b60405163b63e800d60e01b815290915081906001600160a01b0382169063b63e800d90620008e7908b908b908b908a908a9082908190600090829060040162000ec2565b600060405180830381600087803b1580156200090257600080fd5b505af115801562000917573d6000803e3d6000fd5b50929a9950505050505050505050565b6066546065546040805160208101825260008082529151919384936001600160a01b0391821693911691906200095d9062000af9565b6200096b9392919062000f7b565b604051809103906000f08015801562000988573d6000803e3d6000fd5b50606954604051636cf1dbed60e01b815291925082916001600160a01b0380841692636cf1dbed92620009ce928e928e928e928e928e928e929091169060040162000fdb565b600060405180830381600087803b158015620009e957600080fd5b505af1158015620009fe573d6000803e3d6000fd5b50929b9a5050505050505050505050565b3362000a1a620006a4565b6001600160a01b031614620005fb5760405162461bcd60e51b815260206004820181905260248201527f4f776e61626c653a2063616c6c6572206973206e6f7420746865206f776e6572604482015260640162000201565b603380546001600160a01b038381166001600160a01b0319831681179093556040519116919082907f8be0079c531659141344cd1fd0a4f28419497f9722a3daafe3b4186f6b6457e090600090a35050565b600054610100900460ff1662000aee5760405162461bcd60e51b8152600401620002019062000e29565b620005fb3362000a72565b610e44806200103383390190565b6001600160a01b03811681146200072f57600080fd5b600080600080600060a0868803121562000b3657600080fd5b853562000b438162000b07565b9450602086013562000b558162000b07565b9350604086013562000b678162000b07565b9250606086013562000b798162000b07565b9150608086013562000b8b8162000b07565b809150509295509295909350565b60006020828403121562000bac57600080fd5b813562000bb98162000b07565b9392505050565b6001600160a01b03169052565b6020808252825182820181905260009190848201906040850190845b8181101562000c105783516001600160a01b03168352928401929184019160010162000be9565b50909695505050505050565b60008083601f84011262000c2f57600080fd5b5081356001600160401b0381111562000c4757600080fd5b60208301915083602082850101111562000c6057600080fd5b9250929050565b8035801515811462000c7857600080fd5b919050565b600080600080600080600080600060c08a8c03121562000c9c57600080fd5b893562000ca98162000b07565b985060208a01356001600160401b038082111562000cc657600080fd5b62000cd48d838e0162000c1c565b909a50985060408c013591508082111562000cee57600080fd5b62000cfc8d838e0162000c1c565b909850965060608c013591508082111562000d1657600080fd5b818c0191508c601f83011262000d2b57600080fd5b81358181111562000d3b57600080fd5b8d60208260051b850101111562000d5157600080fd5b60208301965080955050505060808a0135915062000d7260a08b0162000c67565b90509295985092959850929598565b6001600160a01b0391909116815260200190565b6000815180845260005b8181101562000dbd5760208185018101518683018201520162000d9f565b506000602082860101526020601f19601f83011685010191505092915050565b60208152600062000bb9602083018462000d95565b6020808252601f908201527f4d756c746973696744414f466163746f72793a2061757468206661696c656400604082015260600190565b6020808252602b908201527f496e697469616c697a61626c653a20636f6e7472616374206973206e6f74206960408201526a6e697469616c697a696e6760a81b606082015260800190565b6001600160a01b038316815260406020820181905260009062000e9a9083018462000d95565b949350505050565b60006020828403121562000eb557600080fd5b815162000bb98162000b07565b6101008082528101899052600061012082018b825b8c81101562000f0c57813562000eed8162000b07565b6001600160a01b03168352602092830192919091019060010162000ed7565b505089602084015262000f23604084018a62000bc0565b828103606084015262000f37818962000d95565b91505062000f49608083018762000bc0565b62000f5860a083018662000bc0565b8360c083015262000f6d60e083018462000bc0565b9a9950505050505050505050565b6001600160a01b0384811682528316602082015260606040820181905260009062000fa99083018462000d95565b95945050505050565b81835281816020850137506000828201602090810191909152601f909101601f19169091010190565b600060018060a01b03808a16835260a060208401526200100060a08401898b62000fb2565b83810360408501526200101581888a62000fb2565b95821660608501525092909216608090910152509594505050505056fe608060405260405162000e4438038062000e44833981016040819052620000269162000497565b828162000036828260006200004d565b50620000449050826200008a565b505050620005ca565b6200005883620000e5565b600082511180620000665750805b1562000085576200008383836200012760201b6200022e1760201c565b505b505050565b7f7e644d79422f17c01e4894b5f4f588d331ebfa28653d42ae832dc59e38c9798f620000b562000156565b604080516001600160a01b03928316815291841660208301520160405180910390a1620000e2816200018f565b50565b620000f08162000244565b6040516001600160a01b038216907fbc7cd75a20ee27fd9adebab32041f755214dbc6bffa90cc0225b39da2e5c2d3b90600090a250565b60606200014f838360405180606001604052806027815260200162000e1d60279139620002f8565b9392505050565b60006200018060008051602062000dfd83398151915260001b6200037760201b620001ea1760201c565b546001600160a01b0316919050565b6001600160a01b038116620001fa5760405162461bcd60e51b815260206004820152602660248201527f455243313936373a206e65772061646d696e20697320746865207a65726f206160448201526564647265737360d01b60648201526084015b60405180910390fd5b806200022360008051602062000dfd83398151915260001b6200037760201b620001ea1760201c565b80546001600160a01b0319166001600160a01b039290921691909117905550565b6200025a816200037a60201b6200025a1760201c565b620002be5760405162461bcd60e51b815260206004820152602d60248201527f455243313936373a206e657720696d706c656d656e746174696f6e206973206e60448201526c1bdd08184818dbdb9d1c9858dd609a1b6064820152608401620001f1565b80620002237f360894a13ba1a3210667c828492db98dca3e2076cc3735a920a3ca505d382bbc60001b6200037760201b620001ea1760201c565b6060600080856001600160a01b03168560405162000317919062000577565b600060405180830381855af49150503d806000811462000354576040519150601f19603f3d011682016040523d82523d6000602084013e62000359565b606091505b5090925090506200036d8683838762000389565b9695505050505050565b90565b6001600160a01b03163b151590565b60608315620003fd578251600003620003f557620003a7856200037a565b620003f55760405162461bcd60e51b815260206004820152601d60248201527f416464726573733a2063616c6c20746f206e6f6e2d636f6e74726163740000006044820152606401620001f1565b508162000409565b62000409838362000411565b949350505050565b815115620004225781518083602001fd5b8060405162461bcd60e51b8152600401620001f1919062000595565b80516001600160a01b03811681146200045657600080fd5b919050565b634e487b7160e01b600052604160045260246000fd5b60005b838110156200048e57818101518382015260200162000474565b50506000910152565b600080600060608486031215620004ad57600080fd5b620004b8846200043e565b9250620004c8602085016200043e565b60408501519092506001600160401b0380821115620004e657600080fd5b818601915086601f830112620004fb57600080fd5b8151818111156200051057620005106200045b565b604051601f8201601f19908116603f011681019083821181831017156200053b576200053b6200045b565b816040528281528960208487010111156200055557600080fd5b6200056883602083016020880162000471565b80955050505050509250925092565b600082516200058b81846020870162000471565b9190910192915050565b6020815260008251806020840152620005b681604085016020870162000471565b601f01601f19169190910160400192915050565b61082380620005da6000396000f3fe60806040526004361061004e5760003560e01c80633659cfe6146100655780634f1ef286146100855780635c60da1b146100985780638f283970146100c9578063f851a440146100e95761005d565b3661005d5761005b6100fe565b005b61005b6100fe565b34801561007157600080fd5b5061005b610080366004610676565b610118565b61005b610093366004610691565b610155565b3480156100a457600080fd5b506100ad6101bc565b6040516001600160a01b03909116815260200160405180910390f35b3480156100d557600080fd5b5061005b6100e4366004610676565b6101ed565b3480156100f557600080fd5b506100ad61020d565b610106610269565b6101166101116102fe565b610308565b565b61012061032c565b6001600160a01b0316330361014d5761014a8160405180602001604052806000815250600061034d565b50565b61014a6100fe565b61015d61032c565b6001600160a01b031633036101b4576101af8383838080601f0160208091040260200160405190810160405280939291908181526020018383808284376000920191909152506001925061034d915050565b505050565b6101af6100fe565b60006101c661032c565b6001600160a01b031633036101e2576101dd6102fe565b905090565b6101ea6100fe565b90565b6101f561032c565b6001600160a01b0316330361014d5761014a81610378565b600061021761032c565b6001600160a01b031633036101e2576101dd61032c565b606061025383836040518060600160405280602781526020016107c7602791396103cc565b9392505050565b6001600160a01b03163b151590565b61027161032c565b6001600160a01b031633036101165760405162461bcd60e51b815260206004820152604260248201527f5472616e73706172656e745570677261646561626c6550726f78793a2061646d60448201527f696e2063616e6e6f742066616c6c6261636b20746f2070726f78792074617267606482015261195d60f21b608482015260a4015b60405180910390fd5b60006101dd610444565b3660008037600080366000845af43d6000803e808015610327573d6000f35b3d6000fd5b60006000805160206107878339815191525b546001600160a01b0316919050565b6103568361045a565b6000825111806103635750805b156101af57610372838361022e565b50505050565b7f7e644d79422f17c01e4894b5f4f588d331ebfa28653d42ae832dc59e38c9798f6103a161032c565b604080516001600160a01b03928316815291841660208301520160405180910390a161014a8161049a565b6060600080856001600160a01b0316856040516103e99190610737565b600060405180830381855af49150503d8060008114610424576040519150601f19603f3d011682016040523d82523d6000602084013e610429565b606091505b509150915061043a86838387610531565b9695505050505050565b60006000805160206107a783398151915261033e565b610463816105b0565b6040516001600160a01b038216907fbc7cd75a20ee27fd9adebab32041f755214dbc6bffa90cc0225b39da2e5c2d3b90600090a250565b6001600160a01b0381166104ff5760405162461bcd60e51b815260206004820152602660248201527f455243313936373a206e65772061646d696e20697320746865207a65726f206160448201526564647265737360d01b60648201526084016102f5565b806000805160206107878339815191525b80546001600160a01b0319166001600160a01b039290921691909117905550565b6060831561059e5782516000036105975761054b8561025a565b6105975760405162461bcd60e51b815260206004820152601d60248201527f416464726573733a2063616c6c20746f206e6f6e2d636f6e747261637400000060448201526064016102f5565b50816105a8565b6105a88383610630565b949350505050565b6105b98161025a565b61061b5760405162461bcd60e51b815260206004820152602d60248201527f455243313936373a206e657720696d706c656d656e746174696f6e206973206e60448201526c1bdd08184818dbdb9d1c9858dd609a1b60648201526084016102f5565b806000805160206107a7833981519152610510565b8151156106405781518083602001fd5b8060405162461bcd60e51b81526004016102f59190610753565b80356001600160a01b038116811461067157600080fd5b919050565b60006020828403121561068857600080fd5b6102538261065a565b6000806000604084860312156106a657600080fd5b6106af8461065a565b925060208401356001600160401b03808211156106cb57600080fd5b818601915086601f8301126106df57600080fd5b8135818111156106ee57600080fd5b87602082850101111561070057600080fd5b6020830194508093505050509250925092565b60005b8381101561072e578181015183820152602001610716565b50506000910152565b60008251610749818460208701610713565b9190910192915050565b6020815260008251806020840152610772816040850160208701610713565b601f01601f1916919091016040019291505056feb53127684a568b3173ae13b9f8a6016e243e63b6e8ee1178d6a717850b5d6103360894a13ba1a3210667c828492db98dca3e2076cc3735a920a3ca505d382bbc416464726573733a206c6f772d6c6576656c2064656c65676174652063616c6c206661696c6564a26469706673582212204433d45c6a09820eaaf32b7d14a27e34b6394f971bf833e4b517275aea53355964736f6c63430008110033b53127684a568b3173ae13b9f8a6016e243e63b6e8ee1178d6a717850b5d6103416464726573733a206c6f772d6c6576656c2064656c65676174652063616c6c206661696c6564cf9d4a2ff924c5f3553e3c8485e6bc24fde822593d2c3d78c8fabaada123f8f6a26469706673582212205f2568d0a8eed6ede387ef7700d336899fddae995b243b267d0ced558f92a99864736f6c63430008110033",
  "linkReferences": {},
  "deployedLinkReferences": {}
}