{
  "_format": "hh-sol-artifact-1",
  "contractName": "MultisigDAOFactory",
  "sourceName": "contracts/dao/MultisigDAOFactory.sol",
  "abi": [
    {
      "inputs": [
        {
          "internalType": "string",
          "name": "message",
          "type": "string"
        }
      ],
      "name": "InvalidInput",
      "type": "error"
    },
    {
      "inputs": [
        {
          "internalType": "string",
          "name": "message",
          "type": "string"
        }
      ],
      "name": "NotAdmin",
      "type": "error"
    },
    {
      "anonymous": false,
      "inputs": [
        {
          "indexed": false,
          "internalType": "address",
          "name": "daoAddress",
          "type": "address"
        },
        {
          "indexed": false,
          "internalType": "address",
          "name": "safeAddress",
          "type": "address"
        },
        {
          "indexed": false,
          "internalType": "address",
          "name": "admin",
          "type": "address"
        },
        {
          "indexed": false,
          "internalType": "string",
          "name": "name",
          "type": "string"
        },
        {
          "indexed": false,
          "internalType": "string",
          "name": "logoUrl",
          "type": "string"
        },
        {
          "indexed": false,
          "internalType": "address[]",
          "name": "owners",
          "type": "address[]"
        },
        {
          "indexed": false,
          "internalType": "uint256",
          "name": "threshold",
          "type": "uint256"
        },
        {
          "indexed": false,
          "internalType": "bool",
          "name": "isPrivate",
          "type": "bool"
        },
        {
          "indexed": false,
          "internalType": "string",
          "name": "description",
          "type": "string"
        },
        {
          "indexed": false,
          "internalType": "string",
          "name": "webLinks",
          "type": "string"
        }
      ],
      "name": "DAOCreated",
      "type": "event"
    },
    {
      "anonymous": false,
      "inputs": [
        {
          "indexed": false,
          "internalType": "uint8",
          "name": "version",
          "type": "uint8"
        }
      ],
      "name": "Initialized",
      "type": "event"
    },
    {
      "anonymous": false,
      "inputs": [
        {
          "indexed": true,
          "internalType": "address",
          "name": "oldImplementation",
          "type": "address"
        },
        {
          "indexed": true,
          "internalType": "address",
          "name": "newImplementation",
          "type": "address"
        },
        {
          "indexed": false,
          "internalType": "string",
          "name": "name",
          "type": "string"
        }
      ],
      "name": "LogicUpdated",
      "type": "event"
    },
    {
      "anonymous": false,
      "inputs": [
        {
          "indexed": true,
          "internalType": "address",
          "name": "previousOwner",
          "type": "address"
        },
        {
          "indexed": true,
          "internalType": "address",
          "name": "newOwner",
          "type": "address"
        }
      ],
      "name": "OwnershipTransferred",
      "type": "event"
    },
    {
      "inputs": [
        {
          "components": [
            {
              "internalType": "address",
              "name": "admin",
              "type": "address"
            },
            {
              "internalType": "string",
              "name": "name",
              "type": "string"
            },
            {
              "internalType": "string",
              "name": "logoUrl",
              "type": "string"
            },
            {
              "internalType": "address[]",
              "name": "owners",
              "type": "address[]"
            },
            {
              "internalType": "uint256",
              "name": "threshold",
              "type": "uint256"
            },
            {
              "internalType": "bool",
              "name": "isPrivate",
              "type": "bool"
            },
            {
              "internalType": "string",
              "name": "description",
              "type": "string"
            },
            {
              "internalType": "string[]",
              "name": "webLinks",
              "type": "string[]"
            }
          ],
          "internalType": "struct MultisigDAOFactory.CreateDAOInputs",
          "name": "_createDAOInputs",
          "type": "tuple"
        }
      ],
      "name": "createDAO",
      "outputs": [
        {
          "internalType": "address",
          "name": "",
          "type": "address"
        }
      ],
      "stateMutability": "nonpayable",
      "type": "function"
    },
    {
      "inputs": [],
      "name": "getDAOs",
      "outputs": [
        {
          "internalType": "address[]",
          "name": "",
          "type": "address[]"
        }
      ],
      "stateMutability": "view",
      "type": "function"
    },
    {
      "inputs": [],
      "name": "getHederaServiceVersion",
      "outputs": [
        {
          "internalType": "contract IHederaService",
          "name": "",
          "type": "address"
        }
      ],
      "stateMutability": "view",
      "type": "function"
    },
    {
      "inputs": [],
      "name": "getMultiSendContractAddress",
      "outputs": [
        {
          "internalType": "address",
          "name": "",
          "type": "address"
        }
      ],
      "stateMutability": "view",
      "type": "function"
    },
    {
      "inputs": [
        {
          "internalType": "address",
          "name": "_proxyAdmin",
          "type": "address"
        },
        {
          "internalType": "address",
          "name": "_daoLogic",
          "type": "address"
        },
        {
          "internalType": "address",
          "name": "_safeLogic",
          "type": "address"
        },
        {
          "internalType": "address",
          "name": "_safeFactory",
          "type": "address"
        },
        {
          "internalType": "contract IHederaService",
          "name": "_hederaService",
          "type": "address"
        },
        {
          "internalType": "contract HederaMultiSend",
          "name": "_multiSend",
          "type": "address"
        }
      ],
      "name": "initialize",
      "outputs": [],
      "stateMutability": "nonpayable",
      "type": "function"
    },
    {
      "inputs": [
        {
          "internalType": "string[]",
          "name": "items",
          "type": "string[]"
        }
      ],
      "name": "isOddLengthArray",
      "outputs": [
        {
          "internalType": "bool",
          "name": "",
          "type": "bool"
        }
      ],
      "stateMutability": "pure",
      "type": "function"
    },
    {
      "inputs": [
        {
          "internalType": "string[]",
          "name": "items",
          "type": "string[]"
        },
        {
          "internalType": "string",
          "name": "separator",
          "type": "string"
        }
      ],
      "name": "join",
      "outputs": [
        {
          "internalType": "string",
          "name": "result",
          "type": "string"
        }
      ],
      "stateMutability": "pure",
      "type": "function"
    },
    {
      "inputs": [],
      "name": "owner",
      "outputs": [
        {
          "internalType": "address",
          "name": "",
          "type": "address"
        }
      ],
      "stateMutability": "view",
      "type": "function"
    },
    {
      "inputs": [],
      "name": "renounceOwnership",
      "outputs": [],
      "stateMutability": "nonpayable",
      "type": "function"
    },
    {
      "inputs": [
        {
          "internalType": "address",
          "name": "newOwner",
          "type": "address"
        }
      ],
      "name": "transferOwnership",
      "outputs": [],
      "stateMutability": "nonpayable",
      "type": "function"
    },
    {
      "inputs": [
        {
          "internalType": "address",
          "name": "_newImpl",
          "type": "address"
        }
      ],
      "name": "upgradeDaoLogicAddress",
      "outputs": [],
      "stateMutability": "nonpayable",
      "type": "function"
    },
    {
      "inputs": [
        {
          "internalType": "contract IHederaService",
          "name": "newHederaService",
          "type": "address"
        }
      ],
      "name": "upgradeHederaService",
      "outputs": [],
      "stateMutability": "nonpayable",
      "type": "function"
    },
    {
      "inputs": [
        {
          "internalType": "contract HederaMultiSend",
          "name": "_multiSend",
          "type": "address"
        }
      ],
      "name": "upgradeMultiSend",
      "outputs": [],
      "stateMutability": "nonpayable",
      "type": "function"
    },
    {
      "inputs": [
        {
          "internalType": "address",
          "name": "_newImpl",
          "type": "address"
        }
      ],
      "name": "upgradeSafeFactoryAddress",
      "outputs": [],
      "stateMutability": "nonpayable",
      "type": "function"
    },
    {
      "inputs": [
        {
          "internalType": "address",
          "name": "_newImpl",
          "type": "address"
        }
      ],
      "name": "upgradeSafeLogicAddress",
      "outputs": [],
      "stateMutability": "nonpayable",
      "type": "function"
    }
  ],
  "bytecode": "0x608060405234801561001057600080fd5b5061279a806100206000396000f3fe60806040523480156200001157600080fd5b5060043610620001095760003560e01c80638da5cb5b11620000a3578063e6a89895116200006e578063e6a89895146200020b578063f2fde38b1462000233578063fca1c0b9146200024a578063fda2d015146200027057600080fd5b80638da5cb5b14620001b45780639b316eda14620001c6578063cc2a9a5b14620001dd578063d26d681f14620001f457600080fd5b80634a6a898911620000e45780634a6a8989146200016a5780636dab6f751462000181578063715018a614620001935780637bd0ca1f146200019d57600080fd5b806317924403146200010e5780633f7bcf0c1462000138578063415cc7dd1462000151575b600080fd5b606a546001600160a01b03165b6040516001600160a01b0390911681526020015b60405180910390f35b6200014f6200014936600462000f6c565b62000287565b005b6200015b62000360565b6040516200012f919062000fd2565b6200011b6200017b36600462001215565b620003c4565b6069546001600160a01b03166200011b565b6200014f6200046f565b6200014f620001ae36600462000f6c565b62000487565b6033546001600160a01b03166200011b565b6200014f620001d736600462000f6c565b6200055d565b6200014f620001ee36600462001357565b62000632565b6200014f6200020536600462000f6c565b620008b1565b620002226200021c366004620013e6565b62000980565b60405190151581526020016200012f565b6200014f6200024436600462000f6c565b6200099a565b620002616200025b36600462001427565b62000a19565b6040516200012f9190620014e6565b6200014f6200028136600462000f6c565b62000ab8565b6065546001600160a01b03163314620002e857604051633b12922f60e11b815260206004820152601f60248201527f4d756c746973696744414f466163746f72793a2061757468206661696c65640060448201526064015b60405180910390fd5b606654604080518082018252600881526744616f4c6f67696360c01b602082015290516001600160a01b038085169316916000805160206200274583398151915291620003369190620014e6565b60405180910390a3606680546001600160a01b0319166001600160a01b0392909216919091179055565b6060606b805480602002602001604051908101604052809291908181526020018280548015620003ba57602002820191906000526020600020905b81546001600160a01b031681526001909101906020018083116200039b575b5050505050905090565b600080620003db8360600151846080015162000b90565b90506000620004038460000151856020015186604001518760c001518860e001518762000ca5565b90508360a001516200045b57606b80546001810182556000919091527fbd43cb8ece8cd1863bcd6082d65c5b0d25665b1ce17980f0da43c0ed545f98b40180546001600160a01b0319166001600160a01b0383161790555b6200046881838662000d91565b9392505050565b6200047962000e25565b62000485600062000e81565b565b6065546001600160a01b03163314620004e457604051633b12922f60e11b815260206004820152601f60248201527f4d756c746973696744414f466163746f72793a2061757468206661696c6564006044820152606401620002df565b6067546040805180820182526009815268536166654c6f67696360b81b602082015290516001600160a01b038085169316916000805160206200274583398151915291620005339190620014e6565b60405180910390a3606780546001600160a01b0319166001600160a01b0392909216919091179055565b6200056762000e25565b606a80546001600160a01b0319166001600160a01b03831617905560005b606b548110156200062e576000606b8281548110620005a857620005a8620014fb565b600091825260209091200154606a54604051634d98b76d60e11b81526001600160a01b039182166004820152911691508190639b316eda90602401600060405180830381600087803b158015620005fe57600080fd5b505af115801562000613573d6000803e3d6000fd5b50505050508080620006259062001511565b91505062000585565b5050565b600054610100900460ff1615808015620006535750600054600160ff909116105b806200066f5750303b1580156200066f575060005460ff166001145b620006d45760405162461bcd60e51b815260206004820152602e60248201527f496e697469616c697a61626c653a20636f6e747261637420697320616c72656160448201526d191e481a5b9a5d1a585b1a5e995960921b6064820152608401620002df565b6000805460ff191660011790558015620006f8576000805461ff0019166101001790555b6200070262000ed3565b606580546001600160a01b03199081166001600160a01b038a811691909117909255606680548216898416908117909155606780548316898516179055606880548316888516179055606980548316878516179055606a8054909216928516929092179055604080518082018252600881526744616f4c6f67696360c01b602082015290516000916000805160206200274583398151915291620007a79190620014e6565b60405180910390a36067546040805180820182526009815268536166654c6f67696360b81b602082015290516001600160a01b03909216916000916000805160206200274583398151915291620007ff9190620014e6565b60405180910390a3606854604080518082018252600b81526a53616665466163746f727960a81b602082015290516001600160a01b03909216916000916000805160206200274583398151915291620008599190620014e6565b60405180910390a38015620008a8576000805461ff0019169055604051600181527f7f26b83ff96e1f2b6a682f133852f6798a09c465da95921460cefb38474024989060200160405180910390a15b50505050505050565b620008bb62000e25565b606980546001600160a01b0319166001600160a01b03831617905560005b606b548110156200062e576000606b8281548110620008fc57620008fc620014fb565b60009182526020909120015460405163d26d681f60e01b81526001600160a01b0385811660048301529091169150819063d26d681f90602401600060405180830381600087803b1580156200095057600080fd5b505af115801562000965573d6000803e3d6000fd5b50505050508080620009779062001511565b915050620008d9565b60006002825162000992919062001539565b151592915050565b620009a462000e25565b6001600160a01b03811662000a0b5760405162461bcd60e51b815260206004820152602660248201527f4f776e61626c653a206e6577206f776e657220697320746865207a65726f206160448201526564647265737360d01b6064820152608401620002df565b62000a168162000e81565b50565b8151606090801562000ab1578360008151811062000a3b5762000a3b620014fb565b602002602001015191506000600190505b8181101562000aaf57828486838151811062000a6c5762000a6c620014fb565b602002602001015160405160200162000a88939291906200155c565b6040516020818303038152906040529250808062000aa69062001511565b91505062000a4c565b505b5092915050565b6065546001600160a01b0316331462000b1557604051633b12922f60e11b815260206004820152601f60248201527f4d756c746973696744414f466163746f72793a2061757468206661696c6564006044820152606401620002df565b606854604080518082018252600b81526a53616665466163746f727960a81b602082015290516001600160a01b03808516931691600080516020620027458339815191529162000b669190620014e6565b60405180910390a3606880546001600160a01b0319166001600160a01b0392909216919091179055565b60685460675460408051602081018252600080825291516361b69abd60e01b81529193849360609385936001600160a01b03938416936361b69abd9362000bde9391169190600401620015a5565b6020604051808303816000875af115801562000bfe573d6000803e3d6000fd5b505050506040513d601f19601f8201168201806040525081019062000c249190620015c9565b60405163b63e800d60e01b815290915081906001600160a01b0382169063b63e800d9062000c66908a908a9089908990829081906000908290600401620015e9565b600060405180830381600087803b15801562000c8157600080fd5b505af115801562000c96573d6000803e3d6000fd5b50929998505050505050505050565b6066546065546040805160208101825260008082529151919384936001600160a01b03918216939116919062000cdb9062000f36565b62000ce99392919062001656565b604051809103906000f08015801562000d06573d6000803e3d6000fd5b50606954606a54604051630892141960e21b815292935083926001600160a01b038085169363224850649362000d50938f938f938f938f938f938f9381169216906004016200168d565b600060405180830381600087803b15801562000d6b57600080fd5b505af115801562000d80573d6000803e3d6000fd5b50929b9a5050505050505050505050565b7f18d2b6f944ae15fdd37f733d95a47589d4d24a9b7ebcf766ca6b4edb11ebf75c8383836000015184602001518560400151866060015187608001518860a001518960c0015162000e008b60e00151604051806040016040528060018152602001600b60fa1b81525062000a19565b60405162000e189a999897969594939291906200177d565b60405180910390a1505050565b6033546001600160a01b03163314620004855760405162461bcd60e51b815260206004820181905260248201527f4f776e61626c653a2063616c6c6572206973206e6f7420746865206f776e65726044820152606401620002df565b603380546001600160a01b038381166001600160a01b0319831681179093556040519116919082907f8be0079c531659141344cd1fd0a4f28419497f9722a3daafe3b4186f6b6457e090600090a35050565b600054610100900460ff1662000efd5760405162461bcd60e51b8152600401620002df906200182d565b62000485600054610100900460ff1662000f2b5760405162461bcd60e51b8152600401620002df906200182d565b620004853362000e81565b610ecc806200187983390190565b6001600160a01b038116811462000a1657600080fd5b803562000f678162000f44565b919050565b60006020828403121562000f7f57600080fd5b8135620004688162000f44565b600081518084526020808501945080840160005b8381101562000fc75781516001600160a01b03168752958201959082019060010162000fa0565b509495945050505050565b60208152600062000468602083018462000f8c565b634e487b7160e01b600052604160045260246000fd5b604051610100810167ffffffffffffffff8111828210171562001024576200102462000fe7565b60405290565b604051601f8201601f1916810167ffffffffffffffff8111828210171562001056576200105662000fe7565b604052919050565b600082601f8301126200107057600080fd5b813567ffffffffffffffff8111156200108d576200108d62000fe7565b620010a2601f8201601f19166020016200102a565b818152846020838601011115620010b857600080fd5b816020850160208301376000918101602001919091529392505050565b600067ffffffffffffffff821115620010f257620010f262000fe7565b5060051b60200190565b600082601f8301126200110e57600080fd5b81356020620011276200112183620010d5565b6200102a565b82815260059290921b840181019181810190868411156200114757600080fd5b8286015b848110156200116f578035620011618162000f44565b83529183019183016200114b565b509695505050505050565b8035801515811462000f6757600080fd5b600082601f8301126200119d57600080fd5b81356020620011b06200112183620010d5565b82815260059290921b84018101918181019086841115620011d057600080fd5b8286015b848110156200116f57803567ffffffffffffffff811115620011f65760008081fd5b620012068986838b01016200105e565b845250918301918301620011d4565b6000602082840312156200122857600080fd5b813567ffffffffffffffff808211156200124157600080fd5b9083019061010082860312156200125757600080fd5b6200126162000ffd565b6200126c8362000f5a565b81526020830135828111156200128157600080fd5b6200128f878286016200105e565b602083015250604083013582811115620012a857600080fd5b620012b6878286016200105e565b604083015250606083013582811115620012cf57600080fd5b620012dd87828601620010fc565b60608301525060808301356080820152620012fb60a084016200117a565b60a082015260c0830135828111156200131357600080fd5b62001321878286016200105e565b60c08301525060e0830135828111156200133a57600080fd5b62001348878286016200118b565b60e08301525095945050505050565b60008060008060008060c087890312156200137157600080fd5b86356200137e8162000f44565b95506020870135620013908162000f44565b94506040870135620013a28162000f44565b93506060870135620013b48162000f44565b92506080870135620013c68162000f44565b915060a0870135620013d88162000f44565b809150509295509295509295565b600060208284031215620013f957600080fd5b813567ffffffffffffffff8111156200141157600080fd5b6200141f848285016200118b565b949350505050565b600080604083850312156200143b57600080fd5b823567ffffffffffffffff808211156200145457600080fd5b62001462868387016200118b565b935060208501359150808211156200147957600080fd5b5062001488858286016200105e565b9150509250929050565b60005b83811015620014af57818101518382015260200162001495565b50506000910152565b60008151808452620014d281602086016020860162001492565b601f01601f19169290920160200192915050565b602081526000620004686020830184620014b8565b634e487b7160e01b600052603260045260246000fd5b6000600182016200153257634e487b7160e01b600052601160045260246000fd5b5060010190565b6000826200155757634e487b7160e01b600052601260045260246000fd5b500690565b600084516200157081846020890162001492565b8451908301906200158681836020890162001492565b84519101906200159b81836020880162001492565b0195945050505050565b6001600160a01b03831681526040602082015260006200141f6040830184620014b8565b600060208284031215620015dc57600080fd5b8151620004688162000f44565b6000610100808352620015ff8184018c62000f8c565b90508960208401526001600160a01b03808a16604085015283820360608501526200162b828a620014b8565b978116608085015295861660a0840152505060c081019290925290911660e090910152949350505050565b60006001600160a01b03808616835280851660208401525060606040830152620016846060830184620014b8565b95945050505050565b60006101006001600160a01b038b16835260208181850152620016b38285018c620014b8565b91508382036040850152620016c9828b620014b8565b91508382036060850152620016df828a620014b8565b915083820360808501528188518084528284019150828160051b850101838b0160005b838110156200173457601f1987840301855262001721838351620014b8565b9486019492509085019060010162001702565b50506001600160a01b038a1660a08801529450620017529350505050565b6001600160a01b03841660c08301526001600160a01b03831660e08301529998505050505050505050565b60006101406001600160a01b03808e168452808d166020850152808c16604085015250806060840152620017b48184018b620014b8565b90508281036080840152620017ca818a620014b8565b905082810360a0840152620017e0818962000f8c565b90508660c084015285151560e0840152828103610100840152620018058186620014b8565b90508281036101208401526200181c8185620014b8565b9d9c50505050505050505050505050565b6020808252602b908201527f496e697469616c697a61626c653a20636f6e7472616374206973206e6f74206960408201526a6e697469616c697a696e6760a81b60608201526080019056fe608060405260405162000ecc38038062000ecc833981016040819052620000269162000497565b828162000036828260006200004d565b50620000449050826200008a565b505050620005ca565b6200005883620000e5565b600082511180620000665750805b1562000085576200008383836200012760201b620001691760201c565b505b505050565b7f7e644d79422f17c01e4894b5f4f588d331ebfa28653d42ae832dc59e38c9798f620000b562000156565b604080516001600160a01b03928316815291841660208301520160405180910390a1620000e2816200018f565b50565b620000f08162000244565b6040516001600160a01b038216907fbc7cd75a20ee27fd9adebab32041f755214dbc6bffa90cc0225b39da2e5c2d3b90600090a250565b60606200014f838360405180606001604052806027815260200162000ea560279139620002f8565b9392505050565b60006200018060008051602062000e8583398151915260001b6200037760201b620001951760201c565b546001600160a01b0316919050565b6001600160a01b038116620001fa5760405162461bcd60e51b815260206004820152602660248201527f455243313936373a206e65772061646d696e20697320746865207a65726f206160448201526564647265737360d01b60648201526084015b60405180910390fd5b806200022360008051602062000e8583398151915260001b6200037760201b620001951760201c565b80546001600160a01b0319166001600160a01b039290921691909117905550565b6200025a816200037a60201b620001981760201c565b620002be5760405162461bcd60e51b815260206004820152602d60248201527f455243313936373a206e657720696d706c656d656e746174696f6e206973206e60448201526c1bdd08184818dbdb9d1c9858dd609a1b6064820152608401620001f1565b80620002237f360894a13ba1a3210667c828492db98dca3e2076cc3735a920a3ca505d382bbc60001b6200037760201b620001951760201c565b6060600080856001600160a01b03168560405162000317919062000577565b600060405180830381855af49150503d806000811462000354576040519150601f19603f3d011682016040523d82523d6000602084013e62000359565b606091505b5090925090506200036d8683838762000389565b9695505050505050565b90565b6001600160a01b03163b151590565b60608315620003fd578251600003620003f5576001600160a01b0385163b620003f55760405162461bcd60e51b815260206004820152601d60248201527f416464726573733a2063616c6c20746f206e6f6e2d636f6e74726163740000006044820152606401620001f1565b508162000409565b62000409838362000411565b949350505050565b815115620004225781518083602001fd5b8060405162461bcd60e51b8152600401620001f1919062000595565b80516001600160a01b03811681146200045657600080fd5b919050565b634e487b7160e01b600052604160045260246000fd5b60005b838110156200048e57818101518382015260200162000474565b50506000910152565b600080600060608486031215620004ad57600080fd5b620004b8846200043e565b9250620004c8602085016200043e565b60408501519092506001600160401b0380821115620004e657600080fd5b818601915086601f830112620004fb57600080fd5b8151818111156200051057620005106200045b565b604051601f8201601f19908116603f011681019083821181831017156200053b576200053b6200045b565b816040528281528960208487010111156200055557600080fd5b6200056883602083016020880162000471565b80955050505050509250925092565b600082516200058b81846020870162000471565b9190910192915050565b6020815260008251806020840152620005b681604085016020870162000471565b601f01601f19169190910160400192915050565b6108ab80620005da6000396000f3fe60806040523661001357610011610017565b005b6100115b61001f6101a7565b6001600160a01b0316330361015f5760606001600160e01b0319600035166364d3180d60e11b810161005a576100536101da565b9150610157565b63587086bd60e11b6001600160e01b031982160161007a57610053610231565b63070d7c6960e41b6001600160e01b031982160161009a57610053610277565b621eb96f60e61b6001600160e01b03198216016100b9576100536102a8565b63a39f25e560e01b6001600160e01b03198216016100d9576100536102e8565b60405162461bcd60e51b815260206004820152604260248201527f5472616e73706172656e745570677261646561626c6550726f78793a2061646d60448201527f696e2063616e6e6f742066616c6c6261636b20746f2070726f78792074617267606482015261195d60f21b608482015260a4015b60405180910390fd5b815160208301f35b6101676102fc565b565b606061018e838360405180606001604052806027815260200161084f6027913961030c565b9392505050565b90565b6001600160a01b03163b151590565b60007fb53127684a568b3173ae13b9f8a6016e243e63b6e8ee1178d6a717850b5d61035b546001600160a01b0316919050565b60606101e4610384565b60006101f336600481846106a2565b81019061020091906106e8565b905061021d8160405180602001604052806000815250600061038f565b505060408051602081019091526000815290565b606060008061024336600481846106a2565b8101906102509190610719565b915091506102608282600161038f565b604051806020016040528060008152509250505090565b6060610281610384565b600061029036600481846106a2565b81019061029d91906106e8565b905061021d816103bb565b60606102b2610384565b60006102bc6101a7565b604080516001600160a01b03831660208201529192500160405160208183030381529060405291505090565b60606102f2610384565b60006102bc610412565b610167610307610412565b610421565b6060600080856001600160a01b03168560405161032991906107ff565b600060405180830381855af49150503d8060008114610364576040519150601f19603f3d011682016040523d82523d6000602084013e610369565b606091505b509150915061037a86838387610445565b9695505050505050565b341561016757600080fd5b610398836104c6565b6000825111806103a55750805b156103b6576103b48383610169565b505b505050565b7f7e644d79422f17c01e4894b5f4f588d331ebfa28653d42ae832dc59e38c9798f6103e46101a7565b604080516001600160a01b03928316815291841660208301520160405180910390a161040f81610506565b50565b600061041c6105bc565b905090565b3660008037600080366000845af43d6000803e808015610440573d6000f35b3d6000fd5b606083156104b45782516000036104ad576001600160a01b0385163b6104ad5760405162461bcd60e51b815260206004820152601d60248201527f416464726573733a2063616c6c20746f206e6f6e2d636f6e7472616374000000604482015260640161014e565b50816104be565b6104be83836105e4565b949350505050565b6104cf8161060e565b6040516001600160a01b038216907fbc7cd75a20ee27fd9adebab32041f755214dbc6bffa90cc0225b39da2e5c2d3b90600090a250565b6001600160a01b03811661056b5760405162461bcd60e51b815260206004820152602660248201527f455243313936373a206e65772061646d696e20697320746865207a65726f206160448201526564647265737360d01b606482015260840161014e565b807fb53127684a568b3173ae13b9f8a6016e243e63b6e8ee1178d6a717850b5d61035b805473ffffffffffffffffffffffffffffffffffffffff19166001600160a01b039290921691909117905550565b60007f360894a13ba1a3210667c828492db98dca3e2076cc3735a920a3ca505d382bbc6101cb565b8151156105f45781518083602001fd5b8060405162461bcd60e51b815260040161014e919061081b565b6001600160a01b0381163b61067b5760405162461bcd60e51b815260206004820152602d60248201527f455243313936373a206e657720696d706c656d656e746174696f6e206973206e60448201526c1bdd08184818dbdb9d1c9858dd609a1b606482015260840161014e565b807f360894a13ba1a3210667c828492db98dca3e2076cc3735a920a3ca505d382bbc61058e565b600080858511156106b257600080fd5b838611156106bf57600080fd5b5050820193919092039150565b80356001600160a01b03811681146106e357600080fd5b919050565b6000602082840312156106fa57600080fd5b61018e826106cc565b634e487b7160e01b600052604160045260246000fd5b6000806040838503121561072c57600080fd5b610735836106cc565b9150602083013567ffffffffffffffff8082111561075257600080fd5b818501915085601f83011261076657600080fd5b81358181111561077857610778610703565b604051601f8201601f19908116603f011681019083821181831017156107a0576107a0610703565b816040528281528860208487010111156107b957600080fd5b8260208601602083013760006020848301015280955050505050509250929050565b60005b838110156107f65781810151838201526020016107de565b50506000910152565b600082516108118184602087016107db565b9190910192915050565b602081526000825180602084015261083a8160408501602087016107db565b601f01601f1916919091016040019291505056fe416464726573733a206c6f772d6c6576656c2064656c65676174652063616c6c206661696c6564a2646970667358221220fb4626745ae8f971d2ea920e16c9476c772f050301b983b3f02aa85dd4e1c5c164736f6c63430008120033b53127684a568b3173ae13b9f8a6016e243e63b6e8ee1178d6a717850b5d6103416464726573733a206c6f772d6c6576656c2064656c65676174652063616c6c206661696c6564cf9d4a2ff924c5f3553e3c8485e6bc24fde822593d2c3d78c8fabaada123f8f6a26469706673582212207112cd0e3cdd10e91a81742bcf1b43259e9f07945f304a3561018d11e8a7594a64736f6c63430008120033",
  "linkReferences": {},
  "deployedLinkReferences": {}
}