{
  "_format": "hh-sol-artifact-1",
  "contractName": "MultiSigDAO",
  "sourceName": "contracts/dao/MultisigDAO.sol",
  "abi": [
    {
      "inputs": [
        {
          "internalType": "string",
          "name": "message",
          "type": "string"
        }
      ],
      "name": "InvalidInput",
      "type": "error"
    },
    {
      "anonymous": false,
      "inputs": [
        {
          "indexed": false,
          "internalType": "string",
          "name": "previousDesc",
          "type": "string"
        },
        {
          "indexed": false,
          "internalType": "string",
          "name": "currentDesc",
          "type": "string"
        }
      ],
      "name": "DescriptionUpdated",
      "type": "event"
    },
    {
      "anonymous": false,
      "inputs": [
        {
          "indexed": false,
          "internalType": "uint8",
          "name": "version",
          "type": "uint8"
        }
      ],
      "name": "Initialized",
      "type": "event"
    },
    {
      "anonymous": false,
      "inputs": [
        {
          "indexed": false,
          "internalType": "string",
          "name": "previousLogoUrl",
          "type": "string"
        },
        {
          "indexed": false,
          "internalType": "string",
          "name": "currentLogoUrl",
          "type": "string"
        }
      ],
      "name": "LogoUrlUpdated",
      "type": "event"
    },
    {
      "anonymous": false,
      "inputs": [
        {
          "indexed": false,
          "internalType": "string",
          "name": "previousName",
          "type": "string"
        },
        {
          "indexed": false,
          "internalType": "string",
          "name": "currentName",
          "type": "string"
        }
      ],
      "name": "NameUpdated",
      "type": "event"
    },
    {
      "anonymous": false,
      "inputs": [
        {
          "indexed": true,
          "internalType": "address",
          "name": "previousOwner",
          "type": "address"
        },
        {
          "indexed": true,
          "internalType": "address",
          "name": "newOwner",
          "type": "address"
        }
      ],
      "name": "OwnershipTransferred",
      "type": "event"
    },
    {
      "anonymous": false,
      "inputs": [
        {
          "indexed": false,
          "internalType": "bytes32",
          "name": "txnHash",
          "type": "bytes32"
        },
        {
          "components": [
            {
              "internalType": "address",
              "name": "to",
              "type": "address"
            },
            {
              "internalType": "uint256",
              "name": "value",
              "type": "uint256"
            },
            {
              "internalType": "bytes",
              "name": "data",
              "type": "bytes"
            },
            {
              "internalType": "enum Enum.Operation",
              "name": "operation",
              "type": "uint8"
            },
            {
              "internalType": "uint256",
              "name": "nonce",
              "type": "uint256"
            },
            {
              "internalType": "uint256",
              "name": "transactionType",
              "type": "uint256"
            }
          ],
          "indexed": false,
          "internalType": "struct MultiSigDAO.TransactionInfo",
          "name": "info",
          "type": "tuple"
        }
      ],
      "name": "TransactionCreated",
      "type": "event"
    },
    {
      "anonymous": false,
      "inputs": [
        {
          "indexed": false,
          "internalType": "string",
          "name": "previousLink",
          "type": "string"
        },
        {
          "indexed": false,
          "internalType": "string",
          "name": "currentLink",
          "type": "string"
        }
      ],
      "name": "WebLinkUpdated",
      "type": "event"
    },
    {
      "inputs": [
        {
          "internalType": "address",
          "name": "_admin",
          "type": "address"
        },
        {
          "internalType": "string",
          "name": "_name",
          "type": "string"
        },
        {
          "internalType": "string",
          "name": "_logoUrl",
          "type": "string"
        },
        {
          "internalType": "string",
          "name": "_description",
          "type": "string"
        },
        {
          "internalType": "string[]",
          "name": "_webLinks",
          "type": "string[]"
        }
      ],
      "name": "__BaseDAO_init",
      "outputs": [],
      "stateMutability": "nonpayable",
      "type": "function"
    },
    {
      "inputs": [
        {
          "internalType": "string",
          "name": "_key",
          "type": "string"
        },
        {
          "internalType": "string",
          "name": "_value",
          "type": "string"
        }
      ],
      "name": "addWebLink",
      "outputs": [],
      "stateMutability": "nonpayable",
      "type": "function"
    },
    {
      "inputs": [],
      "name": "getDaoDetail",
      "outputs": [
        {
          "internalType": "string",
          "name": "_name",
          "type": "string"
        },
        {
          "internalType": "string",
          "name": "_logoUrl",
          "type": "string"
        },
        {
          "internalType": "string",
          "name": "_webLinks",
          "type": "string"
        },
        {
          "internalType": "string",
          "name": "_description",
          "type": "string"
        },
        {
          "internalType": "address",
          "name": "_admin",
          "type": "address"
        }
      ],
      "stateMutability": "view",
      "type": "function"
    },
    {
      "inputs": [],
      "name": "getHederaGnosisSafeContractAddress",
      "outputs": [
        {
          "internalType": "address",
          "name": "",
          "type": "address"
        }
      ],
      "stateMutability": "view",
      "type": "function"
    },
    {
      "inputs": [],
      "name": "getHederaServiceVersion",
      "outputs": [
        {
          "internalType": "contract IHederaService",
          "name": "",
          "type": "address"
        }
      ],
      "stateMutability": "view",
      "type": "function"
    },
    {
      "inputs": [
        {
          "internalType": "bytes32",
          "name": "_txnHash",
          "type": "bytes32"
        }
      ],
      "name": "getTransactionInfo",
      "outputs": [
        {
          "components": [
            {
              "internalType": "address",
              "name": "to",
              "type": "address"
            },
            {
              "internalType": "uint256",
              "name": "value",
              "type": "uint256"
            },
            {
              "internalType": "bytes",
              "name": "data",
              "type": "bytes"
            },
            {
              "internalType": "enum Enum.Operation",
              "name": "operation",
              "type": "uint8"
            },
            {
              "internalType": "uint256",
              "name": "nonce",
              "type": "uint256"
            },
            {
              "internalType": "uint256",
              "name": "transactionType",
              "type": "uint256"
            }
          ],
          "internalType": "struct MultiSigDAO.TransactionInfo",
          "name": "",
          "type": "tuple"
        }
      ],
      "stateMutability": "view",
      "type": "function"
    },
    {
      "inputs": [
        {
          "internalType": "address",
          "name": "_admin",
          "type": "address"
        },
        {
          "internalType": "string",
          "name": "_name",
          "type": "string"
        },
        {
          "internalType": "string",
          "name": "_logoUrl",
          "type": "string"
        },
        {
          "internalType": "string",
          "name": "_description",
          "type": "string"
        },
        {
          "internalType": "string[]",
          "name": "_webLinks",
          "type": "string[]"
        },
        {
          "internalType": "contract HederaGnosisSafe",
          "name": "_hederaGnosisSafe",
          "type": "address"
        },
        {
          "internalType": "contract IHederaService",
          "name": "_hederaService",
          "type": "address"
        }
      ],
      "name": "initialize",
      "outputs": [],
      "stateMutability": "nonpayable",
      "type": "function"
    },
    {
      "inputs": [
        {
          "internalType": "string[]",
          "name": "items",
          "type": "string[]"
        }
      ],
      "name": "isOddLengthArray",
      "outputs": [
        {
          "internalType": "bool",
          "name": "",
          "type": "bool"
        }
      ],
      "stateMutability": "pure",
      "type": "function"
    },
    {
      "inputs": [
        {
          "internalType": "string[]",
          "name": "items",
          "type": "string[]"
        },
        {
          "internalType": "string",
          "name": "separator",
          "type": "string"
        }
      ],
      "name": "join",
      "outputs": [
        {
          "internalType": "string",
          "name": "result",
          "type": "string"
        }
      ],
      "stateMutability": "pure",
      "type": "function"
    },
    {
      "inputs": [],
      "name": "owner",
      "outputs": [
        {
          "internalType": "address",
          "name": "",
          "type": "address"
        }
      ],
      "stateMutability": "view",
      "type": "function"
    },
    {
      "inputs": [
        {
          "internalType": "address",
          "name": "_to",
          "type": "address"
        },
        {
          "internalType": "bytes",
          "name": "_data",
          "type": "bytes"
        },
        {
          "internalType": "enum Enum.Operation",
          "name": "_operation",
          "type": "uint8"
        },
        {
          "internalType": "uint256",
          "name": "_type",
          "type": "uint256"
        }
      ],
      "name": "proposeTransaction",
      "outputs": [
        {
          "internalType": "bytes32",
          "name": "",
          "type": "bytes32"
        }
      ],
      "stateMutability": "payable",
      "type": "function"
    },
    {
      "inputs": [
        {
          "internalType": "address",
          "name": "_token",
          "type": "address"
        },
        {
          "internalType": "address",
          "name": "_receiver",
          "type": "address"
        },
        {
          "internalType": "uint256",
          "name": "_amount",
          "type": "uint256"
        }
      ],
      "name": "proposeTransferTransaction",
      "outputs": [
        {
          "internalType": "bytes32",
          "name": "",
          "type": "bytes32"
        }
      ],
      "stateMutability": "payable",
      "type": "function"
    },
    {
      "inputs": [],
      "name": "renounceOwnership",
      "outputs": [],
      "stateMutability": "nonpayable",
      "type": "function"
    },
    {
      "inputs": [
        {
          "internalType": "bytes32",
          "name": "_txnHash",
          "type": "bytes32"
        }
      ],
      "name": "state",
      "outputs": [
        {
          "internalType": "enum MultiSigDAO.TransactionState",
          "name": "",
          "type": "uint8"
        }
      ],
      "stateMutability": "view",
      "type": "function"
    },
    {
      "inputs": [
        {
          "internalType": "address",
          "name": "newOwner",
          "type": "address"
        }
      ],
      "name": "transferOwnership",
      "outputs": [],
      "stateMutability": "nonpayable",
      "type": "function"
    },
    {
      "inputs": [
        {
          "internalType": "string",
          "name": "_desc",
          "type": "string"
        }
      ],
      "name": "updateDescription",
      "outputs": [],
      "stateMutability": "nonpayable",
      "type": "function"
    },
    {
      "inputs": [
        {
          "internalType": "string",
          "name": "_logoUrl",
          "type": "string"
        }
      ],
      "name": "updateLogoURL",
      "outputs": [],
      "stateMutability": "nonpayable",
      "type": "function"
    },
    {
      "inputs": [
        {
          "internalType": "string",
          "name": "_name",
          "type": "string"
        }
      ],
      "name": "updateName",
      "outputs": [],
      "stateMutability": "nonpayable",
      "type": "function"
    },
    {
      "inputs": [
        {
          "internalType": "contract IHederaService",
          "name": "newHederaService",
          "type": "address"
        }
      ],
      "name": "upgradeHederaService",
      "outputs": [],
      "stateMutability": "nonpayable",
      "type": "function"
    }
  ],
  "bytecode": "0x608060405234801561001057600080fd5b50612528806100206000396000f3fe6080604052600436106101145760003560e01c80638da5cb5b116100a0578063d26d681f11610064578063d26d681f146102f7578063e6a8989514610317578063e735b48a14610347578063f2fde38b14610367578063fca1c0b91461038757600080fd5b80638da5cb5b146102605780639a20e1fe1461027e578063acef78bc1461029e578063bdb3691f146102c4578063bdf355b1146102e457600080fd5b80636dab6f75116100e75780636dab6f75146101bb578063715018a6146101ed5780637ec4e9761461020257806380896acc1461022257806384da92a71461024057600080fd5b80630e39228e1461011957806349e6b62c1461013f57806361d585da1461016c57806366c5b9a614610199575b600080fd5b61012c610127366004611b3d565b6103b4565b6040519081526020015b60405180910390f35b34801561014b57600080fd5b5061015f61015a366004611bbf565b6104eb565b6040516101369190611c52565b34801561017857600080fd5b5061018c610187366004611bbf565b610663565b6040516101369190611cbe565b3480156101a557600080fd5b506101b96101b4366004611d9e565b6108cf565b005b3480156101c757600080fd5b50606b546001600160a01b03165b6040516001600160a01b039091168152602001610136565b3480156101f957600080fd5b506101b9610ba5565b34801561020e57600080fd5b506101b961021d366004611e5e565b610bb9565b34801561022e57600080fd5b50606c546001600160a01b03166101d5565b34801561024c57600080fd5b506101b961025b366004611e5e565b610c0b565b34801561026c57600080fd5b506033546001600160a01b03166101d5565b34801561028a57600080fd5b506101b9610299366004611e9b565b610ca4565b3480156102aa57600080fd5b506102b3610ec2565b604051610136959493929190611eff565b3480156102d057600080fd5b506101b96102df366004611f68565b611165565b61012c6102f2366004612047565b6112c4565b34801561030357600080fd5b506101b9610312366004612088565b6113af565b34801561032357600080fd5b506103376103323660046120a5565b61143e565b6040519015158152602001610136565b34801561035357600080fd5b506101b9610362366004611e5e565b611456565b34801561037357600080fd5b506101b9610382366004612088565b6114f6565b34801561039357600080fd5b506103a76103a23660046120da565b61156f565b6040516101369190612111565b606c54604051633c75d0af60e11b8152600091829182916001600160a01b0316906378eba15e906103ef908a9034908b908b90600401612124565b60408051808303816000875af115801561040d573d6000803e3d6000fd5b505050506040513d601f19601f820116820180604052508101906104319190612164565b6000828152606d6020526040902080546001600160a01b0319166001600160a01b038b16178155346001820155919350915060028101610471888261220a565b5060038101805487919060ff19166001838181111561049257610492611c28565b021790555060048101829055600581018590556040517f8e550b824c277759ddd58b2718a2d81f9fa0a33b2b4ec7196e74ac69a0ed3734906104d79085908490612347565b60405180910390a150909695505050505050565b6104f3611a29565b6000828152606d60209081526040808320815160c08101835281546001600160a01b03168152600182015493810193909352600281018054919284019161053990612188565b80601f016020809104026020016040519081016040528092919081815260200182805461056590612188565b80156105b25780601f10610587576101008083540402835291602001916105b2565b820191906000526020600020905b81548152906001019060200180831161059557829003601f168201915b5050509183525050600382015460209091019060ff1660018111156105d9576105d9611c28565b60018111156105ea576105ea611c28565b8152602001600482015481526020016005820154815250509050806080015160000361065d5760405162461bcd60e51b815260206004820152601960248201527f4d756c746953696744414f3a206e6f2074786e2065786973740000000000000060448201526064015b60405180910390fd5b92915050565b6000818152606d60209081526040808320815160c08101835281546001600160a01b03168152600182015493810193909352600281018054859493840191906106ab90612188565b80601f01602080910402602001604051908101604052809291908181526020018280546106d790612188565b80156107245780601f106106f957610100808354040283529160200191610724565b820191906000526020600020905b81548152906001019060200180831161070757829003601f168201915b5050509183525050600382015460209091019060ff16600181111561074b5761074b611c28565b600181111561075c5761075c611c28565b815260200160048201548152602001600582015481525050905080608001516000036107ca5760405162461bcd60e51b815260206004820152601960248201527f4d756c746953696744414f3a206e6f2074786e206578697374000000000000006044820152606401610654565b606c546040516301244d4760e11b8152600481018590526001600160a01b03909116906302489a8e90602401602060405180830381865afa158015610813573d6000803e3d6000fd5b505050506040513d601f19601f8201168201806040525081019061083791906123ba565b156108455750600292915050565b606c5460405163a7f173ab60e01b8152600481018590526001600160a01b039091169063a7f173ab90602401602060405180830381865afa15801561088e573d6000803e3d6000fd5b505050506040513d601f19601f820116820180604052508101906108b291906123ba565b156108c05750600192915050565b50600092915050565b50919050565b600054610100900460ff1661093a5760405162461bcd60e51b815260206004820152602b60248201527f496e697469616c697a61626c653a20636f6e7472616374206973206e6f74206960448201526a6e697469616c697a696e6760a81b6064820152608401610654565b6001600160a01b0385166109915760405163d647364f60e01b815260206004820152601e60248201527f4261736544414f3a2061646d696e2061646472657373206973207a65726f00006044820152606401610654565b83516000036109dc5760405163d647364f60e01b81526020600482015260166024820152754261736544414f3a206e616d6520697320656d70747960501b6044820152606401610654565b8151600003610a2e5760405163d647364f60e01b815260206004820152601d60248201527f4261736544414f3a206465736372697074696f6e20697320656d7074790000006044820152606401610654565b610a378161143e565b15610a965760405163d647364f60e01b815260206004820152602860248201527f4261736544414f3a206c696e6b73206d757374206265206576656e206c656e67604482015267746820617272617960c01b6064820152608401610654565b606680546001600160a01b0319166001600160a01b0387161790556065610abd858261220a565b506067610aca848261220a565b506068610ad7838261220a565b50606654610aed906001600160a01b0316611601565b610af681611653565b7ff19e969be7affb98a1d812094e0f24ecca36f1eabd6dd592c97020d47c64a00e6065604051610b2691906123dc565b60405180910390a17ff3672c8ff2861c97a6aebc9d331e5be084099f9979e991286ff2d8817bc246766067604051610b5e91906123dc565b60405180910390a17fe21432e1fe2b572d5803dd7316b7a854952317b42017f920a616ec70cdb8a5c16068604051610b9691906123dc565b60405180910390a15050505050565b610bad6118af565b610bb76000611601565b565b610bc16118af565b7ff3672c8ff2861c97a6aebc9d331e5be084099f9979e991286ff2d8817bc24676606782604051610bf39291906123fd565b60405180910390a16067610c07828261220a565b5050565b610c136118af565b8051600003610c5e5760405163d647364f60e01b81526020600482015260166024820152754261736544414f3a206e616d6520697320656d70747960501b6044820152606401610654565b7ff19e969be7affb98a1d812094e0f24ecca36f1eabd6dd592c97020d47c64a00e606582604051610c909291906123fd565b60405180910390a16065610c07828261220a565b610cac6118af565b6000610da26069805480602002602001604051908101604052809291908181526020016000905b82821015610d7f578382906000526020600020018054610cf290612188565b80601f0160208091040260200160405190810160405280929190818152602001828054610d1e90612188565b8015610d6b5780601f10610d4057610100808354040283529160200191610d6b565b820191906000526020600020905b815481529060010190602001808311610d4e57829003601f168201915b505050505081526020019060010190610cd3565b50505050604051806040016040528060018152602001600b60fa1b81525061156f565b9050610dae8383611909565b6000610e816069805480602002602001604051908101604052809291908181526020016000905b82821015610d7f578382906000526020600020018054610df490612188565b80601f0160208091040260200160405190810160405280929190818152602001828054610e2090612188565b8015610e6d5780601f10610e4257610100808354040283529160200191610e6d565b820191906000526020600020905b815481529060010190602001808311610e5057829003601f168201915b505050505081526020019060010190610dd5565b90507f6d4399c79b2dee44cc5e581581020b8ae0051dc55c1c47b96095a4d15605130f8282604051610eb4929190612422565b60405180910390a150505050565b606080606080600060656067610f9f6069805480602002602001604051908101604052809291908181526020016000905b82821015610d7f578382906000526020600020018054610f1290612188565b80601f0160208091040260200160405190810160405280929190818152602001828054610f3e90612188565b8015610f8b5780601f10610f6057610100808354040283529160200191610f8b565b820191906000526020600020905b815481529060010190602001808311610f6e57829003601f168201915b505050505081526020019060010190610ef3565b60665483546068916001600160a01b0316908590610fbc90612188565b80601f0160208091040260200160405190810160405280929190818152602001828054610fe890612188565b80156110355780601f1061100a57610100808354040283529160200191611035565b820191906000526020600020905b81548152906001019060200180831161101857829003601f168201915b5050505050945083805461104890612188565b80601f016020809104026020016040519081016040528092919081815260200182805461107490612188565b80156110c15780601f10611096576101008083540402835291602001916110c1565b820191906000526020600020905b8154815290600101906020018083116110a457829003601f168201915b505050505093508180546110d490612188565b80601f016020809104026020016040519081016040528092919081815260200182805461110090612188565b801561114d5780601f106111225761010080835404028352916020019161114d565b820191906000526020600020905b81548152906001019060200180831161113057829003601f168201915b50505050509150945094509450945094509091929394565b600054610100900460ff16158080156111855750600054600160ff909116105b8061119f5750303b15801561119f575060005460ff166001145b6112025760405162461bcd60e51b815260206004820152602e60248201527f496e697469616c697a61626c653a20636f6e747261637420697320616c72656160448201526d191e481a5b9a5d1a585b1a5e995960921b6064820152608401610654565b6000805460ff191660011790558015611225576000805461ff0019166101001790555b606b80546001600160a01b038085166001600160a01b031992831617909255606c80549286169290911691909117905561126288888888886108cf565b606a80546001600160a01b0319163317905580156112ba576000805461ff0019169055604051600181527f7f26b83ff96e1f2b6a682f133852f6798a09c465da95921460cefb38474024989060200160405180910390a15b5050505050505050565b606c54606b5460405163658af36b60e01b81526001600160a01b039182166004820152858216602482015260448101849052336064820152600092919091169063658af36b90608401600060405180830381600087803b15801561132757600080fd5b505af115801561133b573d6000803e3d6000fd5b5050604080516001600160a01b038881166024830152878116604483015260648083018890528351808403909101815260849092019092526020810180516001600160e01b0316635d9a6dad60e11b179052606c54909350600092506113a59116838360016103b4565b9695505050505050565b606a546001600160a01b0316331461141c5760405162461bcd60e51b815260206004820152602a60248201527f4d756c746953696744414f3a2063616c6c6572206973206e6f742074686520736044820152693cb9ba32b6903ab9b2b960b11b6064820152608401610654565b606b80546001600160a01b0319166001600160a01b0392909216919091179055565b60006002825161144e9190612435565b151592915050565b61145e6118af565b80516000036114b05760405163d647364f60e01b815260206004820152601d60248201527f4261736544414f3a206465736372697074696f6e20697320656d7074790000006044820152606401610654565b7fe21432e1fe2b572d5803dd7316b7a854952317b42017f920a616ec70cdb8a5c16068826040516114e29291906123fd565b60405180910390a16068610c07828261220a565b6114fe6118af565b6001600160a01b0381166115635760405162461bcd60e51b815260206004820152602660248201527f4f776e61626c653a206e6577206f776e657220697320746865207a65726f206160448201526564647265737360d01b6064820152608401610654565b61156c81611601565b50565b815160609080156115fa578360008151811061158d5761158d612457565b602002602001015191506000600190505b818110156115f85782848683815181106115ba576115ba612457565b60200260200101516040516020016115d49392919061246d565b604051602081830303815290604052925080806115f0906124c6565b91505061159e565b505b5092915050565b603380546001600160a01b038381166001600160a01b0319831681179093556040519116919082907f8be0079c531659141344cd1fd0a4f28419497f9722a3daafe3b4186f6b6457e090600090a35050565b60006117266069805480602002602001604051908101604052809291908181526020016000905b82821015610d7f57838290600052602060002001805461169990612188565b80601f01602080910402602001604051908101604052809291908181526020018280546116c590612188565b80156117125780601f106116e757610100808354040283529160200191611712565b820191906000526020600020905b8154815290600101906020018083116116f557829003601f168201915b50505050508152602001906001019061167a565b905060005b825181101561179b57600083828151811061174857611748612457565b6020026020010151905060008483600161176291906124df565b8151811061177257611772612457565b602002602001015190506117868282611909565b5061179490508160026124df565b905061172b565b50600061186f6069805480602002602001604051908101604052809291908181526020016000905b82821015610d7f5783829060005260206000200180546117e290612188565b80601f016020809104026020016040519081016040528092919081815260200182805461180e90612188565b801561185b5780601f106118305761010080835404028352916020019161185b565b820191906000526020600020905b81548152906001019060200180831161183e57829003601f168201915b5050505050815260200190600101906117c3565b90507f6d4399c79b2dee44cc5e581581020b8ae0051dc55c1c47b96095a4d15605130f82826040516118a2929190612422565b60405180910390a1505050565b6033546001600160a01b03163314610bb75760405162461bcd60e51b815260206004820181905260248201527f4f776e61626c653a2063616c6c6572206973206e6f7420746865206f776e65726044820152606401610654565b600082511161195a5760405162461bcd60e51b815260206004820152601b60248201527f4261736544414f3a20696e76616c6964206b65792070617373656400000000006044820152606401610654565b60008151116119ab5760405162461bcd60e51b815260206004820152601d60248201527f4261736544414f3a20696e76616c69642076616c7565207061737365640000006044820152606401610654565b606980546001810182556000919091527f7fb4302e8e91f9110a6554c2c0a24601252c2a42c2220ca988efcfe399914308016119e7838261220a565b50606980546001810182556000919091527f7fb4302e8e91f9110a6554c2c0a24601252c2a42c2220ca988efcfe39991430801611a24828261220a565b505050565b6040518060c0016040528060006001600160a01b03168152602001600081526020016060815260200160006001811115611a6557611a65611c28565b815260200160008152602001600081525090565b6001600160a01b038116811461156c57600080fd5b8035611a9981611a79565b919050565b634e487b7160e01b600052604160045260246000fd5b604051601f8201601f1916810167ffffffffffffffff81118282101715611add57611add611a9e565b604052919050565b600067ffffffffffffffff831115611aff57611aff611a9e565b611b12601f8401601f1916602001611ab4565b9050828152838383011115611b2657600080fd5b828260208301376000602084830101529392505050565b60008060008060808587031215611b5357600080fd5b8435611b5e81611a79565b9350602085013567ffffffffffffffff811115611b7a57600080fd5b8501601f81018713611b8b57600080fd5b611b9a87823560208401611ae5565b935050604085013560028110611baf57600080fd5b9396929550929360600135925050565b600060208284031215611bd157600080fd5b5035919050565b60005b83811015611bf3578181015183820152602001611bdb565b50506000910152565b60008151808452611c14816020860160208601611bd8565b601f01601f19169290920160200192915050565b634e487b7160e01b600052602160045260246000fd5b60028110611c4e57611c4e611c28565b9052565b602081526001600160a01b038251166020820152602082015160408201526000604083015160c06060840152611c8b60e0840182611bfc565b90506060840151611c9f6080850182611c3e565b50608084015160a084015260a084015160c08401528091505092915050565b6020810160038310611cd257611cd2611c28565b91905290565b600082601f830112611ce957600080fd5b611cf883833560208501611ae5565b9392505050565b600082601f830112611d1057600080fd5b8135602067ffffffffffffffff80831115611d2d57611d2d611a9e565b8260051b611d3c838201611ab4565b9384528581018301938381019088861115611d5657600080fd5b84880192505b85831015611d9257823584811115611d745760008081fd5b611d828a87838c0101611cd8565b8352509184019190840190611d5c565b98975050505050505050565b600080600080600060a08688031215611db657600080fd5b8535611dc181611a79565b9450602086013567ffffffffffffffff80821115611dde57600080fd5b611dea89838a01611cd8565b95506040880135915080821115611e0057600080fd5b611e0c89838a01611cd8565b94506060880135915080821115611e2257600080fd5b611e2e89838a01611cd8565b93506080880135915080821115611e4457600080fd5b50611e5188828901611cff565b9150509295509295909350565b600060208284031215611e7057600080fd5b813567ffffffffffffffff811115611e8757600080fd5b611e9384828501611cd8565b949350505050565b60008060408385031215611eae57600080fd5b823567ffffffffffffffff80821115611ec657600080fd5b611ed286838701611cd8565b93506020850135915080821115611ee857600080fd5b50611ef585828601611cd8565b9150509250929050565b60a081526000611f1260a0830188611bfc565b8281036020840152611f248188611bfc565b90508281036040840152611f388187611bfc565b90508281036060840152611f4c8186611bfc565b9150506001600160a01b03831660808301529695505050505050565b600080600080600080600060e0888a031215611f8357600080fd5b611f8c88611a8e565b9650602088013567ffffffffffffffff80821115611fa957600080fd5b611fb58b838c01611cd8565b975060408a0135915080821115611fcb57600080fd5b611fd78b838c01611cd8565b965060608a0135915080821115611fed57600080fd5b611ff98b838c01611cd8565b955060808a013591508082111561200f57600080fd5b5061201c8a828b01611cff565b93505061202b60a08901611a8e565b915061203960c08901611a8e565b905092959891949750929550565b60008060006060848603121561205c57600080fd5b833561206781611a79565b9250602084013561207781611a79565b929592945050506040919091013590565b60006020828403121561209a57600080fd5b8135611cf881611a79565b6000602082840312156120b757600080fd5b813567ffffffffffffffff8111156120ce57600080fd5b611e9384828501611cff565b600080604083850312156120ed57600080fd5b823567ffffffffffffffff8082111561210557600080fd5b611ed286838701611cff565b602081526000611cf86020830184611bfc565b6001600160a01b038516815283602082015260806040820152600061214c6080830185611bfc565b905061215b6060830184611c3e565b95945050505050565b6000806040838503121561217757600080fd5b505080516020909101519092909150565b600181811c9082168061219c57607f821691505b6020821081036108c957634e487b7160e01b600052602260045260246000fd5b601f821115611a2457600081815260208120601f850160051c810160208610156121e35750805b601f850160051c820191505b81811015612202578281556001016121ef565b505050505050565b815167ffffffffffffffff81111561222457612224611a9e565b612238816122328454612188565b846121bc565b602080601f83116001811461226d57600084156122555750858301515b600019600386901b1c1916600185901b178555612202565b600085815260208120601f198616915b8281101561229c5788860151825594840194600190910190840161227d565b50858210156122ba5787850151600019600388901b60f8161c191681555b5050505050600190811b01905550565b600081546122d781612188565b8085526020600183811680156122f4576001811461230e5761233c565b60ff1985168884015283151560051b88018301955061233c565b866000528260002060005b858110156123345781548a8201860152908301908401612319565b890184019650505b505050505092915050565b828152604060208201526001600160a01b0382541660408201526001820154606082015260c0608082015260006123856101008301600285016122ca565b60ff60038501541661239a60a0850182611c3e565b50600484015460c0840152600584015460e0840152809150509392505050565b6000602082840312156123cc57600080fd5b81518015158114611cf857600080fd5b6040815260006040820152606060208201526000611cf860608301846122ca565b60408152600061241060408301856122ca565b828103602084015261215b8185611bfc565b6040815260006124106040830185611bfc565b60008261245257634e487b7160e01b600052601260045260246000fd5b500690565b634e487b7160e01b600052603260045260246000fd5b6000845161247f818460208901611bd8565b845190830190612493818360208901611bd8565b84519101906124a6818360208801611bd8565b0195945050505050565b634e487b7160e01b600052601160045260246000fd5b6000600182016124d8576124d86124b0565b5060010190565b8082018082111561065d5761065d6124b056fea2646970667358221220f8c3b7d47f98db9d03dac8ec23baee50b177f57c1c4eb0abb2ea72e5e999bbbb64736f6c63430008120033",
  "linkReferences": {},
  "deployedLinkReferences": {}
}