{
  "_format": "hh-sol-artifact-1",
  "contractName": "MultiSigDAO",
  "sourceName": "contracts/dao/MultisigDAO.sol",
  "abi": [
    {
      "inputs": [
        {
          "internalType": "string",
          "name": "message",
          "type": "string"
        }
      ],
      "name": "InvalidInput",
      "type": "error"
    },
    {
      "anonymous": false,
      "inputs": [
        {
          "indexed": false,
          "internalType": "string",
          "name": "previousDesc",
          "type": "string"
        },
        {
          "indexed": false,
          "internalType": "string",
          "name": "currentDesc",
          "type": "string"
        }
      ],
      "name": "DescriptionUpdated",
      "type": "event"
    },
    {
      "anonymous": false,
      "inputs": [
        {
          "indexed": false,
          "internalType": "uint8",
          "name": "version",
          "type": "uint8"
        }
      ],
      "name": "Initialized",
      "type": "event"
    },
    {
      "anonymous": false,
      "inputs": [
        {
          "indexed": false,
          "internalType": "string",
          "name": "previousLogoUrl",
          "type": "string"
        },
        {
          "indexed": false,
          "internalType": "string",
          "name": "currentLogoUrl",
          "type": "string"
        }
      ],
      "name": "LogoUrlUpdated",
      "type": "event"
    },
    {
      "anonymous": false,
      "inputs": [
        {
          "indexed": false,
          "internalType": "string",
          "name": "previousName",
          "type": "string"
        },
        {
          "indexed": false,
          "internalType": "string",
          "name": "currentName",
          "type": "string"
        }
      ],
      "name": "NameUpdated",
      "type": "event"
    },
    {
      "anonymous": false,
      "inputs": [
        {
          "indexed": true,
          "internalType": "address",
          "name": "previousOwner",
          "type": "address"
        },
        {
          "indexed": true,
          "internalType": "address",
          "name": "newOwner",
          "type": "address"
        }
      ],
      "name": "OwnershipTransferred",
      "type": "event"
    },
    {
      "anonymous": false,
      "inputs": [
        {
          "indexed": false,
          "internalType": "bytes32",
          "name": "txnHash",
          "type": "bytes32"
        },
        {
          "components": [
            {
              "internalType": "address",
              "name": "to",
              "type": "address"
            },
            {
              "internalType": "uint256",
              "name": "value",
              "type": "uint256"
            },
            {
              "internalType": "bytes",
              "name": "data",
              "type": "bytes"
            },
            {
              "internalType": "enum Enum.Operation",
              "name": "operation",
              "type": "uint8"
            },
            {
              "internalType": "uint256",
              "name": "nonce",
              "type": "uint256"
            },
            {
              "internalType": "uint256",
              "name": "transactionType",
              "type": "uint256"
            },
            {
              "internalType": "string",
              "name": "title",
              "type": "string"
            },
            {
              "internalType": "string",
              "name": "description",
              "type": "string"
            },
            {
              "internalType": "string",
              "name": "linkToDiscussion",
              "type": "string"
            },
            {
              "internalType": "address",
              "name": "creator",
              "type": "address"
            }
          ],
          "indexed": false,
          "internalType": "struct MultiSigDAO.TransactionInfo",
          "name": "info",
          "type": "tuple"
        }
      ],
      "name": "TransactionCreated",
      "type": "event"
    },
    {
      "anonymous": false,
      "inputs": [
        {
          "indexed": false,
          "internalType": "string",
          "name": "previousLink",
          "type": "string"
        },
        {
          "indexed": false,
          "internalType": "string",
          "name": "currentLink",
          "type": "string"
        }
      ],
      "name": "WebLinkUpdated",
      "type": "event"
    },
    {
      "inputs": [
        {
          "internalType": "address",
          "name": "_admin",
          "type": "address"
        },
        {
          "internalType": "string",
          "name": "_name",
          "type": "string"
        },
        {
          "internalType": "string",
          "name": "_logoUrl",
          "type": "string"
        },
        {
          "internalType": "string",
          "name": "_description",
          "type": "string"
        },
        {
          "internalType": "string[]",
          "name": "_webLinks",
          "type": "string[]"
        }
      ],
      "name": "__BaseDAO_init",
      "outputs": [],
      "stateMutability": "nonpayable",
      "type": "function"
    },
    {
      "inputs": [
        {
          "internalType": "string",
          "name": "_key",
          "type": "string"
        },
        {
          "internalType": "string",
          "name": "_value",
          "type": "string"
        }
      ],
      "name": "addWebLink",
      "outputs": [],
      "stateMutability": "nonpayable",
      "type": "function"
    },
    {
      "inputs": [
        {
          "internalType": "bytes32",
          "name": "_txnHash",
          "type": "bytes32"
        }
      ],
      "name": "getApprovalCounts",
      "outputs": [
        {
          "internalType": "uint256",
          "name": "",
          "type": "uint256"
        }
      ],
      "stateMutability": "view",
      "type": "function"
    },
    {
      "inputs": [],
      "name": "getDaoDetail",
      "outputs": [
        {
          "internalType": "string",
          "name": "_name",
          "type": "string"
        },
        {
          "internalType": "string",
          "name": "_logoUrl",
          "type": "string"
        },
        {
          "internalType": "string",
          "name": "_webLinks",
          "type": "string"
        },
        {
          "internalType": "string",
          "name": "_description",
          "type": "string"
        },
        {
          "internalType": "address",
          "name": "_admin",
          "type": "address"
        }
      ],
      "stateMutability": "view",
      "type": "function"
    },
    {
      "inputs": [],
      "name": "getHederaGnosisSafeContractAddress",
      "outputs": [
        {
          "internalType": "address",
          "name": "",
          "type": "address"
        }
      ],
      "stateMutability": "view",
      "type": "function"
    },
    {
      "inputs": [],
      "name": "getHederaServiceVersion",
      "outputs": [
        {
          "internalType": "contract IHederaService",
          "name": "",
          "type": "address"
        }
      ],
      "stateMutability": "view",
      "type": "function"
    },
    {
      "inputs": [],
      "name": "getMultiSendContractAddress",
      "outputs": [
        {
          "internalType": "address",
          "name": "",
          "type": "address"
        }
      ],
      "stateMutability": "view",
      "type": "function"
    },
    {
      "inputs": [
        {
          "internalType": "bytes32",
          "name": "_txnHash",
          "type": "bytes32"
        }
      ],
      "name": "getTransactionInfo",
      "outputs": [
        {
          "components": [
            {
              "internalType": "address",
              "name": "to",
              "type": "address"
            },
            {
              "internalType": "uint256",
              "name": "value",
              "type": "uint256"
            },
            {
              "internalType": "bytes",
              "name": "data",
              "type": "bytes"
            },
            {
              "internalType": "enum Enum.Operation",
              "name": "operation",
              "type": "uint8"
            },
            {
              "internalType": "uint256",
              "name": "nonce",
              "type": "uint256"
            },
            {
              "internalType": "uint256",
              "name": "transactionType",
              "type": "uint256"
            },
            {
              "internalType": "string",
              "name": "title",
              "type": "string"
            },
            {
              "internalType": "string",
              "name": "description",
              "type": "string"
            },
            {
              "internalType": "string",
              "name": "linkToDiscussion",
              "type": "string"
            },
            {
              "internalType": "address",
              "name": "creator",
              "type": "address"
            }
          ],
          "internalType": "struct MultiSigDAO.TransactionInfo",
          "name": "",
          "type": "tuple"
        }
      ],
      "stateMutability": "view",
      "type": "function"
    },
    {
      "inputs": [
        {
          "internalType": "address",
          "name": "_admin",
          "type": "address"
        },
        {
          "internalType": "string",
          "name": "_name",
          "type": "string"
        },
        {
          "internalType": "string",
          "name": "_logoUrl",
          "type": "string"
        },
        {
          "internalType": "string",
          "name": "_description",
          "type": "string"
        },
        {
          "internalType": "string[]",
          "name": "_webLinks",
          "type": "string[]"
        },
        {
          "internalType": "contract HederaGnosisSafe",
          "name": "_hederaGnosisSafe",
          "type": "address"
        },
        {
          "internalType": "contract IHederaService",
          "name": "_hederaService",
          "type": "address"
        },
        {
          "internalType": "contract HederaMultiSend",
          "name": "_multiSend",
          "type": "address"
        }
      ],
      "name": "initialize",
      "outputs": [],
      "stateMutability": "nonpayable",
      "type": "function"
    },
    {
      "inputs": [
        {
          "internalType": "string[]",
          "name": "items",
          "type": "string[]"
        }
      ],
      "name": "isOddLengthArray",
      "outputs": [
        {
          "internalType": "bool",
          "name": "",
          "type": "bool"
        }
      ],
      "stateMutability": "pure",
      "type": "function"
    },
    {
      "inputs": [
        {
          "internalType": "string[]",
          "name": "items",
          "type": "string[]"
        },
        {
          "internalType": "string",
          "name": "separator",
          "type": "string"
        }
      ],
      "name": "join",
      "outputs": [
        {
          "internalType": "string",
          "name": "result",
          "type": "string"
        }
      ],
      "stateMutability": "pure",
      "type": "function"
    },
    {
      "inputs": [],
      "name": "owner",
      "outputs": [
        {
          "internalType": "address",
          "name": "",
          "type": "address"
        }
      ],
      "stateMutability": "view",
      "type": "function"
    },
    {
      "inputs": [
        {
          "internalType": "address[]",
          "name": "_targets",
          "type": "address[]"
        },
        {
          "internalType": "uint256[]",
          "name": "_values",
          "type": "uint256[]"
        },
        {
          "internalType": "bytes[]",
          "name": "_calldatas",
          "type": "bytes[]"
        },
        {
          "internalType": "string",
          "name": "title",
          "type": "string"
        },
        {
          "internalType": "string",
          "name": "desc",
          "type": "string"
        },
        {
          "internalType": "string",
          "name": "linkToDiscussion",
          "type": "string"
        }
      ],
      "name": "proposeBatchTransaction",
      "outputs": [
        {
          "internalType": "bytes32",
          "name": "",
          "type": "bytes32"
        }
      ],
      "stateMutability": "payable",
      "type": "function"
    },
    {
      "inputs": [
        {
          "internalType": "address",
          "name": "_to",
          "type": "address"
        },
        {
          "internalType": "bytes",
          "name": "_data",
          "type": "bytes"
        },
        {
          "internalType": "enum Enum.Operation",
          "name": "_operation",
          "type": "uint8"
        },
        {
          "internalType": "uint256",
          "name": "_type",
          "type": "uint256"
        },
        {
          "internalType": "string",
          "name": "title",
          "type": "string"
        },
        {
          "internalType": "string",
          "name": "desc",
          "type": "string"
        },
        {
          "internalType": "string",
          "name": "linkToDiscussion",
          "type": "string"
        }
      ],
      "name": "proposeTransaction",
      "outputs": [
        {
          "internalType": "bytes32",
          "name": "",
          "type": "bytes32"
        }
      ],
      "stateMutability": "payable",
      "type": "function"
    },
    {
      "inputs": [
        {
          "internalType": "address",
          "name": "_token",
          "type": "address"
        },
        {
          "internalType": "address",
          "name": "_receiver",
          "type": "address"
        },
        {
          "internalType": "uint256",
          "name": "_amount",
          "type": "uint256"
        },
        {
          "internalType": "string",
          "name": "title",
          "type": "string"
        },
        {
          "internalType": "string",
          "name": "desc",
          "type": "string"
        },
        {
          "internalType": "string",
          "name": "linkToDiscussion",
          "type": "string"
        }
      ],
      "name": "proposeTransferTransaction",
      "outputs": [
        {
          "internalType": "bytes32",
          "name": "",
          "type": "bytes32"
        }
      ],
      "stateMutability": "payable",
      "type": "function"
    },
    {
      "inputs": [],
      "name": "renounceOwnership",
      "outputs": [],
      "stateMutability": "nonpayable",
      "type": "function"
    },
    {
      "inputs": [
        {
          "internalType": "bytes32",
          "name": "_txnHash",
          "type": "bytes32"
        }
      ],
      "name": "state",
      "outputs": [
        {
          "internalType": "enum MultiSigDAO.TransactionState",
          "name": "",
          "type": "uint8"
        }
      ],
      "stateMutability": "view",
      "type": "function"
    },
    {
      "inputs": [
        {
          "internalType": "address",
          "name": "newOwner",
          "type": "address"
        }
      ],
      "name": "transferOwnership",
      "outputs": [],
      "stateMutability": "nonpayable",
      "type": "function"
    },
    {
      "inputs": [
        {
          "internalType": "string",
          "name": "_desc",
          "type": "string"
        }
      ],
      "name": "updateDescription",
      "outputs": [],
      "stateMutability": "nonpayable",
      "type": "function"
    },
    {
      "inputs": [
        {
          "internalType": "string",
          "name": "_logoUrl",
          "type": "string"
        }
      ],
      "name": "updateLogoURL",
      "outputs": [],
      "stateMutability": "nonpayable",
      "type": "function"
    },
    {
      "inputs": [
        {
          "internalType": "string",
          "name": "_name",
          "type": "string"
        }
      ],
      "name": "updateName",
      "outputs": [],
      "stateMutability": "nonpayable",
      "type": "function"
    },
    {
      "inputs": [
        {
          "internalType": "contract IHederaService",
          "name": "newHederaService",
          "type": "address"
        }
      ],
      "name": "upgradeHederaService",
      "outputs": [],
      "stateMutability": "nonpayable",
      "type": "function"
    },
    {
      "inputs": [
        {
          "internalType": "contract HederaMultiSend",
          "name": "_multiSend",
          "type": "address"
        }
      ],
      "name": "upgradeMultiSend",
      "outputs": [],
      "stateMutability": "nonpayable",
      "type": "function"
    }
  ],
  "bytecode": "0x608060405234801561001057600080fd5b5061311e806100206000396000f3fe6080604052600436106101705760003560e01c806384da92a7116100d6578063d26d681f1161007f578063e735b48a11610059578063e735b48a14610414578063f2fde38b14610434578063fca1c0b91461045457600080fd5b8063d26d681f146103b1578063e67d0ebb146103d1578063e6a89895146103e457600080fd5b80639a20e1fe116100b05780639a20e1fe1461034b5780639b316eda1461036b578063acef78bc1461038b57600080fd5b806384da92a7146102fa5780638da5cb5b1461031a5780639a2002471461033857600080fd5b806361d585da11610138578063715018a611610112578063715018a6146102a75780637ec4e976146102bc57806380896acc146102dc57600080fd5b806361d585da1461023c57806366c5b9a6146102695780636dab6f751461028957600080fd5b80631792440314610175578063193f6b34146101ac57806322485064146101da578063402482e4146101fc57806349e6b62c1461020f575b600080fd5b34801561018157600080fd5b50606e546001600160a01b03165b6040516001600160a01b0390911681526020015b60405180910390f35b3480156101b857600080fd5b506101cc6101c7366004612249565b610481565b6040519081526020016101a3565b3480156101e657600080fd5b506101fa6101f53660046123f2565b6104f5565b005b6101cc61020a3660046125a1565b610667565b34801561021b57600080fd5b5061022f61022a366004612249565b61082d565b6040516101a39190612710565b34801561024857600080fd5b5061025c610257366004612249565b610b67565b6040516101a391906127fd565b34801561027557600080fd5b506101fa610284366004612817565b610fa0565b34801561029557600080fd5b50606b546001600160a01b031661018f565b3480156102b357600080fd5b506101fa611276565b3480156102c857600080fd5b506101fa6102d73660046128d7565b61128a565b3480156102e857600080fd5b50606c546001600160a01b031661018f565b34801561030657600080fd5b506101fa6103153660046128d7565b6112dc565b34801561032657600080fd5b506033546001600160a01b031661018f565b6101cc610346366004612914565b611375565b34801561035757600080fd5b506101fa61036636600461296c565b611466565b34801561037757600080fd5b506101fa6103863660046129d0565b611684565b34801561039757600080fd5b506103a06116d0565b6040516101a39594939291906129f4565b3480156103bd57600080fd5b506101fa6103cc3660046129d0565b611973565b6101cc6103df366004612a6c565b6119bf565b3480156103f057600080fd5b506104046103ff366004612b44565b611be8565b60405190151581526020016101a3565b34801561042057600080fd5b506101fa61042f3660046128d7565b611c00565b34801561044057600080fd5b506101fa61044f3660046129d0565b611ca0565b34801561046057600080fd5b5061047461046f366004612b79565b611d19565b6040516101a39190612bb0565b606c5460405163064fdacd60e21b8152600481018390526000916001600160a01b03169063193f6b3490602401602060405180830381865afa1580156104cb573d6000803e3d6000fd5b505050506040513d601f19601f820116820180604052508101906104ef9190612bc3565b92915050565b600054610100900460ff16158080156105155750600054600160ff909116105b8061052f5750303b15801561052f575060005460ff166001145b6105975760405162461bcd60e51b815260206004820152602e60248201527f496e697469616c697a61626c653a20636f6e747261637420697320616c72656160448201526d191e481a5b9a5d1a585b1a5e995960921b60648201526084015b60405180910390fd5b6000805460ff1916600117905580156105ba576000805461ff0019166101001790555b606b80546001600160a01b038086166001600160a01b031992831617909255606c8054878416908316179055606e8054928516929091169190911790556106048989898989610fa0565b606a80546001600160a01b03191633179055801561065c576000805461ff0019169055604051600181527f7f26b83ff96e1f2b6a682f133852f6798a09c465da95921460cefb38474024989060200160405180910390a15b505050505050505050565b600080875111801561067a575085518751145b8015610687575084518751145b6106e35760405162461bcd60e51b815260206004820152602760248201527f4d756c746953696744414f3a20696e76616c6964207472616e73616374696f6e604482015266040d8cadccee8d60cb1b606482015260840161058e565b606060005b8851811015610796578160008a838151811061070657610706612bdc565b60200260200101518a848151811061072057610720612bdc565b60200260200101518a858151811061073a5761073a612bdc565b6020026020010151518b868151811061075557610755612bdc565b602002602001015160405160200161077296959493929190612bf2565b6040516020818303038152906040529150808061078e90612c72565b9150506106e8565b5060007f8d80ff0a19eeb79604f91006b003a79847afc54b18a8fde61bb59e08da5da9cf826040516024016107cb9190612bb0565b60408051601f198184030181529190526020810180516001600160e01b03166001600160e01b031990931692909217909152606e5490915060009061081f906001600160a01b0316838360028b8b8b6119bf565b9a9950505050505050505050565b6108356121d3565b6000828152606d6020908152604080832081516101408101835281546001600160a01b03168152600182015493810193909352600281018054919284019161087c90612c8b565b80601f01602080910402602001604051908101604052809291908181526020018280546108a890612c8b565b80156108f55780601f106108ca576101008083540402835291602001916108f5565b820191906000526020600020905b8154815290600101906020018083116108d857829003601f168201915b5050509183525050600382015460209091019060ff16600181111561091c5761091c6126e6565b600181111561092d5761092d6126e6565b8152602001600482015481526020016005820154815260200160068201805461095590612c8b565b80601f016020809104026020016040519081016040528092919081815260200182805461098190612c8b565b80156109ce5780601f106109a3576101008083540402835291602001916109ce565b820191906000526020600020905b8154815290600101906020018083116109b157829003601f168201915b505050505081526020016007820180546109e790612c8b565b80601f0160208091040260200160405190810160405280929190818152602001828054610a1390612c8b565b8015610a605780601f10610a3557610100808354040283529160200191610a60565b820191906000526020600020905b815481529060010190602001808311610a4357829003601f168201915b50505050508152602001600882018054610a7990612c8b565b80601f0160208091040260200160405190810160405280929190818152602001828054610aa590612c8b565b8015610af25780601f10610ac757610100808354040283529160200191610af2565b820191906000526020600020905b815481529060010190602001808311610ad557829003601f168201915b5050509183525050600991909101546001600160a01b031660209091015260808101519091506000036104ef5760405162461bcd60e51b815260206004820152601960248201527f4d756c746953696744414f3a206e6f2074786e20657869737400000000000000604482015260640161058e565b6000818152606d6020908152604080832081516101408101835281546001600160a01b0316815260018201549381019390935260028101805485949384019190610bb090612c8b565b80601f0160208091040260200160405190810160405280929190818152602001828054610bdc90612c8b565b8015610c295780601f10610bfe57610100808354040283529160200191610c29565b820191906000526020600020905b815481529060010190602001808311610c0c57829003601f168201915b5050509183525050600382015460209091019060ff166001811115610c5057610c506126e6565b6001811115610c6157610c616126e6565b81526020016004820154815260200160058201548152602001600682018054610c8990612c8b565b80601f0160208091040260200160405190810160405280929190818152602001828054610cb590612c8b565b8015610d025780601f10610cd757610100808354040283529160200191610d02565b820191906000526020600020905b815481529060010190602001808311610ce557829003601f168201915b50505050508152602001600782018054610d1b90612c8b565b80601f0160208091040260200160405190810160405280929190818152602001828054610d4790612c8b565b8015610d945780601f10610d6957610100808354040283529160200191610d94565b820191906000526020600020905b815481529060010190602001808311610d7757829003601f168201915b50505050508152602001600882018054610dad90612c8b565b80601f0160208091040260200160405190810160405280929190818152602001828054610dd990612c8b565b8015610e265780601f10610dfb57610100808354040283529160200191610e26565b820191906000526020600020905b815481529060010190602001808311610e0957829003601f168201915b5050509183525050600991909101546001600160a01b03166020909101526080810151909150600003610e9b5760405162461bcd60e51b815260206004820152601960248201527f4d756c746953696744414f3a206e6f2074786e20657869737400000000000000604482015260640161058e565b606c546040516301244d4760e11b8152600481018590526001600160a01b03909116906302489a8e90602401602060405180830381865afa158015610ee4573d6000803e3d6000fd5b505050506040513d601f19601f82011682018060405250810190610f089190612cbf565b15610f165750600292915050565b606c5460405163a7f173ab60e01b8152600481018590526001600160a01b039091169063a7f173ab90602401602060405180830381865afa158015610f5f573d6000803e3d6000fd5b505050506040513d601f19601f82011682018060405250810190610f839190612cbf565b15610f915750600192915050565b50600092915050565b50919050565b600054610100900460ff1661100b5760405162461bcd60e51b815260206004820152602b60248201527f496e697469616c697a61626c653a20636f6e7472616374206973206e6f74206960448201526a6e697469616c697a696e6760a81b606482015260840161058e565b6001600160a01b0385166110625760405163d647364f60e01b815260206004820152601e60248201527f4261736544414f3a2061646d696e2061646472657373206973207a65726f0000604482015260640161058e565b83516000036110ad5760405163d647364f60e01b81526020600482015260166024820152754261736544414f3a206e616d6520697320656d70747960501b604482015260640161058e565b81516000036110ff5760405163d647364f60e01b815260206004820152601d60248201527f4261736544414f3a206465736372697074696f6e20697320656d707479000000604482015260640161058e565b61110881611be8565b156111675760405163d647364f60e01b815260206004820152602860248201527f4261736544414f3a206c696e6b73206d757374206265206576656e206c656e67604482015267746820617272617960c01b606482015260840161058e565b606680546001600160a01b0319166001600160a01b038716179055606561118e8582612d2f565b50606761119b8482612d2f565b5060686111a88382612d2f565b506066546111be906001600160a01b0316611dab565b6111c781611dfd565b7ff19e969be7affb98a1d812094e0f24ecca36f1eabd6dd592c97020d47c64a00e60656040516111f79190612e6c565b60405180910390a17ff3672c8ff2861c97a6aebc9d331e5be084099f9979e991286ff2d8817bc24676606760405161122f9190612e6c565b60405180910390a17fe21432e1fe2b572d5803dd7316b7a854952317b42017f920a616ec70cdb8a5c160686040516112679190612e6c565b60405180910390a15050505050565b61127e612059565b6112886000611dab565b565b611292612059565b7ff3672c8ff2861c97a6aebc9d331e5be084099f9979e991286ff2d8817bc246766067826040516112c4929190612e8d565b60405180910390a160676112d88282612d2f565b5050565b6112e4612059565b805160000361132f5760405163d647364f60e01b81526020600482015260166024820152754261736544414f3a206e616d6520697320656d70747960501b604482015260640161058e565b7ff19e969be7affb98a1d812094e0f24ecca36f1eabd6dd592c97020d47c64a00e606582604051611361929190612e8d565b60405180910390a160656112d88282612d2f565b606c54606b5460405163658af36b60e01b81526001600160a01b039182166004820152888216602482015260448101879052336064820152600092919091169063658af36b90608401600060405180830381600087803b1580156113d857600080fd5b505af11580156113ec573d6000803e3d6000fd5b5050604080516001600160a01b038b811660248301528a8116604483015260648083018b90528351808403909101815260849092019092526020810180516001600160e01b0316635d9a6dad60e11b179052606c54909350600092506114599116838360018a8a8a6119bf565b9998505050505050505050565b61146e612059565b60006115646069805480602002602001604051908101604052809291908181526020016000905b828210156115415783829060005260206000200180546114b490612c8b565b80601f01602080910402602001604051908101604052809291908181526020018280546114e090612c8b565b801561152d5780601f106115025761010080835404028352916020019161152d565b820191906000526020600020905b81548152906001019060200180831161151057829003601f168201915b505050505081526020019060010190611495565b50505050604051806040016040528060018152602001600b60fa1b815250611d19565b905061157083836120b3565b60006116436069805480602002602001604051908101604052809291908181526020016000905b828210156115415783829060005260206000200180546115b690612c8b565b80601f01602080910402602001604051908101604052809291908181526020018280546115e290612c8b565b801561162f5780601f106116045761010080835404028352916020019161162f565b820191906000526020600020905b81548152906001019060200180831161161257829003601f168201915b505050505081526020019060010190611597565b90507f6d4399c79b2dee44cc5e581581020b8ae0051dc55c1c47b96095a4d15605130f8282604051611676929190612ebb565b60405180910390a150505050565b606a546001600160a01b031633146116ae5760405162461bcd60e51b815260040161058e90612ece565b606e80546001600160a01b0319166001600160a01b0392909216919091179055565b6060806060806000606560676117ad6069805480602002602001604051908101604052809291908181526020016000905b8282101561154157838290600052602060002001805461172090612c8b565b80601f016020809104026020016040519081016040528092919081815260200182805461174c90612c8b565b80156117995780601f1061176e57610100808354040283529160200191611799565b820191906000526020600020905b81548152906001019060200180831161177c57829003601f168201915b505050505081526020019060010190611701565b60665483546068916001600160a01b03169085906117ca90612c8b565b80601f01602080910402602001604051908101604052809291908181526020018280546117f690612c8b565b80156118435780601f1061181857610100808354040283529160200191611843565b820191906000526020600020905b81548152906001019060200180831161182657829003601f168201915b5050505050945083805461185690612c8b565b80601f016020809104026020016040519081016040528092919081815260200182805461188290612c8b565b80156118cf5780601f106118a4576101008083540402835291602001916118cf565b820191906000526020600020905b8154815290600101906020018083116118b257829003601f168201915b505050505093508180546118e290612c8b565b80601f016020809104026020016040519081016040528092919081815260200182805461190e90612c8b565b801561195b5780601f106119305761010080835404028352916020019161195b565b820191906000526020600020905b81548152906001019060200180831161193e57829003601f168201915b50505050509150945094509450945094509091929394565b606a546001600160a01b0316331461199d5760405162461bcd60e51b815260040161058e90612ece565b606b80546001600160a01b0319166001600160a01b0392909216919091179055565b60008351600003611a1c5760405162461bcd60e51b815260206004820152602160248201527f4d756c746953696744414f3a207469746c652063616e277420626520626c616e6044820152606b60f81b606482015260840161058e565b8251600003611a6d5760405162461bcd60e51b815260206004820181905260248201527f4d756c746953696744414f3a20646573632063616e277420626520626c616e6b604482015260640161058e565b606c54604051633c75d0af60e11b815260009182916001600160a01b03909116906378eba15e90611aa8908d9034908e908e90600401612f18565b60408051808303816000875af1158015611ac6573d6000803e3d6000fd5b505050506040513d601f19601f82011682018060405250810190611aea9190612f4f565b6000828152606d6020526040902080546001600160a01b0319166001600160a01b038e16178155346001820155919350915060028101611b2a8b82612d2f565b506003810180548a919060ff191660018381811115611b4b57611b4b6126e6565b0217905550600481018290556005810188905560068101611b6c8882612d2f565b5060078101611b7b8782612d2f565b5060088101611b8a8682612d2f565b506009810180546001600160a01b031916331790556040517f122fdaea6d6de1c44d0a3270dde2d651500479c7c64559bd724a31059a2275f090611bd19085908490612f73565b60405180910390a150909998505050505050505050565b600060028251611bf89190613070565b151592915050565b611c08612059565b8051600003611c5a5760405163d647364f60e01b815260206004820152601d60248201527f4261736544414f3a206465736372697074696f6e20697320656d707479000000604482015260640161058e565b7fe21432e1fe2b572d5803dd7316b7a854952317b42017f920a616ec70cdb8a5c1606882604051611c8c929190612e8d565b60405180910390a160686112d88282612d2f565b611ca8612059565b6001600160a01b038116611d0d5760405162461bcd60e51b815260206004820152602660248201527f4f776e61626c653a206e6577206f776e657220697320746865207a65726f206160448201526564647265737360d01b606482015260840161058e565b611d1681611dab565b50565b81516060908015611da45783600081518110611d3757611d37612bdc565b602002602001015191506000600190505b81811015611da2578284868381518110611d6457611d64612bdc565b6020026020010151604051602001611d7e93929190613092565b60405160208183030381529060405292508080611d9a90612c72565b915050611d48565b505b5092915050565b603380546001600160a01b038381166001600160a01b0319831681179093556040519116919082907f8be0079c531659141344cd1fd0a4f28419497f9722a3daafe3b4186f6b6457e090600090a35050565b6000611ed06069805480602002602001604051908101604052809291908181526020016000905b82821015611541578382906000526020600020018054611e4390612c8b565b80601f0160208091040260200160405190810160405280929190818152602001828054611e6f90612c8b565b8015611ebc5780601f10611e9157610100808354040283529160200191611ebc565b820191906000526020600020905b815481529060010190602001808311611e9f57829003601f168201915b505050505081526020019060010190611e24565b905060005b8251811015611f45576000838281518110611ef257611ef2612bdc565b60200260200101519050600084836001611f0c91906130d5565b81518110611f1c57611f1c612bdc565b60200260200101519050611f3082826120b3565b50611f3e90508160026130d5565b9050611ed5565b5060006120196069805480602002602001604051908101604052809291908181526020016000905b82821015611541578382906000526020600020018054611f8c90612c8b565b80601f0160208091040260200160405190810160405280929190818152602001828054611fb890612c8b565b80156120055780601f10611fda57610100808354040283529160200191612005565b820191906000526020600020905b815481529060010190602001808311611fe857829003601f168201915b505050505081526020019060010190611f6d565b90507f6d4399c79b2dee44cc5e581581020b8ae0051dc55c1c47b96095a4d15605130f828260405161204c929190612ebb565b60405180910390a1505050565b6033546001600160a01b031633146112885760405162461bcd60e51b815260206004820181905260248201527f4f776e61626c653a2063616c6c6572206973206e6f7420746865206f776e6572604482015260640161058e565b60008251116121045760405162461bcd60e51b815260206004820152601b60248201527f4261736544414f3a20696e76616c6964206b6579207061737365640000000000604482015260640161058e565b60008151116121555760405162461bcd60e51b815260206004820152601d60248201527f4261736544414f3a20696e76616c69642076616c756520706173736564000000604482015260640161058e565b606980546001810182556000919091527f7fb4302e8e91f9110a6554c2c0a24601252c2a42c2220ca988efcfe399914308016121918382612d2f565b50606980546001810182556000919091527f7fb4302e8e91f9110a6554c2c0a24601252c2a42c2220ca988efcfe399914308016121ce8282612d2f565b505050565b60405180610140016040528060006001600160a01b03168152602001600081526020016060815260200160006001811115612210576122106126e6565b8152602001600081526020016000815260200160608152602001606081526020016060815260200160006001600160a01b031681525090565b60006020828403121561225b57600080fd5b5035919050565b6001600160a01b0381168114611d1657600080fd5b803561228281612262565b919050565b634e487b7160e01b600052604160045260246000fd5b604051601f8201601f1916810167ffffffffffffffff811182821017156122c6576122c6612287565b604052919050565b600082601f8301126122df57600080fd5b813567ffffffffffffffff8111156122f9576122f9612287565b61230c601f8201601f191660200161229d565b81815284602083860101111561232157600080fd5b816020850160208301376000918101602001919091529392505050565b600067ffffffffffffffff82111561235857612358612287565b5060051b60200190565b600082601f83011261237357600080fd5b813560206123886123838361233e565b61229d565b82815260059290921b840181019181810190868411156123a757600080fd5b8286015b848110156123e757803567ffffffffffffffff8111156123cb5760008081fd5b6123d98986838b01016122ce565b8452509183019183016123ab565b509695505050505050565b600080600080600080600080610100898b03121561240f57600080fd5b61241889612277565b9750602089013567ffffffffffffffff8082111561243557600080fd5b6124418c838d016122ce565b985060408b013591508082111561245757600080fd5b6124638c838d016122ce565b975060608b013591508082111561247957600080fd5b6124858c838d016122ce565b965060808b013591508082111561249b57600080fd5b506124a88b828c01612362565b9450506124b760a08a01612277565b92506124c560c08a01612277565b91506124d360e08a01612277565b90509295985092959890939650565b600082601f8301126124f357600080fd5b813560206125036123838361233e565b82815260059290921b8401810191818101908684111561252257600080fd5b8286015b848110156123e757803561253981612262565b8352918301918301612526565b600082601f83011261255757600080fd5b813560206125676123838361233e565b82815260059290921b8401810191818101908684111561258657600080fd5b8286015b848110156123e7578035835291830191830161258a565b60008060008060008060c087890312156125ba57600080fd5b863567ffffffffffffffff808211156125d257600080fd5b6125de8a838b016124e2565b975060208901359150808211156125f457600080fd5b6126008a838b01612546565b9650604089013591508082111561261657600080fd5b6126228a838b01612362565b9550606089013591508082111561263857600080fd5b6126448a838b016122ce565b9450608089013591508082111561265a57600080fd5b6126668a838b016122ce565b935060a089013591508082111561267c57600080fd5b5061268989828a016122ce565b9150509295509295509295565b60005b838110156126b1578181015183820152602001612699565b50506000910152565b600081518084526126d2816020860160208601612696565b601f01601f19169290920160200192915050565b634e487b7160e01b600052602160045260246000fd5b6002811061270c5761270c6126e6565b9052565b6020815261272a6020820183516001600160a01b03169052565b60208201516040820152600060408301516101408060608501526127526101608501836126ba565b9150606085015161276660808601826126fc565b50608085015160a085015260a085015160c085015260c0850151601f19808685030160e087015261279784836126ba565b935060e087015191506101008187860301818801526127b685846126ba565b9450808801519250506101208187860301818801526127d585846126ba565b945080880151925050506127f3828601826001600160a01b03169052565b5090949350505050565b6020810160038310612811576128116126e6565b91905290565b600080600080600060a0868803121561282f57600080fd5b853561283a81612262565b9450602086013567ffffffffffffffff8082111561285757600080fd5b61286389838a016122ce565b9550604088013591508082111561287957600080fd5b61288589838a016122ce565b9450606088013591508082111561289b57600080fd5b6128a789838a016122ce565b935060808801359150808211156128bd57600080fd5b506128ca88828901612362565b9150509295509295909350565b6000602082840312156128e957600080fd5b813567ffffffffffffffff81111561290057600080fd5b61290c848285016122ce565b949350505050565b60008060008060008060c0878903121561292d57600080fd5b863561293881612262565b9550602087013561294881612262565b945060408701359350606087013567ffffffffffffffff8082111561263857600080fd5b6000806040838503121561297f57600080fd5b823567ffffffffffffffff8082111561299757600080fd5b6129a3868387016122ce565b935060208501359150808211156129b957600080fd5b506129c6858286016122ce565b9150509250929050565b6000602082840312156129e257600080fd5b81356129ed81612262565b9392505050565b60a081526000612a0760a08301886126ba565b8281036020840152612a1981886126ba565b90508281036040840152612a2d81876126ba565b90508281036060840152612a4181866126ba565b9150506001600160a01b03831660808301529695505050505050565b80356002811061228257600080fd5b600080600080600080600060e0888a031215612a8757600080fd5b612a9088612277565b9650602088013567ffffffffffffffff80821115612aad57600080fd5b612ab98b838c016122ce565b9750612ac760408b01612a5d565b965060608a0135955060808a0135915080821115612ae457600080fd5b612af08b838c016122ce565b945060a08a0135915080821115612b0657600080fd5b612b128b838c016122ce565b935060c08a0135915080821115612b2857600080fd5b50612b358a828b016122ce565b91505092959891949750929550565b600060208284031215612b5657600080fd5b813567ffffffffffffffff811115612b6d57600080fd5b61290c84828501612362565b60008060408385031215612b8c57600080fd5b823567ffffffffffffffff80821115612ba457600080fd5b6129a386838701612362565b6020815260006129ed60208301846126ba565b600060208284031215612bd557600080fd5b5051919050565b634e487b7160e01b600052603260045260246000fd5b60008751612c04818460208c01612696565b808301905060ff60f81b8860f81b1681526bffffffffffffffffffffffff198760601b1660018201528560158201528460358201528351612c4c816055840160208801612696565b0160550198975050505050505050565b634e487b7160e01b600052601160045260246000fd5b600060018201612c8457612c84612c5c565b5060010190565b600181811c90821680612c9f57607f821691505b602082108103610f9a57634e487b7160e01b600052602260045260246000fd5b600060208284031215612cd157600080fd5b815180151581146129ed57600080fd5b601f8211156121ce57600081815260208120601f850160051c81016020861015612d085750805b601f850160051c820191505b81811015612d2757828155600101612d14565b505050505050565b815167ffffffffffffffff811115612d4957612d49612287565b612d5d81612d578454612c8b565b84612ce1565b602080601f831160018114612d925760008415612d7a5750858301515b600019600386901b1c1916600185901b178555612d27565b600085815260208120601f198616915b82811015612dc157888601518255948401946001909101908401612da2565b5085821015612ddf5787850151600019600388901b60f8161c191681555b5050505050600190811b01905550565b60008154612dfc81612c8b565b808552602060018381168015612e195760018114612e3357612e61565b60ff1985168884015283151560051b880183019550612e61565b866000528260002060005b85811015612e595781548a8201860152908301908401612e3e565b890184019650505b505050505092915050565b60408152600060408201526060602082015260006129ed6060830184612def565b604081526000612ea06040830185612def565b8281036020840152612eb281856126ba565b95945050505050565b604081526000612ea060408301856126ba565b6020808252602a908201527f4d756c746953696744414f3a2063616c6c6572206973206e6f742074686520736040820152693cb9ba32b6903ab9b2b960b11b606082015260800190565b6001600160a01b0385168152836020820152608060408201526000612f4060808301856126ba565b9050612eb260608301846126fc565b60008060408385031215612f6257600080fd5b505080516020909101519092909150565b82815260406020820152612fa260408201612f9584546001600160a01b031690565b6001600160a01b03169052565b600182015460608201526000610140806080840152612fc8610180840160028601612def565b600385015460ff16612fdd60a08601826126fc565b50600485015460c0850152600585015460e0850152603f19808583030161010086015261300d8260068801612def565b915080858303016101208601526130278260078801612def565b9150808583030183860152506130408160088701612def565b91505061305760098501546001600160a01b031690565b6001600160a01b03811661016085015250949350505050565b60008261308d57634e487b7160e01b600052601260045260246000fd5b500690565b600084516130a4818460208901612696565b8451908301906130b8818360208901612696565b84519101906130cb818360208801612696565b0195945050505050565b808201808211156104ef576104ef612c5c56fea26469706673582212206fe73425b5ed87924b0017a41cad321a36722e73ca3ca60c303e7395218d456964736f6c63430008120033",
  "linkReferences": {},
  "deployedLinkReferences": {}
}