{
  "_format": "hh-sol-artifact-1",
  "contractName": "NFTDAOFactory",
  "sourceName": "contracts/dao/NFTDAOFactory.sol",
  "abi": [
    {
      "inputs": [
        {
          "internalType": "string",
          "name": "message",
          "type": "string"
        }
      ],
      "name": "InvalidInput",
      "type": "error"
    },
    {
      "inputs": [
        {
          "internalType": "string",
          "name": "message",
          "type": "string"
        }
      ],
      "name": "NotAdmin",
      "type": "error"
    },
    {
      "anonymous": false,
      "inputs": [
        {
          "indexed": false,
          "internalType": "address",
          "name": "daoAddress",
          "type": "address"
        },
        {
          "indexed": false,
          "internalType": "address",
          "name": "admin",
          "type": "address"
        },
        {
          "indexed": false,
          "internalType": "string",
          "name": "name",
          "type": "string"
        },
        {
          "indexed": false,
          "internalType": "string",
          "name": "logoUrl",
          "type": "string"
        },
        {
          "indexed": false,
          "internalType": "address",
          "name": "tokenAddress",
          "type": "address"
        },
        {
          "indexed": false,
          "internalType": "uint256",
          "name": "quorumThreshold",
          "type": "uint256"
        },
        {
          "indexed": false,
          "internalType": "uint256",
          "name": "votingDelay",
          "type": "uint256"
        },
        {
          "indexed": false,
          "internalType": "uint256",
          "name": "votingPeriod",
          "type": "uint256"
        },
        {
          "indexed": false,
          "internalType": "bool",
          "name": "isPrivate",
          "type": "bool"
        },
        {
          "indexed": false,
          "internalType": "string",
          "name": "description",
          "type": "string"
        },
        {
          "indexed": false,
          "internalType": "string",
          "name": "webLinks",
          "type": "string"
        },
        {
          "indexed": false,
          "internalType": "address",
          "name": "governanceAddress",
          "type": "address"
        },
        {
          "indexed": false,
          "internalType": "address",
          "name": "tokenHolderAddress",
          "type": "address"
        }
      ],
      "name": "DAOCreated",
      "type": "event"
    },
    {
      "anonymous": false,
      "inputs": [
        {
          "indexed": false,
          "internalType": "uint8",
          "name": "version",
          "type": "uint8"
        }
      ],
      "name": "Initialized",
      "type": "event"
    },
    {
      "anonymous": false,
      "inputs": [
        {
          "indexed": true,
          "internalType": "address",
          "name": "oldImplementation",
          "type": "address"
        },
        {
          "indexed": true,
          "internalType": "address",
          "name": "newImplementation",
          "type": "address"
        },
        {
          "indexed": false,
          "internalType": "string",
          "name": "name",
          "type": "string"
        }
      ],
      "name": "LogicUpdated",
      "type": "event"
    },
    {
      "anonymous": false,
      "inputs": [
        {
          "indexed": true,
          "internalType": "address",
          "name": "previousOwner",
          "type": "address"
        },
        {
          "indexed": true,
          "internalType": "address",
          "name": "newOwner",
          "type": "address"
        }
      ],
      "name": "OwnershipTransferred",
      "type": "event"
    },
    {
      "inputs": [
        {
          "components": [
            {
              "internalType": "address",
              "name": "admin",
              "type": "address"
            },
            {
              "internalType": "string",
              "name": "name",
              "type": "string"
            },
            {
              "internalType": "string",
              "name": "logoUrl",
              "type": "string"
            },
            {
              "internalType": "contract IERC20",
              "name": "tokenAddress",
              "type": "address"
            },
            {
              "internalType": "uint256",
              "name": "quorumThreshold",
              "type": "uint256"
            },
            {
              "internalType": "uint256",
              "name": "votingDelay",
              "type": "uint256"
            },
            {
              "internalType": "uint256",
              "name": "votingPeriod",
              "type": "uint256"
            },
            {
              "internalType": "bool",
              "name": "isPrivate",
              "type": "bool"
            },
            {
              "internalType": "string",
              "name": "description",
              "type": "string"
            },
            {
              "internalType": "string[]",
              "name": "webLinks",
              "type": "string[]"
            }
          ],
          "internalType": "struct DAOFactory.CreateDAOInputs",
          "name": "_createDAOInputs",
          "type": "tuple"
        }
      ],
      "name": "createDAO",
      "outputs": [
        {
          "internalType": "address",
          "name": "",
          "type": "address"
        }
      ],
      "stateMutability": "nonpayable",
      "type": "function"
    },
    {
      "inputs": [],
      "name": "getDAOs",
      "outputs": [
        {
          "internalType": "address[]",
          "name": "",
          "type": "address[]"
        }
      ],
      "stateMutability": "view",
      "type": "function"
    },
    {
      "inputs": [],
      "name": "getHederaServiceVersion",
      "outputs": [
        {
          "internalType": "contract IHederaService",
          "name": "",
          "type": "address"
        }
      ],
      "stateMutability": "view",
      "type": "function"
    },
    {
      "inputs": [],
      "name": "getTokenHolderFactoryAddress",
      "outputs": [
        {
          "internalType": "address",
          "name": "",
          "type": "address"
        }
      ],
      "stateMutability": "view",
      "type": "function"
    },
    {
      "inputs": [
        {
          "internalType": "address",
          "name": "_proxyAdmin",
          "type": "address"
        },
        {
          "internalType": "contract IHederaService",
          "name": "_hederaService",
          "type": "address"
        },
        {
          "internalType": "contract ITokenDAO",
          "name": "_daoLogic",
          "type": "address"
        },
        {
          "internalType": "contract ITokenHolderFactory",
          "name": "_tokenHolderFactory",
          "type": "address"
        },
        {
          "internalType": "contract IGovernorTransferToken",
          "name": "_tokenTransferLogic",
          "type": "address"
        }
      ],
      "name": "initialize",
      "outputs": [],
      "stateMutability": "nonpayable",
      "type": "function"
    },
    {
      "inputs": [
        {
          "internalType": "string[]",
          "name": "items",
          "type": "string[]"
        }
      ],
      "name": "isOddLengthArray",
      "outputs": [
        {
          "internalType": "bool",
          "name": "",
          "type": "bool"
        }
      ],
      "stateMutability": "pure",
      "type": "function"
    },
    {
      "inputs": [
        {
          "internalType": "string[]",
          "name": "items",
          "type": "string[]"
        },
        {
          "internalType": "string",
          "name": "separator",
          "type": "string"
        }
      ],
      "name": "join",
      "outputs": [
        {
          "internalType": "string",
          "name": "result",
          "type": "string"
        }
      ],
      "stateMutability": "pure",
      "type": "function"
    },
    {
      "inputs": [],
      "name": "owner",
      "outputs": [
        {
          "internalType": "address",
          "name": "",
          "type": "address"
        }
      ],
      "stateMutability": "view",
      "type": "function"
    },
    {
      "inputs": [],
      "name": "renounceOwnership",
      "outputs": [],
      "stateMutability": "nonpayable",
      "type": "function"
    },
    {
      "inputs": [
        {
          "internalType": "address",
          "name": "newOwner",
          "type": "address"
        }
      ],
      "name": "transferOwnership",
      "outputs": [],
      "stateMutability": "nonpayable",
      "type": "function"
    },
    {
      "inputs": [
        {
          "internalType": "contract IHederaService",
          "name": "newHederaService",
          "type": "address"
        }
      ],
      "name": "upgradeHederaService",
      "outputs": [],
      "stateMutability": "nonpayable",
      "type": "function"
    },
    {
      "inputs": [
        {
          "internalType": "contract ITokenDAO",
          "name": "_newImpl",
          "type": "address"
        }
      ],
      "name": "upgradeTokenDaoLogicImplementation",
      "outputs": [],
      "stateMutability": "nonpayable",
      "type": "function"
    },
    {
      "inputs": [
        {
          "internalType": "contract ITokenHolderFactory",
          "name": "_newTokenHolderFactory",
          "type": "address"
        }
      ],
      "name": "upgradeTokenHolderFactory",
      "outputs": [],
      "stateMutability": "nonpayable",
      "type": "function"
    },
    {
      "inputs": [
        {
          "internalType": "contract IGovernorTransferToken",
          "name": "_newImpl",
          "type": "address"
        }
      ],
      "name": "upgradeTokenTransferLogicImplementation",
      "outputs": [],
      "stateMutability": "nonpayable",
      "type": "function"
    }
  ],
  "bytecode": "0x608060405234801561001057600080fd5b5061275b806100206000396000f3fe60806040523480156200001157600080fd5b5060043610620000fd5760003560e01c806374d444341162000097578063e6a89895116200006e578063e6a8989514620001f2578063f2fde38b146200021a578063f7f49f0c1462000231578063fca1c0b9146200023b57600080fd5b806374d4443414620001b25780638da5cb5b14620001c9578063d26d681f14620001db57600080fd5b80633f2de1aa11620000d85780633f2de1aa1462000149578063415cc7dd146200017d5780636dab6f751462000196578063715018a614620001a857600080fd5b80631459457a1462000102578063204a910c146200011b578063242e86d21462000132575b600080fd5b62000119620001133660046200104b565b62000261565b005b620001196200012c366004620010c7565b620004e2565b6200011962000143366004620010c7565b620005b6565b620001606200015a36600462001298565b62000685565b6040516001600160a01b0390911681526020015b60405180910390f35b6200018762000887565b604051620001749190620013e0565b6065546001600160a01b031662000160565b62000119620008eb565b62000119620001c3366004620010c7565b62000903565b6033546001600160a01b031662000160565b62000119620001ec366004620010c7565b620009dc565b62000209620002033660046200142f565b62000b1d565b604051901515815260200162000174565b620001196200022b366004620010c7565b62000b37565b6200016062000bb6565b620002526200024c36600462001468565b62000c20565b60405162000174919062001527565b600054610100900460ff1615808015620002825750600054600160ff909116105b806200029e5750303b1580156200029e575060005460ff166001145b620003075760405162461bcd60e51b815260206004820152602e60248201527f496e697469616c697a61626c653a20636f6e747261637420697320616c72656160448201526d191e481a5b9a5d1a585b1a5e995960921b60648201526084015b60405180910390fd5b6000805460ff1916600117905580156200032b576000805461ff0019166101001790555b6200033562000cbf565b606680546001600160a01b038089166001600160a01b03199283161790925560658054888416908316179055606880548784169083168117909155606a805487851690841617905560698054938616939092169290921790556040805180820182526008815267546f6b656e44414f60c01b602082015290516000916000805160206200270683398151915291620003ce919062001527565b60405180910390a3606954604080518082018252600d81526c2a3930b739b332b92a37b5b2b760991b602082015290516001600160a01b039092169160009160008051602062002706833981519152916200042a919062001527565b60405180910390a3606a546040805180820182526012815271546f6b656e486f6c646572466163746f727960701b602082015290516001600160a01b039092169160009160008051602062002706833981519152916200048b919062001527565b60405180910390a38015620004da576000805461ff0019169055604051600181527f7f26b83ff96e1f2b6a682f133852f6798a09c465da95921460cefb38474024989060200160405180910390a15b505050505050565b6066546001600160a01b031633146200053957604051633b12922f60e11b8152602060048201526017602482015276111053d19858dd1bdc9e4e88185d5d1a0819985a5b1959604a1b6044820152606401620002fe565b606954604080518082018252600d81526c2a3930b739b332b92a37b5b2b760991b602082015290516001600160a01b0380851693169160008051602062002706833981519152916200058c919062001527565b60405180910390a3606980546001600160a01b0319166001600160a01b0392909216919091179055565b6066546001600160a01b031633146200060d57604051633b12922f60e11b8152602060048201526017602482015276111053d19858dd1bdc9e4e88185d5d1a0819985a5b1959604a1b6044820152606401620002fe565b6068546040805180820182526008815267546f6b656e44414f60c01b602082015290516001600160a01b0380851693169160008051602062002706833981519152916200065b919062001527565b60405180910390a3606880546001600160a01b0319166001600160a01b0392909216919091179055565b60608101516000906001600160a01b0316620006ef5760405163d647364f60e01b815260206004820152602160248201527f44414f466163746f72793a20746f6b656e2061646472657373206973207a65726044820152606f60f81b6064820152608401620002fe565b8160c00151600003620007505760405163d647364f60e01b815260206004820152602160248201527f44414f466163746f72793a20766f74696e6720706572696f64206973207a65726044820152606f60f81b6064820152608401620002fe565b606a54606083015160405163d7fbaa1960e01b81526001600160a01b039182166004820152600092919091169063d7fbaa19906024016020604051808303816000875af1158015620007a6573d6000803e3d6000fd5b505050506040513d601f19601f82011682018060405250810190620007cc91906200153c565b90506000620007ef846060015185608001518660a001518760c001518662000cf3565b90506000620008198560000151866020015187604001518861010001518961012001518762000d9e565b90508460e001516200087157606780546001810182556000919091527f9787eeb91fe3101235e4a76063c7023ecb40f923f97916639c598592fa30d6ae0180546001600160a01b0319166001600160a01b0383161790555b6200087f8183858862000e35565b949350505050565b60606067805480602002602001604051908101604052809291908181526020018280548015620008e157602002820191906000526020600020905b81546001600160a01b03168152600190910190602001808311620008c2575b5050505050905090565b620008f562000eda565b62000901600062000f36565b565b6066546001600160a01b031633146200095a57604051633b12922f60e11b8152602060048201526017602482015276111053d19858dd1bdc9e4e88185d5d1a0819985a5b1959604a1b6044820152606401620002fe565b606a546040805180820182526012815271546f6b656e486f6c646572466163746f727960701b602082015290516001600160a01b038085169316916000805160206200270683398151915291620009b2919062001527565b60405180910390a3606a80546001600160a01b0319166001600160a01b0392909216919091179055565b620009e662000eda565b606580546001600160a01b0319166001600160a01b03831617905560005b60675481101562000b195760006067828154811062000a275762000a276200155c565b600091825260208083209091015460408051635fb3f65d60e11b815290516001600160a01b039092169450849263bf67ecba926004808401938290030181865afa15801562000a7a573d6000803e3d6000fd5b505050506040513d601f19601f8201168201806040525081019062000aa091906200153c565b60405163d26d681f60e01b81526001600160a01b0386811660048301529192509082169063d26d681f90602401600060405180830381600087803b15801562000ae857600080fd5b505af115801562000afd573d6000803e3d6000fd5b505050505050808062000b109062001572565b91505062000a04565b5050565b60006002825162000b2f91906200159a565b151592915050565b62000b4162000eda565b6001600160a01b03811662000ba85760405162461bcd60e51b815260206004820152602660248201527f4f776e61626c653a206e6577206f776e657220697320746865207a65726f206160448201526564647265737360d01b6064820152608401620002fe565b62000bb38162000f36565b50565b6066546000906001600160a01b0316331462000c1057604051633b12922f60e11b8152602060048201526017602482015276111053d19858dd1bdc9e4e88185d5d1a0819985a5b1959604a1b6044820152606401620002fe565b50606a546001600160a01b031690565b8151606090801562000cb8578360008151811062000c425762000c426200155c565b602002602001015191506000600190505b8181101562000cb657828486838151811062000c735762000c736200155c565b602002602001015160405160200162000c8f93929190620015bd565b6040516020818303038152906040529250808062000cad9062001572565b91505062000c53565b505b5092915050565b600054610100900460ff1662000ce95760405162461bcd60e51b8152600401620002fe9062001606565b6200090162000f88565b60695460009062000d0d906001600160a01b031662000fbd565b60655460405163091696cb60e11b81526001600160a01b03898116600483015260248201889052604482018790529182166064820152848216608482015260a4810188905291925082169063122d2d969060c401600060405180830381600087803b15801562000d7c57600080fd5b505af115801562000d91573d6000803e3d6000fd5b5050505095945050505050565b606854600090819062000dba906001600160a01b031662000fbd565b6040516313542b3f60e11b81529091506001600160a01b038216906326a8567e9062000df5908b908b908b908b908b908b9060040162001651565b600060405180830381600087803b15801562000e1057600080fd5b505af115801562000e25573d6000803e3d6000fd5b50929a9950505050505050505050565b7f767f5b53ef1c86eb093a86490852c6cfc91eb4d85fd6dd2bb46cf270d7d10db884826000015183602001518460400151856060015186608001518760a001518860c001518960e001518a610100015162000eaf8c6101200151604051806040016040528060018152602001600b60fa1b81525062000c20565b8e8e60405162000ecc9d9c9b9a999897969594939291906200171e565b60405180910390a150505050565b6033546001600160a01b03163314620009015760405162461bcd60e51b815260206004820181905260248201527f4f776e61626c653a2063616c6c6572206973206e6f7420746865206f776e65726044820152606401620002fe565b603380546001600160a01b038381166001600160a01b0319831681179093556040519116919082907f8be0079c531659141344cd1fd0a4f28419497f9722a3daafe3b4186f6b6457e090600090a35050565b600054610100900460ff1662000fb25760405162461bcd60e51b8152600401620002fe9062001606565b620009013362000f36565b60665460405160009160609184916001600160a01b031690839062000fe29062001015565b62000ff09392919062001802565b604051809103906000f0801580156200100d573d6000803e3d6000fd5b509392505050565b610ecc806200183a83390190565b6001600160a01b038116811462000bb357600080fd5b8035620010468162001023565b919050565b600080600080600060a086880312156200106457600080fd5b8535620010718162001023565b94506020860135620010838162001023565b93506040860135620010958162001023565b92506060860135620010a78162001023565b91506080860135620010b98162001023565b809150509295509295909350565b600060208284031215620010da57600080fd5b8135620010e78162001023565b9392505050565b634e487b7160e01b600052604160045260246000fd5b604051610140810167ffffffffffffffff811182821017156200112b576200112b620010ee565b60405290565b604051601f8201601f1916810167ffffffffffffffff811182821017156200115d576200115d620010ee565b604052919050565b600082601f8301126200117757600080fd5b813567ffffffffffffffff811115620011945762001194620010ee565b620011a9601f8201601f191660200162001131565b818152846020838601011115620011bf57600080fd5b816020850160208301376000918101602001919091529392505050565b803580151581146200104657600080fd5b600082601f830112620011ff57600080fd5b8135602067ffffffffffffffff808311156200121f576200121f620010ee565b8260051b6200123083820162001131565b93845285810183019383810190888611156200124b57600080fd5b84880192505b858310156200128c578235848111156200126b5760008081fd5b6200127b8a87838c010162001165565b835250918401919084019062001251565b98975050505050505050565b600060208284031215620012ab57600080fd5b813567ffffffffffffffff80821115620012c457600080fd5b908301906101408286031215620012da57600080fd5b620012e462001104565b620012ef8362001039565b81526020830135828111156200130457600080fd5b620013128782860162001165565b6020830152506040830135828111156200132b57600080fd5b620013398782860162001165565b6040830152506200134d6060840162001039565b60608201526080830135608082015260a083013560a082015260c083013560c08201526200137e60e08401620011dc565b60e082015261010080840135838111156200139857600080fd5b620013a68882870162001165565b8284015250506101208084013583811115620013c157600080fd5b620013cf88828701620011ed565b918301919091525095945050505050565b6020808252825182820181905260009190848201906040850190845b81811015620014235783516001600160a01b031683529284019291840191600101620013fc565b50909695505050505050565b6000602082840312156200144257600080fd5b813567ffffffffffffffff8111156200145a57600080fd5b6200087f84828501620011ed565b600080604083850312156200147c57600080fd5b823567ffffffffffffffff808211156200149557600080fd5b620014a386838701620011ed565b93506020850135915080821115620014ba57600080fd5b50620014c98582860162001165565b9150509250929050565b60005b83811015620014f0578181015183820152602001620014d6565b50506000910152565b6000815180845262001513816020860160208601620014d3565b601f01601f19169290920160200192915050565b602081526000620010e76020830184620014f9565b6000602082840312156200154f57600080fd5b8151620010e78162001023565b634e487b7160e01b600052603260045260246000fd5b6000600182016200159357634e487b7160e01b600052601160045260246000fd5b5060010190565b600082620015b857634e487b7160e01b600052601260045260246000fd5b500690565b60008451620015d1818460208901620014d3565b845190830190620015e7818360208901620014d3565b8451910190620015fc818360208801620014d3565b0195945050505050565b6020808252602b908201527f496e697469616c697a61626c653a20636f6e7472616374206973206e6f74206960408201526a6e697469616c697a696e6760a81b606082015260800190565b6001600160a01b03871681526000602060c0818401526200167660c0840189620014f9565b83810360408501526200168a8189620014f9565b90508381036060850152620016a08188620014f9565b905083810360808501528086518083528383019150838160051b84010184890160005b83811015620016f557601f19868403018552620016e2838351620014f9565b94870194925090860190600101620016c3565b50506001600160a01b03881660a08801529450620017139350505050565b979650505050505050565b6001600160a01b038e1681526001600160a01b038d1660208201526101a060408201526000620017536101a083018e620014f9565b828103606084015262001767818e620014f9565b6001600160a01b038d16608085015290508a60a08401528960c08401528860e08401526200179a61010084018915159052565b828103610120840152620017af8188620014f9565b9050828103610140840152620017c68187620014f9565b915050620017e06101608301856001600160a01b03169052565b6001600160a01b0383166101808301529e9d5050505050505050505050505050565b60006001600160a01b03808616835280851660208401525060606040830152620018306060830184620014f9565b9594505050505056fe608060405260405162000ecc38038062000ecc833981016040819052620000269162000497565b828162000036828260006200004d565b50620000449050826200008a565b505050620005ca565b6200005883620000e5565b600082511180620000665750805b1562000085576200008383836200012760201b620001691760201c565b505b505050565b7f7e644d79422f17c01e4894b5f4f588d331ebfa28653d42ae832dc59e38c9798f620000b562000156565b604080516001600160a01b03928316815291841660208301520160405180910390a1620000e2816200018f565b50565b620000f08162000244565b6040516001600160a01b038216907fbc7cd75a20ee27fd9adebab32041f755214dbc6bffa90cc0225b39da2e5c2d3b90600090a250565b60606200014f838360405180606001604052806027815260200162000ea560279139620002f8565b9392505050565b60006200018060008051602062000e8583398151915260001b6200037760201b620001951760201c565b546001600160a01b0316919050565b6001600160a01b038116620001fa5760405162461bcd60e51b815260206004820152602660248201527f455243313936373a206e65772061646d696e20697320746865207a65726f206160448201526564647265737360d01b60648201526084015b60405180910390fd5b806200022360008051602062000e8583398151915260001b6200037760201b620001951760201c565b80546001600160a01b0319166001600160a01b039290921691909117905550565b6200025a816200037a60201b620001981760201c565b620002be5760405162461bcd60e51b815260206004820152602d60248201527f455243313936373a206e657720696d706c656d656e746174696f6e206973206e60448201526c1bdd08184818dbdb9d1c9858dd609a1b6064820152608401620001f1565b80620002237f360894a13ba1a3210667c828492db98dca3e2076cc3735a920a3ca505d382bbc60001b6200037760201b620001951760201c565b6060600080856001600160a01b03168560405162000317919062000577565b600060405180830381855af49150503d806000811462000354576040519150601f19603f3d011682016040523d82523d6000602084013e62000359565b606091505b5090925090506200036d8683838762000389565b9695505050505050565b90565b6001600160a01b03163b151590565b60608315620003fd578251600003620003f5576001600160a01b0385163b620003f55760405162461bcd60e51b815260206004820152601d60248201527f416464726573733a2063616c6c20746f206e6f6e2d636f6e74726163740000006044820152606401620001f1565b508162000409565b62000409838362000411565b949350505050565b815115620004225781518083602001fd5b8060405162461bcd60e51b8152600401620001f1919062000595565b80516001600160a01b03811681146200045657600080fd5b919050565b634e487b7160e01b600052604160045260246000fd5b60005b838110156200048e57818101518382015260200162000474565b50506000910152565b600080600060608486031215620004ad57600080fd5b620004b8846200043e565b9250620004c8602085016200043e565b60408501519092506001600160401b0380821115620004e657600080fd5b818601915086601f830112620004fb57600080fd5b8151818111156200051057620005106200045b565b604051601f8201601f19908116603f011681019083821181831017156200053b576200053b6200045b565b816040528281528960208487010111156200055557600080fd5b6200056883602083016020880162000471565b80955050505050509250925092565b600082516200058b81846020870162000471565b9190910192915050565b6020815260008251806020840152620005b681604085016020870162000471565b601f01601f19169190910160400192915050565b6108ab80620005da6000396000f3fe60806040523661001357610011610017565b005b6100115b61001f6101a7565b6001600160a01b0316330361015f5760606001600160e01b0319600035166364d3180d60e11b810161005a576100536101da565b9150610157565b63587086bd60e11b6001600160e01b031982160161007a57610053610231565b63070d7c6960e41b6001600160e01b031982160161009a57610053610277565b621eb96f60e61b6001600160e01b03198216016100b9576100536102a8565b63a39f25e560e01b6001600160e01b03198216016100d9576100536102e8565b60405162461bcd60e51b815260206004820152604260248201527f5472616e73706172656e745570677261646561626c6550726f78793a2061646d60448201527f696e2063616e6e6f742066616c6c6261636b20746f2070726f78792074617267606482015261195d60f21b608482015260a4015b60405180910390fd5b815160208301f35b6101676102fc565b565b606061018e838360405180606001604052806027815260200161084f6027913961030c565b9392505050565b90565b6001600160a01b03163b151590565b60007fb53127684a568b3173ae13b9f8a6016e243e63b6e8ee1178d6a717850b5d61035b546001600160a01b0316919050565b60606101e4610384565b60006101f336600481846106a2565b81019061020091906106e8565b905061021d8160405180602001604052806000815250600061038f565b505060408051602081019091526000815290565b606060008061024336600481846106a2565b8101906102509190610719565b915091506102608282600161038f565b604051806020016040528060008152509250505090565b6060610281610384565b600061029036600481846106a2565b81019061029d91906106e8565b905061021d816103bb565b60606102b2610384565b60006102bc6101a7565b604080516001600160a01b03831660208201529192500160405160208183030381529060405291505090565b60606102f2610384565b60006102bc610412565b610167610307610412565b610421565b6060600080856001600160a01b03168560405161032991906107ff565b600060405180830381855af49150503d8060008114610364576040519150601f19603f3d011682016040523d82523d6000602084013e610369565b606091505b509150915061037a86838387610445565b9695505050505050565b341561016757600080fd5b610398836104c6565b6000825111806103a55750805b156103b6576103b48383610169565b505b505050565b7f7e644d79422f17c01e4894b5f4f588d331ebfa28653d42ae832dc59e38c9798f6103e46101a7565b604080516001600160a01b03928316815291841660208301520160405180910390a161040f81610506565b50565b600061041c6105bc565b905090565b3660008037600080366000845af43d6000803e808015610440573d6000f35b3d6000fd5b606083156104b45782516000036104ad576001600160a01b0385163b6104ad5760405162461bcd60e51b815260206004820152601d60248201527f416464726573733a2063616c6c20746f206e6f6e2d636f6e7472616374000000604482015260640161014e565b50816104be565b6104be83836105e4565b949350505050565b6104cf8161060e565b6040516001600160a01b038216907fbc7cd75a20ee27fd9adebab32041f755214dbc6bffa90cc0225b39da2e5c2d3b90600090a250565b6001600160a01b03811661056b5760405162461bcd60e51b815260206004820152602660248201527f455243313936373a206e65772061646d696e20697320746865207a65726f206160448201526564647265737360d01b606482015260840161014e565b807fb53127684a568b3173ae13b9f8a6016e243e63b6e8ee1178d6a717850b5d61035b805473ffffffffffffffffffffffffffffffffffffffff19166001600160a01b039290921691909117905550565b60007f360894a13ba1a3210667c828492db98dca3e2076cc3735a920a3ca505d382bbc6101cb565b8151156105f45781518083602001fd5b8060405162461bcd60e51b815260040161014e919061081b565b6001600160a01b0381163b61067b5760405162461bcd60e51b815260206004820152602d60248201527f455243313936373a206e657720696d706c656d656e746174696f6e206973206e60448201526c1bdd08184818dbdb9d1c9858dd609a1b606482015260840161014e565b807f360894a13ba1a3210667c828492db98dca3e2076cc3735a920a3ca505d382bbc61058e565b600080858511156106b257600080fd5b838611156106bf57600080fd5b5050820193919092039150565b80356001600160a01b03811681146106e357600080fd5b919050565b6000602082840312156106fa57600080fd5b61018e826106cc565b634e487b7160e01b600052604160045260246000fd5b6000806040838503121561072c57600080fd5b610735836106cc565b9150602083013567ffffffffffffffff8082111561075257600080fd5b818501915085601f83011261076657600080fd5b81358181111561077857610778610703565b604051601f8201601f19908116603f011681019083821181831017156107a0576107a0610703565b816040528281528860208487010111156107b957600080fd5b8260208601602083013760006020848301015280955050505050509250929050565b60005b838110156107f65781810151838201526020016107de565b50506000910152565b600082516108118184602087016107db565b9190910192915050565b602081526000825180602084015261083a8160408501602087016107db565b601f01601f1916919091016040019291505056fe416464726573733a206c6f772d6c6576656c2064656c65676174652063616c6c206661696c6564a2646970667358221220fb4626745ae8f971d2ea920e16c9476c772f050301b983b3f02aa85dd4e1c5c164736f6c63430008120033b53127684a568b3173ae13b9f8a6016e243e63b6e8ee1178d6a717850b5d6103416464726573733a206c6f772d6c6576656c2064656c65676174652063616c6c206661696c6564cf9d4a2ff924c5f3553e3c8485e6bc24fde822593d2c3d78c8fabaada123f8f6a264697066735822122037de5f28270c3c84869d3b90cdb4d77db91101800cbe3bda4d4039ad20c3b1ba64736f6c63430008120033",
  "linkReferences": {},
  "deployedLinkReferences": {}
}