{
  "_format": "hh-sol-artifact-1",
  "contractName": "NFTDAOFactory",
  "sourceName": "contracts/dao/NFTDAOFactory.sol",
  "abi": [
    {
      "inputs": [
        {
          "internalType": "string",
          "name": "message",
          "type": "string"
        }
      ],
      "name": "InvalidInput",
      "type": "error"
    },
    {
      "inputs": [
        {
          "internalType": "string",
          "name": "message",
          "type": "string"
        }
      ],
      "name": "NotAdmin",
      "type": "error"
    },
    {
      "anonymous": false,
      "inputs": [
        {
          "indexed": false,
          "internalType": "address",
          "name": "daoAddress",
          "type": "address"
        },
        {
          "components": [
            {
              "internalType": "address",
              "name": "tokenTransferLogic",
              "type": "address"
            },
            {
              "internalType": "address",
              "name": "textLogic",
              "type": "address"
            },
            {
              "internalType": "address",
              "name": "contractUpgradeLogic",
              "type": "address"
            },
            {
              "internalType": "address",
              "name": "createTokenLogic",
              "type": "address"
            }
          ],
          "indexed": false,
          "internalType": "struct ISharedDAOModel.Governor",
          "name": "governors",
          "type": "tuple"
        },
        {
          "indexed": false,
          "internalType": "address",
          "name": "tokenHolderAddress",
          "type": "address"
        },
        {
          "components": [
            {
              "internalType": "address",
              "name": "admin",
              "type": "address"
            },
            {
              "internalType": "string",
              "name": "name",
              "type": "string"
            },
            {
              "internalType": "string",
              "name": "logoUrl",
              "type": "string"
            },
            {
              "internalType": "contract IERC20",
              "name": "tokenAddress",
              "type": "address"
            },
            {
              "internalType": "uint256",
              "name": "quorumThreshold",
              "type": "uint256"
            },
            {
              "internalType": "uint256",
              "name": "votingDelay",
              "type": "uint256"
            },
            {
              "internalType": "uint256",
              "name": "votingPeriod",
              "type": "uint256"
            },
            {
              "internalType": "bool",
              "name": "isPrivate",
              "type": "bool"
            },
            {
              "internalType": "string",
              "name": "description",
              "type": "string"
            },
            {
              "internalType": "string[]",
              "name": "webLinks",
              "type": "string[]"
            }
          ],
          "indexed": false,
          "internalType": "struct ISharedDAOModel.CreateDAOInputs",
          "name": "inputs",
          "type": "tuple"
        }
      ],
      "name": "DAOCreated",
      "type": "event"
    },
    {
      "anonymous": false,
      "inputs": [
        {
          "components": [
            {
              "internalType": "address",
              "name": "tokenTransferLogic",
              "type": "address"
            },
            {
              "internalType": "address",
              "name": "textLogic",
              "type": "address"
            },
            {
              "internalType": "address",
              "name": "contractUpgradeLogic",
              "type": "address"
            },
            {
              "internalType": "address",
              "name": "createTokenLogic",
              "type": "address"
            }
          ],
          "indexed": true,
          "internalType": "struct ISharedDAOModel.Governor",
          "name": "oldImplementation",
          "type": "tuple"
        },
        {
          "components": [
            {
              "internalType": "address",
              "name": "tokenTransferLogic",
              "type": "address"
            },
            {
              "internalType": "address",
              "name": "textLogic",
              "type": "address"
            },
            {
              "internalType": "address",
              "name": "contractUpgradeLogic",
              "type": "address"
            },
            {
              "internalType": "address",
              "name": "createTokenLogic",
              "type": "address"
            }
          ],
          "indexed": true,
          "internalType": "struct ISharedDAOModel.Governor",
          "name": "newImplementation",
          "type": "tuple"
        },
        {
          "indexed": false,
          "internalType": "string",
          "name": "name",
          "type": "string"
        }
      ],
      "name": "GovernorLogicUpdated",
      "type": "event"
    },
    {
      "anonymous": false,
      "inputs": [
        {
          "indexed": false,
          "internalType": "uint8",
          "name": "version",
          "type": "uint8"
        }
      ],
      "name": "Initialized",
      "type": "event"
    },
    {
      "anonymous": false,
      "inputs": [
        {
          "indexed": true,
          "internalType": "address",
          "name": "oldImplementation",
          "type": "address"
        },
        {
          "indexed": true,
          "internalType": "address",
          "name": "newImplementation",
          "type": "address"
        },
        {
          "indexed": false,
          "internalType": "string",
          "name": "name",
          "type": "string"
        }
      ],
      "name": "LogicUpdated",
      "type": "event"
    },
    {
      "anonymous": false,
      "inputs": [
        {
          "indexed": true,
          "internalType": "address",
          "name": "previousOwner",
          "type": "address"
        },
        {
          "indexed": true,
          "internalType": "address",
          "name": "newOwner",
          "type": "address"
        }
      ],
      "name": "OwnershipTransferred",
      "type": "event"
    },
    {
      "inputs": [
        {
          "components": [
            {
              "internalType": "address",
              "name": "admin",
              "type": "address"
            },
            {
              "internalType": "string",
              "name": "name",
              "type": "string"
            },
            {
              "internalType": "string",
              "name": "logoUrl",
              "type": "string"
            },
            {
              "internalType": "contract IERC20",
              "name": "tokenAddress",
              "type": "address"
            },
            {
              "internalType": "uint256",
              "name": "quorumThreshold",
              "type": "uint256"
            },
            {
              "internalType": "uint256",
              "name": "votingDelay",
              "type": "uint256"
            },
            {
              "internalType": "uint256",
              "name": "votingPeriod",
              "type": "uint256"
            },
            {
              "internalType": "bool",
              "name": "isPrivate",
              "type": "bool"
            },
            {
              "internalType": "string",
              "name": "description",
              "type": "string"
            },
            {
              "internalType": "string[]",
              "name": "webLinks",
              "type": "string[]"
            }
          ],
          "internalType": "struct ISharedDAOModel.CreateDAOInputs",
          "name": "_createDAOInputs",
          "type": "tuple"
        }
      ],
      "name": "createDAO",
      "outputs": [
        {
          "internalType": "address",
          "name": "",
          "type": "address"
        }
      ],
      "stateMutability": "nonpayable",
      "type": "function"
    },
    {
      "inputs": [],
      "name": "getDAOs",
      "outputs": [
        {
          "internalType": "address[]",
          "name": "",
          "type": "address[]"
        }
      ],
      "stateMutability": "view",
      "type": "function"
    },
    {
      "inputs": [],
      "name": "getHederaServiceVersion",
      "outputs": [
        {
          "internalType": "contract IHederaService",
          "name": "",
          "type": "address"
        }
      ],
      "stateMutability": "view",
      "type": "function"
    },
    {
      "inputs": [],
      "name": "getTokenHolderFactoryAddress",
      "outputs": [
        {
          "internalType": "address",
          "name": "",
          "type": "address"
        }
      ],
      "stateMutability": "view",
      "type": "function"
    },
    {
      "inputs": [
        {
          "internalType": "address",
          "name": "_proxyAdmin",
          "type": "address"
        },
        {
          "internalType": "contract IHederaService",
          "name": "_hederaService",
          "type": "address"
        },
        {
          "internalType": "contract IGovernanceDAO",
          "name": "_daoLogic",
          "type": "address"
        },
        {
          "internalType": "contract ITokenHolderFactory",
          "name": "_tokenHolderFactory",
          "type": "address"
        },
        {
          "components": [
            {
              "internalType": "address",
              "name": "tokenTransferLogic",
              "type": "address"
            },
            {
              "internalType": "address",
              "name": "textLogic",
              "type": "address"
            },
            {
              "internalType": "address",
              "name": "contractUpgradeLogic",
              "type": "address"
            },
            {
              "internalType": "address",
              "name": "createTokenLogic",
              "type": "address"
            }
          ],
          "internalType": "struct ISharedDAOModel.Governor",
          "name": "_governors",
          "type": "tuple"
        }
      ],
      "name": "initialize",
      "outputs": [],
      "stateMutability": "nonpayable",
      "type": "function"
    },
    {
      "inputs": [],
      "name": "owner",
      "outputs": [
        {
          "internalType": "address",
          "name": "",
          "type": "address"
        }
      ],
      "stateMutability": "view",
      "type": "function"
    },
    {
      "inputs": [],
      "name": "renounceOwnership",
      "outputs": [],
      "stateMutability": "nonpayable",
      "type": "function"
    },
    {
      "inputs": [
        {
          "internalType": "address",
          "name": "newOwner",
          "type": "address"
        }
      ],
      "name": "transferOwnership",
      "outputs": [],
      "stateMutability": "nonpayable",
      "type": "function"
    },
    {
      "inputs": [
        {
          "components": [
            {
              "internalType": "address",
              "name": "tokenTransferLogic",
              "type": "address"
            },
            {
              "internalType": "address",
              "name": "textLogic",
              "type": "address"
            },
            {
              "internalType": "address",
              "name": "contractUpgradeLogic",
              "type": "address"
            },
            {
              "internalType": "address",
              "name": "createTokenLogic",
              "type": "address"
            }
          ],
          "internalType": "struct ISharedDAOModel.Governor",
          "name": "_newImpl",
          "type": "tuple"
        }
      ],
      "name": "upgradeGovernorsImplementation",
      "outputs": [],
      "stateMutability": "nonpayable",
      "type": "function"
    },
    {
      "inputs": [
        {
          "internalType": "contract IHederaService",
          "name": "newHederaService",
          "type": "address"
        }
      ],
      "name": "upgradeHederaService",
      "outputs": [],
      "stateMutability": "nonpayable",
      "type": "function"
    },
    {
      "inputs": [
        {
          "internalType": "contract IGovernanceDAO",
          "name": "_newImpl",
          "type": "address"
        }
      ],
      "name": "upgradeTokenDaoLogicImplementation",
      "outputs": [],
      "stateMutability": "nonpayable",
      "type": "function"
    },
    {
      "inputs": [
        {
          "internalType": "contract ITokenHolderFactory",
          "name": "_newTokenHolderFactory",
          "type": "address"
        }
      ],
      "name": "upgradeTokenHolderFactory",
      "outputs": [],
      "stateMutability": "nonpayable",
      "type": "function"
    }
  ],
  "bytecode": "0x608060405234801561001057600080fd5b5061254a806100206000396000f3fe60806040523480156200001157600080fd5b5060043610620000e55760003560e01c80638da5cb5b116200008b578063d26d681f1162000062578063d26d681f14620001c3578063f2fde38b14620001da578063f7f49f0c14620001f157600080fd5b80638da5cb5b14620001835780639edd88eb1462000195578063a860b89514620001ac57600080fd5b80636dab6f7511620000c05780636dab6f751462000150578063715018a6146200016257806374d44434146200016c57600080fd5b8063242e86d214620000ea5780633f2de1aa1462000103578063415cc7dd1462000137575b600080fd5b62000101620000fb36600462000e45565b620001fb565b005b6200011a6200011436600462001028565b620002df565b6040516001600160a01b0390911681526020015b60405180910390f35b62000141620004d5565b6040516200012e919062001170565b6066546001600160a01b03166200011a565b6200010162000539565b620001016200017d36600462000e45565b62000551565b6033546001600160a01b03166200011a565b62000101620001a636600462001254565b6200063b565b62000101620001bd366004620012ce565b6200097b565b62000101620001d436600462000e45565b62000ae0565b62000101620001eb36600462000e45565b62000b0c565b6200011a62000b8b565b6067546001600160a01b031633146200025657604051633b12922f60e11b8152602060048201526017602482015276111053d19858dd1bdc9e4e88185d5d1a0819985a5b1959604a1b60448201526064015b60405180910390fd5b6069546040805180820182526008815267546f6b656e44414f60c01b602082015290516001600160a01b038085169316917fcf9d4a2ff924c5f3553e3c8485e6bc24fde822593d2c3d78c8fabaada123f8f691620002b5919062001335565b60405180910390a3606980546001600160a01b0319166001600160a01b0392909216919091179055565b60608101516000906001600160a01b0316620003495760405163d647364f60e01b815260206004820152602160248201527f44414f466163746f72793a20746f6b656e2061646472657373206973207a65726044820152606f60f81b60648201526084016200024d565b8160c00151600003620003aa5760405163d647364f60e01b815260206004820152602160248201527f44414f466163746f72793a20766f74696e6720706572696f64206973207a65726044820152606f60f81b60648201526084016200024d565b606a54606083015160405163d7fbaa1960e01b81526001600160a01b039182166004820152600092919091169063d7fbaa19906024016020604051808303816000875af115801562000400573d6000803e3d6000fd5b505050506040513d601f19601f820116820180604052508101906200042691906200134a565b9050600062000436848362000bf5565b90508360e001516200048e57606880546001810182556000919091527fa2153420d844928b4421650203c77babc8b33d7f2e7b450e2966db0c220977530180546001600160a01b0319166001600160a01b0383161790555b7fccb0eca5b6e225a4f5feea11b6879c7ba708cbefd3d63ce15248c4df396663be81606b8487604051620004c694939291906200149b565b60405180910390a19392505050565b606060688054806020026020016040519081016040528092919081815260200182805480156200052f57602002820191906000526020600020905b81546001600160a01b0316815260019091019060200180831162000510575b5050505050905090565b6200054362000cb2565b6200054f600062000d0e565b565b6067546001600160a01b03163314620005a857604051633b12922f60e11b8152602060048201526017602482015276111053d19858dd1bdc9e4e88185d5d1a0819985a5b1959604a1b60448201526064016200024d565b606a546040805180820182526012815271546f6b656e486f6c646572466163746f727960701b602082015290516001600160a01b038085169316917fcf9d4a2ff924c5f3553e3c8485e6bc24fde822593d2c3d78c8fabaada123f8f69162000611919062001335565b60405180910390a3606a80546001600160a01b0319166001600160a01b0392909216919091179055565b600054610100900460ff16158080156200065c5750600054600160ff909116105b80620006785750303b15801562000678575060005460ff166001145b620006dd5760405162461bcd60e51b815260206004820152602e60248201527f496e697469616c697a61626c653a20636f6e747261637420697320616c72656160448201526d191e481a5b9a5d1a585b1a5e995960921b60648201526084016200024d565b6000805460ff19166001179055801562000701576000805461ff0019166101001790555b606580546001600160a01b031916331790556200071d62000d60565b606780546001600160a01b03199081166001600160a01b0389811691909117909255606680548216888416179055606980548216878416908117909155606a805483168785161790558451606b80548416918516919091179055602080860151606c80548516918616919091179055604080870151606d805486169187169190911790556060870151606e8054909516951694909417909255825180840184526008815267546f6b656e44414f60c01b9281019290925291516000917fcf9d4a2ff924c5f3553e3c8485e6bc24fde822593d2c3d78c8fabaada123f8f69162000807919062001335565b60405180910390a3606a546040805180820182526012815271546f6b656e486f6c646572466163746f727960701b602082015290516001600160a01b03909216916000917fcf9d4a2ff924c5f3553e3c8485e6bc24fde822593d2c3d78c8fabaada123f8f69162000879919062001335565b60405180910390a36040805160808101825260008082526020820181905281830181905260608201529051620008b1908490620014f7565b604051809103902081604051620008c99190620014f7565b60405180910390207f429e3348bcf9d2e60a6a73d63d94bf646cbe299ed56df8317bee87dcd030a66660405180604001604052806009815260200168476f7665726e6f727360b81b81525060405162000923919062001335565b60405180910390a350801562000973576000805461ff0019169055604051600181527f7f26b83ff96e1f2b6a682f133852f6798a09c465da95921460cefb38474024989060200160405180910390a15b505050505050565b6067546001600160a01b03163314620009d257604051633b12922f60e11b8152602060048201526017602482015276111053d19858dd1bdc9e4e88185d5d1a0819985a5b1959604a1b60448201526064016200024d565b80604051620009e29190620014f7565b60408051918290038220606b546001600160a01b039081168452606c5481166020850152606d54811692840192909252606e5490911660608301529060800160405180910390207f429e3348bcf9d2e60a6a73d63d94bf646cbe299ed56df8317bee87dcd030a66660405180604001604052806009815260200168476f7665726e6f727360b81b81525060405162000a7b919062001335565b60405180910390a38051606b80546001600160a01b03199081166001600160a01b03938416179091556020830151606c805483169184169190911790556040830151606d80548316918416919091179055606090920151606e80549093169116179055565b62000aea62000cb2565b606680546001600160a01b0319166001600160a01b0392909216919091179055565b62000b1662000cb2565b6001600160a01b03811662000b7d5760405162461bcd60e51b815260206004820152602660248201527f4f776e61626c653a206e6577206f776e657220697320746865207a65726f206160448201526564647265737360d01b60648201526084016200024d565b62000b888162000d0e565b50565b6067546000906001600160a01b0316331462000be557604051633b12922f60e11b8152602060048201526017602482015276111053d19858dd1bdc9e4e88185d5d1a0819985a5b1959604a1b60448201526064016200024d565b50606a546001600160a01b031690565b606954600090819062000c11906001600160a01b031662000d94565b604080516080810182526066546001600160a01b03908116825286811660208301526067548116828401526065548116606083015291516367154d2360e11b8152929350919083169063ce2a9a469062000c75908890606b90869060040162001532565b600060405180830381600087803b15801562000c9057600080fd5b505af115801562000ca5573d6000803e3d6000fd5b5093979650505050505050565b6033546001600160a01b031633146200054f5760405162461bcd60e51b815260206004820181905260248201527f4f776e61626c653a2063616c6c6572206973206e6f7420746865206f776e657260448201526064016200024d565b603380546001600160a01b038381166001600160a01b0319831681179093556040519116919082907f8be0079c531659141344cd1fd0a4f28419497f9722a3daafe3b4186f6b6457e090600090a35050565b600054610100900460ff1662000d8a5760405162461bcd60e51b81526004016200024d90620015c6565b6200054f62000dec565b60675460405160009160609184916001600160a01b031690839062000db99062000e21565b62000dc79392919062001611565b604051809103906000f08015801562000de4573d6000803e3d6000fd5b509392505050565b600054610100900460ff1662000e165760405162461bcd60e51b81526004016200024d90620015c6565b6200054f3362000d0e565b610ecc806200164983390190565b6001600160a01b038116811462000b8857600080fd5b60006020828403121562000e5857600080fd5b813562000e658162000e2f565b9392505050565b634e487b7160e01b600052604160045260246000fd5b604051610140810167ffffffffffffffff8111828210171562000ea95762000ea962000e6c565b60405290565b604051601f8201601f1916810167ffffffffffffffff8111828210171562000edb5762000edb62000e6c565b604052919050565b803562000ef08162000e2f565b919050565b600082601f83011262000f0757600080fd5b813567ffffffffffffffff81111562000f245762000f2462000e6c565b62000f39601f8201601f191660200162000eaf565b81815284602083860101111562000f4f57600080fd5b816020850160208301376000918101602001919091529392505050565b8035801515811462000ef057600080fd5b600082601f83011262000f8f57600080fd5b8135602067ffffffffffffffff8083111562000faf5762000faf62000e6c565b8260051b62000fc083820162000eaf565b938452858101830193838101908886111562000fdb57600080fd5b84880192505b858310156200101c5782358481111562000ffb5760008081fd5b6200100b8a87838c010162000ef5565b835250918401919084019062000fe1565b98975050505050505050565b6000602082840312156200103b57600080fd5b813567ffffffffffffffff808211156200105457600080fd5b9083019061014082860312156200106a57600080fd5b6200107462000e82565b6200107f8362000ee3565b81526020830135828111156200109457600080fd5b620010a28782860162000ef5565b602083015250604083013582811115620010bb57600080fd5b620010c98782860162000ef5565b604083015250620010dd6060840162000ee3565b60608201526080830135608082015260a083013560a082015260c083013560c08201526200110e60e0840162000f6c565b60e082015261010080840135838111156200112857600080fd5b620011368882870162000ef5565b82840152505061012080840135838111156200115157600080fd5b6200115f8882870162000f7d565b918301919091525095945050505050565b6020808252825182820181905260009190848201906040850190845b81811015620011b35783516001600160a01b0316835292840192918401916001016200118c565b50909695505050505050565b600060808284031215620011d257600080fd5b6040516080810181811067ffffffffffffffff82111715620011f857620011f862000e6c565b60405290508082356200120b8162000e2f565b815260208301356200121d8162000e2f565b60208201526040830135620012328162000e2f565b60408201526060830135620012478162000e2f565b6060919091015292915050565b600080600080600061010086880312156200126e57600080fd5b85356200127b8162000e2f565b945060208601356200128d8162000e2f565b935060408601356200129f8162000e2f565b92506060860135620012b18162000e2f565b9150620012c28760808801620011bf565b90509295509295909350565b600060808284031215620012e157600080fd5b62000e658383620011bf565b6000815180845260005b818110156200131557602081850181015186830182015201620012f7565b506000602082860101526020601f19601f83011685010191505092915050565b60208152600062000e656020830184620012ed565b6000602082840312156200135d57600080fd5b815162000e658162000e2f565b6000815180845260208085019450848260051b860182860160005b85811015620013b3578383038952620013a0838351620012ed565b9885019892509084019060010162001385565b5090979650505050505050565b80516001600160a01b0316825260006101406020830151816020860152620013eb82860182620012ed565b91505060408301518482036040860152620014078282620012ed565b91505060608301516200142560608601826001600160a01b03169052565b506080830151608085015260a083015160a085015260c083015160c085015260e08301516200145860e086018215159052565b506101008084015185830382870152620014738382620012ed565b9250505061012080840151858303828701526200149183826200136a565b9695505050505050565b6001600160a01b03858116825284548116602083015260018501548116604083015260028501548116606083015260038501548116608083015260009080851660a08401525060e060c08301526200149160e0830184620013c0565b81516001600160a01b039081168252602080840151821690830152604080840151821690830152606092830151169181019190915260800190565b60006101208083526200154881840187620013c0565b85546001600160a01b03908116602086015260018701548116604086015260028701548116606086015260038701541660808501529150620015879050565b6001600160a01b038084511660a08401528060208501511660c08401528060408501511660e08401528060608501511661010084015250949350505050565b6020808252602b908201527f496e697469616c697a61626c653a20636f6e7472616374206973206e6f74206960408201526a6e697469616c697a696e6760a81b606082015260800190565b60006001600160a01b038086168352808516602084015250606060408301526200163f6060830184620012ed565b9594505050505056fe608060405260405162000ecc38038062000ecc833981016040819052620000269162000497565b828162000036828260006200004d565b50620000449050826200008a565b505050620005ca565b6200005883620000e5565b600082511180620000665750805b1562000085576200008383836200012760201b620001691760201c565b505b505050565b7f7e644d79422f17c01e4894b5f4f588d331ebfa28653d42ae832dc59e38c9798f620000b562000156565b604080516001600160a01b03928316815291841660208301520160405180910390a1620000e2816200018f565b50565b620000f08162000244565b6040516001600160a01b038216907fbc7cd75a20ee27fd9adebab32041f755214dbc6bffa90cc0225b39da2e5c2d3b90600090a250565b60606200014f838360405180606001604052806027815260200162000ea560279139620002f8565b9392505050565b60006200018060008051602062000e8583398151915260001b6200037760201b620001951760201c565b546001600160a01b0316919050565b6001600160a01b038116620001fa5760405162461bcd60e51b815260206004820152602660248201527f455243313936373a206e65772061646d696e20697320746865207a65726f206160448201526564647265737360d01b60648201526084015b60405180910390fd5b806200022360008051602062000e8583398151915260001b6200037760201b620001951760201c565b80546001600160a01b0319166001600160a01b039290921691909117905550565b6200025a816200037a60201b620001981760201c565b620002be5760405162461bcd60e51b815260206004820152602d60248201527f455243313936373a206e657720696d706c656d656e746174696f6e206973206e60448201526c1bdd08184818dbdb9d1c9858dd609a1b6064820152608401620001f1565b80620002237f360894a13ba1a3210667c828492db98dca3e2076cc3735a920a3ca505d382bbc60001b6200037760201b620001951760201c565b6060600080856001600160a01b03168560405162000317919062000577565b600060405180830381855af49150503d806000811462000354576040519150601f19603f3d011682016040523d82523d6000602084013e62000359565b606091505b5090925090506200036d8683838762000389565b9695505050505050565b90565b6001600160a01b03163b151590565b60608315620003fd578251600003620003f5576001600160a01b0385163b620003f55760405162461bcd60e51b815260206004820152601d60248201527f416464726573733a2063616c6c20746f206e6f6e2d636f6e74726163740000006044820152606401620001f1565b508162000409565b62000409838362000411565b949350505050565b815115620004225781518083602001fd5b8060405162461bcd60e51b8152600401620001f1919062000595565b80516001600160a01b03811681146200045657600080fd5b919050565b634e487b7160e01b600052604160045260246000fd5b60005b838110156200048e57818101518382015260200162000474565b50506000910152565b600080600060608486031215620004ad57600080fd5b620004b8846200043e565b9250620004c8602085016200043e565b60408501519092506001600160401b0380821115620004e657600080fd5b818601915086601f830112620004fb57600080fd5b8151818111156200051057620005106200045b565b604051601f8201601f19908116603f011681019083821181831017156200053b576200053b6200045b565b816040528281528960208487010111156200055557600080fd5b6200056883602083016020880162000471565b80955050505050509250925092565b600082516200058b81846020870162000471565b9190910192915050565b6020815260008251806020840152620005b681604085016020870162000471565b601f01601f19169190910160400192915050565b6108ab80620005da6000396000f3fe60806040523661001357610011610017565b005b6100115b61001f6101a7565b6001600160a01b0316330361015f5760606001600160e01b0319600035166364d3180d60e11b810161005a576100536101da565b9150610157565b63587086bd60e11b6001600160e01b031982160161007a57610053610231565b63070d7c6960e41b6001600160e01b031982160161009a57610053610277565b621eb96f60e61b6001600160e01b03198216016100b9576100536102a8565b63a39f25e560e01b6001600160e01b03198216016100d9576100536102e8565b60405162461bcd60e51b815260206004820152604260248201527f5472616e73706172656e745570677261646561626c6550726f78793a2061646d60448201527f696e2063616e6e6f742066616c6c6261636b20746f2070726f78792074617267606482015261195d60f21b608482015260a4015b60405180910390fd5b815160208301f35b6101676102fc565b565b606061018e838360405180606001604052806027815260200161084f6027913961030c565b9392505050565b90565b6001600160a01b03163b151590565b60007fb53127684a568b3173ae13b9f8a6016e243e63b6e8ee1178d6a717850b5d61035b546001600160a01b0316919050565b60606101e4610384565b60006101f336600481846106a2565b81019061020091906106e8565b905061021d8160405180602001604052806000815250600061038f565b505060408051602081019091526000815290565b606060008061024336600481846106a2565b8101906102509190610719565b915091506102608282600161038f565b604051806020016040528060008152509250505090565b6060610281610384565b600061029036600481846106a2565b81019061029d91906106e8565b905061021d816103bb565b60606102b2610384565b60006102bc6101a7565b604080516001600160a01b03831660208201529192500160405160208183030381529060405291505090565b60606102f2610384565b60006102bc610412565b610167610307610412565b610421565b6060600080856001600160a01b03168560405161032991906107ff565b600060405180830381855af49150503d8060008114610364576040519150601f19603f3d011682016040523d82523d6000602084013e610369565b606091505b509150915061037a86838387610445565b9695505050505050565b341561016757600080fd5b610398836104c6565b6000825111806103a55750805b156103b6576103b48383610169565b505b505050565b7f7e644d79422f17c01e4894b5f4f588d331ebfa28653d42ae832dc59e38c9798f6103e46101a7565b604080516001600160a01b03928316815291841660208301520160405180910390a161040f81610506565b50565b600061041c6105bc565b905090565b3660008037600080366000845af43d6000803e808015610440573d6000f35b3d6000fd5b606083156104b45782516000036104ad576001600160a01b0385163b6104ad5760405162461bcd60e51b815260206004820152601d60248201527f416464726573733a2063616c6c20746f206e6f6e2d636f6e7472616374000000604482015260640161014e565b50816104be565b6104be83836105e4565b949350505050565b6104cf8161060e565b6040516001600160a01b038216907fbc7cd75a20ee27fd9adebab32041f755214dbc6bffa90cc0225b39da2e5c2d3b90600090a250565b6001600160a01b03811661056b5760405162461bcd60e51b815260206004820152602660248201527f455243313936373a206e65772061646d696e20697320746865207a65726f206160448201526564647265737360d01b606482015260840161014e565b807fb53127684a568b3173ae13b9f8a6016e243e63b6e8ee1178d6a717850b5d61035b805473ffffffffffffffffffffffffffffffffffffffff19166001600160a01b039290921691909117905550565b60007f360894a13ba1a3210667c828492db98dca3e2076cc3735a920a3ca505d382bbc6101cb565b8151156105f45781518083602001fd5b8060405162461bcd60e51b815260040161014e919061081b565b6001600160a01b0381163b61067b5760405162461bcd60e51b815260206004820152602d60248201527f455243313936373a206e657720696d706c656d656e746174696f6e206973206e60448201526c1bdd08184818dbdb9d1c9858dd609a1b606482015260840161014e565b807f360894a13ba1a3210667c828492db98dca3e2076cc3735a920a3ca505d382bbc61058e565b600080858511156106b257600080fd5b838611156106bf57600080fd5b5050820193919092039150565b80356001600160a01b03811681146106e357600080fd5b919050565b6000602082840312156106fa57600080fd5b61018e826106cc565b634e487b7160e01b600052604160045260246000fd5b6000806040838503121561072c57600080fd5b610735836106cc565b9150602083013567ffffffffffffffff8082111561075257600080fd5b818501915085601f83011261076657600080fd5b81358181111561077857610778610703565b604051601f8201601f19908116603f011681019083821181831017156107a0576107a0610703565b816040528281528860208487010111156107b957600080fd5b8260208601602083013760006020848301015280955050505050509250929050565b60005b838110156107f65781810151838201526020016107de565b50506000910152565b600082516108118184602087016107db565b9190910192915050565b602081526000825180602084015261083a8160408501602087016107db565b601f01601f1916919091016040019291505056fe416464726573733a206c6f772d6c6576656c2064656c65676174652063616c6c206661696c6564a2646970667358221220fb4626745ae8f971d2ea920e16c9476c772f050301b983b3f02aa85dd4e1c5c164736f6c63430008120033b53127684a568b3173ae13b9f8a6016e243e63b6e8ee1178d6a717850b5d6103416464726573733a206c6f772d6c6576656c2064656c65676174652063616c6c206661696c6564a26469706673582212200976b73123082cb9e416bc7c37e44eaba1ed18fdecba8fa844a40526b0b89f1c64736f6c63430008120033",
  "linkReferences": {},
  "deployedLinkReferences": {}
}