{
  "_format": "hh-sol-artifact-1",
  "contractName": "Pair",
  "sourceName": "contracts/Pair.sol",
  "abi": [
    {
      "inputs": [
        {
          "internalType": "string",
          "name": "message",
          "type": "string"
        },
        {
          "internalType": "int256",
          "name": "calculatedSlippage",
          "type": "int256"
        },
        {
          "internalType": "int256",
          "name": "slippageThreshold",
          "type": "int256"
        }
      ],
      "name": "SlippageBreached",
      "type": "error"
    },
    {
      "anonymous": false,
      "inputs": [
        {
          "indexed": false,
          "internalType": "uint8",
          "name": "version",
          "type": "uint8"
        }
      ],
      "name": "Initialized",
      "type": "event"
    },
    {
      "inputs": [
        {
          "internalType": "address",
          "name": "fromAccount",
          "type": "address"
        },
        {
          "internalType": "address",
          "name": "_tokenA",
          "type": "address"
        },
        {
          "internalType": "address",
          "name": "_tokenB",
          "type": "address"
        },
        {
          "internalType": "int256",
          "name": "_tokenAQty",
          "type": "int256"
        },
        {
          "internalType": "int256",
          "name": "_tokenBQty",
          "type": "int256"
        }
      ],
      "name": "addLiquidity",
      "outputs": [],
      "stateMutability": "payable",
      "type": "function"
    },
    {
      "inputs": [
        {
          "internalType": "int256",
          "name": "_tokenQ",
          "type": "int256"
        }
      ],
      "name": "feeForToken",
      "outputs": [
        {
          "internalType": "int256",
          "name": "",
          "type": "int256"
        }
      ],
      "stateMutability": "view",
      "type": "function"
    },
    {
      "inputs": [],
      "name": "getContractAddress",
      "outputs": [
        {
          "internalType": "address",
          "name": "",
          "type": "address"
        }
      ],
      "stateMutability": "view",
      "type": "function"
    },
    {
      "inputs": [],
      "name": "getFee",
      "outputs": [
        {
          "internalType": "int256",
          "name": "",
          "type": "int256"
        }
      ],
      "stateMutability": "view",
      "type": "function"
    },
    {
      "inputs": [],
      "name": "getFeePrecision",
      "outputs": [
        {
          "internalType": "int256",
          "name": "",
          "type": "int256"
        }
      ],
      "stateMutability": "pure",
      "type": "function"
    },
    {
      "inputs": [
        {
          "internalType": "int256",
          "name": "amountTokenB",
          "type": "int256"
        }
      ],
      "name": "getInGivenOut",
      "outputs": [
        {
          "internalType": "int256",
          "name": "",
          "type": "int256"
        }
      ],
      "stateMutability": "view",
      "type": "function"
    },
    {
      "inputs": [],
      "name": "getLpTokenContractAddress",
      "outputs": [
        {
          "internalType": "address",
          "name": "",
          "type": "address"
        }
      ],
      "stateMutability": "view",
      "type": "function"
    },
    {
      "inputs": [
        {
          "internalType": "int256",
          "name": "amountTokenA",
          "type": "int256"
        }
      ],
      "name": "getOutGivenIn",
      "outputs": [
        {
          "internalType": "int256",
          "name": "",
          "type": "int256"
        }
      ],
      "stateMutability": "view",
      "type": "function"
    },
    {
      "inputs": [],
      "name": "getPair",
      "outputs": [
        {
          "components": [
            {
              "components": [
                {
                  "internalType": "address",
                  "name": "tokenAddress",
                  "type": "address"
                },
                {
                  "internalType": "int256",
                  "name": "tokenQty",
                  "type": "int256"
                }
              ],
              "internalType": "struct IPair.Token",
              "name": "tokenA",
              "type": "tuple"
            },
            {
              "components": [
                {
                  "internalType": "address",
                  "name": "tokenAddress",
                  "type": "address"
                },
                {
                  "internalType": "int256",
                  "name": "tokenQty",
                  "type": "int256"
                }
              ],
              "internalType": "struct IPair.Token",
              "name": "tokenB",
              "type": "tuple"
            }
          ],
          "internalType": "struct IPair.Pair",
          "name": "",
          "type": "tuple"
        }
      ],
      "stateMutability": "view",
      "type": "function"
    },
    {
      "inputs": [],
      "name": "getPairQty",
      "outputs": [
        {
          "internalType": "int256",
          "name": "",
          "type": "int256"
        },
        {
          "internalType": "int256",
          "name": "",
          "type": "int256"
        }
      ],
      "stateMutability": "view",
      "type": "function"
    },
    {
      "inputs": [],
      "name": "getPrecisionValue",
      "outputs": [
        {
          "internalType": "int256",
          "name": "",
          "type": "int256"
        }
      ],
      "stateMutability": "pure",
      "type": "function"
    },
    {
      "inputs": [],
      "name": "getSlippage",
      "outputs": [
        {
          "internalType": "int256",
          "name": "",
          "type": "int256"
        }
      ],
      "stateMutability": "view",
      "type": "function"
    },
    {
      "inputs": [
        {
          "internalType": "address",
          "name": "token",
          "type": "address"
        }
      ],
      "name": "getSpotPrice",
      "outputs": [
        {
          "internalType": "int256",
          "name": "",
          "type": "int256"
        }
      ],
      "stateMutability": "view",
      "type": "function"
    },
    {
      "inputs": [],
      "name": "getTokenPairAddress",
      "outputs": [
        {
          "internalType": "address",
          "name": "",
          "type": "address"
        },
        {
          "internalType": "address",
          "name": "",
          "type": "address"
        },
        {
          "internalType": "address",
          "name": "",
          "type": "address"
        },
        {
          "internalType": "int256",
          "name": "",
          "type": "int256"
        }
      ],
      "stateMutability": "view",
      "type": "function"
    },
    {
      "inputs": [],
      "name": "getVariantValue",
      "outputs": [
        {
          "internalType": "int256",
          "name": "",
          "type": "int256"
        }
      ],
      "stateMutability": "view",
      "type": "function"
    },
    {
      "inputs": [
        {
          "internalType": "contract IBaseHTS",
          "name": "_tokenService",
          "type": "address"
        },
        {
          "internalType": "contract ILPToken",
          "name": "_lpTokenContract",
          "type": "address"
        },
        {
          "internalType": "address",
          "name": "_tokenA",
          "type": "address"
        },
        {
          "internalType": "address",
          "name": "_tokenB",
          "type": "address"
        },
        {
          "internalType": "address",
          "name": "_treasury",
          "type": "address"
        },
        {
          "internalType": "int256",
          "name": "_fee",
          "type": "int256"
        }
      ],
      "name": "initialize",
      "outputs": [],
      "stateMutability": "nonpayable",
      "type": "function"
    },
    {
      "inputs": [
        {
          "internalType": "address payable",
          "name": "toAccount",
          "type": "address"
        },
        {
          "internalType": "int256",
          "name": "_lpToken",
          "type": "int256"
        }
      ],
      "name": "removeLiquidity",
      "outputs": [],
      "stateMutability": "nonpayable",
      "type": "function"
    },
    {
      "inputs": [
        {
          "internalType": "int256",
          "name": "_slippage",
          "type": "int256"
        }
      ],
      "name": "setSlippage",
      "outputs": [
        {
          "internalType": "int256",
          "name": "",
          "type": "int256"
        }
      ],
      "stateMutability": "nonpayable",
      "type": "function"
    },
    {
      "inputs": [
        {
          "internalType": "int256",
          "name": "_tokenBQty",
          "type": "int256"
        }
      ],
      "name": "slippageInGivenOut",
      "outputs": [
        {
          "internalType": "int256",
          "name": "",
          "type": "int256"
        }
      ],
      "stateMutability": "view",
      "type": "function"
    },
    {
      "inputs": [
        {
          "internalType": "int256",
          "name": "_tokenAQty",
          "type": "int256"
        }
      ],
      "name": "slippageOutGivenIn",
      "outputs": [
        {
          "internalType": "int256",
          "name": "",
          "type": "int256"
        }
      ],
      "stateMutability": "view",
      "type": "function"
    },
    {
      "inputs": [
        {
          "internalType": "address",
          "name": "to",
          "type": "address"
        },
        {
          "internalType": "address",
          "name": "_token",
          "type": "address"
        },
        {
          "internalType": "int256",
          "name": "_deltaQty",
          "type": "int256"
        },
        {
          "internalType": "int256",
          "name": "_slippage",
          "type": "int256"
        }
      ],
      "name": "swapToken",
      "outputs": [],
      "stateMutability": "payable",
      "type": "function"
    }
  ],
  "bytecode": "0x608060405234801561001057600080fd5b506121d0806100206000396000f3fe60806040526004361061016a5760003560e01c80639af5349a116100cb578063ced72f871161007f578063e4f6ed0011610059578063e4f6ed001461043e578063f819163f1461045e578063fc9cee3c1461047357600080fd5b8063ced72f87146103e9578063d13b92cf146103fe578063d813d3621461041e57600080fd5b8063c1f1b1b5116100b0578063c1f1b1b514610314578063c54321b8146103b2578063ca71d4e4146103d257600080fd5b80639af5349a146102aa5780639dcfc22b146102f457600080fd5b806332a2c5d0116101225780635cd9e019116101075780635cd9e01914610249578063845213991461026957806389b11e1b1461028757600080fd5b806332a2c5d0146102025780634593d8161461022957600080fd5b80632537d324116101535780632537d324146101a457806325fd3ee9146101c75780632b26701a146101da57600080fd5b80630d329a521461016f578063198f9b8314610191575b600080fd5b34801561017b57600080fd5b5061018f61018a366004611a8a565b610488565b005b61018f61019f366004611ab6565b6106d5565b3480156101b057600080fd5b5060645b6040519081526020015b60405180910390f35b61018f6101d5366004611afc565b6107a8565b3480156101e657600080fd5b50600354600554604080519283526020830191909152016101be565b34801561020e57600080fd5b50305b6040516001600160a01b0390911681526020016101be565b34801561023557600080fd5b506101b4610244366004611b57565b6108d3565b34801561025557600080fd5b506101b4610264366004611b70565b610936565b34801561027557600080fd5b506001546001600160a01b0316610211565b34801561029357600080fd5b506101b46102a2366004611b57565b600681905590565b3480156102b657600080fd5b506102bf6109ac565b6040516101be94939291906001600160a01b039485168152928416602084015292166040820152606081019190915260800190565b34801561030057600080fd5b506101b461030f366004611b57565b610a58565b34801561032057600080fd5b506103a5604080516080810182526000818301818152606083018290528252825180840190935280835260208084019190915281019190915250604080516080810182526002546001600160a01b0390811682840190815260035460608401528252825180840190935260045416825260055460208381019190915281019190915290565b6040516101be9190611b8d565b3480156103be57600080fd5b506101b46103cd366004611b57565b610ad1565b3480156103de57600080fd5b506305f5e1006101b4565b3480156103f557600080fd5b506007546101b4565b34801561040a57600080fd5b506101b4610419366004611b57565b610b2a565b34801561042a57600080fd5b506101b4610439366004611b57565b610b5a565b34801561044a57600080fd5b5061018f610459366004611bd1565b610bb0565b34801561046a57600080fd5b506101b4610e61565b34801561047f57600080fd5b506101b4610e7c565b6001546040517f6869958f0000000000000000000000000000000000000000000000000000000081526001600160a01b03848116600483015283921690636869958f90602401602060405180830381865afa1580156104eb573d6000803e3d6000fd5b505050506040513d601f19601f8201168201806040525081019061050f9190611c4a565b12156105a2576040517f08c379a000000000000000000000000000000000000000000000000000000000815260206004820152602660248201527f7573657220646f6573206e6f7420686176652073756666696369656e74206c7060448201527f546f6b656e73000000000000000000000000000000000000000000000000000060648201526084015b60405180910390fd5b6000806105ae83610e97565b6002546004546040805160808101909152604a80825294965092945061060a93309389936001600160a01b039081169316918891889161207460208301396040518060800160405280604a81526020016120be604a9139610f5e565b6003805483919060009061061f908490611c92565b909155505060058054829190600090610639908490611c92565b90915550506001546040517f2a4d6260000000000000000000000000000000000000000000000000000000008152600481018590526001600160a01b03868116602483015290911690632a4d6260906044016020604051808303816000875af11580156106aa573d6000803e3d6000fd5b505050506040513d601f19601f820116820180604052508101906106ce9190611c4a565b5050505050565b6002546001600160a01b03848116911614806106fe57506004546001600160a01b038481169116145b610764576040517f08c379a000000000000000000000000000000000000000000000000000000000815260206004820152601f60248201527f506c73207061737320636f727265637420746f6b656e20746f20737761702e006044820152606401610599565b61076e8383610f82565b6002549092506001600160a01b03908116908416036107975761079284838361100a565b6107a2565b6107a2848383611193565b50505050565b6107b28483610f82565b91506107be8382610f82565b9050610800853086868686604051806080016040528060468152602001611f5060469139604051806080016040528060468152602001611f0a60469139610f5e565b60038054839190600090610815908490611cb2565b90915550506005805482919060009061082f908490611cb2565b90915550506001546040517fb4e2517900000000000000000000000000000000000000000000000000000000815260048101849052602481018390526001600160a01b0387811660448301529091169063b4e25179906064016020604051808303816000875af11580156108a7573d6000803e3d6000fd5b505050506040513d601f19601f820116820180604052508101906108cb9190611c4a565b505050505050565b60006305f5e100816108e3610e61565b6003546005549192509060006108f98784611cb2565b6109038686611cda565b61090d9190611d26565b9050600061091b8683611d26565b905060006109298285611c92565b9998505050505050505050565b6002546000906305f5e1009082906001600160a01b0385811691161461095e57600554610962565b6003545b6002549091506000906001600160a01b0386811691161461098557600354610989565b6005545b90506000816109988585611cda565b6109a29190611d26565b9695505050505050565b60025460048054600154604080517f8c237c6900000000000000000000000000000000000000000000000000000000815290516000958695869586956001600160a01b039384169591841694931692638c237c69928281019260209291908290030181865afa158015610a23573d6000803e3d6000fd5b505050506040513d601f19601f82011682018060405250810190610a479190611db5565b600754935093509350935090919293565b6003546005546000916305f5e100918382610a738584611cda565b610a7d9190611d26565b9050600084610a8c8389611cda565b610a969190611d26565b90506000610aa3886108d3565b90508186610ab18383611c92565b610abb9190611cda565b610ac59190611d26565b98975050505050505050565b6003546005546000916305f5e100918381610aec8585611cda565b610af69190611d26565b9050600084610b058389611cda565b610b0f9190611d26565b90506000610b1c88610b5a565b90508186610ab18284611c92565b6000806064600260075485610b3f9190611cda565b610b499190611d26565b610b539190611d26565b9392505050565b600080610b65610e61565b6003546005549192506305f5e100916000610b808783611c92565b610b8a8587611cda565b610b949190611d26565b90506000610ba28583611d26565b905060006109298583611c92565b600054610100900460ff1615808015610bd05750600054600160ff909116105b80610bea5750303b158015610bea575060005460ff166001145b610c76576040517f08c379a000000000000000000000000000000000000000000000000000000000815260206004820152602e60248201527f496e697469616c697a61626c653a20636f6e747261637420697320616c72656160448201527f647920696e697469616c697a65640000000000000000000000000000000000006064820152608401610599565b600080547fffffffffffffffffffffffffffffffffffffffffffffffffffffffffffffff001660011790558015610cd457600080547fffffffffffffffffffffffffffffffffffffffffffffffffffffffffffff00ff166101001790555b600080546001600160a01b03808a1662010000027fffffffffffffffffffff0000000000000000000000000000000000000000ffff909216919091178255600180548983167fffffffffffffffffffffffff0000000000000000000000000000000000000000918216179091556007859055600880548784169083161790556040805160808101825289841681830190815260608201869052815281518083019092528884168252602082810195865280820183905290518051600280549187169186169190911790550151600355516004805491909316911617905551600555610dbf308661130f565b610dc9308561130f565b600854610ddf906001600160a01b03168661130f565b600854610df5906001600160a01b03168561130f565b8015610e5857600080547fffffffffffffffffffffffffffffffffffffffffffffffffffffffffffff00ff169055604051600181527f7f26b83ff96e1f2b6a682f133852f6798a09c465da95921460cefb38474024989060200160405180910390a15b50505050505050565b60035460055460009190610e758183611cda565b9250505090565b6000806006541315610e8f575060065490565b506207a12090565b6000806000600160009054906101000a90046001600160a01b03166001600160a01b031663a1e79f756040518163ffffffff1660e01b8152600401602060405180830381865afa158015610eef573d6000803e3d6000fd5b505050506040513d601f19601f82011682018060405250810190610f139190611c4a565b6003549091506000908290610f289087611cda565b610f329190611d26565b6005549091506000908390610f479088611cda565b610f519190611d26565b9196919550909350505050565b610f6b8888888786611401565b610f788888878685611401565b5050505050505050565b6000610f8d8361147f565b15611001578115610ffa576040517f08c379a000000000000000000000000000000000000000000000000000000000815260206004820181905260248201527f48424152732073686f756c642062652070617373656420617320706179626c656044820152606401610599565b5034611004565b50805b92915050565b600061101583610a58565b90506110218183611514565b600080600061102f866115d1565b9250925092506000611040836108d3565b905060008061104e8361162a565b91509150836002600001600101600082825461106a9190611cb2565b9091555050600254604080516080810190915260448082526110a6928d9230926001600160a01b0390921691899190611e866020830139611401565b6008546002546040805160808101909152604f8082526110e1938e936001600160a01b03918216939116918b91906121086020830139611401565b6110eb8183611cb2565b600580546000906110fd908490611c92565b9091555050600454611119908b906001600160a01b031661130f565b6004546040805160608101825281815261114c9230928e926001600160a01b03909216918791611fe56020830139611401565b6008546004546040805160808101909152604f8082526111879330936001600160a01b03918216939116918691906120256020830139611401565b50505050505050505050565b600061119e83610ad1565b90506111aa8183611514565b60008060006111b8866115d1565b92509250925060006111c983610b5a565b90506000806111d78361162a565b91509150836002800160010160008282546111f29190611cb2565b90915550506004546040805160808101909152604480825261122e928d9230926001600160a01b03909216918991906121576020830139611401565b6008546004546040805160808101909152604f808252611269938e936001600160a01b03918216939116918b91906120256020830139611401565b6112738183611cb2565b60038054600090611285908490611c92565b90915550506002546112a1908b906001600160a01b031661130f565b600254604080516060810182528181526112d49230928e926001600160a01b03909216918791611eca6020830139611401565b6008546002546040805160808101909152604f8082526111879330936001600160a01b0391821693911691869190611f966020830139611401565b6113188161147f565b6113fd5760008054604080516001600160a01b03868116602483015285811660448084019190915283518084039091018152606490920183526020820180517bffffffffffffffffffffffffffffffffffffffffffffffffffffffff167ff4a01e5b00000000000000000000000000000000000000000000000000000000179052915162010000909304909116916113b09190611df6565b600060405180830381855af49150503d80600081146113eb576040519150601f19603f3d011682016040523d82523d6000602084013e6113f0565b606091505b5050905080806107a25750505b5050565b61140a8361147f565b1561145657306001600160a01b0386160361142d5761142882611655565b611436565b611436826116ef565b306001600160a01b0385161461145157611451828583611759565b6106ce565b306001600160a01b038616036114725761145183838684611827565b6106ce83838787856118f2565b60008060029054906101000a90046001600160a01b03166001600160a01b031663e283cff76040518163ffffffff1660e01b81526004016020604051808303816000875af11580156114d5573d6000803e3d6000fd5b505050506040513d601f19601f820116820180604052508101906114f99190611db5565b6001600160a01b0316826001600160a01b0316149050919050565b600080821361152a57611525610e7c565b61152c565b815b9050808313156115cc576040517f18cc060900000000000000000000000000000000000000000000000000000000815260606004820152603760648201527f5468652063616c63756c6174656420736c697070616765206973206f7665722060848201527f74686520736c697070616765207468726573686f6c642e00000000000000000060a4820152602481018490526044810182905260c401610599565b505050565b6000806000806115e085610b2a565b905060006115ef600283611d26565b905060006115fe600284611d26565b9050600061160c8489611c92565b9050600061161a8383611cb2565b9399919850929650945050505050565b600080600061163884610b2a565b905060006116468286611c92565b90506000610f51600284611d26565b8061165e6119d8565b10156116ec576040517f08c379a000000000000000000000000000000000000000000000000000000000815260206004820152602760248201527f436f6e747261637420646f6573206e6f7420686176652073756666696369656e60448201527f74204862617273000000000000000000000000000000000000000000000000006064820152608401610599565b50565b803410156116ec576040517f08c379a000000000000000000000000000000000000000000000000000000000815260206004820152601960248201527f506c65617365207061737320636f7272656374204862617273000000000000006044820152606401610599565b600080546040517f38709f260000000000000000000000000000000000000000000000000000000081526001600160a01b03858116600483015262010000909204909116906338709f2690869060240160206040518083038185885af11580156117c7573d6000803e3d6000fd5b50505050506040513d601f19601f820116820180604052508101906117ec9190611e12565b905081816106ce576040517f08c379a00000000000000000000000000000000000000000000000000000000081526004016105999190611e34565b6040517fa9059cbb0000000000000000000000000000000000000000000000000000000081526001600160a01b038381166004830152602482018590526000919086169063a9059cbb906044016020604051808303816000875af1158015611893573d6000803e3d6000fd5b505050506040513d601f19601f820116820180604052508101906118b79190611e12565b905081816108cb576040517f08c379a00000000000000000000000000000000000000000000000000000000081526004016105999190611e34565b600080546040517f70089d560000000000000000000000000000000000000000000000000000000081526001600160a01b038881166004830152868116602483015285811660448301526064820188905262010000909204909116906370089d56906084016020604051808303816000875af1158015611976573d6000803e3d6000fd5b505050506040513d601f19601f8201168201806040525081019061199a9190611c4a565b90508160168214610e58576040517f08c379a00000000000000000000000000000000000000000000000000000000081526004016105999190611e34565b60008060029054906101000a90046001600160a01b03166001600160a01b031663e283cff76040518163ffffffff1660e01b81526004016020604051808303816000875af1158015611a2e573d6000803e3d6000fd5b505050506040513d601f19601f82011682018060405250810190611a529190611db5565b6002546001600160a01b03908116911614611a6e575060055490565b5060035490565b6001600160a01b03811681146116ec57600080fd5b60008060408385031215611a9d57600080fd5b8235611aa881611a75565b946020939093013593505050565b60008060008060808587031215611acc57600080fd5b8435611ad781611a75565b93506020850135611ae781611a75565b93969395505050506040820135916060013590565b600080600080600060a08688031215611b1457600080fd5b8535611b1f81611a75565b94506020860135611b2f81611a75565b93506040860135611b3f81611a75565b94979396509394606081013594506080013592915050565b600060208284031215611b6957600080fd5b5035919050565b600060208284031215611b8257600080fd5b8135610b5381611a75565b815180516001600160a01b03168252602090810151908201526080810160208381015180516001600160a01b031660408501529081015160608401525b5092915050565b60008060008060008060c08789031215611bea57600080fd5b8635611bf581611a75565b95506020870135611c0581611a75565b94506040870135611c1581611a75565b93506060870135611c2581611a75565b92506080870135611c3581611a75565b8092505060a087013590509295509295509295565b600060208284031215611c5c57600080fd5b5051919050565b7f4e487b7100000000000000000000000000000000000000000000000000000000600052601160045260246000fd5b8181036000831280158383131683831282161715611bca57611bca611c63565b8082018281126000831280158216821582161715611cd257611cd2611c63565b505092915050565b808202600082127f800000000000000000000000000000000000000000000000000000000000000084141615611d1257611d12611c63565b818105831482151761100457611004611c63565b600082611d5c577f4e487b7100000000000000000000000000000000000000000000000000000000600052601260045260246000fd5b7fffffffffffffffffffffffffffffffffffffffffffffffffffffffffffffffff83147f800000000000000000000000000000000000000000000000000000000000000083141615611db057611db0611c63565b500590565b600060208284031215611dc757600080fd5b8151610b5381611a75565b60005b83811015611ded578181015183820152602001611dd5565b50506000910152565b60008251611e08818460208701611dd2565b9190910192915050565b600060208284031215611e2457600080fd5b81518015158114610b5357600080fd5b6020815260008251806020840152611e53816040850160208701611dd2565b601f017fffffffffffffffffffffffffffffffffffffffffffffffffffffffffffffffe016919091016040019291505056fe73776170546f6b656e413a205472616e7366657272696e6720746f6b656e204120746f20636f6e7472616374206661696c656420776974682073746174757320636f646573776170546f6b656e423a205472616e7366657272696e6720746f6b656e204120746f2075736572206661696c656420776974682073746174757320636f6465416464206c69717569646974793a205472616e73666572696e6720746f6b656e204220746f20636f6e7472616374206661696c656420776974682073746174757320636f6465416464206c69717569646974793a205472616e73666572696e6720746f6b656e204120746f20636f6e7472616374206661696c656420776974682073746174757320636f646573776170546f6b656e424665653a205472616e7366657272696e672066656520617320746f6b656e204120746f20747265617375617279206661696c656420776974682073746174757320636f646573776170546f6b656e413a205472616e7366657272696e6720746f6b656e204220746f2075736572206661696c656420776974682073746174757320636f646573776170546f6b656e424665653a205472616e7366657272696e672066656520617320746f6b656e204220746f20747265617375617279206661696c656420776974682073746174757320636f646552656d6f7665206c69717569646974793a205472616e7366657272696e6720746f6b656e204120746f20636f6e7472616374206661696c656420776974682073746174757320636f646552656d6f7665206c69717569646974793a205472616e7366657272696e6720746f6b656e204220746f20636f6e7472616374206661696c656420776974682073746174757320636f646573776170546f6b656e414665653a205472616e7366657272696e672066656520617320746f6b656e204120746f20747265617375617279206661696c656420776974682073746174757320636f646573776170546f6b656e423a205472616e7366657272696e6720746f6b656e204220746f20636f6e7472616374206661696c656420776974682073746174757320636f6465a2646970667358221220ed1b5a35b7945200c1b4ca4df14552f2084b977af0dd9b91d1a00b72fab4d61b64736f6c63430008110033",
  "linkReferences": {},
  "deployedLinkReferences": {}
}