{
  "_format": "hh-sol-artifact-1",
  "contractName": "Pair",
  "sourceName": "contracts/Pair.sol",
  "abi": [
    {
      "anonymous": false,
      "inputs": [
        {
          "indexed": false,
          "internalType": "uint8",
          "name": "version",
          "type": "uint8"
        }
      ],
      "name": "Initialized",
      "type": "event"
    },
    {
      "inputs": [
        {
          "internalType": "address",
          "name": "fromAccount",
          "type": "address"
        },
        {
          "internalType": "address",
          "name": "_tokenA",
          "type": "address"
        },
        {
          "internalType": "address",
          "name": "_tokenB",
          "type": "address"
        },
        {
          "internalType": "int256",
          "name": "_tokenAQty",
          "type": "int256"
        },
        {
          "internalType": "int256",
          "name": "_tokenBQty",
          "type": "int256"
        }
      ],
      "name": "addLiquidity",
      "outputs": [],
      "stateMutability": "nonpayable",
      "type": "function"
    },
    {
      "inputs": [
        {
          "internalType": "int256",
          "name": "_tokenQ",
          "type": "int256"
        }
      ],
      "name": "feeForToken",
      "outputs": [
        {
          "internalType": "int256",
          "name": "",
          "type": "int256"
        }
      ],
      "stateMutability": "view",
      "type": "function"
    },
    {
      "inputs": [],
      "name": "getContractAddress",
      "outputs": [
        {
          "internalType": "address",
          "name": "",
          "type": "address"
        }
      ],
      "stateMutability": "view",
      "type": "function"
    },
    {
      "inputs": [],
      "name": "getFee",
      "outputs": [
        {
          "internalType": "int256",
          "name": "",
          "type": "int256"
        }
      ],
      "stateMutability": "view",
      "type": "function"
    },
    {
      "inputs": [],
      "name": "getFeePrecision",
      "outputs": [
        {
          "internalType": "int256",
          "name": "",
          "type": "int256"
        }
      ],
      "stateMutability": "pure",
      "type": "function"
    },
    {
      "inputs": [
        {
          "internalType": "int256",
          "name": "amountTokenB",
          "type": "int256"
        }
      ],
      "name": "getInGivenOut",
      "outputs": [
        {
          "internalType": "int256",
          "name": "",
          "type": "int256"
        }
      ],
      "stateMutability": "view",
      "type": "function"
    },
    {
      "inputs": [
        {
          "internalType": "int256",
          "name": "amountTokenA",
          "type": "int256"
        }
      ],
      "name": "getOutGivenIn",
      "outputs": [
        {
          "internalType": "int256",
          "name": "",
          "type": "int256"
        }
      ],
      "stateMutability": "view",
      "type": "function"
    },
    {
      "inputs": [],
      "name": "getPair",
      "outputs": [
        {
          "components": [
            {
              "components": [
                {
                  "internalType": "address",
                  "name": "tokenAddress",
                  "type": "address"
                },
                {
                  "internalType": "int256",
                  "name": "tokenQty",
                  "type": "int256"
                }
              ],
              "internalType": "struct IPair.Token",
              "name": "tokenA",
              "type": "tuple"
            },
            {
              "components": [
                {
                  "internalType": "address",
                  "name": "tokenAddress",
                  "type": "address"
                },
                {
                  "internalType": "int256",
                  "name": "tokenQty",
                  "type": "int256"
                }
              ],
              "internalType": "struct IPair.Token",
              "name": "tokenB",
              "type": "tuple"
            }
          ],
          "internalType": "struct IPair.Pair",
          "name": "",
          "type": "tuple"
        }
      ],
      "stateMutability": "view",
      "type": "function"
    },
    {
      "inputs": [],
      "name": "getPairQty",
      "outputs": [
        {
          "internalType": "int256",
          "name": "",
          "type": "int256"
        },
        {
          "internalType": "int256",
          "name": "",
          "type": "int256"
        }
      ],
      "stateMutability": "view",
      "type": "function"
    },
    {
      "inputs": [],
      "name": "getPrecisionValue",
      "outputs": [
        {
          "internalType": "int256",
          "name": "",
          "type": "int256"
        }
      ],
      "stateMutability": "pure",
      "type": "function"
    },
    {
      "inputs": [],
      "name": "getSlippage",
      "outputs": [
        {
          "internalType": "int256",
          "name": "",
          "type": "int256"
        }
      ],
      "stateMutability": "view",
      "type": "function"
    },
    {
      "inputs": [],
      "name": "getSpotPrice",
      "outputs": [
        {
          "internalType": "int256",
          "name": "",
          "type": "int256"
        }
      ],
      "stateMutability": "view",
      "type": "function"
    },
    {
      "inputs": [],
      "name": "getTokenPairAddress",
      "outputs": [
        {
          "internalType": "address",
          "name": "",
          "type": "address"
        },
        {
          "internalType": "address",
          "name": "",
          "type": "address"
        },
        {
          "internalType": "address",
          "name": "",
          "type": "address"
        }
      ],
      "stateMutability": "view",
      "type": "function"
    },
    {
      "inputs": [],
      "name": "getVariantValue",
      "outputs": [
        {
          "internalType": "int256",
          "name": "",
          "type": "int256"
        }
      ],
      "stateMutability": "view",
      "type": "function"
    },
    {
      "inputs": [
        {
          "internalType": "contract IBaseHTS",
          "name": "_tokenService",
          "type": "address"
        },
        {
          "internalType": "contract ILPToken",
          "name": "_lpTokenContract",
          "type": "address"
        },
        {
          "internalType": "address",
          "name": "_tokenA",
          "type": "address"
        },
        {
          "internalType": "address",
          "name": "_tokenB",
          "type": "address"
        },
        {
          "internalType": "address",
          "name": "_treasury",
          "type": "address"
        },
        {
          "internalType": "int256",
          "name": "_fee",
          "type": "int256"
        }
      ],
      "name": "initialize",
      "outputs": [],
      "stateMutability": "nonpayable",
      "type": "function"
    },
    {
      "inputs": [
        {
          "internalType": "address",
          "name": "toAccount",
          "type": "address"
        },
        {
          "internalType": "int256",
          "name": "_lpToken",
          "type": "int256"
        }
      ],
      "name": "removeLiquidity",
      "outputs": [],
      "stateMutability": "nonpayable",
      "type": "function"
    },
    {
      "inputs": [
        {
          "internalType": "int256",
          "name": "_slippage",
          "type": "int256"
        }
      ],
      "name": "setSlippage",
      "outputs": [
        {
          "internalType": "int256",
          "name": "",
          "type": "int256"
        }
      ],
      "stateMutability": "nonpayable",
      "type": "function"
    },
    {
      "inputs": [
        {
          "internalType": "int256",
          "name": "_tokenBQty",
          "type": "int256"
        }
      ],
      "name": "slippageInGivenOut",
      "outputs": [
        {
          "internalType": "int256",
          "name": "",
          "type": "int256"
        }
      ],
      "stateMutability": "view",
      "type": "function"
    },
    {
      "inputs": [
        {
          "internalType": "int256",
          "name": "_tokenAQty",
          "type": "int256"
        }
      ],
      "name": "slippageOutGivenIn",
      "outputs": [
        {
          "internalType": "int256",
          "name": "",
          "type": "int256"
        }
      ],
      "stateMutability": "view",
      "type": "function"
    },
    {
      "inputs": [
        {
          "internalType": "address",
          "name": "to",
          "type": "address"
        },
        {
          "internalType": "address",
          "name": "_token",
          "type": "address"
        },
        {
          "internalType": "int256",
          "name": "_deltaQty",
          "type": "int256"
        }
      ],
      "name": "swapToken",
      "outputs": [],
      "stateMutability": "nonpayable",
      "type": "function"
    }
  ],
  "bytecode": "0x608060405234801561001057600080fd5b50611d13806100206000396000f3fe608060405234801561001057600080fd5b506004361061016c5760003560e01c8063c1f1b1b5116100cd578063d813d36211610081578063e4f6ed0011610066578063e4f6ed0014610389578063f819163f1461039c578063fc9cee3c146103a457600080fd5b8063d813d3621461036e578063dc76fabc1461038157600080fd5b8063ca71d4e4116100b2578063ca71d4e41461034a578063ced72f8714610353578063d13b92cf1461035b57600080fd5b8063c1f1b1b51461025a578063c54321b81461033757600080fd5b80634593d8161161012457806389b11e1b1161010957806389b11e1b146101fe5780639af5349a146102145780639dcfc22b1461024757600080fd5b80634593d816146101d857806389a88def146101eb57600080fd5b806325fd3ee91161015557806325fd3ee91461019c5780632b26701a146101af57806332a2c5d0146101ca57600080fd5b80630d329a52146101715780632537d32414610186575b600080fd5b61018461017f366004611652565b6103ac565b005b60645b6040519081526020015b60405180910390f35b6101846101aa3660046115b8565b61063d565b60035460055460408051928352602083019190915201610193565b604051308152602001610193565b6101896101e63660046116f5565b6108d2565b6101846101f9366004611612565b610934565b61018961020c3660046116f5565b600681905590565b6002546004546040805173ffffffffffffffffffffffffffffffffffffffff938416815292909116602083015201610193565b6101896102553660046116f5565b610a19565b6102eb6040805160808101825260008183018181526060830182905282528251808401909352808352602080840191909152810191909152506040805160808101825260025473ffffffffffffffffffffffffffffffffffffffff90811682840190815260035460608401528252825180840190935260045416825260055460208381019190915281019190915290565b604080518251805173ffffffffffffffffffffffffffffffffffffffff908116835260209182015182840152938101518051909416928201929092529101516060820152608001610193565b6101896103453660046116f5565b610a91565b62989680610189565b600754610189565b6101896103693660046116f5565b610ae9565b61018961037c3660046116f5565b610b19565b610189610b6e565b61018461039736600461167d565b610b9b565b610189610e19565b610189610e34565b6001546040517f6869958f00000000000000000000000000000000000000000000000000000000815273ffffffffffffffffffffffffffffffffffffffff848116600483015283921690636869958f9060240160206040518083038186803b15801561041757600080fd5b505afa15801561042b573d6000803e3d6000fd5b505050506040513d601f19601f8201168201806040525081019061044f919061170d565b136104e1576040517f08c379a000000000000000000000000000000000000000000000000000000000815260206004820152602660248201527f7573657220646f6573206e6f7420686176652073756666696369656e74206c7060448201527f546f6b656e73000000000000000000000000000000000000000000000000000060648201526084015b60405180910390fd5b6000806104ed83610e4e565b6002546004546040805160808101909152604a808252949650929450610556933093899373ffffffffffffffffffffffffffffffffffffffff90811693169188918891611bb760208301396040518060800160405280604a8152602001611c01604a9139610f3e565b6003805483919060009061056b90849061194f565b90915550506005805482919060009061058590849061194f565b90915550506001546040517f2a4d62600000000000000000000000000000000000000000000000000000000081526004810185905273ffffffffffffffffffffffffffffffffffffffff868116602483015290911690632a4d626090604401602060405180830381600087803b1580156105fe57600080fd5b505af1158015610612573d6000803e3d6000fd5b505050506040513d601f19601f82011682018060405250810190610636919061170d565b5050505050565b6000546040517ff4a01e5b00000000000000000000000000000000000000000000000000000000815230600482015273ffffffffffffffffffffffffffffffffffffffff8681166024830152620100009092049091169063f4a01e5b90604401602060405180830381600087803b1580156106b757600080fd5b505af11580156106cb573d6000803e3d6000fd5b505050506040513d601f19601f820116820180604052508101906106ef919061170d565b506000546040517ff4a01e5b00000000000000000000000000000000000000000000000000000000815230600482015273ffffffffffffffffffffffffffffffffffffffff8581166024830152620100009092049091169063f4a01e5b90604401602060405180830381600087803b15801561076a57600080fd5b505af115801561077e573d6000803e3d6000fd5b505050506040513d601f19601f820116820180604052508101906107a2919061170d565b506107e3853086868686604051806080016040528060468152602001611b3160469139604051806080016040528060468152602001611aeb60469139610f3e565b600380548391906000906107f8908490611796565b909155505060058054829190600090610812908490611796565b90915550506001546040517fb4e25179000000000000000000000000000000000000000000000000000000008152600481018490526024810183905273ffffffffffffffffffffffffffffffffffffffff87811660448301529091169063b4e2517990606401602060405180830381600087803b15801561089257600080fd5b505af11580156108a6573d6000803e3d6000fd5b505050506040513d601f19601f820116820180604052508101906108ca919061170d565b505050505050565b600062989680816108e1610e19565b6003546005549192509060006108f78784611796565b6109018686611897565b61090b919061180a565b90506000610919868361180a565b90506000610927828561194f565b9998505050505050505050565b60025473ffffffffffffffffffffffffffffffffffffffff83811691161480610977575060045473ffffffffffffffffffffffffffffffffffffffff8381169116145b6109dd576040517f08c379a000000000000000000000000000000000000000000000000000000000815260206004820152601f60248201527f506c73207061737320636f727265637420746f6b656e20746f20737761702e0060448201526064016104d8565b60025473ffffffffffffffffffffffffffffffffffffffff83811691161415610a0f57610a0a8382610f62565b505050565b610a0a8382611229565b60035460055460009162989680918382610a338584611897565b610a3d919061180a565b9050600084610a4c8389611897565b610a56919061180a565b90506000610a63886108d2565b90508186610a71838361194f565b610a7b9190611897565b610a85919061180a565b98975050505050505050565b60035460055460009162989680918381610aab8585611897565b610ab5919061180a565b9050600084610ac48389611897565b610ace919061180a565b90506000610adb88610b19565b90508186610a71828461194f565b6000806064600260075485610afe9190611897565b610b08919061180a565b610b12919061180a565b9392505050565b600080610b24610e19565b60035460055491925062989680916000610b3e878361194f565b610b488587611897565b610b52919061180a565b90506000610b60858361180a565b90506000610927858361194f565b60035460055460009162989680918381610b888585611897565b610b92919061180a565b95945050505050565b600054610100900460ff1615808015610bbb5750600054600160ff909116105b80610bd55750303b158015610bd5575060005460ff166001145b610c61576040517f08c379a000000000000000000000000000000000000000000000000000000000815260206004820152602e60248201527f496e697469616c697a61626c653a20636f6e747261637420697320616c72656160448201527f647920696e697469616c697a656400000000000000000000000000000000000060648201526084016104d8565b600080547fffffffffffffffffffffffffffffffffffffffffffffffffffffffffffffff001660011790558015610cbf57600080547fffffffffffffffffffffffffffffffffffffffffffffffffffffffffffff00ff166101001790555b6000805473ffffffffffffffffffffffffffffffffffffffff808a1662010000027fffffffffffffffffffff0000000000000000000000000000000000000000ffff909216919091178255600180548983167fffffffffffffffffffffffff00000000000000000000000000000000000000009182161790915560078590556008805487841690831617905560408051608081018252898416818301908152606082018690528152815180830190925288841682526020828101958652808201839052905180516002805491871691861691909117905501516003555160048054919093169116179055516005558015610e1057600080547fffffffffffffffffffffffffffffffffffffffffffffffffffffffffffff00ff169055604051600181527f7f26b83ff96e1f2b6a682f133852f6798a09c465da95921460cefb38474024989060200160405180910390a15b50505050505050565b60035460055460009190610e2d8183611897565b9250505090565b6000806006541315610e47575060065490565b5061c35090565b6000806000600160009054906101000a900473ffffffffffffffffffffffffffffffffffffffff1673ffffffffffffffffffffffffffffffffffffffff1663a1e79f756040518163ffffffff1660e01b815260040160206040518083038186803b158015610ebb57600080fd5b505afa158015610ecf573d6000803e3d6000fd5b505050506040513d601f19601f82011682018060405250810190610ef3919061170d565b6003549091506000908290610f089087611897565b610f12919061180a565b6005549091506000908390610f279088611897565b610f31919061180a565b9196919550909350505050565b610f4b88888887866114b6565b610f5888888786856114b6565b5050505050505050565b6000610f6d82610a19565b90506000610f79610e34565b905080821315610fe5576040517f08c379a000000000000000000000000000000000000000000000000000000000815260206004820152601c60248201527f536c697070616765207468726573686f6c642062726561636865642e0000000060448201526064016104d8565b6000610ff084610ae9565b9050610ffd60028261180a565b611007908561194f565b93506000611014856108d2565b60038054919250869160009061102b908490611796565b909155506000905061103c82610ae9565b905061104960028261180a565b611053908361194f565b6002546040805160808101909152604480825292945061109a928a92309273ffffffffffffffffffffffffffffffffffffffff909116918b9190611a6760208301396114b6565b600580548391906000906110af90849061194f565b9091555050600054600480546040517ff4a01e5b00000000000000000000000000000000000000000000000000000000815273ffffffffffffffffffffffffffffffffffffffff8b811693820193909352908216602482015262010000909204169063f4a01e5b90604401602060405180830381600087803b15801561113457600080fd5b505af1158015611148573d6000803e3d6000fd5b505050506040513d601f19601f8201168201806040525081019061116c919061170d565b50600454604080516060810182528181526111ad9230928b9273ffffffffffffffffffffffffffffffffffffffff909216918791611b7760208301396114b6565b60085460028054600454610e1093309373ffffffffffffffffffffffffffffffffffffffff91821693821692909116906111e7908961180a565b6111f260028861180a565b6040518060800160405280604f8152602001611a18604f91396040518060800160405280604f8152602001611c4b604f9139610f3e565b600061123482610a91565b90506000611240610e34565b9050808213156112ac576040517f08c379a000000000000000000000000000000000000000000000000000000000815260206004820152601c60248201527f536c697070616765207468726573686f6c642062726561636865642e0000000060448201526064016104d8565b60006112b784610ae9565b90506112c460028261180a565b6112ce908561194f565b935060006112db85610b19565b6005805491925086916000906112f2908490611796565b909155506000905061130382610ae9565b905061131060028261180a565b61131a908361194f565b60045460408051608081019091526044808252929450611361928a92309273ffffffffffffffffffffffffffffffffffffffff909116918b9190611c9a60208301396114b6565b6003805483919060009061137690849061194f565b90915550506000546002546040517ff4a01e5b00000000000000000000000000000000000000000000000000000000815273ffffffffffffffffffffffffffffffffffffffff8a81166004830152918216602482015262010000909204169063f4a01e5b90604401602060405180830381600087803b1580156113f857600080fd5b505af115801561140c573d6000803e3d6000fd5b505050506040513d601f19601f82011682018060405250810190611430919061170d565b50600254604080516060810182528181526114719230928b9273ffffffffffffffffffffffffffffffffffffffff909216918791611aab60208301396114b6565b60085460028054600454610e1093309373ffffffffffffffffffffffffffffffffffffffff91821693821692909116906114ab908761180a565b6111f260028a61180a565b600080546040517f70089d5600000000000000000000000000000000000000000000000000000000815273ffffffffffffffffffffffffffffffffffffffff8681166004830152888116602483015287811660448301526064820186905262010000909204909116906370089d5690608401602060405180830381600087803b15801561154257600080fd5b505af1158015611556573d6000803e3d6000fd5b505050506040513d601f19601f8201168201806040525081019061157a919061170d565b90508160168214610e10576040517f08c379a00000000000000000000000000000000000000000000000000000000081526004016104d89190611725565b600080600080600060a086880312156115cf578081fd5b85356115da816119f2565b945060208601356115ea816119f2565b935060408601356115fa816119f2565b94979396509394606081013594506080013592915050565b600080600060608486031215611626578283fd5b8335611631816119f2565b92506020840135611641816119f2565b929592945050506040919091013590565b60008060408385031215611664578182fd5b823561166f816119f2565b946020939093013593505050565b60008060008060008060c08789031215611695578081fd5b86356116a0816119f2565b955060208701356116b0816119f2565b945060408701356116c0816119f2565b935060608701356116d0816119f2565b925060808701356116e0816119f2565b8092505060a087013590509295509295509295565b600060208284031215611706578081fd5b5035919050565b60006020828403121561171e578081fd5b5051919050565b6000602080835283518082850152825b8181101561175157858101830151858201604001528201611735565b818111156117625783604083870101525b50601f017fffffffffffffffffffffffffffffffffffffffffffffffffffffffffffffffe016929092016040019392505050565b6000808212827f7fffffffffffffffffffffffffffffffffffffffffffffffffffffffffffffff038413811516156117d0576117d06119c3565b827f8000000000000000000000000000000000000000000000000000000000000000038412811615611804576118046119c3565b50500190565b60008261183e577f4e487b710000000000000000000000000000000000000000000000000000000081526012600452602481fd5b7fffffffffffffffffffffffffffffffffffffffffffffffffffffffffffffffff83147f800000000000000000000000000000000000000000000000000000000000000083141615611892576118926119c3565b500590565b60007f7fffffffffffffffffffffffffffffffffffffffffffffffffffffffffffffff818413828413858304851182821616156118d6576118d66119c3565b7f800000000000000000000000000000000000000000000000000000000000000084871286820588128184161615611910576119106119c3565b85871292508782058712848416161561192b5761192b6119c3565b87850587128184161615611941576119416119c3565b505050929093029392505050565b6000808312837f800000000000000000000000000000000000000000000000000000000000000001831281151615611989576119896119c3565b837f7fffffffffffffffffffffffffffffffffffffffffffffffffffffffffffffff0183138116156119bd576119bd6119c3565b50500390565b7f4e487b7100000000000000000000000000000000000000000000000000000000600052601160045260246000fd5b73ffffffffffffffffffffffffffffffffffffffff81168114611a1457600080fd5b5056fe73776170466565546f6b656e413a205472616e7366657272696e672066656520617320746f6b656e204120746f20747265617375617279206661696c656420776974682073746174757320636f646573776170546f6b656e413a205472616e7366657272696e6720746f6b656e204120746f20636f6e7472616374206661696c656420776974682073746174757320636f646573776170546f6b656e423a205472616e7366657272696e6720746f6b656e204120746f2075736572206661696c656420776974682073746174757320636f6465416464206c69717569646974793a205472616e73666572696e6720746f6b656e204220746f20636f6e7472616374206661696c656420776974682073746174757320636f6465416464206c69717569646974793a205472616e73666572696e6720746f6b656e204120746f20636f6e7472616374206661696c656420776974682073746174757320636f646573776170546f6b656e413a205472616e7366657272696e6720746f6b656e204220746f2075736572206661696c656420776974682073746174757320636f646552656d6f7665206c69717569646974793a205472616e7366657272696e6720746f6b656e204120746f20636f6e7472616374206661696c656420776974682073746174757320636f646552656d6f7665206c69717569646974793a205472616e7366657272696e6720746f6b656e204220746f20636f6e7472616374206661696c656420776974682073746174757320636f646573776170466565546f6b656e423a205472616e7366657272696e672066656520617320746f6b656e204220746f20747265617375617279206661696c656420776974682073746174757320636f646573776170546f6b656e423a205472616e7366657272696e6720746f6b656e204220746f20636f6e7472616374206661696c656420776974682073746174757320636f6465a2646970667358221220ad14c656572bbf794cc2aa7130df533e9b057a66cfb8668401d5f47b5a041ab664736f6c63430008040033",
  "linkReferences": {},
  "deployedLinkReferences": {}
}