{
  "_format": "hh-sol-artifact-1",
  "contractName": "Pair",
  "sourceName": "contracts/Pair.sol",
  "abi": [
    {
      "inputs": [
        {
          "internalType": "string",
          "name": "message",
          "type": "string"
        },
        {
          "internalType": "int256",
          "name": "calculatedSlippage",
          "type": "int256"
        },
        {
          "internalType": "int256",
          "name": "slippageThreshold",
          "type": "int256"
        }
      ],
      "name": "SlippageBreached",
      "type": "error"
    },
    {
      "inputs": [
        {
          "internalType": "string",
          "name": "message",
          "type": "string"
        },
        {
          "internalType": "address",
          "name": "passedTokenA",
          "type": "address"
        },
        {
          "internalType": "address",
          "name": "passedTokenB",
          "type": "address"
        },
        {
          "internalType": "address",
          "name": "expectedTokenA",
          "type": "address"
        },
        {
          "internalType": "address",
          "name": "expectedTokenB",
          "type": "address"
        }
      ],
      "name": "WrongPairPassed",
      "type": "error"
    },
    {
      "anonymous": false,
      "inputs": [
        {
          "indexed": false,
          "internalType": "uint8",
          "name": "version",
          "type": "uint8"
        }
      ],
      "name": "Initialized",
      "type": "event"
    },
    {
      "inputs": [
        {
          "internalType": "address",
          "name": "fromAccount",
          "type": "address"
        },
        {
          "internalType": "address",
          "name": "_tokenA",
          "type": "address"
        },
        {
          "internalType": "address",
          "name": "_tokenB",
          "type": "address"
        },
        {
          "internalType": "int256",
          "name": "_tokenAQty",
          "type": "int256"
        },
        {
          "internalType": "int256",
          "name": "_tokenBQty",
          "type": "int256"
        }
      ],
      "name": "addLiquidity",
      "outputs": [],
      "stateMutability": "payable",
      "type": "function"
    },
    {
      "inputs": [
        {
          "internalType": "int256",
          "name": "_tokenQ",
          "type": "int256"
        }
      ],
      "name": "feeForToken",
      "outputs": [
        {
          "internalType": "int256",
          "name": "",
          "type": "int256"
        }
      ],
      "stateMutability": "view",
      "type": "function"
    },
    {
      "inputs": [],
      "name": "getContractAddress",
      "outputs": [
        {
          "internalType": "address",
          "name": "",
          "type": "address"
        }
      ],
      "stateMutability": "view",
      "type": "function"
    },
    {
      "inputs": [],
      "name": "getFee",
      "outputs": [
        {
          "internalType": "int256",
          "name": "",
          "type": "int256"
        }
      ],
      "stateMutability": "view",
      "type": "function"
    },
    {
      "inputs": [],
      "name": "getFeePrecision",
      "outputs": [
        {
          "internalType": "int256",
          "name": "",
          "type": "int256"
        }
      ],
      "stateMutability": "pure",
      "type": "function"
    },
    {
      "inputs": [
        {
          "internalType": "int256",
          "name": "amountTokenB",
          "type": "int256"
        }
      ],
      "name": "getInGivenOut",
      "outputs": [
        {
          "internalType": "int256",
          "name": "",
          "type": "int256"
        },
        {
          "internalType": "int256",
          "name": "",
          "type": "int256"
        },
        {
          "internalType": "int256",
          "name": "",
          "type": "int256"
        },
        {
          "internalType": "int256",
          "name": "",
          "type": "int256"
        }
      ],
      "stateMutability": "view",
      "type": "function"
    },
    {
      "inputs": [],
      "name": "getLpTokenContractAddress",
      "outputs": [
        {
          "internalType": "address",
          "name": "",
          "type": "address"
        }
      ],
      "stateMutability": "view",
      "type": "function"
    },
    {
      "inputs": [
        {
          "internalType": "int256",
          "name": "amountTokenA",
          "type": "int256"
        }
      ],
      "name": "getOutGivenIn",
      "outputs": [
        {
          "internalType": "int256",
          "name": "",
          "type": "int256"
        },
        {
          "internalType": "int256",
          "name": "",
          "type": "int256"
        },
        {
          "internalType": "int256",
          "name": "",
          "type": "int256"
        },
        {
          "internalType": "int256",
          "name": "",
          "type": "int256"
        }
      ],
      "stateMutability": "view",
      "type": "function"
    },
    {
      "inputs": [],
      "name": "getPair",
      "outputs": [
        {
          "components": [
            {
              "components": [
                {
                  "internalType": "address",
                  "name": "tokenAddress",
                  "type": "address"
                },
                {
                  "internalType": "int256",
                  "name": "tokenQty",
                  "type": "int256"
                }
              ],
              "internalType": "struct IPair.Token",
              "name": "tokenA",
              "type": "tuple"
            },
            {
              "components": [
                {
                  "internalType": "address",
                  "name": "tokenAddress",
                  "type": "address"
                },
                {
                  "internalType": "int256",
                  "name": "tokenQty",
                  "type": "int256"
                }
              ],
              "internalType": "struct IPair.Token",
              "name": "tokenB",
              "type": "tuple"
            }
          ],
          "internalType": "struct IPair.Pair",
          "name": "",
          "type": "tuple"
        }
      ],
      "stateMutability": "view",
      "type": "function"
    },
    {
      "inputs": [],
      "name": "getPairInfo",
      "outputs": [
        {
          "components": [
            {
              "components": [
                {
                  "internalType": "address",
                  "name": "tokenAddress",
                  "type": "address"
                },
                {
                  "internalType": "int256",
                  "name": "tokenQty",
                  "type": "int256"
                }
              ],
              "internalType": "struct IPair.Token",
              "name": "tokenA",
              "type": "tuple"
            },
            {
              "components": [
                {
                  "internalType": "address",
                  "name": "tokenAddress",
                  "type": "address"
                },
                {
                  "internalType": "int256",
                  "name": "tokenQty",
                  "type": "int256"
                }
              ],
              "internalType": "struct IPair.Token",
              "name": "tokenB",
              "type": "tuple"
            }
          ],
          "internalType": "struct IPair.Pair",
          "name": "_pair",
          "type": "tuple"
        },
        {
          "components": [
            {
              "internalType": "int256",
              "name": "tokenASpotPrice",
              "type": "int256"
            },
            {
              "internalType": "int256",
              "name": "tokenBSpotPrice",
              "type": "int256"
            },
            {
              "internalType": "int256",
              "name": "precision",
              "type": "int256"
            },
            {
              "internalType": "int256",
              "name": "feePrecision",
              "type": "int256"
            },
            {
              "internalType": "int256",
              "name": "fee",
              "type": "int256"
            }
          ],
          "internalType": "struct IPair.Amount",
          "name": "_amount",
          "type": "tuple"
        }
      ],
      "stateMutability": "view",
      "type": "function"
    },
    {
      "inputs": [],
      "name": "getPairQty",
      "outputs": [
        {
          "internalType": "int256",
          "name": "",
          "type": "int256"
        },
        {
          "internalType": "int256",
          "name": "",
          "type": "int256"
        }
      ],
      "stateMutability": "view",
      "type": "function"
    },
    {
      "inputs": [],
      "name": "getPrecisionValue",
      "outputs": [
        {
          "internalType": "int256",
          "name": "",
          "type": "int256"
        }
      ],
      "stateMutability": "pure",
      "type": "function"
    },
    {
      "inputs": [],
      "name": "getSlippage",
      "outputs": [
        {
          "internalType": "int256",
          "name": "",
          "type": "int256"
        }
      ],
      "stateMutability": "view",
      "type": "function"
    },
    {
      "inputs": [
        {
          "internalType": "address",
          "name": "token",
          "type": "address"
        }
      ],
      "name": "getSpotPrice",
      "outputs": [
        {
          "internalType": "int256",
          "name": "",
          "type": "int256"
        }
      ],
      "stateMutability": "view",
      "type": "function"
    },
    {
      "inputs": [],
      "name": "getTokenPairAddress",
      "outputs": [
        {
          "internalType": "address",
          "name": "",
          "type": "address"
        },
        {
          "internalType": "address",
          "name": "",
          "type": "address"
        },
        {
          "internalType": "address",
          "name": "",
          "type": "address"
        },
        {
          "internalType": "int256",
          "name": "",
          "type": "int256"
        }
      ],
      "stateMutability": "view",
      "type": "function"
    },
    {
      "inputs": [],
      "name": "getVariantValue",
      "outputs": [
        {
          "internalType": "int256",
          "name": "",
          "type": "int256"
        }
      ],
      "stateMutability": "view",
      "type": "function"
    },
    {
      "inputs": [
        {
          "internalType": "contract IBaseHTS",
          "name": "_tokenService",
          "type": "address"
        },
        {
          "internalType": "contract ILPToken",
          "name": "_lpTokenContract",
          "type": "address"
        },
        {
          "internalType": "address",
          "name": "_tokenA",
          "type": "address"
        },
        {
          "internalType": "address",
          "name": "_tokenB",
          "type": "address"
        },
        {
          "internalType": "address",
          "name": "_treasury",
          "type": "address"
        },
        {
          "internalType": "int256",
          "name": "_fee",
          "type": "int256"
        }
      ],
      "name": "initialize",
      "outputs": [],
      "stateMutability": "nonpayable",
      "type": "function"
    },
    {
      "inputs": [
        {
          "internalType": "address payable",
          "name": "toAccount",
          "type": "address"
        },
        {
          "internalType": "int256",
          "name": "_lpToken",
          "type": "int256"
        }
      ],
      "name": "removeLiquidity",
      "outputs": [],
      "stateMutability": "nonpayable",
      "type": "function"
    },
    {
      "inputs": [
        {
          "internalType": "int256",
          "name": "_slippage",
          "type": "int256"
        }
      ],
      "name": "setSlippage",
      "outputs": [
        {
          "internalType": "int256",
          "name": "",
          "type": "int256"
        }
      ],
      "stateMutability": "nonpayable",
      "type": "function"
    },
    {
      "inputs": [
        {
          "internalType": "int256",
          "name": "_tokenBQty",
          "type": "int256"
        }
      ],
      "name": "slippageInGivenOut",
      "outputs": [
        {
          "internalType": "int256",
          "name": "",
          "type": "int256"
        }
      ],
      "stateMutability": "view",
      "type": "function"
    },
    {
      "inputs": [
        {
          "internalType": "int256",
          "name": "_tokenAQty",
          "type": "int256"
        }
      ],
      "name": "slippageOutGivenIn",
      "outputs": [
        {
          "internalType": "int256",
          "name": "",
          "type": "int256"
        }
      ],
      "stateMutability": "view",
      "type": "function"
    },
    {
      "inputs": [
        {
          "internalType": "address",
          "name": "to",
          "type": "address"
        },
        {
          "internalType": "address",
          "name": "_token",
          "type": "address"
        },
        {
          "internalType": "int256",
          "name": "_deltaQty",
          "type": "int256"
        },
        {
          "internalType": "int256",
          "name": "_slippage",
          "type": "int256"
        }
      ],
      "name": "swapToken",
      "outputs": [],
      "stateMutability": "payable",
      "type": "function"
    }
  ],
  "bytecode": "0x608060405234801561001057600080fd5b5061227b806100206000396000f3fe6080604052600436106101055760003560e01c80630d329a521461010a578063198f9b831461012c5780632537d3241461013f57806325fd3ee9146101625780632b26701a1461017557806332a2c5d01461019d5780634593d816146101b957806356b35b0e146101f95780635cd9e0191461021c578063845213991461023c57806389b11e1b1461025a5780639af5349a1461027d5780639dcfc22b146102a2578063c1f1b1b5146102c2578063c54321b8146102e4578063ca71d4e414610304578063ced72f871461031b578063d13b92cf14610330578063d813d36214610350578063e4f6ed0014610370578063f819163f14610390578063fc9cee3c146103a5575b600080fd5b34801561011657600080fd5b5061012a610125366004611b1b565b6103ba565b005b61012a61013a366004611b47565b6105a7565b34801561014b57600080fd5b5060645b6040519081526020015b60405180910390f35b61012a610170366004611b8d565b610660565b34801561018157600080fd5b5060035460055460408051928352602083019190915201610159565b3480156101a957600080fd5b50305b6040516101599190611be8565b3480156101c557600080fd5b506101d96101d4366004611bfc565b61087a565b604080519485526020850193909352918301526060820152608001610159565b34801561020557600080fd5b5061020e610921565b604051610159929190611c4a565b34801561022857600080fd5b5061014f610237366004611c90565b6109fa565b34801561024857600080fd5b506001546001600160a01b03166101ac565b34801561026657600080fd5b5061014f610275366004611bfc565b600681905590565b34801561028957600080fd5b50610292610a7a565b6040516101599493929190611cad565b3480156102ae57600080fd5b5061014f6102bd366004611bfc565b610b0d565b3480156102ce57600080fd5b506102d7610b9d565b6040516101599190611cd7565b3480156102f057600080fd5b5061014f6102ff366004611bfc565b610bf1565b34801561031057600080fd5b506305f5e10061014f565b34801561032757600080fd5b5060075461014f565b34801561033c57600080fd5b5061014f61034b366004611bfc565b610c84565b34801561035c57600080fd5b506101d961036b366004611bfc565b610cb4565b34801561037c57600080fd5b5061012a61038b366004611ce5565b610d29565b34801561039c57600080fd5b5061014f610f32565b3480156103b157600080fd5b5061014f610f4d565b600154604051636869958f60e01b815282916001600160a01b031690636869958f906103ea908690600401611be8565b602060405180830381865afa158015610407573d6000803e3d6000fd5b505050506040513d601f19601f8201168201806040525081019061042b9190611d5e565b121561048d5760405162461bcd60e51b815260206004820152602660248201527f7573657220646f6573206e6f7420686176652073756666696369656e74206c70604482015265546f6b656e7360d01b60648201526084015b60405180910390fd5b60008061049983610f68565b6002546004546040805160808101909152604a8082529496509294506104f593309389936001600160a01b039081169316918891889161211f60208301396040518060800160405280604a8152602001612169604a913961102f565b6003805483919060009061050a908490611d8d565b909155505060058054829190600090610524908490611d8d565b90915550506001546040516301526b1360e51b8152600481018590526001600160a01b03868116602483015290911690632a4d6260906044016020604051808303816000875af115801561057c573d6000803e3d6000fd5b505050506040513d601f19601f820116820180604052508101906105a09190611d5e565b5050505050565b6002546001600160a01b03848116911614806105d057506004546001600160a01b038481169116145b61061c5760405162461bcd60e51b815260206004820152601f60248201527f506c73207061737320636f727265637420746f6b656e20746f20737761702e006044820152606401610484565b6106268383611053565b6002549092506001600160a01b039081169084160361064f5761064a8483836110c1565b61065a565b61065a848383611224565b50505050565b61066a8483611053565b91506106768382611053565b90506106b8853086868686604051806080016040528060468152602001611ffb60469139604051806080016040528060468152602001611fb56046913961102f565b6002546001600160a01b0385811691161480156106e257506004546001600160a01b038481169116145b1561072157600380548391906000906106fc908490611db4565b909155505060058054829190600090610716908490611db4565b909155506107f49050565b6004546001600160a01b03858116911614801561074b57506002546001600160a01b038481169116145b1561077f5760058054839190600090610765908490611db4565b909155505060038054829190600090610716908490611db4565b6002546004805460405163fc806d8d60e01b815260a092810192909252601760a48301527615dc9bdb99c81d1bdad95b881c185a5c881c185cdcd959604a1b60c48301526001600160a01b0380881660248401528087166044840152928316606483015291909116608482015260e401610484565b60015460405163b4e2517960e01b815260048101849052602481018390526001600160a01b0387811660448301529091169063b4e25179906064016020604051808303816000875af115801561084e573d6000803e3d6000fd5b505050506040513d601f19601f820116820180604052508101906108729190611d5e565b505050505050565b600080600080600080600061088e88611386565b9250925092506000806108a26305f5e10090565b905060006108ae610f32565b6003549091506000906108c2908790611db4565b6005549091506000826108d58686611ddc565b6108df9190611e0c565b905060006108ed8683611e0c565b90506108f98184611d8d565b965050505050505060008061090d836113df565b969c949b5099509497509195505050505050565b610929611aca565b61095b6040518060a0016040528060008152602001600081526020016000815260200160008152602001600081525090565b604080516080810182526002546001600160a01b0390811682840181815260035460608501528352835180850185526004549092168252600554602083810191909152830191909152825160a0810190935290935081906109bb906109fa565b81526004546020909101906109d8906001600160a01b03166109fa565b81526020016305f5e10081526020016064815260200160075481525090509091565b6002546000906305f5e1009082906001600160a01b03858116911614610a2257600554610a26565b6003545b6002549091506000906001600160a01b03868116911614610a4957600354610a4d565b6005545b9050600080821315610a715781610a648585611ddc565b610a6e9190611e0c565b90505b95945050505050565b6002546004805460015460408051638c237c6960e01b815290516000958695869586956001600160a01b039384169591841694931692638c237c69928281019260209291908290030181865afa158015610ad8573d6000803e3d6000fd5b505050506040513d601f19601f82011682018060405250810190610afc9190611e48565b600754935093509350935090919293565b6003546005546000916305f5e100918382610b288584611ddc565b610b329190611e0c565b9050600084610b418389611ddc565b610b4b9190611e0c565b9050600080610b598961087a565b93509350505060008183610b6d9190611db4565b90508388610b7b8383611d8d565b610b859190611ddc565b610b8f9190611e0c565b9a9950505050505050505050565b610ba5611aca565b50604080516080810182526002546001600160a01b0390811682840190815260035460608401528252825180840190935260045416825260055460208381019190915281019190915290565b6003546005546000916305f5e100918381610c0c8585611ddc565b610c169190611e0c565b9050600084610c258389611ddc565b610c2f9190611e0c565b9050600080610c3d89610cb4565b93509350505060008183610c519190611db4565b905060008489610c618285611d8d565b610c6b9190611ddc565b610c759190611e0c565b9b9a5050505050505050505050565b6000806064600260075485610c999190611ddc565b610ca39190611e0c565b610cad9190611e0c565b9392505050565b6000806000806000806000610cc888611386565b925092509250600080610cd9610f32565b6003546005549192506305f5e10091600090610cf6908890611db4565b9050600081610d058587611ddc565b610d0f9190611e0c565b90506000610d1d8583611e0c565b90506108f98482611d8d565b600054610100900460ff1615808015610d495750600054600160ff909116105b80610d6a5750610d5830611423565b158015610d6a575060005460ff166001145b610dcd5760405162461bcd60e51b815260206004820152602e60248201527f496e697469616c697a61626c653a20636f6e747261637420697320616c72656160448201526d191e481a5b9a5d1a585b1a5e995960921b6064820152608401610484565b6000805460ff191660011790558015610df0576000805461ff0019166101001790555b600080546001600160a01b03808a16620100000262010000600160b01b0319909216919091178255600180548983166001600160a01b0319918216179091556007859055600880548784169083161790556040805160808101825289841681830190815260608201869052815281518083019092528884168252602082810195865280820183905290518051600280549187169186169190911790550151600355516004805491909316911617905551600555610ead3086611432565b610eb73085611432565b600854610ecd906001600160a01b031686611432565b600854610ee3906001600160a01b031685611432565b8015610f29576000805461ff0019169055604051600181527f7f26b83ff96e1f2b6a682f133852f6798a09c465da95921460cefb38474024989060200160405180910390a15b50505050505050565b60035460055460009190610f468183611ddc565b9250505090565b6000806006541315610f60575060065490565b506207a12090565b6000806000600160009054906101000a90046001600160a01b03166001600160a01b031663a1e79f756040518163ffffffff1660e01b8152600401602060405180830381865afa158015610fc0573d6000803e3d6000fd5b505050506040513d601f19601f82011682018060405250810190610fe49190611d5e565b6003549091506000908290610ff99087611ddc565b6110039190611e0c565b60055490915060009083906110189088611ddc565b6110229190611e0c565b9196919550909350505050565b61103c8888888786611462565b6110498888878685611462565b5050505050505050565b600061105e836114d9565b156110b85781156110b15760405162461bcd60e51b815260206004820181905260248201527f48424152732073686f756c642062652070617373656420617320706179626c656044820152606401610484565b50346110bb565b50805b92915050565b60006110cc83610b0d565b90506110d8818361156e565b6000806000806110e78761087a565b935093509350935082600260000160010160008282546111079190611db4565b909155505060025460408051608081019091526044808252611143928b9230926001600160a01b0390921691889190611f316020830139611462565b6008546002546040805160808101909152604f80825261117e938c936001600160a01b03918216939116918991906121b36020830139611462565b6111888183611db4565b6005805460009061119a908490611d8d565b90915550506004546111b69089906001600160a01b0316611432565b600454604080516060810182528181526111e99230928c926001600160a01b039092169187916120906020830139611462565b6008546004546040805160808101909152604f8082526110499330936001600160a01b03918216939116918691906120d06020830139611462565b600061122f83610bf1565b905061123b818361156e565b60008060008061124a87610cb4565b9350935093509350826002800160010160008282546112699190611db4565b9091555050600454604080516080810190915260448082526112a5928b9230926001600160a01b03909216918891906122026020830139611462565b6008546004546040805160808101909152604f8082526112e0938c936001600160a01b03918216939116918991906120d06020830139611462565b6112ea8183611db4565b600380546000906112fc908490611d8d565b90915550506002546113189089906001600160a01b0316611432565b6002546040805160608101825281815261134b9230928c926001600160a01b03909216918791611f756020830139611462565b6008546002546040805160808101909152604f8082526110499330936001600160a01b03918216939116918691906120416020830139611462565b60008060008061139585610c84565b905060006113a4600283611e0c565b905060006113b3600284611e0c565b905060006113c18489611d8d565b905060006113cf8383611db4565b9399919850929650945050505050565b600080600083126113f057826113f9565b6113f983611e65565b9250600061140684610c84565b905060006114148286611d8d565b90506000611022600284611e0c565b6001600160a01b03163b151590565b61143b816114d9565b61145e5760005461145c906201000090046001600160a01b03168383611620565b505b5050565b61146b836114d9565b156114b257611479856116bb565b1561148c57611487826116c9565b611495565b61149582611733565b61149e846116bb565b6114ad576114ad82858361177f565b6105a0565b6114bb856116bb565b156114cc576114ad8383868461181b565b6105a083838787856118b3565b60008060029054906101000a90046001600160a01b03166001600160a01b031663e283cff76040518163ffffffff1660e01b81526004016020604051808303816000875af115801561152f573d6000803e3d6000fd5b505050506040513d601f19601f820116820180604052508101906115539190611e48565b6001600160a01b0316826001600160a01b0316149050919050565b60008082136115845761157f610f4d565b611586565b815b905060008312611596578261159f565b61159f83611e65565b92508083131561145c576040516318cc060960e01b815260606004820152603760648201527f5468652063616c63756c6174656420736c697070616765206973206f766572206084820152763a34329039b634b83830b3b2903a343932b9b437b6321760491b60a4820152602481018490526044810182905260c401610484565b600061162b83611423565b156116425761163b848484611956565b9050610cad565b60405163f4a01e5b60e01b81526001600160a01b0385169063f4a01e5b906116709086908690600401611e81565b6020604051808303816000875af115801561168f573d6000803e3d6000fd5b505050506040513d601f19601f820116820180604052508101906116b39190611d5e565b949350505050565b6001600160a01b0316301490565b806116d2611a2d565b10156117305760405162461bcd60e51b815260206004820152602760248201527f436f6e747261637420646f6573206e6f7420686176652073756666696369656e6044820152667420486261727360c81b6064820152608401610484565b50565b803410156117305760405162461bcd60e51b8152602060048201526019602482015278506c65617365207061737320636f727265637420486261727360381b6044820152606401610484565b60008054604051631c384f9360e11b8152620100009091046001600160a01b0316906338709f269086906117b7908790600401611be8565b60206040518083038185885af11580156117d5573d6000803e3d6000fd5b50505050506040513d601f19601f820116820180604052508101906117fa9190611e9b565b905081816105a05760405162461bcd60e51b81526004016104849190611ee1565b60405163a9059cbb60e01b81526001600160a01b038381166004830152602482018590526000919086169063a9059cbb906044016020604051808303816000875af115801561186e573d6000803e3d6000fd5b505050506040513d601f19601f820116820180604052508101906118929190611e9b565b905081816108725760405162461bcd60e51b81526004016104849190611ee1565b600080546040516338044eab60e11b8152620100009091046001600160a01b0316906370089d56906118ef908990889088908b90600401611cad565b6020604051808303816000875af115801561190e573d6000803e3d6000fd5b505050506040513d601f19601f820116820180604052508101906119329190611d5e565b90508160168214610f295760405162461bcd60e51b81526004016104849190611ee1565b6000806000856001600160a01b031663f4a01e5b60e01b8686604051602401611980929190611e81565b60408051601f198184030181529181526020820180516001600160e01b03166001600160e01b03199094169390931790925290516119be9190611f14565b600060405180830381855af49150503d80600081146119f9576040519150601f19603f3d011682016040523d82523d6000602084013e6119fe565b606091505b509150915081611a0f576015611a23565b80806020019051810190611a239190611d5e565b9695505050505050565b60008060029054906101000a90046001600160a01b03166001600160a01b031663e283cff76040518163ffffffff1660e01b81526004016020604051808303816000875af1158015611a83573d6000803e3d6000fd5b505050506040513d601f19601f82011682018060405250810190611aa79190611e48565b6002546001600160a01b03908116911614611ac3575060055490565b5060035490565b6040518060400160405280611add611aef565b8152602001611aea611aef565b905290565b604080518082019091526000808252602082015290565b6001600160a01b038116811461173057600080fd5b60008060408385031215611b2e57600080fd5b8235611b3981611b06565b946020939093013593505050565b60008060008060808587031215611b5d57600080fd5b8435611b6881611b06565b93506020850135611b7881611b06565b93969395505050506040820135916060013590565b600080600080600060a08688031215611ba557600080fd5b8535611bb081611b06565b94506020860135611bc081611b06565b93506040860135611bd081611b06565b94979396509394606081013594506080013592915050565b6001600160a01b0391909116815260200190565b600060208284031215611c0e57600080fd5b5035919050565b80516001600160a01b03168252602090810151910152565b611c38828251611c15565b602081015161145c6040840182611c15565b6101208101611c598285611c2d565b82516080830152602083015160a0830152604083015160c0830152606083015160e083015260808301516101008301529392505050565b600060208284031215611ca257600080fd5b8135610cad81611b06565b6001600160a01b039485168152928416602084015292166040820152606081019190915260800190565b608081016110bb8284611c2d565b60008060008060008060c08789031215611cfe57600080fd5b8635611d0981611b06565b95506020870135611d1981611b06565b94506040870135611d2981611b06565b93506060870135611d3981611b06565b92506080870135611d4981611b06565b8092505060a087013590509295509295509295565b600060208284031215611d7057600080fd5b5051919050565b634e487b7160e01b600052601160045260246000fd5b8181036000831280158383131683831282161715611dad57611dad611d77565b5092915050565b8082018281126000831280158216821582161715611dd457611dd4611d77565b505092915050565b80820260008212600160ff1b84141615611df857611df8611d77565b81810583148215176110bb576110bb611d77565b600082611e2957634e487b7160e01b600052601260045260246000fd5b600160ff1b821460001984141615611e4357611e43611d77565b500590565b600060208284031215611e5a57600080fd5b8151610cad81611b06565b6000600160ff1b8201611e7a57611e7a611d77565b5060000390565b6001600160a01b0392831681529116602082015260400190565b600060208284031215611ead57600080fd5b81518015158114610cad57600080fd5b60005b83811015611ed8578181015183820152602001611ec0565b50506000910152565b6020815260008251806020840152611f00816040850160208701611ebd565b601f01601f19169190910160400192915050565b60008251611f26818460208701611ebd565b919091019291505056fe73776170546f6b656e413a205472616e7366657272696e6720746f6b656e204120746f20636f6e7472616374206661696c656420776974682073746174757320636f646573776170546f6b656e423a205472616e7366657272696e6720746f6b656e204120746f2075736572206661696c656420776974682073746174757320636f6465416464206c69717569646974793a205472616e73666572696e6720746f6b656e204220746f20636f6e7472616374206661696c656420776974682073746174757320636f6465416464206c69717569646974793a205472616e73666572696e6720746f6b656e204120746f20636f6e7472616374206661696c656420776974682073746174757320636f646573776170546f6b656e424665653a205472616e7366657272696e672066656520617320746f6b656e204120746f20747265617375617279206661696c656420776974682073746174757320636f646573776170546f6b656e413a205472616e7366657272696e6720746f6b656e204220746f2075736572206661696c656420776974682073746174757320636f646573776170546f6b656e424665653a205472616e7366657272696e672066656520617320746f6b656e204220746f20747265617375617279206661696c656420776974682073746174757320636f646552656d6f7665206c69717569646974793a205472616e7366657272696e6720746f6b656e204120746f20636f6e7472616374206661696c656420776974682073746174757320636f646552656d6f7665206c69717569646974793a205472616e7366657272696e6720746f6b656e204220746f20636f6e7472616374206661696c656420776974682073746174757320636f646573776170546f6b656e414665653a205472616e7366657272696e672066656520617320746f6b656e204120746f20747265617375617279206661696c656420776974682073746174757320636f646573776170546f6b656e423a205472616e7366657272696e6720746f6b656e204220746f20636f6e7472616374206661696c656420776974682073746174757320636f6465a26469706673582212208ec442b4d42637620305915ac3b2cd567add4b542e822372c32384945310249564736f6c63430008110033",
  "linkReferences": {},
  "deployedLinkReferences": {}
}