{
  "_format": "hh-sol-artifact-1",
  "contractName": "Pair",
  "sourceName": "contracts/Pair.sol",
  "abi": [
    {
      "inputs": [
        {
          "internalType": "string",
          "name": "message",
          "type": "string"
        },
        {
          "internalType": "int256",
          "name": "calculatedSlippage",
          "type": "int256"
        },
        {
          "internalType": "int256",
          "name": "slippageThreshold",
          "type": "int256"
        }
      ],
      "name": "SlippageBreached",
      "type": "error"
    },
    {
      "inputs": [
        {
          "internalType": "string",
          "name": "message",
          "type": "string"
        },
        {
          "internalType": "address",
          "name": "passedTokenA",
          "type": "address"
        },
        {
          "internalType": "address",
          "name": "passedTokenB",
          "type": "address"
        },
        {
          "internalType": "address",
          "name": "expectedTokenA",
          "type": "address"
        },
        {
          "internalType": "address",
          "name": "expectedTokenB",
          "type": "address"
        }
      ],
      "name": "WrongPairPassed",
      "type": "error"
    },
    {
      "anonymous": false,
      "inputs": [
        {
          "indexed": false,
          "internalType": "uint8",
          "name": "version",
          "type": "uint8"
        }
      ],
      "name": "Initialized",
      "type": "event"
    },
    {
      "inputs": [
        {
          "internalType": "address",
          "name": "fromAccount",
          "type": "address"
        },
        {
          "internalType": "address",
          "name": "_tokenA",
          "type": "address"
        },
        {
          "internalType": "address",
          "name": "_tokenB",
          "type": "address"
        },
        {
          "internalType": "int256",
          "name": "_tokenAQty",
          "type": "int256"
        },
        {
          "internalType": "int256",
          "name": "_tokenBQty",
          "type": "int256"
        }
      ],
      "name": "addLiquidity",
      "outputs": [],
      "stateMutability": "payable",
      "type": "function"
    },
    {
      "inputs": [
        {
          "internalType": "int256",
          "name": "_tokenQ",
          "type": "int256"
        }
      ],
      "name": "feeForToken",
      "outputs": [
        {
          "internalType": "int256",
          "name": "",
          "type": "int256"
        }
      ],
      "stateMutability": "view",
      "type": "function"
    },
    {
      "inputs": [],
      "name": "getContractAddress",
      "outputs": [
        {
          "internalType": "address",
          "name": "",
          "type": "address"
        }
      ],
      "stateMutability": "view",
      "type": "function"
    },
    {
      "inputs": [],
      "name": "getFee",
      "outputs": [
        {
          "internalType": "int256",
          "name": "",
          "type": "int256"
        }
      ],
      "stateMutability": "view",
      "type": "function"
    },
    {
      "inputs": [],
      "name": "getFeePrecision",
      "outputs": [
        {
          "internalType": "int256",
          "name": "",
          "type": "int256"
        }
      ],
      "stateMutability": "pure",
      "type": "function"
    },
    {
      "inputs": [
        {
          "internalType": "int256",
          "name": "amountTokenB",
          "type": "int256"
        }
      ],
      "name": "getInGivenOut",
      "outputs": [
        {
          "internalType": "int256",
          "name": "",
          "type": "int256"
        }
      ],
      "stateMutability": "view",
      "type": "function"
    },
    {
      "inputs": [],
      "name": "getLpTokenContractAddress",
      "outputs": [
        {
          "internalType": "address",
          "name": "",
          "type": "address"
        }
      ],
      "stateMutability": "view",
      "type": "function"
    },
    {
      "inputs": [
        {
          "internalType": "int256",
          "name": "amountTokenA",
          "type": "int256"
        }
      ],
      "name": "getOutGivenIn",
      "outputs": [
        {
          "internalType": "int256",
          "name": "",
          "type": "int256"
        }
      ],
      "stateMutability": "view",
      "type": "function"
    },
    {
      "inputs": [],
      "name": "getPair",
      "outputs": [
        {
          "components": [
            {
              "components": [
                {
                  "internalType": "address",
                  "name": "tokenAddress",
                  "type": "address"
                },
                {
                  "internalType": "int256",
                  "name": "tokenQty",
                  "type": "int256"
                }
              ],
              "internalType": "struct IPair.Token",
              "name": "tokenA",
              "type": "tuple"
            },
            {
              "components": [
                {
                  "internalType": "address",
                  "name": "tokenAddress",
                  "type": "address"
                },
                {
                  "internalType": "int256",
                  "name": "tokenQty",
                  "type": "int256"
                }
              ],
              "internalType": "struct IPair.Token",
              "name": "tokenB",
              "type": "tuple"
            }
          ],
          "internalType": "struct IPair.Pair",
          "name": "",
          "type": "tuple"
        }
      ],
      "stateMutability": "view",
      "type": "function"
    },
    {
      "inputs": [],
      "name": "getPairInfo",
      "outputs": [
        {
          "components": [
            {
              "components": [
                {
                  "internalType": "address",
                  "name": "tokenAddress",
                  "type": "address"
                },
                {
                  "internalType": "int256",
                  "name": "tokenQty",
                  "type": "int256"
                }
              ],
              "internalType": "struct IPair.Token",
              "name": "tokenA",
              "type": "tuple"
            },
            {
              "components": [
                {
                  "internalType": "address",
                  "name": "tokenAddress",
                  "type": "address"
                },
                {
                  "internalType": "int256",
                  "name": "tokenQty",
                  "type": "int256"
                }
              ],
              "internalType": "struct IPair.Token",
              "name": "tokenB",
              "type": "tuple"
            }
          ],
          "internalType": "struct IPair.Pair",
          "name": "_pair",
          "type": "tuple"
        },
        {
          "components": [
            {
              "internalType": "int256",
              "name": "tokenASpotPrice",
              "type": "int256"
            },
            {
              "internalType": "int256",
              "name": "tokenBSpotPrice",
              "type": "int256"
            },
            {
              "internalType": "int256",
              "name": "precision",
              "type": "int256"
            },
            {
              "internalType": "int256",
              "name": "feePrecision",
              "type": "int256"
            },
            {
              "internalType": "int256",
              "name": "fee",
              "type": "int256"
            }
          ],
          "internalType": "struct IPair.Amount",
          "name": "_amount",
          "type": "tuple"
        }
      ],
      "stateMutability": "view",
      "type": "function"
    },
    {
      "inputs": [],
      "name": "getPairQty",
      "outputs": [
        {
          "internalType": "int256",
          "name": "",
          "type": "int256"
        },
        {
          "internalType": "int256",
          "name": "",
          "type": "int256"
        }
      ],
      "stateMutability": "view",
      "type": "function"
    },
    {
      "inputs": [],
      "name": "getPrecisionValue",
      "outputs": [
        {
          "internalType": "int256",
          "name": "",
          "type": "int256"
        }
      ],
      "stateMutability": "pure",
      "type": "function"
    },
    {
      "inputs": [],
      "name": "getSlippage",
      "outputs": [
        {
          "internalType": "int256",
          "name": "",
          "type": "int256"
        }
      ],
      "stateMutability": "view",
      "type": "function"
    },
    {
      "inputs": [
        {
          "internalType": "address",
          "name": "token",
          "type": "address"
        }
      ],
      "name": "getSpotPrice",
      "outputs": [
        {
          "internalType": "int256",
          "name": "",
          "type": "int256"
        }
      ],
      "stateMutability": "view",
      "type": "function"
    },
    {
      "inputs": [],
      "name": "getTokenPairAddress",
      "outputs": [
        {
          "internalType": "address",
          "name": "",
          "type": "address"
        },
        {
          "internalType": "address",
          "name": "",
          "type": "address"
        },
        {
          "internalType": "address",
          "name": "",
          "type": "address"
        },
        {
          "internalType": "int256",
          "name": "",
          "type": "int256"
        }
      ],
      "stateMutability": "view",
      "type": "function"
    },
    {
      "inputs": [],
      "name": "getVariantValue",
      "outputs": [
        {
          "internalType": "int256",
          "name": "",
          "type": "int256"
        }
      ],
      "stateMutability": "view",
      "type": "function"
    },
    {
      "inputs": [
        {
          "internalType": "contract IBaseHTS",
          "name": "_tokenService",
          "type": "address"
        },
        {
          "internalType": "contract ILPToken",
          "name": "_lpTokenContract",
          "type": "address"
        },
        {
          "internalType": "address",
          "name": "_tokenA",
          "type": "address"
        },
        {
          "internalType": "address",
          "name": "_tokenB",
          "type": "address"
        },
        {
          "internalType": "address",
          "name": "_treasury",
          "type": "address"
        },
        {
          "internalType": "int256",
          "name": "_fee",
          "type": "int256"
        }
      ],
      "name": "initialize",
      "outputs": [],
      "stateMutability": "nonpayable",
      "type": "function"
    },
    {
      "inputs": [
        {
          "internalType": "address payable",
          "name": "toAccount",
          "type": "address"
        },
        {
          "internalType": "int256",
          "name": "_lpToken",
          "type": "int256"
        }
      ],
      "name": "removeLiquidity",
      "outputs": [],
      "stateMutability": "nonpayable",
      "type": "function"
    },
    {
      "inputs": [
        {
          "internalType": "int256",
          "name": "_slippage",
          "type": "int256"
        }
      ],
      "name": "setSlippage",
      "outputs": [
        {
          "internalType": "int256",
          "name": "",
          "type": "int256"
        }
      ],
      "stateMutability": "nonpayable",
      "type": "function"
    },
    {
      "inputs": [
        {
          "internalType": "int256",
          "name": "_tokenBQty",
          "type": "int256"
        }
      ],
      "name": "slippageInGivenOut",
      "outputs": [
        {
          "internalType": "int256",
          "name": "",
          "type": "int256"
        }
      ],
      "stateMutability": "view",
      "type": "function"
    },
    {
      "inputs": [
        {
          "internalType": "int256",
          "name": "_tokenAQty",
          "type": "int256"
        }
      ],
      "name": "slippageOutGivenIn",
      "outputs": [
        {
          "internalType": "int256",
          "name": "",
          "type": "int256"
        }
      ],
      "stateMutability": "view",
      "type": "function"
    },
    {
      "inputs": [
        {
          "internalType": "address",
          "name": "to",
          "type": "address"
        },
        {
          "internalType": "address",
          "name": "_token",
          "type": "address"
        },
        {
          "internalType": "int256",
          "name": "_deltaQty",
          "type": "int256"
        },
        {
          "internalType": "int256",
          "name": "_slippage",
          "type": "int256"
        }
      ],
      "name": "swapToken",
      "outputs": [],
      "stateMutability": "payable",
      "type": "function"
    }
  ],
  "bytecode": "0x608060405234801561001057600080fd5b506123a0806100206000396000f3fe6080604052600436106101755760003560e01c80639af5349a116100cb578063ced72f871161007f578063e4f6ed0011610059578063e4f6ed001461046c578063f819163f1461048c578063fc9cee3c146104a157600080fd5b8063ced72f8714610417578063d13b92cf1461042c578063d813d3621461044c57600080fd5b8063c1f1b1b5116100b0578063c1f1b1b514610342578063c54321b8146103e0578063ca71d4e41461040057600080fd5b80639af5349a146102d85780639dcfc22b1461032257600080fd5b806332a2c5d01161012d5780635cd9e019116101075780635cd9e01914610277578063845213991461029757806389b11e1b146102b557600080fd5b806332a2c5d01461020d5780634593d8161461023457806356b35b0e1461025457600080fd5b80632537d3241161015e5780632537d324146101af57806325fd3ee9146101d25780632b26701a146101e557600080fd5b80630d329a521461017a578063198f9b831461019c575b600080fd5b34801561018657600080fd5b5061019a610195366004611c05565b6104b6565b005b61019a6101aa366004611c31565b6106e9565b3480156101bb57600080fd5b5060645b6040519081526020015b60405180910390f35b61019a6101e0366004611c77565b6107a2565b3480156101f157600080fd5b50600354600554604080519283526020830191909152016101c9565b34801561021957600080fd5b50305b6040516001600160a01b0390911681526020016101c9565b34801561024057600080fd5b506101bf61024f366004611cd2565b6109f4565b34801561026057600080fd5b50610269610a57565b6040516101c9929190611d29565b34801561028357600080fd5b506101bf610292366004611d6f565b610b5d565b3480156102a357600080fd5b506001546001600160a01b031661021c565b3480156102c157600080fd5b506101bf6102d0366004611cd2565b600681905590565b3480156102e457600080fd5b506102ed610bdd565b6040516101c994939291906001600160a01b039485168152928416602084015292166040820152606081019190915260800190565b34801561032e57600080fd5b506101bf61033d366004611cd2565b610c89565b34801561034e57600080fd5b506103d3604080516080810182526000818301818152606083018290528252825180840190935280835260208084019190915281019190915250604080516080810182526002546001600160a01b0390811682840190815260035460608401528252825180840190935260045416825260055460208381019190915281019190915290565b6040516101c99190611d8c565b3480156103ec57600080fd5b506101bf6103fb366004611cd2565b610d02565b34801561040c57600080fd5b506305f5e1006101bf565b34801561042357600080fd5b506007546101bf565b34801561043857600080fd5b506101bf610447366004611cd2565b610d5b565b34801561045857600080fd5b506101bf610467366004611cd2565b610d8b565b34801561047857600080fd5b5061019a610487366004611d9a565b610de1565b34801561049857600080fd5b506101bf611078565b3480156104ad57600080fd5b506101bf611093565b6001546040517f6869958f0000000000000000000000000000000000000000000000000000000081526001600160a01b03848116600483015283921690636869958f90602401602060405180830381865afa158015610519573d6000803e3d6000fd5b505050506040513d601f19601f8201168201806040525081019061053d9190611e13565b12156105b65760405162461bcd60e51b815260206004820152602660248201527f7573657220646f6573206e6f7420686176652073756666696369656e74206c7060448201527f546f6b656e73000000000000000000000000000000000000000000000000000060648201526084015b60405180910390fd5b6000806105c2836110ae565b6002546004546040805160808101909152604a80825294965092945061061e93309389936001600160a01b039081169316918891889161224460208301396040518060800160405280604a815260200161228e604a9139611175565b60038054839190600090610633908490611e5b565b90915550506005805482919060009061064d908490611e5b565b90915550506001546040517f2a4d6260000000000000000000000000000000000000000000000000000000008152600481018590526001600160a01b03868116602483015290911690632a4d6260906044016020604051808303816000875af11580156106be573d6000803e3d6000fd5b505050506040513d601f19601f820116820180604052508101906106e29190611e13565b5050505050565b6002546001600160a01b038481169116148061071257506004546001600160a01b038481169116145b61075e5760405162461bcd60e51b815260206004820152601f60248201527f506c73207061737320636f727265637420746f6b656e20746f20737761702e0060448201526064016105ad565b6107688383611199565b6002549092506001600160a01b03908116908416036107915761078c848383611207565b61079c565b61079c848383611390565b50505050565b6107ac8483611199565b91506107b88382611199565b90506107fa853086868686604051806080016040528060468152602001612120604691396040518060800160405280604681526020016120da60469139611175565b6002546001600160a01b03858116911614801561082457506004546001600160a01b038481169116145b15610863576003805483919060009061083e908490611e82565b909155505060058054829190600090610858908490611e82565b909155506109559050565b6004546001600160a01b03858116911614801561088d57506002546001600160a01b038481169116145b156108c157600580548391906000906108a7908490611e82565b909155505060038054829190600090610858908490611e82565b600254600480546040517ffc806d8d00000000000000000000000000000000000000000000000000000000815260a092810192909252601760a48301527f57726f6e6720746f6b656e20706169722070617373656400000000000000000060c48301526001600160a01b0380881660248401528087166044840152928316606483015291909116608482015260e4016105ad565b6001546040517fb4e2517900000000000000000000000000000000000000000000000000000000815260048101849052602481018390526001600160a01b0387811660448301529091169063b4e25179906064016020604051808303816000875af11580156109c8573d6000803e3d6000fd5b505050506040513d601f19601f820116820180604052508101906109ec9190611e13565b505050505050565b60006305f5e10081610a04611078565b600354600554919250906000610a1a8784611e82565b610a248686611eaa565b610a2e9190611ef6565b90506000610a3c8683611ef6565b90506000610a4a8285611e5b565b9998505050505050505050565b6040805160808101825260008183018181526060830182905282528251808401909352808352602080840191909152810191909152610abe6040518060a0016040528060008152602001600081526020016000815260200160008152602001600081525090565b604080516080810182526002546001600160a01b0390811682840181815260035460608501528352835180850185526004549092168252600554602083810191909152830191909152825160a081019093529093508190610b1e90610b5d565b8152600454602090910190610b3b906001600160a01b0316610b5d565b81526020016305f5e10081526020016064815260200160075481525090509091565b6002546000906305f5e1009082906001600160a01b03858116911614610b8557600554610b89565b6003545b6002549091506000906001600160a01b03868116911614610bac57600354610bb0565b6005545b9050600080821315610bd45781610bc78585611eaa565b610bd19190611ef6565b90505b95945050505050565b60025460048054600154604080517f8c237c6900000000000000000000000000000000000000000000000000000000815290516000958695869586956001600160a01b039384169591841694931692638c237c69928281019260209291908290030181865afa158015610c54573d6000803e3d6000fd5b505050506040513d601f19601f82011682018060405250810190610c789190611f85565b600754935093509350935090919293565b6003546005546000916305f5e100918382610ca48584611eaa565b610cae9190611ef6565b9050600084610cbd8389611eaa565b610cc79190611ef6565b90506000610cd4886109f4565b90508186610ce28383611e5b565b610cec9190611eaa565b610cf69190611ef6565b98975050505050505050565b6003546005546000916305f5e100918381610d1d8585611eaa565b610d279190611ef6565b9050600084610d368389611eaa565b610d409190611ef6565b90506000610d4d88610d8b565b90508186610ce28284611e5b565b6000806064600260075485610d709190611eaa565b610d7a9190611ef6565b610d849190611ef6565b9392505050565b600080610d96611078565b6003546005549192506305f5e100916000610db18783611e5b565b610dbb8587611eaa565b610dc59190611ef6565b90506000610dd38583611ef6565b90506000610a4a8583611e5b565b600054610100900460ff1615808015610e015750600054600160ff909116105b80610e1b5750303b158015610e1b575060005460ff166001145b610e8d5760405162461bcd60e51b815260206004820152602e60248201527f496e697469616c697a61626c653a20636f6e747261637420697320616c72656160448201527f647920696e697469616c697a656400000000000000000000000000000000000060648201526084016105ad565b600080547fffffffffffffffffffffffffffffffffffffffffffffffffffffffffffffff001660011790558015610eeb57600080547fffffffffffffffffffffffffffffffffffffffffffffffffffffffffffff00ff166101001790555b600080546001600160a01b03808a1662010000027fffffffffffffffffffff0000000000000000000000000000000000000000ffff909216919091178255600180548983167fffffffffffffffffffffffff0000000000000000000000000000000000000000918216179091556007859055600880548784169083161790556040805160808101825289841681830190815260608201869052815281518083019092528884168252602082810195865280820183905290518051600280549187169186169190911790550151600355516004805491909316911617905551600555610fd6308661150c565b610fe0308561150c565b600854610ff6906001600160a01b03168661150c565b60085461100c906001600160a01b03168561150c565b801561106f57600080547fffffffffffffffffffffffffffffffffffffffffffffffffffffffffffff00ff169055604051600181527f7f26b83ff96e1f2b6a682f133852f6798a09c465da95921460cefb38474024989060200160405180910390a15b50505050505050565b6003546005546000919061108c8183611eaa565b9250505090565b60008060065413156110a6575060065490565b506207a12090565b6000806000600160009054906101000a90046001600160a01b03166001600160a01b031663a1e79f756040518163ffffffff1660e01b8152600401602060405180830381865afa158015611106573d6000803e3d6000fd5b505050506040513d601f19601f8201168201806040525081019061112a9190611e13565b600354909150600090829061113f9087611eaa565b6111499190611ef6565b600554909150600090839061115e9088611eaa565b6111689190611ef6565b9196919550909350505050565b61118288888887866115fe565b61118f88888786856115fe565b5050505050505050565b60006111a48361167c565b156111fe5781156111f75760405162461bcd60e51b815260206004820181905260248201527f48424152732073686f756c642062652070617373656420617320706179626c6560448201526064016105ad565b5034611201565b50805b92915050565b600061121283610c89565b905061121e8183611711565b600080600061122c866117ce565b925092509250600061123d836109f4565b905060008061124b83611827565b9150915083600260000160010160008282546112679190611e82565b9091555050600254604080516080810190915260448082526112a3928d9230926001600160a01b039092169189919061205660208301396115fe565b6008546002546040805160808101909152604f8082526112de938e936001600160a01b03918216939116918b91906122d860208301396115fe565b6112e88183611e82565b600580546000906112fa908490611e5b565b9091555050600454611316908b906001600160a01b031661150c565b600454604080516060810182528181526113499230928e926001600160a01b039092169187916121b560208301396115fe565b6008546004546040805160808101909152604f8082526113849330936001600160a01b03918216939116918691906121f560208301396115fe565b50505050505050505050565b600061139b83610d02565b90506113a78183611711565b60008060006113b5866117ce565b92509250925060006113c683610d8b565b90506000806113d483611827565b91509150836002800160010160008282546113ef9190611e82565b90915550506004546040805160808101909152604480825261142b928d9230926001600160a01b039092169189919061232760208301396115fe565b6008546004546040805160808101909152604f808252611466938e936001600160a01b03918216939116918b91906121f560208301396115fe565b6114708183611e82565b60038054600090611482908490611e5b565b909155505060025461149e908b906001600160a01b031661150c565b600254604080516060810182528181526114d19230928e926001600160a01b0390921691879161209a60208301396115fe565b6008546002546040805160808101909152604f8082526113849330936001600160a01b039182169391169186919061216660208301396115fe565b6115158161167c565b6115fa5760008054604080516001600160a01b03868116602483015285811660448084019190915283518084039091018152606490920183526020820180517bffffffffffffffffffffffffffffffffffffffffffffffffffffffff167ff4a01e5b00000000000000000000000000000000000000000000000000000000179052915162010000909304909116916115ad9190611fc6565b600060405180830381855af49150503d80600081146115e8576040519150601f19603f3d011682016040523d82523d6000602084013e6115ed565b606091505b50509050808061079c5750505b5050565b6116078361167c565b1561165357306001600160a01b0386160361162a5761162582611852565b611633565b611633826118d2565b306001600160a01b0385161461164e5761164e828583611922565b6106e2565b306001600160a01b0386160361166f5761164e838386846119d6565b6106e28383878785611a87565b60008060029054906101000a90046001600160a01b03166001600160a01b031663e283cff76040518163ffffffff1660e01b81526004016020604051808303816000875af11580156116d2573d6000803e3d6000fd5b505050506040513d601f19601f820116820180604052508101906116f69190611f85565b6001600160a01b0316826001600160a01b0316149050919050565b600080821361172757611722611093565b611729565b815b9050808313156117c9576040517f18cc060900000000000000000000000000000000000000000000000000000000815260606004820152603760648201527f5468652063616c63756c6174656420736c697070616765206973206f7665722060848201527f74686520736c697070616765207468726573686f6c642e00000000000000000060a4820152602481018490526044810182905260c4016105ad565b505050565b6000806000806117dd85610d5b565b905060006117ec600283611ef6565b905060006117fb600284611ef6565b905060006118098489611e5b565b905060006118178383611e82565b9399919850929650945050505050565b600080600061183584610d5b565b905060006118438286611e5b565b90506000611168600284611ef6565b8061185b611b53565b10156118cf5760405162461bcd60e51b815260206004820152602760248201527f436f6e747261637420646f6573206e6f7420686176652073756666696369656e60448201527f742048626172730000000000000000000000000000000000000000000000000060648201526084016105ad565b50565b803410156118cf5760405162461bcd60e51b815260206004820152601960248201527f506c65617365207061737320636f72726563742048626172730000000000000060448201526064016105ad565b600080546040517f38709f260000000000000000000000000000000000000000000000000000000081526001600160a01b03858116600483015262010000909204909116906338709f2690869060240160206040518083038185885af1158015611990573d6000803e3d6000fd5b50505050506040513d601f19601f820116820180604052508101906119b59190611fe2565b905081816106e25760405162461bcd60e51b81526004016105ad9190612004565b6040517fa9059cbb0000000000000000000000000000000000000000000000000000000081526001600160a01b038381166004830152602482018590526000919086169063a9059cbb906044016020604051808303816000875af1158015611a42573d6000803e3d6000fd5b505050506040513d601f19601f82011682018060405250810190611a669190611fe2565b905081816109ec5760405162461bcd60e51b81526004016105ad9190612004565b600080546040517f70089d560000000000000000000000000000000000000000000000000000000081526001600160a01b038881166004830152868116602483015285811660448301526064820188905262010000909204909116906370089d56906084016020604051808303816000875af1158015611b0b573d6000803e3d6000fd5b505050506040513d601f19601f82011682018060405250810190611b2f9190611e13565b9050816016821461106f5760405162461bcd60e51b81526004016105ad9190612004565b60008060029054906101000a90046001600160a01b03166001600160a01b031663e283cff76040518163ffffffff1660e01b81526004016020604051808303816000875af1158015611ba9573d6000803e3d6000fd5b505050506040513d601f19601f82011682018060405250810190611bcd9190611f85565b6002546001600160a01b03908116911614611be9575060055490565b5060035490565b6001600160a01b03811681146118cf57600080fd5b60008060408385031215611c1857600080fd5b8235611c2381611bf0565b946020939093013593505050565b60008060008060808587031215611c4757600080fd5b8435611c5281611bf0565b93506020850135611c6281611bf0565b93969395505050506040820135916060013590565b600080600080600060a08688031215611c8f57600080fd5b8535611c9a81611bf0565b94506020860135611caa81611bf0565b93506040860135611cba81611bf0565b94979396509394606081013594506080013592915050565b600060208284031215611ce457600080fd5b5035919050565b611d0982825180516001600160a01b03168252602090810151910152565b60209081015180516001600160a01b031660408401520151606090910152565b6101208101611d388285611ceb565b82516080830152602083015160a0830152604083015160c0830152606083015160e083015260808301516101008301529392505050565b600060208284031215611d8157600080fd5b8135610d8481611bf0565b608081016112018284611ceb565b60008060008060008060c08789031215611db357600080fd5b8635611dbe81611bf0565b95506020870135611dce81611bf0565b94506040870135611dde81611bf0565b93506060870135611dee81611bf0565b92506080870135611dfe81611bf0565b8092505060a087013590509295509295509295565b600060208284031215611e2557600080fd5b5051919050565b7f4e487b7100000000000000000000000000000000000000000000000000000000600052601160045260246000fd5b8181036000831280158383131683831282161715611e7b57611e7b611e2c565b5092915050565b8082018281126000831280158216821582161715611ea257611ea2611e2c565b505092915050565b808202600082127f800000000000000000000000000000000000000000000000000000000000000084141615611ee257611ee2611e2c565b818105831482151761120157611201611e2c565b600082611f2c577f4e487b7100000000000000000000000000000000000000000000000000000000600052601260045260246000fd5b7fffffffffffffffffffffffffffffffffffffffffffffffffffffffffffffffff83147f800000000000000000000000000000000000000000000000000000000000000083141615611f8057611f80611e2c565b500590565b600060208284031215611f9757600080fd5b8151610d8481611bf0565b60005b83811015611fbd578181015183820152602001611fa5565b50506000910152565b60008251611fd8818460208701611fa2565b9190910192915050565b600060208284031215611ff457600080fd5b81518015158114610d8457600080fd5b6020815260008251806020840152612023816040850160208701611fa2565b601f017fffffffffffffffffffffffffffffffffffffffffffffffffffffffffffffffe016919091016040019291505056fe73776170546f6b656e413a205472616e7366657272696e6720746f6b656e204120746f20636f6e7472616374206661696c656420776974682073746174757320636f646573776170546f6b656e423a205472616e7366657272696e6720746f6b656e204120746f2075736572206661696c656420776974682073746174757320636f6465416464206c69717569646974793a205472616e73666572696e6720746f6b656e204220746f20636f6e7472616374206661696c656420776974682073746174757320636f6465416464206c69717569646974793a205472616e73666572696e6720746f6b656e204120746f20636f6e7472616374206661696c656420776974682073746174757320636f646573776170546f6b656e424665653a205472616e7366657272696e672066656520617320746f6b656e204120746f20747265617375617279206661696c656420776974682073746174757320636f646573776170546f6b656e413a205472616e7366657272696e6720746f6b656e204220746f2075736572206661696c656420776974682073746174757320636f646573776170546f6b656e424665653a205472616e7366657272696e672066656520617320746f6b656e204220746f20747265617375617279206661696c656420776974682073746174757320636f646552656d6f7665206c69717569646974793a205472616e7366657272696e6720746f6b656e204120746f20636f6e7472616374206661696c656420776974682073746174757320636f646552656d6f7665206c69717569646974793a205472616e7366657272696e6720746f6b656e204220746f20636f6e7472616374206661696c656420776974682073746174757320636f646573776170546f6b656e414665653a205472616e7366657272696e672066656520617320746f6b656e204120746f20747265617375617279206661696c656420776974682073746174757320636f646573776170546f6b656e423a205472616e7366657272696e6720746f6b656e204220746f20636f6e7472616374206661696c656420776974682073746174757320636f6465a26469706673582212200afb224a278afa4dbfbce832115429ed974c14723d291a1ee3b85e6ae38d93d464736f6c63430008110033",
  "linkReferences": {},
  "deployedLinkReferences": {}
}